{
    "contractName": "MoveController",
    "abi": [
        {
            "inputs": [
                {
                    "internalType": "address payable",
                    "name": "_mychessboard",
                    "type": "address"
                }
            ],
            "stateMutability": "nonpayable",
            "type": "constructor"
        },
        {
            "inputs": [
                {
                    "internalType": "uint256[2]",
                    "name": "oldpos",
                    "type": "uint256[2]"
                },
                {
                    "internalType": "uint256[2]",
                    "name": "newpos",
                    "type": "uint256[2]"
                }
            ],
            "name": "Direction",
            "outputs": [
                {
                    "internalType": "bool",
                    "name": "res",
                    "type": "bool"
                }
            ],
            "stateMutability": "view",
            "type": "function"
        },
        {
            "inputs": [
                {
                    "internalType": "uint256[2]",
                    "name": "oldpos",
                    "type": "uint256[2]"
                },
                {
                    "internalType": "uint256[2]",
                    "name": "newpos",
                    "type": "uint256[2]"
                },
                {
                    "internalType": "bool",
                    "name": "team",
                    "type": "bool"
                },
                {
                    "internalType": "uint256",
                    "name": "_maxsteps",
                    "type": "uint256"
                }
            ],
            "name": "MoveControl",
            "outputs": [
                {
                    "internalType": "bool",
                    "name": "res",
                    "type": "bool"
                }
            ],
            "stateMutability": "nonpayable",
            "type": "function"
        },
        {
            "inputs": [
                {
                    "internalType": "int256",
                    "name": "x_",
                    "type": "int256"
                }
            ],
            "name": "abs",
            "outputs": [
                {
                    "internalType": "int256",
                    "name": "_x",
                    "type": "int256"
                }
            ],
            "stateMutability": "pure",
            "type": "function"
        },
        {
            "inputs": [
                {
                    "internalType": "int256",
                    "name": "x_",
                    "type": "int256"
                }
            ],
            "name": "arrdec",
            "outputs": [
                {
                    "internalType": "int256",
                    "name": "_x",
                    "type": "int256"
                }
            ],
            "stateMutability": "pure",
            "type": "function"
        },
        {
            "inputs": [
                {
                    "internalType": "int256",
                    "name": "x_",
                    "type": "int256"
                }
            ],
            "name": "arrecc",
            "outputs": [
                {
                    "internalType": "int256",
                    "name": "_x",
                    "type": "int256"
                }
            ],
            "stateMutability": "pure",
            "type": "function"
        },
        {
            "inputs": [
                {
                    "internalType": "int256",
                    "name": "x_",
                    "type": "int256"
                }
            ],
            "name": "increment",
            "outputs": [
                {
                    "internalType": "int256",
                    "name": "inc",
                    "type": "int256"
                }
            ],
            "stateMutability": "pure",
            "type": "function"
        },
        {
            "inputs": [
                {
                    "internalType": "uint256[2]",
                    "name": "oldpos",
                    "type": "uint256[2]"
                },
                {
                    "internalType": "uint256[2]",
                    "name": "newpos",
                    "type": "uint256[2]"
                }
            ],
            "name": "isObstacled",
            "outputs": [
                {
                    "internalType": "bool",
                    "name": "res",
                    "type": "bool"
                },
                {
                    "internalType": "uint256[2]",
                    "name": "pos",
                    "type": "uint256[2]"
                }
            ],
            "stateMutability": "view",
            "type": "function"
        },
        {
            "inputs": [
                {
                    "internalType": "uint256",
                    "name": "x_",
                    "type": "uint256"
                },
                {
                    "internalType": "uint256",
                    "name": "y_",
                    "type": "uint256"
                }
            ],
            "name": "max",
            "outputs": [
                {
                    "internalType": "uint256",
                    "name": "_max",
                    "type": "uint256"
                }
            ],
            "stateMutability": "pure",
            "type": "function"
        },
        {
            "inputs": [],
            "name": "maxsteps",
            "outputs": [
                {
                    "internalType": "uint256",
                    "name": "",
                    "type": "uint256"
                }
            ],
            "stateMutability": "view",
            "type": "function"
        },
        {
            "inputs": [
                {
                    "internalType": "uint256",
                    "name": "x_",
                    "type": "uint256"
                },
                {
                    "internalType": "uint256",
                    "name": "y_",
                    "type": "uint256"
                }
            ],
            "name": "min",
            "outputs": [
                {
                    "internalType": "uint256",
                    "name": "_min",
                    "type": "uint256"
                }
            ],
            "stateMutability": "pure",
            "type": "function"
        }
    ],
    "bytecode": "608060405234801561001057600080fd5b5060405161184838038061184883398101604081905261002f91610054565b600380546001600160a01b0319166001600160a01b0392909216919091179055610084565b60006020828403121561006657600080fd5b81516001600160a01b038116811461007d57600080fd5b9392505050565b6117b5806100936000396000f3fe608060405234801561001057600080fd5b506004361061009e5760003560e01c80637ae2b5c7116100665780637ae2b5c714610129578063ac411ce61461013c578063bac351191461014f578063c03c300314610162578063ee0b07e01461017557600080fd5b80631b5ac4b5146100a35780636c1b5443146100c95780636d5433e6146100d25780636d572500146100e557806371cc5ad114610108575b600080fd5b6100b66100b1366004611461565b610188565b6040519081526020015b60405180910390f35b6100b660005481565b6100b66100e036600461147a565b6101a5565b6100f86100f336600461155c565b6101bb565b60405190151581526020016100c0565b61011b6101163660046115ab565b610b14565b6040516100c09291906115e0565b6100b661013736600461147a565b610c86565b6100f861014a3660046115ab565b610c96565b6100b661015d366004611461565b6113f4565b6100b6610170366004611461565b61140a565b6100b6610183366004611461565b611436565b6000808212156101a15761019b82611630565b92915050565b5090565b60008183106101b557508161019b565b50919050565b600354845160208601516040516303fdddf360e31b8152600481019290925260248201526000918691869186918691831515916001600160a01b0390911690631feeef98906044016040805180830381865afa15801561021f573d6000803e3d6000fd5b505050506040513d601f19601f82011682018060405250810190610243919061164c565b602001511515146102855760405162461bcd60e51b815260206004820152600760248201526606e6f74207920760cc1b60448201526064015b60405180910390fd5b8251845114158061029e57506020808401519085015114155b6102d55760405162461bcd60e51b815260206004820152600860248201526773706f737461746960c01b604482015260640161027c565b600354835160208501516040516303fdddf360e31b8152600481019290925260248201526001600160a01b0390911690631feeef98906044016040805180830381865afa15801561032a573d6000803e3d6000fd5b505050506040513d601f19601f8201168201806040525081019061034e919061164c565b511561040757600354835160208501516040516303fdddf360e31b815260048101929092526024820152831515916001600160a01b031690631feeef98906044016040805180830381865afa1580156103ab573d6000803e3d6000fd5b505050506040513d601f19601f820116820180604052508101906103cf919061164c565b602001511515036104075760405162461bcd60e51b8152602060048201526002602482015261333360f11b604482015260640161027c565b8351835161041591906116a2565b6001556020808501519084015161042c91906116a2565b600255600061043b8585610c96565b9050806104735760405162461bcd60e51b815260040161027c906020808252600490820152636469726d60e01b604082015260600190565b600354855160208701516040516303fdddf360e31b8152600481019290925260248201526001600160a01b0390911690631feeef98906044016040805180830381865afa1580156104c8573d6000803e3d6000fd5b505050506040513d601f19601f820116820180604052508101906104ec919061164c565b5160050361088f576020850151158015610507575084516004145b801561058557506003546040516303fdddf360e31b8152600480820152600060248201526001600160a01b0390911690631feeef98906044016040805180830381865afa15801561055c573d6000803e3d6000fd5b505050506040513d601f19601f82011682018060405250810190610580919061164c565b516005145b80156106b65750602084015115801561059f575083516006145b801561061e57506003546040516303fdddf360e31b815260076004820152600060248201526001600160a01b0390911690631feeef98906044016040805180830381865afa1580156105f5573d6000803e3d6000fd5b505050506040513d601f19601f82011682018060405250810190610619919061164c565b516002145b806106b657506020840151158015610637575083516002145b80156106b657506003546040516303fdddf360e31b815260006004820181905260248201526001600160a01b0390911690631feeef98906044016040805180830381865afa15801561068d573d6000803e3d6000fd5b505050506040513d601f19601f820116820180604052508101906106b1919061164c565b516002145b806108855750602085015160071480156106d1575084516003145b80156107505750600380546040516303fdddf360e31b81526004810192909252600760248301526001600160a01b031690631feeef98906044016040805180830381865afa158015610727573d6000803e3d6000fd5b505050506040513d601f19601f8201168201806040525081019061074b919061164c565b516005145b801561088557506020840151600114801561076c575083516007145b80156107eb57506003546040516303fdddf360e31b815260076004820181905260248201526001600160a01b0390911690631feeef98906044016040805180830381865afa1580156107c2573d6000803e3d6000fd5b505050506040513d601f19601f820116820180604052508101906107e6919061164c565b516002145b80610885575060208401516005148015610806575083516002145b801561088557506003546040516303fdddf360e31b815260006004820152600760248201526001600160a01b0390911690631feeef98906044016040805180830381865afa15801561085c573d6000803e3d6000fd5b505050506040513d601f19601f82011682018060405250810190610880919061164c565b516002145b1561088f57600291505b600354855160208701516040516303fdddf360e31b8152600481019290925260248201526001600160a01b0390911690631feeef98906044016040805180830381865afa1580156108e4573d6000803e3d6000fd5b505050506040513d601f19601f82011682018060405250810190610908919061164c565b51600314610b0457600354855160208701516040516303fdddf360e31b8152600481019290925260248201526001600160a01b0390911690631feeef98906044016040805180830381865afa158015610965573d6000803e3d6000fd5b505050506040513d601f19601f82011682018060405250810190610989919061164c565b51600103610a5f57600083156109e25760208086015190870151116109ca5760405162461bcd60e51b8152602060048201526000602482015260440161027c565b60208601516006036109de575060016109e2565b5060005b83610a30576020808601519087015110610a185760405162461bcd60e51b8152602060048201526000602482015260440161027c565b6020860151600103610a2c57506001610a30565b5060005b60208087015190860151610a47916100b1916116a2565b6002148015610a535750805b15610a5d57600292505b505b610a6a600154610188565b8210158015610a835750610a7f600254610188565b8210155b610ab55760405162461bcd60e51b81526020600482015260036024820152620dac2f60eb1b604482015260640161027c565b6000610abf611443565b610ac98787610b14565b909250905081610b015760405162461bcd60e51b81526020600482015260036024820152626f627360e81b604482015260640161027c565b50505b5060019998505050505050505050565b6000610b1e611443565b83518351600091610b2e916116a2565b60208087015190860151919250600091610b4891906116a2565b90506000610b558361140a565b90506000610b628361140a565b885160208a015160019850919250905b885182141580610b86575060208901518114155b15610c7957610b9584836116c9565b9150610ba183826116c9565b6003546040516303fdddf360e31b815260048101859052602481018390529192506001600160a01b031690631feeef98906044016040805180830381865afa158015610bf1573d6000803e3d6000fd5b505050506040513d601f19601f82011682018060405250810190610c15919061164c565b5115801590610c34575088518214801590610c34575060208901518114155b15610c5957600097506040518060400160405280838152602001828152509650610c79565b600197506040518060400160405280838152602001828152509650610b72565b5050505050509250929050565b60008183116101b557508161019b565b815181516000918291610ca991906116a2565b60208086015190850151919250600091610cc391906116a2565b90508115801590610cd2575080155b15610dd857600354855160208701516040516303fdddf360e31b8152600481019290925260248201526001600160a01b0390911690638f7daf0f908290631feeef98906044016040805180830381865afa158015610d34573d6000803e3d6000fd5b505050506040513d601f19601f82011682018060405250810190610d58919061164c565b5160405160e083901b6001600160e01b03191681526004810191909152602401608060405180830381865afa158015610d95573d6000803e3d6000fd5b505050506040513d601f19601f82011682018060405250810190610db991906116e9565b5160005b6020020151610dcf57600092506113ec565b600192506113ec565b8015801590610de5575081155b15610ed457600354855160208701516040516303fdddf360e31b8152600481019290925260248201526001600160a01b0390911690638f7daf0f908290631feeef98906044016040805180830381865afa158015610e47573d6000803e3d6000fd5b505050506040513d601f19601f82011682018060405250810190610e6b919061164c565b5160405160e083901b6001600160e01b03191681526004810191909152602401608060405180830381865afa158015610ea8573d6000803e3d6000fd5b505050506040513d601f19601f82011682018060405250810190610ecc91906116e9565b516001610dbd565b8115801590610ef25750610ee781610188565b610ef083610188565b145b1561131257600354855160208701516040516303fdddf360e31b8152600481019290925260248201526001600160a01b0390911690631feeef98906044016040805180830381865afa158015610f4c573d6000803e3d6000fd5b505050506040513d601f19601f82011682018060405250810190610f70919061164c565b516001148015610ff85750600354845160208601516040516303fdddf360e31b8152600481019290925260248201526001600160a01b0390911690631feeef98906044016040805180830381865afa158015610fd0573d6000803e3d6000fd5b505050506040513d601f19601f82011682018060405250810190610ff4919061164c565b5115155b801561100c575061100882610188565b6001145b1561101a57600192506113ec565b600354855160208701516040516303fdddf360e31b8152600481019290925260248201526001600160a01b0390911690638f7daf0f908290631feeef98906044016040805180830381865afa158015611077573d6000803e3d6000fd5b505050506040513d601f19601f8201168201806040525081019061109b919061164c565b5160405160e083901b6001600160e01b03191681526004810191909152602401608060405180830381865afa1580156110d8573d6000803e3d6000fd5b505050506040513d601f19601f820116820180604052508101906110fc91906116e9565b51604001511580156111885750600354855160208701516040516303fdddf360e31b8152600481019290925260248201526001600160a01b0390911690631feeef98906044016040805180830381865afa15801561115e573d6000803e3d6000fd5b505050506040513d601f19601f82011682018060405250810190611182919061164c565b51600114155b1561119657600092506113ec565b600354855160208701516040516303fdddf360e31b8152600481019290925260248201526001600160a01b0390911690638f7daf0f908290631feeef98906044016040805180830381865afa1580156111f3573d6000803e3d6000fd5b505050506040513d601f19601f82011682018060405250810190611217919061164c565b5160405160e083901b6001600160e01b03191681526004810191909152602401608060405180830381865afa158015611254573d6000803e3d6000fd5b505050506040513d601f19601f8201168201806040525081019061127891906116e9565b516040015180156113035750600354855160208701516040516303fdddf360e31b8152600481019290925260248201526001600160a01b0390911690631feeef98906044016040805180830381865afa1580156112d9573d6000803e3d6000fd5b505050506040513d601f19601f820116820180604052508101906112fd919061164c565b51600114155b1561130d57600192505b6113ec565b61131b82610188565b6002148015611332575061132e81610188565b6001145b80611358575061134182610188565b6001148015611358575061135481610188565b6002145b156113e757600354855160208701516040516303fdddf360e31b8152600481019290925260248201526001600160a01b0390911690631feeef98906044016040805180830381865afa1580156113b2573d6000803e3d6000fd5b505050506040513d601f19601f820116820180604052508101906113d6919061164c565b51600314610dcf57600092506113ec565b600092505b505092915050565b600060078213611402575090565b506007919050565b60008082121561141d5750600019919050565b600082131561142e57506001919050565b506000919050565b600080821261142e575090565b60405180604001604052806002906020820280368337509192915050565b60006020828403121561147357600080fd5b5035919050565b6000806040838503121561148d57600080fd5b50508035926020909101359150565b634e487b7160e01b600052604160045260246000fd5b6040516060810167ffffffffffffffff811182821017156114d5576114d561149c565b60405290565b600082601f8301126114ec57600080fd5b6040516040810181811067ffffffffffffffff8211171561150f5761150f61149c565b806040525080604084018581111561152657600080fd5b845b81811015611540578035835260209283019201611528565b509195945050505050565b801515811461155957600080fd5b50565b60008060008060c0858703121561157257600080fd5b61157c86866114db565b935061158b86604087016114db565b9250608085013561159b8161154b565b9396929550929360a00135925050565b600080608083850312156115be57600080fd5b6115c884846114db565b91506115d784604085016114db565b90509250929050565b82151581526060810160208083018460005b600281101561160f578151835291830191908301906001016115f2565b505050509392505050565b634e487b7160e01b600052601160045260246000fd5b6000600160ff1b82016116455761164561161a565b5060000390565b60006040828403121561165e57600080fd5b6040516040810181811067ffffffffffffffff821117156116815761168161149c565b6040528251815260208301516116968161154b565b60208201529392505050565b81810360008312801583831316838312821617156116c2576116c261161a565b5092915050565b80820182811260008312801582168215821617156113ec576113ec61161a565b6000608082840312156116fb57600080fd5b6040516040810181811067ffffffffffffffff8211171561171e5761171e61149c565b604052601f8301841361173057600080fd5b6117386114b2565b80606085018681111561174a57600080fd5b855b8181101561176d57805161175f8161154b565b84526020938401930161174c565b5090835251602083015250939250505056fea2646970667358221220ece0c9b849090c341427c4583bc262342fa8944cbb42be560586f08e37443ccd64736f6c63430008100033",
    "sourcePath": "/home/peterbruegel/GitHub/chessboard.io/contracts/MoveController.sol",
    "compiler": {
        "name": "solc",
        "version": "0.8.16+commit.07a7930e"
    },
    "functionHashes": {
        "Direction(uint256[2],uint256[2])": "ac411ce6",
        "MoveControl(uint256[2],uint256[2],bool,uint256)": "6d572500",
        "abs(int256)": "1b5ac4b5",
        "arrdec(int256)": "ee0b07e0",
        "arrecc(int256)": "bac35119",
        "increment(int256)": "c03c3003",
        "isObstacled(uint256[2],uint256[2])": "71cc5ad1",
        "max(uint256,uint256)": "6d5433e6",
        "maxsteps()": "6c1b5443",
        "min(uint256,uint256)": "7ae2b5c7"
    },
    "gasEstimates": {
        "creation": {
            "codeDepositCost": "1213800",
            "executionCost": "infinite",
            "totalCost": "infinite"
        },
        "external": {
            "Direction(uint256[2],uint256[2])": "infinite",
            "MoveControl(uint256[2],uint256[2],bool,uint256)": "infinite",
            "abs(int256)": "376",
            "arrdec(int256)": "394",
            "arrecc(int256)": "350",
            "increment(int256)": "401",
            "isObstacled(uint256[2],uint256[2])": "infinite",
            "max(uint256,uint256)": "387",
            "maxsteps()": "2307",
            "min(uint256,uint256)": "342"
        }
    }
}