{
  "_format": "hh-sol-artifact-1",
  "contractName": "ChessBoard",
  "sourceName": "contracts/ChessBoard.sol",
  "abi": [
    {
      "inputs": [
        {
          "internalType": "address",
          "name": "_player1",
          "type": "address"
        },
        {
          "internalType": "address",
          "name": "_player2",
          "type": "address"
        }
      ],
      "stateMutability": "nonpayable",
      "type": "constructor"
    },
    {
      "inputs": [
        {
          "internalType": "bool",
          "name": "",
          "type": "bool"
        }
      ],
      "name": "KingsFirstmove",
      "outputs": [
        {
          "internalType": "bool",
          "name": "",
          "type": "bool"
        }
      ],
      "stateMutability": "view",
      "type": "function"
    },
    {
      "inputs": [
        {
          "internalType": "uint256[2]",
          "name": "oldpos",
          "type": "uint256[2]"
        },
        {
          "internalType": "uint256[2]",
          "name": "newpos",
          "type": "uint256[2]"
        }
      ],
      "name": "Move",
      "outputs": [
        {
          "internalType": "bool",
          "name": "res",
          "type": "bool"
        }
      ],
      "stateMutability": "nonpayable",
      "type": "function"
    },
    {
      "inputs": [],
      "name": "Movecontroller",
      "outputs": [
        {
          "internalType": "contract MoveController",
          "name": "",
          "type": "address"
        }
      ],
      "stateMutability": "view",
      "type": "function"
    },
    {
      "inputs": [],
      "name": "Movehandler",
      "outputs": [
        {
          "internalType": "contract MoveHandler",
          "name": "",
          "type": "address"
        }
      ],
      "stateMutability": "view",
      "type": "function"
    },
    {
      "inputs": [
        {
          "internalType": "bool",
          "name": "",
          "type": "bool"
        },
        {
          "internalType": "bool",
          "name": "",
          "type": "bool"
        }
      ],
      "name": "TowersFirstmove",
      "outputs": [
        {
          "internalType": "bool",
          "name": "",
          "type": "bool"
        }
      ],
      "stateMutability": "view",
      "type": "function"
    },
    {
      "inputs": [
        {
          "internalType": "bool",
          "name": "",
          "type": "bool"
        }
      ],
      "name": "check",
      "outputs": [
        {
          "internalType": "bool",
          "name": "",
          "type": "bool"
        }
      ],
      "stateMutability": "view",
      "type": "function"
    },
    {
      "inputs": [
        {
          "internalType": "uint256",
          "name": "i",
          "type": "uint256"
        },
        {
          "internalType": "uint256",
          "name": "j",
          "type": "uint256"
        }
      ],
      "name": "getBox",
      "outputs": [
        {
          "components": [
            {
              "internalType": "uint256",
              "name": "pedina",
              "type": "uint256"
            },
            {
              "internalType": "bool",
              "name": "color",
              "type": "bool"
            }
          ],
          "internalType": "struct ChessBoard.Box",
          "name": "box",
          "type": "tuple"
        }
      ],
      "stateMutability": "view",
      "type": "function"
    },
    {
      "inputs": [
        {
          "internalType": "bool",
          "name": "_player",
          "type": "bool"
        }
      ],
      "name": "getCheck",
      "outputs": [
        {
          "internalType": "bool",
          "name": "res",
          "type": "bool"
        }
      ],
      "stateMutability": "view",
      "type": "function"
    },
    {
      "inputs": [
        {
          "internalType": "bool",
          "name": "team",
          "type": "bool"
        }
      ],
      "name": "getKing",
      "outputs": [
        {
          "internalType": "uint256[2]",
          "name": "pos",
          "type": "uint256[2]"
        }
      ],
      "stateMutability": "view",
      "type": "function"
    },
    {
      "inputs": [
        {
          "internalType": "bool",
          "name": "team",
          "type": "bool"
        }
      ],
      "name": "getPlayer",
      "outputs": [
        {
          "internalType": "address",
          "name": "_player",
          "type": "address"
        }
      ],
      "stateMutability": "view",
      "type": "function"
    },
    {
      "inputs": [
        {
          "internalType": "uint256",
          "name": "pedina",
          "type": "uint256"
        }
      ],
      "name": "getRules",
      "outputs": [
        {
          "components": [
            {
              "internalType": "bool[3]",
              "name": "moves_directions",
              "type": "bool[3]"
            },
            {
              "internalType": "uint256",
              "name": "maxsteps",
              "type": "uint256"
            }
          ],
          "internalType": "struct ChessBoard._Rules",
          "name": "rule",
          "type": "tuple"
        }
      ],
      "stateMutability": "view",
      "type": "function"
    },
    {
      "inputs": [
        {
          "internalType": "address",
          "name": "_player",
          "type": "address"
        }
      ],
      "name": "getTeam",
      "outputs": [
        {
          "internalType": "bool",
          "name": "team",
          "type": "bool"
        }
      ],
      "stateMutability": "view",
      "type": "function"
    },
    {
      "inputs": [
        {
          "internalType": "uint256[2]",
          "name": "newpos",
          "type": "uint256[2]"
        },
        {
          "internalType": "bool",
          "name": "team",
          "type": "bool"
        }
      ],
      "name": "isNotEvilBox",
      "outputs": [
        {
          "internalType": "bool",
          "name": "res",
          "type": "bool"
        }
      ],
      "stateMutability": "view",
      "type": "function"
    },
    {
      "inputs": [
        {
          "internalType": "bool",
          "name": "",
          "type": "bool"
        }
      ],
      "name": "players",
      "outputs": [
        {
          "internalType": "address",
          "name": "",
          "type": "address"
        }
      ],
      "stateMutability": "view",
      "type": "function"
    },
    {
      "inputs": [
        {
          "internalType": "address",
          "name": "",
          "type": "address"
        }
      ],
      "name": "prizes",
      "outputs": [
        {
          "internalType": "uint256",
          "name": "",
          "type": "uint256"
        }
      ],
      "stateMutability": "view",
      "type": "function"
    },
    {
      "inputs": [],
      "name": "totalPrize",
      "outputs": [
        {
          "internalType": "uint256",
          "name": "",
          "type": "uint256"
        }
      ],
      "stateMutability": "view",
      "type": "function"
    },
    {
      "inputs": [],
      "name": "winner",
      "outputs": [
        {
          "internalType": "address",
          "name": "",
          "type": "address"
        }
      ],
      "stateMutability": "view",
      "type": "function"
    },
    {
      "stateMutability": "payable",
      "type": "receive"
    }
  ],
  "bytecode": "0x60806040523480156200001157600080fd5b506040516200aea63803806200aea6833981810160405281019062000037919062001f49565b30604051620000469062001dba565b62000052919062001fb5565b604051809103906000f0801580156200006f573d6000803e3d6000fd5b50608b60006101000a81548173ffffffffffffffffffffffffffffffffffffffff021916908373ffffffffffffffffffffffffffffffffffffffff160217905550608b60009054906101000a900473ffffffffffffffffffffffffffffffffffffffff1630604051620000e29062001dc8565b620000ef92919062001fe3565b604051809103906000f0801580156200010c573d6000803e3d6000fd5b50608c60006101000a81548173ffffffffffffffffffffffffffffffffffffffff021916908373ffffffffffffffffffffffffffffffffffffffff1602179055508160096000600115151515815260200190815260200160002060006101000a81548173ffffffffffffffffffffffffffffffffffffffff021916908373ffffffffffffffffffffffffffffffffffffffff16021790555080600960008015151515815260200190815260200160002060006101000a81548173ffffffffffffffffffffffffffffffffffffffff021916908373ffffffffffffffffffffffffffffffffffffffff16021790555081600160006101000a81548173ffffffffffffffffffffffffffffffffffffffff021916908373ffffffffffffffffffffffffffffffffffffffff16021790555060016008600060096000600115151515815260200190815260200160002060009054906101000a900473ffffffffffffffffffffffffffffffffffffffff1673ffffffffffffffffffffffffffffffffffffffff1673ffffffffffffffffffffffffffffffffffffffff16815260200190815260200160002060006101000a81548160ff021916908315150217905550600060086000600960008015151515815260200190815260200160002060009054906101000a900473ffffffffffffffffffffffffffffffffffffffff1673ffffffffffffffffffffffffffffffffffffffff1673ffffffffffffffffffffffffffffffffffffffff16815260200190815260200160002060006101000a81548160ff0219169083151502179055506040518060400160405280600360ff168152602001600760ff16815250600460006008600060096000600115151515815260200190815260200160002060009054906101000a900473ffffffffffffffffffffffffffffffffffffffff1673ffffffffffffffffffffffffffffffffffffffff1673ffffffffffffffffffffffffffffffffffffffff16815260200190815260200160002060009054906101000a900460ff161515151581526020019081526020016000209060026200042292919062001dd6565b506040518060400160405280600360ff168152602001600060ff168152506004600060086000600960008015151515815260200190815260200160002060009054906101000a900473ffffffffffffffffffffffffffffffffffffffff1673ffffffffffffffffffffffffffffffffffffffff1673ffffffffffffffffffffffffffffffffffffffff16815260200190815260200160002060009054906101000a900460ff16151515158152602001908152602001600020906002620004ea92919062001dd6565b506000600760006008600060096000600115151515815260200190815260200160002060009054906101000a900473ffffffffffffffffffffffffffffffffffffffff1673ffffffffffffffffffffffffffffffffffffffff1673ffffffffffffffffffffffffffffffffffffffff16815260200190815260200160002060009054906101000a900460ff1615151515815260200190815260200160002060006101000a81548160ff02191690831515021790555060006007600060086000600960008015151515815260200190815260200160002060009054906101000a900473ffffffffffffffffffffffffffffffffffffffff1673ffffffffffffffffffffffffffffffffffffffff1673ffffffffffffffffffffffffffffffffffffffff16815260200190815260200160002060009054906101000a900460ff1615151515815260200190815260200160002060006101000a81548160ff0219169083151502179055506001600560006008600060096000600115151515815260200190815260200160002060009054906101000a900473ffffffffffffffffffffffffffffffffffffffff1673ffffffffffffffffffffffffffffffffffffffff1673ffffffffffffffffffffffffffffffffffffffff16815260200190815260200160002060009054906101000a900460ff1615151515815260200190815260200160002060006101000a81548160ff02191690831515021790555060016005600060086000600960008015151515815260200190815260200160002060009054906101000a900473ffffffffffffffffffffffffffffffffffffffff1673ffffffffffffffffffffffffffffffffffffffff1673ffffffffffffffffffffffffffffffffffffffff16815260200190815260200160002060009054906101000a900460ff1615151515815260200190815260200160002060006101000a81548160ff0219169083151502179055506001600660006008600060096000600115151515815260200190815260200160002060009054906101000a900473ffffffffffffffffffffffffffffffffffffffff1673ffffffffffffffffffffffffffffffffffffffff1673ffffffffffffffffffffffffffffffffffffffff16815260200190815260200160002060009054906101000a900460ff1615151515815260200190815260200160002060008015151515815260200190815260200160002060006101000a81548160ff0219169083151502179055506001600660006008600060096000600115151515815260200190815260200160002060009054906101000a900473ffffffffffffffffffffffffffffffffffffffff1673ffffffffffffffffffffffffffffffffffffffff1673ffffffffffffffffffffffffffffffffffffffff16815260200190815260200160002060009054906101000a900460ff161515151581526020019081526020016000206000600115151515815260200190815260200160002060006101000a81548160ff02191690831515021790555060016006600060086000600960008015151515815260200190815260200160002060009054906101000a900473ffffffffffffffffffffffffffffffffffffffff1673ffffffffffffffffffffffffffffffffffffffff1673ffffffffffffffffffffffffffffffffffffffff16815260200190815260200160002060009054906101000a900460ff1615151515815260200190815260200160002060008015151515815260200190815260200160002060006101000a81548160ff02191690831515021790555060016006600060086000600960008015151515815260200190815260200160002060009054906101000a900473ffffffffffffffffffffffffffffffffffffffff1673ffffffffffffffffffffffffffffffffffffffff1673ffffffffffffffffffffffffffffffffffffffff16815260200190815260200160002060009054906101000a900460ff161515151581526020019081526020016000206000600115151515815260200190815260200160002060006101000a81548160ff0219169083151502179055506040518060400160405280604051806060016040528060001515151581526020016000151515158152602001600015151515815250815260200160008152506003600080815260200190815260200160002060008201518160000190600362000b4892919062001e20565b5060208201518160010155905050604051806040016040528060405180606001604052806000151515158152602001600115151515815260200160001515151581525081526020016001815250600360006001815260200190815260200160002060008201518160000190600362000bc292919062001e20565b5060208201518160010155905050604051806040016040528060405180606001604052806001151515158152602001600115151515815260200160001515151581525081526020016007815250600360006002815260200190815260200160002060008201518160000190600362000c3c92919062001e20565b5060208201518160010155905050604051806040016040528060405180606001604052806000151515158152602001600015151515815260200160001515151581525081526020016004815250600360006003815260200190815260200160002060008201518160000190600362000cb692919062001e20565b5060208201518160010155905050604051806040016040528060405180606001604052806000151515158152602001600015151515815260200160011515151581525081526020016007815250600360006004815260200190815260200160002060008201518160000190600362000d3092919062001e20565b5060208201518160010155905050604051806040016040528060405180606001604052806001151515158152602001600115151515815260200160011515151581525081526020016001815250600360006005815260200190815260200160002060008201518160000190600362000daa92919062001e20565b5060208201518160010155905050604051806040016040528060405180606001604052806001151515158152602001600115151515815260200160011515151581525081526020016007815250600360006006815260200190815260200160002060008201518160000190600362000e2492919062001e20565b506020820151816001015590505060405180604001604052806002815260200160001515815250600b60006008811062000e635762000e6262002010565b5b6010020160006008811062000e7d5762000e7c62002010565b5b600202016000820151816000015560208201518160010160006101000a81548160ff02191690831515021790555090505060405180604001604052806003815260200160001515815250600b60016008811062000edf5762000ede62002010565b5b6010020160006008811062000ef95762000ef862002010565b5b600202016000820151816000015560208201518160010160006101000a81548160ff02191690831515021790555090505060405180604001604052806004815260200160001515815250600b60026008811062000f5b5762000f5a62002010565b5b6010020160006008811062000f755762000f7462002010565b5b600202016000820151816000015560208201518160010160006101000a81548160ff02191690831515021790555090505060405180604001604052806005815260200160001515815250600b60036008811062000fd75762000fd662002010565b5b6010020160006008811062000ff15762000ff062002010565b5b600202016000820151816000015560208201518160010160006101000a81548160ff02191690831515021790555090505060405180604001604052806006815260200160001515815250600b60046008811062001053576200105262002010565b5b601002016000600881106200106d576200106c62002010565b5b600202016000820151816000015560208201518160010160006101000a81548160ff02191690831515021790555090505060405180604001604052806004815260200160001515815250600b600560088110620010cf57620010ce62002010565b5b60100201600060088110620010e957620010e862002010565b5b600202016000820151816000015560208201518160010160006101000a81548160ff02191690831515021790555090505060405180604001604052806003815260200160001515815250600b6006600881106200114b576200114a62002010565b5b6010020160006008811062001165576200116462002010565b5b600202016000820151816000015560208201518160010160006101000a81548160ff02191690831515021790555090505060405180604001604052806002815260200160001515815250600b600760088110620011c757620011c662002010565b5b60100201600060088110620011e157620011e062002010565b5b600202016000820151816000015560208201518160010160006101000a81548160ff02191690831515021790555090505060405180604001604052806001815260200160001515815250600b60006008811062001243576200124262002010565b5b601002016001600881106200125d576200125c62002010565b5b600202016000820151816000015560208201518160010160006101000a81548160ff02191690831515021790555090505060405180604001604052806001815260200160001515815250600b600160088110620012bf57620012be62002010565b5b60100201600160088110620012d957620012d862002010565b5b600202016000820151816000015560208201518160010160006101000a81548160ff02191690831515021790555090505060405180604001604052806001815260200160001515815250600b6002600881106200133b576200133a62002010565b5b6010020160016008811062001355576200135462002010565b5b600202016000820151816000015560208201518160010160006101000a81548160ff02191690831515021790555090505060405180604001604052806001815260200160001515815250600b600360088110620013b757620013b662002010565b5b60100201600160088110620013d157620013d062002010565b5b600202016000820151816000015560208201518160010160006101000a81548160ff02191690831515021790555090505060405180604001604052806001815260200160001515815250600b60046008811062001433576200143262002010565b5b601002016001600881106200144d576200144c62002010565b5b600202016000820151816000015560208201518160010160006101000a81548160ff02191690831515021790555090505060405180604001604052806001815260200160001515815250600b600560088110620014af57620014ae62002010565b5b60100201600160088110620014c957620014c862002010565b5b600202016000820151816000015560208201518160010160006101000a81548160ff02191690831515021790555090505060405180604001604052806001815260200160001515815250600b6006600881106200152b576200152a62002010565b5b6010020160016008811062001545576200154462002010565b5b600202016000820151816000015560208201518160010160006101000a81548160ff02191690831515021790555090505060405180604001604052806001815260200160001515815250600b600760088110620015a757620015a662002010565b5b60100201600160088110620015c157620015c062002010565b5b600202016000820151816000015560208201518160010160006101000a81548160ff02191690831515021790555090505060405180604001604052806001815260200160011515815250600b60006008811062001623576200162262002010565b5b601002016006600881106200163d576200163c62002010565b5b600202016000820151816000015560208201518160010160006101000a81548160ff02191690831515021790555090505060405180604001604052806001815260200160011515815250600b6001600881106200169f576200169e62002010565b5b60100201600660088110620016b957620016b862002010565b5b600202016000820151816000015560208201518160010160006101000a81548160ff02191690831515021790555090505060405180604001604052806001815260200160011515815250600b6002600881106200171b576200171a62002010565b5b6010020160066008811062001735576200173462002010565b5b600202016000820151816000015560208201518160010160006101000a81548160ff02191690831515021790555090505060405180604001604052806001815260200160011515815250600b60036008811062001797576200179662002010565b5b60100201600660088110620017b157620017b062002010565b5b600202016000820151816000015560208201518160010160006101000a81548160ff02191690831515021790555090505060405180604001604052806001815260200160011515815250600b60046008811062001813576200181262002010565b5b601002016006600881106200182d576200182c62002010565b5b600202016000820151816000015560208201518160010160006101000a81548160ff02191690831515021790555090505060405180604001604052806001815260200160011515815250600b6005600881106200188f576200188e62002010565b5b60100201600660088110620018a957620018a862002010565b5b600202016000820151816000015560208201518160010160006101000a81548160ff02191690831515021790555090505060405180604001604052806001815260200160011515815250600b6006600881106200190b576200190a62002010565b5b6010020160066008811062001925576200192462002010565b5b600202016000820151816000015560208201518160010160006101000a81548160ff02191690831515021790555090505060405180604001604052806001815260200160011515815250600b60076008811062001987576200198662002010565b5b60100201600660088110620019a157620019a062002010565b5b600202016000820151816000015560208201518160010160006101000a81548160ff02191690831515021790555090505060405180604001604052806002815260200160011515815250600b60006008811062001a035762001a0262002010565b5b6010020160076008811062001a1d5762001a1c62002010565b5b600202016000820151816000015560208201518160010160006101000a81548160ff02191690831515021790555090505060405180604001604052806003815260200160011515815250600b60016008811062001a7f5762001a7e62002010565b5b6010020160076008811062001a995762001a9862002010565b5b600202016000820151816000015560208201518160010160006101000a81548160ff02191690831515021790555090505060405180604001604052806004815260200160011515815250600b60026008811062001afb5762001afa62002010565b5b6010020160076008811062001b155762001b1462002010565b5b600202016000820151816000015560208201518160010160006101000a81548160ff02191690831515021790555090505060405180604001604052806005815260200160011515815250600b60036008811062001b775762001b7662002010565b5b6010020160076008811062001b915762001b9062002010565b5b600202016000820151816000015560208201518160010160006101000a81548160ff02191690831515021790555090505060405180604001604052806006815260200160011515815250600b60046008811062001bf35762001bf262002010565b5b6010020160076008811062001c0d5762001c0c62002010565b5b600202016000820151816000015560208201518160010160006101000a81548160ff02191690831515021790555090505060405180604001604052806004815260200160011515815250600b60056008811062001c6f5762001c6e62002010565b5b6010020160076008811062001c895762001c8862002010565b5b600202016000820151816000015560208201518160010160006101000a81548160ff02191690831515021790555090505060405180604001604052806003815260200160011515815250600b60066008811062001ceb5762001cea62002010565b5b6010020160076008811062001d055762001d0462002010565b5b600202016000820151816000015560208201518160010160006101000a81548160ff02191690831515021790555090505060405180604001604052806002815260200160011515815250600b60076008811062001d675762001d6662002010565b5b6010020160076008811062001d815762001d8062002010565b5b600202016000820151816000015560208201518160010160006101000a81548160ff02191690831515021790555090505050506200203f565b612fbe80620053d983390190565b612b0f806200839783390190565b826002810192821562001e0d579160200282015b8281111562001e0c578251829060ff1690559160200191906001019062001dea565b5b50905062001e1c919062001ec0565b5090565b826003601f0160209004810192821562001ead5791602002820160005b8382111562001e7c57835183826101000a81548160ff021916908315150217905550926020019260010160208160000104928301926001030262001e3d565b801562001eab5782816101000a81549060ff021916905560010160208160000104928301926001030262001e7c565b505b50905062001ebc919062001ec0565b5090565b5b8082111562001edb57600081600090555060010162001ec1565b5090565b600080fd5b600073ffffffffffffffffffffffffffffffffffffffff82169050919050565b600062001f118262001ee4565b9050919050565b62001f238162001f04565b811462001f2f57600080fd5b50565b60008151905062001f438162001f18565b92915050565b6000806040838503121562001f635762001f6262001edf565b5b600062001f738582860162001f32565b925050602062001f868582860162001f32565b9150509250929050565b600062001f9d8262001ee4565b9050919050565b62001faf8162001f90565b82525050565b600060208201905062001fcc600083018462001fa4565b92915050565b62001fdd8162001f04565b82525050565b600060408201905062001ffa600083018562001fd2565b62002009602083018462001fa4565b9392505050565b7f4e487b7100000000000000000000000000000000000000000000000000000000600052603260045260246000fd5b61338a806200204f6000396000f3fe6080604052600436106101025760003560e01c8063b35d11bf11610095578063d0d6defb11610064578063d0d6defb14610546578063dbdfbae714610583578063dfbf53ae146105ae578063fd5fcef1146105d9578063fe9ba8ec1461060457610277565b8063b35d11bf14610452578063b99e131b1461048f578063bbc2b0ce146104cc578063c33b07781461050957610277565b806382b1ad50116100d157806382b1ad501461037057806387529f0f1461039b5780638f7daf0f146103d8578063915b740d1461041557610277565b80631feeef981461027c578063241c5912146102b95780632f553dec146102f65780637ac8802e1461033357610277565b366102775760096000600115151515815260200190815260200160002060009054906101000a900473ffffffffffffffffffffffffffffffffffffffff1673ffffffffffffffffffffffffffffffffffffffff163373ffffffffffffffffffffffffffffffffffffffff1614806101db5750600960008015151515815260200190815260200160002060009054906101000a900473ffffffffffffffffffffffffffffffffffffffff1673ffffffffffffffffffffffffffffffffffffffff163373ffffffffffffffffffffffffffffffffffffffff16145b61021a576040517f08c379a000000000000000000000000000000000000000000000000000000000815260040161021190612743565b60405180910390fd5b34600a60003373ffffffffffffffffffffffffffffffffffffffff1673ffffffffffffffffffffffffffffffffffffffff168152602001908152602001600020819055503460008082825461026f919061279c565b925050819055005b600080fd5b34801561028857600080fd5b506102a3600480360381019061029e919061282d565b610641565b6040516102b091906128c6565b60405180910390f35b3480156102c557600080fd5b506102e060048036038101906102db919061290d565b6106af565b6040516102ed9190612949565b60405180910390f35b34801561030257600080fd5b5061031d60048036038101906103189190612aab565b6106cf565b60405161032a9190612949565b60405180910390f35b34801561033f57600080fd5b5061035a60048036038101906103559190612aeb565b611f41565b6040516103679190612949565b60405180910390f35b34801561037c57600080fd5b50610385611f70565b6040516103929190612b3a565b60405180910390f35b3480156103a757600080fd5b506103c260048036038101906103bd9190612bb3565b611f76565b6040516103cf9190612949565b60405180910390f35b3480156103e457600080fd5b506103ff60048036038101906103fa9190612be0565b611fcc565b60405161040c9190612cd8565b60405180910390f35b34801561042157600080fd5b5061043c6004803603810190610437919061290d565b61206d565b6040516104499190612d8f565b60405180910390f35b34801561045e57600080fd5b5061047960048036038101906104749190612bb3565b6120cf565b6040516104869190612b3a565b60405180910390f35b34801561049b57600080fd5b506104b660048036038101906104b1919061290d565b6120e7565b6040516104c39190612db9565b60405180910390f35b3480156104d857600080fd5b506104f360048036038101906104ee919061290d565b612128565b6040516105009190612949565b60405180910390f35b34801561051557600080fd5b50610530600480360381019061052b9190612dd4565b612148565b60405161053d9190612949565b60405180910390f35b34801561055257600080fd5b5061056d6004803603810190610568919061290d565b612214565b60405161057a9190612db9565b60405180910390f35b34801561058f57600080fd5b50610598612247565b6040516105a59190612e73565b60405180910390f35b3480156105ba57600080fd5b506105c361226d565b6040516105d09190612db9565b60405180910390f35b3480156105e557600080fd5b506105ee612293565b6040516105fb9190612eaf565b60405180910390f35b34801561061057600080fd5b5061062b6004803603810190610626919061290d565b6122b9565b6040516106389190612949565b60405180910390f35b61064961262f565b600b836008811061065d5761065c612eca565b5b60100201826008811061067357610672612eca565b5b60020201604051806040016040529081600082015481526020016001820160009054906101000a900460ff161515151581525050905092915050565b60076020528060005260406000206000915054906101000a900460ff1681565b600060096000600115151515815260200190815260200160002060009054906101000a900473ffffffffffffffffffffffffffffffffffffffff1673ffffffffffffffffffffffffffffffffffffffff163373ffffffffffffffffffffffffffffffffffffffff1614806107a55750600960008015151515815260200190815260200160002060009054906101000a900473ffffffffffffffffffffffffffffffffffffffff1673ffffffffffffffffffffffffffffffffffffffff163373ffffffffffffffffffffffffffffffffffffffff16145b6107e4576040517f08c379a00000000000000000000000000000000000000000000000000000000081526004016107db90612743565b60405180910390fd5b8282608b60009054906101000a900473ffffffffffffffffffffffffffffffffffffffff1673ffffffffffffffffffffffffffffffffffffffff16636d5725008383600860003373ffffffffffffffffffffffffffffffffffffffff1673ffffffffffffffffffffffffffffffffffffffff16815260200190815260200160002060009054906101000a900460ff1660036000600b8960006002811061088d5761088c612eca565b5b6020020151600881106108a3576108a2612eca565b5b60100201896001600281106108bb576108ba612eca565b5b6020020151600881106108d1576108d0612eca565b5b60020201600001548152602001908152602001600020600101546040518563ffffffff1660e01b815260040161090a9493929190612ef9565b6020604051808303816000875af1158015610929573d6000803e3d6000fd5b505050506040513d601f19601f8201168201806040525081019061094d9190612f53565b61098c576040517f08c379a000000000000000000000000000000000000000000000000000000000815260040161098390612743565b60405180910390fd5b8484600860003373ffffffffffffffffffffffffffffffffffffffff1673ffffffffffffffffffffffffffffffffffffffff16815260200190815260200160002060009054906101000a900460ff168015610a4857506001600b836000600281106109fa576109f9612eca565b5b602002015160088110610a1057610a0f612eca565b5b6010020183600160028110610a2857610a27612eca565b5b602002015160088110610a3e57610a3d612eca565b5b6002020160000154145b8015610a6c5750600081600160028110610a6557610a64612eca565b5b6020020151145b15610add576006600b83600060028110610a8957610a88612eca565b5b602002015160088110610a9f57610a9e612eca565b5b6010020183600160028110610ab757610ab6612eca565b5b602002015160088110610acd57610acc612eca565b5b6002020160000181905550610c2a565b600860003373ffffffffffffffffffffffffffffffffffffffff1673ffffffffffffffffffffffffffffffffffffffff16815260200190815260200160002060009054906101000a900460ff16158015610b9857506001600b83600060028110610b4a57610b49612eca565b5b602002015160088110610b6057610b5f612eca565b5b6010020183600160028110610b7857610b77612eca565b5b602002015160088110610b8e57610b8d612eca565b5b6002020160000154145b8015610bbc5750600781600160028110610bb557610bb4612eca565b5b6020020151145b15610c29576006600b83600060028110610bd957610bd8612eca565b5b602002015160088110610bef57610bee612eca565b5b6010020183600160028110610c0757610c06612eca565b5b602002015160088110610c1d57610c1c612eca565b5b60020201600001819055505b5b86866005600b83600060028110610c4457610c43612eca565b5b602002015160088110610c5a57610c59612eca565b5b6010020183600160028110610c7257610c71612eca565b5b602002015160088110610c8857610c87612eca565b5b600202016000015403610d3457610ceb81600860003373ffffffffffffffffffffffffffffffffffffffff1673ffffffffffffffffffffffffffffffffffffffff16815260200190815260200160002060009054906101000a900460ff16612148565b610d2a576040517f08c379a0000000000000000000000000000000000000000000000000000000008152600401610d2190612fcc565b60405180910390fd5b610d33816122e7565b5b876000608b60009054906101000a900473ffffffffffffffffffffffffffffffffffffffff1673ffffffffffffffffffffffffffffffffffffffff166371cc5ad18360046000600860003373ffffffffffffffffffffffffffffffffffffffff1673ffffffffffffffffffffffffffffffffffffffff16815260200190815260200160002060009054906101000a900460ff16151515151581526020019081526020016000206040518363ffffffff1660e01b8152600401610df79291906130b0565b606060405180830381865afa158015610e14573d6000803e3d6000fd5b505050506040513d601f19601f82011682018060405250810190610e389190613179565b5080915050608b60009054906101000a900473ffffffffffffffffffffffffffffffffffffffff1673ffffffffffffffffffffffffffffffffffffffff1663ac411ce68360046000600860003373ffffffffffffffffffffffffffffffffffffffff1673ffffffffffffffffffffffffffffffffffffffff16815260200190815260200160002060009054906101000a900460ff16151515151581526020019081526020016000206040518363ffffffff1660e01b8152600401610efd9291906130b0565b602060405180830381865afa158015610f1a573d6000803e3d6000fd5b505050506040513d601f19601f82011682018060405250810190610f3e9190612f53565b8015610f475750805b15610f5757610f5660016123d9565b5b600080608c60009054906101000a900473ffffffffffffffffffffffffffffffffffffffff1673ffffffffffffffffffffffffffffffffffffffff16638b69cfad600860003373ffffffffffffffffffffffffffffffffffffffff1673ffffffffffffffffffffffffffffffffffffffff16815260200190815260200160002060009054906101000a900460ff166040518263ffffffff1660e01b81526004016110019190612949565b6040805180830381865afa15801561101d573d6000803e3d6000fd5b505050506040513d601f19601f8201168201806040525081019061104191906131b9565b80925081935050506005600b8e60006002811061106157611060612eca565b5b60200201516008811061107757611076612eca565b5b601002018e60016002811061108f5761108e612eca565b5b6020020151600881106110a5576110a4612eca565b5b60020201600001541480156110f5575060028c6000600281106110cb576110ca612eca565b5b60200201518e6000600281106110e4576110e3612eca565b5b60200201516110f39190613203565b145b801561116e575060056000600860003373ffffffffffffffffffffffffffffffffffffffff1673ffffffffffffffffffffffffffffffffffffffff16815260200190815260200160002060009054906101000a900460ff1615151515815260200190815260200160002060009054906101000a900460ff165b80156111cc57506111ca600860003373ffffffffffffffffffffffffffffffffffffffff1673ffffffffffffffffffffffffffffffffffffffff16815260200190815260200160002060009054906101000a900460ff166122b9565b155b156118be5760066000600860003373ffffffffffffffffffffffffffffffffffffffff1673ffffffffffffffffffffffffffffffffffffffff16815260200190815260200160002060009054906101000a900460ff161515151581526020019081526020016000206000600115151515815260200190815260200160002060009054906101000a900460ff161561154757604051806040016040528060008152602001600860003373ffffffffffffffffffffffffffffffffffffffff1673ffffffffffffffffffffffffffffffffffffffff16815260200190815260200160002060009054906101000a900460ff161515815250600b8e6000600281106112d7576112d6612eca565b5b6020020151600881106112ed576112ec612eca565b5b601002018e60016002811061130557611304612eca565b5b60200201516008811061131b5761131a612eca565b5b600202016000820151816000015560208201518160010160006101000a81548160ff021916908315150217905550905050604051806040016040528060058152602001600860003373ffffffffffffffffffffffffffffffffffffffff1673ffffffffffffffffffffffffffffffffffffffff16815260200190815260200160002060009054906101000a900460ff161515815250600b8e6000600281106113c6576113c5612eca565b5b6020020151600881106113dc576113db612eca565b5b6010020160028f6001600281106113f6576113f5612eca565b5b6020020151611405919061279c565b6008811061141657611415612eca565b5b600202016000820151816000015560208201518160010160006101000a81548160ff021916908315150217905550905050604051806040016040528060028152602001600860003373ffffffffffffffffffffffffffffffffffffffff1673ffffffffffffffffffffffffffffffffffffffff16815260200190815260200160002060009054906101000a900460ff161515815250600b8e6000600281106114c1576114c0612eca565b5b6020020151600881106114d7576114d6612eca565b5b6010020160018f6001600281106114f1576114f0612eca565b5b6020020151611500919061279c565b6008811061151157611510612eca565b5b600202016000820151816000015560208201518160010160006101000a81548160ff0219169083151502179055509050506118b9565b60066000600860003373ffffffffffffffffffffffffffffffffffffffff1673ffffffffffffffffffffffffffffffffffffffff16815260200190815260200160002060009054906101000a900460ff1615151515815260200190815260200160002060008015151515815260200190815260200160002060009054906101000a900460ff16156118b857604051806040016040528060008152602001600860003373ffffffffffffffffffffffffffffffffffffffff1673ffffffffffffffffffffffffffffffffffffffff16815260200190815260200160002060009054906101000a900460ff161515815250600b8e60006002811061164c5761164b612eca565b5b60200201516008811061166257611661612eca565b5b601002018e60016002811061167a57611679612eca565b5b6020020151600881106116905761168f612eca565b5b600202016000820151816000015560208201518160010160006101000a81548160ff021916908315150217905550905050604051806040016040528060058152602001600860003373ffffffffffffffffffffffffffffffffffffffff1673ffffffffffffffffffffffffffffffffffffffff16815260200190815260200160002060009054906101000a900460ff161515815250600b8e60006002811061173b5761173a612eca565b5b60200201516008811061175157611750612eca565b5b6010020160028f60016002811061176b5761176a612eca565b5b602002015161177a9190613297565b6008811061178b5761178a612eca565b5b600202016000820151816000015560208201518160010160006101000a81548160ff021916908315150217905550905050604051806040016040528060028152602001600860003373ffffffffffffffffffffffffffffffffffffffff1673ffffffffffffffffffffffffffffffffffffffff16815260200190815260200160002060009054906101000a900460ff161515815250600b8e60006002811061183657611835612eca565b5b60200201516008811061184c5761184b612eca565b5b6010020160018f60016002811061186657611865612eca565b5b60200201516118759190613297565b6008811061188657611885612eca565b5b600202016000820151816000015560208201518160010160006101000a81548160ff0219169083151502179055509050505b5b611f24565b8180156118c85750805b1561196a5760096000600860003373ffffffffffffffffffffffffffffffffffffffff1673ffffffffffffffffffffffffffffffffffffffff16815260200190815260200160002060009054906101000a900460ff161515151515815260200190815260200160002060009054906101000a900473ffffffffffffffffffffffffffffffffffffffff1673ffffffffffffffffffffffffffffffffffffffff16ff5b81158015611976575080155b15611bdf57600b8d60006002811061199157611990612eca565b5b6020020151600881106119a7576119a6612eca565b5b601002018d6001600281106119bf576119be612eca565b5b6020020151600881106119d5576119d4612eca565b5b60020201600b8d6000600281106119ef576119ee612eca565b5b602002015160088110611a0557611a04612eca565b5b601002018d600160028110611a1d57611a1c612eca565b5b602002015160088110611a3357611a32612eca565b5b60020201600082015481600001556001820160009054906101000a900460ff168160010160006101000a81548160ff02191690831515021790555090505060405180604001604052806000815260200160001515815250600b8e600060028110611aa057611a9f612eca565b5b602002015160088110611ab657611ab5612eca565b5b601002018e600160028110611ace57611acd612eca565b5b602002015160088110611ae457611ae3612eca565b5b600202016000820151816000015560208201518160010160006101000a81548160ff02191690831515021790555090505060096000600860003373ffffffffffffffffffffffffffffffffffffffff1673ffffffffffffffffffffffffffffffffffffffff16815260200190815260200160002060009054906101000a900460ff161515151515815260200190815260200160002060009054906101000a900473ffffffffffffffffffffffffffffffffffffffff16600160006101000a81548173ffffffffffffffffffffffffffffffffffffffff021916908373ffffffffffffffffffffffffffffffffffffffff160217905550611f23565b81158015611bea5750805b15611f225760096000600860003373ffffffffffffffffffffffffffffffffffffffff1673ffffffffffffffffffffffffffffffffffffffff16815260200190815260200160002060009054906101000a900460ff1615151515815260200190815260200160002060009054906101000a900473ffffffffffffffffffffffffffffffffffffffff1673ffffffffffffffffffffffffffffffffffffffff166108fc6002600a600060096000600860003373ffffffffffffffffffffffffffffffffffffffff1673ffffffffffffffffffffffffffffffffffffffff16815260200190815260200160002060009054906101000a900460ff1615151515815260200190815260200160002060009054906101000a900473ffffffffffffffffffffffffffffffffffffffff1673ffffffffffffffffffffffffffffffffffffffff1673ffffffffffffffffffffffffffffffffffffffff16815260200190815260200160002054611d5b91906132fa565b9081150290604051600060405180830381858888f19350505050158015611d86573d6000803e3d6000fd5b5060096000600860003373ffffffffffffffffffffffffffffffffffffffff1673ffffffffffffffffffffffffffffffffffffffff16815260200190815260200160002060009054906101000a900460ff161515151515815260200190815260200160002060009054906101000a900473ffffffffffffffffffffffffffffffffffffffff1673ffffffffffffffffffffffffffffffffffffffff166108fc6002600a600060096000600860003373ffffffffffffffffffffffffffffffffffffffff1673ffffffffffffffffffffffffffffffffffffffff16815260200190815260200160002060009054906101000a900460ff161515151515815260200190815260200160002060009054906101000a900473ffffffffffffffffffffffffffffffffffffffff1673ffffffffffffffffffffffffffffffffffffffff1673ffffffffffffffffffffffffffffffffffffffff16815260200190815260200160002054611ef591906132fa565b9081150290604051600060405180830381858888f19350505050158015611f20573d6000803e3d6000fd5b505b5b5b611f2d8d612458565b60019a505050505050505050505092915050565b60066020528160005260406000206020528060005260406000206000915091509054906101000a900460ff1681565b60005481565b6000600860008373ffffffffffffffffffffffffffffffffffffffff1673ffffffffffffffffffffffffffffffffffffffff16815260200190815260200160002060009054906101000a900460ff169050919050565b611fd461264b565b6003600083815260200190815260200160002060405180604001604052908160008201600380602002604051908101604052809291908260038015612053576020028201916000905b82829054906101000a900460ff1615158152602001906001019060208260000104928301926001038202915080841161201d5790505b505050505081526020016001820154815250509050919050565b61207561266b565b60046000831515151581526020019081526020016000206002806020026040519081016040528092919082600280156120c3576020028201915b8154815260200190600101908083116120af575b50505050509050919050565b600a6020528060005260406000206000915090505481565b6000600960008315151515815260200190815260200160002060009054906101000a900473ffffffffffffffffffffffffffffffffffffffff169050919050565b60056020528060005260406000206000915054906101000a900460ff1681565b60008061215361266b565b608c60009054906101000a900473ffffffffffffffffffffffffffffffffffffffff1673ffffffffffffffffffffffffffffffffffffffff16632f1d807486866040518363ffffffff1660e01b81526004016121b092919061332b565b606060405180830381865afa1580156121cd573d6000803e3d6000fd5b505050506040513d601f19601f820116820180604052508101906121f19190613179565b809250819350505081612207576001925061220c565b600092505b505092915050565b60096020528060005260406000206000915054906101000a900473ffffffffffffffffffffffffffffffffffffffff1681565b608c60009054906101000a900473ffffffffffffffffffffffffffffffffffffffff1681565b600260009054906101000a900473ffffffffffffffffffffffffffffffffffffffff1681565b608b60009054906101000a900473ffffffffffffffffffffffffffffffffffffffff1681565b6000600760008315151515815260200190815260200160002060009054906101000a900460ff169050919050565b8060046000600860003373ffffffffffffffffffffffffffffffffffffffff1673ffffffffffffffffffffffffffffffffffffffff16815260200190815260200160002060009054906101000a900460ff1615151515815260200190815260200160002090600261235992919061268d565b50600060056000600860003373ffffffffffffffffffffffffffffffffffffffff1673ffffffffffffffffffffffffffffffffffffffff16815260200190815260200160002060009054906101000a900460ff1615151515815260200190815260200160002060006101000a81548160ff02191690831515021790555050565b8060076000600860003373ffffffffffffffffffffffffffffffffffffffff1673ffffffffffffffffffffffffffffffffffffffff16815260200190815260200160002060009054906101000a900460ff161515151515815260200190815260200160002060006101000a81548160ff02191690831515021790555050565b6002600b826000600281106124705761246f612eca565b5b60200201516008811061248657612485612eca565b5b601002018260016002811061249e5761249d612eca565b5b6020020151600881106124b4576124b3612eca565b5b60020201600001540361262c576000816000600281106124d7576124d6612eca565b5b60200201510361257757600060066000600860003373ffffffffffffffffffffffffffffffffffffffff1673ffffffffffffffffffffffffffffffffffffffff16815260200190815260200160002060009054906101000a900460ff1615151515815260200190815260200160002060008015151515815260200190815260200160002060006101000a81548160ff02191690831515021790555061262b565b60078160006002811061258d5761258c612eca565b5b60200201510361262a57600060066000600860003373ffffffffffffffffffffffffffffffffffffffff1673ffffffffffffffffffffffffffffffffffffffff16815260200190815260200160002060009054906101000a900460ff161515151581526020019081526020016000206000600115151515815260200190815260200160002060006101000a81548160ff0219169083151502179055505b5b5b50565b6040518060400160405280600081526020016000151581525090565b604051806040016040528061265e6126cd565b8152602001600081525090565b6040518060400160405280600290602082028036833780820191505090505090565b82600281019282156126bc579160200282015b828111156126bb5782518255916020019190600101906126a0565b5b5090506126c991906126ef565b5090565b6040518060600160405280600390602082028036833780820191505090505090565b5b808211156127085760008160009055506001016126f0565b5090565b600082825260208201905092915050565b50565b600061272d60008361270c565b91506127388261271d565b600082019050919050565b6000602082019050818103600083015261275c81612720565b9050919050565b6000819050919050565b7f4e487b7100000000000000000000000000000000000000000000000000000000600052601160045260246000fd5b60006127a782612763565b91506127b283612763565b9250827fffffffffffffffffffffffffffffffffffffffffffffffffffffffffffffffff038211156127e7576127e661276d565b5b828201905092915050565b6000604051905090565b600080fd5b61280a81612763565b811461281557600080fd5b50565b60008135905061282781612801565b92915050565b60008060408385031215612844576128436127fc565b5b600061285285828601612818565b925050602061286385828601612818565b9150509250929050565b61287681612763565b82525050565b60008115159050919050565b6128918161287c565b82525050565b6040820160008201516128ad600085018261286d565b5060208201516128c06020850182612888565b50505050565b60006040820190506128db6000830184612897565b92915050565b6128ea8161287c565b81146128f557600080fd5b50565b600081359050612907816128e1565b92915050565b600060208284031215612923576129226127fc565b5b6000612931848285016128f8565b91505092915050565b6129438161287c565b82525050565b600060208201905061295e600083018461293a565b92915050565b600080fd5b6000601f19601f8301169050919050565b7f4e487b7100000000000000000000000000000000000000000000000000000000600052604160045260246000fd5b6129b282612969565b810181811067ffffffffffffffff821117156129d1576129d061297a565b5b80604052505050565b60006129e46127f2565b90506129f082826129a9565b919050565b600067ffffffffffffffff821115612a1057612a0f61297a565b5b602082029050919050565b600080fd5b6000612a33612a2e846129f5565b6129da565b90508060208402830185811115612a4d57612a4c612a1b565b5b835b81811015612a765780612a628882612818565b845260208401935050602081019050612a4f565b5050509392505050565b600082601f830112612a9557612a94612964565b5b6002612aa2848285612a20565b91505092915050565b60008060808385031215612ac257612ac16127fc565b5b6000612ad085828601612a80565b9250506040612ae185828601612a80565b9150509250929050565b60008060408385031215612b0257612b016127fc565b5b6000612b10858286016128f8565b9250506020612b21858286016128f8565b9150509250929050565b612b3481612763565b82525050565b6000602082019050612b4f6000830184612b2b565b92915050565b600073ffffffffffffffffffffffffffffffffffffffff82169050919050565b6000612b8082612b55565b9050919050565b612b9081612b75565b8114612b9b57600080fd5b50565b600081359050612bad81612b87565b92915050565b600060208284031215612bc957612bc86127fc565b5b6000612bd784828501612b9e565b91505092915050565b600060208284031215612bf657612bf56127fc565b5b6000612c0484828501612818565b91505092915050565b600060039050919050565b600081905092915050565b6000819050919050565b6000612c398383612888565b60208301905092915050565b6000602082019050919050565b612c5b81612c0d565b612c658184612c18565b9250612c7082612c23565b8060005b83811015612ca1578151612c888782612c2d565b9650612c9383612c45565b925050600181019050612c74565b505050505050565b608082016000820151612cbf6000850182612c52565b506020820151612cd2606085018261286d565b50505050565b6000608082019050612ced6000830184612ca9565b92915050565b600060029050919050565b600081905092915050565b6000819050919050565b6000612d1f838361286d565b60208301905092915050565b6000602082019050919050565b612d4181612cf3565b612d4b8184612cfe565b9250612d5682612d09565b8060005b83811015612d87578151612d6e8782612d13565b9650612d7983612d2b565b925050600181019050612d5a565b505050505050565b6000604082019050612da46000830184612d38565b92915050565b612db381612b75565b82525050565b6000602082019050612dce6000830184612daa565b92915050565b60008060608385031215612deb57612dea6127fc565b5b6000612df985828601612a80565b9250506040612e0a858286016128f8565b9150509250929050565b6000819050919050565b6000612e39612e34612e2f84612b55565b612e14565b612b55565b9050919050565b6000612e4b82612e1e565b9050919050565b6000612e5d82612e40565b9050919050565b612e6d81612e52565b82525050565b6000602082019050612e886000830184612e64565b92915050565b6000612e9982612e40565b9050919050565b612ea981612e8e565b82525050565b6000602082019050612ec46000830184612ea0565b92915050565b7f4e487b7100000000000000000000000000000000000000000000000000000000600052603260045260246000fd5b600060c082019050612f0e6000830187612d38565b612f1b6040830186612d38565b612f28608083018561293a565b612f3560a0830184612b2b565b95945050505050565b600081519050612f4d816128e1565b92915050565b600060208284031215612f6957612f686127fc565b5b6000612f7784828501612f3e565b91505092915050565b7f6576696c626f7800000000000000000000000000000000000000000000000000600082015250565b6000612fb660078361270c565b9150612fc182612f80565b602082019050919050565b60006020820190508181036000830152612fe581612fa9565b9050919050565b600060029050919050565b6000819050919050565b60008160001c9050919050565b6000819050919050565b600061302b61302683613001565b61300e565b9050919050565b600061303e8254613018565b9050919050565b6000600182019050919050565b61305b81612fec565b6130658184612cfe565b925061307082612ff7565b8060005b838110156130a85761308582613032565b61308f8782612d13565b965061309a83613045565b925050600181019050613074565b505050505050565b60006080820190506130c56000830185612d38565b6130d26040830184613052565b9392505050565b6000815190506130e881612801565b92915050565b60006131016130fc846129f5565b6129da565b9050806020840283018581111561311b5761311a612a1b565b5b835b81811015613144578061313088826130d9565b84526020840193505060208101905061311d565b5050509392505050565b600082601f83011261316357613162612964565b5b60026131708482856130ee565b91505092915050565b600080606083850312156131905761318f6127fc565b5b600061319e85828601612f3e565b92505060206131af8582860161314e565b9150509250929050565b600080604083850312156131d0576131cf6127fc565b5b60006131de85828601612f3e565b92505060206131ef85828601612f3e565b9150509250929050565b6000819050919050565b600061320e826131f9565b9150613219836131f9565b9250827f8000000000000000000000000000000000000000000000000000000000000000018212600084121516156132545761325361276d565b5b827f7fffffffffffffffffffffffffffffffffffffffffffffffffffffffffffffff01821360008412161561328c5761328b61276d565b5b828203905092915050565b60006132a282612763565b91506132ad83612763565b9250828210156132c0576132bf61276d565b5b828203905092915050565b7f4e487b7100000000000000000000000000000000000000000000000000000000600052601260045260246000fd5b600061330582612763565b915061331083612763565b9250826133205761331f6132cb565b5b828204905092915050565b60006060820190506133406000830185612d38565b61334d604083018461293a565b939250505056fea264697066735822122013a25ce62286430600b7b73cc85f3c11690bf537fe75b5c0de67291231310d2c64736f6c634300080e003360806040523480156200001157600080fd5b5060405162002fbe38038062002fbe8339818101604052810190620000379190620000e9565b80600360006101000a81548173ffffffffffffffffffffffffffffffffffffffff021916908373ffffffffffffffffffffffffffffffffffffffff160217905550506200011b565b600080fd5b600073ffffffffffffffffffffffffffffffffffffffff82169050919050565b6000620000b18262000084565b9050919050565b620000c381620000a4565b8114620000cf57600080fd5b50565b600081519050620000e381620000b8565b92915050565b6000602082840312156200010257620001016200007f565b5b60006200011284828501620000d2565b91505092915050565b612e93806200012b6000396000f3fe608060405234801561001057600080fd5b506004361061009e5760003560e01c806381fe57861161006657806381fe578614610182578063ac411ce6146101b2578063bac35119146101e2578063c03c300314610212578063ee0b07e0146102425761009e565b80631b5ac4b5146100a357806329aa9cbe146100d35780636c1b5443146101035780636d5725001461012157806371cc5ad114610151575b600080fd5b6100bd60048036038101906100b891906121a6565b610272565b6040516100ca91906121e2565b60405180910390f35b6100ed60048036038101906100e891906121fd565b610296565b6040516100fa91906121e2565b60405180910390f35b61010b6102b1565b6040516101189190612256565b60405180910390f35b61013b6004803603810190610136919061241c565b6102b7565b6040516101489190612492565b60405180910390f35b61016b600480360381019061016691906124ad565b611209565b604051610179929190612598565b60405180910390f35b61019c600480360381019061019791906121fd565b61148b565b6040516101a991906121e2565b60405180910390f35b6101cc60048036038101906101c791906124ad565b6114a6565b6040516101d99190612492565b60405180910390f35b6101fc60048036038101906101f791906121a6565b6120b9565b60405161020991906121e2565b60405180910390f35b61022c600480360381019061022791906121a6565b6120d5565b60405161023991906121e2565b60405180910390f35b61025c600480360381019061025791906121a6565b612124565b60405161026991906121e2565b60405180910390f35b60008082121561028d5781610286906125f0565b9050610291565b8190505b919050565b60008183136102a7578290506102ab565b8190505b92915050565b60005481565b600084848484811515600360009054906101000a900473ffffffffffffffffffffffffffffffffffffffff1673ffffffffffffffffffffffffffffffffffffffff16631feeef988660006002811061031257610311612638565b5b60200201518760016002811061032b5761032a612638565b5b60200201516040518363ffffffff1660e01b815260040161034d929190612667565b6040805180830381865afa158015610369573d6000803e3d6000fd5b505050506040513d601f19601f8201168201806040525081019061038d919061270f565b602001511515146103d3576040517f08c379a00000000000000000000000000000000000000000000000000000000081526004016103ca90612799565b60405180910390fd5b826000600281106103e7576103e6612638565b5b602002015184600060028110610400576103ff612638565b5b602002015114158061044257508260016002811061042157610420612638565b5b60200201518460016002811061043a57610439612638565b5b602002015114155b610481576040517f08c379a000000000000000000000000000000000000000000000000000000000815260040161047890612805565b60405180910390fd5b6000600360009054906101000a900473ffffffffffffffffffffffffffffffffffffffff1673ffffffffffffffffffffffffffffffffffffffff16631feeef98856000600281106104d5576104d4612638565b5b6020020151866001600281106104ee576104ed612638565b5b60200201516040518363ffffffff1660e01b8152600401610510929190612667565b6040805180830381865afa15801561052c573d6000803e3d6000fd5b505050506040513d601f19601f82011682018060405250810190610550919061270f565b600001511461067057811515600360009054906101000a900473ffffffffffffffffffffffffffffffffffffffff1673ffffffffffffffffffffffffffffffffffffffff16631feeef98856000600281106105ae576105ad612638565b5b6020020151866001600281106105c7576105c6612638565b5b60200201516040518363ffffffff1660e01b81526004016105e9929190612667565b6040805180830381865afa158015610605573d6000803e3d6000fd5b505050506040513d601f19601f82011682018060405250810190610629919061270f565b6020015115150361066f576040517f08c379a000000000000000000000000000000000000000000000000000000000815260040161066690612871565b60405180910390fd5b5b8360006002811061068457610683612638565b5b60200201518360006002811061069d5761069c612638565b5b60200201516106ac9190612891565b600181905550836001600281106106c6576106c5612638565b5b6020020151836001600281106106df576106de612638565b5b60200201516106ee9190612891565b600281905550600061070085856114a6565b905080610742576040517f08c379a000000000000000000000000000000000000000000000000000000000815260040161073990612971565b60405180910390fd5b6005600360009054906101000a900473ffffffffffffffffffffffffffffffffffffffff1673ffffffffffffffffffffffffffffffffffffffff16631feeef988760006002811061079657610795612638565b5b6020020151886001600281106107af576107ae612638565b5b60200201516040518363ffffffff1660e01b81526004016107d1929190612667565b6040805180830381865afa1580156107ed573d6000803e3d6000fd5b505050506040513d601f19601f82011682018060405250810190610811919061270f565b6000015103610ddc576000856001600281106108305761082f612638565b5b602002015114801561085a575060048560006002811061085357610852612638565b5b6020020151145b801561090857506005600360009054906101000a900473ffffffffffffffffffffffffffffffffffffffff1673ffffffffffffffffffffffffffffffffffffffff16631feeef98600460006040518363ffffffff1660e01b81526004016108c2929190612a11565b6040805180830381865afa1580156108de573d6000803e3d6000fd5b505050506040513d601f19601f82011682018060405250810190610902919061270f565b60000151145b8015610af2575060008460016002811061092557610924612638565b5b602002015114801561094f575060068460006002811061094857610947612638565b5b6020020151145b80156109fd57506002600360009054906101000a900473ffffffffffffffffffffffffffffffffffffffff1673ffffffffffffffffffffffffffffffffffffffff16631feeef98600760006040518363ffffffff1660e01b81526004016109b7929190612a75565b6040805180830381865afa1580156109d3573d6000803e3d6000fd5b505050506040513d601f19601f820116820180604052508101906109f7919061270f565b60000151145b80610af15750600084600160028110610a1957610a18612638565b5b6020020151148015610a435750600284600060028110610a3c57610a3b612638565b5b6020020151145b8015610af057506002600360009054906101000a900473ffffffffffffffffffffffffffffffffffffffff1673ffffffffffffffffffffffffffffffffffffffff16631feeef986000806040518363ffffffff1660e01b8152600401610aaa929190612a9e565b6040805180830381865afa158015610ac6573d6000803e3d6000fd5b505050506040513d601f19601f82011682018060405250810190610aea919061270f565b60000151145b5b5b80610dd15750600785600160028110610b0e57610b0d612638565b5b6020020151148015610b385750600385600060028110610b3157610b30612638565b5b6020020151145b8015610be657506005600360009054906101000a900473ffffffffffffffffffffffffffffffffffffffff1673ffffffffffffffffffffffffffffffffffffffff16631feeef98600360076040518363ffffffff1660e01b8152600401610ba0929190612b02565b6040805180830381865afa158015610bbc573d6000803e3d6000fd5b505050506040513d601f19601f82011682018060405250810190610be0919061270f565b60000151145b8015610dd05750600184600160028110610c0357610c02612638565b5b6020020151148015610c2d5750600784600060028110610c2657610c25612638565b5b6020020151145b8015610cda57506002600360009054906101000a900473ffffffffffffffffffffffffffffffffffffffff1673ffffffffffffffffffffffffffffffffffffffff16631feeef986007806040518363ffffffff1660e01b8152600401610c94929190612b2b565b6040805180830381865afa158015610cb0573d6000803e3d6000fd5b505050506040513d601f19601f82011682018060405250810190610cd4919061270f565b60000151145b80610dcf5750600584600160028110610cf657610cf5612638565b5b6020020151148015610d205750600284600060028110610d1957610d18612638565b5b6020020151145b8015610dce57506002600360009054906101000a900473ffffffffffffffffffffffffffffffffffffffff1673ffffffffffffffffffffffffffffffffffffffff16631feeef98600060076040518363ffffffff1660e01b8152600401610d88929190612b54565b6040805180830381865afa158015610da4573d6000803e3d6000fd5b505050506040513d601f19601f82011682018060405250810190610dc8919061270f565b60000151145b5b5b5b15610ddb57600291505b5b60038060009054906101000a900473ffffffffffffffffffffffffffffffffffffffff1673ffffffffffffffffffffffffffffffffffffffff16631feeef9887600060028110610e2f57610e2e612638565b5b602002015188600160028110610e4857610e47612638565b5b60200201516040518363ffffffff1660e01b8152600401610e6a929190612667565b6040805180830381865afa158015610e86573d6000803e3d6000fd5b505050506040513d601f19601f82011682018060405250810190610eaa919061270f565b60000151146111f8576001600360009054906101000a900473ffffffffffffffffffffffffffffffffffffffff1673ffffffffffffffffffffffffffffffffffffffff16631feeef9887600060028110610f0757610f06612638565b5b602002015188600160028110610f2057610f1f612638565b5b60200201516040518363ffffffff1660e01b8152600401610f42929190612667565b6040805180830381865afa158015610f5e573d6000803e3d6000fd5b505050506040513d601f19601f82011682018060405250810190610f82919061270f565b600001510361113657600083156110345784600160028110610fa757610fa6612638565b5b602002015186600160028110610fc057610fbf612638565b5b602002015111611005576040517f08c379a0000000000000000000000000000000000000000000000000000000008152600401610ffc90612ba3565b60405180910390fd5b60068660016002811061101b5761101a612638565b5b60200201510361102e5760019050611033565b600090505b5b836110da578460016002811061104d5761104c612638565b5b60200201518660016002811061106657611065612638565b5b6020020151106110ab576040517f08c379a00000000000000000000000000000000000000000000000000000000081526004016110a290612ba3565b60405180910390fd5b6001866001600281106110c1576110c0612638565b5b6020020151036110d457600190506110d9565b600090505b5b6002611120876001600281106110f3576110f2612638565b5b60200201518760016002811061110c5761110b612638565b5b602002015161111b9190612891565b610272565b14801561112a5750805b1561113457600292505b505b611141600154610272565b821015801561115a5750611156600254610272565b8210155b611199576040517f08c379a000000000000000000000000000000000000000000000000000000000815260040161119090612c0f565b60405180910390fd5b60006111a361213f565b6111ad8787611209565b8092508193505050816111f5576040517f08c379a00000000000000000000000000000000000000000000000000000000081526004016111ec90612c7b565b60405180910390fd5b50505b600195505050505050949350505050565b600061121361213f565b60008460006002811061122957611228612638565b5b60200201518460006002811061124257611241612638565b5b60200201516112519190612891565b905060008560016002811061126957611268612638565b5b60200201518560016002811061128257611281612638565b5b60200201516112919190612891565b9050600061129e836120d5565b905060006112ab836120d5565b90506000886000600281106112c3576112c2612638565b5b602002015190506000896001600281106112e0576112df612638565b5b60200201519050600197505b88600060028110611300576112ff612638565b5b60200201518214158061132b57508860016002811061132257611321612638565b5b60200201518114155b1561147e57838261133c9190612c9b565b9150828161134a9190612c9b565b90506000600360009054906101000a900473ffffffffffffffffffffffffffffffffffffffff1673ffffffffffffffffffffffffffffffffffffffff16631feeef9884846040518363ffffffff1660e01b81526004016113ab929190612667565b6040805180830381865afa1580156113c7573d6000803e3d6000fd5b505050506040513d601f19601f820116820180604052508101906113eb919061270f565b60000151141580156114395750818960006002811061140d5761140c612638565b5b602002015114158015611438575080896001600281106114305761142f612638565b5b602002015114155b5b1561145e5760009750604051806040016040528083815260200182815250965061147e565b6001975060405180604001604052808381526020018281525096506112ec565b5050505050509250929050565b600081831261149c578290506114a0565b8190505b92915050565b600080836000600281106114bd576114bc612638565b5b6020020151836000600281106114d6576114d5612638565b5b60200201516114e59190612891565b90506000846001600281106114fd576114fc612638565b5b60200201518460016002811061151657611515612638565b5b60200201516115259190612891565b9050600082141580156115385750600081145b156116dc57600360009054906101000a900473ffffffffffffffffffffffffffffffffffffffff1673ffffffffffffffffffffffffffffffffffffffff16638f7daf0f600360009054906101000a900473ffffffffffffffffffffffffffffffffffffffff1673ffffffffffffffffffffffffffffffffffffffff16631feeef98886000600281106115cd576115cc612638565b5b6020020151896001600281106115e6576115e5612638565b5b60200201516040518363ffffffff1660e01b8152600401611608929190612667565b6040805180830381865afa158015611624573d6000803e3d6000fd5b505050506040513d601f19601f82011682018060405250810190611648919061270f565b600001516040518263ffffffff1660e01b81526004016116689190612256565b608060405180830381865afa158015611685573d6000803e3d6000fd5b505050506040513d601f19601f820116820180604052508101906116a99190612e30565b600001516000600381106116c0576116bf612638565b5b60200201516116d257600092506116d7565b600192505b6120b1565b600081141580156116ed5750600082145b1561189157600360009054906101000a900473ffffffffffffffffffffffffffffffffffffffff1673ffffffffffffffffffffffffffffffffffffffff16638f7daf0f600360009054906101000a900473ffffffffffffffffffffffffffffffffffffffff1673ffffffffffffffffffffffffffffffffffffffff16631feeef988860006002811061178257611781612638565b5b60200201518960016002811061179b5761179a612638565b5b60200201516040518363ffffffff1660e01b81526004016117bd929190612667565b6040805180830381865afa1580156117d9573d6000803e3d6000fd5b505050506040513d601f19601f820116820180604052508101906117fd919061270f565b600001516040518263ffffffff1660e01b815260040161181d9190612256565b608060405180830381865afa15801561183a573d6000803e3d6000fd5b505050506040513d601f19601f8201168201806040525081019061185e9190612e30565b6000015160016003811061187557611874612638565b5b6020020151611887576000925061188c565b600192505b6120b0565b600082141580156118b157506118a681610272565b6118af83610272565b145b15611f73576001600360009054906101000a900473ffffffffffffffffffffffffffffffffffffffff1673ffffffffffffffffffffffffffffffffffffffff16631feeef988760006002811061190a57611909612638565b5b60200201518860016002811061192357611922612638565b5b60200201516040518363ffffffff1660e01b8152600401611945929190612667565b6040805180830381865afa158015611961573d6000803e3d6000fd5b505050506040513d601f19601f82011682018060405250810190611985919061270f565b60000151148015611a6757506000600360009054906101000a900473ffffffffffffffffffffffffffffffffffffffff1673ffffffffffffffffffffffffffffffffffffffff16631feeef98866000600281106119e5576119e4612638565b5b6020020151876001600281106119fe576119fd612638565b5b60200201516040518363ffffffff1660e01b8152600401611a20929190612667565b6040805180830381865afa158015611a3c573d6000803e3d6000fd5b505050506040513d601f19601f82011682018060405250810190611a60919061270f565b6000015114155b8015611a7b57506001611a7983610272565b145b15611a895760019250611f6e565b600360009054906101000a900473ffffffffffffffffffffffffffffffffffffffff1673ffffffffffffffffffffffffffffffffffffffff16638f7daf0f600360009054906101000a900473ffffffffffffffffffffffffffffffffffffffff1673ffffffffffffffffffffffffffffffffffffffff16631feeef9888600060028110611b1957611b18612638565b5b602002015189600160028110611b3257611b31612638565b5b60200201516040518363ffffffff1660e01b8152600401611b54929190612667565b6040805180830381865afa158015611b70573d6000803e3d6000fd5b505050506040513d601f19601f82011682018060405250810190611b94919061270f565b600001516040518263ffffffff1660e01b8152600401611bb49190612256565b608060405180830381865afa158015611bd1573d6000803e3d6000fd5b505050506040513d601f19601f82011682018060405250810190611bf59190612e30565b60000151600260038110611c0c57611c0b612638565b5b6020020151158015611cef57506001600360009054906101000a900473ffffffffffffffffffffffffffffffffffffffff1673ffffffffffffffffffffffffffffffffffffffff16631feeef9887600060028110611c6d57611c6c612638565b5b602002015188600160028110611c8657611c85612638565b5b60200201516040518363ffffffff1660e01b8152600401611ca8929190612667565b6040805180830381865afa158015611cc4573d6000803e3d6000fd5b505050506040513d601f19601f82011682018060405250810190611ce8919061270f565b6000015114155b15611cfd5760009250611f6d565b600360009054906101000a900473ffffffffffffffffffffffffffffffffffffffff1673ffffffffffffffffffffffffffffffffffffffff16638f7daf0f600360009054906101000a900473ffffffffffffffffffffffffffffffffffffffff1673ffffffffffffffffffffffffffffffffffffffff16631feeef9888600060028110611d8d57611d8c612638565b5b602002015189600160028110611da657611da5612638565b5b60200201516040518363ffffffff1660e01b8152600401611dc8929190612667565b6040805180830381865afa158015611de4573d6000803e3d6000fd5b505050506040513d601f19601f82011682018060405250810190611e08919061270f565b600001516040518263ffffffff1660e01b8152600401611e289190612256565b608060405180830381865afa158015611e45573d6000803e3d6000fd5b505050506040513d601f19601f82011682018060405250810190611e699190612e30565b60000151600260038110611e8057611e7f612638565b5b60200201518015611f6257506001600360009054906101000a900473ffffffffffffffffffffffffffffffffffffffff1673ffffffffffffffffffffffffffffffffffffffff16631feeef9887600060028110611ee057611edf612638565b5b602002015188600160028110611ef957611ef8612638565b5b60200201516040518363ffffffff1660e01b8152600401611f1b929190612667565b6040805180830381865afa158015611f37573d6000803e3d6000fd5b505050506040513d601f19601f82011682018060405250810190611f5b919061270f565b6000015114155b15611f6c57600192505b5b5b6120af565b6002611f7e83610272565b148015611f9357506001611f9182610272565b145b80611fba57506001611fa483610272565b148015611fb957506002611fb782610272565b145b5b156120a95760038060009054906101000a900473ffffffffffffffffffffffffffffffffffffffff1673ffffffffffffffffffffffffffffffffffffffff16631feeef988760006002811061201257612011612638565b5b60200201518860016002811061202b5761202a612638565b5b60200201516040518363ffffffff1660e01b815260040161204d929190612667565b6040805180830381865afa158015612069573d6000803e3d6000fd5b505050506040513d601f19601f8201168201806040525081019061208d919061270f565b600001511461209f57600092506120a4565b600192505b6120ae565b600092505b5b5b5b505092915050565b6000600782136120cb578190506120d0565b600790505b919050565b600080821215612107577fffffffffffffffffffffffffffffffffffffffffffffffffffffffffffffffff905061211f565b6000821315612119576001905061211e565b600090505b5b919050565b60008082126121355781905061213a565b600090505b919050565b6040518060400160405280600290602082028036833780820191505090505090565b6000604051905090565b600080fd5b6000819050919050565b61218381612170565b811461218e57600080fd5b50565b6000813590506121a08161217a565b92915050565b6000602082840312156121bc576121bb61216b565b5b60006121ca84828501612191565b91505092915050565b6121dc81612170565b82525050565b60006020820190506121f760008301846121d3565b92915050565b600080604083850312156122145761221361216b565b5b600061222285828601612191565b925050602061223385828601612191565b9150509250929050565b6000819050919050565b6122508161223d565b82525050565b600060208201905061226b6000830184612247565b92915050565b600080fd5b6000601f19601f8301169050919050565b7f4e487b7100000000000000000000000000000000000000000000000000000000600052604160045260246000fd5b6122bf82612276565b810181811067ffffffffffffffff821117156122de576122dd612287565b5b80604052505050565b60006122f1612161565b90506122fd82826122b6565b919050565b600067ffffffffffffffff82111561231d5761231c612287565b5b602082029050919050565b600080fd5b6123368161223d565b811461234157600080fd5b50565b6000813590506123538161232d565b92915050565b600061236c61236784612302565b6122e7565b9050806020840283018581111561238657612385612328565b5b835b818110156123af578061239b8882612344565b845260208401935050602081019050612388565b5050509392505050565b600082601f8301126123ce576123cd612271565b5b60026123db848285612359565b91505092915050565b60008115159050919050565b6123f9816123e4565b811461240457600080fd5b50565b600081359050612416816123f0565b92915050565b60008060008060c085870312156124365761243561216b565b5b6000612444878288016123b9565b9450506040612455878288016123b9565b935050608061246687828801612407565b92505060a061247787828801612344565b91505092959194509250565b61248c816123e4565b82525050565b60006020820190506124a76000830184612483565b92915050565b600080608083850312156124c4576124c361216b565b5b60006124d2858286016123b9565b92505060406124e3858286016123b9565b9150509250929050565b600060029050919050565b600081905092915050565b6000819050919050565b6125168161223d565b82525050565b6000612528838361250d565b60208301905092915050565b6000602082019050919050565b61254a816124ed565b61255481846124f8565b925061255f82612503565b8060005b83811015612590578151612577878261251c565b965061258283612534565b925050600181019050612563565b505050505050565b60006060820190506125ad6000830185612483565b6125ba6020830184612541565b9392505050565b7f4e487b7100000000000000000000000000000000000000000000000000000000600052601160045260246000fd5b60006125fb82612170565b91507f8000000000000000000000000000000000000000000000000000000000000000820361262d5761262c6125c1565b5b816000039050919050565b7f4e487b7100000000000000000000000000000000000000000000000000000000600052603260045260246000fd5b600060408201905061267c6000830185612247565b6126896020830184612247565b9392505050565b600080fd5b6000815190506126a48161232d565b92915050565b6000815190506126b9816123f0565b92915050565b6000604082840312156126d5576126d4612690565b5b6126df60406122e7565b905060006126ef84828501612695565b6000830152506020612703848285016126aa565b60208301525092915050565b6000604082840312156127255761272461216b565b5b6000612733848285016126bf565b91505092915050565b600082825260208201905092915050565b7f6e6f742079207000000000000000000000000000000000000000000000000000600082015250565b600061278360078361273c565b915061278e8261274d565b602082019050919050565b600060208201905081810360008301526127b281612776565b9050919050565b7f73706f7374617469000000000000000000000000000000000000000000000000600082015250565b60006127ef60088361273c565b91506127fa826127b9565b602082019050919050565b6000602082019050818103600083015261281e816127e2565b9050919050565b7f6666000000000000000000000000000000000000000000000000000000000000600082015250565b600061285b60028361273c565b915061286682612825565b602082019050919050565b6000602082019050818103600083015261288a8161284e565b9050919050565b600061289c82612170565b91506128a783612170565b9250827f8000000000000000000000000000000000000000000000000000000000000000018212600084121516156128e2576128e16125c1565b5b827f7fffffffffffffffffffffffffffffffffffffffffffffffffffffffffffffff01821360008412161561291a576129196125c1565b5b828203905092915050565b7f6469726d00000000000000000000000000000000000000000000000000000000600082015250565b600061295b60048361273c565b915061296682612925565b602082019050919050565b6000602082019050818103600083015261298a8161294e565b9050919050565b6000819050919050565b6000819050919050565b60006129c06129bb6129b684612991565b61299b565b61223d565b9050919050565b6129d0816129a5565b82525050565b6000819050919050565b60006129fb6129f66129f1846129d6565b61299b565b61223d565b9050919050565b612a0b816129e0565b82525050565b6000604082019050612a2660008301856129c7565b612a336020830184612a02565b9392505050565b6000819050919050565b6000612a5f612a5a612a5584612a3a565b61299b565b61223d565b9050919050565b612a6f81612a44565b82525050565b6000604082019050612a8a6000830185612a66565b612a976020830184612a02565b9392505050565b6000604082019050612ab36000830185612a02565b612ac06020830184612a02565b9392505050565b6000819050919050565b6000612aec612ae7612ae284612ac7565b61299b565b61223d565b9050919050565b612afc81612ad1565b82525050565b6000604082019050612b176000830185612af3565b612b246020830184612a66565b9392505050565b6000604082019050612b406000830185612a66565b612b4d6020830184612a66565b9392505050565b6000604082019050612b696000830185612a02565b612b766020830184612a66565b9392505050565b50565b6000612b8d60008361273c565b9150612b9882612b7d565b600082019050919050565b60006020820190508181036000830152612bbc81612b80565b9050919050565b7f6d61780000000000000000000000000000000000000000000000000000000000600082015250565b6000612bf960038361273c565b9150612c0482612bc3565b602082019050919050565b60006020820190508181036000830152612c2881612bec565b9050919050565b7f6f62730000000000000000000000000000000000000000000000000000000000600082015250565b6000612c6560038361273c565b9150612c7082612c2f565b602082019050919050565b60006020820190508181036000830152612c9481612c58565b9050919050565b6000612ca682612170565b9150612cb183612170565b9250817f7fffffffffffffffffffffffffffffffffffffffffffffffffffffffffffffff03831360008312151615612cec57612ceb6125c1565b5b817f8000000000000000000000000000000000000000000000000000000000000000038312600083121615612d2457612d236125c1565b5b828201905092915050565b600067ffffffffffffffff821115612d4a57612d49612287565b5b602082029050919050565b6000612d68612d6384612d2f565b6122e7565b90508060208402830185811115612d8257612d81612328565b5b835b81811015612dab5780612d9788826126aa565b845260208401935050602081019050612d84565b5050509392505050565b600082601f830112612dca57612dc9612271565b5b6003612dd7848285612d55565b91505092915050565b600060808284031215612df657612df5612690565b5b612e0060406122e7565b90506000612e1084828501612db5565b6000830152506060612e2484828501612695565b60208301525092915050565b600060808284031215612e4657612e4561216b565b5b6000612e5484828501612de0565b9150509291505056fea26469706673582212206aa56eabea3576603012b31327aaf9d6898da62afe2fe18e63595c20fbfe5eee64736f6c634300080e003360806040523480156200001157600080fd5b5060405162002b0f38038062002b0f83398181016040528101906200003791906200016f565b816000806101000a81548173ffffffffffffffffffffffffffffffffffffffff021916908373ffffffffffffffffffffffffffffffffffffffff16021790555080600160006101000a81548173ffffffffffffffffffffffffffffffffffffffff021916908373ffffffffffffffffffffffffffffffffffffffff1602179055505050620001b6565b600080fd5b600073ffffffffffffffffffffffffffffffffffffffff82169050919050565b6000620000f282620000c5565b9050919050565b6200010481620000e5565b81146200011057600080fd5b50565b6000815190506200012481620000f9565b92915050565b60006200013782620000c5565b9050919050565b62000149816200012a565b81146200015557600080fd5b50565b60008151905062000169816200013e565b92915050565b60008060408385031215620001895762000188620000c0565b5b6000620001998582860162000113565b9250506020620001ac8582860162000158565b9150509250929050565b61294980620001c66000396000f3fe608060405234801561001057600080fd5b50600436106100415760003560e01c8063155b47e8146100465780632f1d8074146100765780638b69cfad146100a7575b600080fd5b610060600480360381019061005b9190611f22565b6100d8565b60405161006d9190611f5e565b60405180910390f35b610090600480360381019061008b91906120f6565b610cf5565b60405161009e9291906121e1565b60405180910390f35b6100c160048036038101906100bc9190611f22565b611d05565b6040516100cf92919061220a565b60405180910390f35b6000600160009054906101000a900473ffffffffffffffffffffffffffffffffffffffff1673ffffffffffffffffffffffffffffffffffffffff163373ffffffffffffffffffffffffffffffffffffffff161461016a576040517f08c379a00000000000000000000000000000000000000000000000000000000081526004016101619061226a565b60405180910390fd5b6000600160009054906101000a900473ffffffffffffffffffffffffffffffffffffffff1673ffffffffffffffffffffffffffffffffffffffff1663915b740d846040518263ffffffff1660e01b81526004016101c79190611f5e565b6040805180830381865afa1580156101e3573d6000803e3d6000fd5b505050506040513d601f19601f82011682018060405250810190610207919061232a565b9050610211611e96565b600080600080600080600080610310604051806040016040528060008054906101000a900473ffffffffffffffffffffffffffffffffffffffff1673ffffffffffffffffffffffffffffffffffffffff1663bac3511960018f60006002811061027d5761027c612357565b5b602002015161028c91906123bf565b6040518263ffffffff1660e01b81526004016102a89190612462565b602060405180830381865afa1580156102c5573d6000803e3d6000fd5b505050506040513d601f19601f820116820180604052508101906102e991906124a9565b81526020018c60016002811061030257610301612357565b5b60200201518152508d610cf5565b809a50819950505061040b604051806040016040528060008054906101000a900473ffffffffffffffffffffffffffffffffffffffff1673ffffffffffffffffffffffffffffffffffffffff1663ee0b07e060018f60006002811061037857610377612357565b5b602002015161038791906124d6565b6040518263ffffffff1660e01b81526004016103a39190612462565b602060405180830381865afa1580156103c0573d6000803e3d6000fd5b505050506040513d601f19601f820116820180604052508101906103e491906124a9565b81526020018c6001600281106103fd576103fc612357565b5b60200201518152508d610cf5565b809a50819850505061050660405180604001604052808c60006002811061043557610434612357565b5b6020020151815260200160008054906101000a900473ffffffffffffffffffffffffffffffffffffffff1673ffffffffffffffffffffffffffffffffffffffff1663bac3511960018f60016002811061049157610490612357565b5b60200201516104a091906123bf565b6040518263ffffffff1660e01b81526004016104bc9190612462565b602060405180830381865afa1580156104d9573d6000803e3d6000fd5b505050506040513d601f19601f820116820180604052508101906104fd91906124a9565b8152508d610cf5565b809a50819750505061060160405180604001604052808c6000600281106105305761052f612357565b5b6020020151815260200160008054906101000a900473ffffffffffffffffffffffffffffffffffffffff1673ffffffffffffffffffffffffffffffffffffffff1663bac3511960018f60016002811061058c5761058b612357565b5b602002015161059b91906124d6565b6040518263ffffffff1660e01b81526004016105b79190612462565b602060405180830381865afa1580156105d4573d6000803e3d6000fd5b505050506040513d601f19601f820116820180604052508101906105f891906124a9565b8152508d610cf5565b809a5081965050506107a1604051806040016040528060008054906101000a900473ffffffffffffffffffffffffffffffffffffffff1673ffffffffffffffffffffffffffffffffffffffff1663bac3511960018f60006002811061066957610668612357565b5b602002015161067891906123bf565b6040518263ffffffff1660e01b81526004016106949190612462565b602060405180830381865afa1580156106b1573d6000803e3d6000fd5b505050506040513d601f19601f820116820180604052508101906106d591906124a9565b815260200160008054906101000a900473ffffffffffffffffffffffffffffffffffffffff1673ffffffffffffffffffffffffffffffffffffffff1663bac3511960018f60016002811061072c5761072b612357565b5b602002015161073b91906123bf565b6040518263ffffffff1660e01b81526004016107579190612462565b602060405180830381865afa158015610774573d6000803e3d6000fd5b505050506040513d601f19601f8201168201806040525081019061079891906124a9565b8152508d610cf5565b809a508195505050610941604051806040016040528060008054906101000a900473ffffffffffffffffffffffffffffffffffffffff1673ffffffffffffffffffffffffffffffffffffffff1663bac3511960018f60006002811061080957610808612357565b5b602002015161081891906123bf565b6040518263ffffffff1660e01b81526004016108349190612462565b602060405180830381865afa158015610851573d6000803e3d6000fd5b505050506040513d601f19601f8201168201806040525081019061087591906124a9565b815260200160008054906101000a900473ffffffffffffffffffffffffffffffffffffffff1673ffffffffffffffffffffffffffffffffffffffff1663bac3511960018f6001600281106108cc576108cb612357565b5b60200201516108db91906124d6565b6040518263ffffffff1660e01b81526004016108f79190612462565b602060405180830381865afa158015610914573d6000803e3d6000fd5b505050506040513d601f19601f8201168201806040525081019061093891906124a9565b8152508d610cf5565b809a508194505050610ae1604051806040016040528060008054906101000a900473ffffffffffffffffffffffffffffffffffffffff1673ffffffffffffffffffffffffffffffffffffffff1663bac3511960018f6000600281106109a9576109a8612357565b5b60200201516109b891906124d6565b6040518263ffffffff1660e01b81526004016109d49190612462565b602060405180830381865afa1580156109f1573d6000803e3d6000fd5b505050506040513d601f19601f82011682018060405250810190610a1591906124a9565b815260200160008054906101000a900473ffffffffffffffffffffffffffffffffffffffff1673ffffffffffffffffffffffffffffffffffffffff1663bac3511960018f600160028110610a6c57610a6b612357565b5b6020020151610a7b91906123bf565b6040518263ffffffff1660e01b8152600401610a979190612462565b602060405180830381865afa158015610ab4573d6000803e3d6000fd5b505050506040513d601f19601f82011682018060405250810190610ad891906124a9565b8152508d610cf5565b809a508193505050610c81604051806040016040528060008054906101000a900473ffffffffffffffffffffffffffffffffffffffff1673ffffffffffffffffffffffffffffffffffffffff1663bac3511960018f600060028110610b4957610b48612357565b5b6020020151610b5891906124d6565b6040518263ffffffff1660e01b8152600401610b749190612462565b602060405180830381865afa158015610b91573d6000803e3d6000fd5b505050506040513d601f19601f82011682018060405250810190610bb591906124a9565b815260200160008054906101000a900473ffffffffffffffffffffffffffffffffffffffff1673ffffffffffffffffffffffffffffffffffffffff1663bac3511960018f600160028110610c0c57610c0b612357565b5b6020020151610c1b91906124d6565b6040518263ffffffff1660e01b8152600401610c379190612462565b602060405180830381865afa158015610c54573d6000803e3d6000fd5b505050506040513d601f19601f82011682018060405250810190610c7891906124a9565b8152508d610cf5565b809a508192505050878015610c935750865b8015610c9c5750855b8015610ca55750845b8015610cae5750835b8015610cb75750825b8015610cc05750815b8015610cc95750805b15610ce15760019a5050505050505050505050610cf0565b60009a50505050505050505050505b919050565b6000610cff611e96565b610d07611eb8565b610d0f611eb8565b600082600060088110610d2557610d24612357565b5b60200201818152505085600160028110610d4257610d41612357565b5b602002015181600060088110610d5b57610d5a612357565b5b602002018181525050600782600160088110610d7a57610d79612357565b5b60200201818152505085600160028110610d9757610d96612357565b5b602002015181600160088110610db057610daf612357565b5b60200201818152505085600060028110610dcd57610dcc612357565b5b602002015182600260088110610de657610de5612357565b5b602002018181525050600081600260088110610e0557610e04612357565b5b60200201818152505085600060028110610e2257610e21612357565b5b602002015182600360088110610e3b57610e3a612357565b5b602002018181525050600781600360088110610e5a57610e59612357565b5b60200201818152505060008054906101000a900473ffffffffffffffffffffffffffffffffffffffff1673ffffffffffffffffffffffffffffffffffffffff166329aa9cbe87600060028110610eb357610eb2612357565b5b602002015188600160028110610ecc57610ecb612357565b5b60200201516040518363ffffffff1660e01b8152600401610eee92919061256a565b602060405180830381865afa158015610f0b573d6000803e3d6000fd5b505050506040513d601f19601f82011682018060405250810190610f2f91906124a9565b86600060028110610f4357610f42612357565b5b6020020151610f529190612593565b82600460088110610f6657610f65612357565b5b60200201818152505060008054906101000a900473ffffffffffffffffffffffffffffffffffffffff1673ffffffffffffffffffffffffffffffffffffffff166329aa9cbe87600060028110610fbf57610fbe612357565b5b602002015188600160028110610fd857610fd7612357565b5b60200201516040518363ffffffff1660e01b8152600401610ffa92919061256a565b602060405180830381865afa158015611017573d6000803e3d6000fd5b505050506040513d601f19601f8201168201806040525081019061103b91906124a9565b8660016002811061104f5761104e612357565b5b602002015161105e9190612593565b8160046008811061107257611071612357565b5b60200201818152505060008054906101000a900473ffffffffffffffffffffffffffffffffffffffff1673ffffffffffffffffffffffffffffffffffffffff166381fe5786876000600281106110cb576110ca612357565b5b6020020151886001600281106110e4576110e3612357565b5b60200201516040518363ffffffff1660e01b815260040161110692919061256a565b602060405180830381865afa158015611123573d6000803e3d6000fd5b505050506040513d601f19601f8201168201806040525081019061114791906124a9565b60078760006002811061115d5761115c612357565b5b602002015161116c91906125c7565b6111769190612593565b8260056008811061118a57611189612357565b5b60200201818152505060008054906101000a900473ffffffffffffffffffffffffffffffffffffffff1673ffffffffffffffffffffffffffffffffffffffff166381fe5786876000600281106111e3576111e2612357565b5b6020020151886001600281106111fc576111fb612357565b5b60200201516040518363ffffffff1660e01b815260040161121e92919061256a565b602060405180830381865afa15801561123b573d6000803e3d6000fd5b505050506040513d601f19601f8201168201806040525081019061125f91906124a9565b60078760016002811061127557611274612357565b5b602002015161128491906125c7565b61128e9190612593565b816005600881106112a2576112a1612357565b5b602002018181525050856001600281106112bf576112be612357565b5b6020020151866000600281106112d8576112d7612357565b5b6020020151101561157e57856001600281106112f7576112f6612357565b5b6020020151866001600281106113105761130f612357565b5b602002015161131f9190612593565b8260066008811061133357611332612357565b5b60200201818152505060008054906101000a900473ffffffffffffffffffffffffffffffffffffffff1673ffffffffffffffffffffffffffffffffffffffff1663bac351198760006002811061138c5761138b612357565b5b6020020151886001600281106113a5576113a4612357565b5b60200201516113b491906123bf565b6040518263ffffffff1660e01b81526004016113d09190612462565b602060405180830381865afa1580156113ed573d6000803e3d6000fd5b505050506040513d601f19601f8201168201806040525081019061141191906124a9565b8160066008811061142557611424612357565b5b60200201818152505060008054906101000a900473ffffffffffffffffffffffffffffffffffffffff1673ffffffffffffffffffffffffffffffffffffffff1663bac351198760016002811061147e5761147d612357565b5b60200201518860006002811061149757611496612357565b5b60200201516114a691906123bf565b6040518263ffffffff1660e01b81526004016114c29190612462565b602060405180830381865afa1580156114df573d6000803e3d6000fd5b505050506040513d601f19601f8201168201806040525081019061150391906124a9565b8260076008811061151757611516612357565b5b6020020181815250508560006002811061153457611533612357565b5b60200201518660006002811061154d5761154c612357565b5b602002015161155c9190612593565b816007600881106115705761156f612357565b5b602002018181525050611815565b8560006002811061159257611591612357565b5b6020020151866000600281106115ab576115aa612357565b5b60200201516115ba9190612593565b826006600881106115ce576115cd612357565b5b60200201818152505060008054906101000a900473ffffffffffffffffffffffffffffffffffffffff1673ffffffffffffffffffffffffffffffffffffffff1663bac351198760016002811061162757611626612357565b5b6020020151886000600281106116405761163f612357565b5b602002015161164f91906123bf565b6040518263ffffffff1660e01b815260040161166b9190612462565b602060405180830381865afa158015611688573d6000803e3d6000fd5b505050506040513d601f19601f820116820180604052508101906116ac91906124a9565b816006600881106116c0576116bf612357565b5b60200201818152505060008054906101000a900473ffffffffffffffffffffffffffffffffffffffff1673ffffffffffffffffffffffffffffffffffffffff1663bac351198760006002811061171957611718612357565b5b60200201518860016002811061173257611731612357565b5b602002015161174191906123bf565b6040518263ffffffff1660e01b815260040161175d9190612462565b602060405180830381865afa15801561177a573d6000803e3d6000fd5b505050506040513d601f19601f8201168201806040525081019061179e91906124a9565b826007600881106117b2576117b1612357565b5b602002018181525050856001600281106117cf576117ce612357565b5b6020020151866001600281106117e8576117e7612357565b5b60200201516117f79190612593565b8160076008811061180b5761180a612357565b5b6020020181815250505b60005b6008811015611cf65760008054906101000a900473ffffffffffffffffffffffffffffffffffffffff1673ffffffffffffffffffffffffffffffffffffffff166371cc5ad188604051806040016040528087866008811061187c5761187b612357565b5b6020020151815260200186866008811061189957611898612357565b5b60200201518152506040518363ffffffff1660e01b81526004016118be92919061261d565b606060405180830381865afa1580156118db573d6000803e3d6000fd5b505050506040513d601f19601f820116820180604052508101906118ff919061265b565b809550819650505060008054906101000a900473ffffffffffffffffffffffffffffffffffffffff1673ffffffffffffffffffffffffffffffffffffffff1663ac411ce685896040518363ffffffff1660e01b815260040161196292919061261d565b602060405180830381865afa15801561197f573d6000803e3d6000fd5b505050506040513d601f19601f820116820180604052508101906119a3919061269b565b8015611bf2575060008054906101000a900473ffffffffffffffffffffffffffffffffffffffff1673ffffffffffffffffffffffffffffffffffffffff16631b5ac4b5886001600281106119fa576119f9612357565b5b602002015186600160028110611a1357611a12612357565b5b6020020151611a2291906124d6565b6040518263ffffffff1660e01b8152600401611a3e9190612462565b602060405180830381865afa158015611a5b573d6000803e3d6000fd5b505050506040513d601f19601f82011682018060405250810190611a7f91906124a9565b600160009054906101000a900473ffffffffffffffffffffffffffffffffffffffff1673ffffffffffffffffffffffffffffffffffffffff16638f7daf0f600160009054906101000a900473ffffffffffffffffffffffffffffffffffffffff1673ffffffffffffffffffffffffffffffffffffffff16631feeef9888600060028110611b0f57611b0e612357565b5b602002015189600160028110611b2857611b27612357565b5b60200201516040518363ffffffff1660e01b8152600401611b4a9291906126d7565b6040805180830381865afa158015611b66573d6000803e3d6000fd5b505050506040513d601f19601f82011682018060405250810190611b8a9190612755565b600001516040518263ffffffff1660e01b8152600401611baa9190612782565b608060405180830381865afa158015611bc7573d6000803e3d6000fd5b505050506040513d601f19601f82011682018060405250810190611beb919061289e565b6020015110155b8015611cd25750851515600160009054906101000a900473ffffffffffffffffffffffffffffffffffffffff1673ffffffffffffffffffffffffffffffffffffffff16631feeef9886600060028110611c4e57611c4d612357565b5b602002015187600160028110611c6757611c66612357565b5b60200201516040518363ffffffff1660e01b8152600401611c899291906126d7565b6040805180830381865afa158015611ca5573d6000803e3d6000fd5b505050506040513d601f19601f82011682018060405250810190611cc99190612755565b60200151151514155b15611ce35760019450505050611cfe565b8080611cee906128cb565b915050611818565b506000935050505b9250929050565b600080600160009054906101000a900473ffffffffffffffffffffffffffffffffffffffff1673ffffffffffffffffffffffffffffffffffffffff1663fe9ba8ec846040518263ffffffff1660e01b8152600401611d639190611f5e565b602060405180830381865afa158015611d80573d6000803e3d6000fd5b505050506040513d601f19601f82011682018060405250810190611da4919061269b565b8015611db55750611db4836100d8565b5b15611dc7576001915060019050611e91565b600160009054906101000a900473ffffffffffffffffffffffffffffffffffffffff1673ffffffffffffffffffffffffffffffffffffffff1663fe9ba8ec846040518263ffffffff1660e01b8152600401611e229190611f5e565b602060405180830381865afa158015611e3f573d6000803e3d6000fd5b505050506040513d601f19601f82011682018060405250810190611e63919061269b565b158015611e755750611e74836100d8565b5b15611e87576000915060019050611e90565b60009150600090505b5b915091565b6040518060400160405280600290602082028036833780820191505090505090565b604051806101000160405280600890602082028036833780820191505090505090565b6000604051905090565b600080fd5b60008115159050919050565b611eff81611eea565b8114611f0a57600080fd5b50565b600081359050611f1c81611ef6565b92915050565b600060208284031215611f3857611f37611ee5565b5b6000611f4684828501611f0d565b91505092915050565b611f5881611eea565b82525050565b6000602082019050611f736000830184611f4f565b92915050565b600080fd5b6000601f19601f8301169050919050565b7f4e487b7100000000000000000000000000000000000000000000000000000000600052604160045260246000fd5b611fc782611f7e565b810181811067ffffffffffffffff82111715611fe657611fe5611f8f565b5b80604052505050565b6000611ff9611edb565b90506120058282611fbe565b919050565b600067ffffffffffffffff82111561202557612024611f8f565b5b602082029050919050565b600080fd5b6000819050919050565b61204881612035565b811461205357600080fd5b50565b6000813590506120658161203f565b92915050565b600061207e6120798461200a565b611fef565b9050806020840283018581111561209857612097612030565b5b835b818110156120c157806120ad8882612056565b84526020840193505060208101905061209a565b5050509392505050565b600082601f8301126120e0576120df611f79565b5b60026120ed84828561206b565b91505092915050565b6000806060838503121561210d5761210c611ee5565b5b600061211b858286016120cb565b925050604061212c85828601611f0d565b9150509250929050565b600060029050919050565b600081905092915050565b6000819050919050565b61215f81612035565b82525050565b60006121718383612156565b60208301905092915050565b6000602082019050919050565b61219381612136565b61219d8184612141565b92506121a88261214c565b8060005b838110156121d95781516121c08782612165565b96506121cb8361217d565b9250506001810190506121ac565b505050505050565b60006060820190506121f66000830185611f4f565b612203602083018461218a565b9392505050565b600060408201905061221f6000830185611f4f565b61222c6020830184611f4f565b9392505050565b600082825260208201905092915050565b50565b6000612254600083612233565b915061225f82612244565b600082019050919050565b6000602082019050818103600083015261228381612247565b9050919050565b6000815190506122998161203f565b92915050565b60006122b26122ad8461200a565b611fef565b905080602084028301858111156122cc576122cb612030565b5b835b818110156122f557806122e1888261228a565b8452602084019350506020810190506122ce565b5050509392505050565b600082601f83011261231457612313611f79565b5b600261232184828561229f565b91505092915050565b6000604082840312156123405761233f611ee5565b5b600061234e848285016122ff565b91505092915050565b7f4e487b7100000000000000000000000000000000000000000000000000000000600052603260045260246000fd5b6000819050919050565b7f4e487b7100000000000000000000000000000000000000000000000000000000600052601160045260246000fd5b60006123ca82612386565b91506123d583612386565b9250817f7fffffffffffffffffffffffffffffffffffffffffffffffffffffffffffffff038313600083121516156124105761240f612390565b5b817f800000000000000000000000000000000000000000000000000000000000000003831260008312161561244857612447612390565b5b828201905092915050565b61245c81612386565b82525050565b60006020820190506124776000830184612453565b92915050565b61248681612386565b811461249157600080fd5b50565b6000815190506124a38161247d565b92915050565b6000602082840312156124bf576124be611ee5565b5b60006124cd84828501612494565b91505092915050565b60006124e182612386565b91506124ec83612386565b9250827f80000000000000000000000000000000000000000000000000000000000000000182126000841215161561252757612526612390565b5b827f7fffffffffffffffffffffffffffffffffffffffffffffffffffffffffffffff01821360008412161561255f5761255e612390565b5b828203905092915050565b600060408201905061257f6000830185612453565b61258c6020830184612453565b9392505050565b600061259e82612035565b91506125a983612035565b9250828210156125bc576125bb612390565b5b828203905092915050565b60006125d282612035565b91506125dd83612035565b9250827fffffffffffffffffffffffffffffffffffffffffffffffffffffffffffffffff0382111561261257612611612390565b5b828201905092915050565b6000608082019050612632600083018561218a565b61263f604083018461218a565b9392505050565b60008151905061265581611ef6565b92915050565b6000806060838503121561267257612671611ee5565b5b600061268085828601612646565b9250506020612691858286016122ff565b9150509250929050565b6000602082840312156126b1576126b0611ee5565b5b60006126bf84828501612646565b91505092915050565b6126d181612035565b82525050565b60006040820190506126ec60008301856126c8565b6126f960208301846126c8565b9392505050565b600080fd5b60006040828403121561271b5761271a612700565b5b6127256040611fef565b905060006127358482850161228a565b600083015250602061274984828501612646565b60208301525092915050565b60006040828403121561276b5761276a611ee5565b5b600061277984828501612705565b91505092915050565b600060208201905061279760008301846126c8565b92915050565b600067ffffffffffffffff8211156127b8576127b7611f8f565b5b602082029050919050565b60006127d66127d18461279d565b611fef565b905080602084028301858111156127f0576127ef612030565b5b835b8181101561281957806128058882612646565b8452602084019350506020810190506127f2565b5050509392505050565b600082601f83011261283857612837611f79565b5b60036128458482856127c3565b91505092915050565b60006080828403121561286457612863612700565b5b61286e6040611fef565b9050600061287e84828501612823565b60008301525060606128928482850161228a565b60208301525092915050565b6000608082840312156128b4576128b3611ee5565b5b60006128c28482850161284e565b91505092915050565b60006128d682612035565b91507fffffffffffffffffffffffffffffffffffffffffffffffffffffffffffffffff820361290857612907612390565b5b60018201905091905056fea2646970667358221220c5bf4ef63fa1f617a134d32d67cad9b5db8b377a5d0ac619061e59c415273b7a64736f6c634300080e0033",
  "linkReferences": {},
  "deployedLinkReferences": {}
}