{
  "_format": "hh-sol-artifact-1",
  "contractName": "ChessBoard",
  "sourceName": "contracts/ChessBoard.sol",
  "abi": [
    {
      "inputs": [
        {
          "internalType": "address",
          "name": "_player1",
          "type": "address"
        },
        {
          "internalType": "address",
          "name": "_player2",
          "type": "address"
        }
      ],
      "stateMutability": "nonpayable",
      "type": "constructor"
    },
    {
      "inputs": [
        {
          "internalType": "bool",
          "name": "",
          "type": "bool"
        }
      ],
      "name": "KingsFirstmove",
      "outputs": [
        {
          "internalType": "bool",
          "name": "",
          "type": "bool"
        }
      ],
      "stateMutability": "view",
      "type": "function"
    },
    {
      "inputs": [
        {
          "internalType": "uint256[2]",
          "name": "oldpos",
          "type": "uint256[2]"
        },
        {
          "internalType": "uint256[2]",
          "name": "newpos",
          "type": "uint256[2]"
        }
      ],
      "name": "Move",
      "outputs": [
        {
          "internalType": "bool",
          "name": "res",
          "type": "bool"
        }
      ],
      "stateMutability": "nonpayable",
      "type": "function"
    },
    {
      "inputs": [],
      "name": "Movecontroller",
      "outputs": [
        {
          "internalType": "contract MoveController",
          "name": "",
          "type": "address"
        }
      ],
      "stateMutability": "view",
      "type": "function"
    },
    {
      "inputs": [],
      "name": "Movehandler",
      "outputs": [
        {
          "internalType": "contract MoveHandler",
          "name": "",
          "type": "address"
        }
      ],
      "stateMutability": "view",
      "type": "function"
    },
    {
      "inputs": [
        {
          "internalType": "bool",
          "name": "",
          "type": "bool"
        },
        {
          "internalType": "bool",
          "name": "",
          "type": "bool"
        }
      ],
      "name": "TowersFirstmove",
      "outputs": [
        {
          "internalType": "bool",
          "name": "",
          "type": "bool"
        }
      ],
      "stateMutability": "view",
      "type": "function"
    },
    {
      "inputs": [
        {
          "internalType": "bool",
          "name": "",
          "type": "bool"
        }
      ],
      "name": "check",
      "outputs": [
        {
          "internalType": "bool",
          "name": "",
          "type": "bool"
        }
      ],
      "stateMutability": "view",
      "type": "function"
    },
    {
      "inputs": [
        {
          "internalType": "uint256",
          "name": "i",
          "type": "uint256"
        },
        {
          "internalType": "uint256",
          "name": "j",
          "type": "uint256"
        }
      ],
      "name": "getBox",
      "outputs": [
        {
          "components": [
            {
              "internalType": "uint256",
              "name": "pedina",
              "type": "uint256"
            },
            {
              "internalType": "bool",
              "name": "color",
              "type": "bool"
            }
          ],
          "internalType": "struct ChessBoard.Box",
          "name": "box",
          "type": "tuple"
        }
      ],
      "stateMutability": "view",
      "type": "function"
    },
    {
      "inputs": [
        {
          "internalType": "bool",
          "name": "_player",
          "type": "bool"
        }
      ],
      "name": "getCheck",
      "outputs": [
        {
          "internalType": "bool",
          "name": "res",
          "type": "bool"
        }
      ],
      "stateMutability": "view",
      "type": "function"
    },
    {
      "inputs": [
        {
          "internalType": "bool",
          "name": "team",
          "type": "bool"
        }
      ],
      "name": "getKing",
      "outputs": [
        {
          "internalType": "uint256[2]",
          "name": "pos",
          "type": "uint256[2]"
        }
      ],
      "stateMutability": "view",
      "type": "function"
    },
    {
      "inputs": [
        {
          "internalType": "bool",
          "name": "team",
          "type": "bool"
        }
      ],
      "name": "getPlayer",
      "outputs": [
        {
          "internalType": "address",
          "name": "_player",
          "type": "address"
        }
      ],
      "stateMutability": "view",
      "type": "function"
    },
    {
      "inputs": [
        {
          "internalType": "uint256",
          "name": "pedina",
          "type": "uint256"
        }
      ],
      "name": "getRules",
      "outputs": [
        {
          "components": [
            {
              "internalType": "bool[3]",
              "name": "moves_directions",
              "type": "bool[3]"
            },
            {
              "internalType": "uint256",
              "name": "maxsteps",
              "type": "uint256"
            }
          ],
          "internalType": "struct ChessBoard._Rules",
          "name": "rule",
          "type": "tuple"
        }
      ],
      "stateMutability": "view",
      "type": "function"
    },
    {
      "inputs": [
        {
          "internalType": "address",
          "name": "_player",
          "type": "address"
        }
      ],
      "name": "getTeam",
      "outputs": [
        {
          "internalType": "bool",
          "name": "team",
          "type": "bool"
        }
      ],
      "stateMutability": "view",
      "type": "function"
    },
    {
      "inputs": [
        {
          "internalType": "bool",
          "name": "",
          "type": "bool"
        }
      ],
      "name": "players",
      "outputs": [
        {
          "internalType": "address",
          "name": "",
          "type": "address"
        }
      ],
      "stateMutability": "view",
      "type": "function"
    },
    {
      "inputs": [
        {
          "internalType": "address",
          "name": "",
          "type": "address"
        }
      ],
      "name": "prizes",
      "outputs": [
        {
          "internalType": "uint256",
          "name": "",
          "type": "uint256"
        }
      ],
      "stateMutability": "view",
      "type": "function"
    },
    {
      "inputs": [],
      "name": "totalPrize",
      "outputs": [
        {
          "internalType": "uint256",
          "name": "",
          "type": "uint256"
        }
      ],
      "stateMutability": "view",
      "type": "function"
    },
    {
      "inputs": [],
      "name": "winner",
      "outputs": [
        {
          "internalType": "address",
          "name": "",
          "type": "address"
        }
      ],
      "stateMutability": "view",
      "type": "function"
    },
    {
      "stateMutability": "payable",
      "type": "receive"
    }
  ],
  "bytecode": "0x60806040523480156200001157600080fd5b506040516200bb973803806200bb97833981810160405281019062000037919062001f49565b30604051620000469062001dba565b62000052919062001fb5565b604051809103906000f0801580156200006f573d6000803e3d6000fd5b50608b60006101000a81548173ffffffffffffffffffffffffffffffffffffffff021916908373ffffffffffffffffffffffffffffffffffffffff160217905550608b60009054906101000a900473ffffffffffffffffffffffffffffffffffffffff1630604051620000e29062001dc8565b620000ef92919062001fe3565b604051809103906000f0801580156200010c573d6000803e3d6000fd5b50608c60006101000a81548173ffffffffffffffffffffffffffffffffffffffff021916908373ffffffffffffffffffffffffffffffffffffffff1602179055508160096000600115151515815260200190815260200160002060006101000a81548173ffffffffffffffffffffffffffffffffffffffff021916908373ffffffffffffffffffffffffffffffffffffffff16021790555080600960008015151515815260200190815260200160002060006101000a81548173ffffffffffffffffffffffffffffffffffffffff021916908373ffffffffffffffffffffffffffffffffffffffff16021790555081600160006101000a81548173ffffffffffffffffffffffffffffffffffffffff021916908373ffffffffffffffffffffffffffffffffffffffff16021790555060016008600060096000600115151515815260200190815260200160002060009054906101000a900473ffffffffffffffffffffffffffffffffffffffff1673ffffffffffffffffffffffffffffffffffffffff1673ffffffffffffffffffffffffffffffffffffffff16815260200190815260200160002060006101000a81548160ff021916908315150217905550600060086000600960008015151515815260200190815260200160002060009054906101000a900473ffffffffffffffffffffffffffffffffffffffff1673ffffffffffffffffffffffffffffffffffffffff1673ffffffffffffffffffffffffffffffffffffffff16815260200190815260200160002060006101000a81548160ff0219169083151502179055506040518060400160405280600360ff168152602001600760ff16815250600460006008600060096000600115151515815260200190815260200160002060009054906101000a900473ffffffffffffffffffffffffffffffffffffffff1673ffffffffffffffffffffffffffffffffffffffff1673ffffffffffffffffffffffffffffffffffffffff16815260200190815260200160002060009054906101000a900460ff161515151581526020019081526020016000209060026200042292919062001dd6565b506040518060400160405280600360ff168152602001600060ff168152506004600060086000600960008015151515815260200190815260200160002060009054906101000a900473ffffffffffffffffffffffffffffffffffffffff1673ffffffffffffffffffffffffffffffffffffffff1673ffffffffffffffffffffffffffffffffffffffff16815260200190815260200160002060009054906101000a900460ff16151515158152602001908152602001600020906002620004ea92919062001dd6565b506000600760006008600060096000600115151515815260200190815260200160002060009054906101000a900473ffffffffffffffffffffffffffffffffffffffff1673ffffffffffffffffffffffffffffffffffffffff1673ffffffffffffffffffffffffffffffffffffffff16815260200190815260200160002060009054906101000a900460ff1615151515815260200190815260200160002060006101000a81548160ff02191690831515021790555060006007600060086000600960008015151515815260200190815260200160002060009054906101000a900473ffffffffffffffffffffffffffffffffffffffff1673ffffffffffffffffffffffffffffffffffffffff1673ffffffffffffffffffffffffffffffffffffffff16815260200190815260200160002060009054906101000a900460ff1615151515815260200190815260200160002060006101000a81548160ff0219169083151502179055506001600560006008600060096000600115151515815260200190815260200160002060009054906101000a900473ffffffffffffffffffffffffffffffffffffffff1673ffffffffffffffffffffffffffffffffffffffff1673ffffffffffffffffffffffffffffffffffffffff16815260200190815260200160002060009054906101000a900460ff1615151515815260200190815260200160002060006101000a81548160ff02191690831515021790555060016005600060086000600960008015151515815260200190815260200160002060009054906101000a900473ffffffffffffffffffffffffffffffffffffffff1673ffffffffffffffffffffffffffffffffffffffff1673ffffffffffffffffffffffffffffffffffffffff16815260200190815260200160002060009054906101000a900460ff1615151515815260200190815260200160002060006101000a81548160ff0219169083151502179055506001600660006008600060096000600115151515815260200190815260200160002060009054906101000a900473ffffffffffffffffffffffffffffffffffffffff1673ffffffffffffffffffffffffffffffffffffffff1673ffffffffffffffffffffffffffffffffffffffff16815260200190815260200160002060009054906101000a900460ff1615151515815260200190815260200160002060008015151515815260200190815260200160002060006101000a81548160ff0219169083151502179055506001600660006008600060096000600115151515815260200190815260200160002060009054906101000a900473ffffffffffffffffffffffffffffffffffffffff1673ffffffffffffffffffffffffffffffffffffffff1673ffffffffffffffffffffffffffffffffffffffff16815260200190815260200160002060009054906101000a900460ff161515151581526020019081526020016000206000600115151515815260200190815260200160002060006101000a81548160ff02191690831515021790555060016006600060086000600960008015151515815260200190815260200160002060009054906101000a900473ffffffffffffffffffffffffffffffffffffffff1673ffffffffffffffffffffffffffffffffffffffff1673ffffffffffffffffffffffffffffffffffffffff16815260200190815260200160002060009054906101000a900460ff1615151515815260200190815260200160002060008015151515815260200190815260200160002060006101000a81548160ff02191690831515021790555060016006600060086000600960008015151515815260200190815260200160002060009054906101000a900473ffffffffffffffffffffffffffffffffffffffff1673ffffffffffffffffffffffffffffffffffffffff1673ffffffffffffffffffffffffffffffffffffffff16815260200190815260200160002060009054906101000a900460ff161515151581526020019081526020016000206000600115151515815260200190815260200160002060006101000a81548160ff0219169083151502179055506040518060400160405280604051806060016040528060001515151581526020016000151515158152602001600015151515815250815260200160008152506003600080815260200190815260200160002060008201518160000190600362000b4892919062001e20565b5060208201518160010155905050604051806040016040528060405180606001604052806000151515158152602001600115151515815260200160001515151581525081526020016001815250600360006001815260200190815260200160002060008201518160000190600362000bc292919062001e20565b5060208201518160010155905050604051806040016040528060405180606001604052806001151515158152602001600115151515815260200160001515151581525081526020016007815250600360006002815260200190815260200160002060008201518160000190600362000c3c92919062001e20565b5060208201518160010155905050604051806040016040528060405180606001604052806000151515158152602001600015151515815260200160001515151581525081526020016004815250600360006003815260200190815260200160002060008201518160000190600362000cb692919062001e20565b5060208201518160010155905050604051806040016040528060405180606001604052806000151515158152602001600015151515815260200160011515151581525081526020016007815250600360006004815260200190815260200160002060008201518160000190600362000d3092919062001e20565b5060208201518160010155905050604051806040016040528060405180606001604052806001151515158152602001600115151515815260200160011515151581525081526020016001815250600360006005815260200190815260200160002060008201518160000190600362000daa92919062001e20565b5060208201518160010155905050604051806040016040528060405180606001604052806001151515158152602001600115151515815260200160011515151581525081526020016007815250600360006006815260200190815260200160002060008201518160000190600362000e2492919062001e20565b506020820151816001015590505060405180604001604052806002815260200160001515815250600b60006008811062000e635762000e6262002010565b5b6010020160006008811062000e7d5762000e7c62002010565b5b600202016000820151816000015560208201518160010160006101000a81548160ff02191690831515021790555090505060405180604001604052806003815260200160001515815250600b60016008811062000edf5762000ede62002010565b5b6010020160006008811062000ef95762000ef862002010565b5b600202016000820151816000015560208201518160010160006101000a81548160ff02191690831515021790555090505060405180604001604052806004815260200160001515815250600b60026008811062000f5b5762000f5a62002010565b5b6010020160006008811062000f755762000f7462002010565b5b600202016000820151816000015560208201518160010160006101000a81548160ff02191690831515021790555090505060405180604001604052806005815260200160001515815250600b60036008811062000fd75762000fd662002010565b5b6010020160006008811062000ff15762000ff062002010565b5b600202016000820151816000015560208201518160010160006101000a81548160ff02191690831515021790555090505060405180604001604052806006815260200160001515815250600b60046008811062001053576200105262002010565b5b601002016000600881106200106d576200106c62002010565b5b600202016000820151816000015560208201518160010160006101000a81548160ff02191690831515021790555090505060405180604001604052806004815260200160001515815250600b600560088110620010cf57620010ce62002010565b5b60100201600060088110620010e957620010e862002010565b5b600202016000820151816000015560208201518160010160006101000a81548160ff02191690831515021790555090505060405180604001604052806003815260200160001515815250600b6006600881106200114b576200114a62002010565b5b6010020160006008811062001165576200116462002010565b5b600202016000820151816000015560208201518160010160006101000a81548160ff02191690831515021790555090505060405180604001604052806002815260200160001515815250600b600760088110620011c757620011c662002010565b5b60100201600060088110620011e157620011e062002010565b5b600202016000820151816000015560208201518160010160006101000a81548160ff02191690831515021790555090505060405180604001604052806001815260200160001515815250600b60006008811062001243576200124262002010565b5b601002016001600881106200125d576200125c62002010565b5b600202016000820151816000015560208201518160010160006101000a81548160ff02191690831515021790555090505060405180604001604052806001815260200160001515815250600b600160088110620012bf57620012be62002010565b5b60100201600160088110620012d957620012d862002010565b5b600202016000820151816000015560208201518160010160006101000a81548160ff02191690831515021790555090505060405180604001604052806001815260200160001515815250600b6002600881106200133b576200133a62002010565b5b6010020160016008811062001355576200135462002010565b5b600202016000820151816000015560208201518160010160006101000a81548160ff02191690831515021790555090505060405180604001604052806001815260200160001515815250600b600360088110620013b757620013b662002010565b5b60100201600160088110620013d157620013d062002010565b5b600202016000820151816000015560208201518160010160006101000a81548160ff02191690831515021790555090505060405180604001604052806001815260200160001515815250600b60046008811062001433576200143262002010565b5b601002016001600881106200144d576200144c62002010565b5b600202016000820151816000015560208201518160010160006101000a81548160ff02191690831515021790555090505060405180604001604052806001815260200160001515815250600b600560088110620014af57620014ae62002010565b5b60100201600160088110620014c957620014c862002010565b5b600202016000820151816000015560208201518160010160006101000a81548160ff02191690831515021790555090505060405180604001604052806001815260200160001515815250600b6006600881106200152b576200152a62002010565b5b6010020160016008811062001545576200154462002010565b5b600202016000820151816000015560208201518160010160006101000a81548160ff02191690831515021790555090505060405180604001604052806001815260200160001515815250600b600760088110620015a757620015a662002010565b5b60100201600160088110620015c157620015c062002010565b5b600202016000820151816000015560208201518160010160006101000a81548160ff02191690831515021790555090505060405180604001604052806001815260200160011515815250600b60006008811062001623576200162262002010565b5b601002016006600881106200163d576200163c62002010565b5b600202016000820151816000015560208201518160010160006101000a81548160ff02191690831515021790555090505060405180604001604052806001815260200160011515815250600b6001600881106200169f576200169e62002010565b5b60100201600660088110620016b957620016b862002010565b5b600202016000820151816000015560208201518160010160006101000a81548160ff02191690831515021790555090505060405180604001604052806001815260200160011515815250600b6002600881106200171b576200171a62002010565b5b6010020160066008811062001735576200173462002010565b5b600202016000820151816000015560208201518160010160006101000a81548160ff02191690831515021790555090505060405180604001604052806001815260200160011515815250600b60036008811062001797576200179662002010565b5b60100201600660088110620017b157620017b062002010565b5b600202016000820151816000015560208201518160010160006101000a81548160ff02191690831515021790555090505060405180604001604052806001815260200160011515815250600b60046008811062001813576200181262002010565b5b601002016006600881106200182d576200182c62002010565b5b600202016000820151816000015560208201518160010160006101000a81548160ff02191690831515021790555090505060405180604001604052806001815260200160011515815250600b6005600881106200188f576200188e62002010565b5b60100201600660088110620018a957620018a862002010565b5b600202016000820151816000015560208201518160010160006101000a81548160ff02191690831515021790555090505060405180604001604052806001815260200160011515815250600b6006600881106200190b576200190a62002010565b5b6010020160066008811062001925576200192462002010565b5b600202016000820151816000015560208201518160010160006101000a81548160ff02191690831515021790555090505060405180604001604052806001815260200160011515815250600b60076008811062001987576200198662002010565b5b60100201600660088110620019a157620019a062002010565b5b600202016000820151816000015560208201518160010160006101000a81548160ff02191690831515021790555090505060405180604001604052806002815260200160011515815250600b60006008811062001a035762001a0262002010565b5b6010020160076008811062001a1d5762001a1c62002010565b5b600202016000820151816000015560208201518160010160006101000a81548160ff02191690831515021790555090505060405180604001604052806003815260200160011515815250600b60016008811062001a7f5762001a7e62002010565b5b6010020160076008811062001a995762001a9862002010565b5b600202016000820151816000015560208201518160010160006101000a81548160ff02191690831515021790555090505060405180604001604052806004815260200160011515815250600b60026008811062001afb5762001afa62002010565b5b6010020160076008811062001b155762001b1462002010565b5b600202016000820151816000015560208201518160010160006101000a81548160ff02191690831515021790555090505060405180604001604052806005815260200160011515815250600b60036008811062001b775762001b7662002010565b5b6010020160076008811062001b915762001b9062002010565b5b600202016000820151816000015560208201518160010160006101000a81548160ff02191690831515021790555090505060405180604001604052806006815260200160011515815250600b60046008811062001bf35762001bf262002010565b5b6010020160076008811062001c0d5762001c0c62002010565b5b600202016000820151816000015560208201518160010160006101000a81548160ff02191690831515021790555090505060405180604001604052806004815260200160011515815250600b60056008811062001c6f5762001c6e62002010565b5b6010020160076008811062001c895762001c8862002010565b5b600202016000820151816000015560208201518160010160006101000a81548160ff02191690831515021790555090505060405180604001604052806003815260200160011515815250600b60066008811062001ceb5762001cea62002010565b5b6010020160076008811062001d055762001d0462002010565b5b600202016000820151816000015560208201518160010160006101000a81548160ff02191690831515021790555090505060405180604001604052806002815260200160011515815250600b60076008811062001d675762001d6662002010565b5b6010020160076008811062001d815762001d8062002010565b5b600202016000820151816000015560208201518160010160006101000a81548160ff02191690831515021790555090505050506200203f565b612d478062004bee83390190565b614262806200793583390190565b826002810192821562001e0d579160200282015b8281111562001e0c578251829060ff1690559160200191906001019062001dea565b5b50905062001e1c919062001ec0565b5090565b826003601f0160209004810192821562001ead5791602002820160005b8382111562001e7c57835183826101000a81548160ff021916908315150217905550926020019260010160208160000104928301926001030262001e3d565b801562001eab5782816101000a81549060ff021916905560010160208160000104928301926001030262001e7c565b505b50905062001ebc919062001ec0565b5090565b5b8082111562001edb57600081600090555060010162001ec1565b5090565b600080fd5b600073ffffffffffffffffffffffffffffffffffffffff82169050919050565b600062001f118262001ee4565b9050919050565b62001f238162001f04565b811462001f2f57600080fd5b50565b60008151905062001f438162001f18565b92915050565b6000806040838503121562001f635762001f6262001edf565b5b600062001f738582860162001f32565b925050602062001f868582860162001f32565b9150509250929050565b600062001f9d8262001ee4565b9050919050565b62001faf8162001f90565b82525050565b600060208201905062001fcc600083018462001fa4565b92915050565b62001fdd8162001f04565b82525050565b600060408201905062001ffa600083018562001fd2565b62002009602083018462001fa4565b9392505050565b7f4e487b7100000000000000000000000000000000000000000000000000000000600052603260045260246000fd5b612b9f806200204f6000396000f3fe6080604052600436106100f75760003560e01c8063b35d11bf1161008a578063dbdfbae711610059578063dbdfbae71461053b578063dfbf53ae14610566578063fd5fcef114610591578063fe9ba8ec146105bc5761026c565b8063b35d11bf14610447578063b99e131b14610484578063bbc2b0ce146104c1578063d0d6defb146104fe5761026c565b806382b1ad50116100c657806382b1ad501461036557806387529f0f146103905780638f7daf0f146103cd578063915b740d1461040a5761026c565b80631feeef9814610271578063241c5912146102ae5780632f553dec146102eb5780637ac8802e146103285761026c565b3661026c5760096000600115151515815260200190815260200160002060009054906101000a900473ffffffffffffffffffffffffffffffffffffffff1673ffffffffffffffffffffffffffffffffffffffff163373ffffffffffffffffffffffffffffffffffffffff1614806101d05750600960008015151515815260200190815260200160002060009054906101000a900473ffffffffffffffffffffffffffffffffffffffff1673ffffffffffffffffffffffffffffffffffffffff163373ffffffffffffffffffffffffffffffffffffffff16145b61020f576040517f08c379a000000000000000000000000000000000000000000000000000000000815260040161020690611db4565b60405180910390fd5b34600a60003373ffffffffffffffffffffffffffffffffffffffff1673ffffffffffffffffffffffffffffffffffffffff16815260200190815260200160002081905550346000808282546102649190611e0d565b925050819055005b600080fd5b34801561027d57600080fd5b5061029860048036038101906102939190611e9e565b6105f9565b6040516102a59190611f37565b60405180910390f35b3480156102ba57600080fd5b506102d560048036038101906102d09190611f7e565b610667565b6040516102e29190611fba565b60405180910390f35b3480156102f757600080fd5b50610312600480360381019061030d919061211c565b610687565b60405161031f9190611fba565b60405180910390f35b34801561033457600080fd5b5061034f600480360381019061034a919061215c565b6113b6565b60405161035c9190611fba565b60405180910390f35b34801561037157600080fd5b5061037a6113e5565b60405161038791906121ab565b60405180910390f35b34801561039c57600080fd5b506103b760048036038101906103b29190612224565b6113eb565b6040516103c49190611fba565b60405180910390f35b3480156103d957600080fd5b506103f460048036038101906103ef9190612251565b611441565b6040516104019190612349565b60405180910390f35b34801561041657600080fd5b50610431600480360381019061042c9190611f7e565b6114e2565b60405161043e9190612400565b60405180910390f35b34801561045357600080fd5b5061046e60048036038101906104699190612224565b611544565b60405161047b91906121ab565b60405180910390f35b34801561049057600080fd5b506104ab60048036038101906104a69190611f7e565b61155c565b6040516104b8919061242a565b60405180910390f35b3480156104cd57600080fd5b506104e860048036038101906104e39190611f7e565b61159d565b6040516104f59190611fba565b60405180910390f35b34801561050a57600080fd5b5061052560048036038101906105209190611f7e565b6115bd565b604051610532919061242a565b60405180910390f35b34801561054757600080fd5b506105506115f0565b60405161055d91906124a4565b60405180910390f35b34801561057257600080fd5b5061057b611616565b604051610588919061242a565b60405180910390f35b34801561059d57600080fd5b506105a661163c565b6040516105b391906124e0565b60405180910390f35b3480156105c857600080fd5b506105e360048036038101906105de9190611f7e565b611662565b6040516105f09190611fba565b60405180910390f35b610601611ca0565b600b8360088110610615576106146124fb565b5b60100201826008811061062b5761062a6124fb565b5b60020201604051806040016040529081600082015481526020016001820160009054906101000a900460ff161515151581525050905092915050565b60076020528060005260406000206000915054906101000a900460ff1681565b600060096000600115151515815260200190815260200160002060009054906101000a900473ffffffffffffffffffffffffffffffffffffffff1673ffffffffffffffffffffffffffffffffffffffff163373ffffffffffffffffffffffffffffffffffffffff16148061075d5750600960008015151515815260200190815260200160002060009054906101000a900473ffffffffffffffffffffffffffffffffffffffff1673ffffffffffffffffffffffffffffffffffffffff163373ffffffffffffffffffffffffffffffffffffffff16145b61079c576040517f08c379a000000000000000000000000000000000000000000000000000000000815260040161079390611db4565b60405180910390fd5b8282608b60009054906101000a900473ffffffffffffffffffffffffffffffffffffffff1673ffffffffffffffffffffffffffffffffffffffff16636d5725008383600860003373ffffffffffffffffffffffffffffffffffffffff1673ffffffffffffffffffffffffffffffffffffffff16815260200190815260200160002060009054906101000a900460ff1660036000600b89600060028110610845576108446124fb565b5b60200201516008811061085b5761085a6124fb565b5b6010020189600160028110610873576108726124fb565b5b602002015160088110610889576108886124fb565b5b60020201600001548152602001908152602001600020600101546040518563ffffffff1660e01b81526004016108c2949392919061252a565b6020604051808303816000875af11580156108e1573d6000803e3d6000fd5b505050506040513d601f19601f820116820180604052508101906109059190612584565b610944576040517f08c379a000000000000000000000000000000000000000000000000000000000815260040161093b90611db4565b60405180910390fd5b8484600860003373ffffffffffffffffffffffffffffffffffffffff1673ffffffffffffffffffffffffffffffffffffffff16815260200190815260200160002060009054906101000a900460ff168015610a0057506001600b836000600281106109b2576109b16124fb565b5b6020020151600881106109c8576109c76124fb565b5b60100201836001600281106109e0576109df6124fb565b5b6020020151600881106109f6576109f56124fb565b5b6002020160000154145b8015610a245750600081600160028110610a1d57610a1c6124fb565b5b6020020151145b15610a95576006600b83600060028110610a4157610a406124fb565b5b602002015160088110610a5757610a566124fb565b5b6010020183600160028110610a6f57610a6e6124fb565b5b602002015160088110610a8557610a846124fb565b5b6002020160000181905550610be2565b600860003373ffffffffffffffffffffffffffffffffffffffff1673ffffffffffffffffffffffffffffffffffffffff16815260200190815260200160002060009054906101000a900460ff16158015610b5057506001600b83600060028110610b0257610b016124fb565b5b602002015160088110610b1857610b176124fb565b5b6010020183600160028110610b3057610b2f6124fb565b5b602002015160088110610b4657610b456124fb565b5b6002020160000154145b8015610b745750600781600160028110610b6d57610b6c6124fb565b5b6020020151145b15610be1576006600b83600060028110610b9157610b906124fb565b5b602002015160088110610ba757610ba66124fb565b5b6010020183600160028110610bbf57610bbe6124fb565b5b602002015160088110610bd557610bd46124fb565b5b60020201600001819055505b5b6005600b88600060028110610bfa57610bf96124fb565b5b602002015160088110610c1057610c0f6124fb565b5b6010020188600160028110610c2857610c276124fb565b5b602002015160088110610c3e57610c3d6124fb565b5b600202016000015403610c5557610c5486611690565b5b600b87600060028110610c6b57610c6a6124fb565b5b602002015160088110610c8157610c806124fb565b5b6010020187600160028110610c9957610c986124fb565b5b602002015160088110610caf57610cae6124fb565b5b60020201600b87600060028110610cc957610cc86124fb565b5b602002015160088110610cdf57610cde6124fb565b5b6010020187600160028110610cf757610cf66124fb565b5b602002015160088110610d0d57610d0c6124fb565b5b60020201600082015481600001556001820160009054906101000a900460ff168160010160006101000a81548160ff02191690831515021790555090505060405180604001604052806000815260200160001515815250600b88600060028110610d7a57610d796124fb565b5b602002015160088110610d9057610d8f6124fb565b5b6010020188600160028110610da857610da76124fb565b5b602002015160088110610dbe57610dbd6124fb565b5b600202016000820151816000015560208201518160010160006101000a81548160ff0219169083151502179055509050506000608c60009054906101000a900473ffffffffffffffffffffffffffffffffffffffff1673ffffffffffffffffffffffffffffffffffffffff166338afef0b600860003373ffffffffffffffffffffffffffffffffffffffff1673ffffffffffffffffffffffffffffffffffffffff16815260200190815260200160002060009054906101000a900460ff16156040518263ffffffff1660e01b8152600401610e999190611fba565b61010060405180830381865afa158015610eb7573d6000803e3d6000fd5b505050506040513d601f19601f82011682018060405250810190610edb9190612662565b9050600080600090505b6008811015610f2157610f0e838260088110610f0457610f036124fb565b5b6020020151611782565b8080610f1990612690565b915050610ee5565b50610f606040518060400160405280601a81526020017f2d2d2d2d2d2d2d2d2d2d2d2d2d2d2d2d2d2d2d2d2d2d2d2d2d2d00000000000081525061181b565b81600060088110610f7457610f736124fb565b5b60200201518015610f9a575081600160088110610f9457610f936124fb565b5b60200201515b8015610fbb575081600260088110610fb557610fb46124fb565b5b60200201515b8015610fdc575081600360088110610fd657610fd56124fb565b5b60200201515b8015610ffd575081600460088110610ff757610ff66124fb565b5b60200201515b801561101e575081600560088110611018576110176124fb565b5b60200201515b801561103f575081600660088110611039576110386124fb565b5b60200201515b801561106057508160076008811061105a576110596124fb565b5b60200201515b1561106e5760019050611073565b600090505b6000608c60009054906101000a900473ffffffffffffffffffffffffffffffffffffffff1673ffffffffffffffffffffffffffffffffffffffff1663abd9d350600860003373ffffffffffffffffffffffffffffffffffffffff1673ffffffffffffffffffffffffffffffffffffffff16815260200190815260200160002060009054906101000a900460ff1615846040518363ffffffff1660e01b815260040161111f9291906126d8565b602060405180830381865afa15801561113c573d6000803e3d6000fd5b505050506040513d601f19601f820116820180604052508101906111609190612584565b90506111a06040518060400160405280601781526020017f212121212121212121212121212121212121212121212100000000000000000081525061181b565b6111a981611782565b6000608c60009054906101000a900473ffffffffffffffffffffffffffffffffffffffff1673ffffffffffffffffffffffffffffffffffffffff16632f1d807460046000600860003373ffffffffffffffffffffffffffffffffffffffff1673ffffffffffffffffffffffffffffffffffffffff16815260200190815260200160002060009054906101000a900460ff16151515158152602001908152602001600020600860003373ffffffffffffffffffffffffffffffffffffffff1673ffffffffffffffffffffffffffffffffffffffff16815260200190815260200160002060009054906101000a900460ff166040518363ffffffff1660e01b81526004016112b69291906127c5565b61032060405180830381865afa1580156112d4573d6000803e3d6000fd5b505050506040513d601f19601f820116820180604052508101906112f89190612934565b600001519050801561133f576040517f08c379a0000000000000000000000000000000000000000000000000000000008152600401611336906129ae565b60405180910390fd5b6113966000600860003373ffffffffffffffffffffffffffffffffffffffff1673ffffffffffffffffffffffffffffffffffffffff16815260200190815260200160002060009054906101000a900460ff166118b4565b61139f8a6118e7565b6113a88b611aa0565b505050505050505092915050565b60066020528160005260406000206020528060005260406000206000915091509054906101000a900460ff1681565b60005481565b6000600860008373ffffffffffffffffffffffffffffffffffffffff1673ffffffffffffffffffffffffffffffffffffffff16815260200190815260200160002060009054906101000a900460ff169050919050565b611449611cbc565b60036000838152602001908152602001600020604051806040016040529081600082016003806020026040519081016040528092919082600380156114c8576020028201916000905b82829054906101000a900460ff161515815260200190600101906020826000010492830192600103820291508084116114925790505b505050505081526020016001820154815250509050919050565b6114ea611cdc565b6004600083151515158152602001908152602001600020600280602002604051908101604052809291908260028015611538576020028201915b815481526020019060010190808311611524575b50505050509050919050565b600a6020528060005260406000206000915090505481565b6000600960008315151515815260200190815260200160002060009054906101000a900473ffffffffffffffffffffffffffffffffffffffff169050919050565b60056020528060005260406000206000915054906101000a900460ff1681565b60096020528060005260406000206000915054906101000a900473ffffffffffffffffffffffffffffffffffffffff1681565b608c60009054906101000a900473ffffffffffffffffffffffffffffffffffffffff1681565b600260009054906101000a900473ffffffffffffffffffffffffffffffffffffffff1681565b608b60009054906101000a900473ffffffffffffffffffffffffffffffffffffffff1681565b6000600760008315151515815260200190815260200160002060009054906101000a900460ff169050919050565b8060046000600860003373ffffffffffffffffffffffffffffffffffffffff1673ffffffffffffffffffffffffffffffffffffffff16815260200190815260200160002060009054906101000a900460ff16151515158152602001908152602001600020906002611702929190611cfe565b50600060056000600860003373ffffffffffffffffffffffffffffffffffffffff1673ffffffffffffffffffffffffffffffffffffffff16815260200190815260200160002060009054906101000a900460ff1615151515815260200190815260200160002060006101000a81548160ff02191690831515021790555050565b611818816040516024016117969190611fba565b6040516020818303038152906040527f32458eed000000000000000000000000000000000000000000000000000000007bffffffffffffffffffffffffffffffffffffffffffffffffffffffff19166020820180517bffffffffffffffffffffffffffffffffffffffffffffffffffffffff8381831617835250505050611c77565b50565b6118b18160405160240161182f9190612a45565b6040516020818303038152906040527f41304fac000000000000000000000000000000000000000000000000000000007bffffffffffffffffffffffffffffffffffffffffffffffffffffffff19166020820180517bffffffffffffffffffffffffffffffffffffffffffffffffffffffff8381831617835250505050611c77565b50565b81600760008315151515815260200190815260200160002060006101000a81548160ff0219169083151502179055505050565b6000608c60009054906101000a900473ffffffffffffffffffffffffffffffffffffffff1673ffffffffffffffffffffffffffffffffffffffff166325f125008360046000600860003373ffffffffffffffffffffffffffffffffffffffff1673ffffffffffffffffffffffffffffffffffffffff16815260200190815260200160002060009054906101000a900460ff1615151515158152602001908152602001600020600860003373ffffffffffffffffffffffffffffffffffffffff1673ffffffffffffffffffffffffffffffffffffffff16815260200190815260200160002060009054906101000a900460ff166040518463ffffffff1660e01b81526004016119f793929190612a67565b606060405180830381865afa158015611a14573d6000803e3d6000fd5b505050506040513d601f19601f82011682018060405250810190611a389190612b29565b50809150508015611a9c57611a9b6001600860003373ffffffffffffffffffffffffffffffffffffffff1673ffffffffffffffffffffffffffffffffffffffff16815260200190815260200160002060009054906101000a900460ff16156118b4565b5b5050565b6002600b82600060028110611ab857611ab76124fb565b5b602002015160088110611ace57611acd6124fb565b5b6010020182600160028110611ae657611ae56124fb565b5b602002015160088110611afc57611afb6124fb565b5b600202016000015403611c7457600081600060028110611b1f57611b1e6124fb565b5b602002015103611bbf57600060066000600860003373ffffffffffffffffffffffffffffffffffffffff1673ffffffffffffffffffffffffffffffffffffffff16815260200190815260200160002060009054906101000a900460ff1615151515815260200190815260200160002060008015151515815260200190815260200160002060006101000a81548160ff021916908315150217905550611c73565b600781600060028110611bd557611bd46124fb565b5b602002015103611c7257600060066000600860003373ffffffffffffffffffffffffffffffffffffffff1673ffffffffffffffffffffffffffffffffffffffff16815260200190815260200160002060009054906101000a900460ff161515151581526020019081526020016000206000600115151515815260200190815260200160002060006101000a81548160ff0219169083151502179055505b5b5b50565b60008151905060006a636f6e736f6c652e6c6f679050602083016000808483855afa5050505050565b6040518060400160405280600081526020016000151581525090565b6040518060400160405280611ccf611d3e565b8152602001600081525090565b6040518060400160405280600290602082028036833780820191505090505090565b8260028101928215611d2d579160200282015b82811115611d2c578251825591602001919060010190611d11565b5b509050611d3a9190611d60565b5090565b6040518060600160405280600390602082028036833780820191505090505090565b5b80821115611d79576000816000905550600101611d61565b5090565b600082825260208201905092915050565b50565b6000611d9e600083611d7d565b9150611da982611d8e565b600082019050919050565b60006020820190508181036000830152611dcd81611d91565b9050919050565b6000819050919050565b7f4e487b7100000000000000000000000000000000000000000000000000000000600052601160045260246000fd5b6000611e1882611dd4565b9150611e2383611dd4565b9250827fffffffffffffffffffffffffffffffffffffffffffffffffffffffffffffffff03821115611e5857611e57611dde565b5b828201905092915050565b6000604051905090565b600080fd5b611e7b81611dd4565b8114611e8657600080fd5b50565b600081359050611e9881611e72565b92915050565b60008060408385031215611eb557611eb4611e6d565b5b6000611ec385828601611e89565b9250506020611ed485828601611e89565b9150509250929050565b611ee781611dd4565b82525050565b60008115159050919050565b611f0281611eed565b82525050565b604082016000820151611f1e6000850182611ede565b506020820151611f316020850182611ef9565b50505050565b6000604082019050611f4c6000830184611f08565b92915050565b611f5b81611eed565b8114611f6657600080fd5b50565b600081359050611f7881611f52565b92915050565b600060208284031215611f9457611f93611e6d565b5b6000611fa284828501611f69565b91505092915050565b611fb481611eed565b82525050565b6000602082019050611fcf6000830184611fab565b92915050565b600080fd5b6000601f19601f8301169050919050565b7f4e487b7100000000000000000000000000000000000000000000000000000000600052604160045260246000fd5b61202382611fda565b810181811067ffffffffffffffff8211171561204257612041611feb565b5b80604052505050565b6000612055611e63565b9050612061828261201a565b919050565b600067ffffffffffffffff82111561208157612080611feb565b5b602082029050919050565b600080fd5b60006120a461209f84612066565b61204b565b905080602084028301858111156120be576120bd61208c565b5b835b818110156120e757806120d38882611e89565b8452602084019350506020810190506120c0565b5050509392505050565b600082601f83011261210657612105611fd5565b5b6002612113848285612091565b91505092915050565b6000806080838503121561213357612132611e6d565b5b6000612141858286016120f1565b9250506040612152858286016120f1565b9150509250929050565b6000806040838503121561217357612172611e6d565b5b600061218185828601611f69565b925050602061219285828601611f69565b9150509250929050565b6121a581611dd4565b82525050565b60006020820190506121c0600083018461219c565b92915050565b600073ffffffffffffffffffffffffffffffffffffffff82169050919050565b60006121f1826121c6565b9050919050565b612201816121e6565b811461220c57600080fd5b50565b60008135905061221e816121f8565b92915050565b60006020828403121561223a57612239611e6d565b5b60006122488482850161220f565b91505092915050565b60006020828403121561226757612266611e6d565b5b600061227584828501611e89565b91505092915050565b600060039050919050565b600081905092915050565b6000819050919050565b60006122aa8383611ef9565b60208301905092915050565b6000602082019050919050565b6122cc8161227e565b6122d68184612289565b92506122e182612294565b8060005b838110156123125781516122f9878261229e565b9650612304836122b6565b9250506001810190506122e5565b505050505050565b60808201600082015161233060008501826122c3565b5060208201516123436060850182611ede565b50505050565b600060808201905061235e600083018461231a565b92915050565b600060029050919050565b600081905092915050565b6000819050919050565b60006123908383611ede565b60208301905092915050565b6000602082019050919050565b6123b281612364565b6123bc818461236f565b92506123c78261237a565b8060005b838110156123f85781516123df8782612384565b96506123ea8361239c565b9250506001810190506123cb565b505050505050565b600060408201905061241560008301846123a9565b92915050565b612424816121e6565b82525050565b600060208201905061243f600083018461241b565b92915050565b6000819050919050565b600061246a612465612460846121c6565b612445565b6121c6565b9050919050565b600061247c8261244f565b9050919050565b600061248e82612471565b9050919050565b61249e81612483565b82525050565b60006020820190506124b96000830184612495565b92915050565b60006124ca82612471565b9050919050565b6124da816124bf565b82525050565b60006020820190506124f560008301846124d1565b92915050565b7f4e487b7100000000000000000000000000000000000000000000000000000000600052603260045260246000fd5b600060c08201905061253f60008301876123a9565b61254c60408301866123a9565b6125596080830185611fab565b61256660a083018461219c565b95945050505050565b60008151905061257e81611f52565b92915050565b60006020828403121561259a57612599611e6d565b5b60006125a88482850161256f565b91505092915050565b600067ffffffffffffffff8211156125cc576125cb611feb565b5b602082029050919050565b60006125ea6125e5846125b1565b61204b565b905080602084028301858111156126045761260361208c565b5b835b8181101561262d5780612619888261256f565b845260208401935050602081019050612606565b5050509392505050565b600082601f83011261264c5761264b611fd5565b5b60086126598482856125d7565b91505092915050565b6000610100828403121561267957612678611e6d565b5b600061268784828501612637565b91505092915050565b600061269b82611dd4565b91507fffffffffffffffffffffffffffffffffffffffffffffffffffffffffffffffff82036126cd576126cc611dde565b5b600182019050919050565b60006040820190506126ed6000830185611fab565b6126fa6020830184611fab565b9392505050565b600060029050919050565b6000819050919050565b60008160001c9050919050565b6000819050919050565b600061274061273b83612716565b612723565b9050919050565b6000612753825461272d565b9050919050565b6000600182019050919050565b61277081612701565b61277a818461236f565b92506127858261270c565b8060005b838110156127bd5761279a82612747565b6127a48782612384565b96506127af8361275a565b925050600181019050612789565b505050505050565b60006060820190506127da6000830185612767565b6127e76040830184611fab565b9392505050565b600080fd5b600067ffffffffffffffff82111561280e5761280d611feb565b5b602082029050919050565b60008151905061282881611e72565b92915050565b600061284161283c846127f3565b61204b565b9050806020840283018581111561285b5761285a61208c565b5b835b8181101561288457806128708882612819565b84526020840193505060208101905061285d565b5050509392505050565b600082601f8301126128a3576128a2611fd5565b5b60086128b084828561282e565b91505092915050565b600061032082840312156128d0576128cf6127ee565b5b6128da608061204b565b905060006128ea8482850161256f565b60008301525060206128fe84828501612637565b6020830152506101206129138482850161288e565b6040830152506102206129288482850161288e565b60608301525092915050565b6000610320828403121561294b5761294a611e6d565b5b6000612959848285016128b9565b91505092915050565b7f6b696e676f6e6576696c626f7800000000000000000000000000000000000000600082015250565b6000612998600d83611d7d565b91506129a382612962565b602082019050919050565b600060208201905081810360008301526129c78161298b565b9050919050565b600081519050919050565b60005b838110156129f75780820151818401526020810190506129dc565b83811115612a06576000848401525b50505050565b6000612a17826129ce565b612a218185611d7d565b9350612a318185602086016129d9565b612a3a81611fda565b840191505092915050565b60006020820190508181036000830152612a5f8184612a0c565b905092915050565b600060a082019050612a7c60008301866123a9565b612a896040830185612767565b612a966080830184611fab565b949350505050565b6000612ab1612aac84612066565b61204b565b90508060208402830185811115612acb57612aca61208c565b5b835b81811015612af45780612ae08882612819565b845260208401935050602081019050612acd565b5050509392505050565b600082601f830112612b1357612b12611fd5565b5b6002612b20848285612a9e565b91505092915050565b60008060608385031215612b4057612b3f611e6d565b5b6000612b4e8582860161256f565b9250506020612b5f85828601612afe565b915050925092905056fea264697066735822122013cea4e1fe8fe817adb0ffbeb0b69cca68368fe57f1f762742ef133d43767a6064736f6c634300080e003360806040523480156200001157600080fd5b5060405162002d4738038062002d478339818101604052810190620000379190620000e9565b80600360006101000a81548173ffffffffffffffffffffffffffffffffffffffff021916908373ffffffffffffffffffffffffffffffffffffffff160217905550506200011b565b600080fd5b600073ffffffffffffffffffffffffffffffffffffffff82169050919050565b6000620000b18262000084565b9050919050565b620000c381620000a4565b8114620000cf57600080fd5b50565b600081519050620000e381620000b8565b92915050565b6000602082840312156200010257620001016200007f565b5b60006200011284828501620000d2565b91505092915050565b612c1c806200012b6000396000f3fe608060405234801561001057600080fd5b506004361061009e5760003560e01c80637ae2b5c7116100665780637ae2b5c714610182578063ac411ce6146101b2578063bac35119146101e2578063c03c300314610212578063ee0b07e0146102425761009e565b80631b5ac4b5146100a35780636c1b5443146100d35780636d5433e6146100f15780636d5725001461012157806371cc5ad114610151575b600080fd5b6100bd60048036038101906100b891906121b7565b610272565b6040516100ca91906121f3565b60405180910390f35b6100db610296565b6040516100e89190612227565b60405180910390f35b61010b6004803603810190610106919061226e565b61029c565b6040516101189190612227565b60405180910390f35b61013b6004803603810190610136919061242d565b6102b7565b60405161014891906124a3565b60405180910390f35b61016b600480360381019061016691906124be565b61120a565b6040516101799291906125a9565b60405180910390f35b61019c6004803603810190610197919061226e565b61149c565b6040516101a99190612227565b60405180910390f35b6101cc60048036038101906101c791906124be565b6114b7565b6040516101d991906124a3565b60405180910390f35b6101fc60048036038101906101f791906121b7565b6120ca565b60405161020991906121f3565b60405180910390f35b61022c600480360381019061022791906121b7565b6120e6565b60405161023991906121f3565b60405180910390f35b61025c600480360381019061025791906121b7565b612135565b60405161026991906121f3565b60405180910390f35b60008082121561028d578161028690612601565b9050610291565b8190505b919050565b60005481565b60008183106102ad578290506102b1565b8190505b92915050565b600084848484811515600360009054906101000a900473ffffffffffffffffffffffffffffffffffffffff1673ffffffffffffffffffffffffffffffffffffffff16631feeef988660006002811061031257610311612649565b5b60200201518760016002811061032b5761032a612649565b5b60200201516040518363ffffffff1660e01b815260040161034d929190612678565b6040805180830381865afa158015610369573d6000803e3d6000fd5b505050506040513d601f19601f8201168201806040525081019061038d9190612720565b602001511515146103d3576040517f08c379a00000000000000000000000000000000000000000000000000000000081526004016103ca90612784565b60405180910390fd5b826000600281106103e7576103e6612649565b5b602002015184600060028110610400576103ff612649565b5b602002015114158061044257508260016002811061042157610420612649565b5b60200201518460016002811061043a57610439612649565b5b602002015114155b610481576040517f08c379a000000000000000000000000000000000000000000000000000000000815260040161047890612784565b60405180910390fd5b6000600360009054906101000a900473ffffffffffffffffffffffffffffffffffffffff1673ffffffffffffffffffffffffffffffffffffffff16631feeef98856000600281106104d5576104d4612649565b5b6020020151866001600281106104ee576104ed612649565b5b60200201516040518363ffffffff1660e01b8152600401610510929190612678565b6040805180830381865afa15801561052c573d6000803e3d6000fd5b505050506040513d601f19601f820116820180604052508101906105509190612720565b600001511461067057811515600360009054906101000a900473ffffffffffffffffffffffffffffffffffffffff1673ffffffffffffffffffffffffffffffffffffffff16631feeef98856000600281106105ae576105ad612649565b5b6020020151866001600281106105c7576105c6612649565b5b60200201516040518363ffffffff1660e01b81526004016105e9929190612678565b6040805180830381865afa158015610605573d6000803e3d6000fd5b505050506040513d601f19601f820116820180604052508101906106299190612720565b6020015115150361066f576040517f08c379a000000000000000000000000000000000000000000000000000000000815260040161066690612784565b60405180910390fd5b5b8360006002811061068457610683612649565b5b60200201518360006002811061069d5761069c612649565b5b60200201516106ac91906127a4565b600181905550836001600281106106c6576106c5612649565b5b6020020151836001600281106106df576106de612649565b5b60200201516106ee91906127a4565b600281905550600061070085856114b7565b905080610742576040517f08c379a000000000000000000000000000000000000000000000000000000000815260040161073990612784565b60405180910390fd5b6005600360009054906101000a900473ffffffffffffffffffffffffffffffffffffffff1673ffffffffffffffffffffffffffffffffffffffff16631feeef988760006002811061079657610795612649565b5b6020020151886001600281106107af576107ae612649565b5b60200201516040518363ffffffff1660e01b81526004016107d1929190612678565b6040805180830381865afa1580156107ed573d6000803e3d6000fd5b505050506040513d601f19601f820116820180604052508101906108119190612720565b6000015103610ddc576000856001600281106108305761082f612649565b5b602002015114801561085a575060048560006002811061085357610852612649565b5b6020020151145b801561090857506005600360009054906101000a900473ffffffffffffffffffffffffffffffffffffffff1673ffffffffffffffffffffffffffffffffffffffff16631feeef98600460006040518363ffffffff1660e01b81526004016108c29291906128b8565b6040805180830381865afa1580156108de573d6000803e3d6000fd5b505050506040513d601f19601f820116820180604052508101906109029190612720565b60000151145b8015610af2575060008460016002811061092557610924612649565b5b602002015114801561094f575060068460006002811061094857610947612649565b5b6020020151145b80156109fd57506002600360009054906101000a900473ffffffffffffffffffffffffffffffffffffffff1673ffffffffffffffffffffffffffffffffffffffff16631feeef98600760006040518363ffffffff1660e01b81526004016109b792919061291c565b6040805180830381865afa1580156109d3573d6000803e3d6000fd5b505050506040513d601f19601f820116820180604052508101906109f79190612720565b60000151145b80610af15750600084600160028110610a1957610a18612649565b5b6020020151148015610a435750600284600060028110610a3c57610a3b612649565b5b6020020151145b8015610af057506002600360009054906101000a900473ffffffffffffffffffffffffffffffffffffffff1673ffffffffffffffffffffffffffffffffffffffff16631feeef986000806040518363ffffffff1660e01b8152600401610aaa929190612945565b6040805180830381865afa158015610ac6573d6000803e3d6000fd5b505050506040513d601f19601f82011682018060405250810190610aea9190612720565b60000151145b5b5b80610dd15750600785600160028110610b0e57610b0d612649565b5b6020020151148015610b385750600385600060028110610b3157610b30612649565b5b6020020151145b8015610be657506005600360009054906101000a900473ffffffffffffffffffffffffffffffffffffffff1673ffffffffffffffffffffffffffffffffffffffff16631feeef98600360076040518363ffffffff1660e01b8152600401610ba09291906129a9565b6040805180830381865afa158015610bbc573d6000803e3d6000fd5b505050506040513d601f19601f82011682018060405250810190610be09190612720565b60000151145b8015610dd05750600184600160028110610c0357610c02612649565b5b6020020151148015610c2d5750600784600060028110610c2657610c25612649565b5b6020020151145b8015610cda57506002600360009054906101000a900473ffffffffffffffffffffffffffffffffffffffff1673ffffffffffffffffffffffffffffffffffffffff16631feeef986007806040518363ffffffff1660e01b8152600401610c949291906129d2565b6040805180830381865afa158015610cb0573d6000803e3d6000fd5b505050506040513d601f19601f82011682018060405250810190610cd49190612720565b60000151145b80610dcf5750600584600160028110610cf657610cf5612649565b5b6020020151148015610d205750600284600060028110610d1957610d18612649565b5b6020020151145b8015610dce57506002600360009054906101000a900473ffffffffffffffffffffffffffffffffffffffff1673ffffffffffffffffffffffffffffffffffffffff16631feeef98600060076040518363ffffffff1660e01b8152600401610d889291906129fb565b6040805180830381865afa158015610da4573d6000803e3d6000fd5b505050506040513d601f19601f82011682018060405250810190610dc89190612720565b60000151145b5b5b5b15610ddb57600291505b5b60038060009054906101000a900473ffffffffffffffffffffffffffffffffffffffff1673ffffffffffffffffffffffffffffffffffffffff16631feeef9887600060028110610e2f57610e2e612649565b5b602002015188600160028110610e4857610e47612649565b5b60200201516040518363ffffffff1660e01b8152600401610e6a929190612678565b6040805180830381865afa158015610e86573d6000803e3d6000fd5b505050506040513d601f19601f82011682018060405250810190610eaa9190612720565b60000151146111f9576001600360009054906101000a900473ffffffffffffffffffffffffffffffffffffffff1673ffffffffffffffffffffffffffffffffffffffff16631feeef9887600060028110610f0757610f06612649565b5b602002015188600160028110610f2057610f1f612649565b5b60200201516040518363ffffffff1660e01b8152600401610f42929190612678565b6040805180830381865afa158015610f5e573d6000803e3d6000fd5b505050506040513d601f19601f82011682018060405250810190610f829190612720565b600001510361113657600083156110345784600160028110610fa757610fa6612649565b5b602002015186600160028110610fc057610fbf612649565b5b602002015111611005576040517f08c379a0000000000000000000000000000000000000000000000000000000008152600401610ffc90612784565b60405180910390fd5b60068660016002811061101b5761101a612649565b5b60200201510361102e5760019050611033565b600090505b5b836110da578460016002811061104d5761104c612649565b5b60200201518660016002811061106657611065612649565b5b6020020151106110ab576040517f08c379a00000000000000000000000000000000000000000000000000000000081526004016110a290612784565b60405180910390fd5b6001866001600281106110c1576110c0612649565b5b6020020151036110d457600190506110d9565b600090505b5b6002611120876001600281106110f3576110f2612649565b5b60200201518760016002811061110c5761110b612649565b5b602002015161111b91906127a4565b610272565b14801561112a5750805b1561113457600292505b505b611141600154610272565b821015801561115a5750611156600254610272565b8210155b611199576040517f08c379a000000000000000000000000000000000000000000000000000000000815260040161119090612784565b60405180910390fd5b60006111a3612150565b6111ad878761120a565b809250819350505081156111f6576040517f08c379a00000000000000000000000000000000000000000000000000000000081526004016111ed90612784565b60405180910390fd5b50505b600195505050505050949350505050565b6000611214612150565b60008460006002811061122a57611229612649565b5b60200201518460006002811061124357611242612649565b5b602002015161125291906127a4565b905060008560016002811061126a57611269612649565b5b60200201518560016002811061128357611282612649565b5b602002015161129291906127a4565b9050600061129f836120e6565b905060006112ac836120e6565b90506000886000600281106112c4576112c3612649565b5b602002015190506000896001600281106112e1576112e0612649565b5b60200201519050600197505b8860006002811061130157611300612649565b5b60200201518214158061132c57508860016002811061132357611322612649565b5b60200201518114155b1561148f5761134584836113409190612a24565b6120ca565b915061135b83826113569190612a24565b6120ca565b90506000600360009054906101000a900473ffffffffffffffffffffffffffffffffffffffff1673ffffffffffffffffffffffffffffffffffffffff16631feeef9884846040518363ffffffff1660e01b81526004016113bc929190612678565b6040805180830381865afa1580156113d8573d6000803e3d6000fd5b505050506040513d601f19601f820116820180604052508101906113fc9190612720565b600001511415801561144a5750818960006002811061141e5761141d612649565b5b6020020151141580156114495750808960016002811061144157611440612649565b5b602002015114155b5b1561146f5760019750604051806040016040528083815260200182815250965061148f565b6000975060405180604001604052808381526020018281525096506112ed565b5050505050509250929050565b60008183116114ad578290506114b1565b8190505b92915050565b600080836000600281106114ce576114cd612649565b5b6020020151836000600281106114e7576114e6612649565b5b60200201516114f691906127a4565b905060008460016002811061150e5761150d612649565b5b60200201518460016002811061152757611526612649565b5b602002015161153691906127a4565b9050600082141580156115495750600081145b156116ed57600360009054906101000a900473ffffffffffffffffffffffffffffffffffffffff1673ffffffffffffffffffffffffffffffffffffffff16638f7daf0f600360009054906101000a900473ffffffffffffffffffffffffffffffffffffffff1673ffffffffffffffffffffffffffffffffffffffff16631feeef98886000600281106115de576115dd612649565b5b6020020151896001600281106115f7576115f6612649565b5b60200201516040518363ffffffff1660e01b8152600401611619929190612678565b6040805180830381865afa158015611635573d6000803e3d6000fd5b505050506040513d601f19601f820116820180604052508101906116599190612720565b600001516040518263ffffffff1660e01b81526004016116799190612227565b608060405180830381865afa158015611696573d6000803e3d6000fd5b505050506040513d601f19601f820116820180604052508101906116ba9190612bb9565b600001516000600381106116d1576116d0612649565b5b60200201516116e357600092506116e8565b600192505b6120c2565b600081141580156116fe5750600082145b156118a257600360009054906101000a900473ffffffffffffffffffffffffffffffffffffffff1673ffffffffffffffffffffffffffffffffffffffff16638f7daf0f600360009054906101000a900473ffffffffffffffffffffffffffffffffffffffff1673ffffffffffffffffffffffffffffffffffffffff16631feeef988860006002811061179357611792612649565b5b6020020151896001600281106117ac576117ab612649565b5b60200201516040518363ffffffff1660e01b81526004016117ce929190612678565b6040805180830381865afa1580156117ea573d6000803e3d6000fd5b505050506040513d601f19601f8201168201806040525081019061180e9190612720565b600001516040518263ffffffff1660e01b815260040161182e9190612227565b608060405180830381865afa15801561184b573d6000803e3d6000fd5b505050506040513d601f19601f8201168201806040525081019061186f9190612bb9565b6000015160016003811061188657611885612649565b5b6020020151611898576000925061189d565b600192505b6120c1565b600082141580156118c257506118b781610272565b6118c083610272565b145b15611f84576001600360009054906101000a900473ffffffffffffffffffffffffffffffffffffffff1673ffffffffffffffffffffffffffffffffffffffff16631feeef988760006002811061191b5761191a612649565b5b60200201518860016002811061193457611933612649565b5b60200201516040518363ffffffff1660e01b8152600401611956929190612678565b6040805180830381865afa158015611972573d6000803e3d6000fd5b505050506040513d601f19601f820116820180604052508101906119969190612720565b60000151148015611a7857506000600360009054906101000a900473ffffffffffffffffffffffffffffffffffffffff1673ffffffffffffffffffffffffffffffffffffffff16631feeef98866000600281106119f6576119f5612649565b5b602002015187600160028110611a0f57611a0e612649565b5b60200201516040518363ffffffff1660e01b8152600401611a31929190612678565b6040805180830381865afa158015611a4d573d6000803e3d6000fd5b505050506040513d601f19601f82011682018060405250810190611a719190612720565b6000015114155b8015611a8c57506001611a8a83610272565b145b15611a9a5760019250611f7f565b600360009054906101000a900473ffffffffffffffffffffffffffffffffffffffff1673ffffffffffffffffffffffffffffffffffffffff16638f7daf0f600360009054906101000a900473ffffffffffffffffffffffffffffffffffffffff1673ffffffffffffffffffffffffffffffffffffffff16631feeef9888600060028110611b2a57611b29612649565b5b602002015189600160028110611b4357611b42612649565b5b60200201516040518363ffffffff1660e01b8152600401611b65929190612678565b6040805180830381865afa158015611b81573d6000803e3d6000fd5b505050506040513d601f19601f82011682018060405250810190611ba59190612720565b600001516040518263ffffffff1660e01b8152600401611bc59190612227565b608060405180830381865afa158015611be2573d6000803e3d6000fd5b505050506040513d601f19601f82011682018060405250810190611c069190612bb9565b60000151600260038110611c1d57611c1c612649565b5b6020020151158015611d0057506001600360009054906101000a900473ffffffffffffffffffffffffffffffffffffffff1673ffffffffffffffffffffffffffffffffffffffff16631feeef9887600060028110611c7e57611c7d612649565b5b602002015188600160028110611c9757611c96612649565b5b60200201516040518363ffffffff1660e01b8152600401611cb9929190612678565b6040805180830381865afa158015611cd5573d6000803e3d6000fd5b505050506040513d601f19601f82011682018060405250810190611cf99190612720565b6000015114155b15611d0e5760009250611f7e565b600360009054906101000a900473ffffffffffffffffffffffffffffffffffffffff1673ffffffffffffffffffffffffffffffffffffffff16638f7daf0f600360009054906101000a900473ffffffffffffffffffffffffffffffffffffffff1673ffffffffffffffffffffffffffffffffffffffff16631feeef9888600060028110611d9e57611d9d612649565b5b602002015189600160028110611db757611db6612649565b5b60200201516040518363ffffffff1660e01b8152600401611dd9929190612678565b6040805180830381865afa158015611df5573d6000803e3d6000fd5b505050506040513d601f19601f82011682018060405250810190611e199190612720565b600001516040518263ffffffff1660e01b8152600401611e399190612227565b608060405180830381865afa158015611e56573d6000803e3d6000fd5b505050506040513d601f19601f82011682018060405250810190611e7a9190612bb9565b60000151600260038110611e9157611e90612649565b5b60200201518015611f7357506001600360009054906101000a900473ffffffffffffffffffffffffffffffffffffffff1673ffffffffffffffffffffffffffffffffffffffff16631feeef9887600060028110611ef157611ef0612649565b5b602002015188600160028110611f0a57611f09612649565b5b60200201516040518363ffffffff1660e01b8152600401611f2c929190612678565b6040805180830381865afa158015611f48573d6000803e3d6000fd5b505050506040513d601f19601f82011682018060405250810190611f6c9190612720565b6000015114155b15611f7d57600192505b5b5b6120c0565b6002611f8f83610272565b148015611fa457506001611fa282610272565b145b80611fcb57506001611fb583610272565b148015611fca57506002611fc882610272565b145b5b156120ba5760038060009054906101000a900473ffffffffffffffffffffffffffffffffffffffff1673ffffffffffffffffffffffffffffffffffffffff16631feeef988760006002811061202357612022612649565b5b60200201518860016002811061203c5761203b612649565b5b60200201516040518363ffffffff1660e01b815260040161205e929190612678565b6040805180830381865afa15801561207a573d6000803e3d6000fd5b505050506040513d601f19601f8201168201806040525081019061209e9190612720565b60000151146120b057600092506120b5565b600192505b6120bf565b600092505b5b5b5b505092915050565b6000600782136120dc578190506120e1565b600790505b919050565b600080821215612118577fffffffffffffffffffffffffffffffffffffffffffffffffffffffffffffffff9050612130565b600082131561212a576001905061212f565b600090505b5b919050565b60008082126121465781905061214b565b600090505b919050565b6040518060400160405280600290602082028036833780820191505090505090565b6000604051905090565b600080fd5b6000819050919050565b61219481612181565b811461219f57600080fd5b50565b6000813590506121b18161218b565b92915050565b6000602082840312156121cd576121cc61217c565b5b60006121db848285016121a2565b91505092915050565b6121ed81612181565b82525050565b600060208201905061220860008301846121e4565b92915050565b6000819050919050565b6122218161220e565b82525050565b600060208201905061223c6000830184612218565b92915050565b61224b8161220e565b811461225657600080fd5b50565b60008135905061226881612242565b92915050565b600080604083850312156122855761228461217c565b5b600061229385828601612259565b92505060206122a485828601612259565b9150509250929050565b600080fd5b6000601f19601f8301169050919050565b7f4e487b7100000000000000000000000000000000000000000000000000000000600052604160045260246000fd5b6122fc826122b3565b810181811067ffffffffffffffff8211171561231b5761231a6122c4565b5b80604052505050565b600061232e612172565b905061233a82826122f3565b919050565b600067ffffffffffffffff82111561235a576123596122c4565b5b602082029050919050565b600080fd5b600061237d6123788461233f565b612324565b9050806020840283018581111561239757612396612365565b5b835b818110156123c057806123ac8882612259565b845260208401935050602081019050612399565b5050509392505050565b600082601f8301126123df576123de6122ae565b5b60026123ec84828561236a565b91505092915050565b60008115159050919050565b61240a816123f5565b811461241557600080fd5b50565b60008135905061242781612401565b92915050565b60008060008060c085870312156124475761244661217c565b5b6000612455878288016123ca565b9450506040612466878288016123ca565b935050608061247787828801612418565b92505060a061248887828801612259565b91505092959194509250565b61249d816123f5565b82525050565b60006020820190506124b86000830184612494565b92915050565b600080608083850312156124d5576124d461217c565b5b60006124e3858286016123ca565b92505060406124f4858286016123ca565b9150509250929050565b600060029050919050565b600081905092915050565b6000819050919050565b6125278161220e565b82525050565b6000612539838361251e565b60208301905092915050565b6000602082019050919050565b61255b816124fe565b6125658184612509565b925061257082612514565b8060005b838110156125a1578151612588878261252d565b965061259383612545565b925050600181019050612574565b505050505050565b60006060820190506125be6000830185612494565b6125cb6020830184612552565b9392505050565b7f4e487b7100000000000000000000000000000000000000000000000000000000600052601160045260246000fd5b600061260c82612181565b91507f8000000000000000000000000000000000000000000000000000000000000000820361263e5761263d6125d2565b5b816000039050919050565b7f4e487b7100000000000000000000000000000000000000000000000000000000600052603260045260246000fd5b600060408201905061268d6000830185612218565b61269a6020830184612218565b9392505050565b600080fd5b6000815190506126b581612242565b92915050565b6000815190506126ca81612401565b92915050565b6000604082840312156126e6576126e56126a1565b5b6126f06040612324565b90506000612700848285016126a6565b6000830152506020612714848285016126bb565b60208301525092915050565b6000604082840312156127365761273561217c565b5b6000612744848285016126d0565b91505092915050565b600082825260208201905092915050565b50565b600061276e60008361274d565b91506127798261275e565b600082019050919050565b6000602082019050818103600083015261279d81612761565b9050919050565b60006127af82612181565b91506127ba83612181565b9250827f8000000000000000000000000000000000000000000000000000000000000000018212600084121516156127f5576127f46125d2565b5b827f7fffffffffffffffffffffffffffffffffffffffffffffffffffffffffffffff01821360008412161561282d5761282c6125d2565b5b828203905092915050565b6000819050919050565b6000819050919050565b600061286761286261285d84612838565b612842565b61220e565b9050919050565b6128778161284c565b82525050565b6000819050919050565b60006128a261289d6128988461287d565b612842565b61220e565b9050919050565b6128b281612887565b82525050565b60006040820190506128cd600083018561286e565b6128da60208301846128a9565b9392505050565b6000819050919050565b60006129066129016128fc846128e1565b612842565b61220e565b9050919050565b612916816128eb565b82525050565b6000604082019050612931600083018561290d565b61293e60208301846128a9565b9392505050565b600060408201905061295a60008301856128a9565b61296760208301846128a9565b9392505050565b6000819050919050565b600061299361298e6129898461296e565b612842565b61220e565b9050919050565b6129a381612978565b82525050565b60006040820190506129be600083018561299a565b6129cb602083018461290d565b9392505050565b60006040820190506129e7600083018561290d565b6129f4602083018461290d565b9392505050565b6000604082019050612a1060008301856128a9565b612a1d602083018461290d565b9392505050565b6000612a2f82612181565b9150612a3a83612181565b9250817f7fffffffffffffffffffffffffffffffffffffffffffffffffffffffffffffff03831360008312151615612a7557612a746125d2565b5b817f8000000000000000000000000000000000000000000000000000000000000000038312600083121615612aad57612aac6125d2565b5b828201905092915050565b600067ffffffffffffffff821115612ad357612ad26122c4565b5b602082029050919050565b6000612af1612aec84612ab8565b612324565b90508060208402830185811115612b0b57612b0a612365565b5b835b81811015612b345780612b2088826126bb565b845260208401935050602081019050612b0d565b5050509392505050565b600082601f830112612b5357612b526122ae565b5b6003612b60848285612ade565b91505092915050565b600060808284031215612b7f57612b7e6126a1565b5b612b896040612324565b90506000612b9984828501612b3e565b6000830152506060612bad848285016126a6565b60208301525092915050565b600060808284031215612bcf57612bce61217c565b5b6000612bdd84828501612b69565b9150509291505056fea26469706673582212207a94836156bd3fcb14d159ff8af6a2792150e864910ea77035811272c43bf30464736f6c634300080e003360806040523480156200001157600080fd5b50604051620042623803806200426283398181016040528101906200003791906200016f565b816000806101000a81548173ffffffffffffffffffffffffffffffffffffffff021916908373ffffffffffffffffffffffffffffffffffffffff16021790555080600160006101000a81548173ffffffffffffffffffffffffffffffffffffffff021916908373ffffffffffffffffffffffffffffffffffffffff1602179055505050620001b6565b600080fd5b600073ffffffffffffffffffffffffffffffffffffffff82169050919050565b6000620000f282620000c5565b9050919050565b6200010481620000e5565b81146200011057600080fd5b50565b6000815190506200012481620000f9565b92915050565b60006200013782620000c5565b9050919050565b62000149816200012a565b81146200015557600080fd5b50565b60008151905062000169816200013e565b92915050565b60008060408385031215620001895762000188620000c0565b5b6000620001998582860162000113565b9250506020620001ac8582860162000158565b9150509250929050565b61409c80620001c66000396000f3fe608060405234801561001057600080fd5b506004361061004c5760003560e01c806325f12500146100515780632f1d80741461008257806338afef0b146100b2578063abd9d350146100e2575b600080fd5b61006b600480360381019061006691906134ca565b610112565b6040516100799291906135d7565b60405180910390f35b61009c60048036038101906100979190613600565b6108d2565b6040516100a991906137c7565b60405180910390f35b6100cc60048036038101906100c791906137e3565b611522565b6040516100d99190613872565b60405180910390f35b6100fc60048036038101906100f7919061388e565b612662565b60405161010991906138ce565b60405180910390f35b600061011c613262565b60008054906101000a900473ffffffffffffffffffffffffffffffffffffffff1673ffffffffffffffffffffffffffffffffffffffff166371cc5ad186866040518363ffffffff1660e01b81526004016101779291906138e9565b606060405180830381865afa158015610194573d6000803e3d6000fd5b505050506040513d601f19601f820116820180604052508101906101b891906139c7565b80925081935050506000600160009054906101000a900473ffffffffffffffffffffffffffffffffffffffff1673ffffffffffffffffffffffffffffffffffffffff16631feeef988360006002811061021457610213613a07565b5b60200201518460016002811061022d5761022c613a07565b5b60200201516040518363ffffffff1660e01b815260040161024f929190613a45565b6040805180830381865afa15801561026b573d6000803e3d6000fd5b505050506040513d601f19601f8201168201806040525081019061028f9190613ac3565b6000015114158015610339575060008054906101000a900473ffffffffffffffffffffffffffffffffffffffff1673ffffffffffffffffffffffffffffffffffffffff1663ac411ce682876040518363ffffffff1660e01b81526004016102f79291906138e9565b602060405180830381865afa158015610314573d6000803e3d6000fd5b505050506040513d601f19601f820116820180604052508101906103389190613af0565b5b8015610588575060008054906101000a900473ffffffffffffffffffffffffffffffffffffffff1673ffffffffffffffffffffffffffffffffffffffff16631b5ac4b5826001600281106103905761038f613a07565b5b6020020151876001600281106103a9576103a8613a07565b5b60200201516103b89190613b56565b6040518263ffffffff1660e01b81526004016103d49190613bf9565b602060405180830381865afa1580156103f1573d6000803e3d6000fd5b505050506040513d601f19601f820116820180604052508101906104159190613c40565b600160009054906101000a900473ffffffffffffffffffffffffffffffffffffffff1673ffffffffffffffffffffffffffffffffffffffff16638f7daf0f600160009054906101000a900473ffffffffffffffffffffffffffffffffffffffff1673ffffffffffffffffffffffffffffffffffffffff16631feeef98856000600281106104a5576104a4613a07565b5b6020020151866001600281106104be576104bd613a07565b5b60200201516040518363ffffffff1660e01b81526004016104e0929190613a45565b6040805180830381865afa1580156104fc573d6000803e3d6000fd5b505050506040513d601f19601f820116820180604052508101906105209190613ac3565b600001516040518263ffffffff1660e01b81526004016105409190613c6d565b608060405180830381865afa15801561055d573d6000803e3d6000fd5b505050506040513d601f19601f820116820180604052508101906105819190613d89565b6020015110155b80156107d7575060008054906101000a900473ffffffffffffffffffffffffffffffffffffffff1673ffffffffffffffffffffffffffffffffffffffff16631b5ac4b5826000600281106105df576105de613a07565b5b6020020151876000600281106105f8576105f7613a07565b5b60200201516106079190613b56565b6040518263ffffffff1660e01b81526004016106239190613bf9565b602060405180830381865afa158015610640573d6000803e3d6000fd5b505050506040513d601f19601f820116820180604052508101906106649190613c40565b600160009054906101000a900473ffffffffffffffffffffffffffffffffffffffff1673ffffffffffffffffffffffffffffffffffffffff16638f7daf0f600160009054906101000a900473ffffffffffffffffffffffffffffffffffffffff1673ffffffffffffffffffffffffffffffffffffffff16631feeef98856000600281106106f4576106f3613a07565b5b60200201518660016002811061070d5761070c613a07565b5b60200201516040518363ffffffff1660e01b815260040161072f929190613a45565b6040805180830381865afa15801561074b573d6000803e3d6000fd5b505050506040513d601f19601f8201168201806040525081019061076f9190613ac3565b600001516040518263ffffffff1660e01b815260040161078f9190613c6d565b608060405180830381865afa1580156107ac573d6000803e3d6000fd5b505050506040513d601f19601f820116820180604052508101906107d09190613d89565b6020015110155b80156108b75750600160009054906101000a900473ffffffffffffffffffffffffffffffffffffffff1673ffffffffffffffffffffffffffffffffffffffff16631feeef98826000600281106108305761082f613a07565b5b60200201518360016002811061084957610848613a07565b5b60200201516040518363ffffffff1660e01b815260040161086b929190613a45565b6040805180830381865afa158015610887573d6000803e3d6000fd5b505050506040513d601f19601f820116820180604052508101906108ab9190613ac3565b60200151151583151514155b156108c557600191506108ca565b600091505b935093915050565b6108da613284565b600081604001516000600881106108f4576108f3613a07565b5b6020020181815250508260016002811061091157610910613a07565b5b6020020151816060015160006008811061092e5761092d613a07565b5b6020020181815250506007816040015160016008811061095157610950613a07565b5b6020020181815250508260016002811061096e5761096d613a07565b5b6020020151816060015160016008811061098b5761098a613a07565b5b602002018181525050826000600281106109a8576109a7613a07565b5b602002015181604001516002600881106109c5576109c4613a07565b5b602002018181525050600081606001516002600881106109e8576109e7613a07565b5b60200201818152505082600060028110610a0557610a04613a07565b5b60200201518160400151600360088110610a2257610a21613a07565b5b60200201818152505060078160600151600360088110610a4557610a44613a07565b5b60200201818152505060008054906101000a900473ffffffffffffffffffffffffffffffffffffffff1673ffffffffffffffffffffffffffffffffffffffff16636d5433e684600060028110610a9e57610a9d613a07565b5b602002015185600160028110610ab757610ab6613a07565b5b60200201516040518363ffffffff1660e01b8152600401610ad9929190613a45565b602060405180830381865afa158015610af6573d6000803e3d6000fd5b505050506040513d601f19601f82011682018060405250810190610b1a9190613db6565b6007610b269190613de3565b83600060028110610b3a57610b39613a07565b5b6020020151610b499190613e17565b8160400151600460088110610b6157610b60613a07565b5b60200201818152505060008054906101000a900473ffffffffffffffffffffffffffffffffffffffff1673ffffffffffffffffffffffffffffffffffffffff16636d5433e684600060028110610bba57610bb9613a07565b5b602002015185600160028110610bd357610bd2613a07565b5b60200201516040518363ffffffff1660e01b8152600401610bf5929190613a45565b602060405180830381865afa158015610c12573d6000803e3d6000fd5b505050506040513d601f19601f82011682018060405250810190610c369190613db6565b6007610c429190613de3565b83600160028110610c5657610c55613a07565b5b6020020151610c659190613e17565b8160600151600460088110610c7d57610c7c613a07565b5b60200201818152505060008054906101000a900473ffffffffffffffffffffffffffffffffffffffff1673ffffffffffffffffffffffffffffffffffffffff16637ae2b5c784600060028110610cd657610cd5613a07565b5b602002015185600160028110610cef57610cee613a07565b5b60200201516040518363ffffffff1660e01b8152600401610d11929190613a45565b602060405180830381865afa158015610d2e573d6000803e3d6000fd5b505050506040513d601f19601f82011682018060405250810190610d529190613db6565b83600060028110610d6657610d65613a07565b5b6020020151610d759190613de3565b8160400151600560088110610d8d57610d8c613a07565b5b60200201818152505060008054906101000a900473ffffffffffffffffffffffffffffffffffffffff1673ffffffffffffffffffffffffffffffffffffffff16637ae2b5c784600060028110610de657610de5613a07565b5b602002015185600160028110610dff57610dfe613a07565b5b60200201516040518363ffffffff1660e01b8152600401610e21929190613a45565b602060405180830381865afa158015610e3e573d6000803e3d6000fd5b505050506040513d601f19601f82011682018060405250810190610e629190613db6565b83600160028110610e7657610e75613a07565b5b6020020151610e859190613de3565b8160600151600560088110610e9d57610e9c613a07565b5b60200201818152505060008054906101000a900473ffffffffffffffffffffffffffffffffffffffff1673ffffffffffffffffffffffffffffffffffffffff1663bac3511984600060028110610ef657610ef5613a07565b5b602002015185600160028110610f0f57610f0e613a07565b5b6020020151610f1e9190613e6d565b6040518263ffffffff1660e01b8152600401610f3a9190613bf9565b602060405180830381865afa158015610f57573d6000803e3d6000fd5b505050506040513d601f19601f82011682018060405250810190610f7b9190613c40565b8160400151600660088110610f9357610f92613a07565b5b60200201818152505060008054906101000a900473ffffffffffffffffffffffffffffffffffffffff1673ffffffffffffffffffffffffffffffffffffffff1663ee0b07e084600060028110610fec57610feb613a07565b5b60200201516007610ffd9190613b56565b8560016002811061101157611010613a07565b5b60200201516110209190613b56565b6040518263ffffffff1660e01b815260040161103c9190613bf9565b602060405180830381865afa158015611059573d6000803e3d6000fd5b505050506040513d601f19601f8201168201806040525081019061107d9190613c40565b816060015160066008811061109557611094613a07565b5b60200201818152505060008054906101000a900473ffffffffffffffffffffffffffffffffffffffff1673ffffffffffffffffffffffffffffffffffffffff1663ee0b07e0846000600281106110ee576110ed613a07565b5b602002015160076110ff9190613b56565b8560016002811061111357611112613a07565b5b60200201516111229190613b56565b6040518263ffffffff1660e01b815260040161113e9190613bf9565b602060405180830381865afa15801561115b573d6000803e3d6000fd5b505050506040513d601f19601f8201168201806040525081019061117f9190613c40565b816040015160076008811061119757611196613a07565b5b60200201818152505060008054906101000a900473ffffffffffffffffffffffffffffffffffffffff1673ffffffffffffffffffffffffffffffffffffffff1663bac35119846000600281106111f0576111ef613a07565b5b60200201518560016002811061120957611208613a07565b5b60200201516112189190613e6d565b6040518263ffffffff1660e01b81526004016112349190613bf9565b602060405180830381865afa158015611251573d6000803e3d6000fd5b505050506040513d601f19601f820116820180604052508101906112759190613c40565b816060015160076008811061128d5761128c613a07565b5b60200201818152505061129e613262565b60005b82604001515060088110156113d457611305856040518060400160405280866040015185600881106112d6576112d5613a07565b5b60200201518152602001866060015185600881106112f7576112f6613a07565b5b602002015181525086610112565b8460200151836008811061131c5761131b613a07565b5b60200201819450821515151581525050508260200151816008811061134457611343613a07565b5b6020020151156113c1578160006002811061136257611361613a07565b5b60200201518360400151826008811061137e5761137d613a07565b5b6020020181815250508160016002811061139b5761139a613a07565b5b6020020151836060015182600881106113b7576113b6613a07565b5b6020020181815250505b80806113cc90613f01565b9150506112a1565b5081602001516000600881106113ed576113ec613a07565b5b602002015180611416575081602001516001600881106114105761140f613a07565b5b60200201515b8061143a5750816020015160026008811061143457611433613a07565b5b60200201515b8061145e5750816020015160036008811061145857611457613a07565b5b60200201515b806114825750816020015160046008811061147c5761147b613a07565b5b60200201515b806114a6575081602001516005600881106114a05761149f613a07565b5b60200201515b806114ca575081602001516006600881106114c4576114c3613a07565b5b60200201515b806114ee575081602001516007600881106114e8576114e7613a07565b5b60200201515b1561150957600182600001901515908115158152505061151b565b60008260000190151590811515815250505b5092915050565b61152a6132c0565b600160009054906101000a900473ffffffffffffffffffffffffffffffffffffffff1673ffffffffffffffffffffffffffffffffffffffff163373ffffffffffffffffffffffffffffffffffffffff16146115ba576040517f08c379a00000000000000000000000000000000000000000000000000000000081526004016115b190613f80565b60405180910390fd5b6000600160009054906101000a900473ffffffffffffffffffffffffffffffffffffffff1673ffffffffffffffffffffffffffffffffffffffff1663915b740d846040518263ffffffff1660e01b815260040161161791906138ce565b6040805180830381865afa158015611633573d6000803e3d6000fd5b505050506040513d601f19601f820116820180604052508101906116579190613fa0565b90506116616132e3565b6116696132e3565b60008054906101000a900473ffffffffffffffffffffffffffffffffffffffff1673ffffffffffffffffffffffffffffffffffffffff1663bac35119846000600281106116b9576116b8613a07565b5b60200201516040518263ffffffff1660e01b81526004016116da9190613bf9565b602060405180830381865afa1580156116f7573d6000803e3d6000fd5b505050506040513d601f19601f8201168201806040525081019061171b9190613c40565b8260006008811061172f5761172e613a07565b5b60200201818152505060008054906101000a900473ffffffffffffffffffffffffffffffffffffffff1673ffffffffffffffffffffffffffffffffffffffff1663bac3511960018560016002811061178a57611789613a07565b5b60200201516117999190613e6d565b6040518263ffffffff1660e01b81526004016117b59190613bf9565b602060405180830381865afa1580156117d2573d6000803e3d6000fd5b505050506040513d601f19601f820116820180604052508101906117f69190613c40565b8160006008811061180a57611809613a07565b5b60200201818152505060008054906101000a900473ffffffffffffffffffffffffffffffffffffffff1673ffffffffffffffffffffffffffffffffffffffff1663bac3511960018560006002811061186557611864613a07565b5b60200201516118749190613e6d565b6040518263ffffffff1660e01b81526004016118909190613bf9565b602060405180830381865afa1580156118ad573d6000803e3d6000fd5b505050506040513d601f19601f820116820180604052508101906118d19190613c40565b826001600881106118e5576118e4613a07565b5b60200201818152505060008054906101000a900473ffffffffffffffffffffffffffffffffffffffff1673ffffffffffffffffffffffffffffffffffffffff1663bac351198460016002811061193e5761193d613a07565b5b60200201516040518263ffffffff1660e01b815260040161195f9190613bf9565b602060405180830381865afa15801561197c573d6000803e3d6000fd5b505050506040513d601f19601f820116820180604052508101906119a09190613c40565b816001600881106119b4576119b3613a07565b5b60200201818152505060008054906101000a900473ffffffffffffffffffffffffffffffffffffffff1673ffffffffffffffffffffffffffffffffffffffff1663bac3511984600060028110611a0d57611a0c613a07565b5b60200201516040518263ffffffff1660e01b8152600401611a2e9190613bf9565b602060405180830381865afa158015611a4b573d6000803e3d6000fd5b505050506040513d601f19601f82011682018060405250810190611a6f9190613c40565b82600260088110611a8357611a82613a07565b5b60200201818152505060008054906101000a900473ffffffffffffffffffffffffffffffffffffffff1673ffffffffffffffffffffffffffffffffffffffff1663ee0b07e0600185600160028110611ade57611add613a07565b5b6020020151611aed9190613b56565b6040518263ffffffff1660e01b8152600401611b099190613bf9565b602060405180830381865afa158015611b26573d6000803e3d6000fd5b505050506040513d601f19601f82011682018060405250810190611b4a9190613c40565b81600260088110611b5e57611b5d613a07565b5b60200201818152505060008054906101000a900473ffffffffffffffffffffffffffffffffffffffff1673ffffffffffffffffffffffffffffffffffffffff1663ee0b07e0600185600060028110611bb957611bb8613a07565b5b6020020151611bc89190613b56565b6040518263ffffffff1660e01b8152600401611be49190613bf9565b602060405180830381865afa158015611c01573d6000803e3d6000fd5b505050506040513d601f19601f82011682018060405250810190611c259190613c40565b82600360088110611c3957611c38613a07565b5b60200201818152505060008054906101000a900473ffffffffffffffffffffffffffffffffffffffff1673ffffffffffffffffffffffffffffffffffffffff1663bac3511984600160028110611c9257611c91613a07565b5b60200201516040518263ffffffff1660e01b8152600401611cb39190613bf9565b602060405180830381865afa158015611cd0573d6000803e3d6000fd5b505050506040513d601f19601f82011682018060405250810190611cf49190613c40565b81600360088110611d0857611d07613a07565b5b60200201818152505060008054906101000a900473ffffffffffffffffffffffffffffffffffffffff1673ffffffffffffffffffffffffffffffffffffffff1663bac35119600185600060028110611d6357611d62613a07565b5b6020020151611d729190613e6d565b6040518263ffffffff1660e01b8152600401611d8e9190613bf9565b602060405180830381865afa158015611dab573d6000803e3d6000fd5b505050506040513d601f19601f82011682018060405250810190611dcf9190613c40565b82600460088110611de357611de2613a07565b5b60200201818152505060008054906101000a900473ffffffffffffffffffffffffffffffffffffffff1673ffffffffffffffffffffffffffffffffffffffff1663ee0b07e0600185600160028110611e3e57611e3d613a07565b5b6020020151611e4d9190613b56565b6040518263ffffffff1660e01b8152600401611e699190613bf9565b602060405180830381865afa158015611e86573d6000803e3d6000fd5b505050506040513d601f19601f82011682018060405250810190611eaa9190613c40565b81600460088110611ebe57611ebd613a07565b5b60200201818152505060008054906101000a900473ffffffffffffffffffffffffffffffffffffffff1673ffffffffffffffffffffffffffffffffffffffff1663ee0b07e0600185600060028110611f1957611f18613a07565b5b6020020151611f289190613b56565b6040518263ffffffff1660e01b8152600401611f449190613bf9565b602060405180830381865afa158015611f61573d6000803e3d6000fd5b505050506040513d601f19601f82011682018060405250810190611f859190613c40565b82600560088110611f9957611f98613a07565b5b60200201818152505060008054906101000a900473ffffffffffffffffffffffffffffffffffffffff1673ffffffffffffffffffffffffffffffffffffffff1663bac35119600185600160028110611ff457611ff3613a07565b5b60200201516120039190613e6d565b6040518263ffffffff1660e01b815260040161201f9190613bf9565b602060405180830381865afa15801561203c573d6000803e3d6000fd5b505050506040513d601f19601f820116820180604052508101906120609190613c40565b8160056008811061207457612073613a07565b5b60200201818152505060008054906101000a900473ffffffffffffffffffffffffffffffffffffffff1673ffffffffffffffffffffffffffffffffffffffff1663ee0b07e06001856000600281106120cf576120ce613a07565b5b60200201516120de9190613b56565b6040518263ffffffff1660e01b81526004016120fa9190613bf9565b602060405180830381865afa158015612117573d6000803e3d6000fd5b505050506040513d601f19601f8201168201806040525081019061213b9190613c40565b8260066008811061214f5761214e613a07565b5b60200201818152505060008054906101000a900473ffffffffffffffffffffffffffffffffffffffff1673ffffffffffffffffffffffffffffffffffffffff1663ee0b07e06001856001600281106121aa576121a9613a07565b5b60200201516121b99190613b56565b6040518263ffffffff1660e01b81526004016121d59190613bf9565b602060405180830381865afa1580156121f2573d6000803e3d6000fd5b505050506040513d601f19601f820116820180604052508101906122169190613c40565b8160066008811061222a57612229613a07565b5b60200201818152505060008054906101000a900473ffffffffffffffffffffffffffffffffffffffff1673ffffffffffffffffffffffffffffffffffffffff1663bac3511960018560006002811061228557612284613a07565b5b60200201516122949190613e6d565b6040518263ffffffff1660e01b81526004016122b09190613bf9565b602060405180830381865afa1580156122cd573d6000803e3d6000fd5b505050506040513d601f19601f820116820180604052508101906122f19190613c40565b8260076008811061230557612304613a07565b5b60200201818152505060008054906101000a900473ffffffffffffffffffffffffffffffffffffffff1673ffffffffffffffffffffffffffffffffffffffff1663bac351196001856001600281106123605761235f613a07565b5b602002015161236f9190613e6d565b6040518263ffffffff1660e01b815260040161238b9190613bf9565b602060405180830381865afa1580156123a8573d6000803e3d6000fd5b505050506040513d601f19601f820116820180604052508101906123cc9190613c40565b816007600881106123e0576123df613a07565b5b60200201818152505060005b6008811015612659576000600160009054906101000a900473ffffffffffffffffffffffffffffffffffffffff1673ffffffffffffffffffffffffffffffffffffffff16631feeef9885846008811061244857612447613a07565b5b60200201518585600881106124605761245f613a07565b5b60200201516040518363ffffffff1660e01b8152600401612482929190613a45565b6040805180830381865afa15801561249e573d6000803e3d6000fd5b505050506040513d601f19601f820116820180604052508101906124c29190613ac3565b60000151141580156125a55750851515600160009054906101000a900473ffffffffffffffffffffffffffffffffffffffff1673ffffffffffffffffffffffffffffffffffffffff16631feeef9885846008811061252357612522613a07565b5b602002015185856008811061253b5761253a613a07565b5b60200201516040518363ffffffff1660e01b815260040161255d929190613a45565b6040805180830381865afa158015612579573d6000803e3d6000fd5b505050506040513d601f19601f8201168201806040525081019061259d9190613ac3565b602001511515145b156125d35760018582600881106125bf576125be613a07565b5b602002019015159081151581525050612646565b61261f60405180604001604052808584600881106125f4576125f3613a07565b5b6020020151815260200184846008811061261157612610613a07565b5b6020020151815250876108d2565b6000015185826008811061263657612635613a07565b5b6020020190151590811515815250505b808061265190613f01565b9150506123ec565b50505050919050565b600061266c6132c0565b600080600160009054906101000a900473ffffffffffffffffffffffffffffffffffffffff1673ffffffffffffffffffffffffffffffffffffffff1663915b740d876040518263ffffffff1660e01b81526004016126ca91906138ce565b6040805180830381865afa1580156126e6573d6000803e3d6000fd5b505050506040513d601f19601f8201168201806040525081019061270a9190613fa0565b9050612714613284565b60005b81602001515060088110156127615760008260200151826008811061273f5761273e613a07565b5b602002019015159081151581525050808061275990613f01565b915050612717565b5061276c82886108d2565b6000015180156127795750855b1561305f5760005b61278b83896108d2565b60200151506008811015612e2b576127a383896108d2565b6020015181600881106127b9576127b8613a07565b5b602002015115612df35783806127ce90613f01565b9450506000836000600281106127e7576127e6613a07565b5b60200201516127f6858b6108d2565b60400151836008811061280c5761280b613a07565b5b602002015161281b9190613b56565b905060008460016002811061283357612832613a07565b5b6020020151612842868c6108d2565b60600151846008811061285857612857613a07565b5b60200201516128679190613b56565b905060008060009054906101000a900473ffffffffffffffffffffffffffffffffffffffff1673ffffffffffffffffffffffffffffffffffffffff1663c03c3003846040518263ffffffff1660e01b81526004016128c59190613bf9565b602060405180830381865afa1580156128e2573d6000803e3d6000fd5b505050506040513d601f19601f820116820180604052508101906129069190613c40565b905060008060009054906101000a900473ffffffffffffffffffffffffffffffffffffffff1673ffffffffffffffffffffffffffffffffffffffff1663c03c3003846040518263ffffffff1660e01b81526004016129649190613bf9565b602060405180830381865afa158015612981573d6000803e3d6000fd5b505050506040513d601f19601f820116820180604052508101906129a59190613c40565b90506000876000600281106129bd576129bc613a07565b5b602002015190506000886001600281106129da576129d9613a07565b5b602002015190505b6129ec898f6108d2565b604001518760088110612a0257612a01613a07565b5b602002015182141580612a395750612a1a898f6108d2565b606001518760088110612a3057612a2f613a07565b5b60200201518114155b15612de85760008054906101000a900473ffffffffffffffffffffffffffffffffffffffff1673ffffffffffffffffffffffffffffffffffffffff1663bac351198584612a869190613e6d565b6040518263ffffffff1660e01b8152600401612aa29190613bf9565b602060405180830381865afa158015612abf573d6000803e3d6000fd5b505050506040513d601f19601f82011682018060405250810190612ae39190613c40565b915060008054906101000a900473ffffffffffffffffffffffffffffffffffffffff1673ffffffffffffffffffffffffffffffffffffffff1663bac351198483612b2d9190613e6d565b6040518263ffffffff1660e01b8152600401612b499190613bf9565b602060405180830381865afa158015612b66573d6000803e3d6000fd5b505050506040513d601f19601f82011682018060405250810190612b8a9190613c40565b9050612bab6040518060400160405280848152602001838152508f156108d2565b975060005b8860200151506008811015612c8e57612bfd6040518060400160405280601481526020017f2e2e2e2e2e2e2e2e2e2e2e2e2e2e2e2e2e2e2e2e00000000000000000000000081525061306e565b612c0683613107565b612c0f82613107565b612c3389602001518260088110612c2957612c28613a07565b5b60200201516131a0565b612c5789604001518260088110612c4d57612c4c613a07565b5b6020020151613107565b612c7b89606001518260088110612c7157612c70613a07565b5b6020020151613107565b8080612c8690613f01565b915050612bb0565b5087600001518015612d7757506005600160009054906101000a900473ffffffffffffffffffffffffffffffffffffffff1673ffffffffffffffffffffffffffffffffffffffff16631feeef988a604001518a60088110612cf257612cf1613a07565b5b60200201518b606001518b60088110612d0e57612d0d613a07565b5b60200201516040518363ffffffff1660e01b8152600401612d30929190613a45565b6040805180830381865afa158015612d4c573d6000803e3d6000fd5b505050506040513d601f19601f82011682018060405250810190612d709190613ac3565b6000015114155b15612de357612dba6040518060400160405280600781526020017f6d61206369616f0000000000000000000000000000000000000000000000000081525061306e565b60018b8860088110612dcf57612dce613a07565b5b602002019015159081151581525050612de8565b6129e2565b505050505050612e18565b6001858260088110612e0857612e07613a07565b5b6020020190151590811515815250505b8080612e2390613f01565b915050612781565b50612e4d84600060088110612e4357612e42613a07565b5b60200201516131a0565b612e6e84600160088110612e6457612e63613a07565b5b60200201516131a0565b612e8f84600260088110612e8557612e84613a07565b5b60200201516131a0565b612eb084600360088110612ea657612ea5613a07565b5b60200201516131a0565b612ed184600460088110612ec757612ec6613a07565b5b60200201516131a0565b612ef284600560088110612ee857612ee7613a07565b5b60200201516131a0565b612f1384600660088110612f0957612f08613a07565b5b60200201516131a0565b612f3484600760088110612f2a57612f29613a07565b5b60200201516131a0565b600283108015612f59575083600060088110612f5357612f52613a07565b5b60200201515b8015612f7a575083600160088110612f7457612f73613a07565b5b60200201515b8015612f9b575083600260088110612f9557612f94613a07565b5b60200201515b8015612fbc575083600360088110612fb657612fb5613a07565b5b60200201515b8015612fdd575083600460088110612fd757612fd6613a07565b5b60200201515b8015612ffe575083600560088110612ff857612ff7613a07565b5b60200201515b801561301f57508360066008811061301957613018613a07565b5b60200201515b801561304057508360076008811061303a57613039613a07565b5b60200201515b15613052576001945050505050613068565b6000945050505050613068565b60019450505050505b92915050565b613104816040516024016130829190614044565b6040516020818303038152906040527f41304fac000000000000000000000000000000000000000000000000000000007bffffffffffffffffffffffffffffffffffffffffffffffffffffffff19166020820180517bffffffffffffffffffffffffffffffffffffffffffffffffffffffff8381831617835250505050613239565b50565b61319d8160405160240161311b9190613c6d565b6040516020818303038152906040527ff5b1bba9000000000000000000000000000000000000000000000000000000007bffffffffffffffffffffffffffffffffffffffffffffffffffffffff19166020820180517bffffffffffffffffffffffffffffffffffffffffffffffffffffffff8381831617835250505050613239565b50565b613236816040516024016131b491906138ce565b6040516020818303038152906040527f32458eed000000000000000000000000000000000000000000000000000000007bffffffffffffffffffffffffffffffffffffffffffffffffffffffff19166020820180517bffffffffffffffffffffffffffffffffffffffffffffffffffffffff8381831617835250505050613239565b50565b60008151905060006a636f6e736f6c652e6c6f679050602083016000808483855afa5050505050565b6040518060400160405280600290602082028036833780820191505090505090565b60405180608001604052806000151581526020016132a06132c0565b81526020016132ad6132e3565b81526020016132ba6132e3565b81525090565b604051806101000160405280600890602082028036833780820191505090505090565b604051806101000160405280600890602082028036833780820191505090505090565b6000604051905090565b600080fd5b600080fd5b6000601f19601f8301169050919050565b7f4e487b7100000000000000000000000000000000000000000000000000000000600052604160045260246000fd5b6133638261331a565b810181811067ffffffffffffffff821117156133825761338161332b565b5b80604052505050565b6000613395613306565b90506133a1828261335a565b919050565b600067ffffffffffffffff8211156133c1576133c061332b565b5b602082029050919050565b600080fd5b6000819050919050565b6133e4816133d1565b81146133ef57600080fd5b50565b600081359050613401816133db565b92915050565b600061341a613415846133a6565b61338b565b90508060208402830185811115613434576134336133cc565b5b835b8181101561345d578061344988826133f2565b845260208401935050602081019050613436565b5050509392505050565b600082601f83011261347c5761347b613315565b5b6002613489848285613407565b91505092915050565b60008115159050919050565b6134a781613492565b81146134b257600080fd5b50565b6000813590506134c48161349e565b92915050565b600080600060a084860312156134e3576134e2613310565b5b60006134f186828701613467565b935050604061350286828701613467565b9250506080613513868287016134b5565b9150509250925092565b61352681613492565b82525050565b600060029050919050565b600081905092915050565b6000819050919050565b613555816133d1565b82525050565b6000613567838361354c565b60208301905092915050565b6000602082019050919050565b6135898161352c565b6135938184613537565b925061359e82613542565b8060005b838110156135cf5781516135b6878261355b565b96506135c183613573565b9250506001810190506135a2565b505050505050565b60006060820190506135ec600083018561351d565b6135f96020830184613580565b9392505050565b6000806060838503121561361757613616613310565b5b600061362585828601613467565b9250506040613636858286016134b5565b9150509250929050565b61364981613492565b82525050565b600060089050919050565b600081905092915050565b6000819050919050565b600061367b8383613640565b60208301905092915050565b6000602082019050919050565b61369d8161364f565b6136a7818461365a565b92506136b282613665565b8060005b838110156136e35781516136ca878261366f565b96506136d583613687565b9250506001810190506136b6565b505050505050565b600060089050919050565b600081905092915050565b6000819050919050565b6000602082019050919050565b613721816136eb565b61372b81846136f6565b925061373682613701565b8060005b8381101561376757815161374e878261355b565b96506137598361370b565b92505060018101905061373a565b505050505050565b610320820160008201516137866000850182613640565b5060208201516137996020850182613694565b5060408201516137ad610120850182613718565b5060608201516137c1610220850182613718565b50505050565b6000610320820190506137dd600083018461376f565b92915050565b6000602082840312156137f9576137f8613310565b5b6000613807848285016134b5565b91505092915050565b600081905092915050565b6138248161364f565b61382e8184613810565b925061383982613665565b8060005b8381101561386a578151613851878261366f565b965061385c83613687565b92505060018101905061383d565b505050505050565b600061010082019050613888600083018461381b565b92915050565b600080604083850312156138a5576138a4613310565b5b60006138b3858286016134b5565b92505060206138c4858286016134b5565b9150509250929050565b60006020820190506138e3600083018461351d565b92915050565b60006080820190506138fe6000830185613580565b61390b6040830184613580565b9392505050565b6000815190506139218161349e565b92915050565b600081519050613936816133db565b92915050565b600061394f61394a846133a6565b61338b565b90508060208402830185811115613969576139686133cc565b5b835b81811015613992578061397e8882613927565b84526020840193505060208101905061396b565b5050509392505050565b600082601f8301126139b1576139b0613315565b5b60026139be84828561393c565b91505092915050565b600080606083850312156139de576139dd613310565b5b60006139ec85828601613912565b92505060206139fd8582860161399c565b9150509250929050565b7f4e487b7100000000000000000000000000000000000000000000000000000000600052603260045260246000fd5b613a3f816133d1565b82525050565b6000604082019050613a5a6000830185613a36565b613a676020830184613a36565b9392505050565b600080fd5b600060408284031215613a8957613a88613a6e565b5b613a93604061338b565b90506000613aa384828501613927565b6000830152506020613ab784828501613912565b60208301525092915050565b600060408284031215613ad957613ad8613310565b5b6000613ae784828501613a73565b91505092915050565b600060208284031215613b0657613b05613310565b5b6000613b1484828501613912565b91505092915050565b6000819050919050565b7f4e487b7100000000000000000000000000000000000000000000000000000000600052601160045260246000fd5b6000613b6182613b1d565b9150613b6c83613b1d565b9250827f800000000000000000000000000000000000000000000000000000000000000001821260008412151615613ba757613ba6613b27565b5b827f7fffffffffffffffffffffffffffffffffffffffffffffffffffffffffffffff018213600084121615613bdf57613bde613b27565b5b828203905092915050565b613bf381613b1d565b82525050565b6000602082019050613c0e6000830184613bea565b92915050565b613c1d81613b1d565b8114613c2857600080fd5b50565b600081519050613c3a81613c14565b92915050565b600060208284031215613c5657613c55613310565b5b6000613c6484828501613c2b565b91505092915050565b6000602082019050613c826000830184613a36565b92915050565b600067ffffffffffffffff821115613ca357613ca261332b565b5b602082029050919050565b6000613cc1613cbc84613c88565b61338b565b90508060208402830185811115613cdb57613cda6133cc565b5b835b81811015613d045780613cf08882613912565b845260208401935050602081019050613cdd565b5050509392505050565b600082601f830112613d2357613d22613315565b5b6003613d30848285613cae565b91505092915050565b600060808284031215613d4f57613d4e613a6e565b5b613d59604061338b565b90506000613d6984828501613d0e565b6000830152506060613d7d84828501613927565b60208301525092915050565b600060808284031215613d9f57613d9e613310565b5b6000613dad84828501613d39565b91505092915050565b600060208284031215613dcc57613dcb613310565b5b6000613dda84828501613927565b91505092915050565b6000613dee826133d1565b9150613df9836133d1565b925082821015613e0c57613e0b613b27565b5b828203905092915050565b6000613e22826133d1565b9150613e2d836133d1565b9250827fffffffffffffffffffffffffffffffffffffffffffffffffffffffffffffffff03821115613e6257613e61613b27565b5b828201905092915050565b6000613e7882613b1d565b9150613e8383613b1d565b9250817f7fffffffffffffffffffffffffffffffffffffffffffffffffffffffffffffff03831360008312151615613ebe57613ebd613b27565b5b817f8000000000000000000000000000000000000000000000000000000000000000038312600083121615613ef657613ef5613b27565b5b828201905092915050565b6000613f0c826133d1565b91507fffffffffffffffffffffffffffffffffffffffffffffffffffffffffffffffff8203613f3e57613f3d613b27565b5b600182019050919050565b600082825260208201905092915050565b50565b6000613f6a600083613f49565b9150613f7582613f5a565b600082019050919050565b60006020820190508181036000830152613f9981613f5d565b9050919050565b600060408284031215613fb657613fb5613310565b5b6000613fc48482850161399c565b91505092915050565b600081519050919050565b60005b83811015613ff6578082015181840152602081019050613fdb565b83811115614005576000848401525b50505050565b600061401682613fcd565b6140208185613f49565b9350614030818560208601613fd8565b6140398161331a565b840191505092915050565b6000602082019050818103600083015261405e818461400b565b90509291505056fea264697066735822122019437de642eb39bb8227f7ed8afc80c0b23c1f1c491b195d7ffd6d98cdfe6b5464736f6c634300080e0033",
  "linkReferences": {},
  "deployedLinkReferences": {}
}