{
  "_format": "hh-sol-artifact-1",
  "contractName": "ChessBoard",
  "sourceName": "contracts/ChessBoard.sol",
  "abi": [
    {
      "inputs": [
        {
          "internalType": "address",
          "name": "_player1",
          "type": "address"
        },
        {
          "internalType": "address",
          "name": "_player2",
          "type": "address"
        }
      ],
      "stateMutability": "nonpayable",
      "type": "constructor"
    },
    {
      "inputs": [
        {
          "internalType": "bool",
          "name": "",
          "type": "bool"
        }
      ],
      "name": "KingsFirstmove",
      "outputs": [
        {
          "internalType": "bool",
          "name": "",
          "type": "bool"
        }
      ],
      "stateMutability": "view",
      "type": "function"
    },
    {
      "inputs": [
        {
          "internalType": "uint256[2]",
          "name": "oldpos",
          "type": "uint256[2]"
        },
        {
          "internalType": "uint256[2]",
          "name": "newpos",
          "type": "uint256[2]"
        }
      ],
      "name": "Move",
      "outputs": [
        {
          "internalType": "bool",
          "name": "res",
          "type": "bool"
        }
      ],
      "stateMutability": "nonpayable",
      "type": "function"
    },
    {
      "inputs": [],
      "name": "Movecontroller",
      "outputs": [
        {
          "internalType": "contract MoveController",
          "name": "",
          "type": "address"
        }
      ],
      "stateMutability": "view",
      "type": "function"
    },
    {
      "inputs": [],
      "name": "Movehandler",
      "outputs": [
        {
          "internalType": "contract MoveHandler",
          "name": "",
          "type": "address"
        }
      ],
      "stateMutability": "view",
      "type": "function"
    },
    {
      "inputs": [
        {
          "internalType": "bool",
          "name": "",
          "type": "bool"
        },
        {
          "internalType": "bool",
          "name": "",
          "type": "bool"
        }
      ],
      "name": "TowersFirstmove",
      "outputs": [
        {
          "internalType": "bool",
          "name": "",
          "type": "bool"
        }
      ],
      "stateMutability": "view",
      "type": "function"
    },
    {
      "inputs": [
        {
          "internalType": "bool",
          "name": "",
          "type": "bool"
        }
      ],
      "name": "check",
      "outputs": [
        {
          "internalType": "bool",
          "name": "",
          "type": "bool"
        }
      ],
      "stateMutability": "view",
      "type": "function"
    },
    {
      "inputs": [
        {
          "internalType": "uint256",
          "name": "i",
          "type": "uint256"
        },
        {
          "internalType": "uint256",
          "name": "j",
          "type": "uint256"
        }
      ],
      "name": "getBox",
      "outputs": [
        {
          "components": [
            {
              "internalType": "uint256",
              "name": "pedina",
              "type": "uint256"
            },
            {
              "internalType": "bool",
              "name": "color",
              "type": "bool"
            }
          ],
          "internalType": "struct ChessBoard.Box",
          "name": "box",
          "type": "tuple"
        }
      ],
      "stateMutability": "view",
      "type": "function"
    },
    {
      "inputs": [
        {
          "internalType": "bool",
          "name": "_player",
          "type": "bool"
        }
      ],
      "name": "getCheck",
      "outputs": [
        {
          "internalType": "bool",
          "name": "res",
          "type": "bool"
        }
      ],
      "stateMutability": "view",
      "type": "function"
    },
    {
      "inputs": [
        {
          "internalType": "bool",
          "name": "team",
          "type": "bool"
        }
      ],
      "name": "getKing",
      "outputs": [
        {
          "internalType": "uint256[2]",
          "name": "pos",
          "type": "uint256[2]"
        }
      ],
      "stateMutability": "view",
      "type": "function"
    },
    {
      "inputs": [
        {
          "internalType": "bool",
          "name": "team",
          "type": "bool"
        }
      ],
      "name": "getPlayer",
      "outputs": [
        {
          "internalType": "address",
          "name": "_player",
          "type": "address"
        }
      ],
      "stateMutability": "view",
      "type": "function"
    },
    {
      "inputs": [
        {
          "internalType": "uint256",
          "name": "pedina",
          "type": "uint256"
        }
      ],
      "name": "getRules",
      "outputs": [
        {
          "components": [
            {
              "internalType": "bool[3]",
              "name": "moves_directions",
              "type": "bool[3]"
            },
            {
              "internalType": "uint256",
              "name": "maxsteps",
              "type": "uint256"
            }
          ],
          "internalType": "struct ChessBoard._Rules",
          "name": "rule",
          "type": "tuple"
        }
      ],
      "stateMutability": "view",
      "type": "function"
    },
    {
      "inputs": [
        {
          "internalType": "address",
          "name": "_player",
          "type": "address"
        }
      ],
      "name": "getTeam",
      "outputs": [
        {
          "internalType": "bool",
          "name": "team",
          "type": "bool"
        }
      ],
      "stateMutability": "view",
      "type": "function"
    },
    {
      "inputs": [
        {
          "internalType": "uint256[2]",
          "name": "newpos",
          "type": "uint256[2]"
        },
        {
          "internalType": "bool",
          "name": "team",
          "type": "bool"
        }
      ],
      "name": "isNotEvilBox",
      "outputs": [
        {
          "internalType": "bool",
          "name": "res",
          "type": "bool"
        }
      ],
      "stateMutability": "view",
      "type": "function"
    },
    {
      "inputs": [
        {
          "internalType": "bool",
          "name": "",
          "type": "bool"
        }
      ],
      "name": "players",
      "outputs": [
        {
          "internalType": "address",
          "name": "",
          "type": "address"
        }
      ],
      "stateMutability": "view",
      "type": "function"
    },
    {
      "inputs": [
        {
          "internalType": "address",
          "name": "",
          "type": "address"
        }
      ],
      "name": "prizes",
      "outputs": [
        {
          "internalType": "uint256",
          "name": "",
          "type": "uint256"
        }
      ],
      "stateMutability": "view",
      "type": "function"
    },
    {
      "inputs": [],
      "name": "totalPrize",
      "outputs": [
        {
          "internalType": "uint256",
          "name": "",
          "type": "uint256"
        }
      ],
      "stateMutability": "view",
      "type": "function"
    },
    {
      "inputs": [],
      "name": "winner",
      "outputs": [
        {
          "internalType": "address",
          "name": "",
          "type": "address"
        }
      ],
      "stateMutability": "view",
      "type": "function"
    },
    {
      "stateMutability": "payable",
      "type": "receive"
    }
  ],
  "bytecode": "0x60806040523480156200001157600080fd5b506040516200a8753803806200a875833981810160405281019062000037919062001f49565b30604051620000469062001dba565b62000052919062001fb5565b604051809103906000f0801580156200006f573d6000803e3d6000fd5b50608b60006101000a81548173ffffffffffffffffffffffffffffffffffffffff021916908373ffffffffffffffffffffffffffffffffffffffff160217905550608b60009054906101000a900473ffffffffffffffffffffffffffffffffffffffff1630604051620000e29062001dc8565b620000ef92919062001fe3565b604051809103906000f0801580156200010c573d6000803e3d6000fd5b50608c60006101000a81548173ffffffffffffffffffffffffffffffffffffffff021916908373ffffffffffffffffffffffffffffffffffffffff1602179055508160096000600115151515815260200190815260200160002060006101000a81548173ffffffffffffffffffffffffffffffffffffffff021916908373ffffffffffffffffffffffffffffffffffffffff16021790555080600960008015151515815260200190815260200160002060006101000a81548173ffffffffffffffffffffffffffffffffffffffff021916908373ffffffffffffffffffffffffffffffffffffffff16021790555081600160006101000a81548173ffffffffffffffffffffffffffffffffffffffff021916908373ffffffffffffffffffffffffffffffffffffffff16021790555060016008600060096000600115151515815260200190815260200160002060009054906101000a900473ffffffffffffffffffffffffffffffffffffffff1673ffffffffffffffffffffffffffffffffffffffff1673ffffffffffffffffffffffffffffffffffffffff16815260200190815260200160002060006101000a81548160ff021916908315150217905550600060086000600960008015151515815260200190815260200160002060009054906101000a900473ffffffffffffffffffffffffffffffffffffffff1673ffffffffffffffffffffffffffffffffffffffff1673ffffffffffffffffffffffffffffffffffffffff16815260200190815260200160002060006101000a81548160ff0219169083151502179055506040518060400160405280600360ff168152602001600760ff16815250600460006008600060096000600115151515815260200190815260200160002060009054906101000a900473ffffffffffffffffffffffffffffffffffffffff1673ffffffffffffffffffffffffffffffffffffffff1673ffffffffffffffffffffffffffffffffffffffff16815260200190815260200160002060009054906101000a900460ff161515151581526020019081526020016000209060026200042292919062001dd6565b506040518060400160405280600360ff168152602001600060ff168152506004600060086000600960008015151515815260200190815260200160002060009054906101000a900473ffffffffffffffffffffffffffffffffffffffff1673ffffffffffffffffffffffffffffffffffffffff1673ffffffffffffffffffffffffffffffffffffffff16815260200190815260200160002060009054906101000a900460ff16151515158152602001908152602001600020906002620004ea92919062001dd6565b506000600760006008600060096000600115151515815260200190815260200160002060009054906101000a900473ffffffffffffffffffffffffffffffffffffffff1673ffffffffffffffffffffffffffffffffffffffff1673ffffffffffffffffffffffffffffffffffffffff16815260200190815260200160002060009054906101000a900460ff1615151515815260200190815260200160002060006101000a81548160ff02191690831515021790555060006007600060086000600960008015151515815260200190815260200160002060009054906101000a900473ffffffffffffffffffffffffffffffffffffffff1673ffffffffffffffffffffffffffffffffffffffff1673ffffffffffffffffffffffffffffffffffffffff16815260200190815260200160002060009054906101000a900460ff1615151515815260200190815260200160002060006101000a81548160ff0219169083151502179055506001600560006008600060096000600115151515815260200190815260200160002060009054906101000a900473ffffffffffffffffffffffffffffffffffffffff1673ffffffffffffffffffffffffffffffffffffffff1673ffffffffffffffffffffffffffffffffffffffff16815260200190815260200160002060009054906101000a900460ff1615151515815260200190815260200160002060006101000a81548160ff02191690831515021790555060016005600060086000600960008015151515815260200190815260200160002060009054906101000a900473ffffffffffffffffffffffffffffffffffffffff1673ffffffffffffffffffffffffffffffffffffffff1673ffffffffffffffffffffffffffffffffffffffff16815260200190815260200160002060009054906101000a900460ff1615151515815260200190815260200160002060006101000a81548160ff0219169083151502179055506001600660006008600060096000600115151515815260200190815260200160002060009054906101000a900473ffffffffffffffffffffffffffffffffffffffff1673ffffffffffffffffffffffffffffffffffffffff1673ffffffffffffffffffffffffffffffffffffffff16815260200190815260200160002060009054906101000a900460ff1615151515815260200190815260200160002060008015151515815260200190815260200160002060006101000a81548160ff0219169083151502179055506001600660006008600060096000600115151515815260200190815260200160002060009054906101000a900473ffffffffffffffffffffffffffffffffffffffff1673ffffffffffffffffffffffffffffffffffffffff1673ffffffffffffffffffffffffffffffffffffffff16815260200190815260200160002060009054906101000a900460ff161515151581526020019081526020016000206000600115151515815260200190815260200160002060006101000a81548160ff02191690831515021790555060016006600060086000600960008015151515815260200190815260200160002060009054906101000a900473ffffffffffffffffffffffffffffffffffffffff1673ffffffffffffffffffffffffffffffffffffffff1673ffffffffffffffffffffffffffffffffffffffff16815260200190815260200160002060009054906101000a900460ff1615151515815260200190815260200160002060008015151515815260200190815260200160002060006101000a81548160ff02191690831515021790555060016006600060086000600960008015151515815260200190815260200160002060009054906101000a900473ffffffffffffffffffffffffffffffffffffffff1673ffffffffffffffffffffffffffffffffffffffff1673ffffffffffffffffffffffffffffffffffffffff16815260200190815260200160002060009054906101000a900460ff161515151581526020019081526020016000206000600115151515815260200190815260200160002060006101000a81548160ff0219169083151502179055506040518060400160405280604051806060016040528060001515151581526020016000151515158152602001600015151515815250815260200160008152506003600080815260200190815260200160002060008201518160000190600362000b4892919062001e20565b5060208201518160010155905050604051806040016040528060405180606001604052806000151515158152602001600115151515815260200160001515151581525081526020016001815250600360006001815260200190815260200160002060008201518160000190600362000bc292919062001e20565b5060208201518160010155905050604051806040016040528060405180606001604052806001151515158152602001600115151515815260200160001515151581525081526020016007815250600360006002815260200190815260200160002060008201518160000190600362000c3c92919062001e20565b5060208201518160010155905050604051806040016040528060405180606001604052806000151515158152602001600015151515815260200160001515151581525081526020016004815250600360006003815260200190815260200160002060008201518160000190600362000cb692919062001e20565b5060208201518160010155905050604051806040016040528060405180606001604052806000151515158152602001600015151515815260200160011515151581525081526020016007815250600360006004815260200190815260200160002060008201518160000190600362000d3092919062001e20565b5060208201518160010155905050604051806040016040528060405180606001604052806001151515158152602001600115151515815260200160011515151581525081526020016001815250600360006005815260200190815260200160002060008201518160000190600362000daa92919062001e20565b5060208201518160010155905050604051806040016040528060405180606001604052806001151515158152602001600115151515815260200160011515151581525081526020016007815250600360006006815260200190815260200160002060008201518160000190600362000e2492919062001e20565b506020820151816001015590505060405180604001604052806002815260200160001515815250600b60006008811062000e635762000e6262002010565b5b6010020160006008811062000e7d5762000e7c62002010565b5b600202016000820151816000015560208201518160010160006101000a81548160ff02191690831515021790555090505060405180604001604052806003815260200160001515815250600b60016008811062000edf5762000ede62002010565b5b6010020160006008811062000ef95762000ef862002010565b5b600202016000820151816000015560208201518160010160006101000a81548160ff02191690831515021790555090505060405180604001604052806004815260200160001515815250600b60026008811062000f5b5762000f5a62002010565b5b6010020160006008811062000f755762000f7462002010565b5b600202016000820151816000015560208201518160010160006101000a81548160ff02191690831515021790555090505060405180604001604052806005815260200160001515815250600b60036008811062000fd75762000fd662002010565b5b6010020160006008811062000ff15762000ff062002010565b5b600202016000820151816000015560208201518160010160006101000a81548160ff02191690831515021790555090505060405180604001604052806006815260200160001515815250600b60046008811062001053576200105262002010565b5b601002016000600881106200106d576200106c62002010565b5b600202016000820151816000015560208201518160010160006101000a81548160ff02191690831515021790555090505060405180604001604052806004815260200160001515815250600b600560088110620010cf57620010ce62002010565b5b60100201600060088110620010e957620010e862002010565b5b600202016000820151816000015560208201518160010160006101000a81548160ff02191690831515021790555090505060405180604001604052806003815260200160001515815250600b6006600881106200114b576200114a62002010565b5b6010020160006008811062001165576200116462002010565b5b600202016000820151816000015560208201518160010160006101000a81548160ff02191690831515021790555090505060405180604001604052806002815260200160001515815250600b600760088110620011c757620011c662002010565b5b60100201600060088110620011e157620011e062002010565b5b600202016000820151816000015560208201518160010160006101000a81548160ff02191690831515021790555090505060405180604001604052806001815260200160001515815250600b60006008811062001243576200124262002010565b5b601002016001600881106200125d576200125c62002010565b5b600202016000820151816000015560208201518160010160006101000a81548160ff02191690831515021790555090505060405180604001604052806001815260200160001515815250600b600160088110620012bf57620012be62002010565b5b60100201600160088110620012d957620012d862002010565b5b600202016000820151816000015560208201518160010160006101000a81548160ff02191690831515021790555090505060405180604001604052806001815260200160001515815250600b6002600881106200133b576200133a62002010565b5b6010020160016008811062001355576200135462002010565b5b600202016000820151816000015560208201518160010160006101000a81548160ff02191690831515021790555090505060405180604001604052806001815260200160001515815250600b600360088110620013b757620013b662002010565b5b60100201600160088110620013d157620013d062002010565b5b600202016000820151816000015560208201518160010160006101000a81548160ff02191690831515021790555090505060405180604001604052806001815260200160001515815250600b60046008811062001433576200143262002010565b5b601002016001600881106200144d576200144c62002010565b5b600202016000820151816000015560208201518160010160006101000a81548160ff02191690831515021790555090505060405180604001604052806001815260200160001515815250600b600560088110620014af57620014ae62002010565b5b60100201600160088110620014c957620014c862002010565b5b600202016000820151816000015560208201518160010160006101000a81548160ff02191690831515021790555090505060405180604001604052806001815260200160001515815250600b6006600881106200152b576200152a62002010565b5b6010020160016008811062001545576200154462002010565b5b600202016000820151816000015560208201518160010160006101000a81548160ff02191690831515021790555090505060405180604001604052806001815260200160001515815250600b600760088110620015a757620015a662002010565b5b60100201600160088110620015c157620015c062002010565b5b600202016000820151816000015560208201518160010160006101000a81548160ff02191690831515021790555090505060405180604001604052806001815260200160011515815250600b60006008811062001623576200162262002010565b5b601002016006600881106200163d576200163c62002010565b5b600202016000820151816000015560208201518160010160006101000a81548160ff02191690831515021790555090505060405180604001604052806001815260200160011515815250600b6001600881106200169f576200169e62002010565b5b60100201600660088110620016b957620016b862002010565b5b600202016000820151816000015560208201518160010160006101000a81548160ff02191690831515021790555090505060405180604001604052806001815260200160011515815250600b6002600881106200171b576200171a62002010565b5b6010020160066008811062001735576200173462002010565b5b600202016000820151816000015560208201518160010160006101000a81548160ff02191690831515021790555090505060405180604001604052806001815260200160011515815250600b60036008811062001797576200179662002010565b5b60100201600660088110620017b157620017b062002010565b5b600202016000820151816000015560208201518160010160006101000a81548160ff02191690831515021790555090505060405180604001604052806001815260200160011515815250600b60046008811062001813576200181262002010565b5b601002016006600881106200182d576200182c62002010565b5b600202016000820151816000015560208201518160010160006101000a81548160ff02191690831515021790555090505060405180604001604052806001815260200160011515815250600b6005600881106200188f576200188e62002010565b5b60100201600660088110620018a957620018a862002010565b5b600202016000820151816000015560208201518160010160006101000a81548160ff02191690831515021790555090505060405180604001604052806001815260200160011515815250600b6006600881106200190b576200190a62002010565b5b6010020160066008811062001925576200192462002010565b5b600202016000820151816000015560208201518160010160006101000a81548160ff02191690831515021790555090505060405180604001604052806001815260200160011515815250600b60076008811062001987576200198662002010565b5b60100201600660088110620019a157620019a062002010565b5b600202016000820151816000015560208201518160010160006101000a81548160ff02191690831515021790555090505060405180604001604052806002815260200160011515815250600b60006008811062001a035762001a0262002010565b5b6010020160076008811062001a1d5762001a1c62002010565b5b600202016000820151816000015560208201518160010160006101000a81548160ff02191690831515021790555090505060405180604001604052806003815260200160011515815250600b60016008811062001a7f5762001a7e62002010565b5b6010020160076008811062001a995762001a9862002010565b5b600202016000820151816000015560208201518160010160006101000a81548160ff02191690831515021790555090505060405180604001604052806004815260200160011515815250600b60026008811062001afb5762001afa62002010565b5b6010020160076008811062001b155762001b1462002010565b5b600202016000820151816000015560208201518160010160006101000a81548160ff02191690831515021790555090505060405180604001604052806005815260200160011515815250600b60036008811062001b775762001b7662002010565b5b6010020160076008811062001b915762001b9062002010565b5b600202016000820151816000015560208201518160010160006101000a81548160ff02191690831515021790555090505060405180604001604052806006815260200160011515815250600b60046008811062001bf35762001bf262002010565b5b6010020160076008811062001c0d5762001c0c62002010565b5b600202016000820151816000015560208201518160010160006101000a81548160ff02191690831515021790555090505060405180604001604052806004815260200160011515815250600b60056008811062001c6f5762001c6e62002010565b5b6010020160076008811062001c895762001c8862002010565b5b600202016000820151816000015560208201518160010160006101000a81548160ff02191690831515021790555090505060405180604001604052806003815260200160011515815250600b60066008811062001ceb5762001cea62002010565b5b6010020160076008811062001d055762001d0462002010565b5b600202016000820151816000015560208201518160010160006101000a81548160ff02191690831515021790555090505060405180604001604052806002815260200160011515815250600b60076008811062001d675762001d6662002010565b5b6010020160076008811062001d815762001d8062002010565b5b600202016000820151816000015560208201518160010160006101000a81548160ff02191690831515021790555090505050506200203f565b612fce80620053d983390190565b6124ce80620083a783390190565b826002810192821562001e0d579160200282015b8281111562001e0c578251829060ff1690559160200191906001019062001dea565b5b50905062001e1c919062001ec0565b5090565b826003601f0160209004810192821562001ead5791602002820160005b8382111562001e7c57835183826101000a81548160ff021916908315150217905550926020019260010160208160000104928301926001030262001e3d565b801562001eab5782816101000a81549060ff021916905560010160208160000104928301926001030262001e7c565b505b50905062001ebc919062001ec0565b5090565b5b8082111562001edb57600081600090555060010162001ec1565b5090565b600080fd5b600073ffffffffffffffffffffffffffffffffffffffff82169050919050565b600062001f118262001ee4565b9050919050565b62001f238162001f04565b811462001f2f57600080fd5b50565b60008151905062001f438162001f18565b92915050565b6000806040838503121562001f635762001f6262001edf565b5b600062001f738582860162001f32565b925050602062001f868582860162001f32565b9150509250929050565b600062001f9d8262001ee4565b9050919050565b62001faf8162001f90565b82525050565b600060208201905062001fcc600083018462001fa4565b92915050565b62001fdd8162001f04565b82525050565b600060408201905062001ffa600083018562001fd2565b62002009602083018462001fa4565b9392505050565b7f4e487b7100000000000000000000000000000000000000000000000000000000600052603260045260246000fd5b61338a806200204f6000396000f3fe6080604052600436106101025760003560e01c8063b35d11bf11610095578063d0d6defb11610064578063d0d6defb14610546578063dbdfbae714610583578063dfbf53ae146105ae578063fd5fcef1146105d9578063fe9ba8ec1461060457610277565b8063b35d11bf14610452578063b99e131b1461048f578063bbc2b0ce146104cc578063c33b07781461050957610277565b806382b1ad50116100d157806382b1ad501461037057806387529f0f1461039b5780638f7daf0f146103d8578063915b740d1461041557610277565b80631feeef981461027c578063241c5912146102b95780632f553dec146102f65780637ac8802e1461033357610277565b366102775760096000600115151515815260200190815260200160002060009054906101000a900473ffffffffffffffffffffffffffffffffffffffff1673ffffffffffffffffffffffffffffffffffffffff163373ffffffffffffffffffffffffffffffffffffffff1614806101db5750600960008015151515815260200190815260200160002060009054906101000a900473ffffffffffffffffffffffffffffffffffffffff1673ffffffffffffffffffffffffffffffffffffffff163373ffffffffffffffffffffffffffffffffffffffff16145b61021a576040517f08c379a000000000000000000000000000000000000000000000000000000000815260040161021190612743565b60405180910390fd5b34600a60003373ffffffffffffffffffffffffffffffffffffffff1673ffffffffffffffffffffffffffffffffffffffff168152602001908152602001600020819055503460008082825461026f919061279c565b925050819055005b600080fd5b34801561028857600080fd5b506102a3600480360381019061029e919061282d565b610641565b6040516102b091906128c6565b60405180910390f35b3480156102c557600080fd5b506102e060048036038101906102db919061290d565b6106af565b6040516102ed9190612949565b60405180910390f35b34801561030257600080fd5b5061031d60048036038101906103189190612aab565b6106cf565b60405161032a9190612949565b60405180910390f35b34801561033f57600080fd5b5061035a60048036038101906103559190612aeb565b611f41565b6040516103679190612949565b60405180910390f35b34801561037c57600080fd5b50610385611f70565b6040516103929190612b3a565b60405180910390f35b3480156103a757600080fd5b506103c260048036038101906103bd9190612bb3565b611f76565b6040516103cf9190612949565b60405180910390f35b3480156103e457600080fd5b506103ff60048036038101906103fa9190612be0565b611fcc565b60405161040c9190612cd8565b60405180910390f35b34801561042157600080fd5b5061043c6004803603810190610437919061290d565b61206d565b6040516104499190612d8f565b60405180910390f35b34801561045e57600080fd5b5061047960048036038101906104749190612bb3565b6120cf565b6040516104869190612b3a565b60405180910390f35b34801561049b57600080fd5b506104b660048036038101906104b1919061290d565b6120e7565b6040516104c39190612db9565b60405180910390f35b3480156104d857600080fd5b506104f360048036038101906104ee919061290d565b612128565b6040516105009190612949565b60405180910390f35b34801561051557600080fd5b50610530600480360381019061052b9190612dd4565b612148565b60405161053d9190612949565b60405180910390f35b34801561055257600080fd5b5061056d6004803603810190610568919061290d565b612214565b60405161057a9190612db9565b60405180910390f35b34801561058f57600080fd5b50610598612247565b6040516105a59190612e73565b60405180910390f35b3480156105ba57600080fd5b506105c361226d565b6040516105d09190612db9565b60405180910390f35b3480156105e557600080fd5b506105ee612293565b6040516105fb9190612eaf565b60405180910390f35b34801561061057600080fd5b5061062b6004803603810190610626919061290d565b6122b9565b6040516106389190612949565b60405180910390f35b61064961262f565b600b836008811061065d5761065c612eca565b5b60100201826008811061067357610672612eca565b5b60020201604051806040016040529081600082015481526020016001820160009054906101000a900460ff161515151581525050905092915050565b60076020528060005260406000206000915054906101000a900460ff1681565b600060096000600115151515815260200190815260200160002060009054906101000a900473ffffffffffffffffffffffffffffffffffffffff1673ffffffffffffffffffffffffffffffffffffffff163373ffffffffffffffffffffffffffffffffffffffff1614806107a55750600960008015151515815260200190815260200160002060009054906101000a900473ffffffffffffffffffffffffffffffffffffffff1673ffffffffffffffffffffffffffffffffffffffff163373ffffffffffffffffffffffffffffffffffffffff16145b6107e4576040517f08c379a00000000000000000000000000000000000000000000000000000000081526004016107db90612743565b60405180910390fd5b8282608b60009054906101000a900473ffffffffffffffffffffffffffffffffffffffff1673ffffffffffffffffffffffffffffffffffffffff16636d5725008383600860003373ffffffffffffffffffffffffffffffffffffffff1673ffffffffffffffffffffffffffffffffffffffff16815260200190815260200160002060009054906101000a900460ff1660036000600b8960006002811061088d5761088c612eca565b5b6020020151600881106108a3576108a2612eca565b5b60100201896001600281106108bb576108ba612eca565b5b6020020151600881106108d1576108d0612eca565b5b60020201600001548152602001908152602001600020600101546040518563ffffffff1660e01b815260040161090a9493929190612ef9565b6020604051808303816000875af1158015610929573d6000803e3d6000fd5b505050506040513d601f19601f8201168201806040525081019061094d9190612f53565b61098c576040517f08c379a000000000000000000000000000000000000000000000000000000000815260040161098390612743565b60405180910390fd5b8484600860003373ffffffffffffffffffffffffffffffffffffffff1673ffffffffffffffffffffffffffffffffffffffff16815260200190815260200160002060009054906101000a900460ff168015610a4857506001600b836000600281106109fa576109f9612eca565b5b602002015160088110610a1057610a0f612eca565b5b6010020183600160028110610a2857610a27612eca565b5b602002015160088110610a3e57610a3d612eca565b5b6002020160000154145b8015610a6c5750600081600160028110610a6557610a64612eca565b5b6020020151145b15610add576006600b83600060028110610a8957610a88612eca565b5b602002015160088110610a9f57610a9e612eca565b5b6010020183600160028110610ab757610ab6612eca565b5b602002015160088110610acd57610acc612eca565b5b6002020160000181905550610c2a565b600860003373ffffffffffffffffffffffffffffffffffffffff1673ffffffffffffffffffffffffffffffffffffffff16815260200190815260200160002060009054906101000a900460ff16158015610b9857506001600b83600060028110610b4a57610b49612eca565b5b602002015160088110610b6057610b5f612eca565b5b6010020183600160028110610b7857610b77612eca565b5b602002015160088110610b8e57610b8d612eca565b5b6002020160000154145b8015610bbc5750600781600160028110610bb557610bb4612eca565b5b6020020151145b15610c29576006600b83600060028110610bd957610bd8612eca565b5b602002015160088110610bef57610bee612eca565b5b6010020183600160028110610c0757610c06612eca565b5b602002015160088110610c1d57610c1c612eca565b5b60020201600001819055505b5b86866005600b83600060028110610c4457610c43612eca565b5b602002015160088110610c5a57610c59612eca565b5b6010020183600160028110610c7257610c71612eca565b5b602002015160088110610c8857610c87612eca565b5b600202016000015403610d3457610ceb81600860003373ffffffffffffffffffffffffffffffffffffffff1673ffffffffffffffffffffffffffffffffffffffff16815260200190815260200160002060009054906101000a900460ff16612148565b610d2a576040517f08c379a0000000000000000000000000000000000000000000000000000000008152600401610d2190612fcc565b60405180910390fd5b610d33816122e7565b5b876000608b60009054906101000a900473ffffffffffffffffffffffffffffffffffffffff1673ffffffffffffffffffffffffffffffffffffffff166371cc5ad18360046000600860003373ffffffffffffffffffffffffffffffffffffffff1673ffffffffffffffffffffffffffffffffffffffff16815260200190815260200160002060009054906101000a900460ff16151515151581526020019081526020016000206040518363ffffffff1660e01b8152600401610df79291906130b0565b606060405180830381865afa158015610e14573d6000803e3d6000fd5b505050506040513d601f19601f82011682018060405250810190610e389190613179565b5080915050608b60009054906101000a900473ffffffffffffffffffffffffffffffffffffffff1673ffffffffffffffffffffffffffffffffffffffff1663ac411ce68360046000600860003373ffffffffffffffffffffffffffffffffffffffff1673ffffffffffffffffffffffffffffffffffffffff16815260200190815260200160002060009054906101000a900460ff16151515151581526020019081526020016000206040518363ffffffff1660e01b8152600401610efd9291906130b0565b602060405180830381865afa158015610f1a573d6000803e3d6000fd5b505050506040513d601f19601f82011682018060405250810190610f3e9190612f53565b8015610f475750805b15610f5757610f5660016123d9565b5b600080608c60009054906101000a900473ffffffffffffffffffffffffffffffffffffffff1673ffffffffffffffffffffffffffffffffffffffff16638b69cfad600860003373ffffffffffffffffffffffffffffffffffffffff1673ffffffffffffffffffffffffffffffffffffffff16815260200190815260200160002060009054906101000a900460ff166040518263ffffffff1660e01b81526004016110019190612949565b6040805180830381865afa15801561101d573d6000803e3d6000fd5b505050506040513d601f19601f8201168201806040525081019061104191906131b9565b80925081935050506005600b8e60006002811061106157611060612eca565b5b60200201516008811061107757611076612eca565b5b601002018e60016002811061108f5761108e612eca565b5b6020020151600881106110a5576110a4612eca565b5b60020201600001541480156110f5575060028c6000600281106110cb576110ca612eca565b5b60200201518e6000600281106110e4576110e3612eca565b5b60200201516110f39190613203565b145b801561116e575060056000600860003373ffffffffffffffffffffffffffffffffffffffff1673ffffffffffffffffffffffffffffffffffffffff16815260200190815260200160002060009054906101000a900460ff1615151515815260200190815260200160002060009054906101000a900460ff165b80156111cc57506111ca600860003373ffffffffffffffffffffffffffffffffffffffff1673ffffffffffffffffffffffffffffffffffffffff16815260200190815260200160002060009054906101000a900460ff166122b9565b155b156118be5760066000600860003373ffffffffffffffffffffffffffffffffffffffff1673ffffffffffffffffffffffffffffffffffffffff16815260200190815260200160002060009054906101000a900460ff161515151581526020019081526020016000206000600115151515815260200190815260200160002060009054906101000a900460ff161561154757604051806040016040528060008152602001600860003373ffffffffffffffffffffffffffffffffffffffff1673ffffffffffffffffffffffffffffffffffffffff16815260200190815260200160002060009054906101000a900460ff161515815250600b8e6000600281106112d7576112d6612eca565b5b6020020151600881106112ed576112ec612eca565b5b601002018e60016002811061130557611304612eca565b5b60200201516008811061131b5761131a612eca565b5b600202016000820151816000015560208201518160010160006101000a81548160ff021916908315150217905550905050604051806040016040528060058152602001600860003373ffffffffffffffffffffffffffffffffffffffff1673ffffffffffffffffffffffffffffffffffffffff16815260200190815260200160002060009054906101000a900460ff161515815250600b8e6000600281106113c6576113c5612eca565b5b6020020151600881106113dc576113db612eca565b5b6010020160028f6001600281106113f6576113f5612eca565b5b6020020151611405919061279c565b6008811061141657611415612eca565b5b600202016000820151816000015560208201518160010160006101000a81548160ff021916908315150217905550905050604051806040016040528060028152602001600860003373ffffffffffffffffffffffffffffffffffffffff1673ffffffffffffffffffffffffffffffffffffffff16815260200190815260200160002060009054906101000a900460ff161515815250600b8e6000600281106114c1576114c0612eca565b5b6020020151600881106114d7576114d6612eca565b5b6010020160018f6001600281106114f1576114f0612eca565b5b6020020151611500919061279c565b6008811061151157611510612eca565b5b600202016000820151816000015560208201518160010160006101000a81548160ff0219169083151502179055509050506118b9565b60066000600860003373ffffffffffffffffffffffffffffffffffffffff1673ffffffffffffffffffffffffffffffffffffffff16815260200190815260200160002060009054906101000a900460ff1615151515815260200190815260200160002060008015151515815260200190815260200160002060009054906101000a900460ff16156118b857604051806040016040528060008152602001600860003373ffffffffffffffffffffffffffffffffffffffff1673ffffffffffffffffffffffffffffffffffffffff16815260200190815260200160002060009054906101000a900460ff161515815250600b8e60006002811061164c5761164b612eca565b5b60200201516008811061166257611661612eca565b5b601002018e60016002811061167a57611679612eca565b5b6020020151600881106116905761168f612eca565b5b600202016000820151816000015560208201518160010160006101000a81548160ff021916908315150217905550905050604051806040016040528060058152602001600860003373ffffffffffffffffffffffffffffffffffffffff1673ffffffffffffffffffffffffffffffffffffffff16815260200190815260200160002060009054906101000a900460ff161515815250600b8e60006002811061173b5761173a612eca565b5b60200201516008811061175157611750612eca565b5b6010020160028f60016002811061176b5761176a612eca565b5b602002015161177a9190613297565b6008811061178b5761178a612eca565b5b600202016000820151816000015560208201518160010160006101000a81548160ff021916908315150217905550905050604051806040016040528060028152602001600860003373ffffffffffffffffffffffffffffffffffffffff1673ffffffffffffffffffffffffffffffffffffffff16815260200190815260200160002060009054906101000a900460ff161515815250600b8e60006002811061183657611835612eca565b5b60200201516008811061184c5761184b612eca565b5b6010020160018f60016002811061186657611865612eca565b5b60200201516118759190613297565b6008811061188657611885612eca565b5b600202016000820151816000015560208201518160010160006101000a81548160ff0219169083151502179055509050505b5b611f24565b8180156118c85750805b1561196a5760096000600860003373ffffffffffffffffffffffffffffffffffffffff1673ffffffffffffffffffffffffffffffffffffffff16815260200190815260200160002060009054906101000a900460ff161515151515815260200190815260200160002060009054906101000a900473ffffffffffffffffffffffffffffffffffffffff1673ffffffffffffffffffffffffffffffffffffffff16ff5b81158015611976575080155b15611bdf57600b8d60006002811061199157611990612eca565b5b6020020151600881106119a7576119a6612eca565b5b601002018d6001600281106119bf576119be612eca565b5b6020020151600881106119d5576119d4612eca565b5b60020201600b8d6000600281106119ef576119ee612eca565b5b602002015160088110611a0557611a04612eca565b5b601002018d600160028110611a1d57611a1c612eca565b5b602002015160088110611a3357611a32612eca565b5b60020201600082015481600001556001820160009054906101000a900460ff168160010160006101000a81548160ff02191690831515021790555090505060405180604001604052806000815260200160001515815250600b8e600060028110611aa057611a9f612eca565b5b602002015160088110611ab657611ab5612eca565b5b601002018e600160028110611ace57611acd612eca565b5b602002015160088110611ae457611ae3612eca565b5b600202016000820151816000015560208201518160010160006101000a81548160ff02191690831515021790555090505060096000600860003373ffffffffffffffffffffffffffffffffffffffff1673ffffffffffffffffffffffffffffffffffffffff16815260200190815260200160002060009054906101000a900460ff161515151515815260200190815260200160002060009054906101000a900473ffffffffffffffffffffffffffffffffffffffff16600160006101000a81548173ffffffffffffffffffffffffffffffffffffffff021916908373ffffffffffffffffffffffffffffffffffffffff160217905550611f23565b81158015611bea5750805b15611f225760096000600860003373ffffffffffffffffffffffffffffffffffffffff1673ffffffffffffffffffffffffffffffffffffffff16815260200190815260200160002060009054906101000a900460ff1615151515815260200190815260200160002060009054906101000a900473ffffffffffffffffffffffffffffffffffffffff1673ffffffffffffffffffffffffffffffffffffffff166108fc6002600a600060096000600860003373ffffffffffffffffffffffffffffffffffffffff1673ffffffffffffffffffffffffffffffffffffffff16815260200190815260200160002060009054906101000a900460ff1615151515815260200190815260200160002060009054906101000a900473ffffffffffffffffffffffffffffffffffffffff1673ffffffffffffffffffffffffffffffffffffffff1673ffffffffffffffffffffffffffffffffffffffff16815260200190815260200160002054611d5b91906132fa565b9081150290604051600060405180830381858888f19350505050158015611d86573d6000803e3d6000fd5b5060096000600860003373ffffffffffffffffffffffffffffffffffffffff1673ffffffffffffffffffffffffffffffffffffffff16815260200190815260200160002060009054906101000a900460ff161515151515815260200190815260200160002060009054906101000a900473ffffffffffffffffffffffffffffffffffffffff1673ffffffffffffffffffffffffffffffffffffffff166108fc6002600a600060096000600860003373ffffffffffffffffffffffffffffffffffffffff1673ffffffffffffffffffffffffffffffffffffffff16815260200190815260200160002060009054906101000a900460ff161515151515815260200190815260200160002060009054906101000a900473ffffffffffffffffffffffffffffffffffffffff1673ffffffffffffffffffffffffffffffffffffffff1673ffffffffffffffffffffffffffffffffffffffff16815260200190815260200160002054611ef591906132fa565b9081150290604051600060405180830381858888f19350505050158015611f20573d6000803e3d6000fd5b505b5b5b611f2d8d612458565b60019a505050505050505050505092915050565b60066020528160005260406000206020528060005260406000206000915091509054906101000a900460ff1681565b60005481565b6000600860008373ffffffffffffffffffffffffffffffffffffffff1673ffffffffffffffffffffffffffffffffffffffff16815260200190815260200160002060009054906101000a900460ff169050919050565b611fd461264b565b6003600083815260200190815260200160002060405180604001604052908160008201600380602002604051908101604052809291908260038015612053576020028201916000905b82829054906101000a900460ff1615158152602001906001019060208260000104928301926001038202915080841161201d5790505b505050505081526020016001820154815250509050919050565b61207561266b565b60046000831515151581526020019081526020016000206002806020026040519081016040528092919082600280156120c3576020028201915b8154815260200190600101908083116120af575b50505050509050919050565b600a6020528060005260406000206000915090505481565b6000600960008315151515815260200190815260200160002060009054906101000a900473ffffffffffffffffffffffffffffffffffffffff169050919050565b60056020528060005260406000206000915054906101000a900460ff1681565b60008061215361266b565b608c60009054906101000a900473ffffffffffffffffffffffffffffffffffffffff1673ffffffffffffffffffffffffffffffffffffffff16632f1d807486866040518363ffffffff1660e01b81526004016121b092919061332b565b606060405180830381865afa1580156121cd573d6000803e3d6000fd5b505050506040513d601f19601f820116820180604052508101906121f19190613179565b809250819350505081612207576001925061220c565b600092505b505092915050565b60096020528060005260406000206000915054906101000a900473ffffffffffffffffffffffffffffffffffffffff1681565b608c60009054906101000a900473ffffffffffffffffffffffffffffffffffffffff1681565b600260009054906101000a900473ffffffffffffffffffffffffffffffffffffffff1681565b608b60009054906101000a900473ffffffffffffffffffffffffffffffffffffffff1681565b6000600760008315151515815260200190815260200160002060009054906101000a900460ff169050919050565b8060046000600860003373ffffffffffffffffffffffffffffffffffffffff1673ffffffffffffffffffffffffffffffffffffffff16815260200190815260200160002060009054906101000a900460ff1615151515815260200190815260200160002090600261235992919061268d565b50600060056000600860003373ffffffffffffffffffffffffffffffffffffffff1673ffffffffffffffffffffffffffffffffffffffff16815260200190815260200160002060009054906101000a900460ff1615151515815260200190815260200160002060006101000a81548160ff02191690831515021790555050565b8060076000600860003373ffffffffffffffffffffffffffffffffffffffff1673ffffffffffffffffffffffffffffffffffffffff16815260200190815260200160002060009054906101000a900460ff161515151515815260200190815260200160002060006101000a81548160ff02191690831515021790555050565b6002600b826000600281106124705761246f612eca565b5b60200201516008811061248657612485612eca565b5b601002018260016002811061249e5761249d612eca565b5b6020020151600881106124b4576124b3612eca565b5b60020201600001540361262c576000816000600281106124d7576124d6612eca565b5b60200201510361257757600060066000600860003373ffffffffffffffffffffffffffffffffffffffff1673ffffffffffffffffffffffffffffffffffffffff16815260200190815260200160002060009054906101000a900460ff1615151515815260200190815260200160002060008015151515815260200190815260200160002060006101000a81548160ff02191690831515021790555061262b565b60078160006002811061258d5761258c612eca565b5b60200201510361262a57600060066000600860003373ffffffffffffffffffffffffffffffffffffffff1673ffffffffffffffffffffffffffffffffffffffff16815260200190815260200160002060009054906101000a900460ff161515151581526020019081526020016000206000600115151515815260200190815260200160002060006101000a81548160ff0219169083151502179055505b5b5b50565b6040518060400160405280600081526020016000151581525090565b604051806040016040528061265e6126cd565b8152602001600081525090565b6040518060400160405280600290602082028036833780820191505090505090565b82600281019282156126bc579160200282015b828111156126bb5782518255916020019190600101906126a0565b5b5090506126c991906126ef565b5090565b6040518060600160405280600390602082028036833780820191505090505090565b5b808211156127085760008160009055506001016126f0565b5090565b600082825260208201905092915050565b50565b600061272d60008361270c565b91506127388261271d565b600082019050919050565b6000602082019050818103600083015261275c81612720565b9050919050565b6000819050919050565b7f4e487b7100000000000000000000000000000000000000000000000000000000600052601160045260246000fd5b60006127a782612763565b91506127b283612763565b9250827fffffffffffffffffffffffffffffffffffffffffffffffffffffffffffffffff038211156127e7576127e661276d565b5b828201905092915050565b6000604051905090565b600080fd5b61280a81612763565b811461281557600080fd5b50565b60008135905061282781612801565b92915050565b60008060408385031215612844576128436127fc565b5b600061285285828601612818565b925050602061286385828601612818565b9150509250929050565b61287681612763565b82525050565b60008115159050919050565b6128918161287c565b82525050565b6040820160008201516128ad600085018261286d565b5060208201516128c06020850182612888565b50505050565b60006040820190506128db6000830184612897565b92915050565b6128ea8161287c565b81146128f557600080fd5b50565b600081359050612907816128e1565b92915050565b600060208284031215612923576129226127fc565b5b6000612931848285016128f8565b91505092915050565b6129438161287c565b82525050565b600060208201905061295e600083018461293a565b92915050565b600080fd5b6000601f19601f8301169050919050565b7f4e487b7100000000000000000000000000000000000000000000000000000000600052604160045260246000fd5b6129b282612969565b810181811067ffffffffffffffff821117156129d1576129d061297a565b5b80604052505050565b60006129e46127f2565b90506129f082826129a9565b919050565b600067ffffffffffffffff821115612a1057612a0f61297a565b5b602082029050919050565b600080fd5b6000612a33612a2e846129f5565b6129da565b90508060208402830185811115612a4d57612a4c612a1b565b5b835b81811015612a765780612a628882612818565b845260208401935050602081019050612a4f565b5050509392505050565b600082601f830112612a9557612a94612964565b5b6002612aa2848285612a20565b91505092915050565b60008060808385031215612ac257612ac16127fc565b5b6000612ad085828601612a80565b9250506040612ae185828601612a80565b9150509250929050565b60008060408385031215612b0257612b016127fc565b5b6000612b10858286016128f8565b9250506020612b21858286016128f8565b9150509250929050565b612b3481612763565b82525050565b6000602082019050612b4f6000830184612b2b565b92915050565b600073ffffffffffffffffffffffffffffffffffffffff82169050919050565b6000612b8082612b55565b9050919050565b612b9081612b75565b8114612b9b57600080fd5b50565b600081359050612bad81612b87565b92915050565b600060208284031215612bc957612bc86127fc565b5b6000612bd784828501612b9e565b91505092915050565b600060208284031215612bf657612bf56127fc565b5b6000612c0484828501612818565b91505092915050565b600060039050919050565b600081905092915050565b6000819050919050565b6000612c398383612888565b60208301905092915050565b6000602082019050919050565b612c5b81612c0d565b612c658184612c18565b9250612c7082612c23565b8060005b83811015612ca1578151612c888782612c2d565b9650612c9383612c45565b925050600181019050612c74565b505050505050565b608082016000820151612cbf6000850182612c52565b506020820151612cd2606085018261286d565b50505050565b6000608082019050612ced6000830184612ca9565b92915050565b600060029050919050565b600081905092915050565b6000819050919050565b6000612d1f838361286d565b60208301905092915050565b6000602082019050919050565b612d4181612cf3565b612d4b8184612cfe565b9250612d5682612d09565b8060005b83811015612d87578151612d6e8782612d13565b9650612d7983612d2b565b925050600181019050612d5a565b505050505050565b6000604082019050612da46000830184612d38565b92915050565b612db381612b75565b82525050565b6000602082019050612dce6000830184612daa565b92915050565b60008060608385031215612deb57612dea6127fc565b5b6000612df985828601612a80565b9250506040612e0a858286016128f8565b9150509250929050565b6000819050919050565b6000612e39612e34612e2f84612b55565b612e14565b612b55565b9050919050565b6000612e4b82612e1e565b9050919050565b6000612e5d82612e40565b9050919050565b612e6d81612e52565b82525050565b6000602082019050612e886000830184612e64565b92915050565b6000612e9982612e40565b9050919050565b612ea981612e8e565b82525050565b6000602082019050612ec46000830184612ea0565b92915050565b7f4e487b7100000000000000000000000000000000000000000000000000000000600052603260045260246000fd5b600060c082019050612f0e6000830187612d38565b612f1b6040830186612d38565b612f28608083018561293a565b612f3560a0830184612b2b565b95945050505050565b600081519050612f4d816128e1565b92915050565b600060208284031215612f6957612f686127fc565b5b6000612f7784828501612f3e565b91505092915050565b7f6576696c626f7800000000000000000000000000000000000000000000000000600082015250565b6000612fb660078361270c565b9150612fc182612f80565b602082019050919050565b60006020820190508181036000830152612fe581612fa9565b9050919050565b600060029050919050565b6000819050919050565b60008160001c9050919050565b6000819050919050565b600061302b61302683613001565b61300e565b9050919050565b600061303e8254613018565b9050919050565b6000600182019050919050565b61305b81612fec565b6130658184612cfe565b925061307082612ff7565b8060005b838110156130a85761308582613032565b61308f8782612d13565b965061309a83613045565b925050600181019050613074565b505050505050565b60006080820190506130c56000830185612d38565b6130d26040830184613052565b9392505050565b6000815190506130e881612801565b92915050565b60006131016130fc846129f5565b6129da565b9050806020840283018581111561311b5761311a612a1b565b5b835b81811015613144578061313088826130d9565b84526020840193505060208101905061311d565b5050509392505050565b600082601f83011261316357613162612964565b5b60026131708482856130ee565b91505092915050565b600080606083850312156131905761318f6127fc565b5b600061319e85828601612f3e565b92505060206131af8582860161314e565b9150509250929050565b600080604083850312156131d0576131cf6127fc565b5b60006131de85828601612f3e565b92505060206131ef85828601612f3e565b9150509250929050565b6000819050919050565b600061320e826131f9565b9150613219836131f9565b9250827f8000000000000000000000000000000000000000000000000000000000000000018212600084121516156132545761325361276d565b5b827f7fffffffffffffffffffffffffffffffffffffffffffffffffffffffffffffff01821360008412161561328c5761328b61276d565b5b828203905092915050565b60006132a282612763565b91506132ad83612763565b9250828210156132c0576132bf61276d565b5b828203905092915050565b7f4e487b7100000000000000000000000000000000000000000000000000000000600052601260045260246000fd5b600061330582612763565b915061331083612763565b9250826133205761331f6132cb565b5b828204905092915050565b60006060820190506133406000830185612d38565b61334d604083018461293a565b939250505056fea2646970667358221220c95c28ea597350efef3cd8d455f9352047736701c4440f1e8a3a13f15100b32664736f6c634300080e003360806040523480156200001157600080fd5b5060405162002fce38038062002fce8339818101604052810190620000379190620000e9565b80600360006101000a81548173ffffffffffffffffffffffffffffffffffffffff021916908373ffffffffffffffffffffffffffffffffffffffff160217905550506200011b565b600080fd5b600073ffffffffffffffffffffffffffffffffffffffff82169050919050565b6000620000b18262000084565b9050919050565b620000c381620000a4565b8114620000cf57600080fd5b50565b600081519050620000e381620000b8565b92915050565b6000602082840312156200010257620001016200007f565b5b60006200011284828501620000d2565b91505092915050565b612ea3806200012b6000396000f3fe608060405234801561001057600080fd5b506004361061009e5760003560e01c80637ae2b5c7116100665780637ae2b5c714610182578063ac411ce6146101b2578063bac35119146101e2578063c03c300314610212578063ee0b07e0146102425761009e565b80631b5ac4b5146100a35780636c1b5443146100d35780636d5433e6146100f15780636d5725001461012157806371cc5ad114610151575b600080fd5b6100bd60048036038101906100b891906121b6565b610272565b6040516100ca91906121f2565b60405180910390f35b6100db610296565b6040516100e89190612226565b60405180910390f35b61010b6004803603810190610106919061226d565b61029c565b6040516101189190612226565b60405180910390f35b61013b6004803603810190610136919061242c565b6102b7565b60405161014891906124a2565b60405180910390f35b61016b600480360381019061016691906124bd565b611209565b6040516101799291906125a8565b60405180910390f35b61019c6004803603810190610197919061226d565b61149b565b6040516101a99190612226565b60405180910390f35b6101cc60048036038101906101c791906124bd565b6114b6565b6040516101d991906124a2565b60405180910390f35b6101fc60048036038101906101f791906121b6565b6120c9565b60405161020991906121f2565b60405180910390f35b61022c600480360381019061022791906121b6565b6120e5565b60405161023991906121f2565b60405180910390f35b61025c600480360381019061025791906121b6565b612134565b60405161026991906121f2565b60405180910390f35b60008082121561028d578161028690612600565b9050610291565b8190505b919050565b60005481565b60008183106102ad578290506102b1565b8190505b92915050565b600084848484811515600360009054906101000a900473ffffffffffffffffffffffffffffffffffffffff1673ffffffffffffffffffffffffffffffffffffffff16631feeef988660006002811061031257610311612648565b5b60200201518760016002811061032b5761032a612648565b5b60200201516040518363ffffffff1660e01b815260040161034d929190612677565b6040805180830381865afa158015610369573d6000803e3d6000fd5b505050506040513d601f19601f8201168201806040525081019061038d919061271f565b602001511515146103d3576040517f08c379a00000000000000000000000000000000000000000000000000000000081526004016103ca906127a9565b60405180910390fd5b826000600281106103e7576103e6612648565b5b602002015184600060028110610400576103ff612648565b5b602002015114158061044257508260016002811061042157610420612648565b5b60200201518460016002811061043a57610439612648565b5b602002015114155b610481576040517f08c379a000000000000000000000000000000000000000000000000000000000815260040161047890612815565b60405180910390fd5b6000600360009054906101000a900473ffffffffffffffffffffffffffffffffffffffff1673ffffffffffffffffffffffffffffffffffffffff16631feeef98856000600281106104d5576104d4612648565b5b6020020151866001600281106104ee576104ed612648565b5b60200201516040518363ffffffff1660e01b8152600401610510929190612677565b6040805180830381865afa15801561052c573d6000803e3d6000fd5b505050506040513d601f19601f82011682018060405250810190610550919061271f565b600001511461067057811515600360009054906101000a900473ffffffffffffffffffffffffffffffffffffffff1673ffffffffffffffffffffffffffffffffffffffff16631feeef98856000600281106105ae576105ad612648565b5b6020020151866001600281106105c7576105c6612648565b5b60200201516040518363ffffffff1660e01b81526004016105e9929190612677565b6040805180830381865afa158015610605573d6000803e3d6000fd5b505050506040513d601f19601f82011682018060405250810190610629919061271f565b6020015115150361066f576040517f08c379a000000000000000000000000000000000000000000000000000000000815260040161066690612881565b60405180910390fd5b5b8360006002811061068457610683612648565b5b60200201518360006002811061069d5761069c612648565b5b60200201516106ac91906128a1565b600181905550836001600281106106c6576106c5612648565b5b6020020151836001600281106106df576106de612648565b5b60200201516106ee91906128a1565b600281905550600061070085856114b6565b905080610742576040517f08c379a000000000000000000000000000000000000000000000000000000000815260040161073990612981565b60405180910390fd5b6005600360009054906101000a900473ffffffffffffffffffffffffffffffffffffffff1673ffffffffffffffffffffffffffffffffffffffff16631feeef988760006002811061079657610795612648565b5b6020020151886001600281106107af576107ae612648565b5b60200201516040518363ffffffff1660e01b81526004016107d1929190612677565b6040805180830381865afa1580156107ed573d6000803e3d6000fd5b505050506040513d601f19601f82011682018060405250810190610811919061271f565b6000015103610ddc576000856001600281106108305761082f612648565b5b602002015114801561085a575060048560006002811061085357610852612648565b5b6020020151145b801561090857506005600360009054906101000a900473ffffffffffffffffffffffffffffffffffffffff1673ffffffffffffffffffffffffffffffffffffffff16631feeef98600460006040518363ffffffff1660e01b81526004016108c2929190612a21565b6040805180830381865afa1580156108de573d6000803e3d6000fd5b505050506040513d601f19601f82011682018060405250810190610902919061271f565b60000151145b8015610af2575060008460016002811061092557610924612648565b5b602002015114801561094f575060068460006002811061094857610947612648565b5b6020020151145b80156109fd57506002600360009054906101000a900473ffffffffffffffffffffffffffffffffffffffff1673ffffffffffffffffffffffffffffffffffffffff16631feeef98600760006040518363ffffffff1660e01b81526004016109b7929190612a85565b6040805180830381865afa1580156109d3573d6000803e3d6000fd5b505050506040513d601f19601f820116820180604052508101906109f7919061271f565b60000151145b80610af15750600084600160028110610a1957610a18612648565b5b6020020151148015610a435750600284600060028110610a3c57610a3b612648565b5b6020020151145b8015610af057506002600360009054906101000a900473ffffffffffffffffffffffffffffffffffffffff1673ffffffffffffffffffffffffffffffffffffffff16631feeef986000806040518363ffffffff1660e01b8152600401610aaa929190612aae565b6040805180830381865afa158015610ac6573d6000803e3d6000fd5b505050506040513d601f19601f82011682018060405250810190610aea919061271f565b60000151145b5b5b80610dd15750600785600160028110610b0e57610b0d612648565b5b6020020151148015610b385750600385600060028110610b3157610b30612648565b5b6020020151145b8015610be657506005600360009054906101000a900473ffffffffffffffffffffffffffffffffffffffff1673ffffffffffffffffffffffffffffffffffffffff16631feeef98600360076040518363ffffffff1660e01b8152600401610ba0929190612b12565b6040805180830381865afa158015610bbc573d6000803e3d6000fd5b505050506040513d601f19601f82011682018060405250810190610be0919061271f565b60000151145b8015610dd05750600184600160028110610c0357610c02612648565b5b6020020151148015610c2d5750600784600060028110610c2657610c25612648565b5b6020020151145b8015610cda57506002600360009054906101000a900473ffffffffffffffffffffffffffffffffffffffff1673ffffffffffffffffffffffffffffffffffffffff16631feeef986007806040518363ffffffff1660e01b8152600401610c94929190612b3b565b6040805180830381865afa158015610cb0573d6000803e3d6000fd5b505050506040513d601f19601f82011682018060405250810190610cd4919061271f565b60000151145b80610dcf5750600584600160028110610cf657610cf5612648565b5b6020020151148015610d205750600284600060028110610d1957610d18612648565b5b6020020151145b8015610dce57506002600360009054906101000a900473ffffffffffffffffffffffffffffffffffffffff1673ffffffffffffffffffffffffffffffffffffffff16631feeef98600060076040518363ffffffff1660e01b8152600401610d88929190612b64565b6040805180830381865afa158015610da4573d6000803e3d6000fd5b505050506040513d601f19601f82011682018060405250810190610dc8919061271f565b60000151145b5b5b5b15610ddb57600291505b5b60038060009054906101000a900473ffffffffffffffffffffffffffffffffffffffff1673ffffffffffffffffffffffffffffffffffffffff16631feeef9887600060028110610e2f57610e2e612648565b5b602002015188600160028110610e4857610e47612648565b5b60200201516040518363ffffffff1660e01b8152600401610e6a929190612677565b6040805180830381865afa158015610e86573d6000803e3d6000fd5b505050506040513d601f19601f82011682018060405250810190610eaa919061271f565b60000151146111f8576001600360009054906101000a900473ffffffffffffffffffffffffffffffffffffffff1673ffffffffffffffffffffffffffffffffffffffff16631feeef9887600060028110610f0757610f06612648565b5b602002015188600160028110610f2057610f1f612648565b5b60200201516040518363ffffffff1660e01b8152600401610f42929190612677565b6040805180830381865afa158015610f5e573d6000803e3d6000fd5b505050506040513d601f19601f82011682018060405250810190610f82919061271f565b600001510361113657600083156110345784600160028110610fa757610fa6612648565b5b602002015186600160028110610fc057610fbf612648565b5b602002015111611005576040517f08c379a0000000000000000000000000000000000000000000000000000000008152600401610ffc90612bb3565b60405180910390fd5b60068660016002811061101b5761101a612648565b5b60200201510361102e5760019050611033565b600090505b5b836110da578460016002811061104d5761104c612648565b5b60200201518660016002811061106657611065612648565b5b6020020151106110ab576040517f08c379a00000000000000000000000000000000000000000000000000000000081526004016110a290612bb3565b60405180910390fd5b6001866001600281106110c1576110c0612648565b5b6020020151036110d457600190506110d9565b600090505b5b6002611120876001600281106110f3576110f2612648565b5b60200201518760016002811061110c5761110b612648565b5b602002015161111b91906128a1565b610272565b14801561112a5750805b1561113457600292505b505b611141600154610272565b821015801561115a5750611156600254610272565b8210155b611199576040517f08c379a000000000000000000000000000000000000000000000000000000000815260040161119090612c1f565b60405180910390fd5b60006111a361214f565b6111ad8787611209565b8092508193505050816111f5576040517f08c379a00000000000000000000000000000000000000000000000000000000081526004016111ec90612c8b565b60405180910390fd5b50505b600195505050505050949350505050565b600061121361214f565b60008460006002811061122957611228612648565b5b60200201518460006002811061124257611241612648565b5b602002015161125191906128a1565b905060008560016002811061126957611268612648565b5b60200201518560016002811061128257611281612648565b5b602002015161129191906128a1565b9050600061129e836120e5565b905060006112ab836120e5565b90506000886000600281106112c3576112c2612648565b5b602002015190506000896001600281106112e0576112df612648565b5b60200201519050600197505b88600060028110611300576112ff612648565b5b60200201518214158061132b57508860016002811061132257611321612648565b5b60200201518114155b1561148e57611344848361133f9190612cab565b6120c9565b915061135a83826113559190612cab565b6120c9565b90506000600360009054906101000a900473ffffffffffffffffffffffffffffffffffffffff1673ffffffffffffffffffffffffffffffffffffffff16631feeef9884846040518363ffffffff1660e01b81526004016113bb929190612677565b6040805180830381865afa1580156113d7573d6000803e3d6000fd5b505050506040513d601f19601f820116820180604052508101906113fb919061271f565b60000151141580156114495750818960006002811061141d5761141c612648565b5b602002015114158015611448575080896001600281106114405761143f612648565b5b602002015114155b5b1561146e5760009750604051806040016040528083815260200182815250965061148e565b6001975060405180604001604052808381526020018281525096506112ec565b5050505050509250929050565b60008183116114ac578290506114b0565b8190505b92915050565b600080836000600281106114cd576114cc612648565b5b6020020151836000600281106114e6576114e5612648565b5b60200201516114f591906128a1565b905060008460016002811061150d5761150c612648565b5b60200201518460016002811061152657611525612648565b5b602002015161153591906128a1565b9050600082141580156115485750600081145b156116ec57600360009054906101000a900473ffffffffffffffffffffffffffffffffffffffff1673ffffffffffffffffffffffffffffffffffffffff16638f7daf0f600360009054906101000a900473ffffffffffffffffffffffffffffffffffffffff1673ffffffffffffffffffffffffffffffffffffffff16631feeef98886000600281106115dd576115dc612648565b5b6020020151896001600281106115f6576115f5612648565b5b60200201516040518363ffffffff1660e01b8152600401611618929190612677565b6040805180830381865afa158015611634573d6000803e3d6000fd5b505050506040513d601f19601f82011682018060405250810190611658919061271f565b600001516040518263ffffffff1660e01b81526004016116789190612226565b608060405180830381865afa158015611695573d6000803e3d6000fd5b505050506040513d601f19601f820116820180604052508101906116b99190612e40565b600001516000600381106116d0576116cf612648565b5b60200201516116e257600092506116e7565b600192505b6120c1565b600081141580156116fd5750600082145b156118a157600360009054906101000a900473ffffffffffffffffffffffffffffffffffffffff1673ffffffffffffffffffffffffffffffffffffffff16638f7daf0f600360009054906101000a900473ffffffffffffffffffffffffffffffffffffffff1673ffffffffffffffffffffffffffffffffffffffff16631feeef988860006002811061179257611791612648565b5b6020020151896001600281106117ab576117aa612648565b5b60200201516040518363ffffffff1660e01b81526004016117cd929190612677565b6040805180830381865afa1580156117e9573d6000803e3d6000fd5b505050506040513d601f19601f8201168201806040525081019061180d919061271f565b600001516040518263ffffffff1660e01b815260040161182d9190612226565b608060405180830381865afa15801561184a573d6000803e3d6000fd5b505050506040513d601f19601f8201168201806040525081019061186e9190612e40565b6000015160016003811061188557611884612648565b5b6020020151611897576000925061189c565b600192505b6120c0565b600082141580156118c157506118b681610272565b6118bf83610272565b145b15611f83576001600360009054906101000a900473ffffffffffffffffffffffffffffffffffffffff1673ffffffffffffffffffffffffffffffffffffffff16631feeef988760006002811061191a57611919612648565b5b60200201518860016002811061193357611932612648565b5b60200201516040518363ffffffff1660e01b8152600401611955929190612677565b6040805180830381865afa158015611971573d6000803e3d6000fd5b505050506040513d601f19601f82011682018060405250810190611995919061271f565b60000151148015611a7757506000600360009054906101000a900473ffffffffffffffffffffffffffffffffffffffff1673ffffffffffffffffffffffffffffffffffffffff16631feeef98866000600281106119f5576119f4612648565b5b602002015187600160028110611a0e57611a0d612648565b5b60200201516040518363ffffffff1660e01b8152600401611a30929190612677565b6040805180830381865afa158015611a4c573d6000803e3d6000fd5b505050506040513d601f19601f82011682018060405250810190611a70919061271f565b6000015114155b8015611a8b57506001611a8983610272565b145b15611a995760019250611f7e565b600360009054906101000a900473ffffffffffffffffffffffffffffffffffffffff1673ffffffffffffffffffffffffffffffffffffffff16638f7daf0f600360009054906101000a900473ffffffffffffffffffffffffffffffffffffffff1673ffffffffffffffffffffffffffffffffffffffff16631feeef9888600060028110611b2957611b28612648565b5b602002015189600160028110611b4257611b41612648565b5b60200201516040518363ffffffff1660e01b8152600401611b64929190612677565b6040805180830381865afa158015611b80573d6000803e3d6000fd5b505050506040513d601f19601f82011682018060405250810190611ba4919061271f565b600001516040518263ffffffff1660e01b8152600401611bc49190612226565b608060405180830381865afa158015611be1573d6000803e3d6000fd5b505050506040513d601f19601f82011682018060405250810190611c059190612e40565b60000151600260038110611c1c57611c1b612648565b5b6020020151158015611cff57506001600360009054906101000a900473ffffffffffffffffffffffffffffffffffffffff1673ffffffffffffffffffffffffffffffffffffffff16631feeef9887600060028110611c7d57611c7c612648565b5b602002015188600160028110611c9657611c95612648565b5b60200201516040518363ffffffff1660e01b8152600401611cb8929190612677565b6040805180830381865afa158015611cd4573d6000803e3d6000fd5b505050506040513d601f19601f82011682018060405250810190611cf8919061271f565b6000015114155b15611d0d5760009250611f7d565b600360009054906101000a900473ffffffffffffffffffffffffffffffffffffffff1673ffffffffffffffffffffffffffffffffffffffff16638f7daf0f600360009054906101000a900473ffffffffffffffffffffffffffffffffffffffff1673ffffffffffffffffffffffffffffffffffffffff16631feeef9888600060028110611d9d57611d9c612648565b5b602002015189600160028110611db657611db5612648565b5b60200201516040518363ffffffff1660e01b8152600401611dd8929190612677565b6040805180830381865afa158015611df4573d6000803e3d6000fd5b505050506040513d601f19601f82011682018060405250810190611e18919061271f565b600001516040518263ffffffff1660e01b8152600401611e389190612226565b608060405180830381865afa158015611e55573d6000803e3d6000fd5b505050506040513d601f19601f82011682018060405250810190611e799190612e40565b60000151600260038110611e9057611e8f612648565b5b60200201518015611f7257506001600360009054906101000a900473ffffffffffffffffffffffffffffffffffffffff1673ffffffffffffffffffffffffffffffffffffffff16631feeef9887600060028110611ef057611eef612648565b5b602002015188600160028110611f0957611f08612648565b5b60200201516040518363ffffffff1660e01b8152600401611f2b929190612677565b6040805180830381865afa158015611f47573d6000803e3d6000fd5b505050506040513d601f19601f82011682018060405250810190611f6b919061271f565b6000015114155b15611f7c57600192505b5b5b6120bf565b6002611f8e83610272565b148015611fa357506001611fa182610272565b145b80611fca57506001611fb483610272565b148015611fc957506002611fc782610272565b145b5b156120b95760038060009054906101000a900473ffffffffffffffffffffffffffffffffffffffff1673ffffffffffffffffffffffffffffffffffffffff16631feeef988760006002811061202257612021612648565b5b60200201518860016002811061203b5761203a612648565b5b60200201516040518363ffffffff1660e01b815260040161205d929190612677565b6040805180830381865afa158015612079573d6000803e3d6000fd5b505050506040513d601f19601f8201168201806040525081019061209d919061271f565b60000151146120af57600092506120b4565b600192505b6120be565b600092505b5b5b5b505092915050565b6000600782136120db578190506120e0565b600790505b919050565b600080821215612117577fffffffffffffffffffffffffffffffffffffffffffffffffffffffffffffffff905061212f565b6000821315612129576001905061212e565b600090505b5b919050565b60008082126121455781905061214a565b600090505b919050565b6040518060400160405280600290602082028036833780820191505090505090565b6000604051905090565b600080fd5b6000819050919050565b61219381612180565b811461219e57600080fd5b50565b6000813590506121b08161218a565b92915050565b6000602082840312156121cc576121cb61217b565b5b60006121da848285016121a1565b91505092915050565b6121ec81612180565b82525050565b600060208201905061220760008301846121e3565b92915050565b6000819050919050565b6122208161220d565b82525050565b600060208201905061223b6000830184612217565b92915050565b61224a8161220d565b811461225557600080fd5b50565b60008135905061226781612241565b92915050565b600080604083850312156122845761228361217b565b5b600061229285828601612258565b92505060206122a385828601612258565b9150509250929050565b600080fd5b6000601f19601f8301169050919050565b7f4e487b7100000000000000000000000000000000000000000000000000000000600052604160045260246000fd5b6122fb826122b2565b810181811067ffffffffffffffff8211171561231a576123196122c3565b5b80604052505050565b600061232d612171565b905061233982826122f2565b919050565b600067ffffffffffffffff821115612359576123586122c3565b5b602082029050919050565b600080fd5b600061237c6123778461233e565b612323565b9050806020840283018581111561239657612395612364565b5b835b818110156123bf57806123ab8882612258565b845260208401935050602081019050612398565b5050509392505050565b600082601f8301126123de576123dd6122ad565b5b60026123eb848285612369565b91505092915050565b60008115159050919050565b612409816123f4565b811461241457600080fd5b50565b60008135905061242681612400565b92915050565b60008060008060c085870312156124465761244561217b565b5b6000612454878288016123c9565b9450506040612465878288016123c9565b935050608061247687828801612417565b92505060a061248787828801612258565b91505092959194509250565b61249c816123f4565b82525050565b60006020820190506124b76000830184612493565b92915050565b600080608083850312156124d4576124d361217b565b5b60006124e2858286016123c9565b92505060406124f3858286016123c9565b9150509250929050565b600060029050919050565b600081905092915050565b6000819050919050565b6125268161220d565b82525050565b6000612538838361251d565b60208301905092915050565b6000602082019050919050565b61255a816124fd565b6125648184612508565b925061256f82612513565b8060005b838110156125a0578151612587878261252c565b965061259283612544565b925050600181019050612573565b505050505050565b60006060820190506125bd6000830185612493565b6125ca6020830184612551565b9392505050565b7f4e487b7100000000000000000000000000000000000000000000000000000000600052601160045260246000fd5b600061260b82612180565b91507f8000000000000000000000000000000000000000000000000000000000000000820361263d5761263c6125d1565b5b816000039050919050565b7f4e487b7100000000000000000000000000000000000000000000000000000000600052603260045260246000fd5b600060408201905061268c6000830185612217565b6126996020830184612217565b9392505050565b600080fd5b6000815190506126b481612241565b92915050565b6000815190506126c981612400565b92915050565b6000604082840312156126e5576126e46126a0565b5b6126ef6040612323565b905060006126ff848285016126a5565b6000830152506020612713848285016126ba565b60208301525092915050565b6000604082840312156127355761273461217b565b5b6000612743848285016126cf565b91505092915050565b600082825260208201905092915050565b7f6e6f742079207000000000000000000000000000000000000000000000000000600082015250565b600061279360078361274c565b915061279e8261275d565b602082019050919050565b600060208201905081810360008301526127c281612786565b9050919050565b7f73706f7374617469000000000000000000000000000000000000000000000000600082015250565b60006127ff60088361274c565b915061280a826127c9565b602082019050919050565b6000602082019050818103600083015261282e816127f2565b9050919050565b7f6666000000000000000000000000000000000000000000000000000000000000600082015250565b600061286b60028361274c565b915061287682612835565b602082019050919050565b6000602082019050818103600083015261289a8161285e565b9050919050565b60006128ac82612180565b91506128b783612180565b9250827f8000000000000000000000000000000000000000000000000000000000000000018212600084121516156128f2576128f16125d1565b5b827f7fffffffffffffffffffffffffffffffffffffffffffffffffffffffffffffff01821360008412161561292a576129296125d1565b5b828203905092915050565b7f6469726d00000000000000000000000000000000000000000000000000000000600082015250565b600061296b60048361274c565b915061297682612935565b602082019050919050565b6000602082019050818103600083015261299a8161295e565b9050919050565b6000819050919050565b6000819050919050565b60006129d06129cb6129c6846129a1565b6129ab565b61220d565b9050919050565b6129e0816129b5565b82525050565b6000819050919050565b6000612a0b612a06612a01846129e6565b6129ab565b61220d565b9050919050565b612a1b816129f0565b82525050565b6000604082019050612a3660008301856129d7565b612a436020830184612a12565b9392505050565b6000819050919050565b6000612a6f612a6a612a6584612a4a565b6129ab565b61220d565b9050919050565b612a7f81612a54565b82525050565b6000604082019050612a9a6000830185612a76565b612aa76020830184612a12565b9392505050565b6000604082019050612ac36000830185612a12565b612ad06020830184612a12565b9392505050565b6000819050919050565b6000612afc612af7612af284612ad7565b6129ab565b61220d565b9050919050565b612b0c81612ae1565b82525050565b6000604082019050612b276000830185612b03565b612b346020830184612a76565b9392505050565b6000604082019050612b506000830185612a76565b612b5d6020830184612a76565b9392505050565b6000604082019050612b796000830185612a12565b612b866020830184612a76565b9392505050565b50565b6000612b9d60008361274c565b9150612ba882612b8d565b600082019050919050565b60006020820190508181036000830152612bcc81612b90565b9050919050565b7f6d61780000000000000000000000000000000000000000000000000000000000600082015250565b6000612c0960038361274c565b9150612c1482612bd3565b602082019050919050565b60006020820190508181036000830152612c3881612bfc565b9050919050565b7f6f62730000000000000000000000000000000000000000000000000000000000600082015250565b6000612c7560038361274c565b9150612c8082612c3f565b602082019050919050565b60006020820190508181036000830152612ca481612c68565b9050919050565b6000612cb682612180565b9150612cc183612180565b9250817f7fffffffffffffffffffffffffffffffffffffffffffffffffffffffffffffff03831360008312151615612cfc57612cfb6125d1565b5b817f8000000000000000000000000000000000000000000000000000000000000000038312600083121615612d3457612d336125d1565b5b828201905092915050565b600067ffffffffffffffff821115612d5a57612d596122c3565b5b602082029050919050565b6000612d78612d7384612d3f565b612323565b90508060208402830185811115612d9257612d91612364565b5b835b81811015612dbb5780612da788826126ba565b845260208401935050602081019050612d94565b5050509392505050565b600082601f830112612dda57612dd96122ad565b5b6003612de7848285612d65565b91505092915050565b600060808284031215612e0657612e056126a0565b5b612e106040612323565b90506000612e2084828501612dc5565b6000830152506060612e34848285016126a5565b60208301525092915050565b600060808284031215612e5657612e5561217b565b5b6000612e6484828501612df0565b9150509291505056fea26469706673582212200ad469867f718afbb40990e8cb81894e41a31d4072525cbc983c7bb292ed232f64736f6c634300080e003360806040523480156200001157600080fd5b50604051620024ce380380620024ce83398181016040528101906200003791906200016f565b816000806101000a81548173ffffffffffffffffffffffffffffffffffffffff021916908373ffffffffffffffffffffffffffffffffffffffff16021790555080600160006101000a81548173ffffffffffffffffffffffffffffffffffffffff021916908373ffffffffffffffffffffffffffffffffffffffff1602179055505050620001b6565b600080fd5b600073ffffffffffffffffffffffffffffffffffffffff82169050919050565b6000620000f282620000c5565b9050919050565b6200010481620000e5565b81146200011057600080fd5b50565b6000815190506200012481620000f9565b92915050565b60006200013782620000c5565b9050919050565b62000149816200012a565b81146200015557600080fd5b50565b60008151905062000169816200013e565b92915050565b60008060408385031215620001895762000188620000c0565b5b6000620001998582860162000113565b9250506020620001ac8582860162000158565b9150509250929050565b61230880620001c66000396000f3fe608060405234801561001057600080fd5b50600436106100415760003560e01c8063155b47e8146100465780632f1d8074146100765780638b69cfad146100a7575b600080fd5b610060600480360381019061005b91906118fb565b6100d8565b60405161006d9190611937565b60405180910390f35b610090600480360381019061008b9190611acf565b610d75565b60405161009e929190611bba565b60405180910390f35b6100c160048036038101906100bc91906118fb565b611583565b6040516100cf929190611be3565b60405180910390f35b6000600160009054906101000a900473ffffffffffffffffffffffffffffffffffffffff1673ffffffffffffffffffffffffffffffffffffffff163373ffffffffffffffffffffffffffffffffffffffff161461016a576040517f08c379a000000000000000000000000000000000000000000000000000000000815260040161016190611c43565b60405180910390fd5b6000600160009054906101000a900473ffffffffffffffffffffffffffffffffffffffff1673ffffffffffffffffffffffffffffffffffffffff1663915b740d846040518263ffffffff1660e01b81526004016101c79190611937565b6040805180830381865afa1580156101e3573d6000803e3d6000fd5b505050506040513d601f19601f820116820180604052508101906102079190611d03565b90506102476040518060400160405280600381526020017f706f730000000000000000000000000000000000000000000000000000000000815250611714565b6102688160006002811061025e5761025d611d30565b5b60200201516117ad565b6102898160016002811061027f5761027e611d30565b5b60200201516117ad565b61029161186f565b600080600080600080600080610390604051806040016040528060008054906101000a900473ffffffffffffffffffffffffffffffffffffffff1673ffffffffffffffffffffffffffffffffffffffff1663bac3511960018f6000600281106102fd576102fc611d30565b5b602002015161030c9190611d98565b6040518263ffffffff1660e01b81526004016103289190611e3b565b602060405180830381865afa158015610345573d6000803e3d6000fd5b505050506040513d601f19601f820116820180604052508101906103699190611e82565b81526020018c60016002811061038257610381611d30565b5b60200201518152508d610d75565b809a50819950505061048b604051806040016040528060008054906101000a900473ffffffffffffffffffffffffffffffffffffffff1673ffffffffffffffffffffffffffffffffffffffff1663ee0b07e060018f6000600281106103f8576103f7611d30565b5b60200201516104079190611eaf565b6040518263ffffffff1660e01b81526004016104239190611e3b565b602060405180830381865afa158015610440573d6000803e3d6000fd5b505050506040513d601f19601f820116820180604052508101906104649190611e82565b81526020018c60016002811061047d5761047c611d30565b5b60200201518152508d610d75565b809a50819850505061058660405180604001604052808c6000600281106104b5576104b4611d30565b5b6020020151815260200160008054906101000a900473ffffffffffffffffffffffffffffffffffffffff1673ffffffffffffffffffffffffffffffffffffffff1663bac3511960018f60016002811061051157610510611d30565b5b60200201516105209190611d98565b6040518263ffffffff1660e01b815260040161053c9190611e3b565b602060405180830381865afa158015610559573d6000803e3d6000fd5b505050506040513d601f19601f8201168201806040525081019061057d9190611e82565b8152508d610d75565b809a50819750505061068160405180604001604052808c6000600281106105b0576105af611d30565b5b6020020151815260200160008054906101000a900473ffffffffffffffffffffffffffffffffffffffff1673ffffffffffffffffffffffffffffffffffffffff1663bac3511960018f60016002811061060c5761060b611d30565b5b602002015161061b9190611eaf565b6040518263ffffffff1660e01b81526004016106379190611e3b565b602060405180830381865afa158015610654573d6000803e3d6000fd5b505050506040513d601f19601f820116820180604052508101906106789190611e82565b8152508d610d75565b809a508196505050610821604051806040016040528060008054906101000a900473ffffffffffffffffffffffffffffffffffffffff1673ffffffffffffffffffffffffffffffffffffffff1663bac3511960018f6000600281106106e9576106e8611d30565b5b60200201516106f89190611d98565b6040518263ffffffff1660e01b81526004016107149190611e3b565b602060405180830381865afa158015610731573d6000803e3d6000fd5b505050506040513d601f19601f820116820180604052508101906107559190611e82565b815260200160008054906101000a900473ffffffffffffffffffffffffffffffffffffffff1673ffffffffffffffffffffffffffffffffffffffff1663bac3511960018f6001600281106107ac576107ab611d30565b5b60200201516107bb9190611d98565b6040518263ffffffff1660e01b81526004016107d79190611e3b565b602060405180830381865afa1580156107f4573d6000803e3d6000fd5b505050506040513d601f19601f820116820180604052508101906108189190611e82565b8152508d610d75565b809a5081955050506109c1604051806040016040528060008054906101000a900473ffffffffffffffffffffffffffffffffffffffff1673ffffffffffffffffffffffffffffffffffffffff1663bac3511960018f60006002811061088957610888611d30565b5b60200201516108989190611d98565b6040518263ffffffff1660e01b81526004016108b49190611e3b565b602060405180830381865afa1580156108d1573d6000803e3d6000fd5b505050506040513d601f19601f820116820180604052508101906108f59190611e82565b815260200160008054906101000a900473ffffffffffffffffffffffffffffffffffffffff1673ffffffffffffffffffffffffffffffffffffffff1663bac3511960018f60016002811061094c5761094b611d30565b5b602002015161095b9190611eaf565b6040518263ffffffff1660e01b81526004016109779190611e3b565b602060405180830381865afa158015610994573d6000803e3d6000fd5b505050506040513d601f19601f820116820180604052508101906109b89190611e82565b8152508d610d75565b809a508194505050610b61604051806040016040528060008054906101000a900473ffffffffffffffffffffffffffffffffffffffff1673ffffffffffffffffffffffffffffffffffffffff1663bac3511960018f600060028110610a2957610a28611d30565b5b6020020151610a389190611eaf565b6040518263ffffffff1660e01b8152600401610a549190611e3b565b602060405180830381865afa158015610a71573d6000803e3d6000fd5b505050506040513d601f19601f82011682018060405250810190610a959190611e82565b815260200160008054906101000a900473ffffffffffffffffffffffffffffffffffffffff1673ffffffffffffffffffffffffffffffffffffffff1663bac3511960018f600160028110610aec57610aeb611d30565b5b6020020151610afb9190611d98565b6040518263ffffffff1660e01b8152600401610b179190611e3b565b602060405180830381865afa158015610b34573d6000803e3d6000fd5b505050506040513d601f19601f82011682018060405250810190610b589190611e82565b8152508d610d75565b809a508193505050610d01604051806040016040528060008054906101000a900473ffffffffffffffffffffffffffffffffffffffff1673ffffffffffffffffffffffffffffffffffffffff1663bac3511960018f600060028110610bc957610bc8611d30565b5b6020020151610bd89190611eaf565b6040518263ffffffff1660e01b8152600401610bf49190611e3b565b602060405180830381865afa158015610c11573d6000803e3d6000fd5b505050506040513d601f19601f82011682018060405250810190610c359190611e82565b815260200160008054906101000a900473ffffffffffffffffffffffffffffffffffffffff1673ffffffffffffffffffffffffffffffffffffffff1663bac3511960018f600160028110610c8c57610c8b611d30565b5b6020020151610c9b9190611eaf565b6040518263ffffffff1660e01b8152600401610cb79190611e3b565b602060405180830381865afa158015610cd4573d6000803e3d6000fd5b505050506040513d601f19601f82011682018060405250810190610cf89190611e82565b8152508d610d75565b809a508192505050878015610d135750865b8015610d1c5750855b8015610d255750845b8015610d2e5750835b8015610d375750825b8015610d405750815b8015610d495750805b15610d615760019a5050505050505050505050610d70565b60009a50505050505050505050505b919050565b6000610d7f61186f565b610d87611891565b610d8f611891565b600082600060088110610da557610da4611d30565b5b60200201818152505085600160028110610dc257610dc1611d30565b5b602002015181600060088110610ddb57610dda611d30565b5b602002018181525050600782600160088110610dfa57610df9611d30565b5b60200201818152505085600160028110610e1757610e16611d30565b5b602002015181600160088110610e3057610e2f611d30565b5b60200201818152505085600060028110610e4d57610e4c611d30565b5b602002015182600260088110610e6657610e65611d30565b5b602002018181525050600081600260088110610e8557610e84611d30565b5b60200201818152505085600060028110610ea257610ea1611d30565b5b602002015182600360088110610ebb57610eba611d30565b5b602002018181525050600781600360088110610eda57610ed9611d30565b5b60200201818152505085600060028110610ef757610ef6611d30565b5b602002015182600460088110610f1057610f0f611d30565b5b60200201818152505085600160028110610f2d57610f2c611d30565b5b602002015181600460088110610f4657610f45611d30565b5b60200201818152505085600060028110610f6357610f62611d30565b5b602002015182600560088110610f7c57610f7b611d30565b5b60200201818152505085600160028110610f9957610f98611d30565b5b602002015181600560088110610fb257610fb1611d30565b5b60200201818152505085600060028110610fcf57610fce611d30565b5b602002015182600660088110610fe857610fe7611d30565b5b6020020181815250508560016002811061100557611004611d30565b5b60200201518160066008811061101e5761101d611d30565b5b6020020181815250508560006002811061103b5761103a611d30565b5b60200201518260076008811061105457611053611d30565b5b6020020181815250508560016002811061107157611070611d30565b5b60200201518160076008811061108a57611089611d30565b5b60200201818152505060005b60088110156115745760008054906101000a900473ffffffffffffffffffffffffffffffffffffffff1673ffffffffffffffffffffffffffffffffffffffff166371cc5ad18860405180604001604052808786600881106110fa576110f9611d30565b5b6020020151815260200186866008811061111757611116611d30565b5b60200201518152506040518363ffffffff1660e01b815260040161113c929190611f43565b606060405180830381865afa158015611159573d6000803e3d6000fd5b505050506040513d601f19601f8201168201806040525081019061117d9190611f81565b809550819650505060008054906101000a900473ffffffffffffffffffffffffffffffffffffffff1673ffffffffffffffffffffffffffffffffffffffff1663ac411ce685896040518363ffffffff1660e01b81526004016111e0929190611f43565b602060405180830381865afa1580156111fd573d6000803e3d6000fd5b505050506040513d601f19601f820116820180604052508101906112219190611fc1565b8015611470575060008054906101000a900473ffffffffffffffffffffffffffffffffffffffff1673ffffffffffffffffffffffffffffffffffffffff16631b5ac4b58860016002811061127857611277611d30565b5b60200201518660016002811061129157611290611d30565b5b60200201516112a09190611eaf565b6040518263ffffffff1660e01b81526004016112bc9190611e3b565b602060405180830381865afa1580156112d9573d6000803e3d6000fd5b505050506040513d601f19601f820116820180604052508101906112fd9190611e82565b600160009054906101000a900473ffffffffffffffffffffffffffffffffffffffff1673ffffffffffffffffffffffffffffffffffffffff16638f7daf0f600160009054906101000a900473ffffffffffffffffffffffffffffffffffffffff1673ffffffffffffffffffffffffffffffffffffffff16631feeef988860006002811061138d5761138c611d30565b5b6020020151896001600281106113a6576113a5611d30565b5b60200201516040518363ffffffff1660e01b81526004016113c8929190611ffd565b6040805180830381865afa1580156113e4573d6000803e3d6000fd5b505050506040513d601f19601f82011682018060405250810190611408919061207b565b600001516040518263ffffffff1660e01b815260040161142891906120a8565b608060405180830381865afa158015611445573d6000803e3d6000fd5b505050506040513d601f19601f8201168201806040525081019061146991906121c4565b6020015110155b80156115505750851515600160009054906101000a900473ffffffffffffffffffffffffffffffffffffffff1673ffffffffffffffffffffffffffffffffffffffff16631feeef98866000600281106114cc576114cb611d30565b5b6020020151876001600281106114e5576114e4611d30565b5b60200201516040518363ffffffff1660e01b8152600401611507929190611ffd565b6040805180830381865afa158015611523573d6000803e3d6000fd5b505050506040513d601f19601f82011682018060405250810190611547919061207b565b60200151151514155b15611561576001945050505061157c565b808061156c906121f1565b915050611096565b506000935050505b9250929050565b600080600160009054906101000a900473ffffffffffffffffffffffffffffffffffffffff1673ffffffffffffffffffffffffffffffffffffffff1663fe9ba8ec846040518263ffffffff1660e01b81526004016115e19190611937565b602060405180830381865afa1580156115fe573d6000803e3d6000fd5b505050506040513d601f19601f820116820180604052508101906116229190611fc1565b80156116335750611632836100d8565b5b1561164557600191506001905061170f565b600160009054906101000a900473ffffffffffffffffffffffffffffffffffffffff1673ffffffffffffffffffffffffffffffffffffffff1663fe9ba8ec846040518263ffffffff1660e01b81526004016116a09190611937565b602060405180830381865afa1580156116bd573d6000803e3d6000fd5b505050506040513d601f19601f820116820180604052508101906116e19190611fc1565b1580156116f357506116f2836100d8565b5b1561170557600091506001905061170e565b60009150600090505b5b915091565b6117aa8160405160240161172891906122b0565b6040516020818303038152906040527f41304fac000000000000000000000000000000000000000000000000000000007bffffffffffffffffffffffffffffffffffffffffffffffffffffffff19166020820180517bffffffffffffffffffffffffffffffffffffffffffffffffffffffff8381831617835250505050611846565b50565b611843816040516024016117c191906120a8565b6040516020818303038152906040527ff5b1bba9000000000000000000000000000000000000000000000000000000007bffffffffffffffffffffffffffffffffffffffffffffffffffffffff19166020820180517bffffffffffffffffffffffffffffffffffffffffffffffffffffffff8381831617835250505050611846565b50565b60008151905060006a636f6e736f6c652e6c6f679050602083016000808483855afa5050505050565b6040518060400160405280600290602082028036833780820191505090505090565b604051806101000160405280600890602082028036833780820191505090505090565b6000604051905090565b600080fd5b60008115159050919050565b6118d8816118c3565b81146118e357600080fd5b50565b6000813590506118f5816118cf565b92915050565b600060208284031215611911576119106118be565b5b600061191f848285016118e6565b91505092915050565b611931816118c3565b82525050565b600060208201905061194c6000830184611928565b92915050565b600080fd5b6000601f19601f8301169050919050565b7f4e487b7100000000000000000000000000000000000000000000000000000000600052604160045260246000fd5b6119a082611957565b810181811067ffffffffffffffff821117156119bf576119be611968565b5b80604052505050565b60006119d26118b4565b90506119de8282611997565b919050565b600067ffffffffffffffff8211156119fe576119fd611968565b5b602082029050919050565b600080fd5b6000819050919050565b611a2181611a0e565b8114611a2c57600080fd5b50565b600081359050611a3e81611a18565b92915050565b6000611a57611a52846119e3565b6119c8565b90508060208402830185811115611a7157611a70611a09565b5b835b81811015611a9a5780611a868882611a2f565b845260208401935050602081019050611a73565b5050509392505050565b600082601f830112611ab957611ab8611952565b5b6002611ac6848285611a44565b91505092915050565b60008060608385031215611ae657611ae56118be565b5b6000611af485828601611aa4565b9250506040611b05858286016118e6565b9150509250929050565b600060029050919050565b600081905092915050565b6000819050919050565b611b3881611a0e565b82525050565b6000611b4a8383611b2f565b60208301905092915050565b6000602082019050919050565b611b6c81611b0f565b611b768184611b1a565b9250611b8182611b25565b8060005b83811015611bb2578151611b998782611b3e565b9650611ba483611b56565b925050600181019050611b85565b505050505050565b6000606082019050611bcf6000830185611928565b611bdc6020830184611b63565b9392505050565b6000604082019050611bf86000830185611928565b611c056020830184611928565b9392505050565b600082825260208201905092915050565b50565b6000611c2d600083611c0c565b9150611c3882611c1d565b600082019050919050565b60006020820190508181036000830152611c5c81611c20565b9050919050565b600081519050611c7281611a18565b92915050565b6000611c8b611c86846119e3565b6119c8565b90508060208402830185811115611ca557611ca4611a09565b5b835b81811015611cce5780611cba8882611c63565b845260208401935050602081019050611ca7565b5050509392505050565b600082601f830112611ced57611cec611952565b5b6002611cfa848285611c78565b91505092915050565b600060408284031215611d1957611d186118be565b5b6000611d2784828501611cd8565b91505092915050565b7f4e487b7100000000000000000000000000000000000000000000000000000000600052603260045260246000fd5b6000819050919050565b7f4e487b7100000000000000000000000000000000000000000000000000000000600052601160045260246000fd5b6000611da382611d5f565b9150611dae83611d5f565b9250817f7fffffffffffffffffffffffffffffffffffffffffffffffffffffffffffffff03831360008312151615611de957611de8611d69565b5b817f8000000000000000000000000000000000000000000000000000000000000000038312600083121615611e2157611e20611d69565b5b828201905092915050565b611e3581611d5f565b82525050565b6000602082019050611e506000830184611e2c565b92915050565b611e5f81611d5f565b8114611e6a57600080fd5b50565b600081519050611e7c81611e56565b92915050565b600060208284031215611e9857611e976118be565b5b6000611ea684828501611e6d565b91505092915050565b6000611eba82611d5f565b9150611ec583611d5f565b9250827f800000000000000000000000000000000000000000000000000000000000000001821260008412151615611f0057611eff611d69565b5b827f7fffffffffffffffffffffffffffffffffffffffffffffffffffffffffffffff018213600084121615611f3857611f37611d69565b5b828203905092915050565b6000608082019050611f586000830185611b63565b611f656040830184611b63565b9392505050565b600081519050611f7b816118cf565b92915050565b60008060608385031215611f9857611f976118be565b5b6000611fa685828601611f6c565b9250506020611fb785828601611cd8565b9150509250929050565b600060208284031215611fd757611fd66118be565b5b6000611fe584828501611f6c565b91505092915050565b611ff781611a0e565b82525050565b60006040820190506120126000830185611fee565b61201f6020830184611fee565b9392505050565b600080fd5b60006040828403121561204157612040612026565b5b61204b60406119c8565b9050600061205b84828501611c63565b600083015250602061206f84828501611f6c565b60208301525092915050565b600060408284031215612091576120906118be565b5b600061209f8482850161202b565b91505092915050565b60006020820190506120bd6000830184611fee565b92915050565b600067ffffffffffffffff8211156120de576120dd611968565b5b602082029050919050565b60006120fc6120f7846120c3565b6119c8565b9050806020840283018581111561211657612115611a09565b5b835b8181101561213f578061212b8882611f6c565b845260208401935050602081019050612118565b5050509392505050565b600082601f83011261215e5761215d611952565b5b600361216b8482856120e9565b91505092915050565b60006080828403121561218a57612189612026565b5b61219460406119c8565b905060006121a484828501612149565b60008301525060606121b884828501611c63565b60208301525092915050565b6000608082840312156121da576121d96118be565b5b60006121e884828501612174565b91505092915050565b60006121fc82611a0e565b91507fffffffffffffffffffffffffffffffffffffffffffffffffffffffffffffffff820361222e5761222d611d69565b5b600182019050919050565b600081519050919050565b60005b83811015612262578082015181840152602081019050612247565b83811115612271576000848401525b50505050565b600061228282612239565b61228c8185611c0c565b935061229c818560208601612244565b6122a581611957565b840191505092915050565b600060208201905081810360008301526122ca8184612277565b90509291505056fea264697066735822122081c3f71d4ee99ed53b4d5151cac0fb972046ebbc8675e5ba9edbf363e8a6c0fe64736f6c634300080e0033",
  "linkReferences": {},
  "deployedLinkReferences": {}
}