{
  "_format": "hh-sol-artifact-1",
  "contractName": "ChessBoard",
  "sourceName": "contracts/ChessBoard.sol",
  "abi": [
    {
      "inputs": [
        {
          "internalType": "address",
          "name": "_player1",
          "type": "address"
        },
        {
          "internalType": "address",
          "name": "_player2",
          "type": "address"
        }
      ],
      "stateMutability": "nonpayable",
      "type": "constructor"
    },
    {
      "inputs": [
        {
          "internalType": "bool",
          "name": "",
          "type": "bool"
        }
      ],
      "name": "KingsFirstmove",
      "outputs": [
        {
          "internalType": "bool",
          "name": "",
          "type": "bool"
        }
      ],
      "stateMutability": "view",
      "type": "function"
    },
    {
      "inputs": [
        {
          "internalType": "uint256[2]",
          "name": "oldpos",
          "type": "uint256[2]"
        },
        {
          "internalType": "uint256[2]",
          "name": "newpos",
          "type": "uint256[2]"
        }
      ],
      "name": "Move",
      "outputs": [
        {
          "internalType": "bool",
          "name": "res",
          "type": "bool"
        }
      ],
      "stateMutability": "nonpayable",
      "type": "function"
    },
    {
      "inputs": [],
      "name": "Movecontroller",
      "outputs": [
        {
          "internalType": "contract MoveController",
          "name": "",
          "type": "address"
        }
      ],
      "stateMutability": "view",
      "type": "function"
    },
    {
      "inputs": [],
      "name": "Movehandler",
      "outputs": [
        {
          "internalType": "contract MoveHandler",
          "name": "",
          "type": "address"
        }
      ],
      "stateMutability": "view",
      "type": "function"
    },
    {
      "inputs": [
        {
          "internalType": "bool",
          "name": "",
          "type": "bool"
        },
        {
          "internalType": "bool",
          "name": "",
          "type": "bool"
        }
      ],
      "name": "TowersFirstmove",
      "outputs": [
        {
          "internalType": "bool",
          "name": "",
          "type": "bool"
        }
      ],
      "stateMutability": "view",
      "type": "function"
    },
    {
      "inputs": [
        {
          "internalType": "bool",
          "name": "",
          "type": "bool"
        }
      ],
      "name": "check",
      "outputs": [
        {
          "internalType": "bool",
          "name": "",
          "type": "bool"
        }
      ],
      "stateMutability": "view",
      "type": "function"
    },
    {
      "inputs": [
        {
          "internalType": "uint256",
          "name": "i",
          "type": "uint256"
        },
        {
          "internalType": "uint256",
          "name": "j",
          "type": "uint256"
        }
      ],
      "name": "getBox",
      "outputs": [
        {
          "components": [
            {
              "internalType": "uint256",
              "name": "pedina",
              "type": "uint256"
            },
            {
              "internalType": "bool",
              "name": "color",
              "type": "bool"
            }
          ],
          "internalType": "struct ChessBoard.Box",
          "name": "box",
          "type": "tuple"
        }
      ],
      "stateMutability": "view",
      "type": "function"
    },
    {
      "inputs": [
        {
          "internalType": "bool",
          "name": "_player",
          "type": "bool"
        }
      ],
      "name": "getCheck",
      "outputs": [
        {
          "internalType": "bool",
          "name": "res",
          "type": "bool"
        }
      ],
      "stateMutability": "view",
      "type": "function"
    },
    {
      "inputs": [
        {
          "internalType": "bool",
          "name": "team",
          "type": "bool"
        }
      ],
      "name": "getKing",
      "outputs": [
        {
          "internalType": "uint256[2]",
          "name": "pos",
          "type": "uint256[2]"
        }
      ],
      "stateMutability": "view",
      "type": "function"
    },
    {
      "inputs": [
        {
          "internalType": "bool",
          "name": "team",
          "type": "bool"
        }
      ],
      "name": "getPlayer",
      "outputs": [
        {
          "internalType": "address",
          "name": "_player",
          "type": "address"
        }
      ],
      "stateMutability": "view",
      "type": "function"
    },
    {
      "inputs": [
        {
          "internalType": "uint256",
          "name": "pedina",
          "type": "uint256"
        }
      ],
      "name": "getRules",
      "outputs": [
        {
          "components": [
            {
              "internalType": "bool[3]",
              "name": "moves_directions",
              "type": "bool[3]"
            },
            {
              "internalType": "uint256",
              "name": "maxsteps",
              "type": "uint256"
            }
          ],
          "internalType": "struct ChessBoard._Rules",
          "name": "rule",
          "type": "tuple"
        }
      ],
      "stateMutability": "view",
      "type": "function"
    },
    {
      "inputs": [
        {
          "internalType": "address",
          "name": "_player",
          "type": "address"
        }
      ],
      "name": "getTeam",
      "outputs": [
        {
          "internalType": "bool",
          "name": "team",
          "type": "bool"
        }
      ],
      "stateMutability": "view",
      "type": "function"
    },
    {
      "inputs": [
        {
          "internalType": "bool",
          "name": "",
          "type": "bool"
        }
      ],
      "name": "players",
      "outputs": [
        {
          "internalType": "address",
          "name": "",
          "type": "address"
        }
      ],
      "stateMutability": "view",
      "type": "function"
    },
    {
      "inputs": [
        {
          "internalType": "address",
          "name": "",
          "type": "address"
        }
      ],
      "name": "prizes",
      "outputs": [
        {
          "internalType": "uint256",
          "name": "",
          "type": "uint256"
        }
      ],
      "stateMutability": "view",
      "type": "function"
    },
    {
      "inputs": [],
      "name": "totalPrize",
      "outputs": [
        {
          "internalType": "uint256",
          "name": "",
          "type": "uint256"
        }
      ],
      "stateMutability": "view",
      "type": "function"
    },
    {
      "inputs": [],
      "name": "turner",
      "outputs": [
        {
          "internalType": "address",
          "name": "",
          "type": "address"
        }
      ],
      "stateMutability": "view",
      "type": "function"
    },
    {
      "inputs": [],
      "name": "winner",
      "outputs": [
        {
          "internalType": "address",
          "name": "",
          "type": "address"
        }
      ],
      "stateMutability": "view",
      "type": "function"
    },
    {
      "stateMutability": "payable",
      "type": "receive"
    }
  ],
  "bytecode": "0x60806040523480156200001157600080fd5b5060405162005c5c38038062005c5c833981016040819052620000349162000b6b565b30604051620000439062000a44565b6001600160a01b039091168152602001604051809103906000f08015801562000070573d6000803e3d6000fd5b50608b80546001600160a01b0319166001600160a01b039290921691821790556040513090620000a09062000a52565b6001600160a01b03928316815291166020820152604001604051809103906000f080158015620000d4573d6000803e3d6000fd5b50608c80546001600160a01b03199081166001600160a01b039384161790915560008051602062005c3c83398151915280548216858416908117825560008051602062005c1c8339815191528054841686861617815560018054909416821784556000918252600860208181526040808520805460ff19908116909817905592548716845282842080549096169095558151808301835260048082526007828801529454909616835284528082205460ff16151582529190925290206200019d91600262000a60565b5060408051808201825260048082526000602080840182905260008051602062005c1c833981519152546001600160a01b03168252600881528482205460ff16151582529190915291909120620001f691600262000a60565b5060008051602062005c3c83398151915280546001600160a01b0390811660009081526008602081815260408084205460ff908116151585526007808452828620805460ff1990811690915560008051602062005c1c8339815191528054891688528686528488205484161515885291855283872080548216905588548816875285855283872054831615158752600580865284882080548316600190811790915583548a16895287875285892054851615158952908652848820805483168217905589548916885286865284882054841615158852600680875285892089805287528589208054841683179055995489168852868652848820548416151588528986528488208189528652848820805483168217905582548916885286865284882054841615158852898652848820888052865284882080548316821790559154909716865293835281852054161515845294815284832082845281528483208054909416909117909255825160a08101845292830181815260608401829052608084018290528352828201819052805260039081905281517f3617319a054d772f909f7c479a2cebe5066e836a939412e32403c99029b92eff91620003bf91839162000aa8565b506020918201516001918201556040805160a081018252600091810182815260608201849052608082018390528152808401839052919052600391829052805190917fa15bc60c955c405d20d9149c709e2460f1c2d9a497496a7f46004d1772c3054c91620004319183919062000aa8565b506020918201516001918201556040805160a08101825290810182815260608201929092526000608082018190529181526007818401526002909152600391829052805190917fc3a24b0501bd2c13a7e57f2db4369ec4c223447539fc0724a9d55ac4a06ebd4d91620004a79183919062000aa8565b506020918201516001909101556040805160a0810182526000918101828152606082018390526080820183905281526004818401526003918290529181905281517fcbc4e5fb02c3d1de23a9f1e014b4d2ee5aeaea9505df5e855c9210bf472495af916200051791839162000aa8565b506020918201516001918201556040805160a081018252600091810182815260608201839052608082019390935291825260078284015260049052600391829052805190917f83ec6a1f0257b830b5e016457c9cf1435391bf56cc98f369a58a54fe93772465916200058c9183919062000aa8565b506020918201516001918201556040805160a08101825290810182815260608201839052608082018390528152808301919091526005600052600391829052805190917f405aad32e1adbac89bb7f176e338b8fc6e994ca210c9bb7bdca249b46594225091620005ff9183919062000aa8565b506020918201516001918201556040805160a0810182529081018281526060820183905260808201929092529081526007818301526006600052600391829052805190917fc69056f16cbaa3c616b828e333ab7d3a32310765507f8f58359e99ebb7a885f391620006739183919062000aa8565b5060209182015160019182015560408051808201825260028082526000918501829052600b819055600c805460ff19908116909155835180850185526003808252908701849052601b819055601c805483169055845180860186526004808252908801859052602b819055602c805484169055855180870187526006808252908901869052603b819055603c805485169055865180880188526005808252908a01879052604b819055604c805486169055875180890189528381528a01879052605b839055605c805486169055875180890189528481528a01879052606b849055606c805486169055875180890189528681528a01879052607b869055607c805486169055875180890189528981528a01879052600d899055600e805486169055875180890189528981528a01879052601d899055601e805486169055875180890189528981528a01879052602d899055602e805486169055875180890189528981528a01879052603d899055603e805486169055875180890189528981528a01879052604d899055604e805486169055875180890189528981528a01879052605d899055605e805486169055875180890189528981528a01879052606d899055606e805486169055875180890189528981528a0196909652607d889055607e8054851690558651808801885288815289018890526017889055601880548516891790558651808801885288815289018890526027889055602880548516891790558651808801885288815289018890526037889055603880548516891790558651808801885288815289018890526047889055604880548516891790558651808801885288815289018890526057889055605880548516891790558651808801885288815289018890526067889055606880548516891790558651808801885288815289018890526077889055607880548516891790558651808801885288815289018890526087889055608880548516891790558651808801885285815289018890526019859055601a80548516891790558651808801885283815289018890526029839055602a80548516891790558651808801885282815289018890526039829055603a8054851689179055865180880188528181528901889052604955604a8054841688179055855180870187528581528801879052605994909455605a8054831687179055845180860186528481528701869052606993909355606a8054821686179055835180850185528381528601859052607992909255607a8054831685179055825180840190935280835291909301829052608955608a80549092161790555062000ba39050565b61147c806200232683390190565b61247a80620037a283390190565b826002810192821562000a96579160200282015b8281111562000a96578251829060ff1690559160200191906001019062000a74565b5062000aa492915062000b37565b5090565b60018301918390821562000a965791602002820160005b8382111562000afe57835183826101000a81548160ff021916908315150217905550926020019260010160208160000104928301926001030262000abf565b801562000b2d5782816101000a81549060ff021916905560010160208160000104928301926001030262000afe565b505062000aa49291505b5b8082111562000aa4576000815560010162000b38565b80516001600160a01b038116811462000b6657600080fd5b919050565b6000806040838503121562000b7f57600080fd5b62000b8a8362000b4e565b915062000b9a6020840162000b4e565b90509250929050565b6117738062000bb36000396000f3fe6080604052600436106101025760003560e01c8063b35d11bf11610095578063dbdfbae711610064578063dbdfbae714610463578063dfbf53ae14610483578063e92758c2146104a3578063fd5fcef1146104c3578063fe9ba8ec146104e357600080fd5b8063b35d11bf14610380578063b99e131b146103ad578063bbc2b0ce146103fd578063d0d6defb1461042d57600080fd5b806382b1ad50116100d157806382b1ad50146102c957806387529f0f146102ed5780638f7daf0f14610326578063915b740d1461035357600080fd5b80631feeef98146101ec578063241c59121461022e5780632f553dec1461026e5780637ac8802e1461028e57600080fd5b366101e757600160005260096020527f92e85d02570a8092d09a6e3a57665bc3815a2699a4074001bf1ccabf660f5a36546001600160a01b031633148061017b57506000805260096020527fec8156718a8372b1db44bb411437d0870f3e3790d4a08526d024ce1b0b668f6b546001600160a01b031633145b6101b95760405162461bcd60e51b81526004016101b0906020808252600490820152631bdb9c1b60e21b604082015260600190565b60405180910390fd5b336000908152600a602052604081203490819055815490919081906101df90849061120e565b925050819055005b600080fd5b3480156101f857600080fd5b5061020c610207366004611226565b610515565b6040805182518152602092830151151592810192909252015b60405180910390f35b34801561023a57600080fd5b5061025e610249366004611256565b60076020526000908152604090205460ff1681565b6040519015158152602001610225565b34801561027a57600080fd5b5061025e61028936600461132d565b61057e565b34801561029a57600080fd5b5061025e6102a9366004611362565b600660209081526000928352604080842090915290825290205460ff1681565b3480156102d557600080fd5b506102df60005481565b604051908152602001610225565b3480156102f957600080fd5b5061025e61030836600461139b565b6001600160a01b031660009081526008602052604090205460ff1690565b34801561033257600080fd5b506103466103413660046113c4565b610e3c565b60405161022591906113dd565b34801561035f57600080fd5b5061037361036e366004611256565b610eb8565b6040516102259190611445565b34801561038c57600080fd5b506102df61039b36600461139b565b600a6020526000908152604090205481565b3480156103b957600080fd5b506103e56103c8366004611256565b15156000908152600960205260409020546001600160a01b031690565b6040516001600160a01b039091168152602001610225565b34801561040957600080fd5b5061025e610418366004611256565b60056020526000908152604090205460ff1681565b34801561043957600080fd5b506103e5610448366004611256565b6009602052600090815260409020546001600160a01b031681565b34801561046f57600080fd5b50608c546103e5906001600160a01b031681565b34801561048f57600080fd5b506002546103e5906001600160a01b031681565b3480156104af57600080fd5b506001546103e5906001600160a01b031681565b3480156104cf57600080fd5b50608b546103e5906001600160a01b031681565b3480156104ef57600080fd5b5061025e6104fe366004611256565b151560009081526007602052604090205460ff1690565b6040805180820190915260008082526020820152600b836008811061053c5761053c611459565b60100201826008811061055157610551611459565b6040805180820190915260029190910291909101805482526001015460ff16151560208201529392505050565b6001600090815260096020527f92e85d02570a8092d09a6e3a57665bc3815a2699a4074001bf1ccabf660f5a36546001600160a01b03163314806105f457506000805260096020527fec8156718a8372b1db44bb411437d0870f3e3790d4a08526d024ce1b0b668f6b546001600160a01b031633145b6106295760405162461bcd60e51b81526004016101b0906020808252600490820152631bdb9c1b60e21b604082015260600190565b608b543360009081526008602081905260408220548651879487946001600160a01b0390911693636d572500938793879360ff9092169260039291600b91811061067557610675611459565b6010020189600160200201516008811061069157610691611459565b60020201600001548152602001908152602001600020600101546040518563ffffffff1660e01b81526004016106ca949392919061146f565b6020604051808303816000875af11580156106e9573d6000803e3d6000fd5b505050506040513d601f19601f8201168201806040525081019061070d919061149c565b61073e5760405162461bcd60e51b81526020600482015260026024820152616d6360f01b60448201526064016101b0565b336000908152600860205260409020548590859060ff16801561079657508151600b906008811061077157610771611459565b6010020182600160200201516008811061078d5761078d611459565b60020201546001145b80156107a457506020810151155b156107e7578151600690600b90600881106107c1576107c1611459565b601002018360016020020151600881106107dd576107dd611459565b600202015561088b565b3360009081526008602052604090205460ff1615801561083c57508151600b906008811061081757610817611459565b6010020182600160200201516008811061083357610833611459565b60020201546001145b801561084c575060208101516007145b1561088b578151600690600b906008811061086957610869611459565b6010020183600160200201516008811061088557610885611459565b60020201555b8651600b90600881106108a0576108a0611459565b601002018760016020020151600881106108bc576108bc611459565b60020201546005036108d1576108d186610f02565b8651600b90600881106108e6576108e6611459565b6010020187600160200201516008811061090257610902611459565b60020201600b87600060200201516008811061092057610920611459565b6010020187600160200201516008811061093c5761093c611459565b8254600291909102919091019081556001918201549101805460ff191660ff909216151591909117905560408051808201909152600080825260208201528751600b906008811061098f5761098f611459565b601002018860016020020151600881106109ab576109ab611459565b8251600291909102919091019081556020918201516001909101805460ff1916911515919091179055608c54336000908152600890925260408083205490516338afef0b60e01b815260ff9091161560048201526001600160a01b03909116906338afef0b9060240161010060405180830381865afa158015610a32573d6000803e3d6000fd5b505050506040513d601f19601f82011682018060405250810190610a569190611508565b90506000805b6008811015610a775780610a6f81611525565b915050610a5c565b5081518015610a87575060208201515b8015610a94575060408201515b8015610aa1575060608201515b8015610aae575060808201515b8015610abb575060a08201515b8015610ac8575060c08201515b8015610ad5575060e08201515b15610ae257506001610ae6565b5060005b608c543360008181526008602081815260408084205460ff16801515855260048084528286209686529390925251630bc7601d60e21b815292946001600160a01b031693632f1d807493610b3d9391929101611561565b61032060405180830381865afa158015610b5b573d6000803e3d6000fd5b505050506040513d601f19601f82011682018060405250810190610b7f91906115c4565b5190508015610bc05760405162461bcd60e51b815260206004820152600d60248201526c0d6d2dccededccaecd2d8c4def609b1b60448201526064016101b0565b608c5433600090815260086020526040808220549051630abd9d3560e41b815260ff909116156004820152841515602482015290916001600160a01b03169063abd9d35090604401602060405180830381865afa158015610c25573d6000803e3d6000fd5b505050506040513d601f19601f82011682018060405250810190610c49919061149c565b608c54336000908152600860205260408082205490516338afef0b60e01b815260ff90911615156004820152929350916001600160a01b03909116906338afef0b9060240161010060405180830381865afa158015610cac573d6000803e3d6000fd5b505050506040513d601f19601f82011682018060405250810190610cd09190611508565b80519091506000908015610ce5575060208201515b8015610cf2575060408201515b8015610cff575060608201515b8015610d0c575060808201515b8015610d19575060a08201515b8015610d26575060c08201515b8015610d33575060e08201515b15610d4057506001610d44565b5060005b8215610d8e573360009081526008602090815260408083205460ff161515835260079091529020805460ff19169055610d7c8c610f5c565b610d858d61102e565b60019a50610e2c565b808015610dbd57503360009081526008602090815260408083205460ff90811615845260079092529091205416155b15610dcb5760009a50610e2c565b82610e2c576002805473ffffffffffffffffffffffffffffffffffffffff19163317905560408051808201909152601781527f53636163636f204d6174746f2120486f2076696e746f210000000000000000006020820152610e2c906110ea565b5050505050505050505092915050565b610e44611149565b6000828152600360208190526040808320815160a081018084529094919385938401928592908390855b825461010083900a900460ff161515815260206001928301818104948501949093039092029101808411610e6e579050505050505081526020016001820154815250509050919050565b610ec0611169565b811515600090815260046020526040908190208151808301928390529160029082845b815481526020019060010190808311610ee35750505050509050919050565b3360009081526008602090815260408083205460ff161515835260049091529020610f2f90826002611187565b50503360009081526008602090815260408083205460ff161515835260059091529020805460ff19169055565b608c543360008181526008602081815260408084205460ff1680158552600480845282862096865293909252516225f12560e81b815292946001600160a01b0316936325f1250093610fb19388939101611649565b606060405180830381865afa158015610fce573d6000803e3d6000fd5b505050506040513d601f19601f82011682018060405250810190610ff29190611674565b509050801561102a573360009081526008602090815260408083205460ff1615835260079091529020805460ff191660011790555050565b5050565b8051600b906008811061104357611043611459565b6010020181600160200201516008811061105f5761105f611459565b60020201600001546002036110e75780516000036110ab573360009081526008602090815260408083205460ff1615158352600682528083208380529091529020805460ff1916905550565b80516007036110e7573360009081526008602090815260408083205460ff161515835260068252808320600184529091529020805460ff191690555b50565b6110e7816040516024016110fe91906116e8565b60408051601f198184030181529190526020810180516001600160e01b031663104c13eb60e21b17905280516a636f6e736f6c652e6c6f67602083016000808483855afa5050505050565b604051806040016040528061115c6111c5565b8152602001600081525090565b60405180604001604052806002906020820280368337509192915050565b82600281019282156111b5579160200282015b828111156111b557825182559160200191906001019061119a565b506111c19291506111e3565b5090565b60405180606001604052806003906020820280368337509192915050565b5b808211156111c157600081556001016111e4565b634e487b7160e01b600052601160045260246000fd5b60008219821115611221576112216111f8565b500190565b6000806040838503121561123957600080fd5b50508035926020909101359150565b80151581146110e757600080fd5b60006020828403121561126857600080fd5b813561127381611248565b9392505050565b634e487b7160e01b600052604160045260246000fd5b6040805190810167ffffffffffffffff811182821017156112b3576112b361127a565b60405290565b604051610100810167ffffffffffffffff811182821017156112b3576112b361127a565b600082601f8301126112ee57600080fd5b6112f6611290565b80604084018581111561130857600080fd5b845b8181101561132257803584526020938401930161130a565b509095945050505050565b6000806080838503121561134057600080fd5b61134a84846112dd565b915061135984604085016112dd565b90509250929050565b6000806040838503121561137557600080fd5b823561138081611248565b9150602083013561139081611248565b809150509250929050565b6000602082840312156113ad57600080fd5b81356001600160a01b038116811461127357600080fd5b6000602082840312156113d657600080fd5b5035919050565b815160808201908260005b600381101561140957825115158252602092830192909101906001016113e8565b5050506020830151606083015292915050565b8060005b600281101561143f578151845260209384019390910190600101611420565b50505050565b60408101611453828461141c565b92915050565b634e487b7160e01b600052603260045260246000fd5b60c0810161147d828761141c565b61148a604083018661141c565b921515608082015260a0015292915050565b6000602082840312156114ae57600080fd5b815161127381611248565b600082601f8301126114ca57600080fd5b6114d26112b9565b806101008401858111156114e557600080fd5b845b818110156113225780516114fa81611248565b8452602093840193016114e7565b6000610100828403121561151b57600080fd5b61127383836114b9565b600060018201611537576115376111f8565b5060010190565b8060005b600281101561143f578154845260209093019260019182019101611542565b6060810161156f828561153e565b82151560408301529392505050565b600082601f83011261158f57600080fd5b6115976112b9565b806101008401858111156115aa57600080fd5b845b818110156113225780518452602093840193016115ac565b600061032082840312156115d757600080fd5b6040516080810181811067ffffffffffffffff821117156115fa576115fa61127a565b604052825161160881611248565b815261161784602085016114b9565b602082015261162a84610120850161157e565b604082015261163d84610220850161157e565b60608201529392505050565b60a08101611657828661141c565b611664604083018561153e565b8215156080830152949350505050565b6000806060838503121561168757600080fd5b825161169281611248565b91506020603f840185136116a557600080fd5b6116ad611290565b8060608601878111156116bf57600080fd5b8387015b818110156116da57805184529284019284016116c3565b509497909650945050505050565b600060208083528351808285015260005b81811015611715578581018301518582016040015282016116f9565b81811115611727576000604083870101525b50601f01601f191692909201604001939250505056fea26469706673582212201fedb437fb586380ae6b83e42904be8179b07f02a4879b0b2acec7a947e2ebba64736f6c634300080e0033608060405234801561001057600080fd5b5060405161147c38038061147c83398101604081905261002f91610054565b600380546001600160a01b0319166001600160a01b0392909216919091179055610084565b60006020828403121561006657600080fd5b81516001600160a01b038116811461007d57600080fd5b9392505050565b6113e9806100936000396000f3fe608060405234801561001057600080fd5b506004361061009e5760003560e01c80637ae2b5c7116100665780637ae2b5c714610129578063ac411ce61461013c578063bac351191461014f578063c03c300314610162578063ee0b07e01461017557600080fd5b80631b5ac4b5146100a35780636c1b5443146100c95780636d5433e6146100d25780636d572500146100e557806371cc5ad114610108575b600080fd5b6100b66100b136600461105c565b610188565b6040519081526020015b60405180910390f35b6100b660005481565b6100b66100e0366004611075565b6101a5565b6100f86100f3366004611157565b6101bb565b60405190151581526020016100c0565b61011b6101163660046111a6565b61070a565b6040516100c09291906111db565b6100b6610137366004611075565b610881565b6100f861014a3660046111a6565b610891565b6100b661015d36600461105c565b610fef565b6100b661017036600461105c565b611005565b6100b661018336600461105c565b611031565b6000808212156101a15761019b8261122b565b92915050565b5090565b60008183106101b557508161019b565b50919050565b600354845160208601516040516303fdddf360e31b8152600481019290925260248201526000918691869186918691831515916001600160a01b0390911690631feeef98906044016040805180830381865afa15801561021f573d6000803e3d6000fd5b505050506040513d601f19601f820116820180604052508101906102439190611247565b602001511515146102815760405162461bcd60e51b815260206004820152600360248201526206e79760ec1b60448201526064015b60405180910390fd5b8251845114158061029a57506020808401519085015114155b6102cb5760405162461bcd60e51b8152602060048201526002602482015261073760f41b6044820152606401610278565b600354835160208501516040516303fdddf360e31b8152600481019290925260248201526001600160a01b0390911690631feeef98906044016040805180830381865afa158015610320573d6000803e3d6000fd5b505050506040513d601f19601f820116820180604052508101906103449190611247565b51156103fd57600354835160208501516040516303fdddf360e31b815260048101929092526024820152831515916001600160a01b031690631feeef98906044016040805180830381865afa1580156103a1573d6000803e3d6000fd5b505050506040513d601f19601f820116820180604052508101906103c59190611247565b602001511515036103fd5760405162461bcd60e51b8152602060048201526002602482015261333360f11b6044820152606401610278565b8351835161040b919061129d565b60015560208085015190840151610422919061129d565b60025560006104318585610891565b9050806104665760405162461bcd60e51b81526020600482015260036024820152623234b960e91b6044820152606401610278565b600354855160208701516040516303fdddf360e31b8152600481019290925260248201526001600160a01b0390911690631feeef98906044016040805180830381865afa1580156104bb573d6000803e3d6000fd5b505050506040513d601f19601f820116820180604052508101906104df9190611247565b516003146106fa57600354855160208701516040516303fdddf360e31b8152600481019290925260248201526001600160a01b0390911690631feeef98906044016040805180830381865afa15801561053c573d6000803e3d6000fd5b505050506040513d601f19601f820116820180604052508101906105609190611247565b5160010361065457600083156105c85760208086015190870151116105b05760405162461bcd60e51b8152600401610278906020808252600490820152637065643160e01b604082015260600190565b60208601516006036105c4575060016105c8565b5060005b8361062557602080860151908701511061060d5760405162461bcd60e51b8152600401610278906020808252600490820152633832b21960e11b604082015260600190565b602086015160010361062157506001610625565b5060005b6020808701519086015161063c916100b19161129d565b60021480156106485750805b1561065257600292505b505b61065f600154610188565b82101580156106785750610674600254610188565b8210155b6106aa5760405162461bcd60e51b81526020600482015260036024820152620dac2f60eb1b6044820152606401610278565b60006106b461103e565b6106be878761070a565b909250905081156106f75760405162461bcd60e51b81526020600482015260036024820152626f627360e81b6044820152606401610278565b50505b5060019998505050505050505050565b600061071461103e565b835183516000916107249161129d565b6020808701519086015191925060009161073e919061129d565b9050600061074b83611005565b9050600061075883611005565b885160208a015160019850919250905b88518214158061077c575060208901518114155b156108745761078e61015d85846112dc565b915061079d61015d84836112dc565b6003546040516303fdddf360e31b815260048101859052602481018390529192506001600160a01b031690631feeef98906044016040805180830381865afa1580156107ed573d6000803e3d6000fd5b505050506040513d601f19601f820116820180604052508101906108119190611247565b511580159061082f575088518214158061082f575060208901518114155b1561085457600197506040518060400160405280838152602001828152509650610874565b600097506040518060400160405280838152602001828152509650610768565b5050505050509250929050565b60008183116101b557508161019b565b8151815160009182916108a4919061129d565b602080860151908501519192506000916108be919061129d565b905081158015906108cd575080155b156109d357600354855160208701516040516303fdddf360e31b8152600481019290925260248201526001600160a01b0390911690638f7daf0f908290631feeef98906044016040805180830381865afa15801561092f573d6000803e3d6000fd5b505050506040513d601f19601f820116820180604052508101906109539190611247565b5160405160e083901b6001600160e01b03191681526004810191909152602401608060405180830381865afa158015610990573d6000803e3d6000fd5b505050506040513d601f19601f820116820180604052508101906109b4919061131d565b5160005b60200201516109ca5760009250610fe7565b60019250610fe7565b80158015906109e0575081155b15610acf57600354855160208701516040516303fdddf360e31b8152600481019290925260248201526001600160a01b0390911690638f7daf0f908290631feeef98906044016040805180830381865afa158015610a42573d6000803e3d6000fd5b505050506040513d601f19601f82011682018060405250810190610a669190611247565b5160405160e083901b6001600160e01b03191681526004810191909152602401608060405180830381865afa158015610aa3573d6000803e3d6000fd5b505050506040513d601f19601f82011682018060405250810190610ac7919061131d565b5160016109b8565b8115801590610aed5750610ae281610188565b610aeb83610188565b145b15610f0d57600354855160208701516040516303fdddf360e31b8152600481019290925260248201526001600160a01b0390911690631feeef98906044016040805180830381865afa158015610b47573d6000803e3d6000fd5b505050506040513d601f19601f82011682018060405250810190610b6b9190611247565b516001148015610bf35750600354845160208601516040516303fdddf360e31b8152600481019290925260248201526001600160a01b0390911690631feeef98906044016040805180830381865afa158015610bcb573d6000803e3d6000fd5b505050506040513d601f19601f82011682018060405250810190610bef9190611247565b5115155b8015610c075750610c0382610188565b6001145b15610c155760019250610fe7565b600354855160208701516040516303fdddf360e31b8152600481019290925260248201526001600160a01b0390911690638f7daf0f908290631feeef98906044016040805180830381865afa158015610c72573d6000803e3d6000fd5b505050506040513d601f19601f82011682018060405250810190610c969190611247565b5160405160e083901b6001600160e01b03191681526004810191909152602401608060405180830381865afa158015610cd3573d6000803e3d6000fd5b505050506040513d601f19601f82011682018060405250810190610cf7919061131d565b5160400151158015610d835750600354855160208701516040516303fdddf360e31b8152600481019290925260248201526001600160a01b0390911690631feeef98906044016040805180830381865afa158015610d59573d6000803e3d6000fd5b505050506040513d601f19601f82011682018060405250810190610d7d9190611247565b51600114155b15610d915760009250610fe7565b600354855160208701516040516303fdddf360e31b8152600481019290925260248201526001600160a01b0390911690638f7daf0f908290631feeef98906044016040805180830381865afa158015610dee573d6000803e3d6000fd5b505050506040513d601f19601f82011682018060405250810190610e129190611247565b5160405160e083901b6001600160e01b03191681526004810191909152602401608060405180830381865afa158015610e4f573d6000803e3d6000fd5b505050506040513d601f19601f82011682018060405250810190610e73919061131d565b51604001518015610efe5750600354855160208701516040516303fdddf360e31b8152600481019290925260248201526001600160a01b0390911690631feeef98906044016040805180830381865afa158015610ed4573d6000803e3d6000fd5b505050506040513d601f19601f82011682018060405250810190610ef89190611247565b51600114155b15610f0857600192505b610fe7565b610f1682610188565b6002148015610f2d5750610f2981610188565b6001145b80610f535750610f3c82610188565b6001148015610f535750610f4f81610188565b6002145b15610fe257600354855160208701516040516303fdddf360e31b8152600481019290925260248201526001600160a01b0390911690631feeef98906044016040805180830381865afa158015610fad573d6000803e3d6000fd5b505050506040513d601f19601f82011682018060405250810190610fd19190611247565b516003146109ca5760009250610fe7565b600092505b505092915050565b600060078213610ffd575090565b506007919050565b6000808212156110185750600019919050565b600082131561102957506001919050565b506000919050565b6000808212611029575090565b60405180604001604052806002906020820280368337509192915050565b60006020828403121561106e57600080fd5b5035919050565b6000806040838503121561108857600080fd5b50508035926020909101359150565b634e487b7160e01b600052604160045260246000fd5b6040516060810167ffffffffffffffff811182821017156110d0576110d0611097565b60405290565b600082601f8301126110e757600080fd5b6040516040810181811067ffffffffffffffff8211171561110a5761110a611097565b806040525080604084018581111561112157600080fd5b845b8181101561113b578035835260209283019201611123565b509195945050505050565b801515811461115457600080fd5b50565b60008060008060c0858703121561116d57600080fd5b61117786866110d6565b935061118686604087016110d6565b9250608085013561119681611146565b9396929550929360a00135925050565b600080608083850312156111b957600080fd5b6111c384846110d6565b91506111d284604085016110d6565b90509250929050565b82151581526060810160208083018460005b600281101561120a578151835291830191908301906001016111ed565b505050509392505050565b634e487b7160e01b600052601160045260246000fd5b6000600160ff1b820161124057611240611215565b5060000390565b60006040828403121561125957600080fd5b6040516040810181811067ffffffffffffffff8211171561127c5761127c611097565b60405282518152602083015161129181611146565b60208201529392505050565b60008083128015600160ff1b8501841216156112bb576112bb611215565b6001600160ff1b03840183138116156112d6576112d6611215565b50500390565b600080821280156001600160ff1b03849003851316156112fe576112fe611215565b600160ff1b839003841281161561131757611317611215565b50500190565b60006080828403121561132f57600080fd5b6040516040810181811067ffffffffffffffff8211171561135257611352611097565b604052601f8301841361136457600080fd5b61136c6110ad565b80606085018681111561137e57600080fd5b855b818110156113a157805161139381611146565b845260209384019301611380565b5090835251602083015250939250505056fea264697066735822122082d10036bf46e50a334f5e7b87a457467239d9ab160c689575914a0da1e24fd864736f6c634300080e003360806040523480156200001157600080fd5b506040516200247a3803806200247a83398101604081905262000034916200007f565b600080546001600160a01b039384166001600160a01b03199182161790915560018054929093169116179055620000be565b6001600160a01b03811681146200007c57600080fd5b50565b600080604083850312156200009357600080fd5b8251620000a08162000066565b6020840151909250620000b38162000066565b809150509250929050565b6123ac80620000ce6000396000f3fe608060405234801561001057600080fd5b506004361061004c5760003560e01c806325f12500146100515780632f1d80741461007b57806338afef0b1461009b578063abd9d350146100bb575b600080fd5b61006461005f366004611ee2565b6100de565b604051610072929190611f54565b60405180910390f35b61008e610089366004611f71565b6105e7565b6040516100729190611fcc565b6100ae6100a936600461202f565b610c77565b604051610072919061204c565b6100ce6100c9366004612080565b611797565b6040519015158152602001610072565b60006100e8611da7565b6000546040516371cc5ad160e01b81526001600160a01b03909116906371cc5ad19061011a90889088906004016120ae565b606060405180830381865afa158015610137573d6000803e3d6000fd5b505050506040513d601f19601f8201168201806040525081019061015b919061210e565b600154815160208301516040516303fdddf360e31b8152600481019290925260248201529294509092506001600160a01b031690631feeef98906044016040805180830381865afa1580156101b4573d6000803e3d6000fd5b505050506040513d601f19601f820116820180604052508101906101d8919061215a565b511580159061025557506000546040516356208e7360e11b81526001600160a01b039091169063ac411ce69061021490849089906004016120ae565b602060405180830381865afa158015610231573d6000803e3d6000fd5b505050506040513d601f19601f8201168201806040525081019061025591906121b0565b80156103cf57506000546001600160a01b0316631b5ac4b58260016020020151876001602002015161028791906121e3565b6040518263ffffffff1660e01b81526004016102a591815260200190565b602060405180830381865afa1580156102c2573d6000803e3d6000fd5b505050506040513d601f19601f820116820180604052508101906102e69190612222565b600154825160208401516040516303fdddf360e31b8152600481019290925260248201526001600160a01b0390911690638f7daf0f908290631feeef98906044016040805180830381865afa158015610343573d6000803e3d6000fd5b505050506040513d601f19601f82011682018060405250810190610367919061215a565b5160405160e083901b6001600160e01b03191681526004810191909152602401608060405180830381865afa1580156103a4573d6000803e3d6000fd5b505050506040513d601f19601f820116820180604052508101906103c8919061223b565b6020015110155b80156105405750600054815186516001600160a01b0390921691631b5ac4b5916103f8916121e3565b6040518263ffffffff1660e01b815260040161041691815260200190565b602060405180830381865afa158015610433573d6000803e3d6000fd5b505050506040513d601f19601f820116820180604052508101906104579190612222565b600154825160208401516040516303fdddf360e31b8152600481019290925260248201526001600160a01b0390911690638f7daf0f908290631feeef98906044016040805180830381865afa1580156104b4573d6000803e3d6000fd5b505050506040513d601f19601f820116820180604052508101906104d8919061215a565b5160405160e083901b6001600160e01b03191681526004810191909152602401608060405180830381865afa158015610515573d6000803e3d6000fd5b505050506040513d601f19601f82011682018060405250810190610539919061223b565b6020015110155b80156105cc5750600154815160208301516040516303fdddf360e31b8152600481019290925260248201526001600160a01b0390911690631feeef98906044016040805180830381865afa15801561059c573d6000803e3d6000fd5b505050506040513d601f19601f820116820180604052508101906105c0919061215a565b60200151151583151514155b156105da57600191506105df565b600091505b935093915050565b6105ef611dc5565b604081810180516000908190526020868101805160608088018051929092528551600790850181905283518351909501949094528951865188015281518701859052895195518101959095525190930152548551915192516336aa19f360e11b8152600481019290925260248201929092526001600160a01b0390911690636d5433e690604401602060405180830381865afa158015610693573d6000803e3d6000fd5b505050506040513d601f19601f820116820180604052508101906106b79190612222565b6106c29060076122d1565b83516106ce91906122e8565b604082810151608001919091526000548451602086015192516336aa19f360e11b8152600481019190915260248101929092526001600160a01b031690636d5433e690604401602060405180830381865afa158015610731573d6000803e3d6000fd5b505050506040513d601f19601f820116820180604052508101906107559190612222565b6107609060076122d1565b602084015161076f91906122e8565b60608201516080015260005483516020850151604051637ae2b5c760e01b8152600481019290925260248201526001600160a01b0390911690637ae2b5c790604401602060405180830381865afa1580156107ce573d6000803e3d6000fd5b505050506040513d601f19601f820116820180604052508101906107f29190612222565b83516107fe91906122d1565b60408281015160a00191909152600054845160208601519251637ae2b5c760e01b8152600481019190915260248101929092526001600160a01b031690637ae2b5c790604401602060405180830381865afa158015610861573d6000803e3d6000fd5b505050506040513d601f19601f820116820180604052508101906108859190612222565b602084015161089491906122d1565b606082015160a00152600054835160208501516001600160a01b039092169163bac35119916108c291612300565b6040518263ffffffff1660e01b81526004016108e091815260200190565b602060405180830381865afa1580156108fd573d6000803e3d6000fd5b505050506040513d601f19601f820116820180604052508101906109219190612222565b604082015160c0015260005483516001600160a01b039091169063ee0b07e09061094c9060076121e3565b602086015161095b91906121e3565b6040518263ffffffff1660e01b815260040161097991815260200190565b602060405180830381865afa158015610996573d6000803e3d6000fd5b505050506040513d601f19601f820116820180604052508101906109ba9190612222565b606082015160c0015260005483516001600160a01b039091169063ee0b07e0906109e59060076121e3565b60208601516109f491906121e3565b6040518263ffffffff1660e01b8152600401610a1291815260200190565b602060405180830381865afa158015610a2f573d6000803e3d6000fd5b505050506040513d601f19601f82011682018060405250810190610a539190612222565b604082015160e00152600054835160208501516001600160a01b039092169163bac3511991610a8191612300565b6040518263ffffffff1660e01b8152600401610a9f91815260200190565b602060405180830381865afa158015610abc573d6000803e3d6000fd5b505050506040513d601f19601f82011682018060405250810190610ae09190612222565b606082015160e00152610af1611da7565b60005b6008811015610be757610b4f85604051806040016040528086604001518560088110610b2257610b22612144565b6020020151815260200186606001518560088110610b4257610b42612144565b60200201519052866100de565b84602001518360088110610b6557610b65612144565b92151560209384029190910152908401519092508160088110610b8a57610b8a612144565b602002015115610bd557815160408401518260088110610bac57610bac612144565b6020020152816001602002015183606001518260088110610bcf57610bcf612144565b60200201525b80610bdf81612341565b915050610af4565b5060208201515180610bfd575060208281015101515b80610c0d57506020820151604001515b80610c1d57506020820151606001515b80610c2d57506020820151608001515b80610c3d5750602082015160a001515b80610c4d5750602082015160c001515b80610c5d5750602082015160e001515b15610c6b5760018252610c70565b600082525b5092915050565b610c7f611e00565b6001546001600160a01b03163314610cc25760405162461bcd60e51b8152602060048201526002602482015261216360f01b604482015260640160405180910390fd5b60015460405163915b740d60e01b815283151560048201526000916001600160a01b03169063915b740d906024016040805180830381865afa158015610d0c573d6000803e3d6000fd5b505050506040513d601f19601f82011682018060405250810190610d30919061235a565b9050610d3a611e00565b610d42611e00565b600054835160405163bac3511960e01b815260048101919091526001600160a01b039091169063bac3511990602401602060405180830381865afa158015610d8e573d6000803e3d6000fd5b505050506040513d601f19601f82011682018060405250810190610db29190612222565b825260005460208401516001600160a01b039091169063bac3511990610dd9906001612300565b6040518263ffffffff1660e01b8152600401610df791815260200190565b602060405180830381865afa158015610e14573d6000803e3d6000fd5b505050506040513d601f19601f82011682018060405250810190610e389190612222565b815260005483516001600160a01b039091169063bac3511990610e5c906001612300565b6040518263ffffffff1660e01b8152600401610e7a91815260200190565b602060405180830381865afa158015610e97573d6000803e3d6000fd5b505050506040513d601f19601f82011682018060405250810190610ebb9190612222565b82600160200201526000546001600160a01b031663bac3511984600160200201516040518263ffffffff1660e01b8152600401610efa91815260200190565b602060405180830381865afa158015610f17573d6000803e3d6000fd5b505050506040513d601f19601f82011682018060405250810190610f3b9190612222565b6020820152600054835160405163bac3511960e01b815260048101919091526001600160a01b039091169063bac3511990602401602060405180830381865afa158015610f8c573d6000803e3d6000fd5b505050506040513d601f19601f82011682018060405250810190610fb09190612222565b82600260200201526000546001600160a01b031663ee0b07e0600185816020020151610fdc91906121e3565b6040518263ffffffff1660e01b8152600401610ffa91815260200190565b602060405180830381865afa158015611017573d6000803e3d6000fd5b505050506040513d601f19601f8201168201806040525081019061103b9190612222565b604082015260005483516001600160a01b039091169063ee0b07e090611063906001906121e3565b6040518263ffffffff1660e01b815260040161108191815260200190565b602060405180830381865afa15801561109e573d6000803e3d6000fd5b505050506040513d601f19601f820116820180604052508101906110c29190612222565b6060830152600054602084015160405163bac3511960e01b815260048101919091526001600160a01b039091169063bac3511990602401602060405180830381865afa158015611116573d6000803e3d6000fd5b505050506040513d601f19601f8201168201806040525081019061113a9190612222565b606082015260005483516001600160a01b039091169063bac3511990611161906001612300565b6040518263ffffffff1660e01b815260040161117f91815260200190565b602060405180830381865afa15801561119c573d6000803e3d6000fd5b505050506040513d601f19601f820116820180604052508101906111c09190612222565b82600460200201526000546001600160a01b031663ee0b07e06001858160200201516111ec91906121e3565b6040518263ffffffff1660e01b815260040161120a91815260200190565b602060405180830381865afa158015611227573d6000803e3d6000fd5b505050506040513d601f19601f8201168201806040525081019061124b9190612222565b608082015260005483516001600160a01b039091169063ee0b07e090611273906001906121e3565b6040518263ffffffff1660e01b815260040161129191815260200190565b602060405180830381865afa1580156112ae573d6000803e3d6000fd5b505050506040513d601f19601f820116820180604052508101906112d29190612222565b82600560200201526000546001600160a01b031663bac3511984600160200201516112fe906001612300565b6040518263ffffffff1660e01b815260040161131c91815260200190565b602060405180830381865afa158015611339573d6000803e3d6000fd5b505050506040513d601f19601f8201168201806040525081019061135d9190612222565b60a082015260005483516001600160a01b039091169063ee0b07e090611385906001906121e3565b6040518263ffffffff1660e01b81526004016113a391815260200190565b602060405180830381865afa1580156113c0573d6000803e3d6000fd5b505050506040513d601f19601f820116820180604052508101906113e49190612222565b82600660200201526000546001600160a01b031663ee0b07e060018581602002015161141091906121e3565b6040518263ffffffff1660e01b815260040161142e91815260200190565b602060405180830381865afa15801561144b573d6000803e3d6000fd5b505050506040513d601f19601f8201168201806040525081019061146f9190612222565b60c082015260005483516001600160a01b039091169063bac3511990611496906001612300565b6040518263ffffffff1660e01b81526004016114b491815260200190565b602060405180830381865afa1580156114d1573d6000803e3d6000fd5b505050506040513d601f19601f820116820180604052508101906114f59190612222565b82600760200201526000546001600160a01b031663bac351198460016020020151611521906001612300565b6040518263ffffffff1660e01b815260040161153f91815260200190565b602060405180830381865afa15801561155c573d6000803e3d6000fd5b505050506040513d601f19601f820116820180604052508101906115809190612222565b60e082015260005b600881101561178e576001546001600160a01b0316631feeef988483600881106115b4576115b4612144565b60200201518484600881106115cb576115cb612144565b60200201516040516001600160e01b031960e085901b168152600481019290925260248201526044016040805180830381865afa158015611610573d6000803e3d6000fd5b505050506040513d601f19601f82011682018060405250810190611634919061215a565b51158015906116ed5750600154861515906001600160a01b0316631feeef9885846008811061166557611665612144565b602002015185856008811061167c5761167c612144565b60200201516040516001600160e01b031960e085901b168152600481019290925260248201526044016040805180830381865afa1580156116c1573d6000803e3d6000fd5b505050506040513d601f19601f820116820180604052508101906116e5919061215a565b602001511515145b1561171557600185826008811061170657611706612144565b9115156020909202015261177c565b61175e604051806040016040528085846008811061173557611735612144565b6020020151815260200184846008811061175157611751612144565b60200201519052876105e7565b5185826008811061177157611771612144565b911515602090920201525b8061178681612341565b915050611588565b50505050919050565b60006117a1611e00565b60015460405163915b740d60e01b8152851515600482015260009182916001600160a01b039091169063915b740d906024016040805180830381865afa1580156117ef573d6000803e3d6000fd5b505050506040513d601f19601f82011682018060405250810190611813919061235a565b905061181d611dc5565b60005b600881101561185d5760008260200151826008811061184157611841612144565b911515602090920201528061185581612341565b915050611820565b5061186882886105e7565b5180156118725750855b15611d985760005b61188483896105e7565b506008811015611d0f5761189883896105e7565b6020015181600881106118ad576118ad612144565b602002015115611cde57836118c181612341565b8451909550600091506118d4858b6105e7565b6040015183600881106118e9576118e9612144565b60200201516118f891906121e3565b90506000846001602002015161190e868c6105e7565b60600151846008811061192357611923612144565b602002015161193291906121e3565b6000805460405163c03c300360e01b81526004810186905292935090916001600160a01b039091169063c03c300390602401602060405180830381865afa158015611981573d6000803e3d6000fd5b505050506040513d601f19601f820116820180604052508101906119a59190612222565b6000805460405163c03c300360e01b81526004810186905292935090916001600160a01b039091169063c03c300390602401602060405180830381865afa1580156119f4573d6000803e3d6000fd5b505050506040513d601f19601f82011682018060405250810190611a189190612222565b87516020890151919250905b611a2e898f6105e7565b604001518760088110611a4357611a43612144565b602002015182141580611a795750611a5b898f6105e7565b606001518760088110611a7057611a70612144565b60200201518114155b15611cd3576000546001600160a01b031663bac35119611a998685612300565b6040518263ffffffff1660e01b8152600401611ab791815260200190565b602060405180830381865afa158015611ad4573d6000803e3d6000fd5b505050506040513d601f19601f82011682018060405250810190611af89190612222565b6000549092506001600160a01b031663bac35119611b168584612300565b6040518263ffffffff1660e01b8152600401611b3491815260200190565b602060405180830381865afa158015611b51573d6000803e3d6000fd5b505050506040513d601f19601f82011682018060405250810190611b759190612222565b9050611b966040518060400160405280848152602001838152508f156105e7565b975060005b6008811015611cb55788602001518160088110611bba57611bba612144565b60200201518015611c7b575060015460408a01516001600160a01b0390911690631feeef98908360088110611bf157611bf1612144565b60200201518b606001518460088110611c0c57611c0c612144565b60200201516040516001600160e01b031960e085901b168152600481019290925260248201526044016040805180830381865afa158015611c51573d6000803e3d6000fd5b505050506040513d601f19601f82011682018060405250810190611c75919061215a565b51600514155b15611ca35760018c8960088110611c9457611c94612144565b91151560209092020152611cb5565b80611cad81612341565b915050611b9b565b508a8760088110611cc857611cc8612144565b602002015115611a24575b505050505050611cfd565b6001858260088110611cf257611cf2612144565b911515602090920201525b80611d0781612341565b91505061187a565b50600283108015611d1e575083515b8015611d2b575060208401515b8015611d38575060408401515b8015611d45575060608401515b8015611d52575060808401515b8015611d5f575060a08401515b8015611d6c575060c08401515b8015611d79575060e08401515b15611d8b576001945050505050611da1565b6000945050505050611da1565b60019450505050505b92915050565b60405180604001604052806002906020820280368337509192915050565b6040518060800160405280600015158152602001611de1611e00565b8152602001611dee611e00565b8152602001611dfb611e00565b905290565b6040518061010001604052806008906020820280368337509192915050565b634e487b7160e01b600052604160045260246000fd5b6040805190810167ffffffffffffffff81118282101715611e5857611e58611e1f565b60405290565b6040516060810167ffffffffffffffff81118282101715611e5857611e58611e1f565b600082601f830112611e9257600080fd5b611e9a611e35565b806040840185811115611eac57600080fd5b845b81811015611ec6578035845260209384019301611eae565b509095945050505050565b8015158114611edf57600080fd5b50565b600080600060a08486031215611ef757600080fd5b611f018585611e81565b9250611f108560408601611e81565b91506080840135611f2081611ed1565b809150509250925092565b8060005b6002811015611f4e578151845260209384019390910190600101611f2f565b50505050565b821515815260608101611f6a6020830184611f2b565b9392505050565b60008060608385031215611f8457600080fd5b611f8e8484611e81565b91506040830135611f9e81611ed1565b809150509250929050565b8060005b6008811015611f4e578151845260209384019390910190600101611fad565b8151151581526020808301516103208301919081840160005b6008811015612004578251151582529183019190830190600101611fe5565b50505050604083015161201b610120840182611fa9565b506060830151610c70610220840182611fa9565b60006020828403121561204157600080fd5b8135611f6a81611ed1565b6101008101818360005b60088110156120775781511515835260209283019290910190600101612056565b50505092915050565b6000806040838503121561209357600080fd5b823561209e81611ed1565b91506020830135611f9e81611ed1565b608081016120bc8285611f2b565b611f6a6040830184611f2b565b600082601f8301126120da57600080fd5b6120e2611e35565b8060408401858111156120f457600080fd5b845b81811015611ec65780518452602093840193016120f6565b6000806060838503121561212157600080fd5b825161212c81611ed1565b915061213b84602085016120c9565b90509250929050565b634e487b7160e01b600052603260045260246000fd5b60006040828403121561216c57600080fd5b6040516040810181811067ffffffffffffffff8211171561218f5761218f611e1f565b6040528251815260208301516121a481611ed1565b60208201529392505050565b6000602082840312156121c257600080fd5b8151611f6a81611ed1565b634e487b7160e01b600052601160045260246000fd5b60008083128015600160ff1b850184121615612201576122016121cd565b6001600160ff1b038401831381161561221c5761221c6121cd565b50500390565b60006020828403121561223457600080fd5b5051919050565b60006080828403121561224d57600080fd5b6040516040810181811067ffffffffffffffff8211171561227057612270611e1f565b604052601f8301841361228257600080fd5b61228a611e5e565b80606085018681111561229c57600080fd5b855b818110156122bf5780516122b181611ed1565b84526020938401930161229e565b50908352516020830152509392505050565b6000828210156122e3576122e36121cd565b500390565b600082198211156122fb576122fb6121cd565b500190565b600080821280156001600160ff1b0384900385131615612322576123226121cd565b600160ff1b839003841281161561233b5761233b6121cd565b50500190565b600060018201612353576123536121cd565b5060010190565b60006040828403121561236c57600080fd5b611f6a83836120c956fea2646970667358221220004b199eed1e7d5de3fd3cf6e5fe17dba020c4a8801eb41eaae63c8ac9fc36ea64736f6c634300080e0033ec8156718a8372b1db44bb411437d0870f3e3790d4a08526d024ce1b0b668f6b92e85d02570a8092d09a6e3a57665bc3815a2699a4074001bf1ccabf660f5a36",
  "linkReferences": {},
  "deployedLinkReferences": {}
}