{
  "_format": "hh-sol-artifact-1",
  "contractName": "ChessBoard",
  "sourceName": "contracts/ChessBoard.sol",
  "abi": [
    {
      "inputs": [
        {
          "internalType": "address",
          "name": "_player1",
          "type": "address"
        },
        {
          "internalType": "address",
          "name": "_player2",
          "type": "address"
        }
      ],
      "stateMutability": "nonpayable",
      "type": "constructor"
    },
    {
      "inputs": [
        {
          "internalType": "bool",
          "name": "",
          "type": "bool"
        }
      ],
      "name": "KingsFirstmove",
      "outputs": [
        {
          "internalType": "bool",
          "name": "",
          "type": "bool"
        }
      ],
      "stateMutability": "view",
      "type": "function"
    },
    {
      "inputs": [
        {
          "internalType": "uint256[2]",
          "name": "oldpos",
          "type": "uint256[2]"
        },
        {
          "internalType": "uint256[2]",
          "name": "newpos",
          "type": "uint256[2]"
        }
      ],
      "name": "Move",
      "outputs": [
        {
          "internalType": "bool",
          "name": "res",
          "type": "bool"
        }
      ],
      "stateMutability": "nonpayable",
      "type": "function"
    },
    {
      "inputs": [],
      "name": "Movecontroller",
      "outputs": [
        {
          "internalType": "contract MoveController",
          "name": "",
          "type": "address"
        }
      ],
      "stateMutability": "view",
      "type": "function"
    },
    {
      "inputs": [],
      "name": "Movehandler",
      "outputs": [
        {
          "internalType": "contract MoveHandler",
          "name": "",
          "type": "address"
        }
      ],
      "stateMutability": "view",
      "type": "function"
    },
    {
      "inputs": [
        {
          "internalType": "bool",
          "name": "",
          "type": "bool"
        },
        {
          "internalType": "bool",
          "name": "",
          "type": "bool"
        }
      ],
      "name": "TowersFirstmove",
      "outputs": [
        {
          "internalType": "bool",
          "name": "",
          "type": "bool"
        }
      ],
      "stateMutability": "view",
      "type": "function"
    },
    {
      "inputs": [
        {
          "internalType": "bool",
          "name": "",
          "type": "bool"
        }
      ],
      "name": "check",
      "outputs": [
        {
          "internalType": "bool",
          "name": "",
          "type": "bool"
        }
      ],
      "stateMutability": "view",
      "type": "function"
    },
    {
      "inputs": [
        {
          "internalType": "uint256",
          "name": "i",
          "type": "uint256"
        },
        {
          "internalType": "uint256",
          "name": "j",
          "type": "uint256"
        }
      ],
      "name": "getBox",
      "outputs": [
        {
          "components": [
            {
              "internalType": "uint256",
              "name": "pedina",
              "type": "uint256"
            },
            {
              "internalType": "bool",
              "name": "color",
              "type": "bool"
            }
          ],
          "internalType": "struct ChessBoard.Box",
          "name": "box",
          "type": "tuple"
        }
      ],
      "stateMutability": "view",
      "type": "function"
    },
    {
      "inputs": [
        {
          "internalType": "bool",
          "name": "_player",
          "type": "bool"
        }
      ],
      "name": "getCheck",
      "outputs": [
        {
          "internalType": "bool",
          "name": "res",
          "type": "bool"
        }
      ],
      "stateMutability": "view",
      "type": "function"
    },
    {
      "inputs": [
        {
          "internalType": "bool",
          "name": "team",
          "type": "bool"
        }
      ],
      "name": "getKing",
      "outputs": [
        {
          "internalType": "uint256[2]",
          "name": "pos",
          "type": "uint256[2]"
        }
      ],
      "stateMutability": "view",
      "type": "function"
    },
    {
      "inputs": [
        {
          "internalType": "bool",
          "name": "team",
          "type": "bool"
        }
      ],
      "name": "getPlayer",
      "outputs": [
        {
          "internalType": "address",
          "name": "_player",
          "type": "address"
        }
      ],
      "stateMutability": "view",
      "type": "function"
    },
    {
      "inputs": [
        {
          "internalType": "uint256",
          "name": "pedina",
          "type": "uint256"
        }
      ],
      "name": "getRules",
      "outputs": [
        {
          "components": [
            {
              "internalType": "bool[3]",
              "name": "moves_directions",
              "type": "bool[3]"
            },
            {
              "internalType": "uint256",
              "name": "maxsteps",
              "type": "uint256"
            }
          ],
          "internalType": "struct ChessBoard._Rules",
          "name": "rule",
          "type": "tuple"
        }
      ],
      "stateMutability": "view",
      "type": "function"
    },
    {
      "inputs": [
        {
          "internalType": "address",
          "name": "_player",
          "type": "address"
        }
      ],
      "name": "getTeam",
      "outputs": [
        {
          "internalType": "bool",
          "name": "team",
          "type": "bool"
        }
      ],
      "stateMutability": "view",
      "type": "function"
    },
    {
      "inputs": [
        {
          "internalType": "uint256[2]",
          "name": "newpos",
          "type": "uint256[2]"
        },
        {
          "internalType": "bool",
          "name": "team",
          "type": "bool"
        }
      ],
      "name": "isNotEvilBox",
      "outputs": [
        {
          "internalType": "bool",
          "name": "res",
          "type": "bool"
        }
      ],
      "stateMutability": "view",
      "type": "function"
    },
    {
      "inputs": [
        {
          "internalType": "bool",
          "name": "",
          "type": "bool"
        }
      ],
      "name": "players",
      "outputs": [
        {
          "internalType": "address",
          "name": "",
          "type": "address"
        }
      ],
      "stateMutability": "view",
      "type": "function"
    },
    {
      "inputs": [
        {
          "internalType": "address",
          "name": "",
          "type": "address"
        }
      ],
      "name": "prizes",
      "outputs": [
        {
          "internalType": "uint256",
          "name": "",
          "type": "uint256"
        }
      ],
      "stateMutability": "view",
      "type": "function"
    },
    {
      "inputs": [],
      "name": "totalPrize",
      "outputs": [
        {
          "internalType": "uint256",
          "name": "",
          "type": "uint256"
        }
      ],
      "stateMutability": "view",
      "type": "function"
    },
    {
      "inputs": [],
      "name": "winner",
      "outputs": [
        {
          "internalType": "address",
          "name": "",
          "type": "address"
        }
      ],
      "stateMutability": "view",
      "type": "function"
    },
    {
      "stateMutability": "payable",
      "type": "receive"
    }
  ],
  "bytecode": "0x60806040523480156200001157600080fd5b506040516200c6b53803806200c6b5833981810160405281019062000037919062001f49565b30604051620000469062001dba565b62000052919062001fb5565b604051809103906000f0801580156200006f573d6000803e3d6000fd5b50608b60006101000a81548173ffffffffffffffffffffffffffffffffffffffff021916908373ffffffffffffffffffffffffffffffffffffffff160217905550608b60009054906101000a900473ffffffffffffffffffffffffffffffffffffffff1630604051620000e29062001dc8565b620000ef92919062001fe3565b604051809103906000f0801580156200010c573d6000803e3d6000fd5b50608c60006101000a81548173ffffffffffffffffffffffffffffffffffffffff021916908373ffffffffffffffffffffffffffffffffffffffff1602179055508160096000600115151515815260200190815260200160002060006101000a81548173ffffffffffffffffffffffffffffffffffffffff021916908373ffffffffffffffffffffffffffffffffffffffff16021790555080600960008015151515815260200190815260200160002060006101000a81548173ffffffffffffffffffffffffffffffffffffffff021916908373ffffffffffffffffffffffffffffffffffffffff16021790555081600160006101000a81548173ffffffffffffffffffffffffffffffffffffffff021916908373ffffffffffffffffffffffffffffffffffffffff16021790555060016008600060096000600115151515815260200190815260200160002060009054906101000a900473ffffffffffffffffffffffffffffffffffffffff1673ffffffffffffffffffffffffffffffffffffffff1673ffffffffffffffffffffffffffffffffffffffff16815260200190815260200160002060006101000a81548160ff021916908315150217905550600060086000600960008015151515815260200190815260200160002060009054906101000a900473ffffffffffffffffffffffffffffffffffffffff1673ffffffffffffffffffffffffffffffffffffffff1673ffffffffffffffffffffffffffffffffffffffff16815260200190815260200160002060006101000a81548160ff0219169083151502179055506040518060400160405280600360ff168152602001600760ff16815250600460006008600060096000600115151515815260200190815260200160002060009054906101000a900473ffffffffffffffffffffffffffffffffffffffff1673ffffffffffffffffffffffffffffffffffffffff1673ffffffffffffffffffffffffffffffffffffffff16815260200190815260200160002060009054906101000a900460ff161515151581526020019081526020016000209060026200042292919062001dd6565b506040518060400160405280600360ff168152602001600060ff168152506004600060086000600960008015151515815260200190815260200160002060009054906101000a900473ffffffffffffffffffffffffffffffffffffffff1673ffffffffffffffffffffffffffffffffffffffff1673ffffffffffffffffffffffffffffffffffffffff16815260200190815260200160002060009054906101000a900460ff16151515158152602001908152602001600020906002620004ea92919062001dd6565b506000600760006008600060096000600115151515815260200190815260200160002060009054906101000a900473ffffffffffffffffffffffffffffffffffffffff1673ffffffffffffffffffffffffffffffffffffffff1673ffffffffffffffffffffffffffffffffffffffff16815260200190815260200160002060009054906101000a900460ff1615151515815260200190815260200160002060006101000a81548160ff02191690831515021790555060006007600060086000600960008015151515815260200190815260200160002060009054906101000a900473ffffffffffffffffffffffffffffffffffffffff1673ffffffffffffffffffffffffffffffffffffffff1673ffffffffffffffffffffffffffffffffffffffff16815260200190815260200160002060009054906101000a900460ff1615151515815260200190815260200160002060006101000a81548160ff0219169083151502179055506001600560006008600060096000600115151515815260200190815260200160002060009054906101000a900473ffffffffffffffffffffffffffffffffffffffff1673ffffffffffffffffffffffffffffffffffffffff1673ffffffffffffffffffffffffffffffffffffffff16815260200190815260200160002060009054906101000a900460ff1615151515815260200190815260200160002060006101000a81548160ff02191690831515021790555060016005600060086000600960008015151515815260200190815260200160002060009054906101000a900473ffffffffffffffffffffffffffffffffffffffff1673ffffffffffffffffffffffffffffffffffffffff1673ffffffffffffffffffffffffffffffffffffffff16815260200190815260200160002060009054906101000a900460ff1615151515815260200190815260200160002060006101000a81548160ff0219169083151502179055506001600660006008600060096000600115151515815260200190815260200160002060009054906101000a900473ffffffffffffffffffffffffffffffffffffffff1673ffffffffffffffffffffffffffffffffffffffff1673ffffffffffffffffffffffffffffffffffffffff16815260200190815260200160002060009054906101000a900460ff1615151515815260200190815260200160002060008015151515815260200190815260200160002060006101000a81548160ff0219169083151502179055506001600660006008600060096000600115151515815260200190815260200160002060009054906101000a900473ffffffffffffffffffffffffffffffffffffffff1673ffffffffffffffffffffffffffffffffffffffff1673ffffffffffffffffffffffffffffffffffffffff16815260200190815260200160002060009054906101000a900460ff161515151581526020019081526020016000206000600115151515815260200190815260200160002060006101000a81548160ff02191690831515021790555060016006600060086000600960008015151515815260200190815260200160002060009054906101000a900473ffffffffffffffffffffffffffffffffffffffff1673ffffffffffffffffffffffffffffffffffffffff1673ffffffffffffffffffffffffffffffffffffffff16815260200190815260200160002060009054906101000a900460ff1615151515815260200190815260200160002060008015151515815260200190815260200160002060006101000a81548160ff02191690831515021790555060016006600060086000600960008015151515815260200190815260200160002060009054906101000a900473ffffffffffffffffffffffffffffffffffffffff1673ffffffffffffffffffffffffffffffffffffffff1673ffffffffffffffffffffffffffffffffffffffff16815260200190815260200160002060009054906101000a900460ff161515151581526020019081526020016000206000600115151515815260200190815260200160002060006101000a81548160ff0219169083151502179055506040518060400160405280604051806060016040528060001515151581526020016000151515158152602001600015151515815250815260200160008152506003600080815260200190815260200160002060008201518160000190600362000b4892919062001e20565b5060208201518160010155905050604051806040016040528060405180606001604052806000151515158152602001600115151515815260200160001515151581525081526020016001815250600360006001815260200190815260200160002060008201518160000190600362000bc292919062001e20565b5060208201518160010155905050604051806040016040528060405180606001604052806001151515158152602001600115151515815260200160001515151581525081526020016007815250600360006002815260200190815260200160002060008201518160000190600362000c3c92919062001e20565b5060208201518160010155905050604051806040016040528060405180606001604052806000151515158152602001600015151515815260200160001515151581525081526020016004815250600360006003815260200190815260200160002060008201518160000190600362000cb692919062001e20565b5060208201518160010155905050604051806040016040528060405180606001604052806000151515158152602001600015151515815260200160011515151581525081526020016007815250600360006004815260200190815260200160002060008201518160000190600362000d3092919062001e20565b5060208201518160010155905050604051806040016040528060405180606001604052806001151515158152602001600115151515815260200160011515151581525081526020016001815250600360006005815260200190815260200160002060008201518160000190600362000daa92919062001e20565b5060208201518160010155905050604051806040016040528060405180606001604052806001151515158152602001600115151515815260200160011515151581525081526020016007815250600360006006815260200190815260200160002060008201518160000190600362000e2492919062001e20565b506020820151816001015590505060405180604001604052806002815260200160001515815250600b60006008811062000e635762000e6262002010565b5b6010020160006008811062000e7d5762000e7c62002010565b5b600202016000820151816000015560208201518160010160006101000a81548160ff02191690831515021790555090505060405180604001604052806003815260200160001515815250600b60016008811062000edf5762000ede62002010565b5b6010020160006008811062000ef95762000ef862002010565b5b600202016000820151816000015560208201518160010160006101000a81548160ff02191690831515021790555090505060405180604001604052806004815260200160001515815250600b60026008811062000f5b5762000f5a62002010565b5b6010020160006008811062000f755762000f7462002010565b5b600202016000820151816000015560208201518160010160006101000a81548160ff02191690831515021790555090505060405180604001604052806005815260200160001515815250600b60036008811062000fd75762000fd662002010565b5b6010020160006008811062000ff15762000ff062002010565b5b600202016000820151816000015560208201518160010160006101000a81548160ff02191690831515021790555090505060405180604001604052806006815260200160001515815250600b60046008811062001053576200105262002010565b5b601002016000600881106200106d576200106c62002010565b5b600202016000820151816000015560208201518160010160006101000a81548160ff02191690831515021790555090505060405180604001604052806004815260200160001515815250600b600560088110620010cf57620010ce62002010565b5b60100201600060088110620010e957620010e862002010565b5b600202016000820151816000015560208201518160010160006101000a81548160ff02191690831515021790555090505060405180604001604052806003815260200160001515815250600b6006600881106200114b576200114a62002010565b5b6010020160006008811062001165576200116462002010565b5b600202016000820151816000015560208201518160010160006101000a81548160ff02191690831515021790555090505060405180604001604052806002815260200160001515815250600b600760088110620011c757620011c662002010565b5b60100201600060088110620011e157620011e062002010565b5b600202016000820151816000015560208201518160010160006101000a81548160ff02191690831515021790555090505060405180604001604052806001815260200160001515815250600b60006008811062001243576200124262002010565b5b601002016001600881106200125d576200125c62002010565b5b600202016000820151816000015560208201518160010160006101000a81548160ff02191690831515021790555090505060405180604001604052806001815260200160001515815250600b600160088110620012bf57620012be62002010565b5b60100201600160088110620012d957620012d862002010565b5b600202016000820151816000015560208201518160010160006101000a81548160ff02191690831515021790555090505060405180604001604052806001815260200160001515815250600b6002600881106200133b576200133a62002010565b5b6010020160016008811062001355576200135462002010565b5b600202016000820151816000015560208201518160010160006101000a81548160ff02191690831515021790555090505060405180604001604052806001815260200160001515815250600b600360088110620013b757620013b662002010565b5b60100201600160088110620013d157620013d062002010565b5b600202016000820151816000015560208201518160010160006101000a81548160ff02191690831515021790555090505060405180604001604052806001815260200160001515815250600b60046008811062001433576200143262002010565b5b601002016001600881106200144d576200144c62002010565b5b600202016000820151816000015560208201518160010160006101000a81548160ff02191690831515021790555090505060405180604001604052806001815260200160001515815250600b600560088110620014af57620014ae62002010565b5b60100201600160088110620014c957620014c862002010565b5b600202016000820151816000015560208201518160010160006101000a81548160ff02191690831515021790555090505060405180604001604052806001815260200160001515815250600b6006600881106200152b576200152a62002010565b5b6010020160016008811062001545576200154462002010565b5b600202016000820151816000015560208201518160010160006101000a81548160ff02191690831515021790555090505060405180604001604052806001815260200160001515815250600b600760088110620015a757620015a662002010565b5b60100201600160088110620015c157620015c062002010565b5b600202016000820151816000015560208201518160010160006101000a81548160ff02191690831515021790555090505060405180604001604052806001815260200160011515815250600b60006008811062001623576200162262002010565b5b601002016006600881106200163d576200163c62002010565b5b600202016000820151816000015560208201518160010160006101000a81548160ff02191690831515021790555090505060405180604001604052806001815260200160011515815250600b6001600881106200169f576200169e62002010565b5b60100201600660088110620016b957620016b862002010565b5b600202016000820151816000015560208201518160010160006101000a81548160ff02191690831515021790555090505060405180604001604052806001815260200160011515815250600b6002600881106200171b576200171a62002010565b5b6010020160066008811062001735576200173462002010565b5b600202016000820151816000015560208201518160010160006101000a81548160ff02191690831515021790555090505060405180604001604052806001815260200160011515815250600b60036008811062001797576200179662002010565b5b60100201600660088110620017b157620017b062002010565b5b600202016000820151816000015560208201518160010160006101000a81548160ff02191690831515021790555090505060405180604001604052806001815260200160011515815250600b60046008811062001813576200181262002010565b5b601002016006600881106200182d576200182c62002010565b5b600202016000820151816000015560208201518160010160006101000a81548160ff02191690831515021790555090505060405180604001604052806001815260200160011515815250600b6005600881106200188f576200188e62002010565b5b60100201600660088110620018a957620018a862002010565b5b600202016000820151816000015560208201518160010160006101000a81548160ff02191690831515021790555090505060405180604001604052806001815260200160011515815250600b6006600881106200190b576200190a62002010565b5b6010020160066008811062001925576200192462002010565b5b600202016000820151816000015560208201518160010160006101000a81548160ff02191690831515021790555090505060405180604001604052806001815260200160011515815250600b60076008811062001987576200198662002010565b5b60100201600660088110620019a157620019a062002010565b5b600202016000820151816000015560208201518160010160006101000a81548160ff02191690831515021790555090505060405180604001604052806002815260200160011515815250600b60006008811062001a035762001a0262002010565b5b6010020160076008811062001a1d5762001a1c62002010565b5b600202016000820151816000015560208201518160010160006101000a81548160ff02191690831515021790555090505060405180604001604052806003815260200160011515815250600b60016008811062001a7f5762001a7e62002010565b5b6010020160076008811062001a995762001a9862002010565b5b600202016000820151816000015560208201518160010160006101000a81548160ff02191690831515021790555090505060405180604001604052806004815260200160011515815250600b60026008811062001afb5762001afa62002010565b5b6010020160076008811062001b155762001b1462002010565b5b600202016000820151816000015560208201518160010160006101000a81548160ff02191690831515021790555090505060405180604001604052806005815260200160011515815250600b60036008811062001b775762001b7662002010565b5b6010020160076008811062001b915762001b9062002010565b5b600202016000820151816000015560208201518160010160006101000a81548160ff02191690831515021790555090505060405180604001604052806006815260200160011515815250600b60046008811062001bf35762001bf262002010565b5b6010020160076008811062001c0d5762001c0c62002010565b5b600202016000820151816000015560208201518160010160006101000a81548160ff02191690831515021790555090505060405180604001604052806004815260200160011515815250600b60056008811062001c6f5762001c6e62002010565b5b6010020160076008811062001c895762001c8862002010565b5b600202016000820151816000015560208201518160010160006101000a81548160ff02191690831515021790555090505060405180604001604052806003815260200160011515815250600b60066008811062001ceb5762001cea62002010565b5b6010020160076008811062001d055762001d0462002010565b5b600202016000820151816000015560208201518160010160006101000a81548160ff02191690831515021790555090505060405180604001604052806002815260200160011515815250600b60076008811062001d675762001d6662002010565b5b6010020160076008811062001d815762001d8062002010565b5b600202016000820151816000015560208201518160010160006101000a81548160ff02191690831515021790555090505050506200203f565b612f8680620053d983390190565b614356806200835f83390190565b826002810192821562001e0d579160200282015b8281111562001e0c578251829060ff1690559160200191906001019062001dea565b5b50905062001e1c919062001ec0565b5090565b826003601f0160209004810192821562001ead5791602002820160005b8382111562001e7c57835183826101000a81548160ff021916908315150217905550926020019260010160208160000104928301926001030262001e3d565b801562001eab5782816101000a81549060ff021916905560010160208160000104928301926001030262001e7c565b505b50905062001ebc919062001ec0565b5090565b5b8082111562001edb57600081600090555060010162001ec1565b5090565b600080fd5b600073ffffffffffffffffffffffffffffffffffffffff82169050919050565b600062001f118262001ee4565b9050919050565b62001f238162001f04565b811462001f2f57600080fd5b50565b60008151905062001f438162001f18565b92915050565b6000806040838503121562001f635762001f6262001edf565b5b600062001f738582860162001f32565b925050602062001f868582860162001f32565b9150509250929050565b600062001f9d8262001ee4565b9050919050565b62001faf8162001f90565b82525050565b600060208201905062001fcc600083018462001fa4565b92915050565b62001fdd8162001f04565b82525050565b600060408201905062001ffa600083018562001fd2565b62002009602083018462001fa4565b9392505050565b7f4e487b7100000000000000000000000000000000000000000000000000000000600052603260045260246000fd5b61338a806200204f6000396000f3fe6080604052600436106101025760003560e01c8063b35d11bf11610095578063d0d6defb11610064578063d0d6defb14610546578063dbdfbae714610583578063dfbf53ae146105ae578063fd5fcef1146105d9578063fe9ba8ec1461060457610277565b8063b35d11bf14610452578063b99e131b1461048f578063bbc2b0ce146104cc578063c33b07781461050957610277565b806382b1ad50116100d157806382b1ad501461037057806387529f0f1461039b5780638f7daf0f146103d8578063915b740d1461041557610277565b80631feeef981461027c578063241c5912146102b95780632f553dec146102f65780637ac8802e1461033357610277565b366102775760096000600115151515815260200190815260200160002060009054906101000a900473ffffffffffffffffffffffffffffffffffffffff1673ffffffffffffffffffffffffffffffffffffffff163373ffffffffffffffffffffffffffffffffffffffff1614806101db5750600960008015151515815260200190815260200160002060009054906101000a900473ffffffffffffffffffffffffffffffffffffffff1673ffffffffffffffffffffffffffffffffffffffff163373ffffffffffffffffffffffffffffffffffffffff16145b61021a576040517f08c379a000000000000000000000000000000000000000000000000000000000815260040161021190612743565b60405180910390fd5b34600a60003373ffffffffffffffffffffffffffffffffffffffff1673ffffffffffffffffffffffffffffffffffffffff168152602001908152602001600020819055503460008082825461026f919061279c565b925050819055005b600080fd5b34801561028857600080fd5b506102a3600480360381019061029e919061282d565b610641565b6040516102b091906128c6565b60405180910390f35b3480156102c557600080fd5b506102e060048036038101906102db919061290d565b6106af565b6040516102ed9190612949565b60405180910390f35b34801561030257600080fd5b5061031d60048036038101906103189190612aab565b6106cf565b60405161032a9190612949565b60405180910390f35b34801561033f57600080fd5b5061035a60048036038101906103559190612aeb565b611f41565b6040516103679190612949565b60405180910390f35b34801561037c57600080fd5b50610385611f70565b6040516103929190612b3a565b60405180910390f35b3480156103a757600080fd5b506103c260048036038101906103bd9190612bb3565b611f76565b6040516103cf9190612949565b60405180910390f35b3480156103e457600080fd5b506103ff60048036038101906103fa9190612be0565b611fcc565b60405161040c9190612cd8565b60405180910390f35b34801561042157600080fd5b5061043c6004803603810190610437919061290d565b61206d565b6040516104499190612d8f565b60405180910390f35b34801561045e57600080fd5b5061047960048036038101906104749190612bb3565b6120cf565b6040516104869190612b3a565b60405180910390f35b34801561049b57600080fd5b506104b660048036038101906104b1919061290d565b6120e7565b6040516104c39190612db9565b60405180910390f35b3480156104d857600080fd5b506104f360048036038101906104ee919061290d565b612128565b6040516105009190612949565b60405180910390f35b34801561051557600080fd5b50610530600480360381019061052b9190612dd4565b612148565b60405161053d9190612949565b60405180910390f35b34801561055257600080fd5b5061056d6004803603810190610568919061290d565b612214565b60405161057a9190612db9565b60405180910390f35b34801561058f57600080fd5b50610598612247565b6040516105a59190612e73565b60405180910390f35b3480156105ba57600080fd5b506105c361226d565b6040516105d09190612db9565b60405180910390f35b3480156105e557600080fd5b506105ee612293565b6040516105fb9190612eaf565b60405180910390f35b34801561061057600080fd5b5061062b6004803603810190610626919061290d565b6122b9565b6040516106389190612949565b60405180910390f35b61064961262f565b600b836008811061065d5761065c612eca565b5b60100201826008811061067357610672612eca565b5b60020201604051806040016040529081600082015481526020016001820160009054906101000a900460ff161515151581525050905092915050565b60076020528060005260406000206000915054906101000a900460ff1681565b600060096000600115151515815260200190815260200160002060009054906101000a900473ffffffffffffffffffffffffffffffffffffffff1673ffffffffffffffffffffffffffffffffffffffff163373ffffffffffffffffffffffffffffffffffffffff1614806107a55750600960008015151515815260200190815260200160002060009054906101000a900473ffffffffffffffffffffffffffffffffffffffff1673ffffffffffffffffffffffffffffffffffffffff163373ffffffffffffffffffffffffffffffffffffffff16145b6107e4576040517f08c379a00000000000000000000000000000000000000000000000000000000081526004016107db90612743565b60405180910390fd5b8282608b60009054906101000a900473ffffffffffffffffffffffffffffffffffffffff1673ffffffffffffffffffffffffffffffffffffffff16636d5725008383600860003373ffffffffffffffffffffffffffffffffffffffff1673ffffffffffffffffffffffffffffffffffffffff16815260200190815260200160002060009054906101000a900460ff1660036000600b8960006002811061088d5761088c612eca565b5b6020020151600881106108a3576108a2612eca565b5b60100201896001600281106108bb576108ba612eca565b5b6020020151600881106108d1576108d0612eca565b5b60020201600001548152602001908152602001600020600101546040518563ffffffff1660e01b815260040161090a9493929190612ef9565b6020604051808303816000875af1158015610929573d6000803e3d6000fd5b505050506040513d601f19601f8201168201806040525081019061094d9190612f53565b61098c576040517f08c379a000000000000000000000000000000000000000000000000000000000815260040161098390612743565b60405180910390fd5b8484600860003373ffffffffffffffffffffffffffffffffffffffff1673ffffffffffffffffffffffffffffffffffffffff16815260200190815260200160002060009054906101000a900460ff168015610a4857506001600b836000600281106109fa576109f9612eca565b5b602002015160088110610a1057610a0f612eca565b5b6010020183600160028110610a2857610a27612eca565b5b602002015160088110610a3e57610a3d612eca565b5b6002020160000154145b8015610a6c5750600081600160028110610a6557610a64612eca565b5b6020020151145b15610add576006600b83600060028110610a8957610a88612eca565b5b602002015160088110610a9f57610a9e612eca565b5b6010020183600160028110610ab757610ab6612eca565b5b602002015160088110610acd57610acc612eca565b5b6002020160000181905550610c2a565b600860003373ffffffffffffffffffffffffffffffffffffffff1673ffffffffffffffffffffffffffffffffffffffff16815260200190815260200160002060009054906101000a900460ff16158015610b9857506001600b83600060028110610b4a57610b49612eca565b5b602002015160088110610b6057610b5f612eca565b5b6010020183600160028110610b7857610b77612eca565b5b602002015160088110610b8e57610b8d612eca565b5b6002020160000154145b8015610bbc5750600781600160028110610bb557610bb4612eca565b5b6020020151145b15610c29576006600b83600060028110610bd957610bd8612eca565b5b602002015160088110610bef57610bee612eca565b5b6010020183600160028110610c0757610c06612eca565b5b602002015160088110610c1d57610c1c612eca565b5b60020201600001819055505b5b86866005600b83600060028110610c4457610c43612eca565b5b602002015160088110610c5a57610c59612eca565b5b6010020183600160028110610c7257610c71612eca565b5b602002015160088110610c8857610c87612eca565b5b600202016000015403610d3457610ceb81600860003373ffffffffffffffffffffffffffffffffffffffff1673ffffffffffffffffffffffffffffffffffffffff16815260200190815260200160002060009054906101000a900460ff16612148565b610d2a576040517f08c379a0000000000000000000000000000000000000000000000000000000008152600401610d2190612fcc565b60405180910390fd5b610d33816122e7565b5b876000608b60009054906101000a900473ffffffffffffffffffffffffffffffffffffffff1673ffffffffffffffffffffffffffffffffffffffff166371cc5ad18360046000600860003373ffffffffffffffffffffffffffffffffffffffff1673ffffffffffffffffffffffffffffffffffffffff16815260200190815260200160002060009054906101000a900460ff16151515151581526020019081526020016000206040518363ffffffff1660e01b8152600401610df79291906130b0565b606060405180830381865afa158015610e14573d6000803e3d6000fd5b505050506040513d601f19601f82011682018060405250810190610e389190613179565b5080915050608b60009054906101000a900473ffffffffffffffffffffffffffffffffffffffff1673ffffffffffffffffffffffffffffffffffffffff1663ac411ce68360046000600860003373ffffffffffffffffffffffffffffffffffffffff1673ffffffffffffffffffffffffffffffffffffffff16815260200190815260200160002060009054906101000a900460ff16151515151581526020019081526020016000206040518363ffffffff1660e01b8152600401610efd9291906130b0565b602060405180830381865afa158015610f1a573d6000803e3d6000fd5b505050506040513d601f19601f82011682018060405250810190610f3e9190612f53565b8015610f475750805b15610f5757610f5660016123d9565b5b600080608c60009054906101000a900473ffffffffffffffffffffffffffffffffffffffff1673ffffffffffffffffffffffffffffffffffffffff16638b69cfad600860003373ffffffffffffffffffffffffffffffffffffffff1673ffffffffffffffffffffffffffffffffffffffff16815260200190815260200160002060009054906101000a900460ff166040518263ffffffff1660e01b81526004016110019190612949565b6040805180830381865afa15801561101d573d6000803e3d6000fd5b505050506040513d601f19601f8201168201806040525081019061104191906131b9565b80925081935050506005600b8e60006002811061106157611060612eca565b5b60200201516008811061107757611076612eca565b5b601002018e60016002811061108f5761108e612eca565b5b6020020151600881106110a5576110a4612eca565b5b60020201600001541480156110f5575060028c6000600281106110cb576110ca612eca565b5b60200201518e6000600281106110e4576110e3612eca565b5b60200201516110f39190613203565b145b801561116e575060056000600860003373ffffffffffffffffffffffffffffffffffffffff1673ffffffffffffffffffffffffffffffffffffffff16815260200190815260200160002060009054906101000a900460ff1615151515815260200190815260200160002060009054906101000a900460ff165b80156111cc57506111ca600860003373ffffffffffffffffffffffffffffffffffffffff1673ffffffffffffffffffffffffffffffffffffffff16815260200190815260200160002060009054906101000a900460ff166122b9565b155b156118be5760066000600860003373ffffffffffffffffffffffffffffffffffffffff1673ffffffffffffffffffffffffffffffffffffffff16815260200190815260200160002060009054906101000a900460ff161515151581526020019081526020016000206000600115151515815260200190815260200160002060009054906101000a900460ff161561154757604051806040016040528060008152602001600860003373ffffffffffffffffffffffffffffffffffffffff1673ffffffffffffffffffffffffffffffffffffffff16815260200190815260200160002060009054906101000a900460ff161515815250600b8e6000600281106112d7576112d6612eca565b5b6020020151600881106112ed576112ec612eca565b5b601002018e60016002811061130557611304612eca565b5b60200201516008811061131b5761131a612eca565b5b600202016000820151816000015560208201518160010160006101000a81548160ff021916908315150217905550905050604051806040016040528060058152602001600860003373ffffffffffffffffffffffffffffffffffffffff1673ffffffffffffffffffffffffffffffffffffffff16815260200190815260200160002060009054906101000a900460ff161515815250600b8e6000600281106113c6576113c5612eca565b5b6020020151600881106113dc576113db612eca565b5b6010020160028f6001600281106113f6576113f5612eca565b5b6020020151611405919061279c565b6008811061141657611415612eca565b5b600202016000820151816000015560208201518160010160006101000a81548160ff021916908315150217905550905050604051806040016040528060028152602001600860003373ffffffffffffffffffffffffffffffffffffffff1673ffffffffffffffffffffffffffffffffffffffff16815260200190815260200160002060009054906101000a900460ff161515815250600b8e6000600281106114c1576114c0612eca565b5b6020020151600881106114d7576114d6612eca565b5b6010020160018f6001600281106114f1576114f0612eca565b5b6020020151611500919061279c565b6008811061151157611510612eca565b5b600202016000820151816000015560208201518160010160006101000a81548160ff0219169083151502179055509050506118b9565b60066000600860003373ffffffffffffffffffffffffffffffffffffffff1673ffffffffffffffffffffffffffffffffffffffff16815260200190815260200160002060009054906101000a900460ff1615151515815260200190815260200160002060008015151515815260200190815260200160002060009054906101000a900460ff16156118b857604051806040016040528060008152602001600860003373ffffffffffffffffffffffffffffffffffffffff1673ffffffffffffffffffffffffffffffffffffffff16815260200190815260200160002060009054906101000a900460ff161515815250600b8e60006002811061164c5761164b612eca565b5b60200201516008811061166257611661612eca565b5b601002018e60016002811061167a57611679612eca565b5b6020020151600881106116905761168f612eca565b5b600202016000820151816000015560208201518160010160006101000a81548160ff021916908315150217905550905050604051806040016040528060058152602001600860003373ffffffffffffffffffffffffffffffffffffffff1673ffffffffffffffffffffffffffffffffffffffff16815260200190815260200160002060009054906101000a900460ff161515815250600b8e60006002811061173b5761173a612eca565b5b60200201516008811061175157611750612eca565b5b6010020160028f60016002811061176b5761176a612eca565b5b602002015161177a9190613297565b6008811061178b5761178a612eca565b5b600202016000820151816000015560208201518160010160006101000a81548160ff021916908315150217905550905050604051806040016040528060028152602001600860003373ffffffffffffffffffffffffffffffffffffffff1673ffffffffffffffffffffffffffffffffffffffff16815260200190815260200160002060009054906101000a900460ff161515815250600b8e60006002811061183657611835612eca565b5b60200201516008811061184c5761184b612eca565b5b6010020160018f60016002811061186657611865612eca565b5b60200201516118759190613297565b6008811061188657611885612eca565b5b600202016000820151816000015560208201518160010160006101000a81548160ff0219169083151502179055509050505b5b611f24565b8180156118c85750805b1561196a5760096000600860003373ffffffffffffffffffffffffffffffffffffffff1673ffffffffffffffffffffffffffffffffffffffff16815260200190815260200160002060009054906101000a900460ff161515151515815260200190815260200160002060009054906101000a900473ffffffffffffffffffffffffffffffffffffffff1673ffffffffffffffffffffffffffffffffffffffff16ff5b81158015611976575080155b15611bdf57600b8d60006002811061199157611990612eca565b5b6020020151600881106119a7576119a6612eca565b5b601002018d6001600281106119bf576119be612eca565b5b6020020151600881106119d5576119d4612eca565b5b60020201600b8d6000600281106119ef576119ee612eca565b5b602002015160088110611a0557611a04612eca565b5b601002018d600160028110611a1d57611a1c612eca565b5b602002015160088110611a3357611a32612eca565b5b60020201600082015481600001556001820160009054906101000a900460ff168160010160006101000a81548160ff02191690831515021790555090505060405180604001604052806000815260200160001515815250600b8e600060028110611aa057611a9f612eca565b5b602002015160088110611ab657611ab5612eca565b5b601002018e600160028110611ace57611acd612eca565b5b602002015160088110611ae457611ae3612eca565b5b600202016000820151816000015560208201518160010160006101000a81548160ff02191690831515021790555090505060096000600860003373ffffffffffffffffffffffffffffffffffffffff1673ffffffffffffffffffffffffffffffffffffffff16815260200190815260200160002060009054906101000a900460ff161515151515815260200190815260200160002060009054906101000a900473ffffffffffffffffffffffffffffffffffffffff16600160006101000a81548173ffffffffffffffffffffffffffffffffffffffff021916908373ffffffffffffffffffffffffffffffffffffffff160217905550611f23565b81158015611bea5750805b15611f225760096000600860003373ffffffffffffffffffffffffffffffffffffffff1673ffffffffffffffffffffffffffffffffffffffff16815260200190815260200160002060009054906101000a900460ff1615151515815260200190815260200160002060009054906101000a900473ffffffffffffffffffffffffffffffffffffffff1673ffffffffffffffffffffffffffffffffffffffff166108fc6002600a600060096000600860003373ffffffffffffffffffffffffffffffffffffffff1673ffffffffffffffffffffffffffffffffffffffff16815260200190815260200160002060009054906101000a900460ff1615151515815260200190815260200160002060009054906101000a900473ffffffffffffffffffffffffffffffffffffffff1673ffffffffffffffffffffffffffffffffffffffff1673ffffffffffffffffffffffffffffffffffffffff16815260200190815260200160002054611d5b91906132fa565b9081150290604051600060405180830381858888f19350505050158015611d86573d6000803e3d6000fd5b5060096000600860003373ffffffffffffffffffffffffffffffffffffffff1673ffffffffffffffffffffffffffffffffffffffff16815260200190815260200160002060009054906101000a900460ff161515151515815260200190815260200160002060009054906101000a900473ffffffffffffffffffffffffffffffffffffffff1673ffffffffffffffffffffffffffffffffffffffff166108fc6002600a600060096000600860003373ffffffffffffffffffffffffffffffffffffffff1673ffffffffffffffffffffffffffffffffffffffff16815260200190815260200160002060009054906101000a900460ff161515151515815260200190815260200160002060009054906101000a900473ffffffffffffffffffffffffffffffffffffffff1673ffffffffffffffffffffffffffffffffffffffff1673ffffffffffffffffffffffffffffffffffffffff16815260200190815260200160002054611ef591906132fa565b9081150290604051600060405180830381858888f19350505050158015611f20573d6000803e3d6000fd5b505b5b5b611f2d8d612458565b60019a505050505050505050505092915050565b60066020528160005260406000206020528060005260406000206000915091509054906101000a900460ff1681565b60005481565b6000600860008373ffffffffffffffffffffffffffffffffffffffff1673ffffffffffffffffffffffffffffffffffffffff16815260200190815260200160002060009054906101000a900460ff169050919050565b611fd461264b565b6003600083815260200190815260200160002060405180604001604052908160008201600380602002604051908101604052809291908260038015612053576020028201916000905b82829054906101000a900460ff1615158152602001906001019060208260000104928301926001038202915080841161201d5790505b505050505081526020016001820154815250509050919050565b61207561266b565b60046000831515151581526020019081526020016000206002806020026040519081016040528092919082600280156120c3576020028201915b8154815260200190600101908083116120af575b50505050509050919050565b600a6020528060005260406000206000915090505481565b6000600960008315151515815260200190815260200160002060009054906101000a900473ffffffffffffffffffffffffffffffffffffffff169050919050565b60056020528060005260406000206000915054906101000a900460ff1681565b60008061215361266b565b608c60009054906101000a900473ffffffffffffffffffffffffffffffffffffffff1673ffffffffffffffffffffffffffffffffffffffff16632f1d807486866040518363ffffffff1660e01b81526004016121b092919061332b565b606060405180830381865afa1580156121cd573d6000803e3d6000fd5b505050506040513d601f19601f820116820180604052508101906121f19190613179565b809250819350505081612207576001925061220c565b600092505b505092915050565b60096020528060005260406000206000915054906101000a900473ffffffffffffffffffffffffffffffffffffffff1681565b608c60009054906101000a900473ffffffffffffffffffffffffffffffffffffffff1681565b600260009054906101000a900473ffffffffffffffffffffffffffffffffffffffff1681565b608b60009054906101000a900473ffffffffffffffffffffffffffffffffffffffff1681565b6000600760008315151515815260200190815260200160002060009054906101000a900460ff169050919050565b8060046000600860003373ffffffffffffffffffffffffffffffffffffffff1673ffffffffffffffffffffffffffffffffffffffff16815260200190815260200160002060009054906101000a900460ff1615151515815260200190815260200160002090600261235992919061268d565b50600060056000600860003373ffffffffffffffffffffffffffffffffffffffff1673ffffffffffffffffffffffffffffffffffffffff16815260200190815260200160002060009054906101000a900460ff1615151515815260200190815260200160002060006101000a81548160ff02191690831515021790555050565b8060076000600860003373ffffffffffffffffffffffffffffffffffffffff1673ffffffffffffffffffffffffffffffffffffffff16815260200190815260200160002060009054906101000a900460ff161515151515815260200190815260200160002060006101000a81548160ff02191690831515021790555050565b6002600b826000600281106124705761246f612eca565b5b60200201516008811061248657612485612eca565b5b601002018260016002811061249e5761249d612eca565b5b6020020151600881106124b4576124b3612eca565b5b60020201600001540361262c576000816000600281106124d7576124d6612eca565b5b60200201510361257757600060066000600860003373ffffffffffffffffffffffffffffffffffffffff1673ffffffffffffffffffffffffffffffffffffffff16815260200190815260200160002060009054906101000a900460ff1615151515815260200190815260200160002060008015151515815260200190815260200160002060006101000a81548160ff02191690831515021790555061262b565b60078160006002811061258d5761258c612eca565b5b60200201510361262a57600060066000600860003373ffffffffffffffffffffffffffffffffffffffff1673ffffffffffffffffffffffffffffffffffffffff16815260200190815260200160002060009054906101000a900460ff161515151581526020019081526020016000206000600115151515815260200190815260200160002060006101000a81548160ff0219169083151502179055505b5b5b50565b6040518060400160405280600081526020016000151581525090565b604051806040016040528061265e6126cd565b8152602001600081525090565b6040518060400160405280600290602082028036833780820191505090505090565b82600281019282156126bc579160200282015b828111156126bb5782518255916020019190600101906126a0565b5b5090506126c991906126ef565b5090565b6040518060600160405280600390602082028036833780820191505090505090565b5b808211156127085760008160009055506001016126f0565b5090565b600082825260208201905092915050565b50565b600061272d60008361270c565b91506127388261271d565b600082019050919050565b6000602082019050818103600083015261275c81612720565b9050919050565b6000819050919050565b7f4e487b7100000000000000000000000000000000000000000000000000000000600052601160045260246000fd5b60006127a782612763565b91506127b283612763565b9250827fffffffffffffffffffffffffffffffffffffffffffffffffffffffffffffffff038211156127e7576127e661276d565b5b828201905092915050565b6000604051905090565b600080fd5b61280a81612763565b811461281557600080fd5b50565b60008135905061282781612801565b92915050565b60008060408385031215612844576128436127fc565b5b600061285285828601612818565b925050602061286385828601612818565b9150509250929050565b61287681612763565b82525050565b60008115159050919050565b6128918161287c565b82525050565b6040820160008201516128ad600085018261286d565b5060208201516128c06020850182612888565b50505050565b60006040820190506128db6000830184612897565b92915050565b6128ea8161287c565b81146128f557600080fd5b50565b600081359050612907816128e1565b92915050565b600060208284031215612923576129226127fc565b5b6000612931848285016128f8565b91505092915050565b6129438161287c565b82525050565b600060208201905061295e600083018461293a565b92915050565b600080fd5b6000601f19601f8301169050919050565b7f4e487b7100000000000000000000000000000000000000000000000000000000600052604160045260246000fd5b6129b282612969565b810181811067ffffffffffffffff821117156129d1576129d061297a565b5b80604052505050565b60006129e46127f2565b90506129f082826129a9565b919050565b600067ffffffffffffffff821115612a1057612a0f61297a565b5b602082029050919050565b600080fd5b6000612a33612a2e846129f5565b6129da565b90508060208402830185811115612a4d57612a4c612a1b565b5b835b81811015612a765780612a628882612818565b845260208401935050602081019050612a4f565b5050509392505050565b600082601f830112612a9557612a94612964565b5b6002612aa2848285612a20565b91505092915050565b60008060808385031215612ac257612ac16127fc565b5b6000612ad085828601612a80565b9250506040612ae185828601612a80565b9150509250929050565b60008060408385031215612b0257612b016127fc565b5b6000612b10858286016128f8565b9250506020612b21858286016128f8565b9150509250929050565b612b3481612763565b82525050565b6000602082019050612b4f6000830184612b2b565b92915050565b600073ffffffffffffffffffffffffffffffffffffffff82169050919050565b6000612b8082612b55565b9050919050565b612b9081612b75565b8114612b9b57600080fd5b50565b600081359050612bad81612b87565b92915050565b600060208284031215612bc957612bc86127fc565b5b6000612bd784828501612b9e565b91505092915050565b600060208284031215612bf657612bf56127fc565b5b6000612c0484828501612818565b91505092915050565b600060039050919050565b600081905092915050565b6000819050919050565b6000612c398383612888565b60208301905092915050565b6000602082019050919050565b612c5b81612c0d565b612c658184612c18565b9250612c7082612c23565b8060005b83811015612ca1578151612c888782612c2d565b9650612c9383612c45565b925050600181019050612c74565b505050505050565b608082016000820151612cbf6000850182612c52565b506020820151612cd2606085018261286d565b50505050565b6000608082019050612ced6000830184612ca9565b92915050565b600060029050919050565b600081905092915050565b6000819050919050565b6000612d1f838361286d565b60208301905092915050565b6000602082019050919050565b612d4181612cf3565b612d4b8184612cfe565b9250612d5682612d09565b8060005b83811015612d87578151612d6e8782612d13565b9650612d7983612d2b565b925050600181019050612d5a565b505050505050565b6000604082019050612da46000830184612d38565b92915050565b612db381612b75565b82525050565b6000602082019050612dce6000830184612daa565b92915050565b60008060608385031215612deb57612dea6127fc565b5b6000612df985828601612a80565b9250506040612e0a858286016128f8565b9150509250929050565b6000819050919050565b6000612e39612e34612e2f84612b55565b612e14565b612b55565b9050919050565b6000612e4b82612e1e565b9050919050565b6000612e5d82612e40565b9050919050565b612e6d81612e52565b82525050565b6000602082019050612e886000830184612e64565b92915050565b6000612e9982612e40565b9050919050565b612ea981612e8e565b82525050565b6000602082019050612ec46000830184612ea0565b92915050565b7f4e487b7100000000000000000000000000000000000000000000000000000000600052603260045260246000fd5b600060c082019050612f0e6000830187612d38565b612f1b6040830186612d38565b612f28608083018561293a565b612f3560a0830184612b2b565b95945050505050565b600081519050612f4d816128e1565b92915050565b600060208284031215612f6957612f686127fc565b5b6000612f7784828501612f3e565b91505092915050565b7f6576696c626f7800000000000000000000000000000000000000000000000000600082015250565b6000612fb660078361270c565b9150612fc182612f80565b602082019050919050565b60006020820190508181036000830152612fe581612fa9565b9050919050565b600060029050919050565b6000819050919050565b60008160001c9050919050565b6000819050919050565b600061302b61302683613001565b61300e565b9050919050565b600061303e8254613018565b9050919050565b6000600182019050919050565b61305b81612fec565b6130658184612cfe565b925061307082612ff7565b8060005b838110156130a85761308582613032565b61308f8782612d13565b965061309a83613045565b925050600181019050613074565b505050505050565b60006080820190506130c56000830185612d38565b6130d26040830184613052565b9392505050565b6000815190506130e881612801565b92915050565b60006131016130fc846129f5565b6129da565b9050806020840283018581111561311b5761311a612a1b565b5b835b81811015613144578061313088826130d9565b84526020840193505060208101905061311d565b5050509392505050565b600082601f83011261316357613162612964565b5b60026131708482856130ee565b91505092915050565b600080606083850312156131905761318f6127fc565b5b600061319e85828601612f3e565b92505060206131af8582860161314e565b9150509250929050565b600080604083850312156131d0576131cf6127fc565b5b60006131de85828601612f3e565b92505060206131ef85828601612f3e565b9150509250929050565b6000819050919050565b600061320e826131f9565b9150613219836131f9565b9250827f8000000000000000000000000000000000000000000000000000000000000000018212600084121516156132545761325361276d565b5b827f7fffffffffffffffffffffffffffffffffffffffffffffffffffffffffffffff01821360008412161561328c5761328b61276d565b5b828203905092915050565b60006132a282612763565b91506132ad83612763565b9250828210156132c0576132bf61276d565b5b828203905092915050565b7f4e487b7100000000000000000000000000000000000000000000000000000000600052601260045260246000fd5b600061330582612763565b915061331083612763565b9250826133205761331f6132cb565b5b828204905092915050565b60006060820190506133406000830185612d38565b61334d604083018461293a565b939250505056fea264697066735822122013460f07b736b99d20996aeb751f7b7d51bc9e23b86fa9c6fd698a74bca4d98f64736f6c634300080e003360806040523480156200001157600080fd5b5060405162002f8638038062002f868339818101604052810190620000379190620000e9565b80600360006101000a81548173ffffffffffffffffffffffffffffffffffffffff021916908373ffffffffffffffffffffffffffffffffffffffff160217905550506200011b565b600080fd5b600073ffffffffffffffffffffffffffffffffffffffff82169050919050565b6000620000b18262000084565b9050919050565b620000c381620000a4565b8114620000cf57600080fd5b50565b600081519050620000e381620000b8565b92915050565b6000602082840312156200010257620001016200007f565b5b60006200011284828501620000d2565b91505092915050565b612e5b806200012b6000396000f3fe608060405234801561001057600080fd5b506004361061009e5760003560e01c806381fe57861161006657806381fe578614610182578063ac411ce6146101b2578063bac35119146101e2578063c03c300314610212578063ee0b07e0146102425761009e565b80631b5ac4b5146100a357806329aa9cbe146100d35780636c1b5443146101035780636d5725001461012157806371cc5ad114610151575b600080fd5b6100bd60048036038101906100b8919061216e565b610272565b6040516100ca91906121aa565b60405180910390f35b6100ed60048036038101906100e891906121c5565b610296565b6040516100fa91906121aa565b60405180910390f35b61010b6102b0565b604051610118919061221e565b60405180910390f35b61013b600480360381019061013691906123e4565b6102b6565b604051610148919061245a565b60405180910390f35b61016b60048036038101906101669190612475565b611208565b604051610179929190612560565b60405180910390f35b61019c600480360381019061019791906121c5565b611456565b6040516101a991906121aa565b60405180910390f35b6101cc60048036038101906101c79190612475565b611470565b6040516101d9919061245a565b60405180910390f35b6101fc60048036038101906101f7919061216e565b612083565b60405161020991906121aa565b60405180910390f35b61022c6004803603810190610227919061216e565b61209e565b60405161023991906121aa565b60405180910390f35b61025c6004803603810190610257919061216e565b6120ed565b60405161026991906121aa565b60405180910390f35b60008082121561028d5781610286906125b8565b9050610291565b8190505b919050565b6000818313156102a657816102a8565b805b905092915050565b60005481565b600084848484811515600360009054906101000a900473ffffffffffffffffffffffffffffffffffffffff1673ffffffffffffffffffffffffffffffffffffffff16631feeef988660006002811061031157610310612600565b5b60200201518760016002811061032a57610329612600565b5b60200201516040518363ffffffff1660e01b815260040161034c92919061262f565b6040805180830381865afa158015610368573d6000803e3d6000fd5b505050506040513d601f19601f8201168201806040525081019061038c91906126d7565b602001511515146103d2576040517f08c379a00000000000000000000000000000000000000000000000000000000081526004016103c990612761565b60405180910390fd5b826000600281106103e6576103e5612600565b5b6020020151846000600281106103ff576103fe612600565b5b60200201511415806104415750826001600281106104205761041f612600565b5b60200201518460016002811061043957610438612600565b5b602002015114155b610480576040517f08c379a0000000000000000000000000000000000000000000000000000000008152600401610477906127cd565b60405180910390fd5b6000600360009054906101000a900473ffffffffffffffffffffffffffffffffffffffff1673ffffffffffffffffffffffffffffffffffffffff16631feeef98856000600281106104d4576104d3612600565b5b6020020151866001600281106104ed576104ec612600565b5b60200201516040518363ffffffff1660e01b815260040161050f92919061262f565b6040805180830381865afa15801561052b573d6000803e3d6000fd5b505050506040513d601f19601f8201168201806040525081019061054f91906126d7565b600001511461066f57811515600360009054906101000a900473ffffffffffffffffffffffffffffffffffffffff1673ffffffffffffffffffffffffffffffffffffffff16631feeef98856000600281106105ad576105ac612600565b5b6020020151866001600281106105c6576105c5612600565b5b60200201516040518363ffffffff1660e01b81526004016105e892919061262f565b6040805180830381865afa158015610604573d6000803e3d6000fd5b505050506040513d601f19601f8201168201806040525081019061062891906126d7565b6020015115150361066e576040517f08c379a000000000000000000000000000000000000000000000000000000000815260040161066590612839565b60405180910390fd5b5b8360006002811061068357610682612600565b5b60200201518360006002811061069c5761069b612600565b5b60200201516106ab9190612859565b600181905550836001600281106106c5576106c4612600565b5b6020020151836001600281106106de576106dd612600565b5b60200201516106ed9190612859565b60028190555060006106ff8585611470565b905080610741576040517f08c379a000000000000000000000000000000000000000000000000000000000815260040161073890612939565b60405180910390fd5b6005600360009054906101000a900473ffffffffffffffffffffffffffffffffffffffff1673ffffffffffffffffffffffffffffffffffffffff16631feeef988760006002811061079557610794612600565b5b6020020151886001600281106107ae576107ad612600565b5b60200201516040518363ffffffff1660e01b81526004016107d092919061262f565b6040805180830381865afa1580156107ec573d6000803e3d6000fd5b505050506040513d601f19601f8201168201806040525081019061081091906126d7565b6000015103610ddb5760008560016002811061082f5761082e612600565b5b6020020151148015610859575060048560006002811061085257610851612600565b5b6020020151145b801561090757506005600360009054906101000a900473ffffffffffffffffffffffffffffffffffffffff1673ffffffffffffffffffffffffffffffffffffffff16631feeef98600460006040518363ffffffff1660e01b81526004016108c19291906129d9565b6040805180830381865afa1580156108dd573d6000803e3d6000fd5b505050506040513d601f19601f8201168201806040525081019061090191906126d7565b60000151145b8015610af1575060008460016002811061092457610923612600565b5b602002015114801561094e575060068460006002811061094757610946612600565b5b6020020151145b80156109fc57506002600360009054906101000a900473ffffffffffffffffffffffffffffffffffffffff1673ffffffffffffffffffffffffffffffffffffffff16631feeef98600760006040518363ffffffff1660e01b81526004016109b6929190612a3d565b6040805180830381865afa1580156109d2573d6000803e3d6000fd5b505050506040513d601f19601f820116820180604052508101906109f691906126d7565b60000151145b80610af05750600084600160028110610a1857610a17612600565b5b6020020151148015610a425750600284600060028110610a3b57610a3a612600565b5b6020020151145b8015610aef57506002600360009054906101000a900473ffffffffffffffffffffffffffffffffffffffff1673ffffffffffffffffffffffffffffffffffffffff16631feeef986000806040518363ffffffff1660e01b8152600401610aa9929190612a66565b6040805180830381865afa158015610ac5573d6000803e3d6000fd5b505050506040513d601f19601f82011682018060405250810190610ae991906126d7565b60000151145b5b5b80610dd05750600785600160028110610b0d57610b0c612600565b5b6020020151148015610b375750600385600060028110610b3057610b2f612600565b5b6020020151145b8015610be557506005600360009054906101000a900473ffffffffffffffffffffffffffffffffffffffff1673ffffffffffffffffffffffffffffffffffffffff16631feeef98600360076040518363ffffffff1660e01b8152600401610b9f929190612aca565b6040805180830381865afa158015610bbb573d6000803e3d6000fd5b505050506040513d601f19601f82011682018060405250810190610bdf91906126d7565b60000151145b8015610dcf5750600184600160028110610c0257610c01612600565b5b6020020151148015610c2c5750600784600060028110610c2557610c24612600565b5b6020020151145b8015610cd957506002600360009054906101000a900473ffffffffffffffffffffffffffffffffffffffff1673ffffffffffffffffffffffffffffffffffffffff16631feeef986007806040518363ffffffff1660e01b8152600401610c93929190612af3565b6040805180830381865afa158015610caf573d6000803e3d6000fd5b505050506040513d601f19601f82011682018060405250810190610cd391906126d7565b60000151145b80610dce5750600584600160028110610cf557610cf4612600565b5b6020020151148015610d1f5750600284600060028110610d1857610d17612600565b5b6020020151145b8015610dcd57506002600360009054906101000a900473ffffffffffffffffffffffffffffffffffffffff1673ffffffffffffffffffffffffffffffffffffffff16631feeef98600060076040518363ffffffff1660e01b8152600401610d87929190612b1c565b6040805180830381865afa158015610da3573d6000803e3d6000fd5b505050506040513d601f19601f82011682018060405250810190610dc791906126d7565b60000151145b5b5b5b15610dda57600291505b5b60038060009054906101000a900473ffffffffffffffffffffffffffffffffffffffff1673ffffffffffffffffffffffffffffffffffffffff16631feeef9887600060028110610e2e57610e2d612600565b5b602002015188600160028110610e4757610e46612600565b5b60200201516040518363ffffffff1660e01b8152600401610e6992919061262f565b6040805180830381865afa158015610e85573d6000803e3d6000fd5b505050506040513d601f19601f82011682018060405250810190610ea991906126d7565b60000151146111f7576001600360009054906101000a900473ffffffffffffffffffffffffffffffffffffffff1673ffffffffffffffffffffffffffffffffffffffff16631feeef9887600060028110610f0657610f05612600565b5b602002015188600160028110610f1f57610f1e612600565b5b60200201516040518363ffffffff1660e01b8152600401610f4192919061262f565b6040805180830381865afa158015610f5d573d6000803e3d6000fd5b505050506040513d601f19601f82011682018060405250810190610f8191906126d7565b600001510361113557600083156110335784600160028110610fa657610fa5612600565b5b602002015186600160028110610fbf57610fbe612600565b5b602002015111611004576040517f08c379a0000000000000000000000000000000000000000000000000000000008152600401610ffb90612b6b565b60405180910390fd5b60068660016002811061101a57611019612600565b5b60200201510361102d5760019050611032565b600090505b5b836110d9578460016002811061104c5761104b612600565b5b60200201518660016002811061106557611064612600565b5b6020020151106110aa576040517f08c379a00000000000000000000000000000000000000000000000000000000081526004016110a190612b6b565b60405180910390fd5b6001866001600281106110c0576110bf612600565b5b6020020151036110d357600190506110d8565b600090505b5b600261111f876001600281106110f2576110f1612600565b5b60200201518760016002811061110b5761110a612600565b5b602002015161111a9190612859565b610272565b1480156111295750805b1561113357600292505b505b611140600154610272565b82101580156111595750611155600254610272565b8210155b611198576040517f08c379a000000000000000000000000000000000000000000000000000000000815260040161118f90612bd7565b60405180910390fd5b60006111a2612107565b6111ac8787611208565b8092508193505050816111f4576040517f08c379a00000000000000000000000000000000000000000000000000000000081526004016111eb90612c43565b60405180910390fd5b50505b600195505050505050949350505050565b6000611212612107565b60008460006002811061122857611227612600565b5b60200201518460006002811061124157611240612600565b5b60200201516112509190612859565b905060008560016002811061126857611267612600565b5b60200201518560016002811061128157611280612600565b5b60200201516112909190612859565b9050600061129d8361209e565b905060006112aa8361209e565b90506000886000600281106112c2576112c1612600565b5b602002015190506000896001600281106112df576112de612600565b5b60200201519050600197505b8389600060028110611300576112ff612600565b5b602002015161130f9190612859565b821415806113405750828960016002811061132d5761132c612600565b5b602002015161133c9190612859565b8114155b156114495783826113519190612c63565b9150828161135f9190612c63565b90506000600360009054906101000a900473ffffffffffffffffffffffffffffffffffffffff1673ffffffffffffffffffffffffffffffffffffffff16631feeef9884846040518363ffffffff1660e01b81526004016113c092919061262f565b6040805180830381865afa1580156113dc573d6000803e3d6000fd5b505050506040513d601f19601f8201168201806040525081019061140091906126d7565b600001511461142957600097506040518060400160405280838152602001828152509650611449565b6001975060405180604001604052808381526020018281525096506112eb565b5050505050509250929050565b6000818312156114665781611468565b805b905092915050565b6000808360006002811061148757611486612600565b5b6020020151836000600281106114a05761149f612600565b5b60200201516114af9190612859565b90506000846001600281106114c7576114c6612600565b5b6020020151846001600281106114e0576114df612600565b5b60200201516114ef9190612859565b9050600082141580156115025750600081145b156116a657600360009054906101000a900473ffffffffffffffffffffffffffffffffffffffff1673ffffffffffffffffffffffffffffffffffffffff16638f7daf0f600360009054906101000a900473ffffffffffffffffffffffffffffffffffffffff1673ffffffffffffffffffffffffffffffffffffffff16631feeef988860006002811061159757611596612600565b5b6020020151896001600281106115b0576115af612600565b5b60200201516040518363ffffffff1660e01b81526004016115d292919061262f565b6040805180830381865afa1580156115ee573d6000803e3d6000fd5b505050506040513d601f19601f8201168201806040525081019061161291906126d7565b600001516040518263ffffffff1660e01b8152600401611632919061221e565b608060405180830381865afa15801561164f573d6000803e3d6000fd5b505050506040513d601f19601f820116820180604052508101906116739190612df8565b6000015160006003811061168a57611689612600565b5b602002015161169c57600092506116a1565b600192505b61207b565b600081141580156116b75750600082145b1561185b57600360009054906101000a900473ffffffffffffffffffffffffffffffffffffffff1673ffffffffffffffffffffffffffffffffffffffff16638f7daf0f600360009054906101000a900473ffffffffffffffffffffffffffffffffffffffff1673ffffffffffffffffffffffffffffffffffffffff16631feeef988860006002811061174c5761174b612600565b5b60200201518960016002811061176557611764612600565b5b60200201516040518363ffffffff1660e01b815260040161178792919061262f565b6040805180830381865afa1580156117a3573d6000803e3d6000fd5b505050506040513d601f19601f820116820180604052508101906117c791906126d7565b600001516040518263ffffffff1660e01b81526004016117e7919061221e565b608060405180830381865afa158015611804573d6000803e3d6000fd5b505050506040513d601f19601f820116820180604052508101906118289190612df8565b6000015160016003811061183f5761183e612600565b5b60200201516118515760009250611856565b600192505b61207a565b6000821415801561187b575061187081610272565b61187983610272565b145b15611f3d576001600360009054906101000a900473ffffffffffffffffffffffffffffffffffffffff1673ffffffffffffffffffffffffffffffffffffffff16631feeef98876000600281106118d4576118d3612600565b5b6020020151886001600281106118ed576118ec612600565b5b60200201516040518363ffffffff1660e01b815260040161190f92919061262f565b6040805180830381865afa15801561192b573d6000803e3d6000fd5b505050506040513d601f19601f8201168201806040525081019061194f91906126d7565b60000151148015611a3157506000600360009054906101000a900473ffffffffffffffffffffffffffffffffffffffff1673ffffffffffffffffffffffffffffffffffffffff16631feeef98866000600281106119af576119ae612600565b5b6020020151876001600281106119c8576119c7612600565b5b60200201516040518363ffffffff1660e01b81526004016119ea92919061262f565b6040805180830381865afa158015611a06573d6000803e3d6000fd5b505050506040513d601f19601f82011682018060405250810190611a2a91906126d7565b6000015114155b8015611a4557506001611a4383610272565b145b15611a535760019250611f38565b600360009054906101000a900473ffffffffffffffffffffffffffffffffffffffff1673ffffffffffffffffffffffffffffffffffffffff16638f7daf0f600360009054906101000a900473ffffffffffffffffffffffffffffffffffffffff1673ffffffffffffffffffffffffffffffffffffffff16631feeef9888600060028110611ae357611ae2612600565b5b602002015189600160028110611afc57611afb612600565b5b60200201516040518363ffffffff1660e01b8152600401611b1e92919061262f565b6040805180830381865afa158015611b3a573d6000803e3d6000fd5b505050506040513d601f19601f82011682018060405250810190611b5e91906126d7565b600001516040518263ffffffff1660e01b8152600401611b7e919061221e565b608060405180830381865afa158015611b9b573d6000803e3d6000fd5b505050506040513d601f19601f82011682018060405250810190611bbf9190612df8565b60000151600260038110611bd657611bd5612600565b5b6020020151158015611cb957506001600360009054906101000a900473ffffffffffffffffffffffffffffffffffffffff1673ffffffffffffffffffffffffffffffffffffffff16631feeef9887600060028110611c3757611c36612600565b5b602002015188600160028110611c5057611c4f612600565b5b60200201516040518363ffffffff1660e01b8152600401611c7292919061262f565b6040805180830381865afa158015611c8e573d6000803e3d6000fd5b505050506040513d601f19601f82011682018060405250810190611cb291906126d7565b6000015114155b15611cc75760009250611f37565b600360009054906101000a900473ffffffffffffffffffffffffffffffffffffffff1673ffffffffffffffffffffffffffffffffffffffff16638f7daf0f600360009054906101000a900473ffffffffffffffffffffffffffffffffffffffff1673ffffffffffffffffffffffffffffffffffffffff16631feeef9888600060028110611d5757611d56612600565b5b602002015189600160028110611d7057611d6f612600565b5b60200201516040518363ffffffff1660e01b8152600401611d9292919061262f565b6040805180830381865afa158015611dae573d6000803e3d6000fd5b505050506040513d601f19601f82011682018060405250810190611dd291906126d7565b600001516040518263ffffffff1660e01b8152600401611df2919061221e565b608060405180830381865afa158015611e0f573d6000803e3d6000fd5b505050506040513d601f19601f82011682018060405250810190611e339190612df8565b60000151600260038110611e4a57611e49612600565b5b60200201518015611f2c57506001600360009054906101000a900473ffffffffffffffffffffffffffffffffffffffff1673ffffffffffffffffffffffffffffffffffffffff16631feeef9887600060028110611eaa57611ea9612600565b5b602002015188600160028110611ec357611ec2612600565b5b60200201516040518363ffffffff1660e01b8152600401611ee592919061262f565b6040805180830381865afa158015611f01573d6000803e3d6000fd5b505050506040513d601f19601f82011682018060405250810190611f2591906126d7565b6000015114155b15611f3657600192505b5b5b612079565b6002611f4883610272565b148015611f5d57506001611f5b82610272565b145b80611f8457506001611f6e83610272565b148015611f8357506002611f8182610272565b145b5b156120735760038060009054906101000a900473ffffffffffffffffffffffffffffffffffffffff1673ffffffffffffffffffffffffffffffffffffffff16631feeef9887600060028110611fdc57611fdb612600565b5b602002015188600160028110611ff557611ff4612600565b5b60200201516040518363ffffffff1660e01b815260040161201792919061262f565b6040805180830381865afa158015612033573d6000803e3d6000fd5b505050506040513d601f19601f8201168201806040525081019061205791906126d7565b6000015114612069576000925061206e565b600192505b612078565b600092505b5b5b5b505092915050565b60006007821315612095576007612097565b805b9050919050565b6000808212156120d0577fffffffffffffffffffffffffffffffffffffffffffffffffffffffffffffffff90506120e8565b60008213156120e257600190506120e7565b600090505b5b919050565b6000808213156120fe576000612100565b805b9050919050565b6040518060400160405280600290602082028036833780820191505090505090565b6000604051905090565b600080fd5b6000819050919050565b61214b81612138565b811461215657600080fd5b50565b60008135905061216881612142565b92915050565b60006020828403121561218457612183612133565b5b600061219284828501612159565b91505092915050565b6121a481612138565b82525050565b60006020820190506121bf600083018461219b565b92915050565b600080604083850312156121dc576121db612133565b5b60006121ea85828601612159565b92505060206121fb85828601612159565b9150509250929050565b6000819050919050565b61221881612205565b82525050565b6000602082019050612233600083018461220f565b92915050565b600080fd5b6000601f19601f8301169050919050565b7f4e487b7100000000000000000000000000000000000000000000000000000000600052604160045260246000fd5b6122878261223e565b810181811067ffffffffffffffff821117156122a6576122a561224f565b5b80604052505050565b60006122b9612129565b90506122c5828261227e565b919050565b600067ffffffffffffffff8211156122e5576122e461224f565b5b602082029050919050565b600080fd5b6122fe81612205565b811461230957600080fd5b50565b60008135905061231b816122f5565b92915050565b600061233461232f846122ca565b6122af565b9050806020840283018581111561234e5761234d6122f0565b5b835b818110156123775780612363888261230c565b845260208401935050602081019050612350565b5050509392505050565b600082601f83011261239657612395612239565b5b60026123a3848285612321565b91505092915050565b60008115159050919050565b6123c1816123ac565b81146123cc57600080fd5b50565b6000813590506123de816123b8565b92915050565b60008060008060c085870312156123fe576123fd612133565b5b600061240c87828801612381565b945050604061241d87828801612381565b935050608061242e878288016123cf565b92505060a061243f8782880161230c565b91505092959194509250565b612454816123ac565b82525050565b600060208201905061246f600083018461244b565b92915050565b6000806080838503121561248c5761248b612133565b5b600061249a85828601612381565b92505060406124ab85828601612381565b9150509250929050565b600060029050919050565b600081905092915050565b6000819050919050565b6124de81612205565b82525050565b60006124f083836124d5565b60208301905092915050565b6000602082019050919050565b612512816124b5565b61251c81846124c0565b9250612527826124cb565b8060005b8381101561255857815161253f87826124e4565b965061254a836124fc565b92505060018101905061252b565b505050505050565b6000606082019050612575600083018561244b565b6125826020830184612509565b9392505050565b7f4e487b7100000000000000000000000000000000000000000000000000000000600052601160045260246000fd5b60006125c382612138565b91507f800000000000000000000000000000000000000000000000000000000000000082036125f5576125f4612589565b5b816000039050919050565b7f4e487b7100000000000000000000000000000000000000000000000000000000600052603260045260246000fd5b6000604082019050612644600083018561220f565b612651602083018461220f565b9392505050565b600080fd5b60008151905061266c816122f5565b92915050565b600081519050612681816123b8565b92915050565b60006040828403121561269d5761269c612658565b5b6126a760406122af565b905060006126b78482850161265d565b60008301525060206126cb84828501612672565b60208301525092915050565b6000604082840312156126ed576126ec612133565b5b60006126fb84828501612687565b91505092915050565b600082825260208201905092915050565b7f6e6f742079207000000000000000000000000000000000000000000000000000600082015250565b600061274b600783612704565b915061275682612715565b602082019050919050565b6000602082019050818103600083015261277a8161273e565b9050919050565b7f73706f7374617469000000000000000000000000000000000000000000000000600082015250565b60006127b7600883612704565b91506127c282612781565b602082019050919050565b600060208201905081810360008301526127e6816127aa565b9050919050565b7f6666000000000000000000000000000000000000000000000000000000000000600082015250565b6000612823600283612704565b915061282e826127ed565b602082019050919050565b6000602082019050818103600083015261285281612816565b9050919050565b600061286482612138565b915061286f83612138565b9250827f8000000000000000000000000000000000000000000000000000000000000000018212600084121516156128aa576128a9612589565b5b827f7fffffffffffffffffffffffffffffffffffffffffffffffffffffffffffffff0182136000841216156128e2576128e1612589565b5b828203905092915050565b7f6469726d00000000000000000000000000000000000000000000000000000000600082015250565b6000612923600483612704565b915061292e826128ed565b602082019050919050565b6000602082019050818103600083015261295281612916565b9050919050565b6000819050919050565b6000819050919050565b600061298861298361297e84612959565b612963565b612205565b9050919050565b6129988161296d565b82525050565b6000819050919050565b60006129c36129be6129b98461299e565b612963565b612205565b9050919050565b6129d3816129a8565b82525050565b60006040820190506129ee600083018561298f565b6129fb60208301846129ca565b9392505050565b6000819050919050565b6000612a27612a22612a1d84612a02565b612963565b612205565b9050919050565b612a3781612a0c565b82525050565b6000604082019050612a526000830185612a2e565b612a5f60208301846129ca565b9392505050565b6000604082019050612a7b60008301856129ca565b612a8860208301846129ca565b9392505050565b6000819050919050565b6000612ab4612aaf612aaa84612a8f565b612963565b612205565b9050919050565b612ac481612a99565b82525050565b6000604082019050612adf6000830185612abb565b612aec6020830184612a2e565b9392505050565b6000604082019050612b086000830185612a2e565b612b156020830184612a2e565b9392505050565b6000604082019050612b3160008301856129ca565b612b3e6020830184612a2e565b9392505050565b50565b6000612b55600083612704565b9150612b6082612b45565b600082019050919050565b60006020820190508181036000830152612b8481612b48565b9050919050565b7f6d61780000000000000000000000000000000000000000000000000000000000600082015250565b6000612bc1600383612704565b9150612bcc82612b8b565b602082019050919050565b60006020820190508181036000830152612bf081612bb4565b9050919050565b7f6f62730000000000000000000000000000000000000000000000000000000000600082015250565b6000612c2d600383612704565b9150612c3882612bf7565b602082019050919050565b60006020820190508181036000830152612c5c81612c20565b9050919050565b6000612c6e82612138565b9150612c7983612138565b9250817f7fffffffffffffffffffffffffffffffffffffffffffffffffffffffffffffff03831360008312151615612cb457612cb3612589565b5b817f8000000000000000000000000000000000000000000000000000000000000000038312600083121615612cec57612ceb612589565b5b828201905092915050565b600067ffffffffffffffff821115612d1257612d1161224f565b5b602082029050919050565b6000612d30612d2b84612cf7565b6122af565b90508060208402830185811115612d4a57612d496122f0565b5b835b81811015612d735780612d5f8882612672565b845260208401935050602081019050612d4c565b5050509392505050565b600082601f830112612d9257612d91612239565b5b6003612d9f848285612d1d565b91505092915050565b600060808284031215612dbe57612dbd612658565b5b612dc860406122af565b90506000612dd884828501612d7d565b6000830152506060612dec8482850161265d565b60208301525092915050565b600060808284031215612e0e57612e0d612133565b5b6000612e1c84828501612da8565b9150509291505056fea26469706673582212208b9ee3eca4fdfa99f524321ba8e0e420a9e5fbbfc3b7481d1f7aa6153e3de1bb64736f6c634300080e003360806040523480156200001157600080fd5b50604051620043563803806200435683398181016040528101906200003791906200016f565b816000806101000a81548173ffffffffffffffffffffffffffffffffffffffff021916908373ffffffffffffffffffffffffffffffffffffffff16021790555080600160006101000a81548173ffffffffffffffffffffffffffffffffffffffff021916908373ffffffffffffffffffffffffffffffffffffffff1602179055505050620001b6565b600080fd5b600073ffffffffffffffffffffffffffffffffffffffff82169050919050565b6000620000f282620000c5565b9050919050565b6200010481620000e5565b81146200011057600080fd5b50565b6000815190506200012481620000f9565b92915050565b60006200013782620000c5565b9050919050565b62000149816200012a565b81146200015557600080fd5b50565b60008151905062000169816200013e565b92915050565b60008060408385031215620001895762000188620000c0565b5b6000620001998582860162000113565b9250506020620001ac8582860162000158565b9150509250929050565b61419080620001c66000396000f3fe608060405234801561001057600080fd5b50600436106100415760003560e01c8063155b47e8146100465780632f1d8074146100765780638b69cfad146100a7575b600080fd5b610060600480360381019061005b91906137b1565b6100d8565b60405161006d91906137ed565b60405180910390f35b610090600480360381019061008b9190613985565b610cf5565b60405161009e929190613a70565b60405180910390f35b6100c160048036038101906100bc91906137b1565b6135b7565b6040516100cf929190613a99565b60405180910390f35b6000600160009054906101000a900473ffffffffffffffffffffffffffffffffffffffff1673ffffffffffffffffffffffffffffffffffffffff163373ffffffffffffffffffffffffffffffffffffffff161461016a576040517f08c379a000000000000000000000000000000000000000000000000000000000815260040161016190613af9565b60405180910390fd5b6000600160009054906101000a900473ffffffffffffffffffffffffffffffffffffffff1673ffffffffffffffffffffffffffffffffffffffff1663915b740d846040518263ffffffff1660e01b81526004016101c791906137ed565b6040805180830381865afa1580156101e3573d6000803e3d6000fd5b505050506040513d601f19601f820116820180604052508101906102079190613bb9565b9050610211613748565b600080600080600080600080610310604051806040016040528060008054906101000a900473ffffffffffffffffffffffffffffffffffffffff1673ffffffffffffffffffffffffffffffffffffffff1663bac3511960018f60006002811061027d5761027c613be6565b5b602002015161028c9190613c4e565b6040518263ffffffff1660e01b81526004016102a89190613cf1565b602060405180830381865afa1580156102c5573d6000803e3d6000fd5b505050506040513d601f19601f820116820180604052508101906102e99190613d38565b81526020018c60016002811061030257610301613be6565b5b60200201518152508d610cf5565b809a50819950505061040b604051806040016040528060008054906101000a900473ffffffffffffffffffffffffffffffffffffffff1673ffffffffffffffffffffffffffffffffffffffff1663ee0b07e060018f60006002811061037857610377613be6565b5b60200201516103879190613d65565b6040518263ffffffff1660e01b81526004016103a39190613cf1565b602060405180830381865afa1580156103c0573d6000803e3d6000fd5b505050506040513d601f19601f820116820180604052508101906103e49190613d38565b81526020018c6001600281106103fd576103fc613be6565b5b60200201518152508d610cf5565b809a50819850505061050660405180604001604052808c60006002811061043557610434613be6565b5b6020020151815260200160008054906101000a900473ffffffffffffffffffffffffffffffffffffffff1673ffffffffffffffffffffffffffffffffffffffff1663bac3511960018f60016002811061049157610490613be6565b5b60200201516104a09190613c4e565b6040518263ffffffff1660e01b81526004016104bc9190613cf1565b602060405180830381865afa1580156104d9573d6000803e3d6000fd5b505050506040513d601f19601f820116820180604052508101906104fd9190613d38565b8152508d610cf5565b809a50819750505061060160405180604001604052808c6000600281106105305761052f613be6565b5b6020020151815260200160008054906101000a900473ffffffffffffffffffffffffffffffffffffffff1673ffffffffffffffffffffffffffffffffffffffff1663bac3511960018f60016002811061058c5761058b613be6565b5b602002015161059b9190613d65565b6040518263ffffffff1660e01b81526004016105b79190613cf1565b602060405180830381865afa1580156105d4573d6000803e3d6000fd5b505050506040513d601f19601f820116820180604052508101906105f89190613d38565b8152508d610cf5565b809a5081965050506107a1604051806040016040528060008054906101000a900473ffffffffffffffffffffffffffffffffffffffff1673ffffffffffffffffffffffffffffffffffffffff1663bac3511960018f60006002811061066957610668613be6565b5b60200201516106789190613c4e565b6040518263ffffffff1660e01b81526004016106949190613cf1565b602060405180830381865afa1580156106b1573d6000803e3d6000fd5b505050506040513d601f19601f820116820180604052508101906106d59190613d38565b815260200160008054906101000a900473ffffffffffffffffffffffffffffffffffffffff1673ffffffffffffffffffffffffffffffffffffffff1663bac3511960018f60016002811061072c5761072b613be6565b5b602002015161073b9190613c4e565b6040518263ffffffff1660e01b81526004016107579190613cf1565b602060405180830381865afa158015610774573d6000803e3d6000fd5b505050506040513d601f19601f820116820180604052508101906107989190613d38565b8152508d610cf5565b809a508195505050610941604051806040016040528060008054906101000a900473ffffffffffffffffffffffffffffffffffffffff1673ffffffffffffffffffffffffffffffffffffffff1663bac3511960018f60006002811061080957610808613be6565b5b60200201516108189190613c4e565b6040518263ffffffff1660e01b81526004016108349190613cf1565b602060405180830381865afa158015610851573d6000803e3d6000fd5b505050506040513d601f19601f820116820180604052508101906108759190613d38565b815260200160008054906101000a900473ffffffffffffffffffffffffffffffffffffffff1673ffffffffffffffffffffffffffffffffffffffff1663bac3511960018f6001600281106108cc576108cb613be6565b5b60200201516108db9190613d65565b6040518263ffffffff1660e01b81526004016108f79190613cf1565b602060405180830381865afa158015610914573d6000803e3d6000fd5b505050506040513d601f19601f820116820180604052508101906109389190613d38565b8152508d610cf5565b809a508194505050610ae1604051806040016040528060008054906101000a900473ffffffffffffffffffffffffffffffffffffffff1673ffffffffffffffffffffffffffffffffffffffff1663bac3511960018f6000600281106109a9576109a8613be6565b5b60200201516109b89190613d65565b6040518263ffffffff1660e01b81526004016109d49190613cf1565b602060405180830381865afa1580156109f1573d6000803e3d6000fd5b505050506040513d601f19601f82011682018060405250810190610a159190613d38565b815260200160008054906101000a900473ffffffffffffffffffffffffffffffffffffffff1673ffffffffffffffffffffffffffffffffffffffff1663bac3511960018f600160028110610a6c57610a6b613be6565b5b6020020151610a7b9190613c4e565b6040518263ffffffff1660e01b8152600401610a979190613cf1565b602060405180830381865afa158015610ab4573d6000803e3d6000fd5b505050506040513d601f19601f82011682018060405250810190610ad89190613d38565b8152508d610cf5565b809a508193505050610c81604051806040016040528060008054906101000a900473ffffffffffffffffffffffffffffffffffffffff1673ffffffffffffffffffffffffffffffffffffffff1663bac3511960018f600060028110610b4957610b48613be6565b5b6020020151610b589190613d65565b6040518263ffffffff1660e01b8152600401610b749190613cf1565b602060405180830381865afa158015610b91573d6000803e3d6000fd5b505050506040513d601f19601f82011682018060405250810190610bb59190613d38565b815260200160008054906101000a900473ffffffffffffffffffffffffffffffffffffffff1673ffffffffffffffffffffffffffffffffffffffff1663bac3511960018f600160028110610c0c57610c0b613be6565b5b6020020151610c1b9190613d65565b6040518263ffffffff1660e01b8152600401610c379190613cf1565b602060405180830381865afa158015610c54573d6000803e3d6000fd5b505050506040513d601f19601f82011682018060405250810190610c789190613d38565b8152508d610cf5565b809a508192505050878015610c935750865b8015610c9c5750855b8015610ca55750845b8015610cae5750835b8015610cb75750825b8015610cc05750815b8015610cc95750805b15610ce15760019a5050505050505050505050610cf0565b60009a50505050505050505050505b919050565b6000610cff613748565b60008060009054906101000a900473ffffffffffffffffffffffffffffffffffffffff1673ffffffffffffffffffffffffffffffffffffffff166329aa9cbe60008054906101000a900473ffffffffffffffffffffffffffffffffffffffff1673ffffffffffffffffffffffffffffffffffffffff166329aa9cbe88600060028110610d8e57610d8d613be6565b5b602002015189600060028110610da757610da6613be6565b5b60200201516007610db89190613d65565b6040518363ffffffff1660e01b8152600401610dd5929190613df9565b602060405180830381865afa158015610df2573d6000803e3d6000fd5b505050506040513d601f19601f82011682018060405250810190610e169190613d38565b60008054906101000a900473ffffffffffffffffffffffffffffffffffffffff1673ffffffffffffffffffffffffffffffffffffffff166329aa9cbe89600160028110610e6657610e65613be6565b5b60200201518a600160028110610e7f57610e7e613be6565b5b60200201516007610e909190613d65565b6040518363ffffffff1660e01b8152600401610ead929190613df9565b602060405180830381865afa158015610eca573d6000803e3d6000fd5b505050506040513d601f19601f82011682018060405250810190610eee9190613d38565b6040518363ffffffff1660e01b8152600401610f0b929190613df9565b602060405180830381865afa158015610f28573d6000803e3d6000fd5b505050506040513d601f19601f82011682018060405250810190610f4c9190613d38565b905060008054906101000a900473ffffffffffffffffffffffffffffffffffffffff1673ffffffffffffffffffffffffffffffffffffffff166371cc5ad18660405180604001604052806000815260200189600160028110610fb157610fb0613be6565b5b60200201518152506040518363ffffffff1660e01b8152600401610fd6929190613e22565b606060405180830381865afa158015610ff3573d6000803e3d6000fd5b505050506040513d601f19601f820116820180604052508101906110179190613e60565b8093508194505050821580156110c5575060008054906101000a900473ffffffffffffffffffffffffffffffffffffffff1673ffffffffffffffffffffffffffffffffffffffff1663ac411ce683876040518363ffffffff1660e01b8152600401611083929190613e22565b602060405180830381865afa1580156110a0573d6000803e3d6000fd5b505050506040513d601f19601f820116820180604052508101906110c49190613ea0565b5b8015611314575060008054906101000a900473ffffffffffffffffffffffffffffffffffffffff1673ffffffffffffffffffffffffffffffffffffffff16631b5ac4b58660006002811061111c5761111b613be6565b5b60200201518460006002811061113557611134613be6565b5b60200201516111449190613d65565b6040518263ffffffff1660e01b81526004016111609190613cf1565b602060405180830381865afa15801561117d573d6000803e3d6000fd5b505050506040513d601f19601f820116820180604052508101906111a19190613d38565b600160009054906101000a900473ffffffffffffffffffffffffffffffffffffffff1673ffffffffffffffffffffffffffffffffffffffff16638f7daf0f600160009054906101000a900473ffffffffffffffffffffffffffffffffffffffff1673ffffffffffffffffffffffffffffffffffffffff16631feeef988660006002811061123157611230613be6565b5b60200201518760016002811061124a57611249613be6565b5b60200201516040518363ffffffff1660e01b815260040161126c929190613edc565b6040805180830381865afa158015611288573d6000803e3d6000fd5b505050506040513d601f19601f820116820180604052508101906112ac9190613f5a565b600001516040518263ffffffff1660e01b81526004016112cc9190613f87565b608060405180830381865afa1580156112e9573d6000803e3d6000fd5b505050506040513d601f19601f8201168201806040525081019061130d91906140a3565b6020015110155b80156113f45750831515600160009054906101000a900473ffffffffffffffffffffffffffffffffffffffff1673ffffffffffffffffffffffffffffffffffffffff16631feeef98846000600281106113705761136f613be6565b5b60200201518560016002811061138957611388613be6565b5b60200201516040518363ffffffff1660e01b81526004016113ab929190613edc565b6040805180830381865afa1580156113c7573d6000803e3d6000fd5b505050506040513d601f19601f820116820180604052508101906113eb9190613f5a565b60200151151514155b156114035760019250506135b0565b60008054906101000a900473ffffffffffffffffffffffffffffffffffffffff1673ffffffffffffffffffffffffffffffffffffffff166371cc5ad1866040518060400160405280600781526020018960016002811061146657611465613be6565b5b60200201518152506040518363ffffffff1660e01b815260040161148b929190613e22565b606060405180830381865afa1580156114a8573d6000803e3d6000fd5b505050506040513d601f19601f820116820180604052508101906114cc9190613e60565b80935081945050508215801561157a575060008054906101000a900473ffffffffffffffffffffffffffffffffffffffff1673ffffffffffffffffffffffffffffffffffffffff1663ac411ce683876040518363ffffffff1660e01b8152600401611538929190613e22565b602060405180830381865afa158015611555573d6000803e3d6000fd5b505050506040513d601f19601f820116820180604052508101906115799190613ea0565b5b80156117c9575060008054906101000a900473ffffffffffffffffffffffffffffffffffffffff1673ffffffffffffffffffffffffffffffffffffffff16631b5ac4b5866000600281106115d1576115d0613be6565b5b6020020151846000600281106115ea576115e9613be6565b5b60200201516115f99190613d65565b6040518263ffffffff1660e01b81526004016116159190613cf1565b602060405180830381865afa158015611632573d6000803e3d6000fd5b505050506040513d601f19601f820116820180604052508101906116569190613d38565b600160009054906101000a900473ffffffffffffffffffffffffffffffffffffffff1673ffffffffffffffffffffffffffffffffffffffff16638f7daf0f600160009054906101000a900473ffffffffffffffffffffffffffffffffffffffff1673ffffffffffffffffffffffffffffffffffffffff16631feeef98866000600281106116e6576116e5613be6565b5b6020020151876001600281106116ff576116fe613be6565b5b60200201516040518363ffffffff1660e01b8152600401611721929190613edc565b6040805180830381865afa15801561173d573d6000803e3d6000fd5b505050506040513d601f19601f820116820180604052508101906117619190613f5a565b600001516040518263ffffffff1660e01b81526004016117819190613f87565b608060405180830381865afa15801561179e573d6000803e3d6000fd5b505050506040513d601f19601f820116820180604052508101906117c291906140a3565b6020015110155b80156118a95750831515600160009054906101000a900473ffffffffffffffffffffffffffffffffffffffff1673ffffffffffffffffffffffffffffffffffffffff16631feeef988460006002811061182557611824613be6565b5b60200201518560016002811061183e5761183d613be6565b5b60200201516040518363ffffffff1660e01b8152600401611860929190613edc565b6040805180830381865afa15801561187c573d6000803e3d6000fd5b505050506040513d601f19601f820116820180604052508101906118a09190613f5a565b60200151151514155b156118b85760019250506135b0565b60008054906101000a900473ffffffffffffffffffffffffffffffffffffffff1673ffffffffffffffffffffffffffffffffffffffff166371cc5ad18660405180604001604052808960006002811061191457611913613be6565b5b6020020151815260200160008152506040518363ffffffff1660e01b8152600401611940929190613e22565b606060405180830381865afa15801561195d573d6000803e3d6000fd5b505050506040513d601f19601f820116820180604052508101906119819190613e60565b809350819450505082158015611a2f575060008054906101000a900473ffffffffffffffffffffffffffffffffffffffff1673ffffffffffffffffffffffffffffffffffffffff1663ac411ce683876040518363ffffffff1660e01b81526004016119ed929190613e22565b602060405180830381865afa158015611a0a573d6000803e3d6000fd5b505050506040513d601f19601f82011682018060405250810190611a2e9190613ea0565b5b8015611c7e575060008054906101000a900473ffffffffffffffffffffffffffffffffffffffff1673ffffffffffffffffffffffffffffffffffffffff16631b5ac4b586600160028110611a8657611a85613be6565b5b602002015184600160028110611a9f57611a9e613be6565b5b6020020151611aae9190613d65565b6040518263ffffffff1660e01b8152600401611aca9190613cf1565b602060405180830381865afa158015611ae7573d6000803e3d6000fd5b505050506040513d601f19601f82011682018060405250810190611b0b9190613d38565b600160009054906101000a900473ffffffffffffffffffffffffffffffffffffffff1673ffffffffffffffffffffffffffffffffffffffff16638f7daf0f600160009054906101000a900473ffffffffffffffffffffffffffffffffffffffff1673ffffffffffffffffffffffffffffffffffffffff16631feeef9886600060028110611b9b57611b9a613be6565b5b602002015187600160028110611bb457611bb3613be6565b5b60200201516040518363ffffffff1660e01b8152600401611bd6929190613edc565b6040805180830381865afa158015611bf2573d6000803e3d6000fd5b505050506040513d601f19601f82011682018060405250810190611c169190613f5a565b600001516040518263ffffffff1660e01b8152600401611c369190613f87565b608060405180830381865afa158015611c53573d6000803e3d6000fd5b505050506040513d601f19601f82011682018060405250810190611c7791906140a3565b6020015110155b8015611d5e5750831515600160009054906101000a900473ffffffffffffffffffffffffffffffffffffffff1673ffffffffffffffffffffffffffffffffffffffff16631feeef9884600060028110611cda57611cd9613be6565b5b602002015185600160028110611cf357611cf2613be6565b5b60200201516040518363ffffffff1660e01b8152600401611d15929190613edc565b6040805180830381865afa158015611d31573d6000803e3d6000fd5b505050506040513d601f19601f82011682018060405250810190611d559190613f5a565b60200151151514155b15611d6d5760019250506135b0565b60008054906101000a900473ffffffffffffffffffffffffffffffffffffffff1673ffffffffffffffffffffffffffffffffffffffff166371cc5ad186604051806040016040528089600060028110611dc957611dc8613be6565b5b6020020151815260200160078152506040518363ffffffff1660e01b8152600401611df5929190613e22565b606060405180830381865afa158015611e12573d6000803e3d6000fd5b505050506040513d601f19601f82011682018060405250810190611e369190613e60565b809350819450505082158015611ee4575060008054906101000a900473ffffffffffffffffffffffffffffffffffffffff1673ffffffffffffffffffffffffffffffffffffffff1663ac411ce683876040518363ffffffff1660e01b8152600401611ea2929190613e22565b602060405180830381865afa158015611ebf573d6000803e3d6000fd5b505050506040513d601f19601f82011682018060405250810190611ee39190613ea0565b5b8015612133575060008054906101000a900473ffffffffffffffffffffffffffffffffffffffff1673ffffffffffffffffffffffffffffffffffffffff16631b5ac4b586600160028110611f3b57611f3a613be6565b5b602002015184600160028110611f5457611f53613be6565b5b6020020151611f639190613d65565b6040518263ffffffff1660e01b8152600401611f7f9190613cf1565b602060405180830381865afa158015611f9c573d6000803e3d6000fd5b505050506040513d601f19601f82011682018060405250810190611fc09190613d38565b600160009054906101000a900473ffffffffffffffffffffffffffffffffffffffff1673ffffffffffffffffffffffffffffffffffffffff16638f7daf0f600160009054906101000a900473ffffffffffffffffffffffffffffffffffffffff1673ffffffffffffffffffffffffffffffffffffffff16631feeef98866000600281106120505761204f613be6565b5b60200201518760016002811061206957612068613be6565b5b60200201516040518363ffffffff1660e01b815260040161208b929190613edc565b6040805180830381865afa1580156120a7573d6000803e3d6000fd5b505050506040513d601f19601f820116820180604052508101906120cb9190613f5a565b600001516040518263ffffffff1660e01b81526004016120eb9190613f87565b608060405180830381865afa158015612108573d6000803e3d6000fd5b505050506040513d601f19601f8201168201806040525081019061212c91906140a3565b6020015110155b80156122135750831515600160009054906101000a900473ffffffffffffffffffffffffffffffffffffffff1673ffffffffffffffffffffffffffffffffffffffff16631feeef988460006002811061218f5761218e613be6565b5b6020020151856001600281106121a8576121a7613be6565b5b60200201516040518363ffffffff1660e01b81526004016121ca929190613edc565b6040805180830381865afa1580156121e6573d6000803e3d6000fd5b505050506040513d601f19601f8201168201806040525081019061220a9190613f5a565b60200151151514155b156122225760019250506135b0565b60008054906101000a900473ffffffffffffffffffffffffffffffffffffffff1673ffffffffffffffffffffffffffffffffffffffff166371cc5ad1866040518060400160405280858a60006002811061227f5761227e613be6565b5b602002015161228e91906140d0565b8152602001858a6001600281106122a8576122a7613be6565b5b60200201516122b79190614126565b8152506040518363ffffffff1660e01b81526004016122d7929190613e22565b606060405180830381865afa1580156122f4573d6000803e3d6000fd5b505050506040513d601f19601f820116820180604052508101906123189190613e60565b8093508194505050821580156123c6575060008054906101000a900473ffffffffffffffffffffffffffffffffffffffff1673ffffffffffffffffffffffffffffffffffffffff1663ac411ce683876040518363ffffffff1660e01b8152600401612384929190613e22565b602060405180830381865afa1580156123a1573d6000803e3d6000fd5b505050506040513d601f19601f820116820180604052508101906123c59190613ea0565b5b8015612615575060008054906101000a900473ffffffffffffffffffffffffffffffffffffffff1673ffffffffffffffffffffffffffffffffffffffff16631b5ac4b58660016002811061241d5761241c613be6565b5b60200201518460016002811061243657612435613be6565b5b60200201516124459190613d65565b6040518263ffffffff1660e01b81526004016124619190613cf1565b602060405180830381865afa15801561247e573d6000803e3d6000fd5b505050506040513d601f19601f820116820180604052508101906124a29190613d38565b600160009054906101000a900473ffffffffffffffffffffffffffffffffffffffff1673ffffffffffffffffffffffffffffffffffffffff16638f7daf0f600160009054906101000a900473ffffffffffffffffffffffffffffffffffffffff1673ffffffffffffffffffffffffffffffffffffffff16631feeef988660006002811061253257612531613be6565b5b60200201518760016002811061254b5761254a613be6565b5b60200201516040518363ffffffff1660e01b815260040161256d929190613edc565b6040805180830381865afa158015612589573d6000803e3d6000fd5b505050506040513d601f19601f820116820180604052508101906125ad9190613f5a565b600001516040518263ffffffff1660e01b81526004016125cd9190613f87565b608060405180830381865afa1580156125ea573d6000803e3d6000fd5b505050506040513d601f19601f8201168201806040525081019061260e91906140a3565b6020015110155b80156126f55750831515600160009054906101000a900473ffffffffffffffffffffffffffffffffffffffff1673ffffffffffffffffffffffffffffffffffffffff16631feeef988460006002811061267157612670613be6565b5b60200201518560016002811061268a57612689613be6565b5b60200201516040518363ffffffff1660e01b81526004016126ac929190613edc565b6040805180830381865afa1580156126c8573d6000803e3d6000fd5b505050506040513d601f19601f820116820180604052508101906126ec9190613f5a565b60200151151514155b156127045760019250506135b0565b60008054906101000a900473ffffffffffffffffffffffffffffffffffffffff1673ffffffffffffffffffffffffffffffffffffffff166371cc5ad1866040518060400160405280858a60006002811061276157612760613be6565b5b60200201516127709190614126565b8152602001858a60016002811061278a57612789613be6565b5b60200201516127999190614126565b8152506040518363ffffffff1660e01b81526004016127b9929190613e22565b606060405180830381865afa1580156127d6573d6000803e3d6000fd5b505050506040513d601f19601f820116820180604052508101906127fa9190613e60565b8093508194505050821580156128a8575060008054906101000a900473ffffffffffffffffffffffffffffffffffffffff1673ffffffffffffffffffffffffffffffffffffffff1663ac411ce683876040518363ffffffff1660e01b8152600401612866929190613e22565b602060405180830381865afa158015612883573d6000803e3d6000fd5b505050506040513d601f19601f820116820180604052508101906128a79190613ea0565b5b8015612af7575060008054906101000a900473ffffffffffffffffffffffffffffffffffffffff1673ffffffffffffffffffffffffffffffffffffffff16631b5ac4b5866001600281106128ff576128fe613be6565b5b60200201518460016002811061291857612917613be6565b5b60200201516129279190613d65565b6040518263ffffffff1660e01b81526004016129439190613cf1565b602060405180830381865afa158015612960573d6000803e3d6000fd5b505050506040513d601f19601f820116820180604052508101906129849190613d38565b600160009054906101000a900473ffffffffffffffffffffffffffffffffffffffff1673ffffffffffffffffffffffffffffffffffffffff16638f7daf0f600160009054906101000a900473ffffffffffffffffffffffffffffffffffffffff1673ffffffffffffffffffffffffffffffffffffffff16631feeef9886600060028110612a1457612a13613be6565b5b602002015187600160028110612a2d57612a2c613be6565b5b60200201516040518363ffffffff1660e01b8152600401612a4f929190613edc565b6040805180830381865afa158015612a6b573d6000803e3d6000fd5b505050506040513d601f19601f82011682018060405250810190612a8f9190613f5a565b600001516040518263ffffffff1660e01b8152600401612aaf9190613f87565b608060405180830381865afa158015612acc573d6000803e3d6000fd5b505050506040513d601f19601f82011682018060405250810190612af091906140a3565b6020015110155b8015612bd75750831515600160009054906101000a900473ffffffffffffffffffffffffffffffffffffffff1673ffffffffffffffffffffffffffffffffffffffff16631feeef9884600060028110612b5357612b52613be6565b5b602002015185600160028110612b6c57612b6b613be6565b5b60200201516040518363ffffffff1660e01b8152600401612b8e929190613edc565b6040805180830381865afa158015612baa573d6000803e3d6000fd5b505050506040513d601f19601f82011682018060405250810190612bce9190613f5a565b60200151151514155b15612be65760019250506135b0565b60008054906101000a900473ffffffffffffffffffffffffffffffffffffffff1673ffffffffffffffffffffffffffffffffffffffff166371cc5ad1866040518060400160405280858a600060028110612c4357612c42613be6565b5b6020020151612c529190614126565b8152602001858a600160028110612c6c57612c6b613be6565b5b6020020151612c7b91906140d0565b8152506040518363ffffffff1660e01b8152600401612c9b929190613e22565b606060405180830381865afa158015612cb8573d6000803e3d6000fd5b505050506040513d601f19601f82011682018060405250810190612cdc9190613e60565b809350819450505082158015612d8a575060008054906101000a900473ffffffffffffffffffffffffffffffffffffffff1673ffffffffffffffffffffffffffffffffffffffff1663ac411ce683876040518363ffffffff1660e01b8152600401612d48929190613e22565b602060405180830381865afa158015612d65573d6000803e3d6000fd5b505050506040513d601f19601f82011682018060405250810190612d899190613ea0565b5b8015612fd9575060008054906101000a900473ffffffffffffffffffffffffffffffffffffffff1673ffffffffffffffffffffffffffffffffffffffff16631b5ac4b586600160028110612de157612de0613be6565b5b602002015184600160028110612dfa57612df9613be6565b5b6020020151612e099190613d65565b6040518263ffffffff1660e01b8152600401612e259190613cf1565b602060405180830381865afa158015612e42573d6000803e3d6000fd5b505050506040513d601f19601f82011682018060405250810190612e669190613d38565b600160009054906101000a900473ffffffffffffffffffffffffffffffffffffffff1673ffffffffffffffffffffffffffffffffffffffff16638f7daf0f600160009054906101000a900473ffffffffffffffffffffffffffffffffffffffff1673ffffffffffffffffffffffffffffffffffffffff16631feeef9886600060028110612ef657612ef5613be6565b5b602002015187600160028110612f0f57612f0e613be6565b5b60200201516040518363ffffffff1660e01b8152600401612f31929190613edc565b6040805180830381865afa158015612f4d573d6000803e3d6000fd5b505050506040513d601f19601f82011682018060405250810190612f719190613f5a565b600001516040518263ffffffff1660e01b8152600401612f919190613f87565b608060405180830381865afa158015612fae573d6000803e3d6000fd5b505050506040513d601f19601f82011682018060405250810190612fd291906140a3565b6020015110155b80156130b95750831515600160009054906101000a900473ffffffffffffffffffffffffffffffffffffffff1673ffffffffffffffffffffffffffffffffffffffff16631feeef988460006002811061303557613034613be6565b5b60200201518560016002811061304e5761304d613be6565b5b60200201516040518363ffffffff1660e01b8152600401613070929190613edc565b6040805180830381865afa15801561308c573d6000803e3d6000fd5b505050506040513d601f19601f820116820180604052508101906130b09190613f5a565b60200151151514155b156130c85760019250506135b0565b60008054906101000a900473ffffffffffffffffffffffffffffffffffffffff1673ffffffffffffffffffffffffffffffffffffffff166371cc5ad1866040518060400160405280858a60006002811061312557613124613be6565b5b602002015161313491906140d0565b8152602001858a60016002811061314e5761314d613be6565b5b602002015161315d91906140d0565b8152506040518363ffffffff1660e01b815260040161317d929190613e22565b606060405180830381865afa15801561319a573d6000803e3d6000fd5b505050506040513d601f19601f820116820180604052508101906131be9190613e60565b80935081945050508215801561326c575060008054906101000a900473ffffffffffffffffffffffffffffffffffffffff1673ffffffffffffffffffffffffffffffffffffffff1663ac411ce683876040518363ffffffff1660e01b815260040161322a929190613e22565b602060405180830381865afa158015613247573d6000803e3d6000fd5b505050506040513d601f19601f8201168201806040525081019061326b9190613ea0565b5b80156134bb575060008054906101000a900473ffffffffffffffffffffffffffffffffffffffff1673ffffffffffffffffffffffffffffffffffffffff16631b5ac4b5866001600281106132c3576132c2613be6565b5b6020020151846001600281106132dc576132db613be6565b5b60200201516132eb9190613d65565b6040518263ffffffff1660e01b81526004016133079190613cf1565b602060405180830381865afa158015613324573d6000803e3d6000fd5b505050506040513d601f19601f820116820180604052508101906133489190613d38565b600160009054906101000a900473ffffffffffffffffffffffffffffffffffffffff1673ffffffffffffffffffffffffffffffffffffffff16638f7daf0f600160009054906101000a900473ffffffffffffffffffffffffffffffffffffffff1673ffffffffffffffffffffffffffffffffffffffff16631feeef98866000600281106133d8576133d7613be6565b5b6020020151876001600281106133f1576133f0613be6565b5b60200201516040518363ffffffff1660e01b8152600401613413929190613edc565b6040805180830381865afa15801561342f573d6000803e3d6000fd5b505050506040513d601f19601f820116820180604052508101906134539190613f5a565b600001516040518263ffffffff1660e01b81526004016134739190613f87565b608060405180830381865afa158015613490573d6000803e3d6000fd5b505050506040513d601f19601f820116820180604052508101906134b491906140a3565b6020015110155b801561359b5750831515600160009054906101000a900473ffffffffffffffffffffffffffffffffffffffff1673ffffffffffffffffffffffffffffffffffffffff16631feeef988460006002811061351757613516613be6565b5b6020020151856001600281106135305761352f613be6565b5b60200201516040518363ffffffff1660e01b8152600401613552929190613edc565b6040805180830381865afa15801561356e573d6000803e3d6000fd5b505050506040513d601f19601f820116820180604052508101906135929190613f5a565b60200151151514155b156135aa5760019250506135b0565b60009250505b9250929050565b600080600160009054906101000a900473ffffffffffffffffffffffffffffffffffffffff1673ffffffffffffffffffffffffffffffffffffffff1663fe9ba8ec846040518263ffffffff1660e01b815260040161361591906137ed565b602060405180830381865afa158015613632573d6000803e3d6000fd5b505050506040513d601f19601f820116820180604052508101906136569190613ea0565b80156136675750613666836100d8565b5b15613679576001915060019050613743565b600160009054906101000a900473ffffffffffffffffffffffffffffffffffffffff1673ffffffffffffffffffffffffffffffffffffffff1663fe9ba8ec846040518263ffffffff1660e01b81526004016136d491906137ed565b602060405180830381865afa1580156136f1573d6000803e3d6000fd5b505050506040513d601f19601f820116820180604052508101906137159190613ea0565b1580156137275750613726836100d8565b5b15613739576000915060019050613742565b60009150600090505b5b915091565b6040518060400160405280600290602082028036833780820191505090505090565b6000604051905090565b600080fd5b60008115159050919050565b61378e81613779565b811461379957600080fd5b50565b6000813590506137ab81613785565b92915050565b6000602082840312156137c7576137c6613774565b5b60006137d58482850161379c565b91505092915050565b6137e781613779565b82525050565b600060208201905061380260008301846137de565b92915050565b600080fd5b6000601f19601f8301169050919050565b7f4e487b7100000000000000000000000000000000000000000000000000000000600052604160045260246000fd5b6138568261380d565b810181811067ffffffffffffffff821117156138755761387461381e565b5b80604052505050565b600061388861376a565b9050613894828261384d565b919050565b600067ffffffffffffffff8211156138b4576138b361381e565b5b602082029050919050565b600080fd5b6000819050919050565b6138d7816138c4565b81146138e257600080fd5b50565b6000813590506138f4816138ce565b92915050565b600061390d61390884613899565b61387e565b90508060208402830185811115613927576139266138bf565b5b835b81811015613950578061393c88826138e5565b845260208401935050602081019050613929565b5050509392505050565b600082601f83011261396f5761396e613808565b5b600261397c8482856138fa565b91505092915050565b6000806060838503121561399c5761399b613774565b5b60006139aa8582860161395a565b92505060406139bb8582860161379c565b9150509250929050565b600060029050919050565b600081905092915050565b6000819050919050565b6139ee816138c4565b82525050565b6000613a0083836139e5565b60208301905092915050565b6000602082019050919050565b613a22816139c5565b613a2c81846139d0565b9250613a37826139db565b8060005b83811015613a68578151613a4f87826139f4565b9650613a5a83613a0c565b925050600181019050613a3b565b505050505050565b6000606082019050613a8560008301856137de565b613a926020830184613a19565b9392505050565b6000604082019050613aae60008301856137de565b613abb60208301846137de565b9392505050565b600082825260208201905092915050565b50565b6000613ae3600083613ac2565b9150613aee82613ad3565b600082019050919050565b60006020820190508181036000830152613b1281613ad6565b9050919050565b600081519050613b28816138ce565b92915050565b6000613b41613b3c84613899565b61387e565b90508060208402830185811115613b5b57613b5a6138bf565b5b835b81811015613b845780613b708882613b19565b845260208401935050602081019050613b5d565b5050509392505050565b600082601f830112613ba357613ba2613808565b5b6002613bb0848285613b2e565b91505092915050565b600060408284031215613bcf57613bce613774565b5b6000613bdd84828501613b8e565b91505092915050565b7f4e487b7100000000000000000000000000000000000000000000000000000000600052603260045260246000fd5b6000819050919050565b7f4e487b7100000000000000000000000000000000000000000000000000000000600052601160045260246000fd5b6000613c5982613c15565b9150613c6483613c15565b9250817f7fffffffffffffffffffffffffffffffffffffffffffffffffffffffffffffff03831360008312151615613c9f57613c9e613c1f565b5b817f8000000000000000000000000000000000000000000000000000000000000000038312600083121615613cd757613cd6613c1f565b5b828201905092915050565b613ceb81613c15565b82525050565b6000602082019050613d066000830184613ce2565b92915050565b613d1581613c15565b8114613d2057600080fd5b50565b600081519050613d3281613d0c565b92915050565b600060208284031215613d4e57613d4d613774565b5b6000613d5c84828501613d23565b91505092915050565b6000613d7082613c15565b9150613d7b83613c15565b9250827f800000000000000000000000000000000000000000000000000000000000000001821260008412151615613db657613db5613c1f565b5b827f7fffffffffffffffffffffffffffffffffffffffffffffffffffffffffffffff018213600084121615613dee57613ded613c1f565b5b828203905092915050565b6000604082019050613e0e6000830185613ce2565b613e1b6020830184613ce2565b9392505050565b6000608082019050613e376000830185613a19565b613e446040830184613a19565b9392505050565b600081519050613e5a81613785565b92915050565b60008060608385031215613e7757613e76613774565b5b6000613e8585828601613e4b565b9250506020613e9685828601613b8e565b9150509250929050565b600060208284031215613eb657613eb5613774565b5b6000613ec484828501613e4b565b91505092915050565b613ed6816138c4565b82525050565b6000604082019050613ef16000830185613ecd565b613efe6020830184613ecd565b9392505050565b600080fd5b600060408284031215613f2057613f1f613f05565b5b613f2a604061387e565b90506000613f3a84828501613b19565b6000830152506020613f4e84828501613e4b565b60208301525092915050565b600060408284031215613f7057613f6f613774565b5b6000613f7e84828501613f0a565b91505092915050565b6000602082019050613f9c6000830184613ecd565b92915050565b600067ffffffffffffffff821115613fbd57613fbc61381e565b5b602082029050919050565b6000613fdb613fd684613fa2565b61387e565b90508060208402830185811115613ff557613ff46138bf565b5b835b8181101561401e578061400a8882613e4b565b845260208401935050602081019050613ff7565b5050509392505050565b600082601f83011261403d5761403c613808565b5b600361404a848285613fc8565b91505092915050565b60006080828403121561406957614068613f05565b5b614073604061387e565b9050600061408384828501614028565b600083015250606061409784828501613b19565b60208301525092915050565b6000608082840312156140b9576140b8613774565b5b60006140c784828501614053565b91505092915050565b60006140db826138c4565b91506140e6836138c4565b9250827fffffffffffffffffffffffffffffffffffffffffffffffffffffffffffffffff0382111561411b5761411a613c1f565b5b828201905092915050565b6000614131826138c4565b915061413c836138c4565b92508282101561414f5761414e613c1f565b5b82820390509291505056fea26469706673582212204b7c98dce2d2f24fc1b8b30ee38498f19124ae9a515e09721485e5cd25a5441864736f6c634300080e0033",
  "linkReferences": {},
  "deployedLinkReferences": {}
}