{
  "_format": "hh-sol-artifact-1",
  "contractName": "ChessBoard",
  "sourceName": "contracts/ChessBoard.sol",
  "abi": [
    {
      "inputs": [
        {
          "internalType": "address",
          "name": "_player1",
          "type": "address"
        },
        {
          "internalType": "address",
          "name": "_player2",
          "type": "address"
        }
      ],
      "stateMutability": "nonpayable",
      "type": "constructor"
    },
    {
      "inputs": [
        {
          "internalType": "bool",
          "name": "",
          "type": "bool"
        }
      ],
      "name": "KingsFirstmove",
      "outputs": [
        {
          "internalType": "bool",
          "name": "",
          "type": "bool"
        }
      ],
      "stateMutability": "view",
      "type": "function"
    },
    {
      "inputs": [
        {
          "internalType": "uint256[2]",
          "name": "oldpos",
          "type": "uint256[2]"
        },
        {
          "internalType": "uint256[2]",
          "name": "newpos",
          "type": "uint256[2]"
        }
      ],
      "name": "Move",
      "outputs": [
        {
          "internalType": "bool",
          "name": "res",
          "type": "bool"
        }
      ],
      "stateMutability": "nonpayable",
      "type": "function"
    },
    {
      "inputs": [],
      "name": "Movecontroller",
      "outputs": [
        {
          "internalType": "contract MoveController",
          "name": "",
          "type": "address"
        }
      ],
      "stateMutability": "view",
      "type": "function"
    },
    {
      "inputs": [],
      "name": "Movehandler",
      "outputs": [
        {
          "internalType": "contract MoveHandler",
          "name": "",
          "type": "address"
        }
      ],
      "stateMutability": "view",
      "type": "function"
    },
    {
      "inputs": [
        {
          "internalType": "bool",
          "name": "",
          "type": "bool"
        },
        {
          "internalType": "bool",
          "name": "",
          "type": "bool"
        }
      ],
      "name": "TowersFirstmove",
      "outputs": [
        {
          "internalType": "bool",
          "name": "",
          "type": "bool"
        }
      ],
      "stateMutability": "view",
      "type": "function"
    },
    {
      "inputs": [
        {
          "internalType": "bool",
          "name": "",
          "type": "bool"
        }
      ],
      "name": "check",
      "outputs": [
        {
          "internalType": "bool",
          "name": "",
          "type": "bool"
        }
      ],
      "stateMutability": "view",
      "type": "function"
    },
    {
      "inputs": [
        {
          "internalType": "uint256",
          "name": "i",
          "type": "uint256"
        },
        {
          "internalType": "uint256",
          "name": "j",
          "type": "uint256"
        }
      ],
      "name": "getBox",
      "outputs": [
        {
          "components": [
            {
              "internalType": "uint256",
              "name": "pedina",
              "type": "uint256"
            },
            {
              "internalType": "bool",
              "name": "color",
              "type": "bool"
            }
          ],
          "internalType": "struct ChessBoard.Box",
          "name": "box",
          "type": "tuple"
        }
      ],
      "stateMutability": "view",
      "type": "function"
    },
    {
      "inputs": [
        {
          "internalType": "bool",
          "name": "_player",
          "type": "bool"
        }
      ],
      "name": "getCheck",
      "outputs": [
        {
          "internalType": "bool",
          "name": "res",
          "type": "bool"
        }
      ],
      "stateMutability": "view",
      "type": "function"
    },
    {
      "inputs": [
        {
          "internalType": "bool",
          "name": "team",
          "type": "bool"
        }
      ],
      "name": "getKing",
      "outputs": [
        {
          "internalType": "uint256[2]",
          "name": "pos",
          "type": "uint256[2]"
        }
      ],
      "stateMutability": "view",
      "type": "function"
    },
    {
      "inputs": [
        {
          "internalType": "bool",
          "name": "team",
          "type": "bool"
        }
      ],
      "name": "getPlayer",
      "outputs": [
        {
          "internalType": "address",
          "name": "_player",
          "type": "address"
        }
      ],
      "stateMutability": "view",
      "type": "function"
    },
    {
      "inputs": [
        {
          "internalType": "uint256",
          "name": "pedina",
          "type": "uint256"
        }
      ],
      "name": "getRules",
      "outputs": [
        {
          "components": [
            {
              "internalType": "bool[3]",
              "name": "moves_directions",
              "type": "bool[3]"
            },
            {
              "internalType": "uint256",
              "name": "maxsteps",
              "type": "uint256"
            }
          ],
          "internalType": "struct ChessBoard._Rules",
          "name": "rule",
          "type": "tuple"
        }
      ],
      "stateMutability": "view",
      "type": "function"
    },
    {
      "inputs": [
        {
          "internalType": "address",
          "name": "_player",
          "type": "address"
        }
      ],
      "name": "getTeam",
      "outputs": [
        {
          "internalType": "bool",
          "name": "team",
          "type": "bool"
        }
      ],
      "stateMutability": "view",
      "type": "function"
    },
    {
      "inputs": [
        {
          "internalType": "bool",
          "name": "",
          "type": "bool"
        }
      ],
      "name": "players",
      "outputs": [
        {
          "internalType": "address",
          "name": "",
          "type": "address"
        }
      ],
      "stateMutability": "view",
      "type": "function"
    },
    {
      "inputs": [
        {
          "internalType": "address",
          "name": "",
          "type": "address"
        }
      ],
      "name": "prizes",
      "outputs": [
        {
          "internalType": "uint256",
          "name": "",
          "type": "uint256"
        }
      ],
      "stateMutability": "view",
      "type": "function"
    },
    {
      "inputs": [],
      "name": "totalPrize",
      "outputs": [
        {
          "internalType": "uint256",
          "name": "",
          "type": "uint256"
        }
      ],
      "stateMutability": "view",
      "type": "function"
    },
    {
      "inputs": [],
      "name": "turner",
      "outputs": [
        {
          "internalType": "address",
          "name": "",
          "type": "address"
        }
      ],
      "stateMutability": "view",
      "type": "function"
    },
    {
      "inputs": [],
      "name": "winner",
      "outputs": [
        {
          "internalType": "address",
          "name": "",
          "type": "address"
        }
      ],
      "stateMutability": "view",
      "type": "function"
    },
    {
      "stateMutability": "payable",
      "type": "receive"
    }
  ],
  "bytecode": "0x60806040523480156200001157600080fd5b506040516200601638038062006016833981016040819052620000349162000b6b565b30604051620000439062000a44565b6001600160a01b039091168152602001604051809103906000f08015801562000070573d6000803e3d6000fd5b50608b80546001600160a01b0319166001600160a01b039290921691821790556040513090620000a09062000a52565b6001600160a01b03928316815291166020820152604001604051809103906000f080158015620000d4573d6000803e3d6000fd5b50608c80546001600160a01b03199081166001600160a01b039384161790915560008051602062005ff683398151915280548216858416908117825560008051602062005fd68339815191528054841686861617815560018054909416821784556000918252600860208181526040808520805460ff19908116909817905592548716845282842080549096169095558151808301835260048082526007828801529454909616835284528082205460ff16151582529190925290206200019d91600262000a60565b5060408051808201825260048082526000602080840182905260008051602062005fd6833981519152546001600160a01b03168252600881528482205460ff16151582529190915291909120620001f691600262000a60565b5060008051602062005ff683398151915280546001600160a01b0390811660009081526008602081815260408084205460ff908116151585526007808452828620805460ff1990811690915560008051602062005fd68339815191528054891688528686528488205484161515885291855283872080548216905588548816875285855283872054831615158752600580865284882080548316600190811790915583548a16895287875285892054851615158952908652848820805483168217905589548916885286865284882054841615158852600680875285892089805287528589208054841683179055995489168852868652848820548416151588528986528488208189528652848820805483168217905582548916885286865284882054841615158852898652848820888052865284882080548316821790559154909716865293835281852054161515845294815284832082845281528483208054909416909117909255825160a08101845292830181815260608401829052608084018290528352828201819052805260039081905281517f3617319a054d772f909f7c479a2cebe5066e836a939412e32403c99029b92eff91620003bf91839162000aa8565b506020918201516001918201556040805160a081018252600091810182815260608201849052608082018390528152808401839052919052600391829052805190917fa15bc60c955c405d20d9149c709e2460f1c2d9a497496a7f46004d1772c3054c91620004319183919062000aa8565b506020918201516001918201556040805160a08101825290810182815260608201929092526000608082018190529181526007818401526002909152600391829052805190917fc3a24b0501bd2c13a7e57f2db4369ec4c223447539fc0724a9d55ac4a06ebd4d91620004a79183919062000aa8565b506020918201516001909101556040805160a0810182526000918101828152606082018390526080820183905281526004818401526003918290529181905281517fcbc4e5fb02c3d1de23a9f1e014b4d2ee5aeaea9505df5e855c9210bf472495af916200051791839162000aa8565b506020918201516001918201556040805160a081018252600091810182815260608201839052608082019390935291825260078284015260049052600391829052805190917f83ec6a1f0257b830b5e016457c9cf1435391bf56cc98f369a58a54fe93772465916200058c9183919062000aa8565b506020918201516001918201556040805160a08101825290810182815260608201839052608082018390528152808301919091526005600052600391829052805190917f405aad32e1adbac89bb7f176e338b8fc6e994ca210c9bb7bdca249b46594225091620005ff9183919062000aa8565b506020918201516001918201556040805160a0810182529081018281526060820183905260808201929092529081526007818301526006600052600391829052805190917fc69056f16cbaa3c616b828e333ab7d3a32310765507f8f58359e99ebb7a885f391620006739183919062000aa8565b5060209182015160019182015560408051808201825260028082526000918501829052600b819055600c805460ff19908116909155835180850185526003808252908701849052601b819055601c805483169055845180860186526004808252908801859052602b819055602c805484169055855180870187526005808252908901869052604b819055604c805485169055865180880188526006808252908a01879052603b819055603c805486169055875180890189528381528a01879052605b839055605c805486169055875180890189528481528a01879052606b849055606c805486169055875180890189528681528a01879052607b869055607c805486169055875180890189528981528a01879052600d899055600e805486169055875180890189528981528a01879052601d899055601e805486169055875180890189528981528a01879052602d899055602e805486169055875180890189528981528a01879052603d899055603e805486169055875180890189528981528a01879052604d899055604e805486169055875180890189528981528a01879052605d899055605e805486169055875180890189528981528a01879052606d899055606e805486169055875180890189528981528a0196909652607d889055607e8054851690558651808801885288815289018890526017889055601880548516891790558651808801885288815289018890526027889055602880548516891790558651808801885288815289018890526037889055603880548516891790558651808801885288815289018890526047889055604880548516891790558651808801885288815289018890526057889055605880548516891790558651808801885288815289018890526067889055606880548516891790558651808801885288815289018890526077889055607880548516891790558651808801885288815289018890526087889055608880548516891790558651808801885285815289018890526019859055601a80548516891790558651808801885283815289018890526029839055602a80548516891790558651808801885282815289018890526039829055603a8054851689179055865180880188528181528901889052605955605a8054841688179055855180870187528581528801879052604994909455604a8054831687179055845180860186528481528701869052606993909355606a8054821686179055835180850185528381528601859052607992909255607a8054831685179055825180840190935280835291909301829052608955608a80549092161790555062000ba39050565b61186e80620022f983390190565b61246f8062003b6783390190565b826002810192821562000a96579160200282015b8281111562000a96578251829060ff1690559160200191906001019062000a74565b5062000aa492915062000b37565b5090565b60018301918390821562000a965791602002820160005b8382111562000afe57835183826101000a81548160ff021916908315150217905550926020019260010160208160000104928301926001030262000abf565b801562000b2d5782816101000a81549060ff021916905560010160208160000104928301926001030262000afe565b505062000aa49291505b5b8082111562000aa4576000815560010162000b38565b80516001600160a01b038116811462000b6657600080fd5b919050565b6000806040838503121562000b7f57600080fd5b62000b8a8362000b4e565b915062000b9a6020840162000b4e565b90509250929050565b6117468062000bb36000396000f3fe6080604052600436106101025760003560e01c8063b35d11bf11610095578063dbdfbae711610064578063dbdfbae714610450578063dfbf53ae14610470578063e92758c214610490578063fd5fcef1146104b0578063fe9ba8ec146104d057600080fd5b8063b35d11bf1461036d578063b99e131b1461039a578063bbc2b0ce146103ea578063d0d6defb1461041a57600080fd5b806382b1ad50116100d157806382b1ad50146102b657806387529f0f146102da5780638f7daf0f14610313578063915b740d1461034057600080fd5b80631feeef98146101d9578063241c59121461021b5780632f553dec1461025b5780637ac8802e1461027b57600080fd5b366101d457600160005260096020527f92e85d02570a8092d09a6e3a57665bc3815a2699a4074001bf1ccabf660f5a36546001600160a01b031633148061017b57506000805260096020527fec8156718a8372b1db44bb411437d0870f3e3790d4a08526d024ce1b0b668f6b546001600160a01b031633145b6101a65760405162461bcd60e51b815260206004820152600060248201526044015b60405180910390fd5b336000908152600a602052604081203490819055815490919081906101cc9084906111e1565b925050819055005b600080fd5b3480156101e557600080fd5b506101f96101f43660046111f9565b610502565b6040805182518152602092830151151592810192909252015b60405180910390f35b34801561022757600080fd5b5061024b610236366004611229565b60076020526000908152604090205460ff1681565b6040519015158152602001610212565b34801561026757600080fd5b5061024b610276366004611300565b61056b565b34801561028757600080fd5b5061024b610296366004611335565b600660209081526000928352604080842090915290825290205460ff1681565b3480156102c257600080fd5b506102cc60005481565b604051908152602001610212565b3480156102e657600080fd5b5061024b6102f536600461136e565b6001600160a01b031660009081526008602052604090205460ff1690565b34801561031f57600080fd5b5061033361032e366004611397565b610e0f565b60405161021291906113b0565b34801561034c57600080fd5b5061036061035b366004611229565b610e8b565b6040516102129190611418565b34801561037957600080fd5b506102cc61038836600461136e565b600a6020526000908152604090205481565b3480156103a657600080fd5b506103d26103b5366004611229565b15156000908152600960205260409020546001600160a01b031690565b6040516001600160a01b039091168152602001610212565b3480156103f657600080fd5b5061024b610405366004611229565b60056020526000908152604090205460ff1681565b34801561042657600080fd5b506103d2610435366004611229565b6009602052600090815260409020546001600160a01b031681565b34801561045c57600080fd5b50608c546103d2906001600160a01b031681565b34801561047c57600080fd5b506002546103d2906001600160a01b031681565b34801561049c57600080fd5b506001546103d2906001600160a01b031681565b3480156104bc57600080fd5b50608b546103d2906001600160a01b031681565b3480156104dc57600080fd5b5061024b6104eb366004611229565b151560009081526007602052604090205460ff1690565b6040805180820190915260008082526020820152600b83600881106105295761052961142c565b60100201826008811061053e5761053e61142c565b6040805180820190915260029190910291909101805482526001015460ff16151560208201529392505050565b6001600090815260096020527f92e85d02570a8092d09a6e3a57665bc3815a2699a4074001bf1ccabf660f5a36546001600160a01b03163314806105e157506000805260096020527fec8156718a8372b1db44bb411437d0870f3e3790d4a08526d024ce1b0b668f6b546001600160a01b031633145b6106075760405162461bcd60e51b8152602060048201526000602482015260440161019d565b608b543360009081526008602081905260408220548651879487946001600160a01b0390911693636d572500938793879360ff9092169260039291600b9181106106535761065361142c565b6010020189600160200201516008811061066f5761066f61142c565b60020201600001548152602001908152602001600020600101546040518563ffffffff1660e01b81526004016106a89493929190611442565b6020604051808303816000875af11580156106c7573d6000803e3d6000fd5b505050506040513d601f19601f820116820180604052508101906106eb919061146f565b6107115760405162461bcd60e51b8152602060048201526000602482015260440161019d565b336000908152600860205260409020548590859060ff16801561076957508151600b90600881106107445761074461142c565b601002018260016020020151600881106107605761076061142c565b60020201546001145b801561077757506020810151155b156107ba578151600690600b90600881106107945761079461142c565b601002018360016020020151600881106107b0576107b061142c565b600202015561085e565b3360009081526008602052604090205460ff1615801561080f57508151600b90600881106107ea576107ea61142c565b601002018260016020020151600881106108065761080661142c565b60020201546001145b801561081f575060208101516007145b1561085e578151600690600b906008811061083c5761083c61142c565b601002018360016020020151600881106108585761085861142c565b60020201555b8651600b90600881106108735761087361142c565b6010020187600160200201516008811061088f5761088f61142c565b60020201546005036108a4576108a486610ed5565b8651600b90600881106108b9576108b961142c565b601002018760016020020151600881106108d5576108d561142c565b60020201600b8760006020020151600881106108f3576108f361142c565b6010020187600160200201516008811061090f5761090f61142c565b8254600291909102919091019081556001918201549101805460ff191660ff909216151591909117905560408051808201909152600080825260208201528751600b90600881106109625761096261142c565b6010020188600160200201516008811061097e5761097e61142c565b8251600291909102919091019081556020918201516001909101805460ff1916911515919091179055608c54336000908152600890925260408083205490516338afef0b60e01b815260ff9091161560048201526001600160a01b03909116906338afef0b9060240161010060405180830381865afa158015610a05573d6000803e3d6000fd5b505050506040513d601f19601f82011682018060405250810190610a2991906114db565b90506000805b6008811015610a4a5780610a42816114f8565b915050610a2f565b5081518015610a5a575060208201515b8015610a67575060408201515b8015610a74575060608201515b8015610a81575060808201515b8015610a8e575060a08201515b8015610a9b575060c08201515b8015610aa8575060e08201515b15610ab557506001610ab9565b5060005b608c543360008181526008602081815260408084205460ff16801515855260048084528286209686529390925251630bc7601d60e21b815292946001600160a01b031693632f1d807493610b109391929101611534565b61032060405180830381865afa158015610b2e573d6000803e3d6000fd5b505050506040513d601f19601f82011682018060405250810190610b529190611597565b5190508015610b935760405162461bcd60e51b815260206004820152600d60248201526c0d6d2dccededccaecd2d8c4def609b1b604482015260640161019d565b608c5433600090815260086020526040808220549051630abd9d3560e41b815260ff909116156004820152841515602482015290916001600160a01b03169063abd9d35090604401602060405180830381865afa158015610bf8573d6000803e3d6000fd5b505050506040513d601f19601f82011682018060405250810190610c1c919061146f565b608c54336000908152600860205260408082205490516338afef0b60e01b815260ff90911615156004820152929350916001600160a01b03909116906338afef0b9060240161010060405180830381865afa158015610c7f573d6000803e3d6000fd5b505050506040513d601f19601f82011682018060405250810190610ca391906114db565b80519091506000908015610cb8575060208201515b8015610cc5575060408201515b8015610cd2575060608201515b8015610cdf575060808201515b8015610cec575060a08201515b8015610cf9575060c08201515b8015610d06575060e08201515b15610d1357506001610d17565b5060005b8215610d61573360009081526008602090815260408083205460ff161515835260079091529020805460ff19169055610d4f8c610f2f565b610d588d611001565b60019a50610dff565b808015610d9057503360009081526008602090815260408083205460ff90811615845260079092529091205416155b15610d9e5760009a50610dff565b82610dff576002805473ffffffffffffffffffffffffffffffffffffffff19163317905560408051808201909152601781527f53636163636f204d6174746f2120486f2076696e746f210000000000000000006020820152610dff906110bd565b5050505050505050505092915050565b610e1761111c565b6000828152600360208190526040808320815160a081018084529094919385938401928592908390855b825461010083900a900460ff161515815260206001928301818104948501949093039092029101808411610e41579050505050505081526020016001820154815250509050919050565b610e9361113c565b811515600090815260046020526040908190208151808301928390529160029082845b815481526020019060010190808311610eb65750505050509050919050565b3360009081526008602090815260408083205460ff161515835260049091529020610f029082600261115a565b50503360009081526008602090815260408083205460ff161515835260059091529020805460ff19169055565b608c543360008181526008602081815260408084205460ff1680158552600480845282862096865293909252516225f12560e81b815292946001600160a01b0316936325f1250093610f84938893910161161c565b606060405180830381865afa158015610fa1573d6000803e3d6000fd5b505050506040513d601f19601f82011682018060405250810190610fc59190611647565b5090508015610ffd573360009081526008602090815260408083205460ff1615835260079091529020805460ff191660011790555050565b5050565b8051600b90600881106110165761101661142c565b601002018160016020020151600881106110325761103261142c565b60020201600001546002036110ba57805160000361107e573360009081526008602090815260408083205460ff1615158352600682528083208380529091529020805460ff1916905550565b80516007036110ba573360009081526008602090815260408083205460ff161515835260068252808320600184529091529020805460ff191690555b50565b6110ba816040516024016110d191906116bb565b60408051601f198184030181529190526020810180516001600160e01b031663104c13eb60e21b17905280516a636f6e736f6c652e6c6f67602083016000808483855afa5050505050565b604051806040016040528061112f611198565b8152602001600081525090565b60405180604001604052806002906020820280368337509192915050565b8260028101928215611188579160200282015b8281111561118857825182559160200191906001019061116d565b506111949291506111b6565b5090565b60405180606001604052806003906020820280368337509192915050565b5b8082111561119457600081556001016111b7565b634e487b7160e01b600052601160045260246000fd5b600082198211156111f4576111f46111cb565b500190565b6000806040838503121561120c57600080fd5b50508035926020909101359150565b80151581146110ba57600080fd5b60006020828403121561123b57600080fd5b81356112468161121b565b9392505050565b634e487b7160e01b600052604160045260246000fd5b6040805190810167ffffffffffffffff811182821017156112865761128661124d565b60405290565b604051610100810167ffffffffffffffff811182821017156112865761128661124d565b600082601f8301126112c157600080fd5b6112c9611263565b8060408401858111156112db57600080fd5b845b818110156112f55780358452602093840193016112dd565b509095945050505050565b6000806080838503121561131357600080fd5b61131d84846112b0565b915061132c84604085016112b0565b90509250929050565b6000806040838503121561134857600080fd5b82356113538161121b565b915060208301356113638161121b565b809150509250929050565b60006020828403121561138057600080fd5b81356001600160a01b038116811461124657600080fd5b6000602082840312156113a957600080fd5b5035919050565b815160808201908260005b60038110156113dc57825115158252602092830192909101906001016113bb565b5050506020830151606083015292915050565b8060005b60028110156114125781518452602093840193909101906001016113f3565b50505050565b6040810161142682846113ef565b92915050565b634e487b7160e01b600052603260045260246000fd5b60c0810161145082876113ef565b61145d60408301866113ef565b921515608082015260a0015292915050565b60006020828403121561148157600080fd5b81516112468161121b565b600082601f83011261149d57600080fd5b6114a561128c565b806101008401858111156114b857600080fd5b845b818110156112f55780516114cd8161121b565b8452602093840193016114ba565b600061010082840312156114ee57600080fd5b611246838361148c565b60006001820161150a5761150a6111cb565b5060010190565b8060005b6002811015611412578154845260209093019260019182019101611515565b606081016115428285611511565b82151560408301529392505050565b600082601f83011261156257600080fd5b61156a61128c565b8061010084018581111561157d57600080fd5b845b818110156112f557805184526020938401930161157f565b600061032082840312156115aa57600080fd5b6040516080810181811067ffffffffffffffff821117156115cd576115cd61124d565b60405282516115db8161121b565b81526115ea846020850161148c565b60208201526115fd846101208501611551565b6040820152611610846102208501611551565b60608201529392505050565b60a0810161162a82866113ef565b6116376040830185611511565b8215156080830152949350505050565b6000806060838503121561165a57600080fd5b82516116658161121b565b91506020603f8401851361167857600080fd5b611680611263565b80606086018781111561169257600080fd5b8387015b818110156116ad5780518452928401928401611696565b509497909650945050505050565b600060208083528351808285015260005b818110156116e8578581018301518582016040015282016116cc565b818111156116fa576000604083870101525b50601f01601f191692909201604001939250505056fea2646970667358221220fed4593a52e286b3e5754f99022b17c4645cde6ad1feec5ab70c87e4f67fc73864736f6c634300080e0033608060405234801561001057600080fd5b5060405161186e38038061186e83398101604081905261002f91610054565b600380546001600160a01b0319166001600160a01b0392909216919091179055610084565b60006020828403121561006657600080fd5b81516001600160a01b038116811461007d57600080fd5b9392505050565b6117db806100936000396000f3fe608060405234801561001057600080fd5b506004361061009e5760003560e01c80637ae2b5c7116100665780637ae2b5c714610129578063ac411ce61461013c578063bac351191461014f578063c03c300314610162578063ee0b07e01461017557600080fd5b80631b5ac4b5146100a35780636c1b5443146100c95780636d5433e6146100d25780636d572500146100e557806371cc5ad114610108575b600080fd5b6100b66100b136600461144e565b610188565b6040519081526020015b60405180910390f35b6100b660005481565b6100b66100e0366004611467565b6101a5565b6100f86100f3366004611549565b6101bb565b60405190151581526020016100c0565b61011b610116366004611598565b610afc565b6040516100c09291906115cd565b6100b6610137366004611467565b610c73565b6100f861014a366004611598565b610c83565b6100b661015d36600461144e565b6113e1565b6100b661017036600461144e565b6113f7565b6100b661018336600461144e565b611423565b6000808212156101a15761019b8261161d565b92915050565b5090565b60008183106101b557508161019b565b50919050565b600354845160208601516040516303fdddf360e31b8152600481019290925260248201526000918691869186918691831515916001600160a01b0390911690631feeef98906044016040805180830381865afa15801561021f573d6000803e3d6000fd5b505050506040513d601f19601f820116820180604052508101906102439190611639565b602001511515146102815760405162461bcd60e51b815260206004820152600360248201526206e79760ec1b60448201526064015b60405180910390fd5b8251845114158061029a57506020808401519085015114155b6102cb5760405162461bcd60e51b8152602060048201526002602482015261073760f41b6044820152606401610278565b600354835160208501516040516303fdddf360e31b8152600481019290925260248201526001600160a01b0390911690631feeef98906044016040805180830381865afa158015610320573d6000803e3d6000fd5b505050506040513d601f19601f820116820180604052508101906103449190611639565b51156103fd57600354835160208501516040516303fdddf360e31b815260048101929092526024820152831515916001600160a01b031690631feeef98906044016040805180830381865afa1580156103a1573d6000803e3d6000fd5b505050506040513d601f19601f820116820180604052508101906103c59190611639565b602001511515036103fd5760405162461bcd60e51b8152602060048201526002602482015261333360f11b6044820152606401610278565b8351835161040b919061168f565b60015560208085015190840151610422919061168f565b60025560006104318585610c83565b9050806104665760405162461bcd60e51b81526020600482015260036024820152623234b960e91b6044820152606401610278565b600354855160208701516040516303fdddf360e31b8152600481019290925260248201526001600160a01b0390911690631feeef98906044016040805180830381865afa1580156104bb573d6000803e3d6000fd5b505050506040513d601f19601f820116820180604052508101906104df9190611639565b516005036108825760208501511580156104fa575084516004145b801561057857506003546040516303fdddf360e31b8152600480820152600060248201526001600160a01b0390911690631feeef98906044016040805180830381865afa15801561054f573d6000803e3d6000fd5b505050506040513d601f19601f820116820180604052508101906105739190611639565b516005145b80156106a957506020840151158015610592575083516006145b801561061157506003546040516303fdddf360e31b815260076004820152600060248201526001600160a01b0390911690631feeef98906044016040805180830381865afa1580156105e8573d6000803e3d6000fd5b505050506040513d601f19601f8201168201806040525081019061060c9190611639565b516002145b806106a95750602084015115801561062a575083516002145b80156106a957506003546040516303fdddf360e31b815260006004820181905260248201526001600160a01b0390911690631feeef98906044016040805180830381865afa158015610680573d6000803e3d6000fd5b505050506040513d601f19601f820116820180604052508101906106a49190611639565b516002145b806108785750602085015160071480156106c4575084516003145b80156107435750600380546040516303fdddf360e31b81526004810192909252600760248301526001600160a01b031690631feeef98906044016040805180830381865afa15801561071a573d6000803e3d6000fd5b505050506040513d601f19601f8201168201806040525081019061073e9190611639565b516005145b801561087857506020840151600114801561075f575083516007145b80156107de57506003546040516303fdddf360e31b815260076004820181905260248201526001600160a01b0390911690631feeef98906044016040805180830381865afa1580156107b5573d6000803e3d6000fd5b505050506040513d601f19601f820116820180604052508101906107d99190611639565b516002145b806108785750602084015160051480156107f9575083516002145b801561087857506003546040516303fdddf360e31b815260006004820152600760248201526001600160a01b0390911690631feeef98906044016040805180830381865afa15801561084f573d6000803e3d6000fd5b505050506040513d601f19601f820116820180604052508101906108739190611639565b516002145b1561088257600291505b600354855160208701516040516303fdddf360e31b8152600481019290925260248201526001600160a01b0390911690631feeef98906044016040805180830381865afa1580156108d7573d6000803e3d6000fd5b505050506040513d601f19601f820116820180604052508101906108fb9190611639565b51600314610aec57600354855160208701516040516303fdddf360e31b8152600481019290925260248201526001600160a01b0390911690631feeef98906044016040805180830381865afa158015610958573d6000803e3d6000fd5b505050506040513d601f19601f8201168201806040525081019061097c9190611639565b51600103610a5257600083156109d55760208086015190870151116109bd5760405162461bcd60e51b81526020600482015260006024820152604401610278565b60208601516006036109d1575060016109d5565b5060005b83610a23576020808601519087015110610a0b5760405162461bcd60e51b81526020600482015260006024820152604401610278565b6020860151600103610a1f57506001610a23565b5060005b60208087015190860151610a3a916100b19161168f565b6002148015610a465750805b15610a5057600292505b505b610a5d600154610188565b8210158015610a765750610a72600254610188565b8210155b610a9c5760405162461bcd60e51b81526020600482015260006024820152604401610278565b6000610aa6611430565b610ab08787610afc565b90925090508115610ae95760405162461bcd60e51b81526020600482015260036024820152626f627360e81b6044820152606401610278565b50505b5060019998505050505050505050565b6000610b06611430565b83518351600091610b169161168f565b60208087015190860151919250600091610b30919061168f565b90506000610b3d836113f7565b90506000610b4a836113f7565b885160208a015160019850919250905b885182141580610b6e575060208901518114155b15610c6657610b8061015d85846116ce565b9150610b8f61015d84836116ce565b6003546040516303fdddf360e31b815260048101859052602481018390529192506001600160a01b031690631feeef98906044016040805180830381865afa158015610bdf573d6000803e3d6000fd5b505050506040513d601f19601f82011682018060405250810190610c039190611639565b5115801590610c215750885182141580610c21575060208901518114155b15610c4657600197506040518060400160405280838152602001828152509650610c66565b600097506040518060400160405280838152602001828152509650610b5a565b5050505050509250929050565b60008183116101b557508161019b565b815181516000918291610c96919061168f565b60208086015190850151919250600091610cb0919061168f565b90508115801590610cbf575080155b15610dc557600354855160208701516040516303fdddf360e31b8152600481019290925260248201526001600160a01b0390911690638f7daf0f908290631feeef98906044016040805180830381865afa158015610d21573d6000803e3d6000fd5b505050506040513d601f19601f82011682018060405250810190610d459190611639565b5160405160e083901b6001600160e01b03191681526004810191909152602401608060405180830381865afa158015610d82573d6000803e3d6000fd5b505050506040513d601f19601f82011682018060405250810190610da6919061170f565b5160005b6020020151610dbc57600092506113d9565b600192506113d9565b8015801590610dd2575081155b15610ec157600354855160208701516040516303fdddf360e31b8152600481019290925260248201526001600160a01b0390911690638f7daf0f908290631feeef98906044016040805180830381865afa158015610e34573d6000803e3d6000fd5b505050506040513d601f19601f82011682018060405250810190610e589190611639565b5160405160e083901b6001600160e01b03191681526004810191909152602401608060405180830381865afa158015610e95573d6000803e3d6000fd5b505050506040513d601f19601f82011682018060405250810190610eb9919061170f565b516001610daa565b8115801590610edf5750610ed481610188565b610edd83610188565b145b156112ff57600354855160208701516040516303fdddf360e31b8152600481019290925260248201526001600160a01b0390911690631feeef98906044016040805180830381865afa158015610f39573d6000803e3d6000fd5b505050506040513d601f19601f82011682018060405250810190610f5d9190611639565b516001148015610fe55750600354845160208601516040516303fdddf360e31b8152600481019290925260248201526001600160a01b0390911690631feeef98906044016040805180830381865afa158015610fbd573d6000803e3d6000fd5b505050506040513d601f19601f82011682018060405250810190610fe19190611639565b5115155b8015610ff95750610ff582610188565b6001145b1561100757600192506113d9565b600354855160208701516040516303fdddf360e31b8152600481019290925260248201526001600160a01b0390911690638f7daf0f908290631feeef98906044016040805180830381865afa158015611064573d6000803e3d6000fd5b505050506040513d601f19601f820116820180604052508101906110889190611639565b5160405160e083901b6001600160e01b03191681526004810191909152602401608060405180830381865afa1580156110c5573d6000803e3d6000fd5b505050506040513d601f19601f820116820180604052508101906110e9919061170f565b51604001511580156111755750600354855160208701516040516303fdddf360e31b8152600481019290925260248201526001600160a01b0390911690631feeef98906044016040805180830381865afa15801561114b573d6000803e3d6000fd5b505050506040513d601f19601f8201168201806040525081019061116f9190611639565b51600114155b1561118357600092506113d9565b600354855160208701516040516303fdddf360e31b8152600481019290925260248201526001600160a01b0390911690638f7daf0f908290631feeef98906044016040805180830381865afa1580156111e0573d6000803e3d6000fd5b505050506040513d601f19601f820116820180604052508101906112049190611639565b5160405160e083901b6001600160e01b03191681526004810191909152602401608060405180830381865afa158015611241573d6000803e3d6000fd5b505050506040513d601f19601f82011682018060405250810190611265919061170f565b516040015180156112f05750600354855160208701516040516303fdddf360e31b8152600481019290925260248201526001600160a01b0390911690631feeef98906044016040805180830381865afa1580156112c6573d6000803e3d6000fd5b505050506040513d601f19601f820116820180604052508101906112ea9190611639565b51600114155b156112fa57600192505b6113d9565b61130882610188565b600214801561131f575061131b81610188565b6001145b80611345575061132e82610188565b6001148015611345575061134181610188565b6002145b156113d457600354855160208701516040516303fdddf360e31b8152600481019290925260248201526001600160a01b0390911690631feeef98906044016040805180830381865afa15801561139f573d6000803e3d6000fd5b505050506040513d601f19601f820116820180604052508101906113c39190611639565b51600314610dbc57600092506113d9565b600092505b505092915050565b6000600782136113ef575090565b506007919050565b60008082121561140a5750600019919050565b600082131561141b57506001919050565b506000919050565b600080821261141b575090565b60405180604001604052806002906020820280368337509192915050565b60006020828403121561146057600080fd5b5035919050565b6000806040838503121561147a57600080fd5b50508035926020909101359150565b634e487b7160e01b600052604160045260246000fd5b6040516060810167ffffffffffffffff811182821017156114c2576114c2611489565b60405290565b600082601f8301126114d957600080fd5b6040516040810181811067ffffffffffffffff821117156114fc576114fc611489565b806040525080604084018581111561151357600080fd5b845b8181101561152d578035835260209283019201611515565b509195945050505050565b801515811461154657600080fd5b50565b60008060008060c0858703121561155f57600080fd5b61156986866114c8565b935061157886604087016114c8565b9250608085013561158881611538565b9396929550929360a00135925050565b600080608083850312156115ab57600080fd5b6115b584846114c8565b91506115c484604085016114c8565b90509250929050565b82151581526060810160208083018460005b60028110156115fc578151835291830191908301906001016115df565b505050509392505050565b634e487b7160e01b600052601160045260246000fd5b6000600160ff1b820161163257611632611607565b5060000390565b60006040828403121561164b57600080fd5b6040516040810181811067ffffffffffffffff8211171561166e5761166e611489565b60405282518152602083015161168381611538565b60208201529392505050565b60008083128015600160ff1b8501841216156116ad576116ad611607565b6001600160ff1b03840183138116156116c8576116c8611607565b50500390565b600080821280156001600160ff1b03849003851316156116f0576116f0611607565b600160ff1b839003841281161561170957611709611607565b50500190565b60006080828403121561172157600080fd5b6040516040810181811067ffffffffffffffff8211171561174457611744611489565b604052601f8301841361175657600080fd5b61175e61149f565b80606085018681111561177057600080fd5b855b8181101561179357805161178581611538565b845260209384019301611772565b5090835251602083015250939250505056fea264697066735822122096639db4c1951648343e1033d46c266c5d730368dbda6d6d09bd3535cb3cab8064736f6c634300080e003360806040523480156200001157600080fd5b506040516200246f3803806200246f83398101604081905262000034916200007f565b600080546001600160a01b039384166001600160a01b03199182161790915560018054929093169116179055620000be565b6001600160a01b03811681146200007c57600080fd5b50565b600080604083850312156200009357600080fd5b8251620000a08162000066565b6020840151909250620000b38162000066565b809150509250929050565b6123a180620000ce6000396000f3fe608060405234801561001057600080fd5b506004361061004c5760003560e01c806325f12500146100515780632f1d80741461007b57806338afef0b1461009b578063abd9d350146100bb575b600080fd5b61006461005f366004611ed7565b6100de565b604051610072929190611f49565b60405180910390f35b61008e610089366004611f66565b6105e7565b6040516100729190611fc1565b6100ae6100a9366004612024565b610c77565b6040516100729190612041565b6100ce6100c9366004612075565b61178c565b6040519015158152602001610072565b60006100e8611d9c565b6000546040516371cc5ad160e01b81526001600160a01b03909116906371cc5ad19061011a90889088906004016120a3565b606060405180830381865afa158015610137573d6000803e3d6000fd5b505050506040513d601f19601f8201168201806040525081019061015b9190612103565b600154815160208301516040516303fdddf360e31b8152600481019290925260248201529294509092506001600160a01b031690631feeef98906044016040805180830381865afa1580156101b4573d6000803e3d6000fd5b505050506040513d601f19601f820116820180604052508101906101d8919061214f565b511580159061025557506000546040516356208e7360e11b81526001600160a01b039091169063ac411ce69061021490849089906004016120a3565b602060405180830381865afa158015610231573d6000803e3d6000fd5b505050506040513d601f19601f8201168201806040525081019061025591906121a5565b80156103cf57506000546001600160a01b0316631b5ac4b58260016020020151876001602002015161028791906121d8565b6040518263ffffffff1660e01b81526004016102a591815260200190565b602060405180830381865afa1580156102c2573d6000803e3d6000fd5b505050506040513d601f19601f820116820180604052508101906102e69190612217565b600154825160208401516040516303fdddf360e31b8152600481019290925260248201526001600160a01b0390911690638f7daf0f908290631feeef98906044016040805180830381865afa158015610343573d6000803e3d6000fd5b505050506040513d601f19601f82011682018060405250810190610367919061214f565b5160405160e083901b6001600160e01b03191681526004810191909152602401608060405180830381865afa1580156103a4573d6000803e3d6000fd5b505050506040513d601f19601f820116820180604052508101906103c89190612230565b6020015110155b80156105405750600054815186516001600160a01b0390921691631b5ac4b5916103f8916121d8565b6040518263ffffffff1660e01b815260040161041691815260200190565b602060405180830381865afa158015610433573d6000803e3d6000fd5b505050506040513d601f19601f820116820180604052508101906104579190612217565b600154825160208401516040516303fdddf360e31b8152600481019290925260248201526001600160a01b0390911690638f7daf0f908290631feeef98906044016040805180830381865afa1580156104b4573d6000803e3d6000fd5b505050506040513d601f19601f820116820180604052508101906104d8919061214f565b5160405160e083901b6001600160e01b03191681526004810191909152602401608060405180830381865afa158015610515573d6000803e3d6000fd5b505050506040513d601f19601f820116820180604052508101906105399190612230565b6020015110155b80156105cc5750600154815160208301516040516303fdddf360e31b8152600481019290925260248201526001600160a01b0390911690631feeef98906044016040805180830381865afa15801561059c573d6000803e3d6000fd5b505050506040513d601f19601f820116820180604052508101906105c0919061214f565b60200151151583151514155b156105da57600191506105df565b600091505b935093915050565b6105ef611dba565b604081810180516000908190526020868101805160608088018051929092528551600790850181905283518351909501949094528951865188015281518701859052895195518101959095525190930152548551915192516336aa19f360e11b8152600481019290925260248201929092526001600160a01b0390911690636d5433e690604401602060405180830381865afa158015610693573d6000803e3d6000fd5b505050506040513d601f19601f820116820180604052508101906106b79190612217565b6106c29060076122c6565b83516106ce91906122dd565b604082810151608001919091526000548451602086015192516336aa19f360e11b8152600481019190915260248101929092526001600160a01b031690636d5433e690604401602060405180830381865afa158015610731573d6000803e3d6000fd5b505050506040513d601f19601f820116820180604052508101906107559190612217565b6107609060076122c6565b602084015161076f91906122dd565b60608201516080015260005483516020850151604051637ae2b5c760e01b8152600481019290925260248201526001600160a01b0390911690637ae2b5c790604401602060405180830381865afa1580156107ce573d6000803e3d6000fd5b505050506040513d601f19601f820116820180604052508101906107f29190612217565b83516107fe91906122c6565b60408281015160a00191909152600054845160208601519251637ae2b5c760e01b8152600481019190915260248101929092526001600160a01b031690637ae2b5c790604401602060405180830381865afa158015610861573d6000803e3d6000fd5b505050506040513d601f19601f820116820180604052508101906108859190612217565b602084015161089491906122c6565b606082015160a00152600054835160208501516001600160a01b039092169163bac35119916108c2916122f5565b6040518263ffffffff1660e01b81526004016108e091815260200190565b602060405180830381865afa1580156108fd573d6000803e3d6000fd5b505050506040513d601f19601f820116820180604052508101906109219190612217565b604082015160c0015260005483516001600160a01b039091169063ee0b07e09061094c9060076121d8565b602086015161095b91906121d8565b6040518263ffffffff1660e01b815260040161097991815260200190565b602060405180830381865afa158015610996573d6000803e3d6000fd5b505050506040513d601f19601f820116820180604052508101906109ba9190612217565b606082015160c0015260005483516001600160a01b039091169063ee0b07e0906109e59060076121d8565b60208601516109f491906121d8565b6040518263ffffffff1660e01b8152600401610a1291815260200190565b602060405180830381865afa158015610a2f573d6000803e3d6000fd5b505050506040513d601f19601f82011682018060405250810190610a539190612217565b604082015160e00152600054835160208501516001600160a01b039092169163bac3511991610a81916122f5565b6040518263ffffffff1660e01b8152600401610a9f91815260200190565b602060405180830381865afa158015610abc573d6000803e3d6000fd5b505050506040513d601f19601f82011682018060405250810190610ae09190612217565b606082015160e00152610af1611d9c565b60005b6008811015610be757610b4f85604051806040016040528086604001518560088110610b2257610b22612139565b6020020151815260200186606001518560088110610b4257610b42612139565b60200201519052866100de565b84602001518360088110610b6557610b65612139565b92151560209384029190910152908401519092508160088110610b8a57610b8a612139565b602002015115610bd557815160408401518260088110610bac57610bac612139565b6020020152816001602002015183606001518260088110610bcf57610bcf612139565b60200201525b80610bdf81612336565b915050610af4565b5060208201515180610bfd575060208281015101515b80610c0d57506020820151604001515b80610c1d57506020820151606001515b80610c2d57506020820151608001515b80610c3d5750602082015160a001515b80610c4d5750602082015160c001515b80610c5d5750602082015160e001515b15610c6b5760018252610c70565b600082525b5092915050565b610c7f611df5565b6001546001600160a01b03163314610cb75760405162461bcd60e51b8152602060048201526000602482015260440160405180910390fd5b60015460405163915b740d60e01b815283151560048201526000916001600160a01b03169063915b740d906024016040805180830381865afa158015610d01573d6000803e3d6000fd5b505050506040513d601f19601f82011682018060405250810190610d25919061234f565b9050610d2f611df5565b610d37611df5565b600054835160405163bac3511960e01b815260048101919091526001600160a01b039091169063bac3511990602401602060405180830381865afa158015610d83573d6000803e3d6000fd5b505050506040513d601f19601f82011682018060405250810190610da79190612217565b825260005460208401516001600160a01b039091169063bac3511990610dce9060016122f5565b6040518263ffffffff1660e01b8152600401610dec91815260200190565b602060405180830381865afa158015610e09573d6000803e3d6000fd5b505050506040513d601f19601f82011682018060405250810190610e2d9190612217565b815260005483516001600160a01b039091169063bac3511990610e519060016122f5565b6040518263ffffffff1660e01b8152600401610e6f91815260200190565b602060405180830381865afa158015610e8c573d6000803e3d6000fd5b505050506040513d601f19601f82011682018060405250810190610eb09190612217565b82600160200201526000546001600160a01b031663bac3511984600160200201516040518263ffffffff1660e01b8152600401610eef91815260200190565b602060405180830381865afa158015610f0c573d6000803e3d6000fd5b505050506040513d601f19601f82011682018060405250810190610f309190612217565b6020820152600054835160405163bac3511960e01b815260048101919091526001600160a01b039091169063bac3511990602401602060405180830381865afa158015610f81573d6000803e3d6000fd5b505050506040513d601f19601f82011682018060405250810190610fa59190612217565b82600260200201526000546001600160a01b031663ee0b07e0600185816020020151610fd191906121d8565b6040518263ffffffff1660e01b8152600401610fef91815260200190565b602060405180830381865afa15801561100c573d6000803e3d6000fd5b505050506040513d601f19601f820116820180604052508101906110309190612217565b604082015260005483516001600160a01b039091169063ee0b07e090611058906001906121d8565b6040518263ffffffff1660e01b815260040161107691815260200190565b602060405180830381865afa158015611093573d6000803e3d6000fd5b505050506040513d601f19601f820116820180604052508101906110b79190612217565b6060830152600054602084015160405163bac3511960e01b815260048101919091526001600160a01b039091169063bac3511990602401602060405180830381865afa15801561110b573d6000803e3d6000fd5b505050506040513d601f19601f8201168201806040525081019061112f9190612217565b606082015260005483516001600160a01b039091169063bac35119906111569060016122f5565b6040518263ffffffff1660e01b815260040161117491815260200190565b602060405180830381865afa158015611191573d6000803e3d6000fd5b505050506040513d601f19601f820116820180604052508101906111b59190612217565b82600460200201526000546001600160a01b031663ee0b07e06001858160200201516111e191906121d8565b6040518263ffffffff1660e01b81526004016111ff91815260200190565b602060405180830381865afa15801561121c573d6000803e3d6000fd5b505050506040513d601f19601f820116820180604052508101906112409190612217565b608082015260005483516001600160a01b039091169063ee0b07e090611268906001906121d8565b6040518263ffffffff1660e01b815260040161128691815260200190565b602060405180830381865afa1580156112a3573d6000803e3d6000fd5b505050506040513d601f19601f820116820180604052508101906112c79190612217565b82600560200201526000546001600160a01b031663bac3511984600160200201516112f39060016122f5565b6040518263ffffffff1660e01b815260040161131191815260200190565b602060405180830381865afa15801561132e573d6000803e3d6000fd5b505050506040513d601f19601f820116820180604052508101906113529190612217565b60a082015260005483516001600160a01b039091169063ee0b07e09061137a906001906121d8565b6040518263ffffffff1660e01b815260040161139891815260200190565b602060405180830381865afa1580156113b5573d6000803e3d6000fd5b505050506040513d601f19601f820116820180604052508101906113d99190612217565b82600660200201526000546001600160a01b031663ee0b07e060018581602002015161140591906121d8565b6040518263ffffffff1660e01b815260040161142391815260200190565b602060405180830381865afa158015611440573d6000803e3d6000fd5b505050506040513d601f19601f820116820180604052508101906114649190612217565b60c082015260005483516001600160a01b039091169063bac351199061148b9060016122f5565b6040518263ffffffff1660e01b81526004016114a991815260200190565b602060405180830381865afa1580156114c6573d6000803e3d6000fd5b505050506040513d601f19601f820116820180604052508101906114ea9190612217565b82600760200201526000546001600160a01b031663bac3511984600160200201516115169060016122f5565b6040518263ffffffff1660e01b815260040161153491815260200190565b602060405180830381865afa158015611551573d6000803e3d6000fd5b505050506040513d601f19601f820116820180604052508101906115759190612217565b60e082015260005b6008811015611783576001546001600160a01b0316631feeef988483600881106115a9576115a9612139565b60200201518484600881106115c0576115c0612139565b60200201516040516001600160e01b031960e085901b168152600481019290925260248201526044016040805180830381865afa158015611605573d6000803e3d6000fd5b505050506040513d601f19601f82011682018060405250810190611629919061214f565b51158015906116e25750600154861515906001600160a01b0316631feeef9885846008811061165a5761165a612139565b602002015185856008811061167157611671612139565b60200201516040516001600160e01b031960e085901b168152600481019290925260248201526044016040805180830381865afa1580156116b6573d6000803e3d6000fd5b505050506040513d601f19601f820116820180604052508101906116da919061214f565b602001511515145b1561170a5760018582600881106116fb576116fb612139565b91151560209092020152611771565b611753604051806040016040528085846008811061172a5761172a612139565b6020020151815260200184846008811061174657611746612139565b60200201519052876105e7565b5185826008811061176657611766612139565b911515602090920201525b8061177b81612336565b91505061157d565b50505050919050565b6000611796611df5565b60015460405163915b740d60e01b8152851515600482015260009182916001600160a01b039091169063915b740d906024016040805180830381865afa1580156117e4573d6000803e3d6000fd5b505050506040513d601f19601f82011682018060405250810190611808919061234f565b9050611812611dba565b60005b60088110156118525760008260200151826008811061183657611836612139565b911515602090920201528061184a81612336565b915050611815565b5061185d82886105e7565b5180156118675750855b15611d8d5760005b61187983896105e7565b506008811015611d045761188d83896105e7565b6020015181600881106118a2576118a2612139565b602002015115611cd357836118b681612336565b8451909550600091506118c9858b6105e7565b6040015183600881106118de576118de612139565b60200201516118ed91906121d8565b905060008460016020020151611903868c6105e7565b60600151846008811061191857611918612139565b602002015161192791906121d8565b6000805460405163c03c300360e01b81526004810186905292935090916001600160a01b039091169063c03c300390602401602060405180830381865afa158015611976573d6000803e3d6000fd5b505050506040513d601f19601f8201168201806040525081019061199a9190612217565b6000805460405163c03c300360e01b81526004810186905292935090916001600160a01b039091169063c03c300390602401602060405180830381865afa1580156119e9573d6000803e3d6000fd5b505050506040513d601f19601f82011682018060405250810190611a0d9190612217565b87516020890151919250905b611a23898f6105e7565b604001518760088110611a3857611a38612139565b602002015182141580611a6e5750611a50898f6105e7565b606001518760088110611a6557611a65612139565b60200201518114155b15611cc8576000546001600160a01b031663bac35119611a8e86856122f5565b6040518263ffffffff1660e01b8152600401611aac91815260200190565b602060405180830381865afa158015611ac9573d6000803e3d6000fd5b505050506040513d601f19601f82011682018060405250810190611aed9190612217565b6000549092506001600160a01b031663bac35119611b0b85846122f5565b6040518263ffffffff1660e01b8152600401611b2991815260200190565b602060405180830381865afa158015611b46573d6000803e3d6000fd5b505050506040513d601f19601f82011682018060405250810190611b6a9190612217565b9050611b8b6040518060400160405280848152602001838152508f156105e7565b975060005b6008811015611caa5788602001518160088110611baf57611baf612139565b60200201518015611c70575060015460408a01516001600160a01b0390911690631feeef98908360088110611be657611be6612139565b60200201518b606001518460088110611c0157611c01612139565b60200201516040516001600160e01b031960e085901b168152600481019290925260248201526044016040805180830381865afa158015611c46573d6000803e3d6000fd5b505050506040513d601f19601f82011682018060405250810190611c6a919061214f565b51600514155b15611c985760018c8960088110611c8957611c89612139565b91151560209092020152611caa565b80611ca281612336565b915050611b90565b508a8760088110611cbd57611cbd612139565b602002015115611a19575b505050505050611cf2565b6001858260088110611ce757611ce7612139565b911515602090920201525b80611cfc81612336565b91505061186f565b50600283108015611d13575083515b8015611d20575060208401515b8015611d2d575060408401515b8015611d3a575060608401515b8015611d47575060808401515b8015611d54575060a08401515b8015611d61575060c08401515b8015611d6e575060e08401515b15611d80576001945050505050611d96565b6000945050505050611d96565b60019450505050505b92915050565b60405180604001604052806002906020820280368337509192915050565b6040518060800160405280600015158152602001611dd6611df5565b8152602001611de3611df5565b8152602001611df0611df5565b905290565b6040518061010001604052806008906020820280368337509192915050565b634e487b7160e01b600052604160045260246000fd5b6040805190810167ffffffffffffffff81118282101715611e4d57611e4d611e14565b60405290565b6040516060810167ffffffffffffffff81118282101715611e4d57611e4d611e14565b600082601f830112611e8757600080fd5b611e8f611e2a565b806040840185811115611ea157600080fd5b845b81811015611ebb578035845260209384019301611ea3565b509095945050505050565b8015158114611ed457600080fd5b50565b600080600060a08486031215611eec57600080fd5b611ef68585611e76565b9250611f058560408601611e76565b91506080840135611f1581611ec6565b809150509250925092565b8060005b6002811015611f43578151845260209384019390910190600101611f24565b50505050565b821515815260608101611f5f6020830184611f20565b9392505050565b60008060608385031215611f7957600080fd5b611f838484611e76565b91506040830135611f9381611ec6565b809150509250929050565b8060005b6008811015611f43578151845260209384019390910190600101611fa2565b8151151581526020808301516103208301919081840160005b6008811015611ff9578251151582529183019190830190600101611fda565b505050506040830151612010610120840182611f9e565b506060830151610c70610220840182611f9e565b60006020828403121561203657600080fd5b8135611f5f81611ec6565b6101008101818360005b600881101561206c578151151583526020928301929091019060010161204b565b50505092915050565b6000806040838503121561208857600080fd5b823561209381611ec6565b91506020830135611f9381611ec6565b608081016120b18285611f20565b611f5f6040830184611f20565b600082601f8301126120cf57600080fd5b6120d7611e2a565b8060408401858111156120e957600080fd5b845b81811015611ebb5780518452602093840193016120eb565b6000806060838503121561211657600080fd5b825161212181611ec6565b915061213084602085016120be565b90509250929050565b634e487b7160e01b600052603260045260246000fd5b60006040828403121561216157600080fd5b6040516040810181811067ffffffffffffffff8211171561218457612184611e14565b60405282518152602083015161219981611ec6565b60208201529392505050565b6000602082840312156121b757600080fd5b8151611f5f81611ec6565b634e487b7160e01b600052601160045260246000fd5b60008083128015600160ff1b8501841216156121f6576121f66121c2565b6001600160ff1b0384018313811615612211576122116121c2565b50500390565b60006020828403121561222957600080fd5b5051919050565b60006080828403121561224257600080fd5b6040516040810181811067ffffffffffffffff8211171561226557612265611e14565b604052601f8301841361227757600080fd5b61227f611e53565b80606085018681111561229157600080fd5b855b818110156122b45780516122a681611ec6565b845260209384019301612293565b50908352516020830152509392505050565b6000828210156122d8576122d86121c2565b500390565b600082198211156122f0576122f06121c2565b500190565b600080821280156001600160ff1b0384900385131615612317576123176121c2565b600160ff1b8390038412811615612330576123306121c2565b50500190565b600060018201612348576123486121c2565b5060010190565b60006040828403121561236157600080fd5b611f5f83836120be56fea26469706673582212201e1fc897cbc6098153d29c4ab0cec35803b6caff51b849d07032de28b197137764736f6c634300080e0033ec8156718a8372b1db44bb411437d0870f3e3790d4a08526d024ce1b0b668f6b92e85d02570a8092d09a6e3a57665bc3815a2699a4074001bf1ccabf660f5a36",
  "linkReferences": {},
  "deployedLinkReferences": {}
}