{
  "contractName": "ChessBoard",
  "abi": [
    {
      "inputs": [
        {
          "internalType": "address",
          "name": "_player1",
          "type": "address"
        },
        {
          "internalType": "address",
          "name": "_player2",
          "type": "address"
        }
      ],
      "stateMutability": "nonpayable",
      "type": "constructor"
    },
    {
      "inputs": [
        {
          "internalType": "bool",
          "name": "",
          "type": "bool"
        }
      ],
      "name": "KingsFirstmove",
      "outputs": [
        {
          "internalType": "bool",
          "name": "",
          "type": "bool"
        }
      ],
      "stateMutability": "view",
      "type": "function"
    },
    {
      "inputs": [],
      "name": "Movecontroller",
      "outputs": [
        {
          "internalType": "contract MoveController",
          "name": "",
          "type": "address"
        }
      ],
      "stateMutability": "view",
      "type": "function"
    },
    {
      "inputs": [],
      "name": "Movehandler",
      "outputs": [
        {
          "internalType": "contract MoveHandler",
          "name": "",
          "type": "address"
        }
      ],
      "stateMutability": "view",
      "type": "function"
    },
    {
      "inputs": [
        {
          "internalType": "bool",
          "name": "",
          "type": "bool"
        },
        {
          "internalType": "bool",
          "name": "",
          "type": "bool"
        }
      ],
      "name": "TowersFirstmove",
      "outputs": [
        {
          "internalType": "bool",
          "name": "",
          "type": "bool"
        }
      ],
      "stateMutability": "view",
      "type": "function"
    },
    {
      "inputs": [
        {
          "internalType": "bool",
          "name": "",
          "type": "bool"
        }
      ],
      "name": "check",
      "outputs": [
        {
          "internalType": "bool",
          "name": "",
          "type": "bool"
        }
      ],
      "stateMutability": "view",
      "type": "function"
    },
    {
      "inputs": [
        {
          "internalType": "address",
          "name": "",
          "type": "address"
        }
      ],
      "name": "prizes",
      "outputs": [
        {
          "internalType": "uint256",
          "name": "",
          "type": "uint256"
        }
      ],
      "stateMutability": "view",
      "type": "function"
    },
    {
      "inputs": [],
      "name": "totalPrize",
      "outputs": [
        {
          "internalType": "uint256",
          "name": "",
          "type": "uint256"
        }
      ],
      "stateMutability": "view",
      "type": "function"
    },
    {
      "stateMutability": "payable",
      "type": "receive"
    },
    {
      "inputs": [
        {
          "internalType": "uint256[2]",
          "name": "newpos",
          "type": "uint256[2]"
        },
        {
          "internalType": "bool",
          "name": "team",
          "type": "bool"
        }
      ],
      "name": "isNotEvilBox",
      "outputs": [
        {
          "internalType": "bool",
          "name": "res",
          "type": "bool"
        }
      ],
      "stateMutability": "view",
      "type": "function"
    },
    {
      "inputs": [
        {
          "internalType": "bool",
          "name": "team",
          "type": "bool"
        }
      ],
      "name": "getPlayer",
      "outputs": [
        {
          "internalType": "address",
          "name": "_player",
          "type": "address"
        }
      ],
      "stateMutability": "view",
      "type": "function"
    },
    {
      "inputs": [
        {
          "internalType": "address",
          "name": "_player",
          "type": "address"
        }
      ],
      "name": "getTeam",
      "outputs": [
        {
          "internalType": "bool",
          "name": "team",
          "type": "bool"
        }
      ],
      "stateMutability": "view",
      "type": "function"
    },
    {
      "inputs": [
        {
          "internalType": "uint256",
          "name": "pedina",
          "type": "uint256"
        }
      ],
      "name": "getRules",
      "outputs": [
        {
          "components": [
            {
              "internalType": "bool[3]",
              "name": "moves_directions",
              "type": "bool[3]"
            },
            {
              "internalType": "uint256",
              "name": "maxsteps",
              "type": "uint256"
            }
          ],
          "internalType": "struct ChessBoard._Rules",
          "name": "rule",
          "type": "tuple"
        }
      ],
      "stateMutability": "view",
      "type": "function"
    },
    {
      "inputs": [
        {
          "internalType": "uint256",
          "name": "i",
          "type": "uint256"
        },
        {
          "internalType": "uint256",
          "name": "j",
          "type": "uint256"
        }
      ],
      "name": "getBox",
      "outputs": [
        {
          "components": [
            {
              "internalType": "uint256",
              "name": "pedina",
              "type": "uint256"
            },
            {
              "internalType": "bool",
              "name": "color",
              "type": "bool"
            }
          ],
          "internalType": "struct ChessBoard.Box",
          "name": "box",
          "type": "tuple"
        }
      ],
      "stateMutability": "view",
      "type": "function"
    },
    {
      "inputs": [
        {
          "internalType": "bool",
          "name": "team",
          "type": "bool"
        }
      ],
      "name": "getKing",
      "outputs": [
        {
          "internalType": "uint256[2]",
          "name": "pos",
          "type": "uint256[2]"
        }
      ],
      "stateMutability": "view",
      "type": "function"
    },
    {
      "inputs": [
        {
          "internalType": "bool",
          "name": "_player",
          "type": "bool"
        }
      ],
      "name": "getCheck",
      "outputs": [
        {
          "internalType": "bool",
          "name": "res",
          "type": "bool"
        }
      ],
      "stateMutability": "view",
      "type": "function"
    },
    {
      "inputs": [
        {
          "internalType": "uint256[2]",
          "name": "oldpos",
          "type": "uint256[2]"
        },
        {
          "internalType": "uint256[2]",
          "name": "newpos",
          "type": "uint256[2]"
        }
      ],
      "name": "Move",
      "outputs": [
        {
          "internalType": "bool",
          "name": "res",
          "type": "bool"
        }
      ],
      "stateMutability": "nonpayable",
      "type": "function"
    }
  ],
  "bytecode": "0x60806040523480156200001157600080fd5b506040516200a2463803806200a246833981810160405281019062000037919062001f49565b30604051620000469062001dba565b62000052919062001fb5565b604051809103906000f0801580156200006f573d6000803e3d6000fd5b50608a60006101000a81548173ffffffffffffffffffffffffffffffffffffffff021916908373ffffffffffffffffffffffffffffffffffffffff160217905550608a60009054906101000a900473ffffffffffffffffffffffffffffffffffffffff1630604051620000e29062001dc8565b620000ef92919062001fe3565b604051809103906000f0801580156200010c573d6000803e3d6000fd5b50608b60006101000a81548173ffffffffffffffffffffffffffffffffffffffff021916908373ffffffffffffffffffffffffffffffffffffffff1602179055508160086000600115151515815260200190815260200160002060006101000a81548173ffffffffffffffffffffffffffffffffffffffff021916908373ffffffffffffffffffffffffffffffffffffffff16021790555080600860008015151515815260200190815260200160002060006101000a81548173ffffffffffffffffffffffffffffffffffffffff021916908373ffffffffffffffffffffffffffffffffffffffff16021790555081600160006101000a81548173ffffffffffffffffffffffffffffffffffffffff021916908373ffffffffffffffffffffffffffffffffffffffff16021790555060016007600060086000600115151515815260200190815260200160002060009054906101000a900473ffffffffffffffffffffffffffffffffffffffff1673ffffffffffffffffffffffffffffffffffffffff1673ffffffffffffffffffffffffffffffffffffffff16815260200190815260200160002060006101000a81548160ff021916908315150217905550600060076000600860008015151515815260200190815260200160002060009054906101000a900473ffffffffffffffffffffffffffffffffffffffff1673ffffffffffffffffffffffffffffffffffffffff1673ffffffffffffffffffffffffffffffffffffffff16815260200190815260200160002060006101000a81548160ff0219169083151502179055506040518060400160405280600760ff168152602001600360ff16815250600360006007600060086000600115151515815260200190815260200160002060009054906101000a900473ffffffffffffffffffffffffffffffffffffffff1673ffffffffffffffffffffffffffffffffffffffff1673ffffffffffffffffffffffffffffffffffffffff16815260200190815260200160002060009054906101000a900460ff161515151581526020019081526020016000209060026200042292919062001dd6565b506040518060400160405280600060ff168152602001600460ff168152506003600060076000600860008015151515815260200190815260200160002060009054906101000a900473ffffffffffffffffffffffffffffffffffffffff1673ffffffffffffffffffffffffffffffffffffffff1673ffffffffffffffffffffffffffffffffffffffff16815260200190815260200160002060009054906101000a900460ff16151515158152602001908152602001600020906002620004ea92919062001dd6565b506000600660006007600060086000600115151515815260200190815260200160002060009054906101000a900473ffffffffffffffffffffffffffffffffffffffff1673ffffffffffffffffffffffffffffffffffffffff1673ffffffffffffffffffffffffffffffffffffffff16815260200190815260200160002060009054906101000a900460ff1615151515815260200190815260200160002060006101000a81548160ff02191690831515021790555060006006600060076000600860008015151515815260200190815260200160002060009054906101000a900473ffffffffffffffffffffffffffffffffffffffff1673ffffffffffffffffffffffffffffffffffffffff1673ffffffffffffffffffffffffffffffffffffffff16815260200190815260200160002060009054906101000a900460ff1615151515815260200190815260200160002060006101000a81548160ff0219169083151502179055506000600460006007600060086000600115151515815260200190815260200160002060009054906101000a900473ffffffffffffffffffffffffffffffffffffffff1673ffffffffffffffffffffffffffffffffffffffff1673ffffffffffffffffffffffffffffffffffffffff16815260200190815260200160002060009054906101000a900460ff1615151515815260200190815260200160002060006101000a81548160ff02191690831515021790555060006004600060076000600860008015151515815260200190815260200160002060009054906101000a900473ffffffffffffffffffffffffffffffffffffffff1673ffffffffffffffffffffffffffffffffffffffff1673ffffffffffffffffffffffffffffffffffffffff16815260200190815260200160002060009054906101000a900460ff1615151515815260200190815260200160002060006101000a81548160ff0219169083151502179055506000600560006007600060086000600115151515815260200190815260200160002060009054906101000a900473ffffffffffffffffffffffffffffffffffffffff1673ffffffffffffffffffffffffffffffffffffffff1673ffffffffffffffffffffffffffffffffffffffff16815260200190815260200160002060009054906101000a900460ff1615151515815260200190815260200160002060008015151515815260200190815260200160002060006101000a81548160ff0219169083151502179055506000600560006007600060086000600115151515815260200190815260200160002060009054906101000a900473ffffffffffffffffffffffffffffffffffffffff1673ffffffffffffffffffffffffffffffffffffffff1673ffffffffffffffffffffffffffffffffffffffff16815260200190815260200160002060009054906101000a900460ff161515151581526020019081526020016000206000600115151515815260200190815260200160002060006101000a81548160ff02191690831515021790555060006005600060076000600860008015151515815260200190815260200160002060009054906101000a900473ffffffffffffffffffffffffffffffffffffffff1673ffffffffffffffffffffffffffffffffffffffff1673ffffffffffffffffffffffffffffffffffffffff16815260200190815260200160002060009054906101000a900460ff1615151515815260200190815260200160002060008015151515815260200190815260200160002060006101000a81548160ff02191690831515021790555060006005600060076000600860008015151515815260200190815260200160002060009054906101000a900473ffffffffffffffffffffffffffffffffffffffff1673ffffffffffffffffffffffffffffffffffffffff1673ffffffffffffffffffffffffffffffffffffffff16815260200190815260200160002060009054906101000a900460ff161515151581526020019081526020016000206000600115151515815260200190815260200160002060006101000a81548160ff0219169083151502179055506040518060400160405280604051806060016040528060001515151581526020016000151515158152602001600015151515815250815260200160008152506002600080815260200190815260200160002060008201518160000190600362000b4892919062001e20565b5060208201518160010155905050604051806040016040528060405180606001604052806001151515158152602001600015151515815260200160001515151581525081526020016001815250600260006001815260200190815260200160002060008201518160000190600362000bc292919062001e20565b5060208201518160010155905050604051806040016040528060405180606001604052806001151515158152602001600115151515815260200160001515151581525081526020016008815250600260006002815260200190815260200160002060008201518160000190600362000c3c92919062001e20565b5060208201518160010155905050604051806040016040528060405180606001604052806000151515158152602001600015151515815260200160001515151581525081526020016004815250600260006003815260200190815260200160002060008201518160000190600362000cb692919062001e20565b5060208201518160010155905050604051806040016040528060405180606001604052806000151515158152602001600015151515815260200160011515151581525081526020016008815250600260006004815260200190815260200160002060008201518160000190600362000d3092919062001e20565b5060208201518160010155905050604051806040016040528060405180606001604052806001151515158152602001600115151515815260200160011515151581525081526020016001815250600260006005815260200190815260200160002060008201518160000190600362000daa92919062001e20565b5060208201518160010155905050604051806040016040528060405180606001604052806001151515158152602001600115151515815260200160011515151581525081526020016008815250600260006006815260200190815260200160002060008201518160000190600362000e2492919062001e20565b506020820151816001015590505060405180604001604052806002815260200160001515815250600a60006008811062000e635762000e6262002010565b5b6010020160006008811062000e7d5762000e7c62002010565b5b600202016000820151816000015560208201518160010160006101000a81548160ff02191690831515021790555090505060405180604001604052806003815260200160001515815250600a60016008811062000edf5762000ede62002010565b5b6010020160006008811062000ef95762000ef862002010565b5b600202016000820151816000015560208201518160010160006101000a81548160ff02191690831515021790555090505060405180604001604052806004815260200160001515815250600a60026008811062000f5b5762000f5a62002010565b5b6010020160006008811062000f755762000f7462002010565b5b600202016000820151816000015560208201518160010160006101000a81548160ff02191690831515021790555090505060405180604001604052806006815260200160001515815250600a60036008811062000fd75762000fd662002010565b5b6010020160006008811062000ff15762000ff062002010565b5b600202016000820151816000015560208201518160010160006101000a81548160ff02191690831515021790555090505060405180604001604052806005815260200160001515815250600a60046008811062001053576200105262002010565b5b601002016000600881106200106d576200106c62002010565b5b600202016000820151816000015560208201518160010160006101000a81548160ff02191690831515021790555090505060405180604001604052806004815260200160001515815250600a600560088110620010cf57620010ce62002010565b5b60100201600060088110620010e957620010e862002010565b5b600202016000820151816000015560208201518160010160006101000a81548160ff02191690831515021790555090505060405180604001604052806003815260200160001515815250600a6006600881106200114b576200114a62002010565b5b6010020160006008811062001165576200116462002010565b5b600202016000820151816000015560208201518160010160006101000a81548160ff02191690831515021790555090505060405180604001604052806002815260200160001515815250600a600760088110620011c757620011c662002010565b5b60100201600060088110620011e157620011e062002010565b5b600202016000820151816000015560208201518160010160006101000a81548160ff02191690831515021790555090505060405180604001604052806001815260200160001515815250600a60006008811062001243576200124262002010565b5b601002016001600881106200125d576200125c62002010565b5b600202016000820151816000015560208201518160010160006101000a81548160ff02191690831515021790555090505060405180604001604052806001815260200160001515815250600a600160088110620012bf57620012be62002010565b5b60100201600160088110620012d957620012d862002010565b5b600202016000820151816000015560208201518160010160006101000a81548160ff02191690831515021790555090505060405180604001604052806001815260200160001515815250600a6002600881106200133b576200133a62002010565b5b6010020160016008811062001355576200135462002010565b5b600202016000820151816000015560208201518160010160006101000a81548160ff02191690831515021790555090505060405180604001604052806001815260200160001515815250600a600360088110620013b757620013b662002010565b5b60100201600160088110620013d157620013d062002010565b5b600202016000820151816000015560208201518160010160006101000a81548160ff02191690831515021790555090505060405180604001604052806001815260200160001515815250600a60046008811062001433576200143262002010565b5b601002016001600881106200144d576200144c62002010565b5b600202016000820151816000015560208201518160010160006101000a81548160ff02191690831515021790555090505060405180604001604052806001815260200160001515815250600a600560088110620014af57620014ae62002010565b5b60100201600160088110620014c957620014c862002010565b5b600202016000820151816000015560208201518160010160006101000a81548160ff02191690831515021790555090505060405180604001604052806001815260200160001515815250600a6006600881106200152b576200152a62002010565b5b6010020160016008811062001545576200154462002010565b5b600202016000820151816000015560208201518160010160006101000a81548160ff02191690831515021790555090505060405180604001604052806001815260200160001515815250600a600760088110620015a757620015a662002010565b5b60100201600160088110620015c157620015c062002010565b5b600202016000820151816000015560208201518160010160006101000a81548160ff02191690831515021790555090505060405180604001604052806001815260200160011515815250600a60006008811062001623576200162262002010565b5b601002016006600881106200163d576200163c62002010565b5b600202016000820151816000015560208201518160010160006101000a81548160ff02191690831515021790555090505060405180604001604052806001815260200160011515815250600a6001600881106200169f576200169e62002010565b5b60100201600660088110620016b957620016b862002010565b5b600202016000820151816000015560208201518160010160006101000a81548160ff02191690831515021790555090505060405180604001604052806001815260200160011515815250600a6002600881106200171b576200171a62002010565b5b6010020160066008811062001735576200173462002010565b5b600202016000820151816000015560208201518160010160006101000a81548160ff02191690831515021790555090505060405180604001604052806001815260200160011515815250600a60036008811062001797576200179662002010565b5b60100201600660088110620017b157620017b062002010565b5b600202016000820151816000015560208201518160010160006101000a81548160ff02191690831515021790555090505060405180604001604052806001815260200160011515815250600a60046008811062001813576200181262002010565b5b601002016006600881106200182d576200182c62002010565b5b600202016000820151816000015560208201518160010160006101000a81548160ff02191690831515021790555090505060405180604001604052806001815260200160011515815250600a6005600881106200188f576200188e62002010565b5b60100201600660088110620018a957620018a862002010565b5b600202016000820151816000015560208201518160010160006101000a81548160ff02191690831515021790555090505060405180604001604052806001815260200160011515815250600a6006600881106200190b576200190a62002010565b5b6010020160066008811062001925576200192462002010565b5b600202016000820151816000015560208201518160010160006101000a81548160ff02191690831515021790555090505060405180604001604052806001815260200160011515815250600a60076008811062001987576200198662002010565b5b60100201600660088110620019a157620019a062002010565b5b600202016000820151816000015560208201518160010160006101000a81548160ff02191690831515021790555090505060405180604001604052806002815260200160011515815250600a60006008811062001a035762001a0262002010565b5b6010020160076008811062001a1d5762001a1c62002010565b5b600202016000820151816000015560208201518160010160006101000a81548160ff02191690831515021790555090505060405180604001604052806003815260200160011515815250600a60016008811062001a7f5762001a7e62002010565b5b6010020160076008811062001a995762001a9862002010565b5b600202016000820151816000015560208201518160010160006101000a81548160ff02191690831515021790555090505060405180604001604052806004815260200160011515815250600a60026008811062001afb5762001afa62002010565b5b6010020160076008811062001b155762001b1462002010565b5b600202016000820151816000015560208201518160010160006101000a81548160ff02191690831515021790555090505060405180604001604052806005815260200160011515815250600a60036008811062001b775762001b7662002010565b5b6010020160076008811062001b915762001b9062002010565b5b600202016000820151816000015560208201518160010160006101000a81548160ff02191690831515021790555090505060405180604001604052806006815260200160011515815250600a60046008811062001bf35762001bf262002010565b5b6010020160076008811062001c0d5762001c0c62002010565b5b600202016000820151816000015560208201518160010160006101000a81548160ff02191690831515021790555090505060405180604001604052806004815260200160011515815250600a60056008811062001c6f5762001c6e62002010565b5b6010020160076008811062001c895762001c8862002010565b5b600202016000820151816000015560208201518160010160006101000a81548160ff02191690831515021790555090505060405180604001604052806003815260200160011515815250600a60066008811062001ceb5762001cea62002010565b5b6010020160076008811062001d055762001d0462002010565b5b600202016000820151816000015560208201518160010160006101000a81548160ff02191690831515021790555090505060405180604001604052806002815260200160011515815250600a60076008811062001d675762001d6662002010565b5b6010020160076008811062001d815762001d8062002010565b5b600202016000820151816000015560208201518160010160006101000a81548160ff02191690831515021790555090505050506200203f565b612b3080620033c083390190565b6143568062005ef083390190565b826002810192821562001e0d579160200282015b8281111562001e0c578251829060ff1690559160200191906001019062001dea565b5b50905062001e1c919062001ec0565b5090565b826003601f0160209004810192821562001ead5791602002820160005b8382111562001e7c57835183826101000a81548160ff021916908315150217905550926020019260010160208160000104928301926001030262001e3d565b801562001eab5782816101000a81549060ff021916905560010160208160000104928301926001030262001e7c565b505b50905062001ebc919062001ec0565b5090565b5b8082111562001edb57600081600090555060010162001ec1565b5090565b600080fd5b600073ffffffffffffffffffffffffffffffffffffffff82169050919050565b600062001f118262001ee4565b9050919050565b62001f238162001f04565b811462001f2f57600080fd5b50565b60008151905062001f438162001f18565b92915050565b6000806040838503121562001f635762001f6262001edf565b5b600062001f738582860162001f32565b925050602062001f868582860162001f32565b9150509250929050565b600062001f9d8262001ee4565b9050919050565b62001faf8162001f90565b82525050565b600060208201905062001fcc600083018462001fa4565b92915050565b62001fdd8162001f04565b82525050565b600060408201905062001ffa600083018562001fd2565b62002009602083018462001fa4565b9392505050565b7f4e487b7100000000000000000000000000000000000000000000000000000000600052603260045260246000fd5b611371806200204f6000396000f3fe6080604052600436106100ec5760003560e01c8063915b740d1161008a578063c33b077811610059578063c33b0778146104f3578063dbdfbae714610530578063fd5fcef11461055b578063fe9ba8ec1461058657610261565b8063915b740d146103ff578063b35d11bf1461043c578063b99e131b14610479578063bbc2b0ce146104b657610261565b80637ac8802e116100c65780637ac8802e1461031d57806382b1ad501461035a57806387529f0f146103855780638f7daf0f146103c257610261565b80631feeef9814610266578063241c5912146102a35780632f553dec146102e057610261565b366102615760086000600115151515815260200190815260200160002060009054906101000a900473ffffffffffffffffffffffffffffffffffffffff1673ffffffffffffffffffffffffffffffffffffffff163373ffffffffffffffffffffffffffffffffffffffff1614806101c55750600860008015151515815260200190815260200160002060009054906101000a900473ffffffffffffffffffffffffffffffffffffffff1673ffffffffffffffffffffffffffffffffffffffff163373ffffffffffffffffffffffffffffffffffffffff16145b610204576040517f08c379a00000000000000000000000000000000000000000000000000000000081526004016101fb90610a67565b60405180910390fd5b34600960003373ffffffffffffffffffffffffffffffffffffffff1673ffffffffffffffffffffffffffffffffffffffff16815260200190815260200160002081905550346000808282546102599190610ac0565b925050819055005b600080fd5b34801561027257600080fd5b5061028d60048036038101906102889190610b51565b6105c3565b60405161029a9190610bea565b60405180910390f35b3480156102af57600080fd5b506102ca60048036038101906102c59190610c31565b610631565b6040516102d79190610c6d565b60405180910390f35b3480156102ec57600080fd5b5061030760048036038101906103029190610dcf565b610651565b6040516103149190610c6d565b60405180910390f35b34801561032957600080fd5b50610344600480360381019061033f9190610e0f565b610663565b6040516103519190610c6d565b60405180910390f35b34801561036657600080fd5b5061036f610692565b60405161037c9190610e5e565b60405180910390f35b34801561039157600080fd5b506103ac60048036038101906103a79190610ed7565b610698565b6040516103b99190610c6d565b60405180910390f35b3480156103ce57600080fd5b506103e960048036038101906103e49190610f04565b6106ee565b6040516103f69190610ffc565b60405180910390f35b34801561040b57600080fd5b5061042660048036038101906104219190610c31565b61078f565b60405161043391906110b3565b60405180910390f35b34801561044857600080fd5b50610463600480360381019061045e9190610ed7565b6107f1565b6040516104709190610e5e565b60405180910390f35b34801561048557600080fd5b506104a0600480360381019061049b9190610c31565b610809565b6040516104ad91906110dd565b60405180910390f35b3480156104c257600080fd5b506104dd60048036038101906104d89190610c31565b61084a565b6040516104ea9190610c6d565b60405180910390f35b3480156104ff57600080fd5b5061051a600480360381019061051591906110f8565b61086a565b6040516105279190610c6d565b60405180910390f35b34801561053c57600080fd5b50610545610936565b6040516105529190611197565b60405180910390f35b34801561056757600080fd5b5061057061095c565b60405161057d91906111d3565b60405180910390f35b34801561059257600080fd5b506105ad60048036038101906105a89190610c31565b610982565b6040516105ba9190610c6d565b60405180910390f35b6105cb6109b0565b600a83600881106105df576105de6111ee565b5b6010020182600881106105f5576105f46111ee565b5b60020201604051806040016040529081600082015481526020016001820160009054906101000a900460ff161515151581525050905092915050565b60066020528060005260406000206000915054906101000a900460ff1681565b60008060009050600191505092915050565b60056020528160005260406000206020528060005260406000206000915091509054906101000a900460ff1681565b60005481565b6000600760008373ffffffffffffffffffffffffffffffffffffffff1673ffffffffffffffffffffffffffffffffffffffff16815260200190815260200160002060009054906101000a900460ff169050919050565b6106f66109cc565b6002600083815260200190815260200160002060405180604001604052908160008201600380602002604051908101604052809291908260038015610775576020028201916000905b82829054906101000a900460ff1615158152602001906001019060208260000104928301926001038202915080841161073f5790505b505050505081526020016001820154815250509050919050565b6107976109ec565b60036000831515151581526020019081526020016000206002806020026040519081016040528092919082600280156107e5576020028201915b8154815260200190600101908083116107d1575b50505050509050919050565b60096020528060005260406000206000915090505481565b6000600860008315151515815260200190815260200160002060009054906101000a900473ffffffffffffffffffffffffffffffffffffffff169050919050565b60046020528060005260406000206000915054906101000a900460ff1681565b6000806108756109ec565b608b60009054906101000a900473ffffffffffffffffffffffffffffffffffffffff1673ffffffffffffffffffffffffffffffffffffffff16632f1d807486866040518363ffffffff1660e01b81526004016108d292919061121d565b606060405180830381865afa1580156108ef573d6000803e3d6000fd5b505050506040513d601f19601f8201168201806040525081019061091391906112fb565b809250819350505081610929576001925061092e565b600092505b505092915050565b608b60009054906101000a900473ffffffffffffffffffffffffffffffffffffffff1681565b608a60009054906101000a900473ffffffffffffffffffffffffffffffffffffffff1681565b6000600660008315151515815260200190815260200160002060009054906101000a900460ff169050919050565b6040518060400160405280600081526020016000151581525090565b60405180604001604052806109df610a0e565b8152602001600081525090565b6040518060400160405280600290602082028036833780820191505090505090565b6040518060600160405280600390602082028036833780820191505090505090565b600082825260208201905092915050565b50565b6000610a51600083610a30565b9150610a5c82610a41565b600082019050919050565b60006020820190508181036000830152610a8081610a44565b9050919050565b6000819050919050565b7f4e487b7100000000000000000000000000000000000000000000000000000000600052601160045260246000fd5b6000610acb82610a87565b9150610ad683610a87565b9250827fffffffffffffffffffffffffffffffffffffffffffffffffffffffffffffffff03821115610b0b57610b0a610a91565b5b828201905092915050565b6000604051905090565b600080fd5b610b2e81610a87565b8114610b3957600080fd5b50565b600081359050610b4b81610b25565b92915050565b60008060408385031215610b6857610b67610b20565b5b6000610b7685828601610b3c565b9250506020610b8785828601610b3c565b9150509250929050565b610b9a81610a87565b82525050565b60008115159050919050565b610bb581610ba0565b82525050565b604082016000820151610bd16000850182610b91565b506020820151610be46020850182610bac565b50505050565b6000604082019050610bff6000830184610bbb565b92915050565b610c0e81610ba0565b8114610c1957600080fd5b50565b600081359050610c2b81610c05565b92915050565b600060208284031215610c4757610c46610b20565b5b6000610c5584828501610c1c565b91505092915050565b610c6781610ba0565b82525050565b6000602082019050610c826000830184610c5e565b92915050565b600080fd5b6000601f19601f8301169050919050565b7f4e487b7100000000000000000000000000000000000000000000000000000000600052604160045260246000fd5b610cd682610c8d565b810181811067ffffffffffffffff82111715610cf557610cf4610c9e565b5b80604052505050565b6000610d08610b16565b9050610d148282610ccd565b919050565b600067ffffffffffffffff821115610d3457610d33610c9e565b5b602082029050919050565b600080fd5b6000610d57610d5284610d19565b610cfe565b90508060208402830185811115610d7157610d70610d3f565b5b835b81811015610d9a5780610d868882610b3c565b845260208401935050602081019050610d73565b5050509392505050565b600082601f830112610db957610db8610c88565b5b6002610dc6848285610d44565b91505092915050565b60008060808385031215610de657610de5610b20565b5b6000610df485828601610da4565b9250506040610e0585828601610da4565b9150509250929050565b60008060408385031215610e2657610e25610b20565b5b6000610e3485828601610c1c565b9250506020610e4585828601610c1c565b9150509250929050565b610e5881610a87565b82525050565b6000602082019050610e736000830184610e4f565b92915050565b600073ffffffffffffffffffffffffffffffffffffffff82169050919050565b6000610ea482610e79565b9050919050565b610eb481610e99565b8114610ebf57600080fd5b50565b600081359050610ed181610eab565b92915050565b600060208284031215610eed57610eec610b20565b5b6000610efb84828501610ec2565b91505092915050565b600060208284031215610f1a57610f19610b20565b5b6000610f2884828501610b3c565b91505092915050565b600060039050919050565b600081905092915050565b6000819050919050565b6000610f5d8383610bac565b60208301905092915050565b6000602082019050919050565b610f7f81610f31565b610f898184610f3c565b9250610f9482610f47565b8060005b83811015610fc5578151610fac8782610f51565b9650610fb783610f69565b925050600181019050610f98565b505050505050565b608082016000820151610fe36000850182610f76565b506020820151610ff66060850182610b91565b50505050565b60006080820190506110116000830184610fcd565b92915050565b600060029050919050565b600081905092915050565b6000819050919050565b60006110438383610b91565b60208301905092915050565b6000602082019050919050565b61106581611017565b61106f8184611022565b925061107a8261102d565b8060005b838110156110ab5781516110928782611037565b965061109d8361104f565b92505060018101905061107e565b505050505050565b60006040820190506110c8600083018461105c565b92915050565b6110d781610e99565b82525050565b60006020820190506110f260008301846110ce565b92915050565b6000806060838503121561110f5761110e610b20565b5b600061111d85828601610da4565b925050604061112e85828601610c1c565b9150509250929050565b6000819050919050565b600061115d61115861115384610e79565b611138565b610e79565b9050919050565b600061116f82611142565b9050919050565b600061118182611164565b9050919050565b61119181611176565b82525050565b60006020820190506111ac6000830184611188565b92915050565b60006111bd82611164565b9050919050565b6111cd816111b2565b82525050565b60006020820190506111e860008301846111c4565b92915050565b7f4e487b7100000000000000000000000000000000000000000000000000000000600052603260045260246000fd5b6000606082019050611232600083018561105c565b61123f6040830184610c5e565b9392505050565b60008151905061125581610c05565b92915050565b60008151905061126a81610b25565b92915050565b600061128361127e84610d19565b610cfe565b9050806020840283018581111561129d5761129c610d3f565b5b835b818110156112c657806112b2888261125b565b84526020840193505060208101905061129f565b5050509392505050565b600082601f8301126112e5576112e4610c88565b5b60026112f2848285611270565b91505092915050565b6000806060838503121561131257611311610b20565b5b600061132085828601611246565b9250506020611331858286016112d0565b915050925092905056fea2646970667358221220a6401bd5c5980399831341b46e5cb10ae366673ce5334d9d5a766995b9abd67564736f6c634300080d003360806040523480156200001157600080fd5b5060405162002b3038038062002b308339818101604052810190620000379190620000e9565b80600360006101000a81548173ffffffffffffffffffffffffffffffffffffffff021916908373ffffffffffffffffffffffffffffffffffffffff160217905550506200011b565b600080fd5b600073ffffffffffffffffffffffffffffffffffffffff82169050919050565b6000620000b18262000084565b9050919050565b620000c381620000a4565b8114620000cf57600080fd5b50565b600081519050620000e381620000b8565b92915050565b6000602082840312156200010257620001016200007f565b5b60006200011284828501620000d2565b91505092915050565b612a05806200012b6000396000f3fe608060405234801561001057600080fd5b506004361061009e5760003560e01c806381fe57861161006657806381fe578614610182578063ac411ce6146101b2578063bac35119146101e2578063c03c300314610212578063ee0b07e0146102425761009e565b80631b5ac4b5146100a357806329aa9cbe146100d35780636c1b5443146101035780636d5725001461012157806371cc5ad114610151575b600080fd5b6100bd60048036038101906100b89190611fa0565b610272565b6040516100ca9190611fdc565b60405180910390f35b6100ed60048036038101906100e89190611ff7565b610296565b6040516100fa9190611fdc565b60405180910390f35b61010b6102b0565b6040516101189190612050565b60405180910390f35b61013b60048036038101906101369190612216565b6102b6565b604051610148919061228c565b60405180910390f35b61016b600480360381019061016691906122a7565b61103a565b604051610179929190612392565b60405180910390f35b61019c60048036038101906101979190611ff7565b611288565b6040516101a99190611fdc565b60405180910390f35b6101cc60048036038101906101c791906122a7565b6112a2565b6040516101d9919061228c565b60405180910390f35b6101fc60048036038101906101f79190611fa0565b611eb5565b6040516102099190611fdc565b60405180910390f35b61022c60048036038101906102279190611fa0565b611ed0565b6040516102399190611fdc565b60405180910390f35b61025c60048036038101906102579190611fa0565b611f1f565b6040516102699190611fdc565b60405180910390f35b60008082121561028d5781610286906123ea565b9050610291565b8190505b919050565b6000818313156102a657816102a8565b805b905092915050565b60005481565b6000848484846001600360009054906101000a900473ffffffffffffffffffffffffffffffffffffffff1673ffffffffffffffffffffffffffffffffffffffff16631feeef98866000600281106103105761030f612432565b5b60200201518760016002811061032957610328612432565b5b60200201516040518363ffffffff1660e01b815260040161034b929190612461565b6040805180830381865afa158015610367573d6000803e3d6000fd5b505050506040513d601f19601f8201168201806040525081019061038b9190612509565b600001510361054a57600081600081905550821561044457836000600281106103b7576103b6612432565b5b6020020151856000600281106103d0576103cf612432565b5b602002015111610415576040517f08c379a000000000000000000000000000000000000000000000000000000000815260040161040c9061256d565b60405180910390fd5b60068560006002811061042b5761042a612432565b5b60200201510361043e5760019050610443565b600090505b5b826104ea578360006002811061045d5761045c612432565b5b60200201518560006002811061047657610475612432565b5b6020020151106104bb576040517f08c379a00000000000000000000000000000000000000000000000000000000081526004016104b29061256d565b60405180910390fd5b6001856000600281106104d1576104d0612432565b5b6020020151036104e457600190506104e9565b600090505b5b60026105308660006002811061050357610502612432565b5b60200201518660006002811061051c5761051b612432565b5b602002015161052b919061258d565b610272565b14801561053a5750805b156105485760026000819055505b505b888860008260006002811061056257610561612432565b5b602002015114801561058c575060048260016002811061058557610584612432565b5b6020020151145b801561063a57506005600360009054906101000a900473ffffffffffffffffffffffffffffffffffffffff1673ffffffffffffffffffffffffffffffffffffffff16631feeef98600060046040518363ffffffff1660e01b81526004016105f49291906126a1565b6040805180830381865afa158015610610573d6000803e3d6000fd5b505050506040513d601f19601f820116820180604052508101906106349190612509565b60000151145b8015610824575060008160006002811061065757610656612432565b5b6020020151148015610681575060068160016002811061067a57610679612432565b5b6020020151145b801561072f57506002600360009054906101000a900473ffffffffffffffffffffffffffffffffffffffff1673ffffffffffffffffffffffffffffffffffffffff16631feeef98600060076040518363ffffffff1660e01b81526004016106e9929190612705565b6040805180830381865afa158015610705573d6000803e3d6000fd5b505050506040513d601f19601f820116820180604052508101906107299190612509565b60000151145b80610823575060008160006002811061074b5761074a612432565b5b6020020151148015610775575060028160016002811061076e5761076d612432565b5b6020020151145b801561082257506002600360009054906101000a900473ffffffffffffffffffffffffffffffffffffffff1673ffffffffffffffffffffffffffffffffffffffff16631feeef986000806040518363ffffffff1660e01b81526004016107dc92919061272e565b6040805180830381865afa1580156107f8573d6000803e3d6000fd5b505050506040513d601f19601f8201168201806040525081019061081c9190612509565b60000151145b5b5b80610b0357506007826000600281106108405761083f612432565b5b602002015114801561086a575060038260016002811061086357610862612432565b5b6020020151145b801561091857506005600360009054906101000a900473ffffffffffffffffffffffffffffffffffffffff1673ffffffffffffffffffffffffffffffffffffffff16631feeef98600760036040518363ffffffff1660e01b81526004016108d2929190612792565b6040805180830381865afa1580156108ee573d6000803e3d6000fd5b505050506040513d601f19601f820116820180604052508101906109129190612509565b60000151145b8015610b02575060078160006002811061093557610934612432565b5b602002015114801561095f575060068160016002811061095857610957612432565b5b6020020151145b8015610a0c57506002600360009054906101000a900473ffffffffffffffffffffffffffffffffffffffff1673ffffffffffffffffffffffffffffffffffffffff16631feeef986007806040518363ffffffff1660e01b81526004016109c69291906127bb565b6040805180830381865afa1580156109e2573d6000803e3d6000fd5b505050506040513d601f19601f82011682018060405250810190610a069190612509565b60000151145b80610b015750600781600060028110610a2857610a27612432565b5b6020020151148015610a525750600281600160028110610a4b57610a4a612432565b5b6020020151145b8015610b0057506002600360009054906101000a900473ffffffffffffffffffffffffffffffffffffffff1673ffffffffffffffffffffffffffffffffffffffff16631feeef98600760006040518363ffffffff1660e01b8152600401610aba9291906127e4565b6040805180830381865afa158015610ad6573d6000803e3d6000fd5b505050506040513d601f19601f82011682018060405250810190610afa9190612509565b60000151145b5b5b5b15610b115760026000819055505b8a8a8a60005482600060028110610b2b57610b2a612432565b5b602002015184600060028110610b4457610b43612432565b5b6020020151141580610b86575082600160028110610b6557610b64612432565b5b602002015184600160028110610b7e57610b7d612432565b5b602002015114155b610bc5576040517f08c379a0000000000000000000000000000000000000000000000000000000008152600401610bbc9061256d565b60405180910390fd5b6000600360009054906101000a900473ffffffffffffffffffffffffffffffffffffffff1673ffffffffffffffffffffffffffffffffffffffff16631feeef9885600060028110610c1957610c18612432565b5b602002015186600160028110610c3257610c31612432565b5b60200201516040518363ffffffff1660e01b8152600401610c54929190612461565b6040805180830381865afa158015610c70573d6000803e3d6000fd5b505050506040513d601f19601f82011682018060405250810190610c949190612509565b6000015114610db457811515600360009054906101000a900473ffffffffffffffffffffffffffffffffffffffff1673ffffffffffffffffffffffffffffffffffffffff16631feeef9885600060028110610cf257610cf1612432565b5b602002015186600160028110610d0b57610d0a612432565b5b60200201516040518363ffffffff1660e01b8152600401610d2d929190612461565b6040805180830381865afa158015610d49573d6000803e3d6000fd5b505050506040513d601f19601f82011682018060405250810190610d6d9190612509565b60200151151503610db3576040517f08c379a0000000000000000000000000000000000000000000000000000000008152600401610daa9061256d565b60405180910390fd5b5b83600060028110610dc857610dc7612432565b5b602002015183600060028110610de157610de0612432565b5b6020020151610df0919061258d565b60018190555083600160028110610e0a57610e09612432565b5b602002015183600160028110610e2357610e22612432565b5b6020020151610e32919061258d565b6002819055506000610e4485856112a2565b905080610e86576040517f08c379a0000000000000000000000000000000000000000000000000000000008152600401610e7d9061256d565b60405180910390fd5b60038060009054906101000a900473ffffffffffffffffffffffffffffffffffffffff1673ffffffffffffffffffffffffffffffffffffffff16631feeef9887600060028110610ed957610ed8612432565b5b602002015188600160028110610ef257610ef1612432565b5b60200201516040518363ffffffff1660e01b8152600401610f14929190612461565b6040805180830381865afa158015610f30573d6000803e3d6000fd5b505050506040513d601f19601f82011682018060405250810190610f549190612509565b600001511461102357610f68600154610272565b60005410158015610f855750610f7f600254610272565b60005410155b610fc4576040517f08c379a0000000000000000000000000000000000000000000000000000000008152600401610fbb9061256d565b60405180910390fd5b6000610fce611f39565b610fd8878761103a565b809250819350505081611020576040517f08c379a00000000000000000000000000000000000000000000000000000000081526004016110179061256d565b60405180910390fd5b50505b60019b505050505050505050505050949350505050565b6000611044611f39565b60008460006002811061105a57611059612432565b5b60200201518460006002811061107357611072612432565b5b6020020151611082919061258d565b905060008560016002811061109a57611099612432565b5b6020020151856001600281106110b3576110b2612432565b5b60200201516110c2919061258d565b905060006110cf83611ed0565b905060006110dc83611ed0565b90506000886000600281106110f4576110f3612432565b5b6020020151905060008960016002811061111157611110612432565b5b60200201519050600197505b838960006002811061113257611131612432565b5b6020020151611141919061258d565b821415806111725750828960016002811061115f5761115e612432565b5b602002015161116e919061258d565b8114155b1561127b578382611183919061280d565b91508281611191919061280d565b90506000600360009054906101000a900473ffffffffffffffffffffffffffffffffffffffff1673ffffffffffffffffffffffffffffffffffffffff16631feeef9884846040518363ffffffff1660e01b81526004016111f2929190612461565b6040805180830381865afa15801561120e573d6000803e3d6000fd5b505050506040513d601f19601f820116820180604052508101906112329190612509565b600001511461125b5760009750604051806040016040528083815260200182815250965061127b565b60019750604051806040016040528083815260200182815250965061111d565b5050505050509250929050565b600081831215611298578161129a565b805b905092915050565b600080836000600281106112b9576112b8612432565b5b6020020151836000600281106112d2576112d1612432565b5b60200201516112e1919061258d565b90506000846001600281106112f9576112f8612432565b5b60200201518460016002811061131257611311612432565b5b6020020151611321919061258d565b9050600082141580156113345750600081145b156114d857600360009054906101000a900473ffffffffffffffffffffffffffffffffffffffff1673ffffffffffffffffffffffffffffffffffffffff16638f7daf0f600360009054906101000a900473ffffffffffffffffffffffffffffffffffffffff1673ffffffffffffffffffffffffffffffffffffffff16631feeef98886000600281106113c9576113c8612432565b5b6020020151896001600281106113e2576113e1612432565b5b60200201516040518363ffffffff1660e01b8152600401611404929190612461565b6040805180830381865afa158015611420573d6000803e3d6000fd5b505050506040513d601f19601f820116820180604052508101906114449190612509565b600001516040518263ffffffff1660e01b81526004016114649190612050565b608060405180830381865afa158015611481573d6000803e3d6000fd5b505050506040513d601f19601f820116820180604052508101906114a591906129a2565b600001516000600381106114bc576114bb612432565b5b60200201516114ce57600092506114d3565b600192505b611ead565b600081141580156114e95750600082145b1561168d57600360009054906101000a900473ffffffffffffffffffffffffffffffffffffffff1673ffffffffffffffffffffffffffffffffffffffff16638f7daf0f600360009054906101000a900473ffffffffffffffffffffffffffffffffffffffff1673ffffffffffffffffffffffffffffffffffffffff16631feeef988860006002811061157e5761157d612432565b5b60200201518960016002811061159757611596612432565b5b60200201516040518363ffffffff1660e01b81526004016115b9929190612461565b6040805180830381865afa1580156115d5573d6000803e3d6000fd5b505050506040513d601f19601f820116820180604052508101906115f99190612509565b600001516040518263ffffffff1660e01b81526004016116199190612050565b608060405180830381865afa158015611636573d6000803e3d6000fd5b505050506040513d601f19601f8201168201806040525081019061165a91906129a2565b6000015160016003811061167157611670612432565b5b60200201516116835760009250611688565b600192505b611eac565b600082141580156116ad57506116a281610272565b6116ab83610272565b145b15611d6f576001600360009054906101000a900473ffffffffffffffffffffffffffffffffffffffff1673ffffffffffffffffffffffffffffffffffffffff16631feeef988760006002811061170657611705612432565b5b60200201518860016002811061171f5761171e612432565b5b60200201516040518363ffffffff1660e01b8152600401611741929190612461565b6040805180830381865afa15801561175d573d6000803e3d6000fd5b505050506040513d601f19601f820116820180604052508101906117819190612509565b6000015114801561186357506000600360009054906101000a900473ffffffffffffffffffffffffffffffffffffffff1673ffffffffffffffffffffffffffffffffffffffff16631feeef98866000600281106117e1576117e0612432565b5b6020020151876001600281106117fa576117f9612432565b5b60200201516040518363ffffffff1660e01b815260040161181c929190612461565b6040805180830381865afa158015611838573d6000803e3d6000fd5b505050506040513d601f19601f8201168201806040525081019061185c9190612509565b6000015114155b80156118775750600161187583610272565b145b156118855760019250611d6a565b600360009054906101000a900473ffffffffffffffffffffffffffffffffffffffff1673ffffffffffffffffffffffffffffffffffffffff16638f7daf0f600360009054906101000a900473ffffffffffffffffffffffffffffffffffffffff1673ffffffffffffffffffffffffffffffffffffffff16631feeef988860006002811061191557611914612432565b5b60200201518960016002811061192e5761192d612432565b5b60200201516040518363ffffffff1660e01b8152600401611950929190612461565b6040805180830381865afa15801561196c573d6000803e3d6000fd5b505050506040513d601f19601f820116820180604052508101906119909190612509565b600001516040518263ffffffff1660e01b81526004016119b09190612050565b608060405180830381865afa1580156119cd573d6000803e3d6000fd5b505050506040513d601f19601f820116820180604052508101906119f191906129a2565b60000151600260038110611a0857611a07612432565b5b6020020151158015611aeb57506001600360009054906101000a900473ffffffffffffffffffffffffffffffffffffffff1673ffffffffffffffffffffffffffffffffffffffff16631feeef9887600060028110611a6957611a68612432565b5b602002015188600160028110611a8257611a81612432565b5b60200201516040518363ffffffff1660e01b8152600401611aa4929190612461565b6040805180830381865afa158015611ac0573d6000803e3d6000fd5b505050506040513d601f19601f82011682018060405250810190611ae49190612509565b6000015114155b15611af95760009250611d69565b600360009054906101000a900473ffffffffffffffffffffffffffffffffffffffff1673ffffffffffffffffffffffffffffffffffffffff16638f7daf0f600360009054906101000a900473ffffffffffffffffffffffffffffffffffffffff1673ffffffffffffffffffffffffffffffffffffffff16631feeef9888600060028110611b8957611b88612432565b5b602002015189600160028110611ba257611ba1612432565b5b60200201516040518363ffffffff1660e01b8152600401611bc4929190612461565b6040805180830381865afa158015611be0573d6000803e3d6000fd5b505050506040513d601f19601f82011682018060405250810190611c049190612509565b600001516040518263ffffffff1660e01b8152600401611c249190612050565b608060405180830381865afa158015611c41573d6000803e3d6000fd5b505050506040513d601f19601f82011682018060405250810190611c6591906129a2565b60000151600260038110611c7c57611c7b612432565b5b60200201518015611d5e57506001600360009054906101000a900473ffffffffffffffffffffffffffffffffffffffff1673ffffffffffffffffffffffffffffffffffffffff16631feeef9887600060028110611cdc57611cdb612432565b5b602002015188600160028110611cf557611cf4612432565b5b60200201516040518363ffffffff1660e01b8152600401611d17929190612461565b6040805180830381865afa158015611d33573d6000803e3d6000fd5b505050506040513d601f19601f82011682018060405250810190611d579190612509565b6000015114155b15611d6857600192505b5b5b611eab565b6002611d7a83610272565b148015611d8f57506001611d8d82610272565b145b80611db657506001611da083610272565b148015611db557506002611db382610272565b145b5b15611ea55760038060009054906101000a900473ffffffffffffffffffffffffffffffffffffffff1673ffffffffffffffffffffffffffffffffffffffff16631feeef9887600060028110611e0e57611e0d612432565b5b602002015188600160028110611e2757611e26612432565b5b60200201516040518363ffffffff1660e01b8152600401611e49929190612461565b6040805180830381865afa158015611e65573d6000803e3d6000fd5b505050506040513d601f19601f82011682018060405250810190611e899190612509565b6000015114611e9b5760009250611ea0565b600192505b611eaa565b600092505b5b5b5b505092915050565b60006007821315611ec7576007611ec9565b805b9050919050565b600080821215611f02577fffffffffffffffffffffffffffffffffffffffffffffffffffffffffffffffff9050611f1a565b6000821315611f145760019050611f19565b600090505b5b919050565b600080821315611f30576000611f32565b805b9050919050565b6040518060400160405280600290602082028036833780820191505090505090565b6000604051905090565b600080fd5b6000819050919050565b611f7d81611f6a565b8114611f8857600080fd5b50565b600081359050611f9a81611f74565b92915050565b600060208284031215611fb657611fb5611f65565b5b6000611fc484828501611f8b565b91505092915050565b611fd681611f6a565b82525050565b6000602082019050611ff16000830184611fcd565b92915050565b6000806040838503121561200e5761200d611f65565b5b600061201c85828601611f8b565b925050602061202d85828601611f8b565b9150509250929050565b6000819050919050565b61204a81612037565b82525050565b60006020820190506120656000830184612041565b92915050565b600080fd5b6000601f19601f8301169050919050565b7f4e487b7100000000000000000000000000000000000000000000000000000000600052604160045260246000fd5b6120b982612070565b810181811067ffffffffffffffff821117156120d8576120d7612081565b5b80604052505050565b60006120eb611f5b565b90506120f782826120b0565b919050565b600067ffffffffffffffff82111561211757612116612081565b5b602082029050919050565b600080fd5b61213081612037565b811461213b57600080fd5b50565b60008135905061214d81612127565b92915050565b6000612166612161846120fc565b6120e1565b905080602084028301858111156121805761217f612122565b5b835b818110156121a95780612195888261213e565b845260208401935050602081019050612182565b5050509392505050565b600082601f8301126121c8576121c761206b565b5b60026121d5848285612153565b91505092915050565b60008115159050919050565b6121f3816121de565b81146121fe57600080fd5b50565b600081359050612210816121ea565b92915050565b60008060008060c085870312156122305761222f611f65565b5b600061223e878288016121b3565b945050604061224f878288016121b3565b935050608061226087828801612201565b92505060a06122718782880161213e565b91505092959194509250565b612286816121de565b82525050565b60006020820190506122a1600083018461227d565b92915050565b600080608083850312156122be576122bd611f65565b5b60006122cc858286016121b3565b92505060406122dd858286016121b3565b9150509250929050565b600060029050919050565b600081905092915050565b6000819050919050565b61231081612037565b82525050565b60006123228383612307565b60208301905092915050565b6000602082019050919050565b612344816122e7565b61234e81846122f2565b9250612359826122fd565b8060005b8381101561238a5781516123718782612316565b965061237c8361232e565b92505060018101905061235d565b505050505050565b60006060820190506123a7600083018561227d565b6123b4602083018461233b565b9392505050565b7f4e487b7100000000000000000000000000000000000000000000000000000000600052601160045260246000fd5b60006123f582611f6a565b91507f80000000000000000000000000000000000000000000000000000000000000008203612427576124266123bb565b5b816000039050919050565b7f4e487b7100000000000000000000000000000000000000000000000000000000600052603260045260246000fd5b60006040820190506124766000830185612041565b6124836020830184612041565b9392505050565b600080fd5b60008151905061249e81612127565b92915050565b6000815190506124b3816121ea565b92915050565b6000604082840312156124cf576124ce61248a565b5b6124d960406120e1565b905060006124e98482850161248f565b60008301525060206124fd848285016124a4565b60208301525092915050565b60006040828403121561251f5761251e611f65565b5b600061252d848285016124b9565b91505092915050565b600082825260208201905092915050565b50565b6000612557600083612536565b915061256282612547565b600082019050919050565b600060208201905081810360008301526125868161254a565b9050919050565b600061259882611f6a565b91506125a383611f6a565b9250827f8000000000000000000000000000000000000000000000000000000000000000018212600084121516156125de576125dd6123bb565b5b827f7fffffffffffffffffffffffffffffffffffffffffffffffffffffffffffffff018213600084121615612616576126156123bb565b5b828203905092915050565b6000819050919050565b6000819050919050565b600061265061264b61264684612621565b61262b565b612037565b9050919050565b61266081612635565b82525050565b6000819050919050565b600061268b61268661268184612666565b61262b565b612037565b9050919050565b61269b81612670565b82525050565b60006040820190506126b66000830185612657565b6126c36020830184612692565b9392505050565b6000819050919050565b60006126ef6126ea6126e5846126ca565b61262b565b612037565b9050919050565b6126ff816126d4565b82525050565b600060408201905061271a6000830185612657565b61272760208301846126f6565b9392505050565b60006040820190506127436000830185612657565b6127506020830184612657565b9392505050565b6000819050919050565b600061277c61277761277284612757565b61262b565b612037565b9050919050565b61278c81612761565b82525050565b60006040820190506127a760008301856126f6565b6127b46020830184612783565b9392505050565b60006040820190506127d060008301856126f6565b6127dd60208301846126f6565b9392505050565b60006040820190506127f960008301856126f6565b6128066020830184612657565b9392505050565b600061281882611f6a565b915061282383611f6a565b9250817f7fffffffffffffffffffffffffffffffffffffffffffffffffffffffffffffff0383136000831215161561285e5761285d6123bb565b5b817f8000000000000000000000000000000000000000000000000000000000000000038312600083121615612896576128956123bb565b5b828201905092915050565b600067ffffffffffffffff8211156128bc576128bb612081565b5b602082029050919050565b60006128da6128d5846128a1565b6120e1565b905080602084028301858111156128f4576128f3612122565b5b835b8181101561291d578061290988826124a4565b8452602084019350506020810190506128f6565b5050509392505050565b600082601f83011261293c5761293b61206b565b5b60036129498482856128c7565b91505092915050565b6000608082840312156129685761296761248a565b5b61297260406120e1565b9050600061298284828501612927565b60008301525060606129968482850161248f565b60208301525092915050565b6000608082840312156129b8576129b7611f65565b5b60006129c684828501612952565b9150509291505056fea2646970667358221220e285b1385879775d1f1df9f0c44394adb219a69478a0ed67fb65ccf68ac9b17964736f6c634300080d003360806040523480156200001157600080fd5b50604051620043563803806200435683398181016040528101906200003791906200016f565b816000806101000a81548173ffffffffffffffffffffffffffffffffffffffff021916908373ffffffffffffffffffffffffffffffffffffffff16021790555080600160006101000a81548173ffffffffffffffffffffffffffffffffffffffff021916908373ffffffffffffffffffffffffffffffffffffffff1602179055505050620001b6565b600080fd5b600073ffffffffffffffffffffffffffffffffffffffff82169050919050565b6000620000f282620000c5565b9050919050565b6200010481620000e5565b81146200011057600080fd5b50565b6000815190506200012481620000f9565b92915050565b60006200013782620000c5565b9050919050565b62000149816200012a565b81146200015557600080fd5b50565b60008151905062000169816200013e565b92915050565b60008060408385031215620001895762000188620000c0565b5b6000620001998582860162000113565b9250506020620001ac8582860162000158565b9150509250929050565b61419080620001c66000396000f3fe608060405234801561001057600080fd5b50600436106100415760003560e01c8063155b47e8146100465780632f1d8074146100765780638b69cfad146100a7575b600080fd5b610060600480360381019061005b91906137b1565b6100d8565b60405161006d91906137ed565b60405180910390f35b610090600480360381019061008b9190613985565b610cf5565b60405161009e929190613a70565b60405180910390f35b6100c160048036038101906100bc91906137b1565b6135b7565b6040516100cf929190613a99565b60405180910390f35b6000600160009054906101000a900473ffffffffffffffffffffffffffffffffffffffff1673ffffffffffffffffffffffffffffffffffffffff163373ffffffffffffffffffffffffffffffffffffffff161461016a576040517f08c379a000000000000000000000000000000000000000000000000000000000815260040161016190613af9565b60405180910390fd5b6000600160009054906101000a900473ffffffffffffffffffffffffffffffffffffffff1673ffffffffffffffffffffffffffffffffffffffff1663915b740d846040518263ffffffff1660e01b81526004016101c791906137ed565b6040805180830381865afa1580156101e3573d6000803e3d6000fd5b505050506040513d601f19601f820116820180604052508101906102079190613bb9565b9050610211613748565b600080600080600080600080610310604051806040016040528060008054906101000a900473ffffffffffffffffffffffffffffffffffffffff1673ffffffffffffffffffffffffffffffffffffffff1663bac3511960018f60006002811061027d5761027c613be6565b5b602002015161028c9190613c4e565b6040518263ffffffff1660e01b81526004016102a89190613cf1565b602060405180830381865afa1580156102c5573d6000803e3d6000fd5b505050506040513d601f19601f820116820180604052508101906102e99190613d38565b81526020018c60016002811061030257610301613be6565b5b60200201518152508d610cf5565b809a50819950505061040b604051806040016040528060008054906101000a900473ffffffffffffffffffffffffffffffffffffffff1673ffffffffffffffffffffffffffffffffffffffff1663ee0b07e060018f60006002811061037857610377613be6565b5b60200201516103879190613d65565b6040518263ffffffff1660e01b81526004016103a39190613cf1565b602060405180830381865afa1580156103c0573d6000803e3d6000fd5b505050506040513d601f19601f820116820180604052508101906103e49190613d38565b81526020018c6001600281106103fd576103fc613be6565b5b60200201518152508d610cf5565b809a50819950505061050660405180604001604052808c60006002811061043557610434613be6565b5b6020020151815260200160008054906101000a900473ffffffffffffffffffffffffffffffffffffffff1673ffffffffffffffffffffffffffffffffffffffff1663bac3511960018f60016002811061049157610490613be6565b5b60200201516104a09190613c4e565b6040518263ffffffff1660e01b81526004016104bc9190613cf1565b602060405180830381865afa1580156104d9573d6000803e3d6000fd5b505050506040513d601f19601f820116820180604052508101906104fd9190613d38565b8152508d610cf5565b809a50819950505061060160405180604001604052808c6000600281106105305761052f613be6565b5b6020020151815260200160008054906101000a900473ffffffffffffffffffffffffffffffffffffffff1673ffffffffffffffffffffffffffffffffffffffff1663bac3511960018f60016002811061058c5761058b613be6565b5b602002015161059b9190613d65565b6040518263ffffffff1660e01b81526004016105b79190613cf1565b602060405180830381865afa1580156105d4573d6000803e3d6000fd5b505050506040513d601f19601f820116820180604052508101906105f89190613d38565b8152508d610cf5565b809a5081995050506107a1604051806040016040528060008054906101000a900473ffffffffffffffffffffffffffffffffffffffff1673ffffffffffffffffffffffffffffffffffffffff1663bac3511960018f60006002811061066957610668613be6565b5b60200201516106789190613c4e565b6040518263ffffffff1660e01b81526004016106949190613cf1565b602060405180830381865afa1580156106b1573d6000803e3d6000fd5b505050506040513d601f19601f820116820180604052508101906106d59190613d38565b815260200160008054906101000a900473ffffffffffffffffffffffffffffffffffffffff1673ffffffffffffffffffffffffffffffffffffffff1663bac3511960018f60016002811061072c5761072b613be6565b5b602002015161073b9190613c4e565b6040518263ffffffff1660e01b81526004016107579190613cf1565b602060405180830381865afa158015610774573d6000803e3d6000fd5b505050506040513d601f19601f820116820180604052508101906107989190613d38565b8152508d610cf5565b809a508199505050610941604051806040016040528060008054906101000a900473ffffffffffffffffffffffffffffffffffffffff1673ffffffffffffffffffffffffffffffffffffffff1663bac3511960018f60006002811061080957610808613be6565b5b60200201516108189190613c4e565b6040518263ffffffff1660e01b81526004016108349190613cf1565b602060405180830381865afa158015610851573d6000803e3d6000fd5b505050506040513d601f19601f820116820180604052508101906108759190613d38565b815260200160008054906101000a900473ffffffffffffffffffffffffffffffffffffffff1673ffffffffffffffffffffffffffffffffffffffff1663bac3511960018f6001600281106108cc576108cb613be6565b5b60200201516108db9190613d65565b6040518263ffffffff1660e01b81526004016108f79190613cf1565b602060405180830381865afa158015610914573d6000803e3d6000fd5b505050506040513d601f19601f820116820180604052508101906109389190613d38565b8152508d610cf5565b809a508199505050610ae1604051806040016040528060008054906101000a900473ffffffffffffffffffffffffffffffffffffffff1673ffffffffffffffffffffffffffffffffffffffff1663bac3511960018f6000600281106109a9576109a8613be6565b5b60200201516109b89190613d65565b6040518263ffffffff1660e01b81526004016109d49190613cf1565b602060405180830381865afa1580156109f1573d6000803e3d6000fd5b505050506040513d601f19601f82011682018060405250810190610a159190613d38565b815260200160008054906101000a900473ffffffffffffffffffffffffffffffffffffffff1673ffffffffffffffffffffffffffffffffffffffff1663bac3511960018f600160028110610a6c57610a6b613be6565b5b6020020151610a7b9190613c4e565b6040518263ffffffff1660e01b8152600401610a979190613cf1565b602060405180830381865afa158015610ab4573d6000803e3d6000fd5b505050506040513d601f19601f82011682018060405250810190610ad89190613d38565b8152508d610cf5565b809a508199505050610c81604051806040016040528060008054906101000a900473ffffffffffffffffffffffffffffffffffffffff1673ffffffffffffffffffffffffffffffffffffffff1663bac3511960018f600060028110610b4957610b48613be6565b5b6020020151610b589190613d65565b6040518263ffffffff1660e01b8152600401610b749190613cf1565b602060405180830381865afa158015610b91573d6000803e3d6000fd5b505050506040513d601f19601f82011682018060405250810190610bb59190613d38565b815260200160008054906101000a900473ffffffffffffffffffffffffffffffffffffffff1673ffffffffffffffffffffffffffffffffffffffff1663bac3511960018f600160028110610c0c57610c0b613be6565b5b6020020151610c1b9190613d65565b6040518263ffffffff1660e01b8152600401610c379190613cf1565b602060405180830381865afa158015610c54573d6000803e3d6000fd5b505050506040513d601f19601f82011682018060405250810190610c789190613d38565b8152508d610cf5565b809a508199505050878015610c935750865b8015610c9c5750855b8015610ca55750845b8015610cae5750835b8015610cb75750825b8015610cc05750815b8015610cc95750805b15610ce15760019a5050505050505050505050610cf0565b60009a50505050505050505050505b919050565b6000610cff613748565b60008060009054906101000a900473ffffffffffffffffffffffffffffffffffffffff1673ffffffffffffffffffffffffffffffffffffffff166329aa9cbe60008054906101000a900473ffffffffffffffffffffffffffffffffffffffff1673ffffffffffffffffffffffffffffffffffffffff166329aa9cbe88600060028110610d8e57610d8d613be6565b5b602002015189600060028110610da757610da6613be6565b5b60200201516007610db89190613d65565b6040518363ffffffff1660e01b8152600401610dd5929190613df9565b602060405180830381865afa158015610df2573d6000803e3d6000fd5b505050506040513d601f19601f82011682018060405250810190610e169190613d38565b60008054906101000a900473ffffffffffffffffffffffffffffffffffffffff1673ffffffffffffffffffffffffffffffffffffffff166329aa9cbe89600160028110610e6657610e65613be6565b5b60200201518a600160028110610e7f57610e7e613be6565b5b60200201516007610e909190613d65565b6040518363ffffffff1660e01b8152600401610ead929190613df9565b602060405180830381865afa158015610eca573d6000803e3d6000fd5b505050506040513d601f19601f82011682018060405250810190610eee9190613d38565b6040518363ffffffff1660e01b8152600401610f0b929190613df9565b602060405180830381865afa158015610f28573d6000803e3d6000fd5b505050506040513d601f19601f82011682018060405250810190610f4c9190613d38565b905060008054906101000a900473ffffffffffffffffffffffffffffffffffffffff1673ffffffffffffffffffffffffffffffffffffffff166371cc5ad18660405180604001604052806000815260200189600160028110610fb157610fb0613be6565b5b60200201518152506040518363ffffffff1660e01b8152600401610fd6929190613e22565b606060405180830381865afa158015610ff3573d6000803e3d6000fd5b505050506040513d601f19601f820116820180604052508101906110179190613e60565b8093508194505050821580156110c5575060008054906101000a900473ffffffffffffffffffffffffffffffffffffffff1673ffffffffffffffffffffffffffffffffffffffff1663ac411ce683876040518363ffffffff1660e01b8152600401611083929190613e22565b602060405180830381865afa1580156110a0573d6000803e3d6000fd5b505050506040513d601f19601f820116820180604052508101906110c49190613ea0565b5b8015611314575060008054906101000a900473ffffffffffffffffffffffffffffffffffffffff1673ffffffffffffffffffffffffffffffffffffffff16631b5ac4b58660006002811061111c5761111b613be6565b5b60200201518460006002811061113557611134613be6565b5b60200201516111449190613d65565b6040518263ffffffff1660e01b81526004016111609190613cf1565b602060405180830381865afa15801561117d573d6000803e3d6000fd5b505050506040513d601f19601f820116820180604052508101906111a19190613d38565b600160009054906101000a900473ffffffffffffffffffffffffffffffffffffffff1673ffffffffffffffffffffffffffffffffffffffff16638f7daf0f600160009054906101000a900473ffffffffffffffffffffffffffffffffffffffff1673ffffffffffffffffffffffffffffffffffffffff16631feeef988660006002811061123157611230613be6565b5b60200201518760016002811061124a57611249613be6565b5b60200201516040518363ffffffff1660e01b815260040161126c929190613edc565b6040805180830381865afa158015611288573d6000803e3d6000fd5b505050506040513d601f19601f820116820180604052508101906112ac9190613f5a565b600001516040518263ffffffff1660e01b81526004016112cc9190613f87565b608060405180830381865afa1580156112e9573d6000803e3d6000fd5b505050506040513d601f19601f8201168201806040525081019061130d91906140a3565b6020015110155b80156113f45750831515600160009054906101000a900473ffffffffffffffffffffffffffffffffffffffff1673ffffffffffffffffffffffffffffffffffffffff16631feeef98846000600281106113705761136f613be6565b5b60200201518560016002811061138957611388613be6565b5b60200201516040518363ffffffff1660e01b81526004016113ab929190613edc565b6040805180830381865afa1580156113c7573d6000803e3d6000fd5b505050506040513d601f19601f820116820180604052508101906113eb9190613f5a565b60200151151514155b156114035760019250506135b0565b60008054906101000a900473ffffffffffffffffffffffffffffffffffffffff1673ffffffffffffffffffffffffffffffffffffffff166371cc5ad1866040518060400160405280600781526020018960016002811061146657611465613be6565b5b60200201518152506040518363ffffffff1660e01b815260040161148b929190613e22565b606060405180830381865afa1580156114a8573d6000803e3d6000fd5b505050506040513d601f19601f820116820180604052508101906114cc9190613e60565b80935081945050508215801561157a575060008054906101000a900473ffffffffffffffffffffffffffffffffffffffff1673ffffffffffffffffffffffffffffffffffffffff1663ac411ce683876040518363ffffffff1660e01b8152600401611538929190613e22565b602060405180830381865afa158015611555573d6000803e3d6000fd5b505050506040513d601f19601f820116820180604052508101906115799190613ea0565b5b80156117c9575060008054906101000a900473ffffffffffffffffffffffffffffffffffffffff1673ffffffffffffffffffffffffffffffffffffffff16631b5ac4b5866000600281106115d1576115d0613be6565b5b6020020151846000600281106115ea576115e9613be6565b5b60200201516115f99190613d65565b6040518263ffffffff1660e01b81526004016116159190613cf1565b602060405180830381865afa158015611632573d6000803e3d6000fd5b505050506040513d601f19601f820116820180604052508101906116569190613d38565b600160009054906101000a900473ffffffffffffffffffffffffffffffffffffffff1673ffffffffffffffffffffffffffffffffffffffff16638f7daf0f600160009054906101000a900473ffffffffffffffffffffffffffffffffffffffff1673ffffffffffffffffffffffffffffffffffffffff16631feeef98866000600281106116e6576116e5613be6565b5b6020020151876001600281106116ff576116fe613be6565b5b60200201516040518363ffffffff1660e01b8152600401611721929190613edc565b6040805180830381865afa15801561173d573d6000803e3d6000fd5b505050506040513d601f19601f820116820180604052508101906117619190613f5a565b600001516040518263ffffffff1660e01b81526004016117819190613f87565b608060405180830381865afa15801561179e573d6000803e3d6000fd5b505050506040513d601f19601f820116820180604052508101906117c291906140a3565b6020015110155b80156118a95750831515600160009054906101000a900473ffffffffffffffffffffffffffffffffffffffff1673ffffffffffffffffffffffffffffffffffffffff16631feeef988460006002811061182557611824613be6565b5b60200201518560016002811061183e5761183d613be6565b5b60200201516040518363ffffffff1660e01b8152600401611860929190613edc565b6040805180830381865afa15801561187c573d6000803e3d6000fd5b505050506040513d601f19601f820116820180604052508101906118a09190613f5a565b60200151151514155b156118b85760019250506135b0565b60008054906101000a900473ffffffffffffffffffffffffffffffffffffffff1673ffffffffffffffffffffffffffffffffffffffff166371cc5ad18660405180604001604052808960006002811061191457611913613be6565b5b6020020151815260200160008152506040518363ffffffff1660e01b8152600401611940929190613e22565b606060405180830381865afa15801561195d573d6000803e3d6000fd5b505050506040513d601f19601f820116820180604052508101906119819190613e60565b809350819450505082158015611a2f575060008054906101000a900473ffffffffffffffffffffffffffffffffffffffff1673ffffffffffffffffffffffffffffffffffffffff1663ac411ce683876040518363ffffffff1660e01b81526004016119ed929190613e22565b602060405180830381865afa158015611a0a573d6000803e3d6000fd5b505050506040513d601f19601f82011682018060405250810190611a2e9190613ea0565b5b8015611c7e575060008054906101000a900473ffffffffffffffffffffffffffffffffffffffff1673ffffffffffffffffffffffffffffffffffffffff16631b5ac4b586600160028110611a8657611a85613be6565b5b602002015184600160028110611a9f57611a9e613be6565b5b6020020151611aae9190613d65565b6040518263ffffffff1660e01b8152600401611aca9190613cf1565b602060405180830381865afa158015611ae7573d6000803e3d6000fd5b505050506040513d601f19601f82011682018060405250810190611b0b9190613d38565b600160009054906101000a900473ffffffffffffffffffffffffffffffffffffffff1673ffffffffffffffffffffffffffffffffffffffff16638f7daf0f600160009054906101000a900473ffffffffffffffffffffffffffffffffffffffff1673ffffffffffffffffffffffffffffffffffffffff16631feeef9886600060028110611b9b57611b9a613be6565b5b602002015187600160028110611bb457611bb3613be6565b5b60200201516040518363ffffffff1660e01b8152600401611bd6929190613edc565b6040805180830381865afa158015611bf2573d6000803e3d6000fd5b505050506040513d601f19601f82011682018060405250810190611c169190613f5a565b600001516040518263ffffffff1660e01b8152600401611c369190613f87565b608060405180830381865afa158015611c53573d6000803e3d6000fd5b505050506040513d601f19601f82011682018060405250810190611c7791906140a3565b6020015110155b8015611d5e5750831515600160009054906101000a900473ffffffffffffffffffffffffffffffffffffffff1673ffffffffffffffffffffffffffffffffffffffff16631feeef9884600060028110611cda57611cd9613be6565b5b602002015185600160028110611cf357611cf2613be6565b5b60200201516040518363ffffffff1660e01b8152600401611d15929190613edc565b6040805180830381865afa158015611d31573d6000803e3d6000fd5b505050506040513d601f19601f82011682018060405250810190611d559190613f5a565b60200151151514155b15611d6d5760019250506135b0565b60008054906101000a900473ffffffffffffffffffffffffffffffffffffffff1673ffffffffffffffffffffffffffffffffffffffff166371cc5ad186604051806040016040528089600060028110611dc957611dc8613be6565b5b6020020151815260200160078152506040518363ffffffff1660e01b8152600401611df5929190613e22565b606060405180830381865afa158015611e12573d6000803e3d6000fd5b505050506040513d601f19601f82011682018060405250810190611e369190613e60565b809350819450505082158015611ee4575060008054906101000a900473ffffffffffffffffffffffffffffffffffffffff1673ffffffffffffffffffffffffffffffffffffffff1663ac411ce683876040518363ffffffff1660e01b8152600401611ea2929190613e22565b602060405180830381865afa158015611ebf573d6000803e3d6000fd5b505050506040513d601f19601f82011682018060405250810190611ee39190613ea0565b5b8015612133575060008054906101000a900473ffffffffffffffffffffffffffffffffffffffff1673ffffffffffffffffffffffffffffffffffffffff16631b5ac4b586600160028110611f3b57611f3a613be6565b5b602002015184600160028110611f5457611f53613be6565b5b6020020151611f639190613d65565b6040518263ffffffff1660e01b8152600401611f7f9190613cf1565b602060405180830381865afa158015611f9c573d6000803e3d6000fd5b505050506040513d601f19601f82011682018060405250810190611fc09190613d38565b600160009054906101000a900473ffffffffffffffffffffffffffffffffffffffff1673ffffffffffffffffffffffffffffffffffffffff16638f7daf0f600160009054906101000a900473ffffffffffffffffffffffffffffffffffffffff1673ffffffffffffffffffffffffffffffffffffffff16631feeef98866000600281106120505761204f613be6565b5b60200201518760016002811061206957612068613be6565b5b60200201516040518363ffffffff1660e01b815260040161208b929190613edc565b6040805180830381865afa1580156120a7573d6000803e3d6000fd5b505050506040513d601f19601f820116820180604052508101906120cb9190613f5a565b600001516040518263ffffffff1660e01b81526004016120eb9190613f87565b608060405180830381865afa158015612108573d6000803e3d6000fd5b505050506040513d601f19601f8201168201806040525081019061212c91906140a3565b6020015110155b80156122135750831515600160009054906101000a900473ffffffffffffffffffffffffffffffffffffffff1673ffffffffffffffffffffffffffffffffffffffff16631feeef988460006002811061218f5761218e613be6565b5b6020020151856001600281106121a8576121a7613be6565b5b60200201516040518363ffffffff1660e01b81526004016121ca929190613edc565b6040805180830381865afa1580156121e6573d6000803e3d6000fd5b505050506040513d601f19601f8201168201806040525081019061220a9190613f5a565b60200151151514155b156122225760019250506135b0565b60008054906101000a900473ffffffffffffffffffffffffffffffffffffffff1673ffffffffffffffffffffffffffffffffffffffff166371cc5ad1866040518060400160405280858a60006002811061227f5761227e613be6565b5b602002015161228e91906140d0565b8152602001858a6001600281106122a8576122a7613be6565b5b60200201516122b79190614126565b8152506040518363ffffffff1660e01b81526004016122d7929190613e22565b606060405180830381865afa1580156122f4573d6000803e3d6000fd5b505050506040513d601f19601f820116820180604052508101906123189190613e60565b8093508194505050821580156123c6575060008054906101000a900473ffffffffffffffffffffffffffffffffffffffff1673ffffffffffffffffffffffffffffffffffffffff1663ac411ce683876040518363ffffffff1660e01b8152600401612384929190613e22565b602060405180830381865afa1580156123a1573d6000803e3d6000fd5b505050506040513d601f19601f820116820180604052508101906123c59190613ea0565b5b8015612615575060008054906101000a900473ffffffffffffffffffffffffffffffffffffffff1673ffffffffffffffffffffffffffffffffffffffff16631b5ac4b58660016002811061241d5761241c613be6565b5b60200201518460016002811061243657612435613be6565b5b60200201516124459190613d65565b6040518263ffffffff1660e01b81526004016124619190613cf1565b602060405180830381865afa15801561247e573d6000803e3d6000fd5b505050506040513d601f19601f820116820180604052508101906124a29190613d38565b600160009054906101000a900473ffffffffffffffffffffffffffffffffffffffff1673ffffffffffffffffffffffffffffffffffffffff16638f7daf0f600160009054906101000a900473ffffffffffffffffffffffffffffffffffffffff1673ffffffffffffffffffffffffffffffffffffffff16631feeef988660006002811061253257612531613be6565b5b60200201518760016002811061254b5761254a613be6565b5b60200201516040518363ffffffff1660e01b815260040161256d929190613edc565b6040805180830381865afa158015612589573d6000803e3d6000fd5b505050506040513d601f19601f820116820180604052508101906125ad9190613f5a565b600001516040518263ffffffff1660e01b81526004016125cd9190613f87565b608060405180830381865afa1580156125ea573d6000803e3d6000fd5b505050506040513d601f19601f8201168201806040525081019061260e91906140a3565b6020015110155b80156126f55750831515600160009054906101000a900473ffffffffffffffffffffffffffffffffffffffff1673ffffffffffffffffffffffffffffffffffffffff16631feeef988460006002811061267157612670613be6565b5b60200201518560016002811061268a57612689613be6565b5b60200201516040518363ffffffff1660e01b81526004016126ac929190613edc565b6040805180830381865afa1580156126c8573d6000803e3d6000fd5b505050506040513d601f19601f820116820180604052508101906126ec9190613f5a565b60200151151514155b156127045760019250506135b0565b60008054906101000a900473ffffffffffffffffffffffffffffffffffffffff1673ffffffffffffffffffffffffffffffffffffffff166371cc5ad1866040518060400160405280858a60006002811061276157612760613be6565b5b60200201516127709190614126565b8152602001858a60016002811061278a57612789613be6565b5b60200201516127999190614126565b8152506040518363ffffffff1660e01b81526004016127b9929190613e22565b606060405180830381865afa1580156127d6573d6000803e3d6000fd5b505050506040513d601f19601f820116820180604052508101906127fa9190613e60565b8093508194505050821580156128a8575060008054906101000a900473ffffffffffffffffffffffffffffffffffffffff1673ffffffffffffffffffffffffffffffffffffffff1663ac411ce683876040518363ffffffff1660e01b8152600401612866929190613e22565b602060405180830381865afa158015612883573d6000803e3d6000fd5b505050506040513d601f19601f820116820180604052508101906128a79190613ea0565b5b8015612af7575060008054906101000a900473ffffffffffffffffffffffffffffffffffffffff1673ffffffffffffffffffffffffffffffffffffffff16631b5ac4b5866001600281106128ff576128fe613be6565b5b60200201518460016002811061291857612917613be6565b5b60200201516129279190613d65565b6040518263ffffffff1660e01b81526004016129439190613cf1565b602060405180830381865afa158015612960573d6000803e3d6000fd5b505050506040513d601f19601f820116820180604052508101906129849190613d38565b600160009054906101000a900473ffffffffffffffffffffffffffffffffffffffff1673ffffffffffffffffffffffffffffffffffffffff16638f7daf0f600160009054906101000a900473ffffffffffffffffffffffffffffffffffffffff1673ffffffffffffffffffffffffffffffffffffffff16631feeef9886600060028110612a1457612a13613be6565b5b602002015187600160028110612a2d57612a2c613be6565b5b60200201516040518363ffffffff1660e01b8152600401612a4f929190613edc565b6040805180830381865afa158015612a6b573d6000803e3d6000fd5b505050506040513d601f19601f82011682018060405250810190612a8f9190613f5a565b600001516040518263ffffffff1660e01b8152600401612aaf9190613f87565b608060405180830381865afa158015612acc573d6000803e3d6000fd5b505050506040513d601f19601f82011682018060405250810190612af091906140a3565b6020015110155b8015612bd75750831515600160009054906101000a900473ffffffffffffffffffffffffffffffffffffffff1673ffffffffffffffffffffffffffffffffffffffff16631feeef9884600060028110612b5357612b52613be6565b5b602002015185600160028110612b6c57612b6b613be6565b5b60200201516040518363ffffffff1660e01b8152600401612b8e929190613edc565b6040805180830381865afa158015612baa573d6000803e3d6000fd5b505050506040513d601f19601f82011682018060405250810190612bce9190613f5a565b60200151151514155b15612be65760019250506135b0565b60008054906101000a900473ffffffffffffffffffffffffffffffffffffffff1673ffffffffffffffffffffffffffffffffffffffff166371cc5ad1866040518060400160405280858a600060028110612c4357612c42613be6565b5b6020020151612c529190614126565b8152602001858a600160028110612c6c57612c6b613be6565b5b6020020151612c7b91906140d0565b8152506040518363ffffffff1660e01b8152600401612c9b929190613e22565b606060405180830381865afa158015612cb8573d6000803e3d6000fd5b505050506040513d601f19601f82011682018060405250810190612cdc9190613e60565b809350819450505082158015612d8a575060008054906101000a900473ffffffffffffffffffffffffffffffffffffffff1673ffffffffffffffffffffffffffffffffffffffff1663ac411ce683876040518363ffffffff1660e01b8152600401612d48929190613e22565b602060405180830381865afa158015612d65573d6000803e3d6000fd5b505050506040513d601f19601f82011682018060405250810190612d899190613ea0565b5b8015612fd9575060008054906101000a900473ffffffffffffffffffffffffffffffffffffffff1673ffffffffffffffffffffffffffffffffffffffff16631b5ac4b586600160028110612de157612de0613be6565b5b602002015184600160028110612dfa57612df9613be6565b5b6020020151612e099190613d65565b6040518263ffffffff1660e01b8152600401612e259190613cf1565b602060405180830381865afa158015612e42573d6000803e3d6000fd5b505050506040513d601f19601f82011682018060405250810190612e669190613d38565b600160009054906101000a900473ffffffffffffffffffffffffffffffffffffffff1673ffffffffffffffffffffffffffffffffffffffff16638f7daf0f600160009054906101000a900473ffffffffffffffffffffffffffffffffffffffff1673ffffffffffffffffffffffffffffffffffffffff16631feeef9886600060028110612ef657612ef5613be6565b5b602002015187600160028110612f0f57612f0e613be6565b5b60200201516040518363ffffffff1660e01b8152600401612f31929190613edc565b6040805180830381865afa158015612f4d573d6000803e3d6000fd5b505050506040513d601f19601f82011682018060405250810190612f719190613f5a565b600001516040518263ffffffff1660e01b8152600401612f919190613f87565b608060405180830381865afa158015612fae573d6000803e3d6000fd5b505050506040513d601f19601f82011682018060405250810190612fd291906140a3565b6020015110155b80156130b95750831515600160009054906101000a900473ffffffffffffffffffffffffffffffffffffffff1673ffffffffffffffffffffffffffffffffffffffff16631feeef988460006002811061303557613034613be6565b5b60200201518560016002811061304e5761304d613be6565b5b60200201516040518363ffffffff1660e01b8152600401613070929190613edc565b6040805180830381865afa15801561308c573d6000803e3d6000fd5b505050506040513d601f19601f820116820180604052508101906130b09190613f5a565b60200151151514155b156130c85760019250506135b0565b60008054906101000a900473ffffffffffffffffffffffffffffffffffffffff1673ffffffffffffffffffffffffffffffffffffffff166371cc5ad1866040518060400160405280858a60006002811061312557613124613be6565b5b602002015161313491906140d0565b8152602001858a60016002811061314e5761314d613be6565b5b602002015161315d91906140d0565b8152506040518363ffffffff1660e01b815260040161317d929190613e22565b606060405180830381865afa15801561319a573d6000803e3d6000fd5b505050506040513d601f19601f820116820180604052508101906131be9190613e60565b80935081945050508215801561326c575060008054906101000a900473ffffffffffffffffffffffffffffffffffffffff1673ffffffffffffffffffffffffffffffffffffffff1663ac411ce683876040518363ffffffff1660e01b815260040161322a929190613e22565b602060405180830381865afa158015613247573d6000803e3d6000fd5b505050506040513d601f19601f8201168201806040525081019061326b9190613ea0565b5b80156134bb575060008054906101000a900473ffffffffffffffffffffffffffffffffffffffff1673ffffffffffffffffffffffffffffffffffffffff16631b5ac4b5866001600281106132c3576132c2613be6565b5b6020020151846001600281106132dc576132db613be6565b5b60200201516132eb9190613d65565b6040518263ffffffff1660e01b81526004016133079190613cf1565b602060405180830381865afa158015613324573d6000803e3d6000fd5b505050506040513d601f19601f820116820180604052508101906133489190613d38565b600160009054906101000a900473ffffffffffffffffffffffffffffffffffffffff1673ffffffffffffffffffffffffffffffffffffffff16638f7daf0f600160009054906101000a900473ffffffffffffffffffffffffffffffffffffffff1673ffffffffffffffffffffffffffffffffffffffff16631feeef98866000600281106133d8576133d7613be6565b5b6020020151876001600281106133f1576133f0613be6565b5b60200201516040518363ffffffff1660e01b8152600401613413929190613edc565b6040805180830381865afa15801561342f573d6000803e3d6000fd5b505050506040513d601f19601f820116820180604052508101906134539190613f5a565b600001516040518263ffffffff1660e01b81526004016134739190613f87565b608060405180830381865afa158015613490573d6000803e3d6000fd5b505050506040513d601f19601f820116820180604052508101906134b491906140a3565b6020015110155b801561359b5750831515600160009054906101000a900473ffffffffffffffffffffffffffffffffffffffff1673ffffffffffffffffffffffffffffffffffffffff16631feeef988460006002811061351757613516613be6565b5b6020020151856001600281106135305761352f613be6565b5b60200201516040518363ffffffff1660e01b8152600401613552929190613edc565b6040805180830381865afa15801561356e573d6000803e3d6000fd5b505050506040513d601f19601f820116820180604052508101906135929190613f5a565b60200151151514155b156135aa5760019250506135b0565b60009250505b9250929050565b600080600160009054906101000a900473ffffffffffffffffffffffffffffffffffffffff1673ffffffffffffffffffffffffffffffffffffffff1663fe9ba8ec846040518263ffffffff1660e01b815260040161361591906137ed565b602060405180830381865afa158015613632573d6000803e3d6000fd5b505050506040513d601f19601f820116820180604052508101906136569190613ea0565b80156136675750613666836100d8565b5b15613679576001915060019050613743565b600160009054906101000a900473ffffffffffffffffffffffffffffffffffffffff1673ffffffffffffffffffffffffffffffffffffffff1663fe9ba8ec846040518263ffffffff1660e01b81526004016136d491906137ed565b602060405180830381865afa1580156136f1573d6000803e3d6000fd5b505050506040513d601f19601f820116820180604052508101906137159190613ea0565b1580156137275750613726836100d8565b5b15613739576000915060019050613742565b60009150600090505b5b915091565b6040518060400160405280600290602082028036833780820191505090505090565b6000604051905090565b600080fd5b60008115159050919050565b61378e81613779565b811461379957600080fd5b50565b6000813590506137ab81613785565b92915050565b6000602082840312156137c7576137c6613774565b5b60006137d58482850161379c565b91505092915050565b6137e781613779565b82525050565b600060208201905061380260008301846137de565b92915050565b600080fd5b6000601f19601f8301169050919050565b7f4e487b7100000000000000000000000000000000000000000000000000000000600052604160045260246000fd5b6138568261380d565b810181811067ffffffffffffffff821117156138755761387461381e565b5b80604052505050565b600061388861376a565b9050613894828261384d565b919050565b600067ffffffffffffffff8211156138b4576138b361381e565b5b602082029050919050565b600080fd5b6000819050919050565b6138d7816138c4565b81146138e257600080fd5b50565b6000813590506138f4816138ce565b92915050565b600061390d61390884613899565b61387e565b90508060208402830185811115613927576139266138bf565b5b835b81811015613950578061393c88826138e5565b845260208401935050602081019050613929565b5050509392505050565b600082601f83011261396f5761396e613808565b5b600261397c8482856138fa565b91505092915050565b6000806060838503121561399c5761399b613774565b5b60006139aa8582860161395a565b92505060406139bb8582860161379c565b9150509250929050565b600060029050919050565b600081905092915050565b6000819050919050565b6139ee816138c4565b82525050565b6000613a0083836139e5565b60208301905092915050565b6000602082019050919050565b613a22816139c5565b613a2c81846139d0565b9250613a37826139db565b8060005b83811015613a68578151613a4f87826139f4565b9650613a5a83613a0c565b925050600181019050613a3b565b505050505050565b6000606082019050613a8560008301856137de565b613a926020830184613a19565b9392505050565b6000604082019050613aae60008301856137de565b613abb60208301846137de565b9392505050565b600082825260208201905092915050565b50565b6000613ae3600083613ac2565b9150613aee82613ad3565b600082019050919050565b60006020820190508181036000830152613b1281613ad6565b9050919050565b600081519050613b28816138ce565b92915050565b6000613b41613b3c84613899565b61387e565b90508060208402830185811115613b5b57613b5a6138bf565b5b835b81811015613b845780613b708882613b19565b845260208401935050602081019050613b5d565b5050509392505050565b600082601f830112613ba357613ba2613808565b5b6002613bb0848285613b2e565b91505092915050565b600060408284031215613bcf57613bce613774565b5b6000613bdd84828501613b8e565b91505092915050565b7f4e487b7100000000000000000000000000000000000000000000000000000000600052603260045260246000fd5b6000819050919050565b7f4e487b7100000000000000000000000000000000000000000000000000000000600052601160045260246000fd5b6000613c5982613c15565b9150613c6483613c15565b9250817f7fffffffffffffffffffffffffffffffffffffffffffffffffffffffffffffff03831360008312151615613c9f57613c9e613c1f565b5b817f8000000000000000000000000000000000000000000000000000000000000000038312600083121615613cd757613cd6613c1f565b5b828201905092915050565b613ceb81613c15565b82525050565b6000602082019050613d066000830184613ce2565b92915050565b613d1581613c15565b8114613d2057600080fd5b50565b600081519050613d3281613d0c565b92915050565b600060208284031215613d4e57613d4d613774565b5b6000613d5c84828501613d23565b91505092915050565b6000613d7082613c15565b9150613d7b83613c15565b9250827f800000000000000000000000000000000000000000000000000000000000000001821260008412151615613db657613db5613c1f565b5b827f7fffffffffffffffffffffffffffffffffffffffffffffffffffffffffffffff018213600084121615613dee57613ded613c1f565b5b828203905092915050565b6000604082019050613e0e6000830185613ce2565b613e1b6020830184613ce2565b9392505050565b6000608082019050613e376000830185613a19565b613e446040830184613a19565b9392505050565b600081519050613e5a81613785565b92915050565b60008060608385031215613e7757613e76613774565b5b6000613e8585828601613e4b565b9250506020613e9685828601613b8e565b9150509250929050565b600060208284031215613eb657613eb5613774565b5b6000613ec484828501613e4b565b91505092915050565b613ed6816138c4565b82525050565b6000604082019050613ef16000830185613ecd565b613efe6020830184613ecd565b9392505050565b600080fd5b600060408284031215613f2057613f1f613f05565b5b613f2a604061387e565b90506000613f3a84828501613b19565b6000830152506020613f4e84828501613e4b565b60208301525092915050565b600060408284031215613f7057613f6f613774565b5b6000613f7e84828501613f0a565b91505092915050565b6000602082019050613f9c6000830184613ecd565b92915050565b600067ffffffffffffffff821115613fbd57613fbc61381e565b5b602082029050919050565b6000613fdb613fd684613fa2565b61387e565b90508060208402830185811115613ff557613ff46138bf565b5b835b8181101561401e578061400a8882613e4b565b845260208401935050602081019050613ff7565b5050509392505050565b600082601f83011261403d5761403c613808565b5b600361404a848285613fc8565b91505092915050565b60006080828403121561406957614068613f05565b5b614073604061387e565b9050600061408384828501614028565b600083015250606061409784828501613b19565b60208301525092915050565b6000608082840312156140b9576140b8613774565b5b60006140c784828501614053565b91505092915050565b60006140db826138c4565b91506140e6836138c4565b9250827fffffffffffffffffffffffffffffffffffffffffffffffffffffffffffffffff0382111561411b5761411a613c1f565b5b828201905092915050565b6000614131826138c4565b915061413c836138c4565b92508282101561414f5761414e613c1f565b5b82820390509291505056fea2646970667358221220747d309d05b8c9aaf2cba8123b6ff9ac3bee4ec9da4da4bed62cd1e2d04ce31b64736f6c634300080d0033",
  "immutableReferences": {},
  "source": "//SPDX-License-Identifier: Unlicensed\npragma solidity ^0.8.13;\nimport './MoveController.sol';\nimport './MoveHandler.sol';\n/*\n    Creare le eccezioni per:        \n        [!]Randomicit tra colori, \n        [!!!]Gestione del Tempo,\n*/\ncontract ChessBoard {\n    uint public totalPrize;\n    address private turner;\n    struct _Rules{\n        bool[3] moves_directions;\n        uint maxsteps;\n    }\n    struct Box { \n        uint pedina;\n        bool color;\n    }\n    mapping(uint => _Rules) Rules;\n    mapping(bool => uint[2]) private kingpos;\n    mapping(bool => bool) public KingsFirstmove;\n    mapping(bool => mapping(bool => bool)) public TowersFirstmove;\n    mapping(bool => bool) public check;\n    mapping(address => bool) private teams;\n    mapping(bool => address) private players;\n    mapping(address => uint) public prizes;\n\n    Box[8][8] private Chessboard;\n    MoveController public Movecontroller;\n    MoveHandler public Movehandler;\n\n    modifier onlyYPayYPlay(bool team){ require(prizes[players[team]]>=prizes[players[!team]]-0.002 ether&&prizes[players[team]]<=prizes[players[!team]]+0.002 ether);_; }\n    modifier onlySpot{ require(msg.sender==players[true]||msg.sender==players[false]||msg.sender==address(Movehandler)||msg.sender==address(Movecontroller),'');_;}\n    modifier onlyPlayers{ require(msg.sender==players[true]||msg.sender==players[false],''); _; }\n    modifier onlyMoveHandler{ require(msg.sender==address(Movehandler),'');_; }\n    modifier onlyMoveController{ require(msg.sender==address(Movecontroller),'');_; }\n    //modifier yourTurn{ require(msg.sender==turner);_; }\n    modifier Movecontrol(uint[2] memory oldpos, uint[2] memory newpos){ require(Movecontroller.MoveControl(oldpos, newpos, teams[msg.sender], Rules[Chessboard[oldpos[0]][oldpos[1]].pedina].maxsteps),''); _; }\n\n    function isNotEvilBox(uint[2] memory newpos, bool team) public view returns(bool res) { { bool resEvilBox; uint[2] memory evilbox; (resEvilBox, evilbox)=Movehandler.isEvilBox(newpos, team); if(!resEvilBox){ res=true; } else{ res=false; }}}//LOGICAMENTE COLLAUDATO\n    function setKing(uint[2] memory pos) internal { kingpos[teams[msg.sender]] = pos; }\n    modifier isSetKing(uint[2] memory oldpos, uint[2] memory newpos) { \n        if(  Chessboard[oldpos[0]][oldpos[1]].pedina==5  ){ \n            require(isNotEvilBox(newpos, teams[msg.sender]),'');\n            setKing(newpos);\n        }_;\n    }  \n    \n    function setCheck(bool _check) private { check[!teams[msg.sender]]=_check; }\n    modifier isSetCheck(uint[2] memory newpos){ \n        bool obs;(obs, ) = Movecontroller.isObstacled(newpos, kingpos[!teams[msg.sender]]);\n        if(  Movecontroller.Direction(newpos, kingpos[!teams[msg.sender]])&&obs  ){ \n            setCheck(true);\n        }_;\n    }\n    modifier PedestrianToQueen(uint[2] memory oldpos, uint[2] memory newpos){\n        if(teams[msg.sender]&&Chessboard[oldpos[0]][oldpos[1]].pedina==1&&newpos[0]==0){ Chessboard[oldpos[0]][oldpos[1]].pedina=6; }\n        else if(!teams[msg.sender]&&Chessboard[oldpos[0]][oldpos[1]].pedina==1&&newpos[0]==7){ Chessboard[oldpos[0]][oldpos[1]].pedina=6; }\n        _;\n    }\n\n    function getPlayer(bool team) public view returns(address _player) { _player = players[team]; }\n    function getTeam(address _player) public view /*onlyPlayers*/ returns(bool team){ team=teams[_player]; }\n    function getRules(uint pedina) public view /*onlySpot*/ returns(_Rules memory rule){ rule = Rules[pedina]; }\n    function getBox(uint i, uint j) public view returns(Box memory box){ box = Chessboard[i][j]; }\n    function getKing(bool team) public view returns(uint[2] memory pos){ pos = kingpos[team]; }\n    function getCheck(bool _player) public view returns(bool res){ res = check[_player];}\n\n    function Move(uint[2] memory oldpos, uint[2] memory newpos) public\n        /*onlyYPayYPlay(teams[msg.sender])*/\n        /*onlyPlayers*/ /*yourTurn*/ \n        /*Movecontrol(oldpos, newpos) \n        PedestrianToQueen(oldpos, newpos)\n        isSetKing(oldpos, newpos)\n        isSetCheck(oldpos)*/\n        returns(bool res){\n            bool isArrocco = false;\n            \n            /*if(oldpos[0]==0&&oldpos[1]==4&&Chessboard[0][4].pedina==5&&!KingsFirstmove[false]  ){\n                if( newpos[0]==oldpos[0]&&newpos[1]==oldpos[1]+2&&Chessboard[0][7].pedina==2&&!TowersFirstmove[false][true] ){\n                    Chessboard[oldpos[0]][oldpos[1]] = Box(0, false);\n                    Chessboard[oldpos[0]][oldpos[1]+2] = Box(5, false);\n                    Chessboard[oldpos[0]][oldpos[1]+1] = Box(2, false);\n                    isArrocco=true;\n                }\n                else if( newpos[0]==oldpos[0]&&newpos[1]==oldpos[1]-2&&Chessboard[0][0].pedina==2&&!TowersFirstmove[false][false] ){\n                    Chessboard[oldpos[0]][oldpos[1]] = Box(0, false);\n                    Chessboard[oldpos[0]][oldpos[1]-2] = Box(5, false);\n                    Chessboard[oldpos[0]][oldpos[1]-1] = Box(2, false);\n                    isArrocco=true;\n                }\n                \n            }\n            else if(oldpos[0]==7&&oldpos[1]==3&&Chessboard[7][3].pedina==5&&!KingsFirstmove[true]){\n                if( newpos[0]==oldpos[0]&&newpos[1]==oldpos[1]+2&&Chessboard[7][7].pedina==2&&!TowersFirstmove[true][true] ){\n                    Chessboard[oldpos[0]][oldpos[1]] = Box(0, true);\n                    Chessboard[oldpos[0]][oldpos[1]+2] = Box(5, true);\n                    Chessboard[oldpos[0]][oldpos[1]+1] = Box(2, true);\n                    isArrocco=true;\n\n                }\n                else if( newpos[0]==oldpos[0]&&newpos[1]==oldpos[1]-2&&Chessboard[7][0].pedina==2&&!TowersFirstmove[true][false] ){\n                    Chessboard[oldpos[0]][oldpos[1]] = Box(0, true);\n                    Chessboard[oldpos[0]][oldpos[1]-2] = Box(5, true);\n                    Chessboard[oldpos[0]][oldpos[1]-1] = Box(2, true);                    \n                    isArrocco=true;\n                }\n            }   \n            bool ischeck;bool nopos;\n            (ischeck, nopos) = Movehandler.isCheckMate(teams[msg.sender]);\n            if(ischeck&&nopos){ \n                if(msg.sender==players[true]) { selfdestruct(payable(players[false])); }\n                else if(msg.sender==players[false]) { selfdestruct(payable(players[true])); }\n            }\n            else if(!ischeck&&!nopos&&!isArrocco){\n                Chessboard[newpos[0]][newpos[1]] = Chessboard[oldpos[0]][oldpos[1]];\n                Chessboard[oldpos[0]][oldpos[1]] = Box(0, false);\n                turner = players[!teams[msg.sender]];\n            }\n            else if(!ischeck&&nopos){ \n                if(msg.sender==players[true]) { payable(players[false]).transfer(prizes[players[false]]); }\n                else if(msg.sender==players[false]) {  payable(players[true]).transfer(prizes[players[true]]); }\n                selfdestruct(payable(players[true]));\n            }\n\n            if(  Chessboard[oldpos[0]][oldpos[1]].pedina==5  ){ KingsFirstmove[teams[msg.sender]]=true; }\n            if(Chessboard[oldpos[0]][oldpos[1]].pedina==2){\n                if( (oldpos[0]==0&&oldpos[1]==0)&&teams[msg.sender] ){ TowersFirstmove[teams[msg.sender]][true] = true; }\n                else if( (oldpos[0]==0&&oldpos[1]==7)&&teams[msg.sender] ){ TowersFirstmove[teams[msg.sender]][false] = true; }\n\n                if( (oldpos[0]==7&&oldpos[1]==0)&&!teams[msg.sender] ){ TowersFirstmove[teams[msg.sender]][true] = true; }\n                else if( (oldpos[0]==7&&oldpos[1]==7)&&!teams[msg.sender] ){ TowersFirstmove[teams[msg.sender]][false] = true; }\n            }*/\n            res = true;\n        }\n\n    constructor(address _player1, address _player2) {\n        Movecontroller = new MoveController(payable(address(this)));\n        Movehandler = new MoveHandler(address(Movecontroller), payable(address(this)));\n\n        players[true] = _player1;\n        players[false] = _player2;\n        turner = _player1; //Turno\n        //Inserire Randomicit\n        teams[players[true]] = true;\n        teams[players[false]] = false;\n\n        kingpos[teams[players[true]]] = [7,3];\n        kingpos[teams[players[false]]] = [0,4]; \n\n        check[teams[players[true]]] = false;\n        check[teams[players[false]]] = false;\n\n        KingsFirstmove[teams[players[true]]] = false;\n        KingsFirstmove[teams[players[false]]] = false;\n        TowersFirstmove[teams[players[true]]][false] = false;\n        TowersFirstmove[teams[players[true]]][true] = false;\n        TowersFirstmove[teams[players[false]]][false] = false;\n        TowersFirstmove[teams[players[false]]][true] = false;\n\n        Rules[0] = _Rules([false, false, false], 0);//NULL\n        Rules[1] = _Rules([true, false, false], 1);//PEDONE\n        Rules[2] = _Rules([true, true, false], 8);//TORRE\n        Rules[3] = _Rules([false, false, false], 4);//CAVALLO\n        Rules[4] = _Rules([false, false, true], 8);//ALFIERE\n        Rules[5] = _Rules([true, true, true], 1);//RE\n        Rules[6] = _Rules([true, true, true], 8);//REGINA\n\n        Chessboard[0][0] = Box(2, false);\n        Chessboard[1][0] = Box(3, false);\n        Chessboard[2][0] = Box(4, false);\n        Chessboard[3][0] = Box(6, false);\n        Chessboard[4][0] = Box(5, false);\n        Chessboard[5][0] = Box(4, false);\n        Chessboard[6][0] = Box(3, false);\n        Chessboard[7][0] = Box(2, false);\n\n        Chessboard[0][1] = Box(1, false);\n        Chessboard[1][1] = Box(1, false);\n        Chessboard[2][1] = Box(1, false);\n        Chessboard[3][1] = Box(1, false);\n        Chessboard[4][1] = Box(1, false);\n        Chessboard[5][1] = Box(1, false);\n        Chessboard[6][1] = Box(1, false);\n        Chessboard[7][1] = Box(1, false);\n\n        Chessboard[0][6] = Box(1, true);\n        Chessboard[1][6] = Box(1, true);\n        Chessboard[2][6] = Box(1, true);\n        Chessboard[3][6] = Box(1, true);\n        Chessboard[4][6] = Box(1, true);\n        Chessboard[5][6] = Box(1, true);\n        Chessboard[6][6] = Box(1, true);\n        Chessboard[7][6] = Box(1, true);\n    \n        Chessboard[0][7] = Box(2, true);\n        Chessboard[1][7] = Box(3, true);\n        Chessboard[2][7] = Box(4, true);\n        Chessboard[3][7] = Box(5, true);\n        Chessboard[4][7] = Box(6, true);\n        Chessboard[5][7] = Box(4, true);\n        Chessboard[6][7] = Box(3, true);\n        Chessboard[7][7] = Box(2, true);\n\n        /*TESTING MOCHA TOGLIERE DAL CAZZO\n        Chessboard[5][5] = Box(1, true);\n        Chessboard[5][1] = Box(1, true);\n        Chessboard[5][3] = Box(2, true);\n        Chessboard[4][3] = Box(2, true);\n        Chessboard[2][6] = Box(2, true);\n\n        Chessboard[7][7] = Box(4,true);\n        Chessboard[6][6] = Box(0,false);\n\n        Chessboard[1][4] = Box(2,false);\n        Chessboard[3][4] = Box(0,false);\n        Chessboard[3][5] = Box(0,false);\n        Chessboard[3][6] = Box(2,false);\n\n        Chessboard[5][1] = Box(1, true);\n        Chessboard[3][0] = Box(1, false);\n\n        Chessboard[6][5] = Box(1, false);\n        Chessboard[1][5] = Box(1, true);\n\n        Chessboard[7][5] = Box(0, false);\n        Chessboard[0][5] = Box(0, false);\n\n        Chessboard[0][1] = Box(0, false);\n        Chessboard[0][2] = Box(0, false);\n        Chessboard[0][3] = Box(0, false);\n        Chessboard[0][5] = Box(0, false);\n        Chessboard[0][6] = Box(0, false);*/\n        //TESTING MOCHA TOGLIERE DAL CAZZO\n    }\n    receive() external payable onlyPlayers{\n        prizes[msg.sender] = msg.value;\n        totalPrize+=msg.value;\n    }\n} ",
  "sourcePath": "/home/peterbruegel/GitHub/chessboard.io/contracts/ChessBoard.sol",
  "compiler": {
    "name": "solc",
    "version": "0.8.13+commit.abaa5c0e.Emscripten.clang"
  },
  "schemaVersion": "3.4.5",
  "updatedAt": "2022-07-20T12:44:39.622Z",
  "devdoc": {
    "kind": "dev",
    "methods": {},
    "version": 1
  },
  "userdoc": {
    "kind": "user",
    "methods": {},
    "version": 1
  }
}