{
  "contractName": "MoveHandler",
  "abi": [
    {
      "inputs": [
        {
          "internalType": "address",
          "name": "_gamecontrol",
          "type": "address"
        },
        {
          "internalType": "address payable",
          "name": "_chessboard",
          "type": "address"
        }
      ],
      "stateMutability": "nonpayable",
      "type": "constructor"
    },
    {
      "inputs": [
        {
          "internalType": "bool",
          "name": "team",
          "type": "bool"
        }
      ],
      "name": "isCheckMate",
      "outputs": [
        {
          "internalType": "bool",
          "name": "res",
          "type": "bool"
        },
        {
          "internalType": "bool",
          "name": "nopos",
          "type": "bool"
        }
      ],
      "stateMutability": "view",
      "type": "function"
    },
    {
      "inputs": [
        {
          "internalType": "bool",
          "name": "team",
          "type": "bool"
        }
      ],
      "name": "NoMorePos",
      "outputs": [
        {
          "internalType": "bool",
          "name": "",
          "type": "bool"
        }
      ],
      "stateMutability": "view",
      "type": "function"
    },
    {
      "inputs": [
        {
          "internalType": "uint256[2]",
          "name": "newpos",
          "type": "uint256[2]"
        },
        {
          "internalType": "bool",
          "name": "team",
          "type": "bool"
        }
      ],
      "name": "isEvilBox",
      "outputs": [
        {
          "internalType": "bool",
          "name": "res",
          "type": "bool"
        },
        {
          "internalType": "uint256[2]",
          "name": "pos",
          "type": "uint256[2]"
        }
      ],
      "stateMutability": "view",
      "type": "function"
    }
  ],
  "bytecode": "0x60806040523480156200001157600080fd5b50604051620043563803806200435683398181016040528101906200003791906200016f565b816000806101000a81548173ffffffffffffffffffffffffffffffffffffffff021916908373ffffffffffffffffffffffffffffffffffffffff16021790555080600160006101000a81548173ffffffffffffffffffffffffffffffffffffffff021916908373ffffffffffffffffffffffffffffffffffffffff1602179055505050620001b6565b600080fd5b600073ffffffffffffffffffffffffffffffffffffffff82169050919050565b6000620000f282620000c5565b9050919050565b6200010481620000e5565b81146200011057600080fd5b50565b6000815190506200012481620000f9565b92915050565b60006200013782620000c5565b9050919050565b62000149816200012a565b81146200015557600080fd5b50565b60008151905062000169816200013e565b92915050565b60008060408385031215620001895762000188620000c0565b5b6000620001998582860162000113565b9250506020620001ac8582860162000158565b9150509250929050565b61419080620001c66000396000f3fe608060405234801561001057600080fd5b50600436106100415760003560e01c8063155b47e8146100465780632f1d8074146100765780638b69cfad146100a7575b600080fd5b610060600480360381019061005b91906137b1565b6100d8565b60405161006d91906137ed565b60405180910390f35b610090600480360381019061008b9190613985565b610cf5565b60405161009e929190613a70565b60405180910390f35b6100c160048036038101906100bc91906137b1565b6135b7565b6040516100cf929190613a99565b60405180910390f35b6000600160009054906101000a900473ffffffffffffffffffffffffffffffffffffffff1673ffffffffffffffffffffffffffffffffffffffff163373ffffffffffffffffffffffffffffffffffffffff161461016a576040517f08c379a000000000000000000000000000000000000000000000000000000000815260040161016190613af9565b60405180910390fd5b6000600160009054906101000a900473ffffffffffffffffffffffffffffffffffffffff1673ffffffffffffffffffffffffffffffffffffffff1663915b740d846040518263ffffffff1660e01b81526004016101c791906137ed565b6040805180830381865afa1580156101e3573d6000803e3d6000fd5b505050506040513d601f19601f820116820180604052508101906102079190613bb9565b9050610211613748565b600080600080600080600080610310604051806040016040528060008054906101000a900473ffffffffffffffffffffffffffffffffffffffff1673ffffffffffffffffffffffffffffffffffffffff1663bac3511960018f60006002811061027d5761027c613be6565b5b602002015161028c9190613c4e565b6040518263ffffffff1660e01b81526004016102a89190613cf1565b602060405180830381865afa1580156102c5573d6000803e3d6000fd5b505050506040513d601f19601f820116820180604052508101906102e99190613d38565b81526020018c60016002811061030257610301613be6565b5b60200201518152508d610cf5565b809a50819950505061040b604051806040016040528060008054906101000a900473ffffffffffffffffffffffffffffffffffffffff1673ffffffffffffffffffffffffffffffffffffffff1663ee0b07e060018f60006002811061037857610377613be6565b5b60200201516103879190613d65565b6040518263ffffffff1660e01b81526004016103a39190613cf1565b602060405180830381865afa1580156103c0573d6000803e3d6000fd5b505050506040513d601f19601f820116820180604052508101906103e49190613d38565b81526020018c6001600281106103fd576103fc613be6565b5b60200201518152508d610cf5565b809a50819950505061050660405180604001604052808c60006002811061043557610434613be6565b5b6020020151815260200160008054906101000a900473ffffffffffffffffffffffffffffffffffffffff1673ffffffffffffffffffffffffffffffffffffffff1663bac3511960018f60016002811061049157610490613be6565b5b60200201516104a09190613c4e565b6040518263ffffffff1660e01b81526004016104bc9190613cf1565b602060405180830381865afa1580156104d9573d6000803e3d6000fd5b505050506040513d601f19601f820116820180604052508101906104fd9190613d38565b8152508d610cf5565b809a50819950505061060160405180604001604052808c6000600281106105305761052f613be6565b5b6020020151815260200160008054906101000a900473ffffffffffffffffffffffffffffffffffffffff1673ffffffffffffffffffffffffffffffffffffffff1663bac3511960018f60016002811061058c5761058b613be6565b5b602002015161059b9190613d65565b6040518263ffffffff1660e01b81526004016105b79190613cf1565b602060405180830381865afa1580156105d4573d6000803e3d6000fd5b505050506040513d601f19601f820116820180604052508101906105f89190613d38565b8152508d610cf5565b809a5081995050506107a1604051806040016040528060008054906101000a900473ffffffffffffffffffffffffffffffffffffffff1673ffffffffffffffffffffffffffffffffffffffff1663bac3511960018f60006002811061066957610668613be6565b5b60200201516106789190613c4e565b6040518263ffffffff1660e01b81526004016106949190613cf1565b602060405180830381865afa1580156106b1573d6000803e3d6000fd5b505050506040513d601f19601f820116820180604052508101906106d59190613d38565b815260200160008054906101000a900473ffffffffffffffffffffffffffffffffffffffff1673ffffffffffffffffffffffffffffffffffffffff1663bac3511960018f60016002811061072c5761072b613be6565b5b602002015161073b9190613c4e565b6040518263ffffffff1660e01b81526004016107579190613cf1565b602060405180830381865afa158015610774573d6000803e3d6000fd5b505050506040513d601f19601f820116820180604052508101906107989190613d38565b8152508d610cf5565b809a508199505050610941604051806040016040528060008054906101000a900473ffffffffffffffffffffffffffffffffffffffff1673ffffffffffffffffffffffffffffffffffffffff1663bac3511960018f60006002811061080957610808613be6565b5b60200201516108189190613c4e565b6040518263ffffffff1660e01b81526004016108349190613cf1565b602060405180830381865afa158015610851573d6000803e3d6000fd5b505050506040513d601f19601f820116820180604052508101906108759190613d38565b815260200160008054906101000a900473ffffffffffffffffffffffffffffffffffffffff1673ffffffffffffffffffffffffffffffffffffffff1663bac3511960018f6001600281106108cc576108cb613be6565b5b60200201516108db9190613d65565b6040518263ffffffff1660e01b81526004016108f79190613cf1565b602060405180830381865afa158015610914573d6000803e3d6000fd5b505050506040513d601f19601f820116820180604052508101906109389190613d38565b8152508d610cf5565b809a508199505050610ae1604051806040016040528060008054906101000a900473ffffffffffffffffffffffffffffffffffffffff1673ffffffffffffffffffffffffffffffffffffffff1663bac3511960018f6000600281106109a9576109a8613be6565b5b60200201516109b89190613d65565b6040518263ffffffff1660e01b81526004016109d49190613cf1565b602060405180830381865afa1580156109f1573d6000803e3d6000fd5b505050506040513d601f19601f82011682018060405250810190610a159190613d38565b815260200160008054906101000a900473ffffffffffffffffffffffffffffffffffffffff1673ffffffffffffffffffffffffffffffffffffffff1663bac3511960018f600160028110610a6c57610a6b613be6565b5b6020020151610a7b9190613c4e565b6040518263ffffffff1660e01b8152600401610a979190613cf1565b602060405180830381865afa158015610ab4573d6000803e3d6000fd5b505050506040513d601f19601f82011682018060405250810190610ad89190613d38565b8152508d610cf5565b809a508199505050610c81604051806040016040528060008054906101000a900473ffffffffffffffffffffffffffffffffffffffff1673ffffffffffffffffffffffffffffffffffffffff1663bac3511960018f600060028110610b4957610b48613be6565b5b6020020151610b589190613d65565b6040518263ffffffff1660e01b8152600401610b749190613cf1565b602060405180830381865afa158015610b91573d6000803e3d6000fd5b505050506040513d601f19601f82011682018060405250810190610bb59190613d38565b815260200160008054906101000a900473ffffffffffffffffffffffffffffffffffffffff1673ffffffffffffffffffffffffffffffffffffffff1663bac3511960018f600160028110610c0c57610c0b613be6565b5b6020020151610c1b9190613d65565b6040518263ffffffff1660e01b8152600401610c379190613cf1565b602060405180830381865afa158015610c54573d6000803e3d6000fd5b505050506040513d601f19601f82011682018060405250810190610c789190613d38565b8152508d610cf5565b809a508199505050878015610c935750865b8015610c9c5750855b8015610ca55750845b8015610cae5750835b8015610cb75750825b8015610cc05750815b8015610cc95750805b15610ce15760019a5050505050505050505050610cf0565b60009a50505050505050505050505b919050565b6000610cff613748565b60008060009054906101000a900473ffffffffffffffffffffffffffffffffffffffff1673ffffffffffffffffffffffffffffffffffffffff166329aa9cbe60008054906101000a900473ffffffffffffffffffffffffffffffffffffffff1673ffffffffffffffffffffffffffffffffffffffff166329aa9cbe88600060028110610d8e57610d8d613be6565b5b602002015189600060028110610da757610da6613be6565b5b60200201516007610db89190613d65565b6040518363ffffffff1660e01b8152600401610dd5929190613df9565b602060405180830381865afa158015610df2573d6000803e3d6000fd5b505050506040513d601f19601f82011682018060405250810190610e169190613d38565b60008054906101000a900473ffffffffffffffffffffffffffffffffffffffff1673ffffffffffffffffffffffffffffffffffffffff166329aa9cbe89600160028110610e6657610e65613be6565b5b60200201518a600160028110610e7f57610e7e613be6565b5b60200201516007610e909190613d65565b6040518363ffffffff1660e01b8152600401610ead929190613df9565b602060405180830381865afa158015610eca573d6000803e3d6000fd5b505050506040513d601f19601f82011682018060405250810190610eee9190613d38565b6040518363ffffffff1660e01b8152600401610f0b929190613df9565b602060405180830381865afa158015610f28573d6000803e3d6000fd5b505050506040513d601f19601f82011682018060405250810190610f4c9190613d38565b905060008054906101000a900473ffffffffffffffffffffffffffffffffffffffff1673ffffffffffffffffffffffffffffffffffffffff166371cc5ad18660405180604001604052806000815260200189600160028110610fb157610fb0613be6565b5b60200201518152506040518363ffffffff1660e01b8152600401610fd6929190613e22565b606060405180830381865afa158015610ff3573d6000803e3d6000fd5b505050506040513d601f19601f820116820180604052508101906110179190613e60565b8093508194505050821580156110c5575060008054906101000a900473ffffffffffffffffffffffffffffffffffffffff1673ffffffffffffffffffffffffffffffffffffffff1663ac411ce683876040518363ffffffff1660e01b8152600401611083929190613e22565b602060405180830381865afa1580156110a0573d6000803e3d6000fd5b505050506040513d601f19601f820116820180604052508101906110c49190613ea0565b5b8015611314575060008054906101000a900473ffffffffffffffffffffffffffffffffffffffff1673ffffffffffffffffffffffffffffffffffffffff16631b5ac4b58660006002811061111c5761111b613be6565b5b60200201518460006002811061113557611134613be6565b5b60200201516111449190613d65565b6040518263ffffffff1660e01b81526004016111609190613cf1565b602060405180830381865afa15801561117d573d6000803e3d6000fd5b505050506040513d601f19601f820116820180604052508101906111a19190613d38565b600160009054906101000a900473ffffffffffffffffffffffffffffffffffffffff1673ffffffffffffffffffffffffffffffffffffffff16638f7daf0f600160009054906101000a900473ffffffffffffffffffffffffffffffffffffffff1673ffffffffffffffffffffffffffffffffffffffff16631feeef988660006002811061123157611230613be6565b5b60200201518760016002811061124a57611249613be6565b5b60200201516040518363ffffffff1660e01b815260040161126c929190613edc565b6040805180830381865afa158015611288573d6000803e3d6000fd5b505050506040513d601f19601f820116820180604052508101906112ac9190613f5a565b600001516040518263ffffffff1660e01b81526004016112cc9190613f87565b608060405180830381865afa1580156112e9573d6000803e3d6000fd5b505050506040513d601f19601f8201168201806040525081019061130d91906140a3565b6020015110155b80156113f45750831515600160009054906101000a900473ffffffffffffffffffffffffffffffffffffffff1673ffffffffffffffffffffffffffffffffffffffff16631feeef98846000600281106113705761136f613be6565b5b60200201518560016002811061138957611388613be6565b5b60200201516040518363ffffffff1660e01b81526004016113ab929190613edc565b6040805180830381865afa1580156113c7573d6000803e3d6000fd5b505050506040513d601f19601f820116820180604052508101906113eb9190613f5a565b60200151151514155b156114035760019250506135b0565b60008054906101000a900473ffffffffffffffffffffffffffffffffffffffff1673ffffffffffffffffffffffffffffffffffffffff166371cc5ad1866040518060400160405280600781526020018960016002811061146657611465613be6565b5b60200201518152506040518363ffffffff1660e01b815260040161148b929190613e22565b606060405180830381865afa1580156114a8573d6000803e3d6000fd5b505050506040513d601f19601f820116820180604052508101906114cc9190613e60565b80935081945050508215801561157a575060008054906101000a900473ffffffffffffffffffffffffffffffffffffffff1673ffffffffffffffffffffffffffffffffffffffff1663ac411ce683876040518363ffffffff1660e01b8152600401611538929190613e22565b602060405180830381865afa158015611555573d6000803e3d6000fd5b505050506040513d601f19601f820116820180604052508101906115799190613ea0565b5b80156117c9575060008054906101000a900473ffffffffffffffffffffffffffffffffffffffff1673ffffffffffffffffffffffffffffffffffffffff16631b5ac4b5866000600281106115d1576115d0613be6565b5b6020020151846000600281106115ea576115e9613be6565b5b60200201516115f99190613d65565b6040518263ffffffff1660e01b81526004016116159190613cf1565b602060405180830381865afa158015611632573d6000803e3d6000fd5b505050506040513d601f19601f820116820180604052508101906116569190613d38565b600160009054906101000a900473ffffffffffffffffffffffffffffffffffffffff1673ffffffffffffffffffffffffffffffffffffffff16638f7daf0f600160009054906101000a900473ffffffffffffffffffffffffffffffffffffffff1673ffffffffffffffffffffffffffffffffffffffff16631feeef98866000600281106116e6576116e5613be6565b5b6020020151876001600281106116ff576116fe613be6565b5b60200201516040518363ffffffff1660e01b8152600401611721929190613edc565b6040805180830381865afa15801561173d573d6000803e3d6000fd5b505050506040513d601f19601f820116820180604052508101906117619190613f5a565b600001516040518263ffffffff1660e01b81526004016117819190613f87565b608060405180830381865afa15801561179e573d6000803e3d6000fd5b505050506040513d601f19601f820116820180604052508101906117c291906140a3565b6020015110155b80156118a95750831515600160009054906101000a900473ffffffffffffffffffffffffffffffffffffffff1673ffffffffffffffffffffffffffffffffffffffff16631feeef988460006002811061182557611824613be6565b5b60200201518560016002811061183e5761183d613be6565b5b60200201516040518363ffffffff1660e01b8152600401611860929190613edc565b6040805180830381865afa15801561187c573d6000803e3d6000fd5b505050506040513d601f19601f820116820180604052508101906118a09190613f5a565b60200151151514155b156118b85760019250506135b0565b60008054906101000a900473ffffffffffffffffffffffffffffffffffffffff1673ffffffffffffffffffffffffffffffffffffffff166371cc5ad18660405180604001604052808960006002811061191457611913613be6565b5b6020020151815260200160008152506040518363ffffffff1660e01b8152600401611940929190613e22565b606060405180830381865afa15801561195d573d6000803e3d6000fd5b505050506040513d601f19601f820116820180604052508101906119819190613e60565b809350819450505082158015611a2f575060008054906101000a900473ffffffffffffffffffffffffffffffffffffffff1673ffffffffffffffffffffffffffffffffffffffff1663ac411ce683876040518363ffffffff1660e01b81526004016119ed929190613e22565b602060405180830381865afa158015611a0a573d6000803e3d6000fd5b505050506040513d601f19601f82011682018060405250810190611a2e9190613ea0565b5b8015611c7e575060008054906101000a900473ffffffffffffffffffffffffffffffffffffffff1673ffffffffffffffffffffffffffffffffffffffff16631b5ac4b586600160028110611a8657611a85613be6565b5b602002015184600160028110611a9f57611a9e613be6565b5b6020020151611aae9190613d65565b6040518263ffffffff1660e01b8152600401611aca9190613cf1565b602060405180830381865afa158015611ae7573d6000803e3d6000fd5b505050506040513d601f19601f82011682018060405250810190611b0b9190613d38565b600160009054906101000a900473ffffffffffffffffffffffffffffffffffffffff1673ffffffffffffffffffffffffffffffffffffffff16638f7daf0f600160009054906101000a900473ffffffffffffffffffffffffffffffffffffffff1673ffffffffffffffffffffffffffffffffffffffff16631feeef9886600060028110611b9b57611b9a613be6565b5b602002015187600160028110611bb457611bb3613be6565b5b60200201516040518363ffffffff1660e01b8152600401611bd6929190613edc565b6040805180830381865afa158015611bf2573d6000803e3d6000fd5b505050506040513d601f19601f82011682018060405250810190611c169190613f5a565b600001516040518263ffffffff1660e01b8152600401611c369190613f87565b608060405180830381865afa158015611c53573d6000803e3d6000fd5b505050506040513d601f19601f82011682018060405250810190611c7791906140a3565b6020015110155b8015611d5e5750831515600160009054906101000a900473ffffffffffffffffffffffffffffffffffffffff1673ffffffffffffffffffffffffffffffffffffffff16631feeef9884600060028110611cda57611cd9613be6565b5b602002015185600160028110611cf357611cf2613be6565b5b60200201516040518363ffffffff1660e01b8152600401611d15929190613edc565b6040805180830381865afa158015611d31573d6000803e3d6000fd5b505050506040513d601f19601f82011682018060405250810190611d559190613f5a565b60200151151514155b15611d6d5760019250506135b0565b60008054906101000a900473ffffffffffffffffffffffffffffffffffffffff1673ffffffffffffffffffffffffffffffffffffffff166371cc5ad186604051806040016040528089600060028110611dc957611dc8613be6565b5b6020020151815260200160078152506040518363ffffffff1660e01b8152600401611df5929190613e22565b606060405180830381865afa158015611e12573d6000803e3d6000fd5b505050506040513d601f19601f82011682018060405250810190611e369190613e60565b809350819450505082158015611ee4575060008054906101000a900473ffffffffffffffffffffffffffffffffffffffff1673ffffffffffffffffffffffffffffffffffffffff1663ac411ce683876040518363ffffffff1660e01b8152600401611ea2929190613e22565b602060405180830381865afa158015611ebf573d6000803e3d6000fd5b505050506040513d601f19601f82011682018060405250810190611ee39190613ea0565b5b8015612133575060008054906101000a900473ffffffffffffffffffffffffffffffffffffffff1673ffffffffffffffffffffffffffffffffffffffff16631b5ac4b586600160028110611f3b57611f3a613be6565b5b602002015184600160028110611f5457611f53613be6565b5b6020020151611f639190613d65565b6040518263ffffffff1660e01b8152600401611f7f9190613cf1565b602060405180830381865afa158015611f9c573d6000803e3d6000fd5b505050506040513d601f19601f82011682018060405250810190611fc09190613d38565b600160009054906101000a900473ffffffffffffffffffffffffffffffffffffffff1673ffffffffffffffffffffffffffffffffffffffff16638f7daf0f600160009054906101000a900473ffffffffffffffffffffffffffffffffffffffff1673ffffffffffffffffffffffffffffffffffffffff16631feeef98866000600281106120505761204f613be6565b5b60200201518760016002811061206957612068613be6565b5b60200201516040518363ffffffff1660e01b815260040161208b929190613edc565b6040805180830381865afa1580156120a7573d6000803e3d6000fd5b505050506040513d601f19601f820116820180604052508101906120cb9190613f5a565b600001516040518263ffffffff1660e01b81526004016120eb9190613f87565b608060405180830381865afa158015612108573d6000803e3d6000fd5b505050506040513d601f19601f8201168201806040525081019061212c91906140a3565b6020015110155b80156122135750831515600160009054906101000a900473ffffffffffffffffffffffffffffffffffffffff1673ffffffffffffffffffffffffffffffffffffffff16631feeef988460006002811061218f5761218e613be6565b5b6020020151856001600281106121a8576121a7613be6565b5b60200201516040518363ffffffff1660e01b81526004016121ca929190613edc565b6040805180830381865afa1580156121e6573d6000803e3d6000fd5b505050506040513d601f19601f8201168201806040525081019061220a9190613f5a565b60200151151514155b156122225760019250506135b0565b60008054906101000a900473ffffffffffffffffffffffffffffffffffffffff1673ffffffffffffffffffffffffffffffffffffffff166371cc5ad1866040518060400160405280858a60006002811061227f5761227e613be6565b5b602002015161228e91906140d0565b8152602001858a6001600281106122a8576122a7613be6565b5b60200201516122b79190614126565b8152506040518363ffffffff1660e01b81526004016122d7929190613e22565b606060405180830381865afa1580156122f4573d6000803e3d6000fd5b505050506040513d601f19601f820116820180604052508101906123189190613e60565b8093508194505050821580156123c6575060008054906101000a900473ffffffffffffffffffffffffffffffffffffffff1673ffffffffffffffffffffffffffffffffffffffff1663ac411ce683876040518363ffffffff1660e01b8152600401612384929190613e22565b602060405180830381865afa1580156123a1573d6000803e3d6000fd5b505050506040513d601f19601f820116820180604052508101906123c59190613ea0565b5b8015612615575060008054906101000a900473ffffffffffffffffffffffffffffffffffffffff1673ffffffffffffffffffffffffffffffffffffffff16631b5ac4b58660016002811061241d5761241c613be6565b5b60200201518460016002811061243657612435613be6565b5b60200201516124459190613d65565b6040518263ffffffff1660e01b81526004016124619190613cf1565b602060405180830381865afa15801561247e573d6000803e3d6000fd5b505050506040513d601f19601f820116820180604052508101906124a29190613d38565b600160009054906101000a900473ffffffffffffffffffffffffffffffffffffffff1673ffffffffffffffffffffffffffffffffffffffff16638f7daf0f600160009054906101000a900473ffffffffffffffffffffffffffffffffffffffff1673ffffffffffffffffffffffffffffffffffffffff16631feeef988660006002811061253257612531613be6565b5b60200201518760016002811061254b5761254a613be6565b5b60200201516040518363ffffffff1660e01b815260040161256d929190613edc565b6040805180830381865afa158015612589573d6000803e3d6000fd5b505050506040513d601f19601f820116820180604052508101906125ad9190613f5a565b600001516040518263ffffffff1660e01b81526004016125cd9190613f87565b608060405180830381865afa1580156125ea573d6000803e3d6000fd5b505050506040513d601f19601f8201168201806040525081019061260e91906140a3565b6020015110155b80156126f55750831515600160009054906101000a900473ffffffffffffffffffffffffffffffffffffffff1673ffffffffffffffffffffffffffffffffffffffff16631feeef988460006002811061267157612670613be6565b5b60200201518560016002811061268a57612689613be6565b5b60200201516040518363ffffffff1660e01b81526004016126ac929190613edc565b6040805180830381865afa1580156126c8573d6000803e3d6000fd5b505050506040513d601f19601f820116820180604052508101906126ec9190613f5a565b60200151151514155b156127045760019250506135b0565b60008054906101000a900473ffffffffffffffffffffffffffffffffffffffff1673ffffffffffffffffffffffffffffffffffffffff166371cc5ad1866040518060400160405280858a60006002811061276157612760613be6565b5b60200201516127709190614126565b8152602001858a60016002811061278a57612789613be6565b5b60200201516127999190614126565b8152506040518363ffffffff1660e01b81526004016127b9929190613e22565b606060405180830381865afa1580156127d6573d6000803e3d6000fd5b505050506040513d601f19601f820116820180604052508101906127fa9190613e60565b8093508194505050821580156128a8575060008054906101000a900473ffffffffffffffffffffffffffffffffffffffff1673ffffffffffffffffffffffffffffffffffffffff1663ac411ce683876040518363ffffffff1660e01b8152600401612866929190613e22565b602060405180830381865afa158015612883573d6000803e3d6000fd5b505050506040513d601f19601f820116820180604052508101906128a79190613ea0565b5b8015612af7575060008054906101000a900473ffffffffffffffffffffffffffffffffffffffff1673ffffffffffffffffffffffffffffffffffffffff16631b5ac4b5866001600281106128ff576128fe613be6565b5b60200201518460016002811061291857612917613be6565b5b60200201516129279190613d65565b6040518263ffffffff1660e01b81526004016129439190613cf1565b602060405180830381865afa158015612960573d6000803e3d6000fd5b505050506040513d601f19601f820116820180604052508101906129849190613d38565b600160009054906101000a900473ffffffffffffffffffffffffffffffffffffffff1673ffffffffffffffffffffffffffffffffffffffff16638f7daf0f600160009054906101000a900473ffffffffffffffffffffffffffffffffffffffff1673ffffffffffffffffffffffffffffffffffffffff16631feeef9886600060028110612a1457612a13613be6565b5b602002015187600160028110612a2d57612a2c613be6565b5b60200201516040518363ffffffff1660e01b8152600401612a4f929190613edc565b6040805180830381865afa158015612a6b573d6000803e3d6000fd5b505050506040513d601f19601f82011682018060405250810190612a8f9190613f5a565b600001516040518263ffffffff1660e01b8152600401612aaf9190613f87565b608060405180830381865afa158015612acc573d6000803e3d6000fd5b505050506040513d601f19601f82011682018060405250810190612af091906140a3565b6020015110155b8015612bd75750831515600160009054906101000a900473ffffffffffffffffffffffffffffffffffffffff1673ffffffffffffffffffffffffffffffffffffffff16631feeef9884600060028110612b5357612b52613be6565b5b602002015185600160028110612b6c57612b6b613be6565b5b60200201516040518363ffffffff1660e01b8152600401612b8e929190613edc565b6040805180830381865afa158015612baa573d6000803e3d6000fd5b505050506040513d601f19601f82011682018060405250810190612bce9190613f5a565b60200151151514155b15612be65760019250506135b0565b60008054906101000a900473ffffffffffffffffffffffffffffffffffffffff1673ffffffffffffffffffffffffffffffffffffffff166371cc5ad1866040518060400160405280858a600060028110612c4357612c42613be6565b5b6020020151612c529190614126565b8152602001858a600160028110612c6c57612c6b613be6565b5b6020020151612c7b91906140d0565b8152506040518363ffffffff1660e01b8152600401612c9b929190613e22565b606060405180830381865afa158015612cb8573d6000803e3d6000fd5b505050506040513d601f19601f82011682018060405250810190612cdc9190613e60565b809350819450505082158015612d8a575060008054906101000a900473ffffffffffffffffffffffffffffffffffffffff1673ffffffffffffffffffffffffffffffffffffffff1663ac411ce683876040518363ffffffff1660e01b8152600401612d48929190613e22565b602060405180830381865afa158015612d65573d6000803e3d6000fd5b505050506040513d601f19601f82011682018060405250810190612d899190613ea0565b5b8015612fd9575060008054906101000a900473ffffffffffffffffffffffffffffffffffffffff1673ffffffffffffffffffffffffffffffffffffffff16631b5ac4b586600160028110612de157612de0613be6565b5b602002015184600160028110612dfa57612df9613be6565b5b6020020151612e099190613d65565b6040518263ffffffff1660e01b8152600401612e259190613cf1565b602060405180830381865afa158015612e42573d6000803e3d6000fd5b505050506040513d601f19601f82011682018060405250810190612e669190613d38565b600160009054906101000a900473ffffffffffffffffffffffffffffffffffffffff1673ffffffffffffffffffffffffffffffffffffffff16638f7daf0f600160009054906101000a900473ffffffffffffffffffffffffffffffffffffffff1673ffffffffffffffffffffffffffffffffffffffff16631feeef9886600060028110612ef657612ef5613be6565b5b602002015187600160028110612f0f57612f0e613be6565b5b60200201516040518363ffffffff1660e01b8152600401612f31929190613edc565b6040805180830381865afa158015612f4d573d6000803e3d6000fd5b505050506040513d601f19601f82011682018060405250810190612f719190613f5a565b600001516040518263ffffffff1660e01b8152600401612f919190613f87565b608060405180830381865afa158015612fae573d6000803e3d6000fd5b505050506040513d601f19601f82011682018060405250810190612fd291906140a3565b6020015110155b80156130b95750831515600160009054906101000a900473ffffffffffffffffffffffffffffffffffffffff1673ffffffffffffffffffffffffffffffffffffffff16631feeef988460006002811061303557613034613be6565b5b60200201518560016002811061304e5761304d613be6565b5b60200201516040518363ffffffff1660e01b8152600401613070929190613edc565b6040805180830381865afa15801561308c573d6000803e3d6000fd5b505050506040513d601f19601f820116820180604052508101906130b09190613f5a565b60200151151514155b156130c85760019250506135b0565b60008054906101000a900473ffffffffffffffffffffffffffffffffffffffff1673ffffffffffffffffffffffffffffffffffffffff166371cc5ad1866040518060400160405280858a60006002811061312557613124613be6565b5b602002015161313491906140d0565b8152602001858a60016002811061314e5761314d613be6565b5b602002015161315d91906140d0565b8152506040518363ffffffff1660e01b815260040161317d929190613e22565b606060405180830381865afa15801561319a573d6000803e3d6000fd5b505050506040513d601f19601f820116820180604052508101906131be9190613e60565b80935081945050508215801561326c575060008054906101000a900473ffffffffffffffffffffffffffffffffffffffff1673ffffffffffffffffffffffffffffffffffffffff1663ac411ce683876040518363ffffffff1660e01b815260040161322a929190613e22565b602060405180830381865afa158015613247573d6000803e3d6000fd5b505050506040513d601f19601f8201168201806040525081019061326b9190613ea0565b5b80156134bb575060008054906101000a900473ffffffffffffffffffffffffffffffffffffffff1673ffffffffffffffffffffffffffffffffffffffff16631b5ac4b5866001600281106132c3576132c2613be6565b5b6020020151846001600281106132dc576132db613be6565b5b60200201516132eb9190613d65565b6040518263ffffffff1660e01b81526004016133079190613cf1565b602060405180830381865afa158015613324573d6000803e3d6000fd5b505050506040513d601f19601f820116820180604052508101906133489190613d38565b600160009054906101000a900473ffffffffffffffffffffffffffffffffffffffff1673ffffffffffffffffffffffffffffffffffffffff16638f7daf0f600160009054906101000a900473ffffffffffffffffffffffffffffffffffffffff1673ffffffffffffffffffffffffffffffffffffffff16631feeef98866000600281106133d8576133d7613be6565b5b6020020151876001600281106133f1576133f0613be6565b5b60200201516040518363ffffffff1660e01b8152600401613413929190613edc565b6040805180830381865afa15801561342f573d6000803e3d6000fd5b505050506040513d601f19601f820116820180604052508101906134539190613f5a565b600001516040518263ffffffff1660e01b81526004016134739190613f87565b608060405180830381865afa158015613490573d6000803e3d6000fd5b505050506040513d601f19601f820116820180604052508101906134b491906140a3565b6020015110155b801561359b5750831515600160009054906101000a900473ffffffffffffffffffffffffffffffffffffffff1673ffffffffffffffffffffffffffffffffffffffff16631feeef988460006002811061351757613516613be6565b5b6020020151856001600281106135305761352f613be6565b5b60200201516040518363ffffffff1660e01b8152600401613552929190613edc565b6040805180830381865afa15801561356e573d6000803e3d6000fd5b505050506040513d601f19601f820116820180604052508101906135929190613f5a565b60200151151514155b156135aa5760019250506135b0565b60009250505b9250929050565b600080600160009054906101000a900473ffffffffffffffffffffffffffffffffffffffff1673ffffffffffffffffffffffffffffffffffffffff1663fe9ba8ec846040518263ffffffff1660e01b815260040161361591906137ed565b602060405180830381865afa158015613632573d6000803e3d6000fd5b505050506040513d601f19601f820116820180604052508101906136569190613ea0565b80156136675750613666836100d8565b5b15613679576001915060019050613743565b600160009054906101000a900473ffffffffffffffffffffffffffffffffffffffff1673ffffffffffffffffffffffffffffffffffffffff1663fe9ba8ec846040518263ffffffff1660e01b81526004016136d491906137ed565b602060405180830381865afa1580156136f1573d6000803e3d6000fd5b505050506040513d601f19601f820116820180604052508101906137159190613ea0565b1580156137275750613726836100d8565b5b15613739576000915060019050613742565b60009150600090505b5b915091565b6040518060400160405280600290602082028036833780820191505090505090565b6000604051905090565b600080fd5b60008115159050919050565b61378e81613779565b811461379957600080fd5b50565b6000813590506137ab81613785565b92915050565b6000602082840312156137c7576137c6613774565b5b60006137d58482850161379c565b91505092915050565b6137e781613779565b82525050565b600060208201905061380260008301846137de565b92915050565b600080fd5b6000601f19601f8301169050919050565b7f4e487b7100000000000000000000000000000000000000000000000000000000600052604160045260246000fd5b6138568261380d565b810181811067ffffffffffffffff821117156138755761387461381e565b5b80604052505050565b600061388861376a565b9050613894828261384d565b919050565b600067ffffffffffffffff8211156138b4576138b361381e565b5b602082029050919050565b600080fd5b6000819050919050565b6138d7816138c4565b81146138e257600080fd5b50565b6000813590506138f4816138ce565b92915050565b600061390d61390884613899565b61387e565b90508060208402830185811115613927576139266138bf565b5b835b81811015613950578061393c88826138e5565b845260208401935050602081019050613929565b5050509392505050565b600082601f83011261396f5761396e613808565b5b600261397c8482856138fa565b91505092915050565b6000806060838503121561399c5761399b613774565b5b60006139aa8582860161395a565b92505060406139bb8582860161379c565b9150509250929050565b600060029050919050565b600081905092915050565b6000819050919050565b6139ee816138c4565b82525050565b6000613a0083836139e5565b60208301905092915050565b6000602082019050919050565b613a22816139c5565b613a2c81846139d0565b9250613a37826139db565b8060005b83811015613a68578151613a4f87826139f4565b9650613a5a83613a0c565b925050600181019050613a3b565b505050505050565b6000606082019050613a8560008301856137de565b613a926020830184613a19565b9392505050565b6000604082019050613aae60008301856137de565b613abb60208301846137de565b9392505050565b600082825260208201905092915050565b50565b6000613ae3600083613ac2565b9150613aee82613ad3565b600082019050919050565b60006020820190508181036000830152613b1281613ad6565b9050919050565b600081519050613b28816138ce565b92915050565b6000613b41613b3c84613899565b61387e565b90508060208402830185811115613b5b57613b5a6138bf565b5b835b81811015613b845780613b708882613b19565b845260208401935050602081019050613b5d565b5050509392505050565b600082601f830112613ba357613ba2613808565b5b6002613bb0848285613b2e565b91505092915050565b600060408284031215613bcf57613bce613774565b5b6000613bdd84828501613b8e565b91505092915050565b7f4e487b7100000000000000000000000000000000000000000000000000000000600052603260045260246000fd5b6000819050919050565b7f4e487b7100000000000000000000000000000000000000000000000000000000600052601160045260246000fd5b6000613c5982613c15565b9150613c6483613c15565b9250817f7fffffffffffffffffffffffffffffffffffffffffffffffffffffffffffffff03831360008312151615613c9f57613c9e613c1f565b5b817f8000000000000000000000000000000000000000000000000000000000000000038312600083121615613cd757613cd6613c1f565b5b828201905092915050565b613ceb81613c15565b82525050565b6000602082019050613d066000830184613ce2565b92915050565b613d1581613c15565b8114613d2057600080fd5b50565b600081519050613d3281613d0c565b92915050565b600060208284031215613d4e57613d4d613774565b5b6000613d5c84828501613d23565b91505092915050565b6000613d7082613c15565b9150613d7b83613c15565b9250827f800000000000000000000000000000000000000000000000000000000000000001821260008412151615613db657613db5613c1f565b5b827f7fffffffffffffffffffffffffffffffffffffffffffffffffffffffffffffff018213600084121615613dee57613ded613c1f565b5b828203905092915050565b6000604082019050613e0e6000830185613ce2565b613e1b6020830184613ce2565b9392505050565b6000608082019050613e376000830185613a19565b613e446040830184613a19565b9392505050565b600081519050613e5a81613785565b92915050565b60008060608385031215613e7757613e76613774565b5b6000613e8585828601613e4b565b9250506020613e9685828601613b8e565b9150509250929050565b600060208284031215613eb657613eb5613774565b5b6000613ec484828501613e4b565b91505092915050565b613ed6816138c4565b82525050565b6000604082019050613ef16000830185613ecd565b613efe6020830184613ecd565b9392505050565b600080fd5b600060408284031215613f2057613f1f613f05565b5b613f2a604061387e565b90506000613f3a84828501613b19565b6000830152506020613f4e84828501613e4b565b60208301525092915050565b600060408284031215613f7057613f6f613774565b5b6000613f7e84828501613f0a565b91505092915050565b6000602082019050613f9c6000830184613ecd565b92915050565b600067ffffffffffffffff821115613fbd57613fbc61381e565b5b602082029050919050565b6000613fdb613fd684613fa2565b61387e565b90508060208402830185811115613ff557613ff46138bf565b5b835b8181101561401e578061400a8882613e4b565b845260208401935050602081019050613ff7565b5050509392505050565b600082601f83011261403d5761403c613808565b5b600361404a848285613fc8565b91505092915050565b60006080828403121561406957614068613f05565b5b614073604061387e565b9050600061408384828501614028565b600083015250606061409784828501613b19565b60208301525092915050565b6000608082840312156140b9576140b8613774565b5b60006140c784828501614053565b91505092915050565b60006140db826138c4565b91506140e6836138c4565b9250827fffffffffffffffffffffffffffffffffffffffffffffffffffffffffffffffff0382111561411b5761411a613c1f565b5b828201905092915050565b6000614131826138c4565b915061413c836138c4565b92508282101561414f5761414e613c1f565b5b82820390509291505056fea2646970667358221220935252522243db287b7741c9db6c92f96849ab78c3329473a6169dc2f961986d64736f6c634300080d0033",
  "immutableReferences": {},
  "source": "//SPDX-License-Identifier: Unlicensed\npragma solidity ^0.8.13;\nimport './MoveController.sol';\nimport './ChessBoard.sol';\n/*\n    [!]Scacco di Scoperta,\n*/\ncontract MoveHandler {\n    MoveController Movecontroller;\n    ChessBoard Chessboard;\n\n    modifier onlyYourChessboard{require(msg.sender==address(Chessboard),'');_;}\n    modifier onlyYourController{require(msg.sender==address(Movecontroller),'');_;}\n\n    function isCheckMate(bool team) public view returns(bool res, bool nopos){\n        if(Chessboard.getCheck(team)&&NoMorePos(team)){ res=true;nopos=true; }\n        else if(!Chessboard.getCheck(team)&&NoMorePos(team)){ res = false;nopos=true; }\n        else { res = false;nopos=false; }\n    } \n\n    function NoMorePos(bool team)\n        public view onlyYourChessboard returns(bool){\n            uint[2] memory pos = Chessboard.getKing(team);\n            uint[2] memory poss;\n            bool res1;bool res2;bool res3;bool res4;\n            bool res5;bool res6;bool res7;bool res8;\n            (res1, poss)=isEvilBox( [uint(Movecontroller.arrecc(int(pos[0])+1)), pos[1]], team );\n            (res1, poss)=isEvilBox( [uint(Movecontroller.arrdec(int(pos[0])-1)), pos[1]], team );\n            (res1, poss)=isEvilBox( [pos[0], uint(Movecontroller.arrecc(int(pos[1])+1))], team );\n            (res1, poss)=isEvilBox( [pos[0], uint(Movecontroller.arrecc(int(pos[1])-1))], team );\n            (res1, poss)=isEvilBox( [uint(Movecontroller.arrecc(int(pos[0])+1)), uint(Movecontroller.arrecc(int(pos[1])+1))], team );\n            (res1, poss)=isEvilBox( [uint(Movecontroller.arrecc(int(pos[0])+1)), uint(Movecontroller.arrecc(int(pos[1])-1))], team );\n            (res1, poss)=isEvilBox( [uint(Movecontroller.arrecc(int(pos[0])-1)), uint(Movecontroller.arrecc(int(pos[1])+1))], team );\n            (res1, poss)=isEvilBox( [uint(Movecontroller.arrecc(int(pos[0])-1)), uint(Movecontroller.arrecc(int(pos[1])-1))], team );\n\n            if(res1&&res2&&res3&&res4&&res5&&res6&&res7&&res8){ return true; }\n            return false;\n        }\n\n\n    function isEvilBox(uint[2] memory newpos, bool team) \n        public view returns(bool res, uint[2] memory pos) {\n        uint inc = uint(Movecontroller.min(Movecontroller.min(int(newpos[0]), int(7)-int(newpos[0])), Movecontroller.min(int(newpos[1]), int(7)-int(newpos[1]))));\n        (res, pos) = Movecontroller.isObstacled(newpos, [0, newpos[1]]);///-x\n        if(!res&&Movecontroller.Direction(pos, newpos)&&Chessboard.getRules(Chessboard.getBox(pos[0], pos[1]).pedina).maxsteps>=uint(Movecontroller.abs(int(pos[0])-int(newpos[0])))&&Chessboard.getBox(pos[0],pos[1]).color!=team){\n            return ( true, pos);\n        }//-x\n\n        (res, pos) = Movecontroller.isObstacled(newpos, [7, newpos[1]]);//+x\n        if(!res&&Movecontroller.Direction(pos, newpos)&&Chessboard.getRules(Chessboard.getBox(pos[0], pos[1]).pedina).maxsteps>=uint(Movecontroller.abs(int(pos[0])-int(newpos[0])))&&Chessboard.getBox(pos[0],pos[1]).color!=team){\n            return ( true, pos);\n        }//+x\n\n        (res, pos) = Movecontroller.isObstacled(newpos, [newpos[0], 0]);//-y\n        if(!res&&Movecontroller.Direction(pos, newpos)&&Chessboard.getRules(Chessboard.getBox(pos[0], pos[1]).pedina).maxsteps>=uint(Movecontroller.abs(int(pos[1])-int(newpos[1])))&&Chessboard.getBox(pos[0],pos[1]).color!=team){\n            return ( true, pos);\n        }//-y     \n\n        (res, pos) = Movecontroller.isObstacled(newpos, [newpos[0], 7]);//+y\n        if(!res&&Movecontroller.Direction(pos, newpos)&&Chessboard.getRules(Chessboard.getBox(pos[0], pos[1]).pedina).maxsteps>=uint(Movecontroller.abs(int(pos[1])-int(newpos[1])))&&Chessboard.getBox(pos[0],pos[1]).color!=team){\n            return ( true, pos);\n        }//+y        \n\n        //GESTIRE LA DIREZIONE DELLA PEDINA E IL MAXSTEPS PER LE DIAGONALI\n        (res, pos) = Movecontroller.isObstacled(newpos, [newpos[0]+inc,newpos[1]-inc ]);//ok\n        if(!res&&Movecontroller.Direction(pos, newpos)&&Chessboard.getRules(Chessboard.getBox(pos[0], pos[1]).pedina).maxsteps>=uint(Movecontroller.abs(int(pos[1])-int(newpos[1])))&&Chessboard.getBox(pos[0],pos[1]).color!=team){\n            return ( true, pos);\n        }//+x-y\n\n        (res, pos) = Movecontroller.isObstacled(newpos, [newpos[0]-inc,newpos[1]-inc]);//ok\n        if(!res&&Movecontroller.Direction(pos, newpos)&&Chessboard.getRules(Chessboard.getBox(pos[0], pos[1]).pedina).maxsteps>=uint(Movecontroller.abs(int(pos[1])-int(newpos[1])))&&Chessboard.getBox(pos[0],pos[1]).color!=team){\n            return ( true, pos);\n        }//-x-y               \n\n        (res, pos) = Movecontroller.isObstacled(newpos, [newpos[0]-inc,newpos[1]+inc]);//ok\n        if(!res&&Movecontroller.Direction(pos, newpos)&&Chessboard.getRules(Chessboard.getBox(pos[0], pos[1]).pedina).maxsteps>=uint(Movecontroller.abs(int(pos[1])-int(newpos[1])))&&Chessboard.getBox(pos[0],pos[1]).color!=team){\n            return ( true, pos);\n        }//-x+y              \n\n        (res, pos) = Movecontroller.isObstacled(newpos, [newpos[0]+inc,newpos[1]+inc]);//ok\n        if(!res&&Movecontroller.Direction(pos, newpos)&&Chessboard.getRules(Chessboard.getBox(pos[0], pos[1]).pedina).maxsteps>=uint(Movecontroller.abs(int(pos[1])-int(newpos[1])))&&Chessboard.getBox(pos[0],pos[1]).color!=team){\n            return ( true, pos);\n        }//+x+y          */\n        return ( false, pos );\n    }\n    \n\n    constructor(address _gamecontrol, address payable _chessboard){\n        Movecontroller = MoveController(_gamecontrol);\n        Chessboard = ChessBoard(_chessboard);\n    }   \n}\n\n\n\n\n\n\n\n\n\n\n",
  "sourcePath": "/home/peterbruegel/GitHub/chessboard.io/contracts/MoveHandler.sol",
  "compiler": {
    "name": "solc",
    "version": "0.8.13+commit.abaa5c0e.Emscripten.clang"
  },
  "schemaVersion": "3.4.5",
  "updatedAt": "2022-07-05T18:45:47.292Z",
  "devdoc": {
    "kind": "dev",
    "methods": {},
    "version": 1
  },
  "userdoc": {
    "kind": "user",
    "methods": {},
    "version": 1
  }
}