{
  "_format": "hh-sol-artifact-1",
  "contractName": "MoveController",
  "sourceName": "contracts/MoveController.sol",
  "abi": [
    {
      "inputs": [
        {
          "internalType": "address payable",
          "name": "_mychessboard",
          "type": "address"
        }
      ],
      "stateMutability": "nonpayable",
      "type": "constructor"
    },
    {
      "inputs": [
        {
          "internalType": "uint256[2]",
          "name": "oldpos",
          "type": "uint256[2]"
        },
        {
          "internalType": "uint256[2]",
          "name": "newpos",
          "type": "uint256[2]"
        }
      ],
      "name": "Direction",
      "outputs": [
        {
          "internalType": "bool",
          "name": "res",
          "type": "bool"
        }
      ],
      "stateMutability": "view",
      "type": "function"
    },
    {
      "inputs": [
        {
          "internalType": "uint256[2]",
          "name": "oldpos",
          "type": "uint256[2]"
        },
        {
          "internalType": "uint256[2]",
          "name": "newpos",
          "type": "uint256[2]"
        },
        {
          "internalType": "bool",
          "name": "team",
          "type": "bool"
        },
        {
          "internalType": "uint256",
          "name": "_maxsteps",
          "type": "uint256"
        }
      ],
      "name": "MoveControl",
      "outputs": [
        {
          "internalType": "bool",
          "name": "res",
          "type": "bool"
        }
      ],
      "stateMutability": "nonpayable",
      "type": "function"
    },
    {
      "inputs": [
        {
          "internalType": "int256",
          "name": "x_",
          "type": "int256"
        }
      ],
      "name": "abs",
      "outputs": [
        {
          "internalType": "int256",
          "name": "_x",
          "type": "int256"
        }
      ],
      "stateMutability": "pure",
      "type": "function"
    },
    {
      "inputs": [
        {
          "internalType": "int256",
          "name": "x_",
          "type": "int256"
        }
      ],
      "name": "arrdec",
      "outputs": [
        {
          "internalType": "int256",
          "name": "_x",
          "type": "int256"
        }
      ],
      "stateMutability": "pure",
      "type": "function"
    },
    {
      "inputs": [
        {
          "internalType": "int256",
          "name": "x_",
          "type": "int256"
        }
      ],
      "name": "arrecc",
      "outputs": [
        {
          "internalType": "int256",
          "name": "_x",
          "type": "int256"
        }
      ],
      "stateMutability": "pure",
      "type": "function"
    },
    {
      "inputs": [
        {
          "internalType": "int256",
          "name": "x_",
          "type": "int256"
        }
      ],
      "name": "increment",
      "outputs": [
        {
          "internalType": "int256",
          "name": "inc",
          "type": "int256"
        }
      ],
      "stateMutability": "pure",
      "type": "function"
    },
    {
      "inputs": [
        {
          "internalType": "uint256[2]",
          "name": "oldpos",
          "type": "uint256[2]"
        },
        {
          "internalType": "uint256[2]",
          "name": "newpos",
          "type": "uint256[2]"
        }
      ],
      "name": "isObstacled",
      "outputs": [
        {
          "internalType": "bool",
          "name": "res",
          "type": "bool"
        },
        {
          "internalType": "uint256[2]",
          "name": "pos",
          "type": "uint256[2]"
        }
      ],
      "stateMutability": "view",
      "type": "function"
    },
    {
      "inputs": [
        {
          "internalType": "uint256",
          "name": "x_",
          "type": "uint256"
        },
        {
          "internalType": "uint256",
          "name": "y_",
          "type": "uint256"
        }
      ],
      "name": "max",
      "outputs": [
        {
          "internalType": "uint256",
          "name": "_max",
          "type": "uint256"
        }
      ],
      "stateMutability": "pure",
      "type": "function"
    },
    {
      "inputs": [],
      "name": "maxsteps",
      "outputs": [
        {
          "internalType": "uint256",
          "name": "",
          "type": "uint256"
        }
      ],
      "stateMutability": "view",
      "type": "function"
    },
    {
      "inputs": [
        {
          "internalType": "uint256",
          "name": "x_",
          "type": "uint256"
        },
        {
          "internalType": "uint256",
          "name": "y_",
          "type": "uint256"
        }
      ],
      "name": "min",
      "outputs": [
        {
          "internalType": "uint256",
          "name": "_min",
          "type": "uint256"
        }
      ],
      "stateMutability": "pure",
      "type": "function"
    }
  ],
  "bytecode": "0x608060405234801561001057600080fd5b5060405161147c38038061147c83398101604081905261002f91610054565b600380546001600160a01b0319166001600160a01b0392909216919091179055610084565b60006020828403121561006657600080fd5b81516001600160a01b038116811461007d57600080fd5b9392505050565b6113e9806100936000396000f3fe608060405234801561001057600080fd5b506004361061009e5760003560e01c80637ae2b5c7116100665780637ae2b5c714610129578063ac411ce61461013c578063bac351191461014f578063c03c300314610162578063ee0b07e01461017557600080fd5b80631b5ac4b5146100a35780636c1b5443146100c95780636d5433e6146100d25780636d572500146100e557806371cc5ad114610108575b600080fd5b6100b66100b136600461105c565b610188565b6040519081526020015b60405180910390f35b6100b660005481565b6100b66100e0366004611075565b6101a5565b6100f86100f3366004611157565b6101bb565b60405190151581526020016100c0565b61011b6101163660046111a6565b61070a565b6040516100c09291906111db565b6100b6610137366004611075565b610881565b6100f861014a3660046111a6565b610891565b6100b661015d36600461105c565b610fef565b6100b661017036600461105c565b611005565b6100b661018336600461105c565b611031565b6000808212156101a15761019b8261122b565b92915050565b5090565b60008183106101b557508161019b565b50919050565b600354845160208601516040516303fdddf360e31b8152600481019290925260248201526000918691869186918691831515916001600160a01b0390911690631feeef98906044016040805180830381865afa15801561021f573d6000803e3d6000fd5b505050506040513d601f19601f820116820180604052508101906102439190611247565b602001511515146102815760405162461bcd60e51b815260206004820152600360248201526206e79760ec1b60448201526064015b60405180910390fd5b8251845114158061029a57506020808401519085015114155b6102cb5760405162461bcd60e51b8152602060048201526002602482015261073760f41b6044820152606401610278565b600354835160208501516040516303fdddf360e31b8152600481019290925260248201526001600160a01b0390911690631feeef98906044016040805180830381865afa158015610320573d6000803e3d6000fd5b505050506040513d601f19601f820116820180604052508101906103449190611247565b51156103fd57600354835160208501516040516303fdddf360e31b815260048101929092526024820152831515916001600160a01b031690631feeef98906044016040805180830381865afa1580156103a1573d6000803e3d6000fd5b505050506040513d601f19601f820116820180604052508101906103c59190611247565b602001511515036103fd5760405162461bcd60e51b8152602060048201526002602482015261333360f11b6044820152606401610278565b8351835161040b919061129d565b60015560208085015190840151610422919061129d565b60025560006104318585610891565b9050806104665760405162461bcd60e51b81526020600482015260036024820152623234b960e91b6044820152606401610278565b600354855160208701516040516303fdddf360e31b8152600481019290925260248201526001600160a01b0390911690631feeef98906044016040805180830381865afa1580156104bb573d6000803e3d6000fd5b505050506040513d601f19601f820116820180604052508101906104df9190611247565b516003146106fa57600354855160208701516040516303fdddf360e31b8152600481019290925260248201526001600160a01b0390911690631feeef98906044016040805180830381865afa15801561053c573d6000803e3d6000fd5b505050506040513d601f19601f820116820180604052508101906105609190611247565b5160010361065457600083156105c85760208086015190870151116105b05760405162461bcd60e51b8152600401610278906020808252600490820152637065643160e01b604082015260600190565b60208601516006036105c4575060016105c8565b5060005b8361062557602080860151908701511061060d5760405162461bcd60e51b8152600401610278906020808252600490820152633832b21960e11b604082015260600190565b602086015160010361062157506001610625565b5060005b6020808701519086015161063c916100b19161129d565b60021480156106485750805b1561065257600292505b505b61065f600154610188565b82101580156106785750610674600254610188565b8210155b6106aa5760405162461bcd60e51b81526020600482015260036024820152620dac2f60eb1b6044820152606401610278565b60006106b461103e565b6106be878761070a565b909250905081156106f75760405162461bcd60e51b81526020600482015260036024820152626f627360e81b6044820152606401610278565b50505b5060019998505050505050505050565b600061071461103e565b835183516000916107249161129d565b6020808701519086015191925060009161073e919061129d565b9050600061074b83611005565b9050600061075883611005565b885160208a015160019850919250905b88518214158061077c575060208901518114155b156108745761078e61015d85846112dc565b915061079d61015d84836112dc565b6003546040516303fdddf360e31b815260048101859052602481018390529192506001600160a01b031690631feeef98906044016040805180830381865afa1580156107ed573d6000803e3d6000fd5b505050506040513d601f19601f820116820180604052508101906108119190611247565b511580159061082f575088518214158061082f575060208901518114155b1561085457600197506040518060400160405280838152602001828152509650610874565b600097506040518060400160405280838152602001828152509650610768565b5050505050509250929050565b60008183116101b557508161019b565b8151815160009182916108a4919061129d565b602080860151908501519192506000916108be919061129d565b905081158015906108cd575080155b156109d357600354855160208701516040516303fdddf360e31b8152600481019290925260248201526001600160a01b0390911690638f7daf0f908290631feeef98906044016040805180830381865afa15801561092f573d6000803e3d6000fd5b505050506040513d601f19601f820116820180604052508101906109539190611247565b5160405160e083901b6001600160e01b03191681526004810191909152602401608060405180830381865afa158015610990573d6000803e3d6000fd5b505050506040513d601f19601f820116820180604052508101906109b4919061131d565b5160005b60200201516109ca5760009250610fe7565b60019250610fe7565b80158015906109e0575081155b15610acf57600354855160208701516040516303fdddf360e31b8152600481019290925260248201526001600160a01b0390911690638f7daf0f908290631feeef98906044016040805180830381865afa158015610a42573d6000803e3d6000fd5b505050506040513d601f19601f82011682018060405250810190610a669190611247565b5160405160e083901b6001600160e01b03191681526004810191909152602401608060405180830381865afa158015610aa3573d6000803e3d6000fd5b505050506040513d601f19601f82011682018060405250810190610ac7919061131d565b5160016109b8565b8115801590610aed5750610ae281610188565b610aeb83610188565b145b15610f0d57600354855160208701516040516303fdddf360e31b8152600481019290925260248201526001600160a01b0390911690631feeef98906044016040805180830381865afa158015610b47573d6000803e3d6000fd5b505050506040513d601f19601f82011682018060405250810190610b6b9190611247565b516001148015610bf35750600354845160208601516040516303fdddf360e31b8152600481019290925260248201526001600160a01b0390911690631feeef98906044016040805180830381865afa158015610bcb573d6000803e3d6000fd5b505050506040513d601f19601f82011682018060405250810190610bef9190611247565b5115155b8015610c075750610c0382610188565b6001145b15610c155760019250610fe7565b600354855160208701516040516303fdddf360e31b8152600481019290925260248201526001600160a01b0390911690638f7daf0f908290631feeef98906044016040805180830381865afa158015610c72573d6000803e3d6000fd5b505050506040513d601f19601f82011682018060405250810190610c969190611247565b5160405160e083901b6001600160e01b03191681526004810191909152602401608060405180830381865afa158015610cd3573d6000803e3d6000fd5b505050506040513d601f19601f82011682018060405250810190610cf7919061131d565b5160400151158015610d835750600354855160208701516040516303fdddf360e31b8152600481019290925260248201526001600160a01b0390911690631feeef98906044016040805180830381865afa158015610d59573d6000803e3d6000fd5b505050506040513d601f19601f82011682018060405250810190610d7d9190611247565b51600114155b15610d915760009250610fe7565b600354855160208701516040516303fdddf360e31b8152600481019290925260248201526001600160a01b0390911690638f7daf0f908290631feeef98906044016040805180830381865afa158015610dee573d6000803e3d6000fd5b505050506040513d601f19601f82011682018060405250810190610e129190611247565b5160405160e083901b6001600160e01b03191681526004810191909152602401608060405180830381865afa158015610e4f573d6000803e3d6000fd5b505050506040513d601f19601f82011682018060405250810190610e73919061131d565b51604001518015610efe5750600354855160208701516040516303fdddf360e31b8152600481019290925260248201526001600160a01b0390911690631feeef98906044016040805180830381865afa158015610ed4573d6000803e3d6000fd5b505050506040513d601f19601f82011682018060405250810190610ef89190611247565b51600114155b15610f0857600192505b610fe7565b610f1682610188565b6002148015610f2d5750610f2981610188565b6001145b80610f535750610f3c82610188565b6001148015610f535750610f4f81610188565b6002145b15610fe257600354855160208701516040516303fdddf360e31b8152600481019290925260248201526001600160a01b0390911690631feeef98906044016040805180830381865afa158015610fad573d6000803e3d6000fd5b505050506040513d601f19601f82011682018060405250810190610fd19190611247565b516003146109ca5760009250610fe7565b600092505b505092915050565b600060078213610ffd575090565b506007919050565b6000808212156110185750600019919050565b600082131561102957506001919050565b506000919050565b6000808212611029575090565b60405180604001604052806002906020820280368337509192915050565b60006020828403121561106e57600080fd5b5035919050565b6000806040838503121561108857600080fd5b50508035926020909101359150565b634e487b7160e01b600052604160045260246000fd5b6040516060810167ffffffffffffffff811182821017156110d0576110d0611097565b60405290565b600082601f8301126110e757600080fd5b6040516040810181811067ffffffffffffffff8211171561110a5761110a611097565b806040525080604084018581111561112157600080fd5b845b8181101561113b578035835260209283019201611123565b509195945050505050565b801515811461115457600080fd5b50565b60008060008060c0858703121561116d57600080fd5b61117786866110d6565b935061118686604087016110d6565b9250608085013561119681611146565b9396929550929360a00135925050565b600080608083850312156111b957600080fd5b6111c384846110d6565b91506111d284604085016110d6565b90509250929050565b82151581526060810160208083018460005b600281101561120a578151835291830191908301906001016111ed565b505050509392505050565b634e487b7160e01b600052601160045260246000fd5b6000600160ff1b820161124057611240611215565b5060000390565b60006040828403121561125957600080fd5b6040516040810181811067ffffffffffffffff8211171561127c5761127c611097565b60405282518152602083015161129181611146565b60208201529392505050565b60008083128015600160ff1b8501841216156112bb576112bb611215565b6001600160ff1b03840183138116156112d6576112d6611215565b50500390565b600080821280156001600160ff1b03849003851316156112fe576112fe611215565b600160ff1b839003841281161561131757611317611215565b50500190565b60006080828403121561132f57600080fd5b6040516040810181811067ffffffffffffffff8211171561135257611352611097565b604052601f8301841361136457600080fd5b61136c6110ad565b80606085018681111561137e57600080fd5b855b818110156113a157805161139381611146565b845260209384019301611380565b5090835251602083015250939250505056fea264697066735822122082d10036bf46e50a334f5e7b87a457467239d9ab160c689575914a0da1e24fd864736f6c634300080e0033",
  "linkReferences": {},
  "deployedLinkReferences": {}
}