{
  "_format": "hh-sol-artifact-1",
  "contractName": "MoveController",
  "sourceName": "contracts/MoveController.sol",
  "abi": [
    {
      "inputs": [
        {
          "internalType": "address payable",
          "name": "_mychessboard",
          "type": "address"
        }
      ],
      "stateMutability": "nonpayable",
      "type": "constructor"
    },
    {
      "inputs": [
        {
          "internalType": "uint256[2]",
          "name": "oldpos",
          "type": "uint256[2]"
        },
        {
          "internalType": "uint256[2]",
          "name": "newpos",
          "type": "uint256[2]"
        }
      ],
      "name": "Direction",
      "outputs": [
        {
          "internalType": "bool",
          "name": "res",
          "type": "bool"
        }
      ],
      "stateMutability": "view",
      "type": "function"
    },
    {
      "inputs": [
        {
          "internalType": "uint256[2]",
          "name": "oldpos",
          "type": "uint256[2]"
        },
        {
          "internalType": "uint256[2]",
          "name": "newpos",
          "type": "uint256[2]"
        },
        {
          "internalType": "bool",
          "name": "team",
          "type": "bool"
        },
        {
          "internalType": "uint256",
          "name": "_maxsteps",
          "type": "uint256"
        }
      ],
      "name": "MoveControl",
      "outputs": [
        {
          "internalType": "bool",
          "name": "res",
          "type": "bool"
        }
      ],
      "stateMutability": "nonpayable",
      "type": "function"
    },
    {
      "inputs": [
        {
          "internalType": "int256",
          "name": "x_",
          "type": "int256"
        }
      ],
      "name": "abs",
      "outputs": [
        {
          "internalType": "int256",
          "name": "_x",
          "type": "int256"
        }
      ],
      "stateMutability": "pure",
      "type": "function"
    },
    {
      "inputs": [
        {
          "internalType": "int256",
          "name": "x_",
          "type": "int256"
        }
      ],
      "name": "arrdec",
      "outputs": [
        {
          "internalType": "int256",
          "name": "_x",
          "type": "int256"
        }
      ],
      "stateMutability": "pure",
      "type": "function"
    },
    {
      "inputs": [
        {
          "internalType": "int256",
          "name": "x_",
          "type": "int256"
        }
      ],
      "name": "arrecc",
      "outputs": [
        {
          "internalType": "int256",
          "name": "_x",
          "type": "int256"
        }
      ],
      "stateMutability": "pure",
      "type": "function"
    },
    {
      "inputs": [
        {
          "internalType": "uint256[2]",
          "name": "oldpos",
          "type": "uint256[2]"
        },
        {
          "internalType": "uint256[2]",
          "name": "newpos",
          "type": "uint256[2]"
        },
        {
          "internalType": "bool",
          "name": "team",
          "type": "bool"
        }
      ],
      "name": "canArrive",
      "outputs": [
        {
          "internalType": "bool",
          "name": "",
          "type": "bool"
        }
      ],
      "stateMutability": "nonpayable",
      "type": "function"
    },
    {
      "inputs": [
        {
          "internalType": "int256",
          "name": "x_",
          "type": "int256"
        }
      ],
      "name": "increment",
      "outputs": [
        {
          "internalType": "int256",
          "name": "inc",
          "type": "int256"
        }
      ],
      "stateMutability": "pure",
      "type": "function"
    },
    {
      "inputs": [
        {
          "internalType": "uint256[2]",
          "name": "oldpos",
          "type": "uint256[2]"
        },
        {
          "internalType": "uint256[2]",
          "name": "newpos",
          "type": "uint256[2]"
        }
      ],
      "name": "isObstacled",
      "outputs": [
        {
          "internalType": "bool",
          "name": "res",
          "type": "bool"
        },
        {
          "internalType": "uint256[2]",
          "name": "pos",
          "type": "uint256[2]"
        }
      ],
      "stateMutability": "view",
      "type": "function"
    },
    {
      "inputs": [
        {
          "internalType": "uint256",
          "name": "x_",
          "type": "uint256"
        },
        {
          "internalType": "uint256",
          "name": "y_",
          "type": "uint256"
        }
      ],
      "name": "max",
      "outputs": [
        {
          "internalType": "uint256",
          "name": "_max",
          "type": "uint256"
        }
      ],
      "stateMutability": "pure",
      "type": "function"
    },
    {
      "inputs": [],
      "name": "maxsteps",
      "outputs": [
        {
          "internalType": "uint256",
          "name": "",
          "type": "uint256"
        }
      ],
      "stateMutability": "view",
      "type": "function"
    },
    {
      "inputs": [
        {
          "internalType": "uint256",
          "name": "x_",
          "type": "uint256"
        },
        {
          "internalType": "uint256",
          "name": "y_",
          "type": "uint256"
        }
      ],
      "name": "min",
      "outputs": [
        {
          "internalType": "uint256",
          "name": "_min",
          "type": "uint256"
        }
      ],
      "stateMutability": "pure",
      "type": "function"
    }
  ],
  "bytecode": "0x60806040523480156200001157600080fd5b506040516200323d3803806200323d8339818101604052810190620000379190620000e9565b80600360006101000a81548173ffffffffffffffffffffffffffffffffffffffff021916908373ffffffffffffffffffffffffffffffffffffffff160217905550506200011b565b600080fd5b600073ffffffffffffffffffffffffffffffffffffffff82169050919050565b6000620000b18262000084565b9050919050565b620000c381620000a4565b8114620000cf57600080fd5b50565b600081519050620000e381620000b8565b92915050565b6000602082840312156200010257620001016200007f565b5b60006200011284828501620000d2565b91505092915050565b613112806200012b6000396000f3fe608060405234801561001057600080fd5b50600436106100a95760003560e01c80637ae2b5c7116100715780637ae2b5c71461018d578063ac411ce6146101bd578063b8b712da146101ed578063bac351191461021d578063c03c30031461024d578063ee0b07e01461027d576100a9565b80631b5ac4b5146100ae5780636c1b5443146100de5780636d5433e6146100fc5780636d5725001461012c57806371cc5ad11461015c575b600080fd5b6100c860048036038101906100c391906123d2565b6102ad565b6040516100d5919061240e565b60405180910390f35b6100e66102d1565b6040516100f39190612442565b60405180910390f35b61011660048036038101906101119190612489565b6102d7565b6040516101239190612442565b60405180910390f35b61014660048036038101906101419190612648565b6102f2565b60405161015391906126be565b60405180910390f35b610176600480360381019061017191906126d9565b611244565b6040516101849291906127c4565b60405180910390f35b6101a760048036038101906101a29190612489565b6114d6565b6040516101b49190612442565b60405180910390f35b6101d760048036038101906101d291906126d9565b6114f1565b6040516101e491906126be565b60405180910390f35b610207600480360381019061020291906127ed565b612104565b60405161021491906126be565b60405180910390f35b610237600480360381019061023291906123d2565b6122e5565b604051610244919061240e565b60405180910390f35b610267600480360381019061026291906123d2565b612301565b604051610274919061240e565b60405180910390f35b610297600480360381019061029291906123d2565b612350565b6040516102a4919061240e565b60405180910390f35b6000808212156102c857816102c19061286f565b90506102cc565b8190505b919050565b60005481565b60008183106102e8578290506102ec565b8190505b92915050565b600084848484811515600360009054906101000a900473ffffffffffffffffffffffffffffffffffffffff1673ffffffffffffffffffffffffffffffffffffffff16631feeef988660006002811061034d5761034c6128b7565b5b602002015187600160028110610366576103656128b7565b5b60200201516040518363ffffffff1660e01b81526004016103889291906128e6565b6040805180830381865afa1580156103a4573d6000803e3d6000fd5b505050506040513d601f19601f820116820180604052508101906103c8919061298e565b6020015115151461040e576040517f08c379a000000000000000000000000000000000000000000000000000000000815260040161040590612a18565b60405180910390fd5b82600060028110610422576104216128b7565b5b60200201518460006002811061043b5761043a6128b7565b5b602002015114158061047d57508260016002811061045c5761045b6128b7565b5b602002015184600160028110610475576104746128b7565b5b602002015114155b6104bc576040517f08c379a00000000000000000000000000000000000000000000000000000000081526004016104b390612a84565b60405180910390fd5b6000600360009054906101000a900473ffffffffffffffffffffffffffffffffffffffff1673ffffffffffffffffffffffffffffffffffffffff16631feeef98856000600281106105105761050f6128b7565b5b602002015186600160028110610529576105286128b7565b5b60200201516040518363ffffffff1660e01b815260040161054b9291906128e6565b6040805180830381865afa158015610567573d6000803e3d6000fd5b505050506040513d601f19601f8201168201806040525081019061058b919061298e565b60000151146106ab57811515600360009054906101000a900473ffffffffffffffffffffffffffffffffffffffff1673ffffffffffffffffffffffffffffffffffffffff16631feeef98856000600281106105e9576105e86128b7565b5b602002015186600160028110610602576106016128b7565b5b60200201516040518363ffffffff1660e01b81526004016106249291906128e6565b6040805180830381865afa158015610640573d6000803e3d6000fd5b505050506040513d601f19601f82011682018060405250810190610664919061298e565b602001511515036106aa576040517f08c379a00000000000000000000000000000000000000000000000000000000081526004016106a190612af0565b60405180910390fd5b5b836000600281106106bf576106be6128b7565b5b6020020151836000600281106106d8576106d76128b7565b5b60200201516106e79190612b10565b60018190555083600160028110610701576107006128b7565b5b60200201518360016002811061071a576107196128b7565b5b60200201516107299190612b10565b600281905550600061073b85856114f1565b90508061077d576040517f08c379a000000000000000000000000000000000000000000000000000000000815260040161077490612bf0565b60405180910390fd5b6005600360009054906101000a900473ffffffffffffffffffffffffffffffffffffffff1673ffffffffffffffffffffffffffffffffffffffff16631feeef98876000600281106107d1576107d06128b7565b5b6020020151886001600281106107ea576107e96128b7565b5b60200201516040518363ffffffff1660e01b815260040161080c9291906128e6565b6040805180830381865afa158015610828573d6000803e3d6000fd5b505050506040513d601f19601f8201168201806040525081019061084c919061298e565b6000015103610e175760008560016002811061086b5761086a6128b7565b5b6020020151148015610895575060048560006002811061088e5761088d6128b7565b5b6020020151145b801561094357506005600360009054906101000a900473ffffffffffffffffffffffffffffffffffffffff1673ffffffffffffffffffffffffffffffffffffffff16631feeef98600460006040518363ffffffff1660e01b81526004016108fd929190612c90565b6040805180830381865afa158015610919573d6000803e3d6000fd5b505050506040513d601f19601f8201168201806040525081019061093d919061298e565b60000151145b8015610b2d57506000846001600281106109605761095f6128b7565b5b602002015114801561098a5750600684600060028110610983576109826128b7565b5b6020020151145b8015610a3857506002600360009054906101000a900473ffffffffffffffffffffffffffffffffffffffff1673ffffffffffffffffffffffffffffffffffffffff16631feeef98600760006040518363ffffffff1660e01b81526004016109f2929190612cf4565b6040805180830381865afa158015610a0e573d6000803e3d6000fd5b505050506040513d601f19601f82011682018060405250810190610a32919061298e565b60000151145b80610b2c5750600084600160028110610a5457610a536128b7565b5b6020020151148015610a7e5750600284600060028110610a7757610a766128b7565b5b6020020151145b8015610b2b57506002600360009054906101000a900473ffffffffffffffffffffffffffffffffffffffff1673ffffffffffffffffffffffffffffffffffffffff16631feeef986000806040518363ffffffff1660e01b8152600401610ae5929190612d1d565b6040805180830381865afa158015610b01573d6000803e3d6000fd5b505050506040513d601f19601f82011682018060405250810190610b25919061298e565b60000151145b5b5b80610e0c5750600785600160028110610b4957610b486128b7565b5b6020020151148015610b735750600385600060028110610b6c57610b6b6128b7565b5b6020020151145b8015610c2157506005600360009054906101000a900473ffffffffffffffffffffffffffffffffffffffff1673ffffffffffffffffffffffffffffffffffffffff16631feeef98600360076040518363ffffffff1660e01b8152600401610bdb929190612d81565b6040805180830381865afa158015610bf7573d6000803e3d6000fd5b505050506040513d601f19601f82011682018060405250810190610c1b919061298e565b60000151145b8015610e0b5750600184600160028110610c3e57610c3d6128b7565b5b6020020151148015610c685750600784600060028110610c6157610c606128b7565b5b6020020151145b8015610d1557506002600360009054906101000a900473ffffffffffffffffffffffffffffffffffffffff1673ffffffffffffffffffffffffffffffffffffffff16631feeef986007806040518363ffffffff1660e01b8152600401610ccf929190612daa565b6040805180830381865afa158015610ceb573d6000803e3d6000fd5b505050506040513d601f19601f82011682018060405250810190610d0f919061298e565b60000151145b80610e0a5750600584600160028110610d3157610d306128b7565b5b6020020151148015610d5b5750600284600060028110610d5457610d536128b7565b5b6020020151145b8015610e0957506002600360009054906101000a900473ffffffffffffffffffffffffffffffffffffffff1673ffffffffffffffffffffffffffffffffffffffff16631feeef98600060076040518363ffffffff1660e01b8152600401610dc3929190612dd3565b6040805180830381865afa158015610ddf573d6000803e3d6000fd5b505050506040513d601f19601f82011682018060405250810190610e03919061298e565b60000151145b5b5b5b15610e1657600291505b5b60038060009054906101000a900473ffffffffffffffffffffffffffffffffffffffff1673ffffffffffffffffffffffffffffffffffffffff16631feeef9887600060028110610e6a57610e696128b7565b5b602002015188600160028110610e8357610e826128b7565b5b60200201516040518363ffffffff1660e01b8152600401610ea59291906128e6565b6040805180830381865afa158015610ec1573d6000803e3d6000fd5b505050506040513d601f19601f82011682018060405250810190610ee5919061298e565b6000015114611233576001600360009054906101000a900473ffffffffffffffffffffffffffffffffffffffff1673ffffffffffffffffffffffffffffffffffffffff16631feeef9887600060028110610f4257610f416128b7565b5b602002015188600160028110610f5b57610f5a6128b7565b5b60200201516040518363ffffffff1660e01b8152600401610f7d9291906128e6565b6040805180830381865afa158015610f99573d6000803e3d6000fd5b505050506040513d601f19601f82011682018060405250810190610fbd919061298e565b6000015103611171576000831561106f5784600160028110610fe257610fe16128b7565b5b602002015186600160028110610ffb57610ffa6128b7565b5b602002015111611040576040517f08c379a000000000000000000000000000000000000000000000000000000000815260040161103790612e22565b60405180910390fd5b600686600160028110611056576110556128b7565b5b602002015103611069576001905061106e565b600090505b5b836111155784600160028110611088576110876128b7565b5b6020020151866001600281106110a1576110a06128b7565b5b6020020151106110e6576040517f08c379a00000000000000000000000000000000000000000000000000000000081526004016110dd90612e22565b60405180910390fd5b6001866001600281106110fc576110fb6128b7565b5b60200201510361110f5760019050611114565b600090505b5b600261115b8760016002811061112e5761112d6128b7565b5b602002015187600160028110611147576111466128b7565b5b60200201516111569190612b10565b6102ad565b1480156111655750805b1561116f57600292505b505b61117c6001546102ad565b821015801561119557506111916002546102ad565b8210155b6111d4576040517f08c379a00000000000000000000000000000000000000000000000000000000081526004016111cb90612e8e565b60405180910390fd5b60006111de61236b565b6111e88787611244565b809250819350505081611230576040517f08c379a000000000000000000000000000000000000000000000000000000000815260040161122790612efa565b60405180910390fd5b50505b600195505050505050949350505050565b600061124e61236b565b600084600060028110611264576112636128b7565b5b60200201518460006002811061127d5761127c6128b7565b5b602002015161128c9190612b10565b90506000856001600281106112a4576112a36128b7565b5b6020020151856001600281106112bd576112bc6128b7565b5b60200201516112cc9190612b10565b905060006112d983612301565b905060006112e683612301565b90506000886000600281106112fe576112fd6128b7565b5b6020020151905060008960016002811061131b5761131a6128b7565b5b60200201519050600197505b8860006002811061133b5761133a6128b7565b5b60200201518214158061136657508860016002811061135d5761135c6128b7565b5b60200201518114155b156114c95761137f848361137a9190612f1a565b6122e5565b915061139583826113909190612f1a565b6122e5565b90506000600360009054906101000a900473ffffffffffffffffffffffffffffffffffffffff1673ffffffffffffffffffffffffffffffffffffffff16631feeef9884846040518363ffffffff1660e01b81526004016113f69291906128e6565b6040805180830381865afa158015611412573d6000803e3d6000fd5b505050506040513d601f19601f82011682018060405250810190611436919061298e565b600001511415801561148457508189600060028110611458576114576128b7565b5b6020020151141580156114835750808960016002811061147b5761147a6128b7565b5b602002015114155b5b156114a9576000975060405180604001604052808381526020018281525096506114c9565b600197506040518060400160405280838152602001828152509650611327565b5050505050509250929050565b60008183116114e7578290506114eb565b8190505b92915050565b60008083600060028110611508576115076128b7565b5b602002015183600060028110611521576115206128b7565b5b60200201516115309190612b10565b9050600084600160028110611548576115476128b7565b5b602002015184600160028110611561576115606128b7565b5b60200201516115709190612b10565b9050600082141580156115835750600081145b1561172757600360009054906101000a900473ffffffffffffffffffffffffffffffffffffffff1673ffffffffffffffffffffffffffffffffffffffff16638f7daf0f600360009054906101000a900473ffffffffffffffffffffffffffffffffffffffff1673ffffffffffffffffffffffffffffffffffffffff16631feeef9888600060028110611618576116176128b7565b5b602002015189600160028110611631576116306128b7565b5b60200201516040518363ffffffff1660e01b81526004016116539291906128e6565b6040805180830381865afa15801561166f573d6000803e3d6000fd5b505050506040513d601f19601f82011682018060405250810190611693919061298e565b600001516040518263ffffffff1660e01b81526004016116b39190612442565b608060405180830381865afa1580156116d0573d6000803e3d6000fd5b505050506040513d601f19601f820116820180604052508101906116f491906130af565b6000015160006003811061170b5761170a6128b7565b5b602002015161171d5760009250611722565b600192505b6120fc565b600081141580156117385750600082145b156118dc57600360009054906101000a900473ffffffffffffffffffffffffffffffffffffffff1673ffffffffffffffffffffffffffffffffffffffff16638f7daf0f600360009054906101000a900473ffffffffffffffffffffffffffffffffffffffff1673ffffffffffffffffffffffffffffffffffffffff16631feeef98886000600281106117cd576117cc6128b7565b5b6020020151896001600281106117e6576117e56128b7565b5b60200201516040518363ffffffff1660e01b81526004016118089291906128e6565b6040805180830381865afa158015611824573d6000803e3d6000fd5b505050506040513d601f19601f82011682018060405250810190611848919061298e565b600001516040518263ffffffff1660e01b81526004016118689190612442565b608060405180830381865afa158015611885573d6000803e3d6000fd5b505050506040513d601f19601f820116820180604052508101906118a991906130af565b600001516001600381106118c0576118bf6128b7565b5b60200201516118d257600092506118d7565b600192505b6120fb565b600082141580156118fc57506118f1816102ad565b6118fa836102ad565b145b15611fbe576001600360009054906101000a900473ffffffffffffffffffffffffffffffffffffffff1673ffffffffffffffffffffffffffffffffffffffff16631feeef9887600060028110611955576119546128b7565b5b60200201518860016002811061196e5761196d6128b7565b5b60200201516040518363ffffffff1660e01b81526004016119909291906128e6565b6040805180830381865afa1580156119ac573d6000803e3d6000fd5b505050506040513d601f19601f820116820180604052508101906119d0919061298e565b60000151148015611ab257506000600360009054906101000a900473ffffffffffffffffffffffffffffffffffffffff1673ffffffffffffffffffffffffffffffffffffffff16631feeef9886600060028110611a3057611a2f6128b7565b5b602002015187600160028110611a4957611a486128b7565b5b60200201516040518363ffffffff1660e01b8152600401611a6b9291906128e6565b6040805180830381865afa158015611a87573d6000803e3d6000fd5b505050506040513d601f19601f82011682018060405250810190611aab919061298e565b6000015114155b8015611ac657506001611ac4836102ad565b145b15611ad45760019250611fb9565b600360009054906101000a900473ffffffffffffffffffffffffffffffffffffffff1673ffffffffffffffffffffffffffffffffffffffff16638f7daf0f600360009054906101000a900473ffffffffffffffffffffffffffffffffffffffff1673ffffffffffffffffffffffffffffffffffffffff16631feeef9888600060028110611b6457611b636128b7565b5b602002015189600160028110611b7d57611b7c6128b7565b5b60200201516040518363ffffffff1660e01b8152600401611b9f9291906128e6565b6040805180830381865afa158015611bbb573d6000803e3d6000fd5b505050506040513d601f19601f82011682018060405250810190611bdf919061298e565b600001516040518263ffffffff1660e01b8152600401611bff9190612442565b608060405180830381865afa158015611c1c573d6000803e3d6000fd5b505050506040513d601f19601f82011682018060405250810190611c4091906130af565b60000151600260038110611c5757611c566128b7565b5b6020020151158015611d3a57506001600360009054906101000a900473ffffffffffffffffffffffffffffffffffffffff1673ffffffffffffffffffffffffffffffffffffffff16631feeef9887600060028110611cb857611cb76128b7565b5b602002015188600160028110611cd157611cd06128b7565b5b60200201516040518363ffffffff1660e01b8152600401611cf39291906128e6565b6040805180830381865afa158015611d0f573d6000803e3d6000fd5b505050506040513d601f19601f82011682018060405250810190611d33919061298e565b6000015114155b15611d485760009250611fb8565b600360009054906101000a900473ffffffffffffffffffffffffffffffffffffffff1673ffffffffffffffffffffffffffffffffffffffff16638f7daf0f600360009054906101000a900473ffffffffffffffffffffffffffffffffffffffff1673ffffffffffffffffffffffffffffffffffffffff16631feeef9888600060028110611dd857611dd76128b7565b5b602002015189600160028110611df157611df06128b7565b5b60200201516040518363ffffffff1660e01b8152600401611e139291906128e6565b6040805180830381865afa158015611e2f573d6000803e3d6000fd5b505050506040513d601f19601f82011682018060405250810190611e53919061298e565b600001516040518263ffffffff1660e01b8152600401611e739190612442565b608060405180830381865afa158015611e90573d6000803e3d6000fd5b505050506040513d601f19601f82011682018060405250810190611eb491906130af565b60000151600260038110611ecb57611eca6128b7565b5b60200201518015611fad57506001600360009054906101000a900473ffffffffffffffffffffffffffffffffffffffff1673ffffffffffffffffffffffffffffffffffffffff16631feeef9887600060028110611f2b57611f2a6128b7565b5b602002015188600160028110611f4457611f436128b7565b5b60200201516040518363ffffffff1660e01b8152600401611f669291906128e6565b6040805180830381865afa158015611f82573d6000803e3d6000fd5b505050506040513d601f19601f82011682018060405250810190611fa6919061298e565b6000015114155b15611fb757600192505b5b5b6120fa565b6002611fc9836102ad565b148015611fde57506001611fdc826102ad565b145b8061200557506001611fef836102ad565b14801561200457506002612002826102ad565b145b5b156120f45760038060009054906101000a900473ffffffffffffffffffffffffffffffffffffffff1673ffffffffffffffffffffffffffffffffffffffff16631feeef988760006002811061205d5761205c6128b7565b5b602002015188600160028110612076576120756128b7565b5b60200201516040518363ffffffff1660e01b81526004016120989291906128e6565b6040805180830381865afa1580156120b4573d6000803e3d6000fd5b505050506040513d601f19601f820116820180604052508101906120d8919061298e565b60000151146120ea57600092506120ef565b600192505b6120f9565b600092505b5b5b5b505092915050565b600080600360009054906101000a900473ffffffffffffffffffffffffffffffffffffffff1673ffffffffffffffffffffffffffffffffffffffff16631feeef9886600060028110612159576121586128b7565b5b602002015187600160028110612172576121716128b7565b5b60200201516040518363ffffffff1660e01b81526004016121949291906128e6565b6040805180830381865afa1580156121b0573d6000803e3d6000fd5b505050506040513d601f19601f820116820180604052508101906121d4919061298e565b60000151141580156122b95750811515600360009054906101000a900473ffffffffffffffffffffffffffffffffffffffff1673ffffffffffffffffffffffffffffffffffffffff16631feeef9886600060028110612236576122356128b7565b5b60200201518760016002811061224f5761224e6128b7565b5b60200201516040518363ffffffff1660e01b81526004016122719291906128e6565b6040805180830381865afa15801561228d573d6000803e3d6000fd5b505050506040513d601f19601f820116820180604052508101906122b1919061298e565b602001511515145b80156122cb57506122ca84846114f1565b5b156122d957600190506122de565b600090505b9392505050565b6000600782136122f7578190506122fc565b600790505b919050565b600080821215612333577fffffffffffffffffffffffffffffffffffffffffffffffffffffffffffffffff905061234b565b6000821315612345576001905061234a565b600090505b5b919050565b600080821261236157819050612366565b600090505b919050565b6040518060400160405280600290602082028036833780820191505090505090565b6000604051905090565b600080fd5b6000819050919050565b6123af8161239c565b81146123ba57600080fd5b50565b6000813590506123cc816123a6565b92915050565b6000602082840312156123e8576123e7612397565b5b60006123f6848285016123bd565b91505092915050565b6124088161239c565b82525050565b600060208201905061242360008301846123ff565b92915050565b6000819050919050565b61243c81612429565b82525050565b60006020820190506124576000830184612433565b92915050565b61246681612429565b811461247157600080fd5b50565b6000813590506124838161245d565b92915050565b600080604083850312156124a05761249f612397565b5b60006124ae85828601612474565b92505060206124bf85828601612474565b9150509250929050565b600080fd5b6000601f19601f8301169050919050565b7f4e487b7100000000000000000000000000000000000000000000000000000000600052604160045260246000fd5b612517826124ce565b810181811067ffffffffffffffff82111715612536576125356124df565b5b80604052505050565b600061254961238d565b9050612555828261250e565b919050565b600067ffffffffffffffff821115612575576125746124df565b5b602082029050919050565b600080fd5b60006125986125938461255a565b61253f565b905080602084028301858111156125b2576125b1612580565b5b835b818110156125db57806125c78882612474565b8452602084019350506020810190506125b4565b5050509392505050565b600082601f8301126125fa576125f96124c9565b5b6002612607848285612585565b91505092915050565b60008115159050919050565b61262581612610565b811461263057600080fd5b50565b6000813590506126428161261c565b92915050565b60008060008060c0858703121561266257612661612397565b5b6000612670878288016125e5565b9450506040612681878288016125e5565b935050608061269287828801612633565b92505060a06126a387828801612474565b91505092959194509250565b6126b881612610565b82525050565b60006020820190506126d360008301846126af565b92915050565b600080608083850312156126f0576126ef612397565b5b60006126fe858286016125e5565b925050604061270f858286016125e5565b9150509250929050565b600060029050919050565b600081905092915050565b6000819050919050565b61274281612429565b82525050565b60006127548383612739565b60208301905092915050565b6000602082019050919050565b61277681612719565b6127808184612724565b925061278b8261272f565b8060005b838110156127bc5781516127a38782612748565b96506127ae83612760565b92505060018101905061278f565b505050505050565b60006060820190506127d960008301856126af565b6127e6602083018461276d565b9392505050565b600080600060a0848603121561280657612805612397565b5b6000612814868287016125e5565b9350506040612825868287016125e5565b925050608061283686828701612633565b9150509250925092565b7f4e487b7100000000000000000000000000000000000000000000000000000000600052601160045260246000fd5b600061287a8261239c565b91507f800000000000000000000000000000000000000000000000000000000000000082036128ac576128ab612840565b5b816000039050919050565b7f4e487b7100000000000000000000000000000000000000000000000000000000600052603260045260246000fd5b60006040820190506128fb6000830185612433565b6129086020830184612433565b9392505050565b600080fd5b6000815190506129238161245d565b92915050565b6000815190506129388161261c565b92915050565b6000604082840312156129545761295361290f565b5b61295e604061253f565b9050600061296e84828501612914565b600083015250602061298284828501612929565b60208301525092915050565b6000604082840312156129a4576129a3612397565b5b60006129b28482850161293e565b91505092915050565b600082825260208201905092915050565b7f6e6f742079207000000000000000000000000000000000000000000000000000600082015250565b6000612a026007836129bb565b9150612a0d826129cc565b602082019050919050565b60006020820190508181036000830152612a31816129f5565b9050919050565b7f73706f7374617469000000000000000000000000000000000000000000000000600082015250565b6000612a6e6008836129bb565b9150612a7982612a38565b602082019050919050565b60006020820190508181036000830152612a9d81612a61565b9050919050565b7f6666000000000000000000000000000000000000000000000000000000000000600082015250565b6000612ada6002836129bb565b9150612ae582612aa4565b602082019050919050565b60006020820190508181036000830152612b0981612acd565b9050919050565b6000612b1b8261239c565b9150612b268361239c565b9250827f800000000000000000000000000000000000000000000000000000000000000001821260008412151615612b6157612b60612840565b5b827f7fffffffffffffffffffffffffffffffffffffffffffffffffffffffffffffff018213600084121615612b9957612b98612840565b5b828203905092915050565b7f6469726d00000000000000000000000000000000000000000000000000000000600082015250565b6000612bda6004836129bb565b9150612be582612ba4565b602082019050919050565b60006020820190508181036000830152612c0981612bcd565b9050919050565b6000819050919050565b6000819050919050565b6000612c3f612c3a612c3584612c10565b612c1a565b612429565b9050919050565b612c4f81612c24565b82525050565b6000819050919050565b6000612c7a612c75612c7084612c55565b612c1a565b612429565b9050919050565b612c8a81612c5f565b82525050565b6000604082019050612ca56000830185612c46565b612cb26020830184612c81565b9392505050565b6000819050919050565b6000612cde612cd9612cd484612cb9565b612c1a565b612429565b9050919050565b612cee81612cc3565b82525050565b6000604082019050612d096000830185612ce5565b612d166020830184612c81565b9392505050565b6000604082019050612d326000830185612c81565b612d3f6020830184612c81565b9392505050565b6000819050919050565b6000612d6b612d66612d6184612d46565b612c1a565b612429565b9050919050565b612d7b81612d50565b82525050565b6000604082019050612d966000830185612d72565b612da36020830184612ce5565b9392505050565b6000604082019050612dbf6000830185612ce5565b612dcc6020830184612ce5565b9392505050565b6000604082019050612de86000830185612c81565b612df56020830184612ce5565b9392505050565b50565b6000612e0c6000836129bb565b9150612e1782612dfc565b600082019050919050565b60006020820190508181036000830152612e3b81612dff565b9050919050565b7f6d61780000000000000000000000000000000000000000000000000000000000600082015250565b6000612e786003836129bb565b9150612e8382612e42565b602082019050919050565b60006020820190508181036000830152612ea781612e6b565b9050919050565b7f6f62730000000000000000000000000000000000000000000000000000000000600082015250565b6000612ee46003836129bb565b9150612eef82612eae565b602082019050919050565b60006020820190508181036000830152612f1381612ed7565b9050919050565b6000612f258261239c565b9150612f308361239c565b9250817f7fffffffffffffffffffffffffffffffffffffffffffffffffffffffffffffff03831360008312151615612f6b57612f6a612840565b5b817f8000000000000000000000000000000000000000000000000000000000000000038312600083121615612fa357612fa2612840565b5b828201905092915050565b600067ffffffffffffffff821115612fc957612fc86124df565b5b602082029050919050565b6000612fe7612fe284612fae565b61253f565b9050806020840283018581111561300157613000612580565b5b835b8181101561302a57806130168882612929565b845260208401935050602081019050613003565b5050509392505050565b600082601f830112613049576130486124c9565b5b6003613056848285612fd4565b91505092915050565b6000608082840312156130755761307461290f565b5b61307f604061253f565b9050600061308f84828501613034565b60008301525060606130a384828501612914565b60208301525092915050565b6000608082840312156130c5576130c4612397565b5b60006130d38482850161305f565b9150509291505056fea2646970667358221220ddea33c090228ead1573ad08e72bef1729612f21ec830629db287e698931767f64736f6c634300080e0033",
  "linkReferences": {},
  "deployedLinkReferences": {}
}