{
  "_format": "hh-sol-artifact-1",
  "contractName": "MoveController",
  "sourceName": "contracts/MoveController.sol",
  "abi": [
    {
      "inputs": [
        {
          "internalType": "address payable",
          "name": "_mychessboard",
          "type": "address"
        }
      ],
      "stateMutability": "nonpayable",
      "type": "constructor"
    },
    {
      "inputs": [
        {
          "internalType": "uint256[2]",
          "name": "oldpos",
          "type": "uint256[2]"
        },
        {
          "internalType": "uint256[2]",
          "name": "newpos",
          "type": "uint256[2]"
        }
      ],
      "name": "Direction",
      "outputs": [
        {
          "internalType": "bool",
          "name": "res",
          "type": "bool"
        }
      ],
      "stateMutability": "view",
      "type": "function"
    },
    {
      "inputs": [
        {
          "internalType": "uint256[2]",
          "name": "oldpos",
          "type": "uint256[2]"
        },
        {
          "internalType": "uint256[2]",
          "name": "newpos",
          "type": "uint256[2]"
        },
        {
          "internalType": "bool",
          "name": "team",
          "type": "bool"
        },
        {
          "internalType": "uint256",
          "name": "_maxsteps",
          "type": "uint256"
        }
      ],
      "name": "MoveControl",
      "outputs": [
        {
          "internalType": "bool",
          "name": "res",
          "type": "bool"
        }
      ],
      "stateMutability": "nonpayable",
      "type": "function"
    },
    {
      "inputs": [
        {
          "internalType": "int256",
          "name": "x_",
          "type": "int256"
        }
      ],
      "name": "abs",
      "outputs": [
        {
          "internalType": "int256",
          "name": "_x",
          "type": "int256"
        }
      ],
      "stateMutability": "pure",
      "type": "function"
    },
    {
      "inputs": [
        {
          "internalType": "int256",
          "name": "x_",
          "type": "int256"
        }
      ],
      "name": "arrdec",
      "outputs": [
        {
          "internalType": "int256",
          "name": "_x",
          "type": "int256"
        }
      ],
      "stateMutability": "pure",
      "type": "function"
    },
    {
      "inputs": [
        {
          "internalType": "int256",
          "name": "x_",
          "type": "int256"
        }
      ],
      "name": "arrecc",
      "outputs": [
        {
          "internalType": "int256",
          "name": "_x",
          "type": "int256"
        }
      ],
      "stateMutability": "pure",
      "type": "function"
    },
    {
      "inputs": [
        {
          "internalType": "int256",
          "name": "x_",
          "type": "int256"
        }
      ],
      "name": "increment",
      "outputs": [
        {
          "internalType": "int256",
          "name": "inc",
          "type": "int256"
        }
      ],
      "stateMutability": "pure",
      "type": "function"
    },
    {
      "inputs": [
        {
          "internalType": "uint256[2]",
          "name": "oldpos",
          "type": "uint256[2]"
        },
        {
          "internalType": "uint256[2]",
          "name": "newpos",
          "type": "uint256[2]"
        }
      ],
      "name": "isObstacled",
      "outputs": [
        {
          "internalType": "bool",
          "name": "res",
          "type": "bool"
        },
        {
          "internalType": "uint256[2]",
          "name": "pos",
          "type": "uint256[2]"
        }
      ],
      "stateMutability": "view",
      "type": "function"
    },
    {
      "inputs": [
        {
          "internalType": "int256",
          "name": "x_",
          "type": "int256"
        },
        {
          "internalType": "int256",
          "name": "y_",
          "type": "int256"
        }
      ],
      "name": "max",
      "outputs": [
        {
          "internalType": "int256",
          "name": "_max",
          "type": "int256"
        }
      ],
      "stateMutability": "pure",
      "type": "function"
    },
    {
      "inputs": [],
      "name": "maxsteps",
      "outputs": [
        {
          "internalType": "uint256",
          "name": "",
          "type": "uint256"
        }
      ],
      "stateMutability": "view",
      "type": "function"
    },
    {
      "inputs": [
        {
          "internalType": "int256",
          "name": "x_",
          "type": "int256"
        },
        {
          "internalType": "int256",
          "name": "y_",
          "type": "int256"
        }
      ],
      "name": "min",
      "outputs": [
        {
          "internalType": "int256",
          "name": "_min",
          "type": "int256"
        }
      ],
      "stateMutability": "pure",
      "type": "function"
    }
  ],
  "bytecode": "0x60806040523480156200001157600080fd5b5060405162002c6f38038062002c6f8339818101604052810190620000379190620000e9565b80600360006101000a81548173ffffffffffffffffffffffffffffffffffffffff021916908373ffffffffffffffffffffffffffffffffffffffff160217905550506200011b565b600080fd5b600073ffffffffffffffffffffffffffffffffffffffff82169050919050565b6000620000b18262000084565b9050919050565b620000c381620000a4565b8114620000cf57600080fd5b50565b600081519050620000e381620000b8565b92915050565b6000602082840312156200010257620001016200007f565b5b60006200011284828501620000d2565b91505092915050565b612b44806200012b6000396000f3fe608060405234801561001057600080fd5b506004361061009e5760003560e01c806381fe57861161006657806381fe578614610182578063ac411ce6146101b2578063bac35119146101e2578063c03c300314610212578063ee0b07e0146102425761009e565b80631b5ac4b5146100a357806329aa9cbe146100d35780636c1b5443146101035780636d5725001461012157806371cc5ad114610151575b600080fd5b6100bd60048036038101906100b89190611ec3565b610272565b6040516100ca9190611eff565b60405180910390f35b6100ed60048036038101906100e89190611f1a565b610296565b6040516100fa9190611eff565b60405180910390f35b61010b6102b0565b6040516101189190611f73565b60405180910390f35b61013b60048036038101906101369190612139565b6102b6565b60405161014891906121af565b60405180910390f35b61016b600480360381019061016691906121ca565b610f5d565b6040516101799291906122b5565b60405180910390f35b61019c60048036038101906101979190611f1a565b6111ab565b6040516101a99190611eff565b60405180910390f35b6101cc60048036038101906101c791906121ca565b6111c5565b6040516101d991906121af565b60405180910390f35b6101fc60048036038101906101f79190611ec3565b611dd8565b6040516102099190611eff565b60405180910390f35b61022c60048036038101906102279190611ec3565b611df3565b6040516102399190611eff565b60405180910390f35b61025c60048036038101906102579190611ec3565b611e42565b6040516102699190611eff565b60405180910390f35b60008082121561028d57816102869061230d565b9050610291565b8190505b919050565b6000818313156102a657816102a8565b805b905092915050565b60005481565b6000848484846001600360009054906101000a900473ffffffffffffffffffffffffffffffffffffffff1673ffffffffffffffffffffffffffffffffffffffff16631feeef98866000600281106103105761030f612355565b5b60200201518760016002811061032957610328612355565b5b60200201516040518363ffffffff1660e01b815260040161034b929190612384565b6040805180830381865afa158015610367573d6000803e3d6000fd5b505050506040513d601f19601f8201168201806040525081019061038b919061242c565b600001510361054a57600081600081905550821561044457836001600281106103b7576103b6612355565b5b6020020151856001600281106103d0576103cf612355565b5b602002015111610415576040517f08c379a000000000000000000000000000000000000000000000000000000000815260040161040c90612490565b60405180910390fd5b60068560016002811061042b5761042a612355565b5b60200201510361043e5760019050610443565b600090505b5b826104ea578360016002811061045d5761045c612355565b5b60200201518560016002811061047657610475612355565b5b6020020151106104bb576040517f08c379a00000000000000000000000000000000000000000000000000000000081526004016104b290612490565b60405180910390fd5b6001856001600281106104d1576104d0612355565b5b6020020151036104e457600190506104e9565b600090505b5b60026105308660016002811061050357610502612355565b5b60200201518660016002811061051c5761051b612355565b5b602002015161052b91906124b0565b610272565b14801561053a5750805b156105485760026000819055505b505b888888600054811515600360009054906101000a900473ffffffffffffffffffffffffffffffffffffffff1673ffffffffffffffffffffffffffffffffffffffff16631feeef98866000600281106105a5576105a4612355565b5b6020020151876001600281106105be576105bd612355565b5b60200201516040518363ffffffff1660e01b81526004016105e0929190612384565b6040805180830381865afa1580156105fc573d6000803e3d6000fd5b505050506040513d601f19601f82011682018060405250810190610620919061242c565b60200151151514610666576040517f08c379a000000000000000000000000000000000000000000000000000000000815260040161065d90612590565b60405180910390fd5b8260006002811061067a57610679612355565b5b60200201518460006002811061069357610692612355565b5b60200201511415806106d55750826001600281106106b4576106b3612355565b5b6020020151846001600281106106cd576106cc612355565b5b602002015114155b610714576040517f08c379a000000000000000000000000000000000000000000000000000000000815260040161070b906125fc565b60405180910390fd5b8360006002811061072857610727612355565b5b60200201518360006002811061074157610740612355565b5b602002015161075091906124b0565b6001819055508360016002811061076a57610769612355565b5b60200201518360016002811061078357610782612355565b5b602002015161079291906124b0565b60028190555060006107a485856111c5565b9050806107e6576040517f08c379a00000000000000000000000000000000000000000000000000000000081526004016107dd90612668565b60405180910390fd5b6000856001600281106107fc576107fb612355565b5b6020020151148015610826575060048560006002811061081f5761081e612355565b5b6020020151145b80156108d457506005600360009054906101000a900473ffffffffffffffffffffffffffffffffffffffff1673ffffffffffffffffffffffffffffffffffffffff16631feeef98600460006040518363ffffffff1660e01b815260040161088e929190612708565b6040805180830381865afa1580156108aa573d6000803e3d6000fd5b505050506040513d601f19601f820116820180604052508101906108ce919061242c565b60000151145b8015610abe57506000846001600281106108f1576108f0612355565b5b602002015114801561091b575060068460006002811061091457610913612355565b5b6020020151145b80156109c957506002600360009054906101000a900473ffffffffffffffffffffffffffffffffffffffff1673ffffffffffffffffffffffffffffffffffffffff16631feeef98600760006040518363ffffffff1660e01b815260040161098392919061276c565b6040805180830381865afa15801561099f573d6000803e3d6000fd5b505050506040513d601f19601f820116820180604052508101906109c3919061242c565b60000151145b80610abd57506000846001600281106109e5576109e4612355565b5b6020020151148015610a0f5750600284600060028110610a0857610a07612355565b5b6020020151145b8015610abc57506002600360009054906101000a900473ffffffffffffffffffffffffffffffffffffffff1673ffffffffffffffffffffffffffffffffffffffff16631feeef986000806040518363ffffffff1660e01b8152600401610a76929190612795565b6040805180830381865afa158015610a92573d6000803e3d6000fd5b505050506040513d601f19601f82011682018060405250810190610ab6919061242c565b60000151145b5b5b80610d9d5750600785600160028110610ada57610ad9612355565b5b6020020151148015610b045750600385600060028110610afd57610afc612355565b5b6020020151145b8015610bb257506005600360009054906101000a900473ffffffffffffffffffffffffffffffffffffffff1673ffffffffffffffffffffffffffffffffffffffff16631feeef98600360076040518363ffffffff1660e01b8152600401610b6c9291906127f9565b6040805180830381865afa158015610b88573d6000803e3d6000fd5b505050506040513d601f19601f82011682018060405250810190610bac919061242c565b60000151145b8015610d9c5750600184600160028110610bcf57610bce612355565b5b6020020151148015610bf95750600784600060028110610bf257610bf1612355565b5b6020020151145b8015610ca657506002600360009054906101000a900473ffffffffffffffffffffffffffffffffffffffff1673ffffffffffffffffffffffffffffffffffffffff16631feeef986007806040518363ffffffff1660e01b8152600401610c60929190612822565b6040805180830381865afa158015610c7c573d6000803e3d6000fd5b505050506040513d601f19601f82011682018060405250810190610ca0919061242c565b60000151145b80610d9b5750600584600160028110610cc257610cc1612355565b5b6020020151148015610cec5750600284600060028110610ce557610ce4612355565b5b6020020151145b8015610d9a57506002600360009054906101000a900473ffffffffffffffffffffffffffffffffffffffff1673ffffffffffffffffffffffffffffffffffffffff16631feeef98600060076040518363ffffffff1660e01b8152600401610d5492919061284b565b6040805180830381865afa158015610d70573d6000803e3d6000fd5b505050506040513d601f19601f82011682018060405250810190610d94919061242c565b60000151145b5b5b5b15610dab5760026000819055505b60038060009054906101000a900473ffffffffffffffffffffffffffffffffffffffff1673ffffffffffffffffffffffffffffffffffffffff16631feeef9887600060028110610dfe57610dfd612355565b5b602002015188600160028110610e1757610e16612355565b5b60200201516040518363ffffffff1660e01b8152600401610e39929190612384565b6040805180830381865afa158015610e55573d6000803e3d6000fd5b505050506040513d601f19601f82011682018060405250810190610e79919061242c565b6000015114610f4857610e8d600154610272565b60005410158015610eaa5750610ea4600254610272565b60005410155b610ee9576040517f08c379a0000000000000000000000000000000000000000000000000000000008152600401610ee0906128c0565b60405180910390fd5b6000610ef3611e5c565b610efd8787610f5d565b809250819350505081610f45576040517f08c379a0000000000000000000000000000000000000000000000000000000008152600401610f3c9061292c565b60405180910390fd5b50505b60019950505050505050505050949350505050565b6000610f67611e5c565b600084600060028110610f7d57610f7c612355565b5b602002015184600060028110610f9657610f95612355565b5b6020020151610fa591906124b0565b9050600085600160028110610fbd57610fbc612355565b5b602002015185600160028110610fd657610fd5612355565b5b6020020151610fe591906124b0565b90506000610ff283611df3565b90506000610fff83611df3565b905060008860006002811061101757611016612355565b5b6020020151905060008960016002811061103457611033612355565b5b60200201519050600197505b838960006002811061105557611054612355565b5b602002015161106491906124b0565b821415806110955750828960016002811061108257611081612355565b5b602002015161109191906124b0565b8114155b1561119e5783826110a6919061294c565b915082816110b4919061294c565b90506000600360009054906101000a900473ffffffffffffffffffffffffffffffffffffffff1673ffffffffffffffffffffffffffffffffffffffff16631feeef9884846040518363ffffffff1660e01b8152600401611115929190612384565b6040805180830381865afa158015611131573d6000803e3d6000fd5b505050506040513d601f19601f82011682018060405250810190611155919061242c565b600001511461117e5760009750604051806040016040528083815260200182815250965061119e565b600197506040518060400160405280838152602001828152509650611040565b5050505050509250929050565b6000818312156111bb57816111bd565b805b905092915050565b600080836000600281106111dc576111db612355565b5b6020020151836000600281106111f5576111f4612355565b5b602002015161120491906124b0565b905060008460016002811061121c5761121b612355565b5b60200201518460016002811061123557611234612355565b5b602002015161124491906124b0565b9050600082141580156112575750600081145b156113fb57600360009054906101000a900473ffffffffffffffffffffffffffffffffffffffff1673ffffffffffffffffffffffffffffffffffffffff16638f7daf0f600360009054906101000a900473ffffffffffffffffffffffffffffffffffffffff1673ffffffffffffffffffffffffffffffffffffffff16631feeef98886000600281106112ec576112eb612355565b5b60200201518960016002811061130557611304612355565b5b60200201516040518363ffffffff1660e01b8152600401611327929190612384565b6040805180830381865afa158015611343573d6000803e3d6000fd5b505050506040513d601f19601f82011682018060405250810190611367919061242c565b600001516040518263ffffffff1660e01b81526004016113879190611f73565b608060405180830381865afa1580156113a4573d6000803e3d6000fd5b505050506040513d601f19601f820116820180604052508101906113c89190612ae1565b600001516000600381106113df576113de612355565b5b60200201516113f157600092506113f6565b600192505b611dd0565b6000811415801561140c5750600082145b156115b057600360009054906101000a900473ffffffffffffffffffffffffffffffffffffffff1673ffffffffffffffffffffffffffffffffffffffff16638f7daf0f600360009054906101000a900473ffffffffffffffffffffffffffffffffffffffff1673ffffffffffffffffffffffffffffffffffffffff16631feeef98886000600281106114a1576114a0612355565b5b6020020151896001600281106114ba576114b9612355565b5b60200201516040518363ffffffff1660e01b81526004016114dc929190612384565b6040805180830381865afa1580156114f8573d6000803e3d6000fd5b505050506040513d601f19601f8201168201806040525081019061151c919061242c565b600001516040518263ffffffff1660e01b815260040161153c9190611f73565b608060405180830381865afa158015611559573d6000803e3d6000fd5b505050506040513d601f19601f8201168201806040525081019061157d9190612ae1565b6000015160016003811061159457611593612355565b5b60200201516115a657600092506115ab565b600192505b611dcf565b600082141580156115d057506115c581610272565b6115ce83610272565b145b15611c92576001600360009054906101000a900473ffffffffffffffffffffffffffffffffffffffff1673ffffffffffffffffffffffffffffffffffffffff16631feeef988760006002811061162957611628612355565b5b60200201518860016002811061164257611641612355565b5b60200201516040518363ffffffff1660e01b8152600401611664929190612384565b6040805180830381865afa158015611680573d6000803e3d6000fd5b505050506040513d601f19601f820116820180604052508101906116a4919061242c565b6000015114801561178657506000600360009054906101000a900473ffffffffffffffffffffffffffffffffffffffff1673ffffffffffffffffffffffffffffffffffffffff16631feeef988660006002811061170457611703612355565b5b60200201518760016002811061171d5761171c612355565b5b60200201516040518363ffffffff1660e01b815260040161173f929190612384565b6040805180830381865afa15801561175b573d6000803e3d6000fd5b505050506040513d601f19601f8201168201806040525081019061177f919061242c565b6000015114155b801561179a5750600161179883610272565b145b156117a85760019250611c8d565b600360009054906101000a900473ffffffffffffffffffffffffffffffffffffffff1673ffffffffffffffffffffffffffffffffffffffff16638f7daf0f600360009054906101000a900473ffffffffffffffffffffffffffffffffffffffff1673ffffffffffffffffffffffffffffffffffffffff16631feeef988860006002811061183857611837612355565b5b60200201518960016002811061185157611850612355565b5b60200201516040518363ffffffff1660e01b8152600401611873929190612384565b6040805180830381865afa15801561188f573d6000803e3d6000fd5b505050506040513d601f19601f820116820180604052508101906118b3919061242c565b600001516040518263ffffffff1660e01b81526004016118d39190611f73565b608060405180830381865afa1580156118f0573d6000803e3d6000fd5b505050506040513d601f19601f820116820180604052508101906119149190612ae1565b6000015160026003811061192b5761192a612355565b5b6020020151158015611a0e57506001600360009054906101000a900473ffffffffffffffffffffffffffffffffffffffff1673ffffffffffffffffffffffffffffffffffffffff16631feeef988760006002811061198c5761198b612355565b5b6020020151886001600281106119a5576119a4612355565b5b60200201516040518363ffffffff1660e01b81526004016119c7929190612384565b6040805180830381865afa1580156119e3573d6000803e3d6000fd5b505050506040513d601f19601f82011682018060405250810190611a07919061242c565b6000015114155b15611a1c5760009250611c8c565b600360009054906101000a900473ffffffffffffffffffffffffffffffffffffffff1673ffffffffffffffffffffffffffffffffffffffff16638f7daf0f600360009054906101000a900473ffffffffffffffffffffffffffffffffffffffff1673ffffffffffffffffffffffffffffffffffffffff16631feeef9888600060028110611aac57611aab612355565b5b602002015189600160028110611ac557611ac4612355565b5b60200201516040518363ffffffff1660e01b8152600401611ae7929190612384565b6040805180830381865afa158015611b03573d6000803e3d6000fd5b505050506040513d601f19601f82011682018060405250810190611b27919061242c565b600001516040518263ffffffff1660e01b8152600401611b479190611f73565b608060405180830381865afa158015611b64573d6000803e3d6000fd5b505050506040513d601f19601f82011682018060405250810190611b889190612ae1565b60000151600260038110611b9f57611b9e612355565b5b60200201518015611c8157506001600360009054906101000a900473ffffffffffffffffffffffffffffffffffffffff1673ffffffffffffffffffffffffffffffffffffffff16631feeef9887600060028110611bff57611bfe612355565b5b602002015188600160028110611c1857611c17612355565b5b60200201516040518363ffffffff1660e01b8152600401611c3a929190612384565b6040805180830381865afa158015611c56573d6000803e3d6000fd5b505050506040513d601f19601f82011682018060405250810190611c7a919061242c565b6000015114155b15611c8b57600192505b5b5b611dce565b6002611c9d83610272565b148015611cb257506001611cb082610272565b145b80611cd957506001611cc383610272565b148015611cd857506002611cd682610272565b145b5b15611dc85760038060009054906101000a900473ffffffffffffffffffffffffffffffffffffffff1673ffffffffffffffffffffffffffffffffffffffff16631feeef9887600060028110611d3157611d30612355565b5b602002015188600160028110611d4a57611d49612355565b5b60200201516040518363ffffffff1660e01b8152600401611d6c929190612384565b6040805180830381865afa158015611d88573d6000803e3d6000fd5b505050506040513d601f19601f82011682018060405250810190611dac919061242c565b6000015114611dbe5760009250611dc3565b600192505b611dcd565b600092505b5b5b5b505092915050565b60006007821315611dea576007611dec565b805b9050919050565b600080821215611e25577fffffffffffffffffffffffffffffffffffffffffffffffffffffffffffffffff9050611e3d565b6000821315611e375760019050611e3c565b600090505b5b919050565b600080821315611e53576000611e55565b805b9050919050565b6040518060400160405280600290602082028036833780820191505090505090565b6000604051905090565b600080fd5b6000819050919050565b611ea081611e8d565b8114611eab57600080fd5b50565b600081359050611ebd81611e97565b92915050565b600060208284031215611ed957611ed8611e88565b5b6000611ee784828501611eae565b91505092915050565b611ef981611e8d565b82525050565b6000602082019050611f146000830184611ef0565b92915050565b60008060408385031215611f3157611f30611e88565b5b6000611f3f85828601611eae565b9250506020611f5085828601611eae565b9150509250929050565b6000819050919050565b611f6d81611f5a565b82525050565b6000602082019050611f886000830184611f64565b92915050565b600080fd5b6000601f19601f8301169050919050565b7f4e487b7100000000000000000000000000000000000000000000000000000000600052604160045260246000fd5b611fdc82611f93565b810181811067ffffffffffffffff82111715611ffb57611ffa611fa4565b5b80604052505050565b600061200e611e7e565b905061201a8282611fd3565b919050565b600067ffffffffffffffff82111561203a57612039611fa4565b5b602082029050919050565b600080fd5b61205381611f5a565b811461205e57600080fd5b50565b6000813590506120708161204a565b92915050565b60006120896120848461201f565b612004565b905080602084028301858111156120a3576120a2612045565b5b835b818110156120cc57806120b88882612061565b8452602084019350506020810190506120a5565b5050509392505050565b600082601f8301126120eb576120ea611f8e565b5b60026120f8848285612076565b91505092915050565b60008115159050919050565b61211681612101565b811461212157600080fd5b50565b6000813590506121338161210d565b92915050565b60008060008060c0858703121561215357612152611e88565b5b6000612161878288016120d6565b9450506040612172878288016120d6565b935050608061218387828801612124565b92505060a061219487828801612061565b91505092959194509250565b6121a981612101565b82525050565b60006020820190506121c460008301846121a0565b92915050565b600080608083850312156121e1576121e0611e88565b5b60006121ef858286016120d6565b9250506040612200858286016120d6565b9150509250929050565b600060029050919050565b600081905092915050565b6000819050919050565b61223381611f5a565b82525050565b6000612245838361222a565b60208301905092915050565b6000602082019050919050565b6122678161220a565b6122718184612215565b925061227c82612220565b8060005b838110156122ad5781516122948782612239565b965061229f83612251565b925050600181019050612280565b505050505050565b60006060820190506122ca60008301856121a0565b6122d7602083018461225e565b9392505050565b7f4e487b7100000000000000000000000000000000000000000000000000000000600052601160045260246000fd5b600061231882611e8d565b91507f8000000000000000000000000000000000000000000000000000000000000000820361234a576123496122de565b5b816000039050919050565b7f4e487b7100000000000000000000000000000000000000000000000000000000600052603260045260246000fd5b60006040820190506123996000830185611f64565b6123a66020830184611f64565b9392505050565b600080fd5b6000815190506123c18161204a565b92915050565b6000815190506123d68161210d565b92915050565b6000604082840312156123f2576123f16123ad565b5b6123fc6040612004565b9050600061240c848285016123b2565b6000830152506020612420848285016123c7565b60208301525092915050565b60006040828403121561244257612441611e88565b5b6000612450848285016123dc565b91505092915050565b600082825260208201905092915050565b50565b600061247a600083612459565b91506124858261246a565b600082019050919050565b600060208201905081810360008301526124a98161246d565b9050919050565b60006124bb82611e8d565b91506124c683611e8d565b9250827f800000000000000000000000000000000000000000000000000000000000000001821260008412151615612501576125006122de565b5b827f7fffffffffffffffffffffffffffffffffffffffffffffffffffffffffffffff018213600084121615612539576125386122de565b5b828203905092915050565b7f6e6f742079207000000000000000000000000000000000000000000000000000600082015250565b600061257a600783612459565b915061258582612544565b602082019050919050565b600060208201905081810360008301526125a98161256d565b9050919050565b7f73706f7374617469000000000000000000000000000000000000000000000000600082015250565b60006125e6600883612459565b91506125f1826125b0565b602082019050919050565b60006020820190508181036000830152612615816125d9565b9050919050565b7f6469726d00000000000000000000000000000000000000000000000000000000600082015250565b6000612652600483612459565b915061265d8261261c565b602082019050919050565b6000602082019050818103600083015261268181612645565b9050919050565b6000819050919050565b6000819050919050565b60006126b76126b26126ad84612688565b612692565b611f5a565b9050919050565b6126c78161269c565b82525050565b6000819050919050565b60006126f26126ed6126e8846126cd565b612692565b611f5a565b9050919050565b612702816126d7565b82525050565b600060408201905061271d60008301856126be565b61272a60208301846126f9565b9392505050565b6000819050919050565b600061275661275161274c84612731565b612692565b611f5a565b9050919050565b6127668161273b565b82525050565b6000604082019050612781600083018561275d565b61278e60208301846126f9565b9392505050565b60006040820190506127aa60008301856126f9565b6127b760208301846126f9565b9392505050565b6000819050919050565b60006127e36127de6127d9846127be565b612692565b611f5a565b9050919050565b6127f3816127c8565b82525050565b600060408201905061280e60008301856127ea565b61281b602083018461275d565b9392505050565b6000604082019050612837600083018561275d565b612844602083018461275d565b9392505050565b600060408201905061286060008301856126f9565b61286d602083018461275d565b9392505050565b7f6d61780000000000000000000000000000000000000000000000000000000000600082015250565b60006128aa600383612459565b91506128b582612874565b602082019050919050565b600060208201905081810360008301526128d98161289d565b9050919050565b7f6f62730000000000000000000000000000000000000000000000000000000000600082015250565b6000612916600383612459565b9150612921826128e0565b602082019050919050565b6000602082019050818103600083015261294581612909565b9050919050565b600061295782611e8d565b915061296283611e8d565b9250817f7fffffffffffffffffffffffffffffffffffffffffffffffffffffffffffffff0383136000831215161561299d5761299c6122de565b5b817f80000000000000000000000000000000000000000000000000000000000000000383126000831216156129d5576129d46122de565b5b828201905092915050565b600067ffffffffffffffff8211156129fb576129fa611fa4565b5b602082029050919050565b6000612a19612a14846129e0565b612004565b90508060208402830185811115612a3357612a32612045565b5b835b81811015612a5c5780612a4888826123c7565b845260208401935050602081019050612a35565b5050509392505050565b600082601f830112612a7b57612a7a611f8e565b5b6003612a88848285612a06565b91505092915050565b600060808284031215612aa757612aa66123ad565b5b612ab16040612004565b90506000612ac184828501612a66565b6000830152506060612ad5848285016123b2565b60208301525092915050565b600060808284031215612af757612af6611e88565b5b6000612b0584828501612a91565b9150509291505056fea26469706673582212206df34697e3865f591b2dd62a08d6f3209213771d5a11a13c8efcd338c26d539464736f6c634300080e0033",
  "linkReferences": {},
  "deployedLinkReferences": {}
}