{
  "_format": "hh-sol-artifact-1",
  "contractName": "MoveController",
  "sourceName": "contracts/MoveController.sol",
  "abi": [
    {
      "inputs": [
        {
          "internalType": "address payable",
          "name": "_mychessboard",
          "type": "address"
        }
      ],
      "stateMutability": "nonpayable",
      "type": "constructor"
    },
    {
      "inputs": [
        {
          "internalType": "uint256[2]",
          "name": "oldpos",
          "type": "uint256[2]"
        },
        {
          "internalType": "uint256[2]",
          "name": "newpos",
          "type": "uint256[2]"
        }
      ],
      "name": "Direction",
      "outputs": [
        {
          "internalType": "bool",
          "name": "res",
          "type": "bool"
        }
      ],
      "stateMutability": "view",
      "type": "function"
    },
    {
      "inputs": [
        {
          "internalType": "uint256[2]",
          "name": "oldpos",
          "type": "uint256[2]"
        },
        {
          "internalType": "uint256[2]",
          "name": "newpos",
          "type": "uint256[2]"
        },
        {
          "internalType": "bool",
          "name": "team",
          "type": "bool"
        },
        {
          "internalType": "uint256",
          "name": "_maxsteps",
          "type": "uint256"
        }
      ],
      "name": "MoveControl",
      "outputs": [
        {
          "internalType": "bool",
          "name": "res",
          "type": "bool"
        }
      ],
      "stateMutability": "nonpayable",
      "type": "function"
    },
    {
      "inputs": [
        {
          "internalType": "int256",
          "name": "x_",
          "type": "int256"
        }
      ],
      "name": "abs",
      "outputs": [
        {
          "internalType": "int256",
          "name": "_x",
          "type": "int256"
        }
      ],
      "stateMutability": "pure",
      "type": "function"
    },
    {
      "inputs": [
        {
          "internalType": "int256",
          "name": "x_",
          "type": "int256"
        }
      ],
      "name": "arrdec",
      "outputs": [
        {
          "internalType": "int256",
          "name": "_x",
          "type": "int256"
        }
      ],
      "stateMutability": "pure",
      "type": "function"
    },
    {
      "inputs": [
        {
          "internalType": "int256",
          "name": "x_",
          "type": "int256"
        }
      ],
      "name": "arrecc",
      "outputs": [
        {
          "internalType": "int256",
          "name": "_x",
          "type": "int256"
        }
      ],
      "stateMutability": "pure",
      "type": "function"
    },
    {
      "inputs": [
        {
          "internalType": "int256",
          "name": "x_",
          "type": "int256"
        }
      ],
      "name": "increment",
      "outputs": [
        {
          "internalType": "int256",
          "name": "inc",
          "type": "int256"
        }
      ],
      "stateMutability": "pure",
      "type": "function"
    },
    {
      "inputs": [
        {
          "internalType": "uint256[2]",
          "name": "oldpos",
          "type": "uint256[2]"
        },
        {
          "internalType": "uint256[2]",
          "name": "newpos",
          "type": "uint256[2]"
        }
      ],
      "name": "isObstacled",
      "outputs": [
        {
          "internalType": "bool",
          "name": "res",
          "type": "bool"
        },
        {
          "internalType": "uint256[2]",
          "name": "pos",
          "type": "uint256[2]"
        }
      ],
      "stateMutability": "view",
      "type": "function"
    },
    {
      "inputs": [
        {
          "internalType": "int256",
          "name": "x_",
          "type": "int256"
        },
        {
          "internalType": "int256",
          "name": "y_",
          "type": "int256"
        }
      ],
      "name": "max",
      "outputs": [
        {
          "internalType": "int256",
          "name": "_max",
          "type": "int256"
        }
      ],
      "stateMutability": "pure",
      "type": "function"
    },
    {
      "inputs": [],
      "name": "maxsteps",
      "outputs": [
        {
          "internalType": "uint256",
          "name": "",
          "type": "uint256"
        }
      ],
      "stateMutability": "view",
      "type": "function"
    },
    {
      "inputs": [
        {
          "internalType": "int256",
          "name": "x_",
          "type": "int256"
        },
        {
          "internalType": "int256",
          "name": "y_",
          "type": "int256"
        }
      ],
      "name": "min",
      "outputs": [
        {
          "internalType": "int256",
          "name": "_min",
          "type": "int256"
        }
      ],
      "stateMutability": "pure",
      "type": "function"
    }
  ],
  "bytecode": "0x60806040523480156200001157600080fd5b506040516200237b3803806200237b8339818101604052810190620000379190620000e9565b80600360006101000a81548173ffffffffffffffffffffffffffffffffffffffff021916908373ffffffffffffffffffffffffffffffffffffffff160217905550506200011b565b600080fd5b600073ffffffffffffffffffffffffffffffffffffffff82169050919050565b6000620000b18262000084565b9050919050565b620000c381620000a4565b8114620000cf57600080fd5b50565b600081519050620000e381620000b8565b92915050565b6000602082840312156200010257620001016200007f565b5b60006200011284828501620000d2565b91505092915050565b612250806200012b6000396000f3fe608060405234801561001057600080fd5b506004361061009e5760003560e01c806381fe57861161006657806381fe578614610182578063ac411ce6146101b2578063bac35119146101e2578063c03c300314610212578063ee0b07e0146102425761009e565b80631b5ac4b5146100a357806329aa9cbe146100d35780636c1b5443146101035780636d5725001461012157806371cc5ad114610151575b600080fd5b6100bd60048036038101906100b891906119d7565b610272565b6040516100ca9190611a13565b60405180910390f35b6100ed60048036038101906100e89190611a2e565b610296565b6040516100fa9190611a13565b60405180910390f35b61010b6102b0565b6040516101189190611a87565b60405180910390f35b61013b60048036038101906101369190611c4d565b6102b6565b6040516101489190611cc3565b60405180910390f35b61016b60048036038101906101669190611cde565b610a71565b604051610179929190611dc9565b60405180910390f35b61019c60048036038101906101979190611a2e565b610cbf565b6040516101a99190611a13565b60405180910390f35b6101cc60048036038101906101c79190611cde565b610cd9565b6040516101d99190611cc3565b60405180910390f35b6101fc60048036038101906101f791906119d7565b6118ec565b6040516102099190611a13565b60405180910390f35b61022c600480360381019061022791906119d7565b611907565b6040516102399190611a13565b60405180910390f35b61025c600480360381019061025791906119d7565b611956565b6040516102699190611a13565b60405180910390f35b60008082121561028d578161028690611e21565b9050610291565b8190505b919050565b6000818313156102a657816102a8565b805b905092915050565b60005481565b6000848484846001600360009054906101000a900473ffffffffffffffffffffffffffffffffffffffff1673ffffffffffffffffffffffffffffffffffffffff16631feeef98866000600281106103105761030f611e69565b5b60200201518760016002811061032957610328611e69565b5b60200201516040518363ffffffff1660e01b815260040161034b929190611e98565b6040805180830381865afa158015610367573d6000803e3d6000fd5b505050506040513d601f19601f8201168201806040525081019061038b9190611f40565b600001510361054a57600081600081905550821561044457836001600281106103b7576103b6611e69565b5b6020020151856001600281106103d0576103cf611e69565b5b602002015111610415576040517f08c379a000000000000000000000000000000000000000000000000000000000815260040161040c90611fa4565b60405180910390fd5b60068560016002811061042b5761042a611e69565b5b60200201510361043e5760019050610443565b600090505b5b826104ea578360016002811061045d5761045c611e69565b5b60200201518560016002811061047657610475611e69565b5b6020020151106104bb576040517f08c379a00000000000000000000000000000000000000000000000000000000081526004016104b290611fa4565b60405180910390fd5b6001856001600281106104d1576104d0611e69565b5b6020020151036104e457600190506104e9565b600090505b5b60026105308660016002811061050357610502611e69565b5b60200201518660016002811061051c5761051b611e69565b5b602002015161052b9190611fc4565b610272565b14801561053a5750805b156105485760026000819055505b505b8888886000548260006002811061056457610563611e69565b5b60200201518460006002811061057d5761057c611e69565b5b60200201511415806105bf57508260016002811061059e5761059d611e69565b5b6020020151846001600281106105b7576105b6611e69565b5b602002015114155b6105fe576040517f08c379a00000000000000000000000000000000000000000000000000000000081526004016105f590611fa4565b60405180910390fd5b6000600360009054906101000a900473ffffffffffffffffffffffffffffffffffffffff1673ffffffffffffffffffffffffffffffffffffffff16631feeef988560006002811061065257610651611e69565b5b60200201518660016002811061066b5761066a611e69565b5b60200201516040518363ffffffff1660e01b815260040161068d929190611e98565b6040805180830381865afa1580156106a9573d6000803e3d6000fd5b505050506040513d601f19601f820116820180604052508101906106cd9190611f40565b60000151146107ed57811515600360009054906101000a900473ffffffffffffffffffffffffffffffffffffffff1673ffffffffffffffffffffffffffffffffffffffff16631feeef988560006002811061072b5761072a611e69565b5b60200201518660016002811061074457610743611e69565b5b60200201516040518363ffffffff1660e01b8152600401610766929190611e98565b6040805180830381865afa158015610782573d6000803e3d6000fd5b505050506040513d601f19601f820116820180604052508101906107a69190611f40565b602001511515036107ec576040517f08c379a00000000000000000000000000000000000000000000000000000000081526004016107e390611fa4565b60405180910390fd5b5b8360006002811061080157610800611e69565b5b60200201518360006002811061081a57610819611e69565b5b60200201516108299190611fc4565b6001819055508360016002811061084357610842611e69565b5b60200201518360016002811061085c5761085b611e69565b5b602002015161086b9190611fc4565b600281905550600061087d8585610cd9565b9050806108bf576040517f08c379a00000000000000000000000000000000000000000000000000000000081526004016108b690611fa4565b60405180910390fd5b60038060009054906101000a900473ffffffffffffffffffffffffffffffffffffffff1673ffffffffffffffffffffffffffffffffffffffff16631feeef988760006002811061091257610911611e69565b5b60200201518860016002811061092b5761092a611e69565b5b60200201516040518363ffffffff1660e01b815260040161094d929190611e98565b6040805180830381865afa158015610969573d6000803e3d6000fd5b505050506040513d601f19601f8201168201806040525081019061098d9190611f40565b6000015114610a5c576109a1600154610272565b600054101580156109be57506109b8600254610272565b60005410155b6109fd576040517f08c379a00000000000000000000000000000000000000000000000000000000081526004016109f490611fa4565b60405180910390fd5b6000610a07611970565b610a118787610a71565b809250819350505081610a59576040517f08c379a0000000000000000000000000000000000000000000000000000000008152600401610a5090611fa4565b60405180910390fd5b50505b60019950505050505050505050949350505050565b6000610a7b611970565b600084600060028110610a9157610a90611e69565b5b602002015184600060028110610aaa57610aa9611e69565b5b6020020151610ab99190611fc4565b9050600085600160028110610ad157610ad0611e69565b5b602002015185600160028110610aea57610ae9611e69565b5b6020020151610af99190611fc4565b90506000610b0683611907565b90506000610b1383611907565b9050600088600060028110610b2b57610b2a611e69565b5b60200201519050600089600160028110610b4857610b47611e69565b5b60200201519050600197505b8389600060028110610b6957610b68611e69565b5b6020020151610b789190611fc4565b82141580610ba957508289600160028110610b9657610b95611e69565b5b6020020151610ba59190611fc4565b8114155b15610cb2578382610bba9190612058565b91508281610bc89190612058565b90506000600360009054906101000a900473ffffffffffffffffffffffffffffffffffffffff1673ffffffffffffffffffffffffffffffffffffffff16631feeef9884846040518363ffffffff1660e01b8152600401610c29929190611e98565b6040805180830381865afa158015610c45573d6000803e3d6000fd5b505050506040513d601f19601f82011682018060405250810190610c699190611f40565b6000015114610c9257600097506040518060400160405280838152602001828152509650610cb2565b600197506040518060400160405280838152602001828152509650610b54565b5050505050509250929050565b600081831215610ccf5781610cd1565b805b905092915050565b60008083600060028110610cf057610cef611e69565b5b602002015183600060028110610d0957610d08611e69565b5b6020020151610d189190611fc4565b9050600084600160028110610d3057610d2f611e69565b5b602002015184600160028110610d4957610d48611e69565b5b6020020151610d589190611fc4565b905060008214158015610d6b5750600081145b15610f0f57600360009054906101000a900473ffffffffffffffffffffffffffffffffffffffff1673ffffffffffffffffffffffffffffffffffffffff16638f7daf0f600360009054906101000a900473ffffffffffffffffffffffffffffffffffffffff1673ffffffffffffffffffffffffffffffffffffffff16631feeef9888600060028110610e0057610dff611e69565b5b602002015189600160028110610e1957610e18611e69565b5b60200201516040518363ffffffff1660e01b8152600401610e3b929190611e98565b6040805180830381865afa158015610e57573d6000803e3d6000fd5b505050506040513d601f19601f82011682018060405250810190610e7b9190611f40565b600001516040518263ffffffff1660e01b8152600401610e9b9190611a87565b608060405180830381865afa158015610eb8573d6000803e3d6000fd5b505050506040513d601f19601f82011682018060405250810190610edc91906121ed565b60000151600060038110610ef357610ef2611e69565b5b6020020151610f055760009250610f0a565b600192505b6118e4565b60008114158015610f205750600082145b156110c457600360009054906101000a900473ffffffffffffffffffffffffffffffffffffffff1673ffffffffffffffffffffffffffffffffffffffff16638f7daf0f600360009054906101000a900473ffffffffffffffffffffffffffffffffffffffff1673ffffffffffffffffffffffffffffffffffffffff16631feeef9888600060028110610fb557610fb4611e69565b5b602002015189600160028110610fce57610fcd611e69565b5b60200201516040518363ffffffff1660e01b8152600401610ff0929190611e98565b6040805180830381865afa15801561100c573d6000803e3d6000fd5b505050506040513d601f19601f820116820180604052508101906110309190611f40565b600001516040518263ffffffff1660e01b81526004016110509190611a87565b608060405180830381865afa15801561106d573d6000803e3d6000fd5b505050506040513d601f19601f8201168201806040525081019061109191906121ed565b600001516001600381106110a8576110a7611e69565b5b60200201516110ba57600092506110bf565b600192505b6118e3565b600082141580156110e457506110d981610272565b6110e283610272565b145b156117a6576001600360009054906101000a900473ffffffffffffffffffffffffffffffffffffffff1673ffffffffffffffffffffffffffffffffffffffff16631feeef988760006002811061113d5761113c611e69565b5b60200201518860016002811061115657611155611e69565b5b60200201516040518363ffffffff1660e01b8152600401611178929190611e98565b6040805180830381865afa158015611194573d6000803e3d6000fd5b505050506040513d601f19601f820116820180604052508101906111b89190611f40565b6000015114801561129a57506000600360009054906101000a900473ffffffffffffffffffffffffffffffffffffffff1673ffffffffffffffffffffffffffffffffffffffff16631feeef988660006002811061121857611217611e69565b5b60200201518760016002811061123157611230611e69565b5b60200201516040518363ffffffff1660e01b8152600401611253929190611e98565b6040805180830381865afa15801561126f573d6000803e3d6000fd5b505050506040513d601f19601f820116820180604052508101906112939190611f40565b6000015114155b80156112ae575060016112ac83610272565b145b156112bc57600192506117a1565b600360009054906101000a900473ffffffffffffffffffffffffffffffffffffffff1673ffffffffffffffffffffffffffffffffffffffff16638f7daf0f600360009054906101000a900473ffffffffffffffffffffffffffffffffffffffff1673ffffffffffffffffffffffffffffffffffffffff16631feeef988860006002811061134c5761134b611e69565b5b60200201518960016002811061136557611364611e69565b5b60200201516040518363ffffffff1660e01b8152600401611387929190611e98565b6040805180830381865afa1580156113a3573d6000803e3d6000fd5b505050506040513d601f19601f820116820180604052508101906113c79190611f40565b600001516040518263ffffffff1660e01b81526004016113e79190611a87565b608060405180830381865afa158015611404573d6000803e3d6000fd5b505050506040513d601f19601f8201168201806040525081019061142891906121ed565b6000015160026003811061143f5761143e611e69565b5b602002015115801561152257506001600360009054906101000a900473ffffffffffffffffffffffffffffffffffffffff1673ffffffffffffffffffffffffffffffffffffffff16631feeef98876000600281106114a05761149f611e69565b5b6020020151886001600281106114b9576114b8611e69565b5b60200201516040518363ffffffff1660e01b81526004016114db929190611e98565b6040805180830381865afa1580156114f7573d6000803e3d6000fd5b505050506040513d601f19601f8201168201806040525081019061151b9190611f40565b6000015114155b1561153057600092506117a0565b600360009054906101000a900473ffffffffffffffffffffffffffffffffffffffff1673ffffffffffffffffffffffffffffffffffffffff16638f7daf0f600360009054906101000a900473ffffffffffffffffffffffffffffffffffffffff1673ffffffffffffffffffffffffffffffffffffffff16631feeef98886000600281106115c0576115bf611e69565b5b6020020151896001600281106115d9576115d8611e69565b5b60200201516040518363ffffffff1660e01b81526004016115fb929190611e98565b6040805180830381865afa158015611617573d6000803e3d6000fd5b505050506040513d601f19601f8201168201806040525081019061163b9190611f40565b600001516040518263ffffffff1660e01b815260040161165b9190611a87565b608060405180830381865afa158015611678573d6000803e3d6000fd5b505050506040513d601f19601f8201168201806040525081019061169c91906121ed565b600001516002600381106116b3576116b2611e69565b5b6020020151801561179557506001600360009054906101000a900473ffffffffffffffffffffffffffffffffffffffff1673ffffffffffffffffffffffffffffffffffffffff16631feeef988760006002811061171357611712611e69565b5b60200201518860016002811061172c5761172b611e69565b5b60200201516040518363ffffffff1660e01b815260040161174e929190611e98565b6040805180830381865afa15801561176a573d6000803e3d6000fd5b505050506040513d601f19601f8201168201806040525081019061178e9190611f40565b6000015114155b1561179f57600192505b5b5b6118e2565b60026117b183610272565b1480156117c6575060016117c482610272565b145b806117ed575060016117d783610272565b1480156117ec575060026117ea82610272565b145b5b156118dc5760038060009054906101000a900473ffffffffffffffffffffffffffffffffffffffff1673ffffffffffffffffffffffffffffffffffffffff16631feeef988760006002811061184557611844611e69565b5b60200201518860016002811061185e5761185d611e69565b5b60200201516040518363ffffffff1660e01b8152600401611880929190611e98565b6040805180830381865afa15801561189c573d6000803e3d6000fd5b505050506040513d601f19601f820116820180604052508101906118c09190611f40565b60000151146118d257600092506118d7565b600192505b6118e1565b600092505b5b5b5b505092915050565b600060078213156118fe576007611900565b805b9050919050565b600080821215611939577fffffffffffffffffffffffffffffffffffffffffffffffffffffffffffffffff9050611951565b600082131561194b5760019050611950565b600090505b5b919050565b600080821315611967576000611969565b805b9050919050565b6040518060400160405280600290602082028036833780820191505090505090565b6000604051905090565b600080fd5b6000819050919050565b6119b4816119a1565b81146119bf57600080fd5b50565b6000813590506119d1816119ab565b92915050565b6000602082840312156119ed576119ec61199c565b5b60006119fb848285016119c2565b91505092915050565b611a0d816119a1565b82525050565b6000602082019050611a286000830184611a04565b92915050565b60008060408385031215611a4557611a4461199c565b5b6000611a53858286016119c2565b9250506020611a64858286016119c2565b9150509250929050565b6000819050919050565b611a8181611a6e565b82525050565b6000602082019050611a9c6000830184611a78565b92915050565b600080fd5b6000601f19601f8301169050919050565b7f4e487b7100000000000000000000000000000000000000000000000000000000600052604160045260246000fd5b611af082611aa7565b810181811067ffffffffffffffff82111715611b0f57611b0e611ab8565b5b80604052505050565b6000611b22611992565b9050611b2e8282611ae7565b919050565b600067ffffffffffffffff821115611b4e57611b4d611ab8565b5b602082029050919050565b600080fd5b611b6781611a6e565b8114611b7257600080fd5b50565b600081359050611b8481611b5e565b92915050565b6000611b9d611b9884611b33565b611b18565b90508060208402830185811115611bb757611bb6611b59565b5b835b81811015611be05780611bcc8882611b75565b845260208401935050602081019050611bb9565b5050509392505050565b600082601f830112611bff57611bfe611aa2565b5b6002611c0c848285611b8a565b91505092915050565b60008115159050919050565b611c2a81611c15565b8114611c3557600080fd5b50565b600081359050611c4781611c21565b92915050565b60008060008060c08587031215611c6757611c6661199c565b5b6000611c7587828801611bea565b9450506040611c8687828801611bea565b9350506080611c9787828801611c38565b92505060a0611ca887828801611b75565b91505092959194509250565b611cbd81611c15565b82525050565b6000602082019050611cd86000830184611cb4565b92915050565b60008060808385031215611cf557611cf461199c565b5b6000611d0385828601611bea565b9250506040611d1485828601611bea565b9150509250929050565b600060029050919050565b600081905092915050565b6000819050919050565b611d4781611a6e565b82525050565b6000611d598383611d3e565b60208301905092915050565b6000602082019050919050565b611d7b81611d1e565b611d858184611d29565b9250611d9082611d34565b8060005b83811015611dc1578151611da88782611d4d565b9650611db383611d65565b925050600181019050611d94565b505050505050565b6000606082019050611dde6000830185611cb4565b611deb6020830184611d72565b9392505050565b7f4e487b7100000000000000000000000000000000000000000000000000000000600052601160045260246000fd5b6000611e2c826119a1565b91507f80000000000000000000000000000000000000000000000000000000000000008203611e5e57611e5d611df2565b5b816000039050919050565b7f4e487b7100000000000000000000000000000000000000000000000000000000600052603260045260246000fd5b6000604082019050611ead6000830185611a78565b611eba6020830184611a78565b9392505050565b600080fd5b600081519050611ed581611b5e565b92915050565b600081519050611eea81611c21565b92915050565b600060408284031215611f0657611f05611ec1565b5b611f106040611b18565b90506000611f2084828501611ec6565b6000830152506020611f3484828501611edb565b60208301525092915050565b600060408284031215611f5657611f5561199c565b5b6000611f6484828501611ef0565b91505092915050565b600082825260208201905092915050565b50565b6000611f8e600083611f6d565b9150611f9982611f7e565b600082019050919050565b60006020820190508181036000830152611fbd81611f81565b9050919050565b6000611fcf826119a1565b9150611fda836119a1565b9250827f80000000000000000000000000000000000000000000000000000000000000000182126000841215161561201557612014611df2565b5b827f7fffffffffffffffffffffffffffffffffffffffffffffffffffffffffffffff01821360008412161561204d5761204c611df2565b5b828203905092915050565b6000612063826119a1565b915061206e836119a1565b9250817f7fffffffffffffffffffffffffffffffffffffffffffffffffffffffffffffff038313600083121516156120a9576120a8611df2565b5b817f80000000000000000000000000000000000000000000000000000000000000000383126000831216156120e1576120e0611df2565b5b828201905092915050565b600067ffffffffffffffff82111561210757612106611ab8565b5b602082029050919050565b6000612125612120846120ec565b611b18565b9050806020840283018581111561213f5761213e611b59565b5b835b8181101561216857806121548882611edb565b845260208401935050602081019050612141565b5050509392505050565b600082601f83011261218757612186611aa2565b5b6003612194848285612112565b91505092915050565b6000608082840312156121b3576121b2611ec1565b5b6121bd6040611b18565b905060006121cd84828501612172565b60008301525060606121e184828501611ec6565b60208301525092915050565b6000608082840312156122035761220261199c565b5b60006122118482850161219d565b9150509291505056fea26469706673582212208307fc7dac48fce091b1011f23a717a534fda589f973b492392febfab6cd69d164736f6c634300080e0033",
  "linkReferences": {},
  "deployedLinkReferences": {}
}