{
  "_format": "hh-sol-artifact-1",
  "contractName": "MoveHandler",
  "sourceName": "contracts/MoveHandler.sol",
  "abi": [
    {
      "inputs": [
        {
          "internalType": "address",
          "name": "_gamecontrol",
          "type": "address"
        },
        {
          "internalType": "address payable",
          "name": "_chessboard",
          "type": "address"
        }
      ],
      "stateMutability": "nonpayable",
      "type": "constructor"
    },
    {
      "inputs": [
        {
          "internalType": "bool",
          "name": "team",
          "type": "bool"
        }
      ],
      "name": "AuthPos",
      "outputs": [
        {
          "internalType": "bool[8]",
          "name": "ress",
          "type": "bool[8]"
        }
      ],
      "stateMutability": "view",
      "type": "function"
    },
    {
      "inputs": [
        {
          "internalType": "uint256[2]",
          "name": "oldpos",
          "type": "uint256[2]"
        },
        {
          "internalType": "uint256[2]",
          "name": "newpos",
          "type": "uint256[2]"
        },
        {
          "internalType": "bool",
          "name": "team",
          "type": "bool"
        }
      ],
      "name": "canArriveToMe",
      "outputs": [
        {
          "internalType": "bool",
          "name": "res",
          "type": "bool"
        },
        {
          "internalType": "uint256[2]",
          "name": "pos",
          "type": "uint256[2]"
        }
      ],
      "stateMutability": "view",
      "type": "function"
    },
    {
      "inputs": [
        {
          "internalType": "bool",
          "name": "team",
          "type": "bool"
        }
      ],
      "name": "checkHandler",
      "outputs": [
        {
          "internalType": "bool",
          "name": "resss",
          "type": "bool"
        }
      ],
      "stateMutability": "view",
      "type": "function"
    },
    {
      "inputs": [
        {
          "internalType": "uint256[2]",
          "name": "oldpos",
          "type": "uint256[2]"
        },
        {
          "internalType": "bool",
          "name": "team",
          "type": "bool"
        }
      ],
      "name": "isEvilBox",
      "outputs": [
        {
          "internalType": "bool",
          "name": "res",
          "type": "bool"
        },
        {
          "internalType": "bool[8]",
          "name": "ress",
          "type": "bool[8]"
        },
        {
          "internalType": "uint256[8]",
          "name": "posx",
          "type": "uint256[8]"
        },
        {
          "internalType": "uint256[8]",
          "name": "posy",
          "type": "uint256[8]"
        }
      ],
      "stateMutability": "view",
      "type": "function"
    }
  ],
  "bytecode": "0x60806040523480156200001157600080fd5b5060405162003c8e38038062003c8e83398181016040528101906200003791906200016f565b816000806101000a81548173ffffffffffffffffffffffffffffffffffffffff021916908373ffffffffffffffffffffffffffffffffffffffff16021790555080600160006101000a81548173ffffffffffffffffffffffffffffffffffffffff021916908373ffffffffffffffffffffffffffffffffffffffff1602179055505050620001b6565b600080fd5b600073ffffffffffffffffffffffffffffffffffffffff82169050919050565b6000620000f282620000c5565b9050919050565b6200010481620000e5565b81146200011057600080fd5b50565b6000815190506200012481620000f9565b92915050565b60006200013782620000c5565b9050919050565b62000149816200012a565b81146200015557600080fd5b50565b60008151905062000169816200013e565b92915050565b60008060408385031215620001895762000188620000c0565b5b6000620001998582860162000113565b9250506020620001ac8582860162000158565b9150509250929050565b613ac880620001c66000396000f3fe608060405234801561001057600080fd5b506004361061004c5760003560e01c8063218c51a51461005157806325f12500146100815780632f1d8074146100b257806338afef0b146100e5575b600080fd5b61006b60048036038101906100669190612e47565b610115565b6040516100789190612e83565b60405180910390f35b61009b6004803603810190610096919061301b565b6106d7565b6040516100a9929190613119565b60405180910390f35b6100cc60048036038101906100c79190613142565b610e97565b6040516100dc94939291906132b1565b60405180910390f35b6100ff60048036038101906100fa9190612e47565b611a64565b60405161010c91906132f9565b60405180910390f35b600080600160009054906101000a900473ffffffffffffffffffffffffffffffffffffffff1673ffffffffffffffffffffffffffffffffffffffff1663915b740d846040518263ffffffff1660e01b81526004016101739190612e83565b6040805180830381865afa15801561018f573d6000803e3d6000fd5b505050506040513d601f19601f820116820180604052508101906101b391906133b5565b905060006101bf612d98565b6101c7612d98565b6101cf612dbb565b6101d7612dbb565b6101e18689610e97565b8094508195508296508398505050505084156106cc5761020088611a64565b935061022384600060088110610219576102186133e2565b5b6020020151612ba4565b6102448460016008811061023a576102396133e2565b5b6020020151612ba4565b6102658460026008811061025b5761025a6133e2565b5b6020020151612ba4565b6102868460036008811061027c5761027b6133e2565b5b6020020151612ba4565b6102a78460046008811061029d5761029c6133e2565b5b6020020151612ba4565b6102c8846005600881106102be576102bd6133e2565b5b6020020151612ba4565b6102e9846006600881106102df576102de6133e2565b5b6020020151612ba4565b61030a84600760088110610300576102ff6133e2565b5b6020020151612ba4565b8360006008811061031e5761031d6133e2565b5b6020020151801561034457508360016008811061033e5761033d6133e2565b5b60200201515b801561036557508360026008811061035f5761035e6133e2565b5b60200201515b80156103865750836003600881106103805761037f6133e2565b5b60200201515b80156103a75750836004600881106103a1576103a06133e2565b5b60200201515b80156103c85750836005600881106103c2576103c16133e2565b5b60200201515b80156103e95750836006600881106103e3576103e26133e2565b5b60200201515b801561040a575083600760088110610404576104036133e2565b5b60200201515b156106ca5760005b60088110156106c45783816008811061042e5761042d6133e2565b5b6020020151156106b1576104766040518060400160405280601581526020017f2e2e2e2e2e2e2e2e2e2e2e2e2e2e2e2e2e2e2e2e2e0000000000000000000000815250612c3d565b61049683826008811061048c5761048b6133e2565b5b6020020151612cd6565b6104b68282600881106104ac576104ab6133e2565b5b6020020151612cd6565b6000876000600281106104cc576104cb6133e2565b5b60200201518483600881106104e4576104e36133e2565b5b60200201516104f3919061344a565b905060008860016002811061050b5761050a6133e2565b5b6020020151848460088110610523576105226133e2565b5b6020020151610532919061344a565b905060008060009054906101000a900473ffffffffffffffffffffffffffffffffffffffff1673ffffffffffffffffffffffffffffffffffffffff1663c03c3003846040518263ffffffff1660e01b815260040161059091906134ed565b602060405180830381865afa1580156105ad573d6000803e3d6000fd5b505050506040513d601f19601f820116820180604052508101906105d19190613534565b905060008060009054906101000a900473ffffffffffffffffffffffffffffffffffffffff1673ffffffffffffffffffffffffffffffffffffffff1663c03c3003846040518263ffffffff1660e01b815260040161062f91906134ed565b602060405180830381865afa15801561064c573d6000803e3d6000fd5b505050506040513d601f19601f820116820180604052508101906106709190613534565b90506000878660088110610687576106866133e2565b5b6020020151905060008787600881106106a3576106a26133e2565b5b602002015190505050505050505b80806106bc90613561565b915050610412565b506106cb565b5b5b505050505050919050565b60006106e1612dde565b60008054906101000a900473ffffffffffffffffffffffffffffffffffffffff1673ffffffffffffffffffffffffffffffffffffffff166371cc5ad186866040518363ffffffff1660e01b815260040161073c9291906135a9565b606060405180830381865afa158015610759573d6000803e3d6000fd5b505050506040513d601f19601f8201168201806040525081019061077d91906135e7565b80925081935050506000600160009054906101000a900473ffffffffffffffffffffffffffffffffffffffff1673ffffffffffffffffffffffffffffffffffffffff16631feeef98836000600281106107d9576107d86133e2565b5b6020020151846001600281106107f2576107f16133e2565b5b60200201516040518363ffffffff1660e01b8152600401610814929190613636565b6040805180830381865afa158015610830573d6000803e3d6000fd5b505050506040513d601f19601f8201168201806040525081019061085491906136b4565b60000151141580156108fe575060008054906101000a900473ffffffffffffffffffffffffffffffffffffffff1673ffffffffffffffffffffffffffffffffffffffff1663ac411ce682876040518363ffffffff1660e01b81526004016108bc9291906135a9565b602060405180830381865afa1580156108d9573d6000803e3d6000fd5b505050506040513d601f19601f820116820180604052508101906108fd91906136e1565b5b8015610b4d575060008054906101000a900473ffffffffffffffffffffffffffffffffffffffff1673ffffffffffffffffffffffffffffffffffffffff16631b5ac4b582600160028110610955576109546133e2565b5b60200201518760016002811061096e5761096d6133e2565b5b602002015161097d919061344a565b6040518263ffffffff1660e01b815260040161099991906134ed565b602060405180830381865afa1580156109b6573d6000803e3d6000fd5b505050506040513d601f19601f820116820180604052508101906109da9190613534565b600160009054906101000a900473ffffffffffffffffffffffffffffffffffffffff1673ffffffffffffffffffffffffffffffffffffffff16638f7daf0f600160009054906101000a900473ffffffffffffffffffffffffffffffffffffffff1673ffffffffffffffffffffffffffffffffffffffff16631feeef9885600060028110610a6a57610a696133e2565b5b602002015186600160028110610a8357610a826133e2565b5b60200201516040518363ffffffff1660e01b8152600401610aa5929190613636565b6040805180830381865afa158015610ac1573d6000803e3d6000fd5b505050506040513d601f19601f82011682018060405250810190610ae591906136b4565b600001516040518263ffffffff1660e01b8152600401610b05919061370e565b608060405180830381865afa158015610b22573d6000803e3d6000fd5b505050506040513d601f19601f82011682018060405250810190610b46919061382a565b6020015110155b8015610d9c575060008054906101000a900473ffffffffffffffffffffffffffffffffffffffff1673ffffffffffffffffffffffffffffffffffffffff16631b5ac4b582600060028110610ba457610ba36133e2565b5b602002015187600060028110610bbd57610bbc6133e2565b5b6020020151610bcc919061344a565b6040518263ffffffff1660e01b8152600401610be891906134ed565b602060405180830381865afa158015610c05573d6000803e3d6000fd5b505050506040513d601f19601f82011682018060405250810190610c299190613534565b600160009054906101000a900473ffffffffffffffffffffffffffffffffffffffff1673ffffffffffffffffffffffffffffffffffffffff16638f7daf0f600160009054906101000a900473ffffffffffffffffffffffffffffffffffffffff1673ffffffffffffffffffffffffffffffffffffffff16631feeef9885600060028110610cb957610cb86133e2565b5b602002015186600160028110610cd257610cd16133e2565b5b60200201516040518363ffffffff1660e01b8152600401610cf4929190613636565b6040805180830381865afa158015610d10573d6000803e3d6000fd5b505050506040513d601f19601f82011682018060405250810190610d3491906136b4565b600001516040518263ffffffff1660e01b8152600401610d54919061370e565b608060405180830381865afa158015610d71573d6000803e3d6000fd5b505050506040513d601f19601f82011682018060405250810190610d95919061382a565b6020015110155b8015610e7c5750600160009054906101000a900473ffffffffffffffffffffffffffffffffffffffff1673ffffffffffffffffffffffffffffffffffffffff16631feeef9882600060028110610df557610df46133e2565b5b602002015183600160028110610e0e57610e0d6133e2565b5b60200201516040518363ffffffff1660e01b8152600401610e30929190613636565b6040805180830381865afa158015610e4c573d6000803e3d6000fd5b505050506040513d601f19601f82011682018060405250810190610e7091906136b4565b60200151151583151514155b15610e8a5760019150610e8f565b600091505b935093915050565b6000610ea1612d98565b610ea9612dbb565b610eb1612dbb565b600082600060088110610ec757610ec66133e2565b5b60200201818152505085600160028110610ee457610ee36133e2565b5b602002015181600060088110610efd57610efc6133e2565b5b602002018181525050600782600160088110610f1c57610f1b6133e2565b5b60200201818152505085600160028110610f3957610f386133e2565b5b602002015181600160088110610f5257610f516133e2565b5b60200201818152505085600060028110610f6f57610f6e6133e2565b5b602002015182600260088110610f8857610f876133e2565b5b602002018181525050600081600260088110610fa757610fa66133e2565b5b60200201818152505085600060028110610fc457610fc36133e2565b5b602002015182600360088110610fdd57610fdc6133e2565b5b602002018181525050600781600360088110610ffc57610ffb6133e2565b5b60200201818152505060008054906101000a900473ffffffffffffffffffffffffffffffffffffffff1673ffffffffffffffffffffffffffffffffffffffff16636d5433e687600060028110611055576110546133e2565b5b60200201518860016002811061106e5761106d6133e2565b5b60200201516040518363ffffffff1660e01b8152600401611090929190613636565b602060405180830381865afa1580156110ad573d6000803e3d6000fd5b505050506040513d601f19601f820116820180604052508101906110d19190613857565b60076110dd9190613884565b866000600281106110f1576110f06133e2565b5b602002015161110091906138b8565b82600460088110611114576111136133e2565b5b60200201818152505060008054906101000a900473ffffffffffffffffffffffffffffffffffffffff1673ffffffffffffffffffffffffffffffffffffffff16636d5433e68760006002811061116d5761116c6133e2565b5b602002015188600160028110611186576111856133e2565b5b60200201516040518363ffffffff1660e01b81526004016111a8929190613636565b602060405180830381865afa1580156111c5573d6000803e3d6000fd5b505050506040513d601f19601f820116820180604052508101906111e99190613857565b60076111f59190613884565b86600160028110611209576112086133e2565b5b602002015161121891906138b8565b8160046008811061122c5761122b6133e2565b5b60200201818152505060008054906101000a900473ffffffffffffffffffffffffffffffffffffffff1673ffffffffffffffffffffffffffffffffffffffff16637ae2b5c787600060028110611285576112846133e2565b5b60200201518860016002811061129e5761129d6133e2565b5b60200201516040518363ffffffff1660e01b81526004016112c0929190613636565b602060405180830381865afa1580156112dd573d6000803e3d6000fd5b505050506040513d601f19601f820116820180604052508101906113019190613857565b86600060028110611315576113146133e2565b5b60200201516113249190613884565b82600560088110611338576113376133e2565b5b60200201818152505060008054906101000a900473ffffffffffffffffffffffffffffffffffffffff1673ffffffffffffffffffffffffffffffffffffffff16637ae2b5c787600060028110611391576113906133e2565b5b6020020151886001600281106113aa576113a96133e2565b5b60200201516040518363ffffffff1660e01b81526004016113cc929190613636565b602060405180830381865afa1580156113e9573d6000803e3d6000fd5b505050506040513d601f19601f8201168201806040525081019061140d9190613857565b86600160028110611421576114206133e2565b5b60200201516114309190613884565b81600560088110611444576114436133e2565b5b60200201818152505060008054906101000a900473ffffffffffffffffffffffffffffffffffffffff1673ffffffffffffffffffffffffffffffffffffffff1663bac351198760006002811061149d5761149c6133e2565b5b6020020151886001600281106114b6576114b56133e2565b5b60200201516114c5919061390e565b6040518263ffffffff1660e01b81526004016114e191906134ed565b602060405180830381865afa1580156114fe573d6000803e3d6000fd5b505050506040513d601f19601f820116820180604052508101906115229190613534565b82600660088110611536576115356133e2565b5b60200201818152505060008054906101000a900473ffffffffffffffffffffffffffffffffffffffff1673ffffffffffffffffffffffffffffffffffffffff1663ee0b07e08760006002811061158f5761158e6133e2565b5b602002015160076115a0919061344a565b886001600281106115b4576115b36133e2565b5b60200201516115c3919061344a565b6040518263ffffffff1660e01b81526004016115df91906134ed565b602060405180830381865afa1580156115fc573d6000803e3d6000fd5b505050506040513d601f19601f820116820180604052508101906116209190613534565b81600660088110611634576116336133e2565b5b60200201818152505060008054906101000a900473ffffffffffffffffffffffffffffffffffffffff1673ffffffffffffffffffffffffffffffffffffffff1663ee0b07e08760006002811061168d5761168c6133e2565b5b6020020151600761169e919061344a565b886001600281106116b2576116b16133e2565b5b60200201516116c1919061344a565b6040518263ffffffff1660e01b81526004016116dd91906134ed565b602060405180830381865afa1580156116fa573d6000803e3d6000fd5b505050506040513d601f19601f8201168201806040525081019061171e9190613534565b82600760088110611732576117316133e2565b5b60200201818152505060008054906101000a900473ffffffffffffffffffffffffffffffffffffffff1673ffffffffffffffffffffffffffffffffffffffff1663bac351198760006002811061178b5761178a6133e2565b5b6020020151886001600281106117a4576117a36133e2565b5b60200201516117b3919061390e565b6040518263ffffffff1660e01b81526004016117cf91906134ed565b602060405180830381865afa1580156117ec573d6000803e3d6000fd5b505050506040513d601f19601f820116820180604052508101906118109190613534565b81600760088110611824576118236133e2565b5b602002018181525050611835612dde565b60005b600881101561194d5761188e886040518060400160405280878560088110611863576118626133e2565b5b602002015181526020018685600881106118805761187f6133e2565b5b6020020151815250896106d7565b8683600881106118a1576118a06133e2565b5b60200201819450821515151581525050508481600881106118c5576118c46133e2565b5b60200201511561193a57816000600281106118e3576118e26133e2565b5b60200201518482600881106118fb576118fa6133e2565b5b60200201818152505081600160028110611918576119176133e2565b5b60200201518382600881106119305761192f6133e2565b5b6020020181815250505b808061194590613561565b915050611838565b5083600060088110611962576119616133e2565b5b602002015180611987575083600160088110611981576119806133e2565b5b60200201515b806119a75750836002600881106119a1576119a06133e2565b5b60200201515b806119c75750836003600881106119c1576119c06133e2565b5b60200201515b806119e75750836004600881106119e1576119e06133e2565b5b60200201515b80611a07575083600560088110611a0157611a006133e2565b5b60200201515b80611a27575083600660088110611a2157611a206133e2565b5b60200201515b80611a47575083600760088110611a4157611a406133e2565b5b60200201515b15611a555760019450611a5a565b600094505b5092959194509250565b611a6c612d98565b600160009054906101000a900473ffffffffffffffffffffffffffffffffffffffff1673ffffffffffffffffffffffffffffffffffffffff163373ffffffffffffffffffffffffffffffffffffffff1614611afc576040517f08c379a0000000000000000000000000000000000000000000000000000000008152600401611af3906139d9565b60405180910390fd5b6000600160009054906101000a900473ffffffffffffffffffffffffffffffffffffffff1673ffffffffffffffffffffffffffffffffffffffff1663915b740d846040518263ffffffff1660e01b8152600401611b599190612e83565b6040805180830381865afa158015611b75573d6000803e3d6000fd5b505050506040513d601f19601f82011682018060405250810190611b9991906133b5565b9050611ba3612dbb565b611bab612dbb565b60008054906101000a900473ffffffffffffffffffffffffffffffffffffffff1673ffffffffffffffffffffffffffffffffffffffff1663bac3511984600060028110611bfb57611bfa6133e2565b5b60200201516040518263ffffffff1660e01b8152600401611c1c91906134ed565b602060405180830381865afa158015611c39573d6000803e3d6000fd5b505050506040513d601f19601f82011682018060405250810190611c5d9190613534565b82600060088110611c7157611c706133e2565b5b60200201818152505060008054906101000a900473ffffffffffffffffffffffffffffffffffffffff1673ffffffffffffffffffffffffffffffffffffffff1663bac35119600185600160028110611ccc57611ccb6133e2565b5b6020020151611cdb919061390e565b6040518263ffffffff1660e01b8152600401611cf791906134ed565b602060405180830381865afa158015611d14573d6000803e3d6000fd5b505050506040513d601f19601f82011682018060405250810190611d389190613534565b81600060088110611d4c57611d4b6133e2565b5b60200201818152505060008054906101000a900473ffffffffffffffffffffffffffffffffffffffff1673ffffffffffffffffffffffffffffffffffffffff1663bac35119600185600060028110611da757611da66133e2565b5b6020020151611db6919061390e565b6040518263ffffffff1660e01b8152600401611dd291906134ed565b602060405180830381865afa158015611def573d6000803e3d6000fd5b505050506040513d601f19601f82011682018060405250810190611e139190613534565b82600160088110611e2757611e266133e2565b5b60200201818152505060008054906101000a900473ffffffffffffffffffffffffffffffffffffffff1673ffffffffffffffffffffffffffffffffffffffff1663bac3511984600160028110611e8057611e7f6133e2565b5b60200201516040518263ffffffff1660e01b8152600401611ea191906134ed565b602060405180830381865afa158015611ebe573d6000803e3d6000fd5b505050506040513d601f19601f82011682018060405250810190611ee29190613534565b81600160088110611ef657611ef56133e2565b5b60200201818152505060008054906101000a900473ffffffffffffffffffffffffffffffffffffffff1673ffffffffffffffffffffffffffffffffffffffff1663bac3511984600060028110611f4f57611f4e6133e2565b5b60200201516040518263ffffffff1660e01b8152600401611f7091906134ed565b602060405180830381865afa158015611f8d573d6000803e3d6000fd5b505050506040513d601f19601f82011682018060405250810190611fb19190613534565b82600260088110611fc557611fc46133e2565b5b60200201818152505060008054906101000a900473ffffffffffffffffffffffffffffffffffffffff1673ffffffffffffffffffffffffffffffffffffffff1663ee0b07e06001856001600281106120205761201f6133e2565b5b602002015161202f919061344a565b6040518263ffffffff1660e01b815260040161204b91906134ed565b602060405180830381865afa158015612068573d6000803e3d6000fd5b505050506040513d601f19601f8201168201806040525081019061208c9190613534565b816002600881106120a05761209f6133e2565b5b60200201818152505060008054906101000a900473ffffffffffffffffffffffffffffffffffffffff1673ffffffffffffffffffffffffffffffffffffffff1663ee0b07e06001856000600281106120fb576120fa6133e2565b5b602002015161210a919061344a565b6040518263ffffffff1660e01b815260040161212691906134ed565b602060405180830381865afa158015612143573d6000803e3d6000fd5b505050506040513d601f19601f820116820180604052508101906121679190613534565b8260036008811061217b5761217a6133e2565b5b60200201818152505060008054906101000a900473ffffffffffffffffffffffffffffffffffffffff1673ffffffffffffffffffffffffffffffffffffffff1663bac35119846001600281106121d4576121d36133e2565b5b60200201516040518263ffffffff1660e01b81526004016121f591906134ed565b602060405180830381865afa158015612212573d6000803e3d6000fd5b505050506040513d601f19601f820116820180604052508101906122369190613534565b8160036008811061224a576122496133e2565b5b60200201818152505060008054906101000a900473ffffffffffffffffffffffffffffffffffffffff1673ffffffffffffffffffffffffffffffffffffffff1663bac351196001856000600281106122a5576122a46133e2565b5b60200201516122b4919061390e565b6040518263ffffffff1660e01b81526004016122d091906134ed565b602060405180830381865afa1580156122ed573d6000803e3d6000fd5b505050506040513d601f19601f820116820180604052508101906123119190613534565b82600460088110612325576123246133e2565b5b60200201818152505060008054906101000a900473ffffffffffffffffffffffffffffffffffffffff1673ffffffffffffffffffffffffffffffffffffffff1663ee0b07e06001856001600281106123805761237f6133e2565b5b602002015161238f919061344a565b6040518263ffffffff1660e01b81526004016123ab91906134ed565b602060405180830381865afa1580156123c8573d6000803e3d6000fd5b505050506040513d601f19601f820116820180604052508101906123ec9190613534565b81600460088110612400576123ff6133e2565b5b60200201818152505060008054906101000a900473ffffffffffffffffffffffffffffffffffffffff1673ffffffffffffffffffffffffffffffffffffffff1663ee0b07e060018560006002811061245b5761245a6133e2565b5b602002015161246a919061344a565b6040518263ffffffff1660e01b815260040161248691906134ed565b602060405180830381865afa1580156124a3573d6000803e3d6000fd5b505050506040513d601f19601f820116820180604052508101906124c79190613534565b826005600881106124db576124da6133e2565b5b60200201818152505060008054906101000a900473ffffffffffffffffffffffffffffffffffffffff1673ffffffffffffffffffffffffffffffffffffffff1663bac35119600185600160028110612536576125356133e2565b5b6020020151612545919061390e565b6040518263ffffffff1660e01b815260040161256191906134ed565b602060405180830381865afa15801561257e573d6000803e3d6000fd5b505050506040513d601f19601f820116820180604052508101906125a29190613534565b816005600881106125b6576125b56133e2565b5b60200201818152505060008054906101000a900473ffffffffffffffffffffffffffffffffffffffff1673ffffffffffffffffffffffffffffffffffffffff1663ee0b07e0600185600060028110612611576126106133e2565b5b6020020151612620919061344a565b6040518263ffffffff1660e01b815260040161263c91906134ed565b602060405180830381865afa158015612659573d6000803e3d6000fd5b505050506040513d601f19601f8201168201806040525081019061267d9190613534565b82600660088110612691576126906133e2565b5b60200201818152505060008054906101000a900473ffffffffffffffffffffffffffffffffffffffff1673ffffffffffffffffffffffffffffffffffffffff1663ee0b07e06001856001600281106126ec576126eb6133e2565b5b60200201516126fb919061344a565b6040518263ffffffff1660e01b815260040161271791906134ed565b602060405180830381865afa158015612734573d6000803e3d6000fd5b505050506040513d601f19601f820116820180604052508101906127589190613534565b8160066008811061276c5761276b6133e2565b5b60200201818152505060008054906101000a900473ffffffffffffffffffffffffffffffffffffffff1673ffffffffffffffffffffffffffffffffffffffff1663bac351196001856000600281106127c7576127c66133e2565b5b60200201516127d6919061390e565b6040518263ffffffff1660e01b81526004016127f291906134ed565b602060405180830381865afa15801561280f573d6000803e3d6000fd5b505050506040513d601f19601f820116820180604052508101906128339190613534565b82600760088110612847576128466133e2565b5b60200201818152505060008054906101000a900473ffffffffffffffffffffffffffffffffffffffff1673ffffffffffffffffffffffffffffffffffffffff1663bac351196001856001600281106128a2576128a16133e2565b5b60200201516128b1919061390e565b6040518263ffffffff1660e01b81526004016128cd91906134ed565b602060405180830381865afa1580156128ea573d6000803e3d6000fd5b505050506040513d601f19601f8201168201806040525081019061290e9190613534565b81600760088110612922576129216133e2565b5b60200201818152505060005b6008811015612b9b576000600160009054906101000a900473ffffffffffffffffffffffffffffffffffffffff1673ffffffffffffffffffffffffffffffffffffffff16631feeef9885846008811061298a576129896133e2565b5b60200201518585600881106129a2576129a16133e2565b5b60200201516040518363ffffffff1660e01b81526004016129c4929190613636565b6040805180830381865afa1580156129e0573d6000803e3d6000fd5b505050506040513d601f19601f82011682018060405250810190612a0491906136b4565b60000151148015612ae75750851515600160009054906101000a900473ffffffffffffffffffffffffffffffffffffffff1673ffffffffffffffffffffffffffffffffffffffff16631feeef98858460088110612a6457612a636133e2565b5b6020020151858560088110612a7c57612a7b6133e2565b5b60200201516040518363ffffffff1660e01b8152600401612a9e929190613636565b6040805180830381865afa158015612aba573d6000803e3d6000fd5b505050506040513d601f19601f82011682018060405250810190612ade91906136b4565b60200151151514155b15612b6357612b386040518060400160405280858460088110612b0d57612b0c6133e2565b5b60200201518152602001848460088110612b2a57612b296133e2565b5b602002015181525087610e97565b909150905050858260088110612b5157612b506133e2565b5b60200201811515151581525050612b88565b6001858260088110612b7857612b776133e2565b5b6020020190151590811515815250505b8080612b9390613561565b91505061292e565b50505050919050565b612c3a81604051602401612bb89190612e83565b6040516020818303038152906040527f32458eed000000000000000000000000000000000000000000000000000000007bffffffffffffffffffffffffffffffffffffffffffffffffffffffff19166020820180517bffffffffffffffffffffffffffffffffffffffffffffffffffffffff8381831617835250505050612d6f565b50565b612cd381604051602401612c519190613a70565b6040516020818303038152906040527f41304fac000000000000000000000000000000000000000000000000000000007bffffffffffffffffffffffffffffffffffffffffffffffffffffffff19166020820180517bffffffffffffffffffffffffffffffffffffffffffffffffffffffff8381831617835250505050612d6f565b50565b612d6c81604051602401612cea919061370e565b6040516020818303038152906040527ff5b1bba9000000000000000000000000000000000000000000000000000000007bffffffffffffffffffffffffffffffffffffffffffffffffffffffff19166020820180517bffffffffffffffffffffffffffffffffffffffffffffffffffffffff8381831617835250505050612d6f565b50565b60008151905060006a636f6e736f6c652e6c6f679050602083016000808483855afa5050505050565b604051806101000160405280600890602082028036833780820191505090505090565b604051806101000160405280600890602082028036833780820191505090505090565b6040518060400160405280600290602082028036833780820191505090505090565b6000604051905090565b600080fd5b60008115159050919050565b612e2481612e0f565b8114612e2f57600080fd5b50565b600081359050612e4181612e1b565b92915050565b600060208284031215612e5d57612e5c612e0a565b5b6000612e6b84828501612e32565b91505092915050565b612e7d81612e0f565b82525050565b6000602082019050612e986000830184612e74565b92915050565b600080fd5b6000601f19601f8301169050919050565b7f4e487b7100000000000000000000000000000000000000000000000000000000600052604160045260246000fd5b612eec82612ea3565b810181811067ffffffffffffffff82111715612f0b57612f0a612eb4565b5b80604052505050565b6000612f1e612e00565b9050612f2a8282612ee3565b919050565b600067ffffffffffffffff821115612f4a57612f49612eb4565b5b602082029050919050565b600080fd5b6000819050919050565b612f6d81612f5a565b8114612f7857600080fd5b50565b600081359050612f8a81612f64565b92915050565b6000612fa3612f9e84612f2f565b612f14565b90508060208402830185811115612fbd57612fbc612f55565b5b835b81811015612fe65780612fd28882612f7b565b845260208401935050602081019050612fbf565b5050509392505050565b600082601f83011261300557613004612e9e565b5b6002613012848285612f90565b91505092915050565b600080600060a0848603121561303457613033612e0a565b5b600061304286828701612ff0565b935050604061305386828701612ff0565b925050608061306486828701612e32565b9150509250925092565b600060029050919050565b600081905092915050565b6000819050919050565b61309781612f5a565b82525050565b60006130a9838361308e565b60208301905092915050565b6000602082019050919050565b6130cb8161306e565b6130d58184613079565b92506130e082613084565b8060005b838110156131115781516130f8878261309d565b9650613103836130b5565b9250506001810190506130e4565b505050505050565b600060608201905061312e6000830185612e74565b61313b60208301846130c2565b9392505050565b6000806060838503121561315957613158612e0a565b5b600061316785828601612ff0565b925050604061317885828601612e32565b9150509250929050565b600060089050919050565b600081905092915050565b6000819050919050565b6131ab81612e0f565b82525050565b60006131bd83836131a2565b60208301905092915050565b6000602082019050919050565b6131df81613182565b6131e9818461318d565b92506131f482613198565b8060005b8381101561322557815161320c87826131b1565b9650613217836131c9565b9250506001810190506131f8565b505050505050565b600060089050919050565b600081905092915050565b6000819050919050565b6000602082019050919050565b6132638161322d565b61326d8184613238565b925061327882613243565b8060005b838110156132a9578151613290878261309d565b965061329b8361324d565b92505060018101905061327c565b505050505050565b6000610320820190506132c76000830187612e74565b6132d460208301866131d6565b6132e261012083018561325a565b6132f061022083018461325a565b95945050505050565b60006101008201905061330f60008301846131d6565b92915050565b60008151905061332481612f64565b92915050565b600061333d61333884612f2f565b612f14565b9050806020840283018581111561335757613356612f55565b5b835b81811015613380578061336c8882613315565b845260208401935050602081019050613359565b5050509392505050565b600082601f83011261339f5761339e612e9e565b5b60026133ac84828561332a565b91505092915050565b6000604082840312156133cb576133ca612e0a565b5b60006133d98482850161338a565b91505092915050565b7f4e487b7100000000000000000000000000000000000000000000000000000000600052603260045260246000fd5b6000819050919050565b7f4e487b7100000000000000000000000000000000000000000000000000000000600052601160045260246000fd5b600061345582613411565b915061346083613411565b9250827f80000000000000000000000000000000000000000000000000000000000000000182126000841215161561349b5761349a61341b565b5b827f7fffffffffffffffffffffffffffffffffffffffffffffffffffffffffffffff0182136000841216156134d3576134d261341b565b5b828203905092915050565b6134e781613411565b82525050565b600060208201905061350260008301846134de565b92915050565b61351181613411565b811461351c57600080fd5b50565b60008151905061352e81613508565b92915050565b60006020828403121561354a57613549612e0a565b5b60006135588482850161351f565b91505092915050565b600061356c82612f5a565b91507fffffffffffffffffffffffffffffffffffffffffffffffffffffffffffffffff820361359e5761359d61341b565b5b600182019050919050565b60006080820190506135be60008301856130c2565b6135cb60408301846130c2565b9392505050565b6000815190506135e181612e1b565b92915050565b600080606083850312156135fe576135fd612e0a565b5b600061360c858286016135d2565b925050602061361d8582860161338a565b9150509250929050565b61363081612f5a565b82525050565b600060408201905061364b6000830185613627565b6136586020830184613627565b9392505050565b600080fd5b60006040828403121561367a5761367961365f565b5b6136846040612f14565b9050600061369484828501613315565b60008301525060206136a8848285016135d2565b60208301525092915050565b6000604082840312156136ca576136c9612e0a565b5b60006136d884828501613664565b91505092915050565b6000602082840312156136f7576136f6612e0a565b5b6000613705848285016135d2565b91505092915050565b60006020820190506137236000830184613627565b92915050565b600067ffffffffffffffff82111561374457613743612eb4565b5b602082029050919050565b600061376261375d84613729565b612f14565b9050806020840283018581111561377c5761377b612f55565b5b835b818110156137a5578061379188826135d2565b84526020840193505060208101905061377e565b5050509392505050565b600082601f8301126137c4576137c3612e9e565b5b60036137d184828561374f565b91505092915050565b6000608082840312156137f0576137ef61365f565b5b6137fa6040612f14565b9050600061380a848285016137af565b600083015250606061381e84828501613315565b60208301525092915050565b6000608082840312156138405761383f612e0a565b5b600061384e848285016137da565b91505092915050565b60006020828403121561386d5761386c612e0a565b5b600061387b84828501613315565b91505092915050565b600061388f82612f5a565b915061389a83612f5a565b9250828210156138ad576138ac61341b565b5b828203905092915050565b60006138c382612f5a565b91506138ce83612f5a565b9250827fffffffffffffffffffffffffffffffffffffffffffffffffffffffffffffffff038211156139035761390261341b565b5b828201905092915050565b600061391982613411565b915061392483613411565b9250817f7fffffffffffffffffffffffffffffffffffffffffffffffffffffffffffffff0383136000831215161561395f5761395e61341b565b5b817f80000000000000000000000000000000000000000000000000000000000000000383126000831216156139975761399661341b565b5b828201905092915050565b600082825260208201905092915050565b50565b60006139c36000836139a2565b91506139ce826139b3565b600082019050919050565b600060208201905081810360008301526139f2816139b6565b9050919050565b600081519050919050565b60005b83811015613a22578082015181840152602081019050613a07565b83811115613a31576000848401525b50505050565b6000613a42826139f9565b613a4c81856139a2565b9350613a5c818560208601613a04565b613a6581612ea3565b840191505092915050565b60006020820190508181036000830152613a8a8184613a37565b90509291505056fea2646970667358221220b4af7a545d28e783a0514dca8040b3c54f69690538b1d1650b873921c38a532864736f6c634300080e0033",
  "linkReferences": {},
  "deployedLinkReferences": {}
}