{
  "_format": "hh-sol-artifact-1",
  "contractName": "MoveHandler",
  "sourceName": "contracts/MoveHandler.sol",
  "abi": [
    {
      "inputs": [
        {
          "internalType": "address",
          "name": "_gamecontrol",
          "type": "address"
        },
        {
          "internalType": "address payable",
          "name": "_chessboard",
          "type": "address"
        }
      ],
      "stateMutability": "nonpayable",
      "type": "constructor"
    },
    {
      "inputs": [
        {
          "internalType": "bool",
          "name": "team",
          "type": "bool"
        }
      ],
      "name": "AuthPos",
      "outputs": [
        {
          "internalType": "bool[8]",
          "name": "ress",
          "type": "bool[8]"
        }
      ],
      "stateMutability": "view",
      "type": "function"
    },
    {
      "inputs": [
        {
          "internalType": "uint256[2]",
          "name": "oldpos",
          "type": "uint256[2]"
        },
        {
          "internalType": "uint256[2]",
          "name": "newpos",
          "type": "uint256[2]"
        },
        {
          "internalType": "bool",
          "name": "team",
          "type": "bool"
        }
      ],
      "name": "canArriveToMe",
      "outputs": [
        {
          "internalType": "bool",
          "name": "res",
          "type": "bool"
        },
        {
          "internalType": "uint256[2]",
          "name": "pos",
          "type": "uint256[2]"
        }
      ],
      "stateMutability": "view",
      "type": "function"
    },
    {
      "inputs": [
        {
          "internalType": "bool",
          "name": "team",
          "type": "bool"
        },
        {
          "internalType": "bool",
          "name": "authres",
          "type": "bool"
        }
      ],
      "name": "checkHandler",
      "outputs": [
        {
          "internalType": "bool",
          "name": "",
          "type": "bool"
        }
      ],
      "stateMutability": "view",
      "type": "function"
    },
    {
      "inputs": [
        {
          "internalType": "uint256[2]",
          "name": "oldpos",
          "type": "uint256[2]"
        },
        {
          "internalType": "bool",
          "name": "team",
          "type": "bool"
        }
      ],
      "name": "isEvilBox",
      "outputs": [
        {
          "components": [
            {
              "internalType": "bool",
              "name": "res",
              "type": "bool"
            },
            {
              "internalType": "bool[8]",
              "name": "ress",
              "type": "bool[8]"
            },
            {
              "internalType": "uint256[8]",
              "name": "posx",
              "type": "uint256[8]"
            },
            {
              "internalType": "uint256[8]",
              "name": "posy",
              "type": "uint256[8]"
            }
          ],
          "internalType": "struct MoveHandler.EvilBoxs",
          "name": "evilboxs",
          "type": "tuple"
        }
      ],
      "stateMutability": "view",
      "type": "function"
    }
  ],
  "bytecode": "0x60806040523480156200001157600080fd5b506040516200247a3803806200247a83398101604081905262000034916200007f565b600080546001600160a01b039384166001600160a01b03199182161790915560018054929093169116179055620000be565b6001600160a01b03811681146200007c57600080fd5b50565b600080604083850312156200009357600080fd5b8251620000a08162000066565b6020840151909250620000b38162000066565b809150509250929050565b6123ac80620000ce6000396000f3fe608060405234801561001057600080fd5b506004361061004c5760003560e01c806325f12500146100515780632f1d80741461007b57806338afef0b1461009b578063abd9d350146100bb575b600080fd5b61006461005f366004611ee2565b6100de565b604051610072929190611f54565b60405180910390f35b61008e610089366004611f71565b6105e7565b6040516100729190611fcc565b6100ae6100a936600461202f565b610c77565b604051610072919061204c565b6100ce6100c9366004612080565b611797565b6040519015158152602001610072565b60006100e8611da7565b6000546040516371cc5ad160e01b81526001600160a01b03909116906371cc5ad19061011a90889088906004016120ae565b606060405180830381865afa158015610137573d6000803e3d6000fd5b505050506040513d601f19601f8201168201806040525081019061015b919061210e565b600154815160208301516040516303fdddf360e31b8152600481019290925260248201529294509092506001600160a01b031690631feeef98906044016040805180830381865afa1580156101b4573d6000803e3d6000fd5b505050506040513d601f19601f820116820180604052508101906101d8919061215a565b511580159061025557506000546040516356208e7360e11b81526001600160a01b039091169063ac411ce69061021490849089906004016120ae565b602060405180830381865afa158015610231573d6000803e3d6000fd5b505050506040513d601f19601f8201168201806040525081019061025591906121b0565b80156103cf57506000546001600160a01b0316631b5ac4b58260016020020151876001602002015161028791906121e3565b6040518263ffffffff1660e01b81526004016102a591815260200190565b602060405180830381865afa1580156102c2573d6000803e3d6000fd5b505050506040513d601f19601f820116820180604052508101906102e69190612222565b600154825160208401516040516303fdddf360e31b8152600481019290925260248201526001600160a01b0390911690638f7daf0f908290631feeef98906044016040805180830381865afa158015610343573d6000803e3d6000fd5b505050506040513d601f19601f82011682018060405250810190610367919061215a565b5160405160e083901b6001600160e01b03191681526004810191909152602401608060405180830381865afa1580156103a4573d6000803e3d6000fd5b505050506040513d601f19601f820116820180604052508101906103c8919061223b565b6020015110155b80156105405750600054815186516001600160a01b0390921691631b5ac4b5916103f8916121e3565b6040518263ffffffff1660e01b815260040161041691815260200190565b602060405180830381865afa158015610433573d6000803e3d6000fd5b505050506040513d601f19601f820116820180604052508101906104579190612222565b600154825160208401516040516303fdddf360e31b8152600481019290925260248201526001600160a01b0390911690638f7daf0f908290631feeef98906044016040805180830381865afa1580156104b4573d6000803e3d6000fd5b505050506040513d601f19601f820116820180604052508101906104d8919061215a565b5160405160e083901b6001600160e01b03191681526004810191909152602401608060405180830381865afa158015610515573d6000803e3d6000fd5b505050506040513d601f19601f82011682018060405250810190610539919061223b565b6020015110155b80156105cc5750600154815160208301516040516303fdddf360e31b8152600481019290925260248201526001600160a01b0390911690631feeef98906044016040805180830381865afa15801561059c573d6000803e3d6000fd5b505050506040513d601f19601f820116820180604052508101906105c0919061215a565b60200151151583151514155b156105da57600191506105df565b600091505b935093915050565b6105ef611dc5565b604081810180516000908190526020868101805160608088018051929092528551600790850181905283518351909501949094528951865188015281518701859052895195518101959095525190930152548551915192516336aa19f360e11b8152600481019290925260248201929092526001600160a01b0390911690636d5433e690604401602060405180830381865afa158015610693573d6000803e3d6000fd5b505050506040513d601f19601f820116820180604052508101906106b79190612222565b6106c29060076122d1565b83516106ce91906122e8565b604082810151608001919091526000548451602086015192516336aa19f360e11b8152600481019190915260248101929092526001600160a01b031690636d5433e690604401602060405180830381865afa158015610731573d6000803e3d6000fd5b505050506040513d601f19601f820116820180604052508101906107559190612222565b6107609060076122d1565b602084015161076f91906122e8565b60608201516080015260005483516020850151604051637ae2b5c760e01b8152600481019290925260248201526001600160a01b0390911690637ae2b5c790604401602060405180830381865afa1580156107ce573d6000803e3d6000fd5b505050506040513d601f19601f820116820180604052508101906107f29190612222565b83516107fe91906122d1565b60408281015160a00191909152600054845160208601519251637ae2b5c760e01b8152600481019190915260248101929092526001600160a01b031690637ae2b5c790604401602060405180830381865afa158015610861573d6000803e3d6000fd5b505050506040513d601f19601f820116820180604052508101906108859190612222565b602084015161089491906122d1565b606082015160a00152600054835160208501516001600160a01b039092169163bac35119916108c291612300565b6040518263ffffffff1660e01b81526004016108e091815260200190565b602060405180830381865afa1580156108fd573d6000803e3d6000fd5b505050506040513d601f19601f820116820180604052508101906109219190612222565b604082015160c0015260005483516001600160a01b039091169063ee0b07e09061094c9060076121e3565b602086015161095b91906121e3565b6040518263ffffffff1660e01b815260040161097991815260200190565b602060405180830381865afa158015610996573d6000803e3d6000fd5b505050506040513d601f19601f820116820180604052508101906109ba9190612222565b606082015160c0015260005483516001600160a01b039091169063ee0b07e0906109e59060076121e3565b60208601516109f491906121e3565b6040518263ffffffff1660e01b8152600401610a1291815260200190565b602060405180830381865afa158015610a2f573d6000803e3d6000fd5b505050506040513d601f19601f82011682018060405250810190610a539190612222565b604082015160e00152600054835160208501516001600160a01b039092169163bac3511991610a8191612300565b6040518263ffffffff1660e01b8152600401610a9f91815260200190565b602060405180830381865afa158015610abc573d6000803e3d6000fd5b505050506040513d601f19601f82011682018060405250810190610ae09190612222565b606082015160e00152610af1611da7565b60005b6008811015610be757610b4f85604051806040016040528086604001518560088110610b2257610b22612144565b6020020151815260200186606001518560088110610b4257610b42612144565b60200201519052866100de565b84602001518360088110610b6557610b65612144565b92151560209384029190910152908401519092508160088110610b8a57610b8a612144565b602002015115610bd557815160408401518260088110610bac57610bac612144565b6020020152816001602002015183606001518260088110610bcf57610bcf612144565b60200201525b80610bdf81612341565b915050610af4565b5060208201515180610bfd575060208281015101515b80610c0d57506020820151604001515b80610c1d57506020820151606001515b80610c2d57506020820151608001515b80610c3d5750602082015160a001515b80610c4d5750602082015160c001515b80610c5d5750602082015160e001515b15610c6b5760018252610c70565b600082525b5092915050565b610c7f611e00565b6001546001600160a01b03163314610cc25760405162461bcd60e51b8152602060048201526002602482015261216360f01b604482015260640160405180910390fd5b60015460405163915b740d60e01b815283151560048201526000916001600160a01b03169063915b740d906024016040805180830381865afa158015610d0c573d6000803e3d6000fd5b505050506040513d601f19601f82011682018060405250810190610d30919061235a565b9050610d3a611e00565b610d42611e00565b600054835160405163bac3511960e01b815260048101919091526001600160a01b039091169063bac3511990602401602060405180830381865afa158015610d8e573d6000803e3d6000fd5b505050506040513d601f19601f82011682018060405250810190610db29190612222565b825260005460208401516001600160a01b039091169063bac3511990610dd9906001612300565b6040518263ffffffff1660e01b8152600401610df791815260200190565b602060405180830381865afa158015610e14573d6000803e3d6000fd5b505050506040513d601f19601f82011682018060405250810190610e389190612222565b815260005483516001600160a01b039091169063bac3511990610e5c906001612300565b6040518263ffffffff1660e01b8152600401610e7a91815260200190565b602060405180830381865afa158015610e97573d6000803e3d6000fd5b505050506040513d601f19601f82011682018060405250810190610ebb9190612222565b82600160200201526000546001600160a01b031663bac3511984600160200201516040518263ffffffff1660e01b8152600401610efa91815260200190565b602060405180830381865afa158015610f17573d6000803e3d6000fd5b505050506040513d601f19601f82011682018060405250810190610f3b9190612222565b6020820152600054835160405163bac3511960e01b815260048101919091526001600160a01b039091169063bac3511990602401602060405180830381865afa158015610f8c573d6000803e3d6000fd5b505050506040513d601f19601f82011682018060405250810190610fb09190612222565b82600260200201526000546001600160a01b031663ee0b07e0600185816020020151610fdc91906121e3565b6040518263ffffffff1660e01b8152600401610ffa91815260200190565b602060405180830381865afa158015611017573d6000803e3d6000fd5b505050506040513d601f19601f8201168201806040525081019061103b9190612222565b604082015260005483516001600160a01b039091169063ee0b07e090611063906001906121e3565b6040518263ffffffff1660e01b815260040161108191815260200190565b602060405180830381865afa15801561109e573d6000803e3d6000fd5b505050506040513d601f19601f820116820180604052508101906110c29190612222565b6060830152600054602084015160405163bac3511960e01b815260048101919091526001600160a01b039091169063bac3511990602401602060405180830381865afa158015611116573d6000803e3d6000fd5b505050506040513d601f19601f8201168201806040525081019061113a9190612222565b606082015260005483516001600160a01b039091169063bac3511990611161906001612300565b6040518263ffffffff1660e01b815260040161117f91815260200190565b602060405180830381865afa15801561119c573d6000803e3d6000fd5b505050506040513d601f19601f820116820180604052508101906111c09190612222565b82600460200201526000546001600160a01b031663ee0b07e06001858160200201516111ec91906121e3565b6040518263ffffffff1660e01b815260040161120a91815260200190565b602060405180830381865afa158015611227573d6000803e3d6000fd5b505050506040513d601f19601f8201168201806040525081019061124b9190612222565b608082015260005483516001600160a01b039091169063ee0b07e090611273906001906121e3565b6040518263ffffffff1660e01b815260040161129191815260200190565b602060405180830381865afa1580156112ae573d6000803e3d6000fd5b505050506040513d601f19601f820116820180604052508101906112d29190612222565b82600560200201526000546001600160a01b031663bac3511984600160200201516112fe906001612300565b6040518263ffffffff1660e01b815260040161131c91815260200190565b602060405180830381865afa158015611339573d6000803e3d6000fd5b505050506040513d601f19601f8201168201806040525081019061135d9190612222565b60a082015260005483516001600160a01b039091169063ee0b07e090611385906001906121e3565b6040518263ffffffff1660e01b81526004016113a391815260200190565b602060405180830381865afa1580156113c0573d6000803e3d6000fd5b505050506040513d601f19601f820116820180604052508101906113e49190612222565b82600660200201526000546001600160a01b031663ee0b07e060018581602002015161141091906121e3565b6040518263ffffffff1660e01b815260040161142e91815260200190565b602060405180830381865afa15801561144b573d6000803e3d6000fd5b505050506040513d601f19601f8201168201806040525081019061146f9190612222565b60c082015260005483516001600160a01b039091169063bac3511990611496906001612300565b6040518263ffffffff1660e01b81526004016114b491815260200190565b602060405180830381865afa1580156114d1573d6000803e3d6000fd5b505050506040513d601f19601f820116820180604052508101906114f59190612222565b82600760200201526000546001600160a01b031663bac351198460016020020151611521906001612300565b6040518263ffffffff1660e01b815260040161153f91815260200190565b602060405180830381865afa15801561155c573d6000803e3d6000fd5b505050506040513d601f19601f820116820180604052508101906115809190612222565b60e082015260005b600881101561178e576001546001600160a01b0316631feeef988483600881106115b4576115b4612144565b60200201518484600881106115cb576115cb612144565b60200201516040516001600160e01b031960e085901b168152600481019290925260248201526044016040805180830381865afa158015611610573d6000803e3d6000fd5b505050506040513d601f19601f82011682018060405250810190611634919061215a565b51158015906116ed5750600154861515906001600160a01b0316631feeef9885846008811061166557611665612144565b602002015185856008811061167c5761167c612144565b60200201516040516001600160e01b031960e085901b168152600481019290925260248201526044016040805180830381865afa1580156116c1573d6000803e3d6000fd5b505050506040513d601f19601f820116820180604052508101906116e5919061215a565b602001511515145b1561171557600185826008811061170657611706612144565b9115156020909202015261177c565b61175e604051806040016040528085846008811061173557611735612144565b6020020151815260200184846008811061175157611751612144565b60200201519052876105e7565b5185826008811061177157611771612144565b911515602090920201525b8061178681612341565b915050611588565b50505050919050565b60006117a1611e00565b60015460405163915b740d60e01b8152851515600482015260009182916001600160a01b039091169063915b740d906024016040805180830381865afa1580156117ef573d6000803e3d6000fd5b505050506040513d601f19601f82011682018060405250810190611813919061235a565b905061181d611dc5565b60005b600881101561185d5760008260200151826008811061184157611841612144565b911515602090920201528061185581612341565b915050611820565b5061186882886105e7565b5180156118725750855b15611d985760005b61188483896105e7565b506008811015611d0f5761189883896105e7565b6020015181600881106118ad576118ad612144565b602002015115611cde57836118c181612341565b8451909550600091506118d4858b6105e7565b6040015183600881106118e9576118e9612144565b60200201516118f891906121e3565b90506000846001602002015161190e868c6105e7565b60600151846008811061192357611923612144565b602002015161193291906121e3565b6000805460405163c03c300360e01b81526004810186905292935090916001600160a01b039091169063c03c300390602401602060405180830381865afa158015611981573d6000803e3d6000fd5b505050506040513d601f19601f820116820180604052508101906119a59190612222565b6000805460405163c03c300360e01b81526004810186905292935090916001600160a01b039091169063c03c300390602401602060405180830381865afa1580156119f4573d6000803e3d6000fd5b505050506040513d601f19601f82011682018060405250810190611a189190612222565b87516020890151919250905b611a2e898f6105e7565b604001518760088110611a4357611a43612144565b602002015182141580611a795750611a5b898f6105e7565b606001518760088110611a7057611a70612144565b60200201518114155b15611cd3576000546001600160a01b031663bac35119611a998685612300565b6040518263ffffffff1660e01b8152600401611ab791815260200190565b602060405180830381865afa158015611ad4573d6000803e3d6000fd5b505050506040513d601f19601f82011682018060405250810190611af89190612222565b6000549092506001600160a01b031663bac35119611b168584612300565b6040518263ffffffff1660e01b8152600401611b3491815260200190565b602060405180830381865afa158015611b51573d6000803e3d6000fd5b505050506040513d601f19601f82011682018060405250810190611b759190612222565b9050611b966040518060400160405280848152602001838152508f156105e7565b975060005b6008811015611cb55788602001518160088110611bba57611bba612144565b60200201518015611c7b575060015460408a01516001600160a01b0390911690631feeef98908360088110611bf157611bf1612144565b60200201518b606001518460088110611c0c57611c0c612144565b60200201516040516001600160e01b031960e085901b168152600481019290925260248201526044016040805180830381865afa158015611c51573d6000803e3d6000fd5b505050506040513d601f19601f82011682018060405250810190611c75919061215a565b51600514155b15611ca35760018c8960088110611c9457611c94612144565b91151560209092020152611cb5565b80611cad81612341565b915050611b9b565b508a8760088110611cc857611cc8612144565b602002015115611a24575b505050505050611cfd565b6001858260088110611cf257611cf2612144565b911515602090920201525b80611d0781612341565b91505061187a565b50600283108015611d1e575083515b8015611d2b575060208401515b8015611d38575060408401515b8015611d45575060608401515b8015611d52575060808401515b8015611d5f575060a08401515b8015611d6c575060c08401515b8015611d79575060e08401515b15611d8b576001945050505050611da1565b6000945050505050611da1565b60019450505050505b92915050565b60405180604001604052806002906020820280368337509192915050565b6040518060800160405280600015158152602001611de1611e00565b8152602001611dee611e00565b8152602001611dfb611e00565b905290565b6040518061010001604052806008906020820280368337509192915050565b634e487b7160e01b600052604160045260246000fd5b6040805190810167ffffffffffffffff81118282101715611e5857611e58611e1f565b60405290565b6040516060810167ffffffffffffffff81118282101715611e5857611e58611e1f565b600082601f830112611e9257600080fd5b611e9a611e35565b806040840185811115611eac57600080fd5b845b81811015611ec6578035845260209384019301611eae565b509095945050505050565b8015158114611edf57600080fd5b50565b600080600060a08486031215611ef757600080fd5b611f018585611e81565b9250611f108560408601611e81565b91506080840135611f2081611ed1565b809150509250925092565b8060005b6002811015611f4e578151845260209384019390910190600101611f2f565b50505050565b821515815260608101611f6a6020830184611f2b565b9392505050565b60008060608385031215611f8457600080fd5b611f8e8484611e81565b91506040830135611f9e81611ed1565b809150509250929050565b8060005b6008811015611f4e578151845260209384019390910190600101611fad565b8151151581526020808301516103208301919081840160005b6008811015612004578251151582529183019190830190600101611fe5565b50505050604083015161201b610120840182611fa9565b506060830151610c70610220840182611fa9565b60006020828403121561204157600080fd5b8135611f6a81611ed1565b6101008101818360005b60088110156120775781511515835260209283019290910190600101612056565b50505092915050565b6000806040838503121561209357600080fd5b823561209e81611ed1565b91506020830135611f9e81611ed1565b608081016120bc8285611f2b565b611f6a6040830184611f2b565b600082601f8301126120da57600080fd5b6120e2611e35565b8060408401858111156120f457600080fd5b845b81811015611ec65780518452602093840193016120f6565b6000806060838503121561212157600080fd5b825161212c81611ed1565b915061213b84602085016120c9565b90509250929050565b634e487b7160e01b600052603260045260246000fd5b60006040828403121561216c57600080fd5b6040516040810181811067ffffffffffffffff8211171561218f5761218f611e1f565b6040528251815260208301516121a481611ed1565b60208201529392505050565b6000602082840312156121c257600080fd5b8151611f6a81611ed1565b634e487b7160e01b600052601160045260246000fd5b60008083128015600160ff1b850184121615612201576122016121cd565b6001600160ff1b038401831381161561221c5761221c6121cd565b50500390565b60006020828403121561223457600080fd5b5051919050565b60006080828403121561224d57600080fd5b6040516040810181811067ffffffffffffffff8211171561227057612270611e1f565b604052601f8301841361228257600080fd5b61228a611e5e565b80606085018681111561229c57600080fd5b855b818110156122bf5780516122b181611ed1565b84526020938401930161229e565b50908352516020830152509392505050565b6000828210156122e3576122e36121cd565b500390565b600082198211156122fb576122fb6121cd565b500190565b600080821280156001600160ff1b0384900385131615612322576123226121cd565b600160ff1b839003841281161561233b5761233b6121cd565b50500190565b600060018201612353576123536121cd565b5060010190565b60006040828403121561236c57600080fd5b611f6a83836120c956fea2646970667358221220004b199eed1e7d5de3fd3cf6e5fe17dba020c4a8801eb41eaae63c8ac9fc36ea64736f6c634300080e0033",
  "linkReferences": {},
  "deployedLinkReferences": {}
}