{
  "_format": "hh-sol-artifact-1",
  "contractName": "MoveHandler",
  "sourceName": "contracts/MoveHandler.sol",
  "abi": [
    {
      "inputs": [
        {
          "internalType": "address",
          "name": "_gamecontrol",
          "type": "address"
        },
        {
          "internalType": "address payable",
          "name": "_chessboard",
          "type": "address"
        }
      ],
      "stateMutability": "nonpayable",
      "type": "constructor"
    },
    {
      "inputs": [
        {
          "internalType": "bool",
          "name": "team",
          "type": "bool"
        }
      ],
      "name": "NoMorePos",
      "outputs": [
        {
          "internalType": "bool",
          "name": "",
          "type": "bool"
        }
      ],
      "stateMutability": "view",
      "type": "function"
    },
    {
      "inputs": [
        {
          "internalType": "bool",
          "name": "team",
          "type": "bool"
        }
      ],
      "name": "isCheckMate",
      "outputs": [
        {
          "internalType": "bool",
          "name": "checked",
          "type": "bool"
        },
        {
          "internalType": "bool",
          "name": "nopos",
          "type": "bool"
        }
      ],
      "stateMutability": "view",
      "type": "function"
    },
    {
      "inputs": [
        {
          "internalType": "uint256[2]",
          "name": "newpos",
          "type": "uint256[2]"
        },
        {
          "internalType": "bool",
          "name": "team",
          "type": "bool"
        }
      ],
      "name": "isEvilBox",
      "outputs": [
        {
          "internalType": "bool",
          "name": "res",
          "type": "bool"
        },
        {
          "internalType": "uint256[2]",
          "name": "pos",
          "type": "uint256[2]"
        }
      ],
      "stateMutability": "view",
      "type": "function"
    }
  ],
  "bytecode": "0x60806040523480156200001157600080fd5b50604051620024ce380380620024ce83398181016040528101906200003791906200016f565b816000806101000a81548173ffffffffffffffffffffffffffffffffffffffff021916908373ffffffffffffffffffffffffffffffffffffffff16021790555080600160006101000a81548173ffffffffffffffffffffffffffffffffffffffff021916908373ffffffffffffffffffffffffffffffffffffffff1602179055505050620001b6565b600080fd5b600073ffffffffffffffffffffffffffffffffffffffff82169050919050565b6000620000f282620000c5565b9050919050565b6200010481620000e5565b81146200011057600080fd5b50565b6000815190506200012481620000f9565b92915050565b60006200013782620000c5565b9050919050565b62000149816200012a565b81146200015557600080fd5b50565b60008151905062000169816200013e565b92915050565b60008060408385031215620001895762000188620000c0565b5b6000620001998582860162000113565b9250506020620001ac8582860162000158565b9150509250929050565b61230880620001c66000396000f3fe608060405234801561001057600080fd5b50600436106100415760003560e01c8063155b47e8146100465780632f1d8074146100765780638b69cfad146100a7575b600080fd5b610060600480360381019061005b91906118fb565b6100d8565b60405161006d9190611937565b60405180910390f35b610090600480360381019061008b9190611acf565b610d75565b60405161009e929190611bba565b60405180910390f35b6100c160048036038101906100bc91906118fb565b611583565b6040516100cf929190611be3565b60405180910390f35b6000600160009054906101000a900473ffffffffffffffffffffffffffffffffffffffff1673ffffffffffffffffffffffffffffffffffffffff163373ffffffffffffffffffffffffffffffffffffffff161461016a576040517f08c379a000000000000000000000000000000000000000000000000000000000815260040161016190611c43565b60405180910390fd5b6000600160009054906101000a900473ffffffffffffffffffffffffffffffffffffffff1673ffffffffffffffffffffffffffffffffffffffff1663915b740d846040518263ffffffff1660e01b81526004016101c79190611937565b6040805180830381865afa1580156101e3573d6000803e3d6000fd5b505050506040513d601f19601f820116820180604052508101906102079190611d03565b90506102476040518060400160405280600381526020017f706f730000000000000000000000000000000000000000000000000000000000815250611714565b6102688160006002811061025e5761025d611d30565b5b60200201516117ad565b6102898160016002811061027f5761027e611d30565b5b60200201516117ad565b61029161186f565b600080600080600080600080610390604051806040016040528060008054906101000a900473ffffffffffffffffffffffffffffffffffffffff1673ffffffffffffffffffffffffffffffffffffffff1663bac3511960018f6000600281106102fd576102fc611d30565b5b602002015161030c9190611d98565b6040518263ffffffff1660e01b81526004016103289190611e3b565b602060405180830381865afa158015610345573d6000803e3d6000fd5b505050506040513d601f19601f820116820180604052508101906103699190611e82565b81526020018c60016002811061038257610381611d30565b5b60200201518152508d610d75565b809a50819950505061048b604051806040016040528060008054906101000a900473ffffffffffffffffffffffffffffffffffffffff1673ffffffffffffffffffffffffffffffffffffffff1663ee0b07e060018f6000600281106103f8576103f7611d30565b5b60200201516104079190611eaf565b6040518263ffffffff1660e01b81526004016104239190611e3b565b602060405180830381865afa158015610440573d6000803e3d6000fd5b505050506040513d601f19601f820116820180604052508101906104649190611e82565b81526020018c60016002811061047d5761047c611d30565b5b60200201518152508d610d75565b809a50819850505061058660405180604001604052808c6000600281106104b5576104b4611d30565b5b6020020151815260200160008054906101000a900473ffffffffffffffffffffffffffffffffffffffff1673ffffffffffffffffffffffffffffffffffffffff1663bac3511960018f60016002811061051157610510611d30565b5b60200201516105209190611d98565b6040518263ffffffff1660e01b815260040161053c9190611e3b565b602060405180830381865afa158015610559573d6000803e3d6000fd5b505050506040513d601f19601f8201168201806040525081019061057d9190611e82565b8152508d610d75565b809a50819750505061068160405180604001604052808c6000600281106105b0576105af611d30565b5b6020020151815260200160008054906101000a900473ffffffffffffffffffffffffffffffffffffffff1673ffffffffffffffffffffffffffffffffffffffff1663bac3511960018f60016002811061060c5761060b611d30565b5b602002015161061b9190611eaf565b6040518263ffffffff1660e01b81526004016106379190611e3b565b602060405180830381865afa158015610654573d6000803e3d6000fd5b505050506040513d601f19601f820116820180604052508101906106789190611e82565b8152508d610d75565b809a508196505050610821604051806040016040528060008054906101000a900473ffffffffffffffffffffffffffffffffffffffff1673ffffffffffffffffffffffffffffffffffffffff1663bac3511960018f6000600281106106e9576106e8611d30565b5b60200201516106f89190611d98565b6040518263ffffffff1660e01b81526004016107149190611e3b565b602060405180830381865afa158015610731573d6000803e3d6000fd5b505050506040513d601f19601f820116820180604052508101906107559190611e82565b815260200160008054906101000a900473ffffffffffffffffffffffffffffffffffffffff1673ffffffffffffffffffffffffffffffffffffffff1663bac3511960018f6001600281106107ac576107ab611d30565b5b60200201516107bb9190611d98565b6040518263ffffffff1660e01b81526004016107d79190611e3b565b602060405180830381865afa1580156107f4573d6000803e3d6000fd5b505050506040513d601f19601f820116820180604052508101906108189190611e82565b8152508d610d75565b809a5081955050506109c1604051806040016040528060008054906101000a900473ffffffffffffffffffffffffffffffffffffffff1673ffffffffffffffffffffffffffffffffffffffff1663bac3511960018f60006002811061088957610888611d30565b5b60200201516108989190611d98565b6040518263ffffffff1660e01b81526004016108b49190611e3b565b602060405180830381865afa1580156108d1573d6000803e3d6000fd5b505050506040513d601f19601f820116820180604052508101906108f59190611e82565b815260200160008054906101000a900473ffffffffffffffffffffffffffffffffffffffff1673ffffffffffffffffffffffffffffffffffffffff1663bac3511960018f60016002811061094c5761094b611d30565b5b602002015161095b9190611eaf565b6040518263ffffffff1660e01b81526004016109779190611e3b565b602060405180830381865afa158015610994573d6000803e3d6000fd5b505050506040513d601f19601f820116820180604052508101906109b89190611e82565b8152508d610d75565b809a508194505050610b61604051806040016040528060008054906101000a900473ffffffffffffffffffffffffffffffffffffffff1673ffffffffffffffffffffffffffffffffffffffff1663bac3511960018f600060028110610a2957610a28611d30565b5b6020020151610a389190611eaf565b6040518263ffffffff1660e01b8152600401610a549190611e3b565b602060405180830381865afa158015610a71573d6000803e3d6000fd5b505050506040513d601f19601f82011682018060405250810190610a959190611e82565b815260200160008054906101000a900473ffffffffffffffffffffffffffffffffffffffff1673ffffffffffffffffffffffffffffffffffffffff1663bac3511960018f600160028110610aec57610aeb611d30565b5b6020020151610afb9190611d98565b6040518263ffffffff1660e01b8152600401610b179190611e3b565b602060405180830381865afa158015610b34573d6000803e3d6000fd5b505050506040513d601f19601f82011682018060405250810190610b589190611e82565b8152508d610d75565b809a508193505050610d01604051806040016040528060008054906101000a900473ffffffffffffffffffffffffffffffffffffffff1673ffffffffffffffffffffffffffffffffffffffff1663bac3511960018f600060028110610bc957610bc8611d30565b5b6020020151610bd89190611eaf565b6040518263ffffffff1660e01b8152600401610bf49190611e3b565b602060405180830381865afa158015610c11573d6000803e3d6000fd5b505050506040513d601f19601f82011682018060405250810190610c359190611e82565b815260200160008054906101000a900473ffffffffffffffffffffffffffffffffffffffff1673ffffffffffffffffffffffffffffffffffffffff1663bac3511960018f600160028110610c8c57610c8b611d30565b5b6020020151610c9b9190611eaf565b6040518263ffffffff1660e01b8152600401610cb79190611e3b565b602060405180830381865afa158015610cd4573d6000803e3d6000fd5b505050506040513d601f19601f82011682018060405250810190610cf89190611e82565b8152508d610d75565b809a508192505050878015610d135750865b8015610d1c5750855b8015610d255750845b8015610d2e5750835b8015610d375750825b8015610d405750815b8015610d495750805b15610d615760019a5050505050505050505050610d70565b60009a50505050505050505050505b919050565b6000610d7f61186f565b610d87611891565b610d8f611891565b600082600060088110610da557610da4611d30565b5b60200201818152505085600160028110610dc257610dc1611d30565b5b602002015181600060088110610ddb57610dda611d30565b5b602002018181525050600782600160088110610dfa57610df9611d30565b5b60200201818152505085600160028110610e1757610e16611d30565b5b602002015181600160088110610e3057610e2f611d30565b5b60200201818152505085600060028110610e4d57610e4c611d30565b5b602002015182600260088110610e6657610e65611d30565b5b602002018181525050600081600260088110610e8557610e84611d30565b5b60200201818152505085600060028110610ea257610ea1611d30565b5b602002015182600360088110610ebb57610eba611d30565b5b602002018181525050600781600360088110610eda57610ed9611d30565b5b60200201818152505085600060028110610ef757610ef6611d30565b5b602002015182600460088110610f1057610f0f611d30565b5b60200201818152505085600160028110610f2d57610f2c611d30565b5b602002015181600460088110610f4657610f45611d30565b5b60200201818152505085600060028110610f6357610f62611d30565b5b602002015182600560088110610f7c57610f7b611d30565b5b60200201818152505085600160028110610f9957610f98611d30565b5b602002015181600560088110610fb257610fb1611d30565b5b60200201818152505085600060028110610fcf57610fce611d30565b5b602002015182600660088110610fe857610fe7611d30565b5b6020020181815250508560016002811061100557611004611d30565b5b60200201518160066008811061101e5761101d611d30565b5b6020020181815250508560006002811061103b5761103a611d30565b5b60200201518260076008811061105457611053611d30565b5b6020020181815250508560016002811061107157611070611d30565b5b60200201518160076008811061108a57611089611d30565b5b60200201818152505060005b60088110156115745760008054906101000a900473ffffffffffffffffffffffffffffffffffffffff1673ffffffffffffffffffffffffffffffffffffffff166371cc5ad18860405180604001604052808786600881106110fa576110f9611d30565b5b6020020151815260200186866008811061111757611116611d30565b5b60200201518152506040518363ffffffff1660e01b815260040161113c929190611f43565b606060405180830381865afa158015611159573d6000803e3d6000fd5b505050506040513d601f19601f8201168201806040525081019061117d9190611f81565b809550819650505060008054906101000a900473ffffffffffffffffffffffffffffffffffffffff1673ffffffffffffffffffffffffffffffffffffffff1663ac411ce685896040518363ffffffff1660e01b81526004016111e0929190611f43565b602060405180830381865afa1580156111fd573d6000803e3d6000fd5b505050506040513d601f19601f820116820180604052508101906112219190611fc1565b8015611470575060008054906101000a900473ffffffffffffffffffffffffffffffffffffffff1673ffffffffffffffffffffffffffffffffffffffff16631b5ac4b58860016002811061127857611277611d30565b5b60200201518660016002811061129157611290611d30565b5b60200201516112a09190611eaf565b6040518263ffffffff1660e01b81526004016112bc9190611e3b565b602060405180830381865afa1580156112d9573d6000803e3d6000fd5b505050506040513d601f19601f820116820180604052508101906112fd9190611e82565b600160009054906101000a900473ffffffffffffffffffffffffffffffffffffffff1673ffffffffffffffffffffffffffffffffffffffff16638f7daf0f600160009054906101000a900473ffffffffffffffffffffffffffffffffffffffff1673ffffffffffffffffffffffffffffffffffffffff16631feeef988860006002811061138d5761138c611d30565b5b6020020151896001600281106113a6576113a5611d30565b5b60200201516040518363ffffffff1660e01b81526004016113c8929190611ffd565b6040805180830381865afa1580156113e4573d6000803e3d6000fd5b505050506040513d601f19601f82011682018060405250810190611408919061207b565b600001516040518263ffffffff1660e01b815260040161142891906120a8565b608060405180830381865afa158015611445573d6000803e3d6000fd5b505050506040513d601f19601f8201168201806040525081019061146991906121c4565b6020015110155b80156115505750851515600160009054906101000a900473ffffffffffffffffffffffffffffffffffffffff1673ffffffffffffffffffffffffffffffffffffffff16631feeef98866000600281106114cc576114cb611d30565b5b6020020151876001600281106114e5576114e4611d30565b5b60200201516040518363ffffffff1660e01b8152600401611507929190611ffd565b6040805180830381865afa158015611523573d6000803e3d6000fd5b505050506040513d601f19601f82011682018060405250810190611547919061207b565b60200151151514155b15611561576001945050505061157c565b808061156c906121f1565b915050611096565b506000935050505b9250929050565b600080600160009054906101000a900473ffffffffffffffffffffffffffffffffffffffff1673ffffffffffffffffffffffffffffffffffffffff1663fe9ba8ec846040518263ffffffff1660e01b81526004016115e19190611937565b602060405180830381865afa1580156115fe573d6000803e3d6000fd5b505050506040513d601f19601f820116820180604052508101906116229190611fc1565b80156116335750611632836100d8565b5b1561164557600191506001905061170f565b600160009054906101000a900473ffffffffffffffffffffffffffffffffffffffff1673ffffffffffffffffffffffffffffffffffffffff1663fe9ba8ec846040518263ffffffff1660e01b81526004016116a09190611937565b602060405180830381865afa1580156116bd573d6000803e3d6000fd5b505050506040513d601f19601f820116820180604052508101906116e19190611fc1565b1580156116f357506116f2836100d8565b5b1561170557600091506001905061170e565b60009150600090505b5b915091565b6117aa8160405160240161172891906122b0565b6040516020818303038152906040527f41304fac000000000000000000000000000000000000000000000000000000007bffffffffffffffffffffffffffffffffffffffffffffffffffffffff19166020820180517bffffffffffffffffffffffffffffffffffffffffffffffffffffffff8381831617835250505050611846565b50565b611843816040516024016117c191906120a8565b6040516020818303038152906040527ff5b1bba9000000000000000000000000000000000000000000000000000000007bffffffffffffffffffffffffffffffffffffffffffffffffffffffff19166020820180517bffffffffffffffffffffffffffffffffffffffffffffffffffffffff8381831617835250505050611846565b50565b60008151905060006a636f6e736f6c652e6c6f679050602083016000808483855afa5050505050565b6040518060400160405280600290602082028036833780820191505090505090565b604051806101000160405280600890602082028036833780820191505090505090565b6000604051905090565b600080fd5b60008115159050919050565b6118d8816118c3565b81146118e357600080fd5b50565b6000813590506118f5816118cf565b92915050565b600060208284031215611911576119106118be565b5b600061191f848285016118e6565b91505092915050565b611931816118c3565b82525050565b600060208201905061194c6000830184611928565b92915050565b600080fd5b6000601f19601f8301169050919050565b7f4e487b7100000000000000000000000000000000000000000000000000000000600052604160045260246000fd5b6119a082611957565b810181811067ffffffffffffffff821117156119bf576119be611968565b5b80604052505050565b60006119d26118b4565b90506119de8282611997565b919050565b600067ffffffffffffffff8211156119fe576119fd611968565b5b602082029050919050565b600080fd5b6000819050919050565b611a2181611a0e565b8114611a2c57600080fd5b50565b600081359050611a3e81611a18565b92915050565b6000611a57611a52846119e3565b6119c8565b90508060208402830185811115611a7157611a70611a09565b5b835b81811015611a9a5780611a868882611a2f565b845260208401935050602081019050611a73565b5050509392505050565b600082601f830112611ab957611ab8611952565b5b6002611ac6848285611a44565b91505092915050565b60008060608385031215611ae657611ae56118be565b5b6000611af485828601611aa4565b9250506040611b05858286016118e6565b9150509250929050565b600060029050919050565b600081905092915050565b6000819050919050565b611b3881611a0e565b82525050565b6000611b4a8383611b2f565b60208301905092915050565b6000602082019050919050565b611b6c81611b0f565b611b768184611b1a565b9250611b8182611b25565b8060005b83811015611bb2578151611b998782611b3e565b9650611ba483611b56565b925050600181019050611b85565b505050505050565b6000606082019050611bcf6000830185611928565b611bdc6020830184611b63565b9392505050565b6000604082019050611bf86000830185611928565b611c056020830184611928565b9392505050565b600082825260208201905092915050565b50565b6000611c2d600083611c0c565b9150611c3882611c1d565b600082019050919050565b60006020820190508181036000830152611c5c81611c20565b9050919050565b600081519050611c7281611a18565b92915050565b6000611c8b611c86846119e3565b6119c8565b90508060208402830185811115611ca557611ca4611a09565b5b835b81811015611cce5780611cba8882611c63565b845260208401935050602081019050611ca7565b5050509392505050565b600082601f830112611ced57611cec611952565b5b6002611cfa848285611c78565b91505092915050565b600060408284031215611d1957611d186118be565b5b6000611d2784828501611cd8565b91505092915050565b7f4e487b7100000000000000000000000000000000000000000000000000000000600052603260045260246000fd5b6000819050919050565b7f4e487b7100000000000000000000000000000000000000000000000000000000600052601160045260246000fd5b6000611da382611d5f565b9150611dae83611d5f565b9250817f7fffffffffffffffffffffffffffffffffffffffffffffffffffffffffffffff03831360008312151615611de957611de8611d69565b5b817f8000000000000000000000000000000000000000000000000000000000000000038312600083121615611e2157611e20611d69565b5b828201905092915050565b611e3581611d5f565b82525050565b6000602082019050611e506000830184611e2c565b92915050565b611e5f81611d5f565b8114611e6a57600080fd5b50565b600081519050611e7c81611e56565b92915050565b600060208284031215611e9857611e976118be565b5b6000611ea684828501611e6d565b91505092915050565b6000611eba82611d5f565b9150611ec583611d5f565b9250827f800000000000000000000000000000000000000000000000000000000000000001821260008412151615611f0057611eff611d69565b5b827f7fffffffffffffffffffffffffffffffffffffffffffffffffffffffffffffff018213600084121615611f3857611f37611d69565b5b828203905092915050565b6000608082019050611f586000830185611b63565b611f656040830184611b63565b9392505050565b600081519050611f7b816118cf565b92915050565b60008060608385031215611f9857611f976118be565b5b6000611fa685828601611f6c565b9250506020611fb785828601611cd8565b9150509250929050565b600060208284031215611fd757611fd66118be565b5b6000611fe584828501611f6c565b91505092915050565b611ff781611a0e565b82525050565b60006040820190506120126000830185611fee565b61201f6020830184611fee565b9392505050565b600080fd5b60006040828403121561204157612040612026565b5b61204b60406119c8565b9050600061205b84828501611c63565b600083015250602061206f84828501611f6c565b60208301525092915050565b600060408284031215612091576120906118be565b5b600061209f8482850161202b565b91505092915050565b60006020820190506120bd6000830184611fee565b92915050565b600067ffffffffffffffff8211156120de576120dd611968565b5b602082029050919050565b60006120fc6120f7846120c3565b6119c8565b9050806020840283018581111561211657612115611a09565b5b835b8181101561213f578061212b8882611f6c565b845260208401935050602081019050612118565b5050509392505050565b600082601f83011261215e5761215d611952565b5b600361216b8482856120e9565b91505092915050565b60006080828403121561218a57612189612026565b5b61219460406119c8565b905060006121a484828501612149565b60008301525060606121b884828501611c63565b60208301525092915050565b6000608082840312156121da576121d96118be565b5b60006121e884828501612174565b91505092915050565b60006121fc82611a0e565b91507fffffffffffffffffffffffffffffffffffffffffffffffffffffffffffffffff820361222e5761222d611d69565b5b600182019050919050565b600081519050919050565b60005b83811015612262578082015181840152602081019050612247565b83811115612271576000848401525b50505050565b600061228282612239565b61228c8185611c0c565b935061229c818560208601612244565b6122a581611957565b840191505092915050565b600060208201905081810360008301526122ca8184612277565b90509291505056fea264697066735822122081c3f71d4ee99ed53b4d5151cac0fb972046ebbc8675e5ba9edbf363e8a6c0fe64736f6c634300080e0033",
  "linkReferences": {},
  "deployedLinkReferences": {}
}