{
  "_format": "hh-sol-artifact-1",
  "contractName": "MoveHandler",
  "sourceName": "contracts/MoveHandler.sol",
  "abi": [
    {
      "inputs": [
        {
          "internalType": "address",
          "name": "_gamecontrol",
          "type": "address"
        },
        {
          "internalType": "address payable",
          "name": "_chessboard",
          "type": "address"
        }
      ],
      "stateMutability": "nonpayable",
      "type": "constructor"
    },
    {
      "inputs": [
        {
          "internalType": "bool",
          "name": "team",
          "type": "bool"
        }
      ],
      "name": "NoMorePos",
      "outputs": [
        {
          "internalType": "bool",
          "name": "",
          "type": "bool"
        }
      ],
      "stateMutability": "view",
      "type": "function"
    },
    {
      "inputs": [
        {
          "internalType": "uint256[2]",
          "name": "oldpos",
          "type": "uint256[2]"
        },
        {
          "internalType": "uint256[2]",
          "name": "newpos",
          "type": "uint256[2]"
        },
        {
          "internalType": "bool",
          "name": "team",
          "type": "bool"
        }
      ],
      "name": "canArrive",
      "outputs": [
        {
          "internalType": "bool",
          "name": "res",
          "type": "bool"
        },
        {
          "internalType": "uint256[2]",
          "name": "pos",
          "type": "uint256[2]"
        }
      ],
      "stateMutability": "view",
      "type": "function"
    },
    {
      "inputs": [
        {
          "internalType": "bool",
          "name": "team",
          "type": "bool"
        }
      ],
      "name": "isCheckMate",
      "outputs": [
        {
          "internalType": "bool",
          "name": "checked",
          "type": "bool"
        },
        {
          "internalType": "bool",
          "name": "nopos",
          "type": "bool"
        }
      ],
      "stateMutability": "view",
      "type": "function"
    },
    {
      "inputs": [
        {
          "internalType": "uint256[2]",
          "name": "newpos",
          "type": "uint256[2]"
        },
        {
          "internalType": "bool",
          "name": "team",
          "type": "bool"
        }
      ],
      "name": "isEvilBox",
      "outputs": [
        {
          "internalType": "bool",
          "name": "res",
          "type": "bool"
        },
        {
          "internalType": "uint256[2]",
          "name": "pos",
          "type": "uint256[2]"
        }
      ],
      "stateMutability": "view",
      "type": "function"
    }
  ],
  "bytecode": "0x60806040523480156200001157600080fd5b50604051620035993803806200359983398181016040528101906200003791906200016f565b816000806101000a81548173ffffffffffffffffffffffffffffffffffffffff021916908373ffffffffffffffffffffffffffffffffffffffff16021790555080600160006101000a81548173ffffffffffffffffffffffffffffffffffffffff021916908373ffffffffffffffffffffffffffffffffffffffff1602179055505050620001b6565b600080fd5b600073ffffffffffffffffffffffffffffffffffffffff82169050919050565b6000620000f282620000c5565b9050919050565b6200010481620000e5565b81146200011057600080fd5b50565b6000815190506200012481620000f9565b92915050565b60006200013782620000c5565b9050919050565b62000149816200012a565b81146200015557600080fd5b50565b60008151905062000169816200013e565b92915050565b60008060408385031215620001895762000188620000c0565b5b6000620001998582860162000113565b9250506020620001ac8582860162000158565b9150509250929050565b6133d380620001c66000396000f3fe608060405234801561001057600080fd5b506004361061004c5760003560e01c8063155b47e8146100515780632f1d8074146100815780638b69cfad146100b2578063b8b712da146100e3575b600080fd5b61006b600480360381019061006691906128bc565b610114565b60405161007891906128f8565b60405180910390f35b61009b60048036038101906100969190612a90565b6112d4565b6040516100a9929190612b7b565b60405180910390f35b6100cc60048036038101906100c791906128bc565b611de5565b6040516100da929190612ba4565b60405180910390f35b6100fd60048036038101906100f89190612bcd565b611fc6565b60405161010b929190612b7b565b60405180910390f35b6000600160009054906101000a900473ffffffffffffffffffffffffffffffffffffffff1673ffffffffffffffffffffffffffffffffffffffff163373ffffffffffffffffffffffffffffffffffffffff16146101a6576040517f08c379a000000000000000000000000000000000000000000000000000000000815260040161019d90612c57565b60405180910390fd5b6101ae61280d565b6101b661280d565b6101be612830565b6101c6612852565b6000600160009054906101000a900473ffffffffffffffffffffffffffffffffffffffff1673ffffffffffffffffffffffffffffffffffffffff1663915b740d886040518263ffffffff1660e01b815260040161022391906128f8565b6040805180830381865afa15801561023f573d6000803e3d6000fd5b505050506040513d601f19601f820116820180604052508101906102639190612d17565b90506103f1604051806040016040528060008054906101000a900473ffffffffffffffffffffffffffffffffffffffff1673ffffffffffffffffffffffffffffffffffffffff1663bac35119856000600281106102c3576102c2612d44565b5b60200201516040518263ffffffff1660e01b81526004016102e49190612d8c565b602060405180830381865afa158015610301573d6000803e3d6000fd5b505050506040513d601f19601f820116820180604052508101906103259190612dd3565b815260200160008054906101000a900473ffffffffffffffffffffffffffffffffffffffff1673ffffffffffffffffffffffffffffffffffffffff1663bac3511960018660016002811061037c5761037b612d44565b5b602002015161038b9190612e2f565b6040518263ffffffff1660e01b81526004016103a79190612d8c565b602060405180830381865afa1580156103c4573d6000803e3d6000fd5b505050506040513d601f19601f820116820180604052508101906103e89190612dd3565b815250886112d4565b8360006008811061040557610404612d44565b5b60200201819550821515151581525050508260006002811061042a57610429612d44565b5b60200201518560006008811061044357610442612d44565b5b602002018181525050826001600281106104605761045f612d44565b5b60200201518460006008811061047957610478612d44565b5b602002018181525050610575604051806040016040528060008054906101000a900473ffffffffffffffffffffffffffffffffffffffff1673ffffffffffffffffffffffffffffffffffffffff1663bac351196001866000600281106104e2576104e1612d44565b5b60200201516104f19190612e85565b6040518263ffffffff1660e01b815260040161050d9190612d8c565b602060405180830381865afa15801561052a573d6000803e3d6000fd5b505050506040513d601f19601f8201168201806040525081019061054e9190612dd3565b81526020018360016002811061056757610566612d44565b5b6020020151815250886112d4565b8360016008811061058957610588612d44565b5b6020020181955082151515158152505050826000600281106105ae576105ad612d44565b5b6020020151856001600881106105c7576105c6612d44565b5b602002018181525050826001600281106105e4576105e3612d44565b5b6020020151846001600881106105fd576105fc612d44565b5b6020020181815250506106f9604051806040016040528060008054906101000a900473ffffffffffffffffffffffffffffffffffffffff1673ffffffffffffffffffffffffffffffffffffffff1663ee0b07e060018660006002811061066657610665612d44565b5b60200201516106759190612f19565b6040518263ffffffff1660e01b81526004016106919190612d8c565b602060405180830381865afa1580156106ae573d6000803e3d6000fd5b505050506040513d601f19601f820116820180604052508101906106d29190612dd3565b8152602001836001600281106106eb576106ea612d44565b5b6020020151815250886112d4565b8360026008811061070d5761070c612d44565b5b60200201819550821515151581525050508260006002811061073257610731612d44565b5b60200201518560026008811061074b5761074a612d44565b5b6020020181815250508260016002811061076857610767612d44565b5b60200201518460026008811061078157610780612d44565b5b60200201818152505061087d6040518060400160405280836000600281106107ac576107ab612d44565b5b6020020151815260200160008054906101000a900473ffffffffffffffffffffffffffffffffffffffff1673ffffffffffffffffffffffffffffffffffffffff1663ee0b07e060018660016002811061080857610807612d44565b5b60200201516108179190612f19565b6040518263ffffffff1660e01b81526004016108339190612d8c565b602060405180830381865afa158015610850573d6000803e3d6000fd5b505050506040513d601f19601f820116820180604052508101906108749190612dd3565b815250886112d4565b8360036008811061089157610890612d44565b5b6020020181955082151515158152505050826000600281106108b6576108b5612d44565b5b6020020151856003600881106108cf576108ce612d44565b5b602002018181525050826001600281106108ec576108eb612d44565b5b60200201518460036008811061090557610904612d44565b5b602002018181525050610aa6604051806040016040528060008054906101000a900473ffffffffffffffffffffffffffffffffffffffff1673ffffffffffffffffffffffffffffffffffffffff1663ee0b07e060018660006002811061096e5761096d612d44565b5b602002015161097d9190612f19565b6040518263ffffffff1660e01b81526004016109999190612d8c565b602060405180830381865afa1580156109b6573d6000803e3d6000fd5b505050506040513d601f19601f820116820180604052508101906109da9190612dd3565b815260200160008054906101000a900473ffffffffffffffffffffffffffffffffffffffff1673ffffffffffffffffffffffffffffffffffffffff1663ee0b07e0600186600160028110610a3157610a30612d44565b5b6020020151610a409190612f19565b6040518263ffffffff1660e01b8152600401610a5c9190612d8c565b602060405180830381865afa158015610a79573d6000803e3d6000fd5b505050506040513d601f19601f82011682018060405250810190610a9d9190612dd3565b815250886112d4565b83600460088110610aba57610ab9612d44565b5b602002018195508215151515815250505082600060028110610adf57610ade612d44565b5b602002015185600460088110610af857610af7612d44565b5b60200201818152505082600160028110610b1557610b14612d44565b5b602002015184600460088110610b2e57610b2d612d44565b5b602002018181525050610ccf604051806040016040528060008054906101000a900473ffffffffffffffffffffffffffffffffffffffff1673ffffffffffffffffffffffffffffffffffffffff1663bac35119600186600060028110610b9757610b96612d44565b5b6020020151610ba69190612e85565b6040518263ffffffff1660e01b8152600401610bc29190612d8c565b602060405180830381865afa158015610bdf573d6000803e3d6000fd5b505050506040513d601f19601f82011682018060405250810190610c039190612dd3565b815260200160008054906101000a900473ffffffffffffffffffffffffffffffffffffffff1673ffffffffffffffffffffffffffffffffffffffff1663bac35119600186600160028110610c5a57610c59612d44565b5b6020020151610c699190612e85565b6040518263ffffffff1660e01b8152600401610c859190612d8c565b602060405180830381865afa158015610ca2573d6000803e3d6000fd5b505050506040513d601f19601f82011682018060405250810190610cc69190612dd3565b815250886112d4565b83600560088110610ce357610ce2612d44565b5b602002018195508215151515815250505082600060028110610d0857610d07612d44565b5b602002015185600560088110610d2157610d20612d44565b5b60200201818152505082600160028110610d3e57610d3d612d44565b5b602002015184600560088110610d5757610d56612d44565b5b602002018181525050610ef8604051806040016040528060008054906101000a900473ffffffffffffffffffffffffffffffffffffffff1673ffffffffffffffffffffffffffffffffffffffff1663bac35119600186600060028110610dc057610dbf612d44565b5b6020020151610dcf9190612e85565b6040518263ffffffff1660e01b8152600401610deb9190612d8c565b602060405180830381865afa158015610e08573d6000803e3d6000fd5b505050506040513d601f19601f82011682018060405250810190610e2c9190612dd3565b815260200160008054906101000a900473ffffffffffffffffffffffffffffffffffffffff1673ffffffffffffffffffffffffffffffffffffffff1663ee0b07e0600186600160028110610e8357610e82612d44565b5b6020020151610e929190612f19565b6040518263ffffffff1660e01b8152600401610eae9190612d8c565b602060405180830381865afa158015610ecb573d6000803e3d6000fd5b505050506040513d601f19601f82011682018060405250810190610eef9190612dd3565b815250886112d4565b83600660088110610f0c57610f0b612d44565b5b602002018195508215151515815250505082600060028110610f3157610f30612d44565b5b602002015185600660088110610f4a57610f49612d44565b5b60200201818152505082600160028110610f6757610f66612d44565b5b602002015184600660088110610f8057610f7f612d44565b5b602002018181525050611121604051806040016040528060008054906101000a900473ffffffffffffffffffffffffffffffffffffffff1673ffffffffffffffffffffffffffffffffffffffff1663ee0b07e0600186600060028110610fe957610fe8612d44565b5b6020020151610ff89190612f19565b6040518263ffffffff1660e01b81526004016110149190612d8c565b602060405180830381865afa158015611031573d6000803e3d6000fd5b505050506040513d601f19601f820116820180604052508101906110559190612dd3565b815260200160008054906101000a900473ffffffffffffffffffffffffffffffffffffffff1673ffffffffffffffffffffffffffffffffffffffff1663bac351196001866001600281106110ac576110ab612d44565b5b60200201516110bb9190612e85565b6040518263ffffffff1660e01b81526004016110d79190612d8c565b602060405180830381865afa1580156110f4573d6000803e3d6000fd5b505050506040513d601f19601f820116820180604052508101906111189190612dd3565b815250886112d4565b8360076008811061113557611134612d44565b5b60200201819550821515151581525050508260006002811061115a57611159612d44565b5b60200201518560076008811061117357611172612d44565b5b602002018181525050826001600281106111905761118f612d44565b5b6020020151846007600881106111a9576111a8612d44565b5b602002018181525050816000600881106111c6576111c5612d44565b5b602002015180156111ec5750816001600881106111e6576111e5612d44565b5b60200201515b801561120d57508160026008811061120757611206612d44565b5b60200201515b801561122e57508160036008811061122857611227612d44565b5b60200201515b801561124f57508160046008811061124957611248612d44565b5b60200201515b801561127057508160056008811061126a57611269612d44565b5b60200201515b801561129157508160066008811061128b5761128a612d44565b5b60200201515b80156112b25750816007600881106112ac576112ab612d44565b5b60200201515b156112c5576001955050505050506112cf565b6000955050505050505b919050565b60006112de612830565b6112e661280d565b6112ee61280d565b60008260006008811061130457611303612d44565b5b6020020181815250508560016002811061132157611320612d44565b5b60200201518160006008811061133a57611339612d44565b5b60200201818152505060078260016008811061135957611358612d44565b5b6020020181815250508560016002811061137657611375612d44565b5b60200201518160016008811061138f5761138e612d44565b5b602002018181525050856000600281106113ac576113ab612d44565b5b6020020151826002600881106113c5576113c4612d44565b5b6020020181815250506000816002600881106113e4576113e3612d44565b5b6020020181815250508560006002811061140157611400612d44565b5b60200201518260036008811061141a57611419612d44565b5b60200201818152505060078160036008811061143957611438612d44565b5b60200201818152505060008054906101000a900473ffffffffffffffffffffffffffffffffffffffff1673ffffffffffffffffffffffffffffffffffffffff16636d5433e68760006002811061149257611491612d44565b5b6020020151886001600281106114ab576114aa612d44565b5b60200201516040518363ffffffff1660e01b81526004016114cd929190612fbc565b602060405180830381865afa1580156114ea573d6000803e3d6000fd5b505050506040513d601f19601f8201168201806040525081019061150e9190612fe5565b600761151a9190613012565b8660006002811061152e5761152d612d44565b5b602002015161153d9190612e2f565b8260046008811061155157611550612d44565b5b60200201818152505060008054906101000a900473ffffffffffffffffffffffffffffffffffffffff1673ffffffffffffffffffffffffffffffffffffffff16636d5433e6876000600281106115aa576115a9612d44565b5b6020020151886001600281106115c3576115c2612d44565b5b60200201516040518363ffffffff1660e01b81526004016115e5929190612fbc565b602060405180830381865afa158015611602573d6000803e3d6000fd5b505050506040513d601f19601f820116820180604052508101906116269190612fe5565b60076116329190613012565b8660016002811061164657611645612d44565b5b60200201516116559190612e2f565b8160046008811061166957611668612d44565b5b60200201818152505060008054906101000a900473ffffffffffffffffffffffffffffffffffffffff1673ffffffffffffffffffffffffffffffffffffffff16637ae2b5c7876000600281106116c2576116c1612d44565b5b6020020151886001600281106116db576116da612d44565b5b60200201516040518363ffffffff1660e01b81526004016116fd929190612fbc565b602060405180830381865afa15801561171a573d6000803e3d6000fd5b505050506040513d601f19601f8201168201806040525081019061173e9190612fe5565b8660006002811061175257611751612d44565b5b60200201516117619190613012565b8260056008811061177557611774612d44565b5b60200201818152505060008054906101000a900473ffffffffffffffffffffffffffffffffffffffff1673ffffffffffffffffffffffffffffffffffffffff16637ae2b5c7876000600281106117ce576117cd612d44565b5b6020020151886001600281106117e7576117e6612d44565b5b60200201516040518363ffffffff1660e01b8152600401611809929190612fbc565b602060405180830381865afa158015611826573d6000803e3d6000fd5b505050506040513d601f19601f8201168201806040525081019061184a9190612fe5565b8660016002811061185e5761185d612d44565b5b602002015161186d9190613012565b8160056008811061188157611880612d44565b5b60200201818152505060008054906101000a900473ffffffffffffffffffffffffffffffffffffffff1673ffffffffffffffffffffffffffffffffffffffff1663bac35119876000600281106118da576118d9612d44565b5b6020020151886001600281106118f3576118f2612d44565b5b60200201516119029190612e85565b6040518263ffffffff1660e01b815260040161191e9190612d8c565b602060405180830381865afa15801561193b573d6000803e3d6000fd5b505050506040513d601f19601f8201168201806040525081019061195f9190612dd3565b8260066008811061197357611972612d44565b5b60200201818152505060008054906101000a900473ffffffffffffffffffffffffffffffffffffffff1673ffffffffffffffffffffffffffffffffffffffff1663ee0b07e0876000600281106119cc576119cb612d44565b5b602002015160076119dd9190612f19565b886001600281106119f1576119f0612d44565b5b6020020151611a009190612f19565b6040518263ffffffff1660e01b8152600401611a1c9190612d8c565b602060405180830381865afa158015611a39573d6000803e3d6000fd5b505050506040513d601f19601f82011682018060405250810190611a5d9190612dd3565b81600660088110611a7157611a70612d44565b5b60200201818152505060008054906101000a900473ffffffffffffffffffffffffffffffffffffffff1673ffffffffffffffffffffffffffffffffffffffff1663ee0b07e087600060028110611aca57611ac9612d44565b5b60200201516007611adb9190612f19565b88600160028110611aef57611aee612d44565b5b6020020151611afe9190612f19565b6040518263ffffffff1660e01b8152600401611b1a9190612d8c565b602060405180830381865afa158015611b37573d6000803e3d6000fd5b505050506040513d601f19601f82011682018060405250810190611b5b9190612dd3565b82600760088110611b6f57611b6e612d44565b5b60200201818152505060008054906101000a900473ffffffffffffffffffffffffffffffffffffffff1673ffffffffffffffffffffffffffffffffffffffff1663bac3511987600060028110611bc857611bc7612d44565b5b602002015188600160028110611be157611be0612d44565b5b6020020151611bf09190612e85565b6040518263ffffffff1660e01b8152600401611c0c9190612d8c565b602060405180830381865afa158015611c29573d6000803e3d6000fd5b505050506040513d601f19601f82011682018060405250810190611c4d9190612dd3565b81600760088110611c6157611c60612d44565b5b60200201818152505060005b6008811015611dd65760008054906101000a900473ffffffffffffffffffffffffffffffffffffffff1673ffffffffffffffffffffffffffffffffffffffff166371cc5ad1886040518060400160405280878660088110611cd157611cd0612d44565b5b60200201518152602001868660088110611cee57611ced612d44565b5b60200201518152506040518363ffffffff1660e01b8152600401611d13929190613046565b606060405180830381865afa158015611d30573d6000803e3d6000fd5b505050506040513d601f19601f82011682018060405250810190611d549190613084565b8095508196505050611da9876040518060400160405280868560088110611d7e57611d7d612d44565b5b60200201518152602001858560088110611d9b57611d9a612d44565b5b602002015181525088611fc6565b80955081965050508415611dc35760019450505050611dde565b8080611dce906130c4565b915050611c6d565b506000935050505b9250929050565b600080600160009054906101000a900473ffffffffffffffffffffffffffffffffffffffff1673ffffffffffffffffffffffffffffffffffffffff1663fe9ba8ec846040518263ffffffff1660e01b8152600401611e4391906128f8565b602060405180830381865afa158015611e60573d6000803e3d6000fd5b505050506040513d601f19601f82011682018060405250810190611e84919061310c565b8015611e955750611e9483610114565b5b15611ea7576001915060019050611f71565b600160009054906101000a900473ffffffffffffffffffffffffffffffffffffffff1673ffffffffffffffffffffffffffffffffffffffff1663fe9ba8ec846040518263ffffffff1660e01b8152600401611f0291906128f8565b602060405180830381865afa158015611f1f573d6000803e3d6000fd5b505050506040513d601f19601f82011682018060405250810190611f43919061310c565b158015611f555750611f5483610114565b5b15611f67576000915060019050611f70565b60009150600090505b5b611faf6040518060400160405280601481526020017f2c2c2c2c2c2c2c2c2c2c2c2c2c2c2c2c2c2c2c2c0000000000000000000000008152506126b2565b611fb88261274b565b611fc18161274b565b915091565b6000611fd0612830565b60008054906101000a900473ffffffffffffffffffffffffffffffffffffffff1673ffffffffffffffffffffffffffffffffffffffff166371cc5ad186866040518363ffffffff1660e01b815260040161202b929190613046565b606060405180830381865afa158015612048573d6000803e3d6000fd5b505050506040513d601f19601f8201168201806040525081019061206c9190613084565b8092508193505050818015612119575060008054906101000a900473ffffffffffffffffffffffffffffffffffffffff1673ffffffffffffffffffffffffffffffffffffffff1663ac411ce682876040518363ffffffff1660e01b81526004016120d7929190613046565b602060405180830381865afa1580156120f4573d6000803e3d6000fd5b505050506040513d601f19601f82011682018060405250810190612118919061310c565b5b8015612368575060008054906101000a900473ffffffffffffffffffffffffffffffffffffffff1673ffffffffffffffffffffffffffffffffffffffff16631b5ac4b5866001600281106121705761216f612d44565b5b60200201518360016002811061218957612188612d44565b5b60200201516121989190612f19565b6040518263ffffffff1660e01b81526004016121b49190612d8c565b602060405180830381865afa1580156121d1573d6000803e3d6000fd5b505050506040513d601f19601f820116820180604052508101906121f59190612dd3565b600160009054906101000a900473ffffffffffffffffffffffffffffffffffffffff1673ffffffffffffffffffffffffffffffffffffffff16638f7daf0f600160009054906101000a900473ffffffffffffffffffffffffffffffffffffffff1673ffffffffffffffffffffffffffffffffffffffff16631feeef988560006002811061228557612284612d44565b5b60200201518660016002811061229e5761229d612d44565b5b60200201516040518363ffffffff1660e01b81526004016122c0929190612fbc565b6040805180830381865afa1580156122dc573d6000803e3d6000fd5b505050506040513d601f19601f82011682018060405250810190612300919061318e565b600001516040518263ffffffff1660e01b815260040161232091906131bb565b608060405180830381865afa15801561233d573d6000803e3d6000fd5b505050506040513d601f19601f8201168201806040525081019061236191906132d7565b6020015110155b80156125b7575060008054906101000a900473ffffffffffffffffffffffffffffffffffffffff1673ffffffffffffffffffffffffffffffffffffffff16631b5ac4b5866000600281106123bf576123be612d44565b5b6020020151836000600281106123d8576123d7612d44565b5b60200201516123e79190612f19565b6040518263ffffffff1660e01b81526004016124039190612d8c565b602060405180830381865afa158015612420573d6000803e3d6000fd5b505050506040513d601f19601f820116820180604052508101906124449190612dd3565b600160009054906101000a900473ffffffffffffffffffffffffffffffffffffffff1673ffffffffffffffffffffffffffffffffffffffff16638f7daf0f600160009054906101000a900473ffffffffffffffffffffffffffffffffffffffff1673ffffffffffffffffffffffffffffffffffffffff16631feeef98856000600281106124d4576124d3612d44565b5b6020020151866001600281106124ed576124ec612d44565b5b60200201516040518363ffffffff1660e01b815260040161250f929190612fbc565b6040805180830381865afa15801561252b573d6000803e3d6000fd5b505050506040513d601f19601f8201168201806040525081019061254f919061318e565b600001516040518263ffffffff1660e01b815260040161256f91906131bb565b608060405180830381865afa15801561258c573d6000803e3d6000fd5b505050506040513d601f19601f820116820180604052508101906125b091906132d7565b6020015110155b80156126975750600160009054906101000a900473ffffffffffffffffffffffffffffffffffffffff1673ffffffffffffffffffffffffffffffffffffffff16631feeef98826000600281106126105761260f612d44565b5b60200201518360016002811061262957612628612d44565b5b60200201516040518363ffffffff1660e01b815260040161264b929190612fbc565b6040805180830381865afa158015612667573d6000803e3d6000fd5b505050506040513d601f19601f8201168201806040525081019061268b919061318e565b60200151151583151514155b156126a557600191506126aa565b600091505b935093915050565b612748816040516024016126c6919061337b565b6040516020818303038152906040527f41304fac000000000000000000000000000000000000000000000000000000007bffffffffffffffffffffffffffffffffffffffffffffffffffffffff19166020820180517bffffffffffffffffffffffffffffffffffffffffffffffffffffffff83818316178352505050506127e4565b50565b6127e18160405160240161275f91906128f8565b6040516020818303038152906040527f32458eed000000000000000000000000000000000000000000000000000000007bffffffffffffffffffffffffffffffffffffffffffffffffffffffff19166020820180517bffffffffffffffffffffffffffffffffffffffffffffffffffffffff83818316178352505050506127e4565b50565b60008151905060006a636f6e736f6c652e6c6f679050602083016000808483855afa5050505050565b604051806101000160405280600890602082028036833780820191505090505090565b6040518060400160405280600290602082028036833780820191505090505090565b604051806101000160405280600890602082028036833780820191505090505090565b6000604051905090565b600080fd5b60008115159050919050565b61289981612884565b81146128a457600080fd5b50565b6000813590506128b681612890565b92915050565b6000602082840312156128d2576128d161287f565b5b60006128e0848285016128a7565b91505092915050565b6128f281612884565b82525050565b600060208201905061290d60008301846128e9565b92915050565b600080fd5b6000601f19601f8301169050919050565b7f4e487b7100000000000000000000000000000000000000000000000000000000600052604160045260246000fd5b61296182612918565b810181811067ffffffffffffffff821117156129805761297f612929565b5b80604052505050565b6000612993612875565b905061299f8282612958565b919050565b600067ffffffffffffffff8211156129bf576129be612929565b5b602082029050919050565b600080fd5b6000819050919050565b6129e2816129cf565b81146129ed57600080fd5b50565b6000813590506129ff816129d9565b92915050565b6000612a18612a13846129a4565b612989565b90508060208402830185811115612a3257612a316129ca565b5b835b81811015612a5b5780612a4788826129f0565b845260208401935050602081019050612a34565b5050509392505050565b600082601f830112612a7a57612a79612913565b5b6002612a87848285612a05565b91505092915050565b60008060608385031215612aa757612aa661287f565b5b6000612ab585828601612a65565b9250506040612ac6858286016128a7565b9150509250929050565b600060029050919050565b600081905092915050565b6000819050919050565b612af9816129cf565b82525050565b6000612b0b8383612af0565b60208301905092915050565b6000602082019050919050565b612b2d81612ad0565b612b378184612adb565b9250612b4282612ae6565b8060005b83811015612b73578151612b5a8782612aff565b9650612b6583612b17565b925050600181019050612b46565b505050505050565b6000606082019050612b9060008301856128e9565b612b9d6020830184612b24565b9392505050565b6000604082019050612bb960008301856128e9565b612bc660208301846128e9565b9392505050565b600080600060a08486031215612be657612be561287f565b5b6000612bf486828701612a65565b9350506040612c0586828701612a65565b9250506080612c16868287016128a7565b9150509250925092565b600082825260208201905092915050565b50565b6000612c41600083612c20565b9150612c4c82612c31565b600082019050919050565b60006020820190508181036000830152612c7081612c34565b9050919050565b600081519050612c86816129d9565b92915050565b6000612c9f612c9a846129a4565b612989565b90508060208402830185811115612cb957612cb86129ca565b5b835b81811015612ce25780612cce8882612c77565b845260208401935050602081019050612cbb565b5050509392505050565b600082601f830112612d0157612d00612913565b5b6002612d0e848285612c8c565b91505092915050565b600060408284031215612d2d57612d2c61287f565b5b6000612d3b84828501612cec565b91505092915050565b7f4e487b7100000000000000000000000000000000000000000000000000000000600052603260045260246000fd5b6000819050919050565b612d8681612d73565b82525050565b6000602082019050612da16000830184612d7d565b92915050565b612db081612d73565b8114612dbb57600080fd5b50565b600081519050612dcd81612da7565b92915050565b600060208284031215612de957612de861287f565b5b6000612df784828501612dbe565b91505092915050565b7f4e487b7100000000000000000000000000000000000000000000000000000000600052601160045260246000fd5b6000612e3a826129cf565b9150612e45836129cf565b9250827fffffffffffffffffffffffffffffffffffffffffffffffffffffffffffffffff03821115612e7a57612e79612e00565b5b828201905092915050565b6000612e9082612d73565b9150612e9b83612d73565b9250817f7fffffffffffffffffffffffffffffffffffffffffffffffffffffffffffffff03831360008312151615612ed657612ed5612e00565b5b817f8000000000000000000000000000000000000000000000000000000000000000038312600083121615612f0e57612f0d612e00565b5b828201905092915050565b6000612f2482612d73565b9150612f2f83612d73565b9250827f800000000000000000000000000000000000000000000000000000000000000001821260008412151615612f6a57612f69612e00565b5b827f7fffffffffffffffffffffffffffffffffffffffffffffffffffffffffffffff018213600084121615612fa257612fa1612e00565b5b828203905092915050565b612fb6816129cf565b82525050565b6000604082019050612fd16000830185612fad565b612fde6020830184612fad565b9392505050565b600060208284031215612ffb57612ffa61287f565b5b600061300984828501612c77565b91505092915050565b600061301d826129cf565b9150613028836129cf565b92508282101561303b5761303a612e00565b5b828203905092915050565b600060808201905061305b6000830185612b24565b6130686040830184612b24565b9392505050565b60008151905061307e81612890565b92915050565b6000806060838503121561309b5761309a61287f565b5b60006130a98582860161306f565b92505060206130ba85828601612cec565b9150509250929050565b60006130cf826129cf565b91507fffffffffffffffffffffffffffffffffffffffffffffffffffffffffffffffff820361310157613100612e00565b5b600182019050919050565b6000602082840312156131225761312161287f565b5b60006131308482850161306f565b91505092915050565b600080fd5b60006040828403121561315457613153613139565b5b61315e6040612989565b9050600061316e84828501612c77565b60008301525060206131828482850161306f565b60208301525092915050565b6000604082840312156131a4576131a361287f565b5b60006131b28482850161313e565b91505092915050565b60006020820190506131d06000830184612fad565b92915050565b600067ffffffffffffffff8211156131f1576131f0612929565b5b602082029050919050565b600061320f61320a846131d6565b612989565b90508060208402830185811115613229576132286129ca565b5b835b81811015613252578061323e888261306f565b84526020840193505060208101905061322b565b5050509392505050565b600082601f83011261327157613270612913565b5b600361327e8482856131fc565b91505092915050565b60006080828403121561329d5761329c613139565b5b6132a76040612989565b905060006132b78482850161325c565b60008301525060606132cb84828501612c77565b60208301525092915050565b6000608082840312156132ed576132ec61287f565b5b60006132fb84828501613287565b91505092915050565b600081519050919050565b60005b8381101561332d578082015181840152602081019050613312565b8381111561333c576000848401525b50505050565b600061334d82613304565b6133578185612c20565b935061336781856020860161330f565b61337081612918565b840191505092915050565b600060208201905081810360008301526133958184613342565b90509291505056fea264697066735822122005ec5c809ce7eaa2147dadf3810e7d7e4d01c71265c809cfc0c660cded5551ec64736f6c634300080e0033",
  "linkReferences": {},
  "deployedLinkReferences": {}
}