{
  "_format": "hh-sol-artifact-1",
  "contractName": "MoveHandler",
  "sourceName": "contracts/MoveHandler.sol",
  "abi": [
    {
      "inputs": [
        {
          "internalType": "address",
          "name": "_gamecontrol",
          "type": "address"
        },
        {
          "internalType": "address payable",
          "name": "_chessboard",
          "type": "address"
        }
      ],
      "stateMutability": "nonpayable",
      "type": "constructor"
    },
    {
      "inputs": [
        {
          "internalType": "bool",
          "name": "team",
          "type": "bool"
        }
      ],
      "name": "AuthPos",
      "outputs": [
        {
          "internalType": "bool[8]",
          "name": "ress",
          "type": "bool[8]"
        }
      ],
      "stateMutability": "view",
      "type": "function"
    },
    {
      "inputs": [
        {
          "internalType": "uint256[2]",
          "name": "oldpos",
          "type": "uint256[2]"
        },
        {
          "internalType": "uint256[2]",
          "name": "newpos",
          "type": "uint256[2]"
        },
        {
          "internalType": "bool",
          "name": "team",
          "type": "bool"
        }
      ],
      "name": "canArriveToMe",
      "outputs": [
        {
          "internalType": "bool",
          "name": "res",
          "type": "bool"
        },
        {
          "internalType": "uint256[2]",
          "name": "pos",
          "type": "uint256[2]"
        }
      ],
      "stateMutability": "view",
      "type": "function"
    },
    {
      "inputs": [
        {
          "internalType": "bool",
          "name": "team",
          "type": "bool"
        },
        {
          "internalType": "bool",
          "name": "authres",
          "type": "bool"
        }
      ],
      "name": "checkHandler",
      "outputs": [
        {
          "internalType": "bool",
          "name": "",
          "type": "bool"
        }
      ],
      "stateMutability": "view",
      "type": "function"
    },
    {
      "inputs": [
        {
          "internalType": "uint256[2]",
          "name": "oldpos",
          "type": "uint256[2]"
        },
        {
          "internalType": "bool",
          "name": "team",
          "type": "bool"
        }
      ],
      "name": "isEvilBox",
      "outputs": [
        {
          "components": [
            {
              "internalType": "bool",
              "name": "res",
              "type": "bool"
            },
            {
              "internalType": "bool[8]",
              "name": "ress",
              "type": "bool[8]"
            },
            {
              "internalType": "uint256[8]",
              "name": "posx",
              "type": "uint256[8]"
            },
            {
              "internalType": "uint256[8]",
              "name": "posy",
              "type": "uint256[8]"
            }
          ],
          "internalType": "struct MoveHandler.EvilBoxs",
          "name": "evilboxs",
          "type": "tuple"
        }
      ],
      "stateMutability": "view",
      "type": "function"
    }
  ],
  "bytecode": "0x60806040523480156200001157600080fd5b5060405162003e0338038062003e0383398181016040528101906200003791906200016f565b816000806101000a81548173ffffffffffffffffffffffffffffffffffffffff021916908373ffffffffffffffffffffffffffffffffffffffff16021790555080600160006101000a81548173ffffffffffffffffffffffffffffffffffffffff021916908373ffffffffffffffffffffffffffffffffffffffff1602179055505050620001b6565b600080fd5b600073ffffffffffffffffffffffffffffffffffffffff82169050919050565b6000620000f282620000c5565b9050919050565b6200010481620000e5565b81146200011057600080fd5b50565b6000815190506200012481620000f9565b92915050565b60006200013782620000c5565b9050919050565b62000149816200012a565b81146200015557600080fd5b50565b60008151905062000169816200013e565b92915050565b60008060408385031215620001895762000188620000c0565b5b6000620001998582860162000113565b9250506020620001ac8582860162000158565b9150509250929050565b613c3d80620001c66000396000f3fe608060405234801561001057600080fd5b506004361061004c5760003560e01c806325f12500146100515780632f1d80741461008257806338afef0b146100b2578063abd9d350146100e2575b600080fd5b61006b60048036038101906100669190613104565b610112565b604051610079929190613211565b60405180910390f35b61009c6004803603810190610097919061323a565b6108d2565b6040516100a99190613401565b60405180910390f35b6100cc60048036038101906100c7919061341d565b611522565b6040516100d991906134ac565b60405180910390f35b6100fc60048036038101906100f791906134c8565b612662565b6040516101099190613508565b60405180910390f35b600061011c612e9c565b60008054906101000a900473ffffffffffffffffffffffffffffffffffffffff1673ffffffffffffffffffffffffffffffffffffffff166371cc5ad186866040518363ffffffff1660e01b8152600401610177929190613523565b606060405180830381865afa158015610194573d6000803e3d6000fd5b505050506040513d601f19601f820116820180604052508101906101b89190613601565b80925081935050506000600160009054906101000a900473ffffffffffffffffffffffffffffffffffffffff1673ffffffffffffffffffffffffffffffffffffffff16631feeef988360006002811061021457610213613641565b5b60200201518460016002811061022d5761022c613641565b5b60200201516040518363ffffffff1660e01b815260040161024f92919061367f565b6040805180830381865afa15801561026b573d6000803e3d6000fd5b505050506040513d601f19601f8201168201806040525081019061028f91906136fd565b6000015114158015610339575060008054906101000a900473ffffffffffffffffffffffffffffffffffffffff1673ffffffffffffffffffffffffffffffffffffffff1663ac411ce682876040518363ffffffff1660e01b81526004016102f7929190613523565b602060405180830381865afa158015610314573d6000803e3d6000fd5b505050506040513d601f19601f82011682018060405250810190610338919061372a565b5b8015610588575060008054906101000a900473ffffffffffffffffffffffffffffffffffffffff1673ffffffffffffffffffffffffffffffffffffffff16631b5ac4b5826001600281106103905761038f613641565b5b6020020151876001600281106103a9576103a8613641565b5b60200201516103b89190613790565b6040518263ffffffff1660e01b81526004016103d49190613833565b602060405180830381865afa1580156103f1573d6000803e3d6000fd5b505050506040513d601f19601f82011682018060405250810190610415919061387a565b600160009054906101000a900473ffffffffffffffffffffffffffffffffffffffff1673ffffffffffffffffffffffffffffffffffffffff16638f7daf0f600160009054906101000a900473ffffffffffffffffffffffffffffffffffffffff1673ffffffffffffffffffffffffffffffffffffffff16631feeef98856000600281106104a5576104a4613641565b5b6020020151866001600281106104be576104bd613641565b5b60200201516040518363ffffffff1660e01b81526004016104e092919061367f565b6040805180830381865afa1580156104fc573d6000803e3d6000fd5b505050506040513d601f19601f8201168201806040525081019061052091906136fd565b600001516040518263ffffffff1660e01b815260040161054091906138a7565b608060405180830381865afa15801561055d573d6000803e3d6000fd5b505050506040513d601f19601f8201168201806040525081019061058191906139c3565b6020015110155b80156107d7575060008054906101000a900473ffffffffffffffffffffffffffffffffffffffff1673ffffffffffffffffffffffffffffffffffffffff16631b5ac4b5826000600281106105df576105de613641565b5b6020020151876000600281106105f8576105f7613641565b5b60200201516106079190613790565b6040518263ffffffff1660e01b81526004016106239190613833565b602060405180830381865afa158015610640573d6000803e3d6000fd5b505050506040513d601f19601f82011682018060405250810190610664919061387a565b600160009054906101000a900473ffffffffffffffffffffffffffffffffffffffff1673ffffffffffffffffffffffffffffffffffffffff16638f7daf0f600160009054906101000a900473ffffffffffffffffffffffffffffffffffffffff1673ffffffffffffffffffffffffffffffffffffffff16631feeef98856000600281106106f4576106f3613641565b5b60200201518660016002811061070d5761070c613641565b5b60200201516040518363ffffffff1660e01b815260040161072f92919061367f565b6040805180830381865afa15801561074b573d6000803e3d6000fd5b505050506040513d601f19601f8201168201806040525081019061076f91906136fd565b600001516040518263ffffffff1660e01b815260040161078f91906138a7565b608060405180830381865afa1580156107ac573d6000803e3d6000fd5b505050506040513d601f19601f820116820180604052508101906107d091906139c3565b6020015110155b80156108b75750600160009054906101000a900473ffffffffffffffffffffffffffffffffffffffff1673ffffffffffffffffffffffffffffffffffffffff16631feeef98826000600281106108305761082f613641565b5b60200201518360016002811061084957610848613641565b5b60200201516040518363ffffffff1660e01b815260040161086b92919061367f565b6040805180830381865afa158015610887573d6000803e3d6000fd5b505050506040513d601f19601f820116820180604052508101906108ab91906136fd565b60200151151583151514155b156108c557600191506108ca565b600091505b935093915050565b6108da612ebe565b600081604001516000600881106108f4576108f3613641565b5b6020020181815250508260016002811061091157610910613641565b5b6020020151816060015160006008811061092e5761092d613641565b5b6020020181815250506007816040015160016008811061095157610950613641565b5b6020020181815250508260016002811061096e5761096d613641565b5b6020020151816060015160016008811061098b5761098a613641565b5b602002018181525050826000600281106109a8576109a7613641565b5b602002015181604001516002600881106109c5576109c4613641565b5b602002018181525050600081606001516002600881106109e8576109e7613641565b5b60200201818152505082600060028110610a0557610a04613641565b5b60200201518160400151600360088110610a2257610a21613641565b5b60200201818152505060078160600151600360088110610a4557610a44613641565b5b60200201818152505060008054906101000a900473ffffffffffffffffffffffffffffffffffffffff1673ffffffffffffffffffffffffffffffffffffffff16636d5433e684600060028110610a9e57610a9d613641565b5b602002015185600160028110610ab757610ab6613641565b5b60200201516040518363ffffffff1660e01b8152600401610ad992919061367f565b602060405180830381865afa158015610af6573d6000803e3d6000fd5b505050506040513d601f19601f82011682018060405250810190610b1a91906139f0565b6007610b269190613a1d565b83600060028110610b3a57610b39613641565b5b6020020151610b499190613a51565b8160400151600460088110610b6157610b60613641565b5b60200201818152505060008054906101000a900473ffffffffffffffffffffffffffffffffffffffff1673ffffffffffffffffffffffffffffffffffffffff16636d5433e684600060028110610bba57610bb9613641565b5b602002015185600160028110610bd357610bd2613641565b5b60200201516040518363ffffffff1660e01b8152600401610bf592919061367f565b602060405180830381865afa158015610c12573d6000803e3d6000fd5b505050506040513d601f19601f82011682018060405250810190610c3691906139f0565b6007610c429190613a1d565b83600160028110610c5657610c55613641565b5b6020020151610c659190613a51565b8160600151600460088110610c7d57610c7c613641565b5b60200201818152505060008054906101000a900473ffffffffffffffffffffffffffffffffffffffff1673ffffffffffffffffffffffffffffffffffffffff16637ae2b5c784600060028110610cd657610cd5613641565b5b602002015185600160028110610cef57610cee613641565b5b60200201516040518363ffffffff1660e01b8152600401610d1192919061367f565b602060405180830381865afa158015610d2e573d6000803e3d6000fd5b505050506040513d601f19601f82011682018060405250810190610d5291906139f0565b83600060028110610d6657610d65613641565b5b6020020151610d759190613a1d565b8160400151600560088110610d8d57610d8c613641565b5b60200201818152505060008054906101000a900473ffffffffffffffffffffffffffffffffffffffff1673ffffffffffffffffffffffffffffffffffffffff16637ae2b5c784600060028110610de657610de5613641565b5b602002015185600160028110610dff57610dfe613641565b5b60200201516040518363ffffffff1660e01b8152600401610e2192919061367f565b602060405180830381865afa158015610e3e573d6000803e3d6000fd5b505050506040513d601f19601f82011682018060405250810190610e6291906139f0565b83600160028110610e7657610e75613641565b5b6020020151610e859190613a1d565b8160600151600560088110610e9d57610e9c613641565b5b60200201818152505060008054906101000a900473ffffffffffffffffffffffffffffffffffffffff1673ffffffffffffffffffffffffffffffffffffffff1663bac3511984600060028110610ef657610ef5613641565b5b602002015185600160028110610f0f57610f0e613641565b5b6020020151610f1e9190613aa7565b6040518263ffffffff1660e01b8152600401610f3a9190613833565b602060405180830381865afa158015610f57573d6000803e3d6000fd5b505050506040513d601f19601f82011682018060405250810190610f7b919061387a565b8160400151600660088110610f9357610f92613641565b5b60200201818152505060008054906101000a900473ffffffffffffffffffffffffffffffffffffffff1673ffffffffffffffffffffffffffffffffffffffff1663ee0b07e084600060028110610fec57610feb613641565b5b60200201516007610ffd9190613790565b8560016002811061101157611010613641565b5b60200201516110209190613790565b6040518263ffffffff1660e01b815260040161103c9190613833565b602060405180830381865afa158015611059573d6000803e3d6000fd5b505050506040513d601f19601f8201168201806040525081019061107d919061387a565b816060015160066008811061109557611094613641565b5b60200201818152505060008054906101000a900473ffffffffffffffffffffffffffffffffffffffff1673ffffffffffffffffffffffffffffffffffffffff1663ee0b07e0846000600281106110ee576110ed613641565b5b602002015160076110ff9190613790565b8560016002811061111357611112613641565b5b60200201516111229190613790565b6040518263ffffffff1660e01b815260040161113e9190613833565b602060405180830381865afa15801561115b573d6000803e3d6000fd5b505050506040513d601f19601f8201168201806040525081019061117f919061387a565b816040015160076008811061119757611196613641565b5b60200201818152505060008054906101000a900473ffffffffffffffffffffffffffffffffffffffff1673ffffffffffffffffffffffffffffffffffffffff1663bac35119846000600281106111f0576111ef613641565b5b60200201518560016002811061120957611208613641565b5b60200201516112189190613aa7565b6040518263ffffffff1660e01b81526004016112349190613833565b602060405180830381865afa158015611251573d6000803e3d6000fd5b505050506040513d601f19601f82011682018060405250810190611275919061387a565b816060015160076008811061128d5761128c613641565b5b60200201818152505061129e612e9c565b60005b82604001515060088110156113d457611305856040518060400160405280866040015185600881106112d6576112d5613641565b5b60200201518152602001866060015185600881106112f7576112f6613641565b5b602002015181525086610112565b8460200151836008811061131c5761131b613641565b5b60200201819450821515151581525050508260200151816008811061134457611343613641565b5b6020020151156113c1578160006002811061136257611361613641565b5b60200201518360400151826008811061137e5761137d613641565b5b6020020181815250508160016002811061139b5761139a613641565b5b6020020151836060015182600881106113b7576113b6613641565b5b6020020181815250505b80806113cc90613b3b565b9150506112a1565b5081602001516000600881106113ed576113ec613641565b5b602002015180611416575081602001516001600881106114105761140f613641565b5b60200201515b8061143a5750816020015160026008811061143457611433613641565b5b60200201515b8061145e5750816020015160036008811061145857611457613641565b5b60200201515b806114825750816020015160046008811061147c5761147b613641565b5b60200201515b806114a6575081602001516005600881106114a05761149f613641565b5b60200201515b806114ca575081602001516006600881106114c4576114c3613641565b5b60200201515b806114ee575081602001516007600881106114e8576114e7613641565b5b60200201515b1561150957600182600001901515908115158152505061151b565b60008260000190151590811515815250505b5092915050565b61152a612efa565b600160009054906101000a900473ffffffffffffffffffffffffffffffffffffffff1673ffffffffffffffffffffffffffffffffffffffff163373ffffffffffffffffffffffffffffffffffffffff16146115ba576040517f08c379a00000000000000000000000000000000000000000000000000000000081526004016115b190613bba565b60405180910390fd5b6000600160009054906101000a900473ffffffffffffffffffffffffffffffffffffffff1673ffffffffffffffffffffffffffffffffffffffff1663915b740d846040518263ffffffff1660e01b81526004016116179190613508565b6040805180830381865afa158015611633573d6000803e3d6000fd5b505050506040513d601f19601f820116820180604052508101906116579190613bda565b9050611661612f1d565b611669612f1d565b60008054906101000a900473ffffffffffffffffffffffffffffffffffffffff1673ffffffffffffffffffffffffffffffffffffffff1663bac35119846000600281106116b9576116b8613641565b5b60200201516040518263ffffffff1660e01b81526004016116da9190613833565b602060405180830381865afa1580156116f7573d6000803e3d6000fd5b505050506040513d601f19601f8201168201806040525081019061171b919061387a565b8260006008811061172f5761172e613641565b5b60200201818152505060008054906101000a900473ffffffffffffffffffffffffffffffffffffffff1673ffffffffffffffffffffffffffffffffffffffff1663bac3511960018560016002811061178a57611789613641565b5b60200201516117999190613aa7565b6040518263ffffffff1660e01b81526004016117b59190613833565b602060405180830381865afa1580156117d2573d6000803e3d6000fd5b505050506040513d601f19601f820116820180604052508101906117f6919061387a565b8160006008811061180a57611809613641565b5b60200201818152505060008054906101000a900473ffffffffffffffffffffffffffffffffffffffff1673ffffffffffffffffffffffffffffffffffffffff1663bac3511960018560006002811061186557611864613641565b5b60200201516118749190613aa7565b6040518263ffffffff1660e01b81526004016118909190613833565b602060405180830381865afa1580156118ad573d6000803e3d6000fd5b505050506040513d601f19601f820116820180604052508101906118d1919061387a565b826001600881106118e5576118e4613641565b5b60200201818152505060008054906101000a900473ffffffffffffffffffffffffffffffffffffffff1673ffffffffffffffffffffffffffffffffffffffff1663bac351198460016002811061193e5761193d613641565b5b60200201516040518263ffffffff1660e01b815260040161195f9190613833565b602060405180830381865afa15801561197c573d6000803e3d6000fd5b505050506040513d601f19601f820116820180604052508101906119a0919061387a565b816001600881106119b4576119b3613641565b5b60200201818152505060008054906101000a900473ffffffffffffffffffffffffffffffffffffffff1673ffffffffffffffffffffffffffffffffffffffff1663bac3511984600060028110611a0d57611a0c613641565b5b60200201516040518263ffffffff1660e01b8152600401611a2e9190613833565b602060405180830381865afa158015611a4b573d6000803e3d6000fd5b505050506040513d601f19601f82011682018060405250810190611a6f919061387a565b82600260088110611a8357611a82613641565b5b60200201818152505060008054906101000a900473ffffffffffffffffffffffffffffffffffffffff1673ffffffffffffffffffffffffffffffffffffffff1663ee0b07e0600185600160028110611ade57611add613641565b5b6020020151611aed9190613790565b6040518263ffffffff1660e01b8152600401611b099190613833565b602060405180830381865afa158015611b26573d6000803e3d6000fd5b505050506040513d601f19601f82011682018060405250810190611b4a919061387a565b81600260088110611b5e57611b5d613641565b5b60200201818152505060008054906101000a900473ffffffffffffffffffffffffffffffffffffffff1673ffffffffffffffffffffffffffffffffffffffff1663ee0b07e0600185600060028110611bb957611bb8613641565b5b6020020151611bc89190613790565b6040518263ffffffff1660e01b8152600401611be49190613833565b602060405180830381865afa158015611c01573d6000803e3d6000fd5b505050506040513d601f19601f82011682018060405250810190611c25919061387a565b82600360088110611c3957611c38613641565b5b60200201818152505060008054906101000a900473ffffffffffffffffffffffffffffffffffffffff1673ffffffffffffffffffffffffffffffffffffffff1663bac3511984600160028110611c9257611c91613641565b5b60200201516040518263ffffffff1660e01b8152600401611cb39190613833565b602060405180830381865afa158015611cd0573d6000803e3d6000fd5b505050506040513d601f19601f82011682018060405250810190611cf4919061387a565b81600360088110611d0857611d07613641565b5b60200201818152505060008054906101000a900473ffffffffffffffffffffffffffffffffffffffff1673ffffffffffffffffffffffffffffffffffffffff1663bac35119600185600060028110611d6357611d62613641565b5b6020020151611d729190613aa7565b6040518263ffffffff1660e01b8152600401611d8e9190613833565b602060405180830381865afa158015611dab573d6000803e3d6000fd5b505050506040513d601f19601f82011682018060405250810190611dcf919061387a565b82600460088110611de357611de2613641565b5b60200201818152505060008054906101000a900473ffffffffffffffffffffffffffffffffffffffff1673ffffffffffffffffffffffffffffffffffffffff1663ee0b07e0600185600160028110611e3e57611e3d613641565b5b6020020151611e4d9190613790565b6040518263ffffffff1660e01b8152600401611e699190613833565b602060405180830381865afa158015611e86573d6000803e3d6000fd5b505050506040513d601f19601f82011682018060405250810190611eaa919061387a565b81600460088110611ebe57611ebd613641565b5b60200201818152505060008054906101000a900473ffffffffffffffffffffffffffffffffffffffff1673ffffffffffffffffffffffffffffffffffffffff1663ee0b07e0600185600060028110611f1957611f18613641565b5b6020020151611f289190613790565b6040518263ffffffff1660e01b8152600401611f449190613833565b602060405180830381865afa158015611f61573d6000803e3d6000fd5b505050506040513d601f19601f82011682018060405250810190611f85919061387a565b82600560088110611f9957611f98613641565b5b60200201818152505060008054906101000a900473ffffffffffffffffffffffffffffffffffffffff1673ffffffffffffffffffffffffffffffffffffffff1663bac35119600185600160028110611ff457611ff3613641565b5b60200201516120039190613aa7565b6040518263ffffffff1660e01b815260040161201f9190613833565b602060405180830381865afa15801561203c573d6000803e3d6000fd5b505050506040513d601f19601f82011682018060405250810190612060919061387a565b8160056008811061207457612073613641565b5b60200201818152505060008054906101000a900473ffffffffffffffffffffffffffffffffffffffff1673ffffffffffffffffffffffffffffffffffffffff1663ee0b07e06001856000600281106120cf576120ce613641565b5b60200201516120de9190613790565b6040518263ffffffff1660e01b81526004016120fa9190613833565b602060405180830381865afa158015612117573d6000803e3d6000fd5b505050506040513d601f19601f8201168201806040525081019061213b919061387a565b8260066008811061214f5761214e613641565b5b60200201818152505060008054906101000a900473ffffffffffffffffffffffffffffffffffffffff1673ffffffffffffffffffffffffffffffffffffffff1663ee0b07e06001856001600281106121aa576121a9613641565b5b60200201516121b99190613790565b6040518263ffffffff1660e01b81526004016121d59190613833565b602060405180830381865afa1580156121f2573d6000803e3d6000fd5b505050506040513d601f19601f82011682018060405250810190612216919061387a565b8160066008811061222a57612229613641565b5b60200201818152505060008054906101000a900473ffffffffffffffffffffffffffffffffffffffff1673ffffffffffffffffffffffffffffffffffffffff1663bac3511960018560006002811061228557612284613641565b5b60200201516122949190613aa7565b6040518263ffffffff1660e01b81526004016122b09190613833565b602060405180830381865afa1580156122cd573d6000803e3d6000fd5b505050506040513d601f19601f820116820180604052508101906122f1919061387a565b8260076008811061230557612304613641565b5b60200201818152505060008054906101000a900473ffffffffffffffffffffffffffffffffffffffff1673ffffffffffffffffffffffffffffffffffffffff1663bac351196001856001600281106123605761235f613641565b5b602002015161236f9190613aa7565b6040518263ffffffff1660e01b815260040161238b9190613833565b602060405180830381865afa1580156123a8573d6000803e3d6000fd5b505050506040513d601f19601f820116820180604052508101906123cc919061387a565b816007600881106123e0576123df613641565b5b60200201818152505060005b6008811015612659576000600160009054906101000a900473ffffffffffffffffffffffffffffffffffffffff1673ffffffffffffffffffffffffffffffffffffffff16631feeef9885846008811061244857612447613641565b5b60200201518585600881106124605761245f613641565b5b60200201516040518363ffffffff1660e01b815260040161248292919061367f565b6040805180830381865afa15801561249e573d6000803e3d6000fd5b505050506040513d601f19601f820116820180604052508101906124c291906136fd565b60000151141580156125a55750851515600160009054906101000a900473ffffffffffffffffffffffffffffffffffffffff1673ffffffffffffffffffffffffffffffffffffffff16631feeef9885846008811061252357612522613641565b5b602002015185856008811061253b5761253a613641565b5b60200201516040518363ffffffff1660e01b815260040161255d92919061367f565b6040805180830381865afa158015612579573d6000803e3d6000fd5b505050506040513d601f19601f8201168201806040525081019061259d91906136fd565b602001511515145b156125d35760018582600881106125bf576125be613641565b5b602002019015159081151581525050612646565b61261f60405180604001604052808584600881106125f4576125f3613641565b5b6020020151815260200184846008811061261157612610613641565b5b6020020151815250876108d2565b6000015185826008811061263657612635613641565b5b6020020190151590811515815250505b808061265190613b3b565b9150506123ec565b50505050919050565b600061266c612efa565b600080600160009054906101000a900473ffffffffffffffffffffffffffffffffffffffff1673ffffffffffffffffffffffffffffffffffffffff1663915b740d876040518263ffffffff1660e01b81526004016126ca9190613508565b6040805180830381865afa1580156126e6573d6000803e3d6000fd5b505050506040513d601f19601f8201168201806040525081019061270a9190613bda565b9050612714612ebe565b60005b81602001515060088110156127615760008260200151826008811061273f5761273e613641565b5b602002019015159081151581525050808061275990613b3b565b915050612717565b5061276c82886108d2565b6000015180156127795750855b15612e8d5760005b61278b83896108d2565b60200151506008811015612d61576127a383896108d2565b6020015181600881106127b9576127b8613641565b5b602002015115612d295783806127ce90613b3b565b9450506000836000600281106127e7576127e6613641565b5b60200201516127f6858b6108d2565b60400151836008811061280c5761280b613641565b5b602002015161281b9190613790565b905060008460016002811061283357612832613641565b5b6020020151612842868c6108d2565b60600151846008811061285857612857613641565b5b60200201516128679190613790565b905060008060009054906101000a900473ffffffffffffffffffffffffffffffffffffffff1673ffffffffffffffffffffffffffffffffffffffff1663c03c3003846040518263ffffffff1660e01b81526004016128c59190613833565b602060405180830381865afa1580156128e2573d6000803e3d6000fd5b505050506040513d601f19601f82011682018060405250810190612906919061387a565b905060008060009054906101000a900473ffffffffffffffffffffffffffffffffffffffff1673ffffffffffffffffffffffffffffffffffffffff1663c03c3003846040518263ffffffff1660e01b81526004016129649190613833565b602060405180830381865afa158015612981573d6000803e3d6000fd5b505050506040513d601f19601f820116820180604052508101906129a5919061387a565b90506000876000600281106129bd576129bc613641565b5b602002015190506000886001600281106129da576129d9613641565b5b602002015190505b6129ec898f6108d2565b604001518760088110612a0257612a01613641565b5b602002015182141580612a395750612a1a898f6108d2565b606001518760088110612a3057612a2f613641565b5b60200201518114155b15612d1e5760008054906101000a900473ffffffffffffffffffffffffffffffffffffffff1673ffffffffffffffffffffffffffffffffffffffff1663bac351198584612a869190613aa7565b6040518263ffffffff1660e01b8152600401612aa29190613833565b602060405180830381865afa158015612abf573d6000803e3d6000fd5b505050506040513d601f19601f82011682018060405250810190612ae3919061387a565b915060008054906101000a900473ffffffffffffffffffffffffffffffffffffffff1673ffffffffffffffffffffffffffffffffffffffff1663bac351198483612b2d9190613aa7565b6040518263ffffffff1660e01b8152600401612b499190613833565b602060405180830381865afa158015612b66573d6000803e3d6000fd5b505050506040513d601f19601f82011682018060405250810190612b8a919061387a565b9050612bab6040518060400160405280848152602001838152508f156108d2565b975060005b8860200151506008811015612cff5788602001518160088110612bd657612bd5613641565b5b60200201518015612cbe57506005600160009054906101000a900473ffffffffffffffffffffffffffffffffffffffff1673ffffffffffffffffffffffffffffffffffffffff16631feeef988b604001518460088110612c3957612c38613641565b5b60200201518c606001518560088110612c5557612c54613641565b5b60200201516040518363ffffffff1660e01b8152600401612c7792919061367f565b6040805180830381865afa158015612c93573d6000803e3d6000fd5b505050506040513d601f19601f82011682018060405250810190612cb791906136fd565b6000015114155b15612cec5760018c8960088110612cd857612cd7613641565b5b602002019015159081151581525050612cff565b8080612cf790613b3b565b915050612bb0565b508a8760088110612d1357612d12613641565b5b6020020151156129e2575b505050505050612d4e565b6001858260088110612d3e57612d3d613641565b5b6020020190151590811515815250505b8080612d5990613b3b565b915050612781565b50600283108015612d87575083600060088110612d8157612d80613641565b5b60200201515b8015612da8575083600160088110612da257612da1613641565b5b60200201515b8015612dc9575083600260088110612dc357612dc2613641565b5b60200201515b8015612dea575083600360088110612de457612de3613641565b5b60200201515b8015612e0b575083600460088110612e0557612e04613641565b5b60200201515b8015612e2c575083600560088110612e2657612e25613641565b5b60200201515b8015612e4d575083600660088110612e4757612e46613641565b5b60200201515b8015612e6e575083600760088110612e6857612e67613641565b5b60200201515b15612e80576001945050505050612e96565b6000945050505050612e96565b60019450505050505b92915050565b6040518060400160405280600290602082028036833780820191505090505090565b6040518060800160405280600015158152602001612eda612efa565b8152602001612ee7612f1d565b8152602001612ef4612f1d565b81525090565b604051806101000160405280600890602082028036833780820191505090505090565b604051806101000160405280600890602082028036833780820191505090505090565b6000604051905090565b600080fd5b600080fd5b6000601f19601f8301169050919050565b7f4e487b7100000000000000000000000000000000000000000000000000000000600052604160045260246000fd5b612f9d82612f54565b810181811067ffffffffffffffff82111715612fbc57612fbb612f65565b5b80604052505050565b6000612fcf612f40565b9050612fdb8282612f94565b919050565b600067ffffffffffffffff821115612ffb57612ffa612f65565b5b602082029050919050565b600080fd5b6000819050919050565b61301e8161300b565b811461302957600080fd5b50565b60008135905061303b81613015565b92915050565b600061305461304f84612fe0565b612fc5565b9050806020840283018581111561306e5761306d613006565b5b835b818110156130975780613083888261302c565b845260208401935050602081019050613070565b5050509392505050565b600082601f8301126130b6576130b5612f4f565b5b60026130c3848285613041565b91505092915050565b60008115159050919050565b6130e1816130cc565b81146130ec57600080fd5b50565b6000813590506130fe816130d8565b92915050565b600080600060a0848603121561311d5761311c612f4a565b5b600061312b868287016130a1565b935050604061313c868287016130a1565b925050608061314d868287016130ef565b9150509250925092565b613160816130cc565b82525050565b600060029050919050565b600081905092915050565b6000819050919050565b61318f8161300b565b82525050565b60006131a18383613186565b60208301905092915050565b6000602082019050919050565b6131c381613166565b6131cd8184613171565b92506131d88261317c565b8060005b838110156132095781516131f08782613195565b96506131fb836131ad565b9250506001810190506131dc565b505050505050565b60006060820190506132266000830185613157565b61323360208301846131ba565b9392505050565b6000806060838503121561325157613250612f4a565b5b600061325f858286016130a1565b9250506040613270858286016130ef565b9150509250929050565b613283816130cc565b82525050565b600060089050919050565b600081905092915050565b6000819050919050565b60006132b5838361327a565b60208301905092915050565b6000602082019050919050565b6132d781613289565b6132e18184613294565b92506132ec8261329f565b8060005b8381101561331d57815161330487826132a9565b965061330f836132c1565b9250506001810190506132f0565b505050505050565b600060089050919050565b600081905092915050565b6000819050919050565b6000602082019050919050565b61335b81613325565b6133658184613330565b92506133708261333b565b8060005b838110156133a15781516133888782613195565b965061339383613345565b925050600181019050613374565b505050505050565b610320820160008201516133c0600085018261327a565b5060208201516133d360208501826132ce565b5060408201516133e7610120850182613352565b5060608201516133fb610220850182613352565b50505050565b60006103208201905061341760008301846133a9565b92915050565b60006020828403121561343357613432612f4a565b5b6000613441848285016130ef565b91505092915050565b600081905092915050565b61345e81613289565b613468818461344a565b92506134738261329f565b8060005b838110156134a457815161348b87826132a9565b9650613496836132c1565b925050600181019050613477565b505050505050565b6000610100820190506134c26000830184613455565b92915050565b600080604083850312156134df576134de612f4a565b5b60006134ed858286016130ef565b92505060206134fe858286016130ef565b9150509250929050565b600060208201905061351d6000830184613157565b92915050565b600060808201905061353860008301856131ba565b61354560408301846131ba565b9392505050565b60008151905061355b816130d8565b92915050565b60008151905061357081613015565b92915050565b600061358961358484612fe0565b612fc5565b905080602084028301858111156135a3576135a2613006565b5b835b818110156135cc57806135b88882613561565b8452602084019350506020810190506135a5565b5050509392505050565b600082601f8301126135eb576135ea612f4f565b5b60026135f8848285613576565b91505092915050565b6000806060838503121561361857613617612f4a565b5b60006136268582860161354c565b9250506020613637858286016135d6565b9150509250929050565b7f4e487b7100000000000000000000000000000000000000000000000000000000600052603260045260246000fd5b6136798161300b565b82525050565b60006040820190506136946000830185613670565b6136a16020830184613670565b9392505050565b600080fd5b6000604082840312156136c3576136c26136a8565b5b6136cd6040612fc5565b905060006136dd84828501613561565b60008301525060206136f18482850161354c565b60208301525092915050565b60006040828403121561371357613712612f4a565b5b6000613721848285016136ad565b91505092915050565b6000602082840312156137405761373f612f4a565b5b600061374e8482850161354c565b91505092915050565b6000819050919050565b7f4e487b7100000000000000000000000000000000000000000000000000000000600052601160045260246000fd5b600061379b82613757565b91506137a683613757565b9250827f8000000000000000000000000000000000000000000000000000000000000000018212600084121516156137e1576137e0613761565b5b827f7fffffffffffffffffffffffffffffffffffffffffffffffffffffffffffffff01821360008412161561381957613818613761565b5b828203905092915050565b61382d81613757565b82525050565b60006020820190506138486000830184613824565b92915050565b61385781613757565b811461386257600080fd5b50565b6000815190506138748161384e565b92915050565b6000602082840312156138905761388f612f4a565b5b600061389e84828501613865565b91505092915050565b60006020820190506138bc6000830184613670565b92915050565b600067ffffffffffffffff8211156138dd576138dc612f65565b5b602082029050919050565b60006138fb6138f6846138c2565b612fc5565b9050806020840283018581111561391557613914613006565b5b835b8181101561393e578061392a888261354c565b845260208401935050602081019050613917565b5050509392505050565b600082601f83011261395d5761395c612f4f565b5b600361396a8482856138e8565b91505092915050565b600060808284031215613989576139886136a8565b5b6139936040612fc5565b905060006139a384828501613948565b60008301525060606139b784828501613561565b60208301525092915050565b6000608082840312156139d9576139d8612f4a565b5b60006139e784828501613973565b91505092915050565b600060208284031215613a0657613a05612f4a565b5b6000613a1484828501613561565b91505092915050565b6000613a288261300b565b9150613a338361300b565b925082821015613a4657613a45613761565b5b828203905092915050565b6000613a5c8261300b565b9150613a678361300b565b9250827fffffffffffffffffffffffffffffffffffffffffffffffffffffffffffffffff03821115613a9c57613a9b613761565b5b828201905092915050565b6000613ab282613757565b9150613abd83613757565b9250817f7fffffffffffffffffffffffffffffffffffffffffffffffffffffffffffffff03831360008312151615613af857613af7613761565b5b817f8000000000000000000000000000000000000000000000000000000000000000038312600083121615613b3057613b2f613761565b5b828201905092915050565b6000613b468261300b565b91507fffffffffffffffffffffffffffffffffffffffffffffffffffffffffffffffff8203613b7857613b77613761565b5b600182019050919050565b600082825260208201905092915050565b50565b6000613ba4600083613b83565b9150613baf82613b94565b600082019050919050565b60006020820190508181036000830152613bd381613b97565b9050919050565b600060408284031215613bf057613bef612f4a565b5b6000613bfe848285016135d6565b9150509291505056fea264697066735822122084c2b6153a26613c9192f8c3328a707e0d83ec6f498e32df4b73c5ebbbef6dfc64736f6c634300080e0033",
  "linkReferences": {},
  "deployedLinkReferences": {}
}